{
	"contracts/ArbOptV2.sol": {
		"ArbOptimizer": {
			"abi": [
				{
					"inputs": [],
					"stateMutability": "nonpayable",
					"type": "constructor"
				},
				{
					"inputs": [
						{
							"internalType": "address",
							"name": "owner",
							"type": "address"
						}
					],
					"name": "OwnableInvalidOwner",
					"type": "error"
				},
				{
					"inputs": [
						{
							"internalType": "address",
							"name": "account",
							"type": "address"
						}
					],
					"name": "OwnableUnauthorizedAccount",
					"type": "error"
				},
				{
					"anonymous": false,
					"inputs": [
						{
							"indexed": true,
							"internalType": "uint256",
							"name": "routeIndex",
							"type": "uint256"
						},
						{
							"indexed": false,
							"internalType": "uint256",
							"name": "flashLoanAmount",
							"type": "uint256"
						},
						{
							"indexed": false,
							"internalType": "uint256",
							"name": "estimatedProfit",
							"type": "uint256"
						}
					],
					"name": "ArbitrageExecuted",
					"type": "event"
				},
				{
					"anonymous": false,
					"inputs": [
						{
							"indexed": false,
							"internalType": "uint256",
							"name": "minFlashLoanAmount",
							"type": "uint256"
						},
						{
							"indexed": false,
							"internalType": "uint256",
							"name": "maxFlashLoanAmount",
							"type": "uint256"
						},
						{
							"indexed": false,
							"internalType": "uint256",
							"name": "minProfitBps",
							"type": "uint256"
						},
						{
							"indexed": false,
							"internalType": "uint256",
							"name": "amount",
							"type": "uint256"
						}
					],
					"name": "ConfigurationUpdated",
					"type": "event"
				},
				{
					"anonymous": false,
					"inputs": [
						{
							"indexed": false,
							"internalType": "uint256",
							"name": "amount",
							"type": "uint256"
						},
						{
							"indexed": true,
							"internalType": "address",
							"name": "recipient",
							"type": "address"
						}
					],
					"name": "ETHWithdrawn",
					"type": "event"
				},
				{
					"anonymous": false,
					"inputs": [
						{
							"indexed": true,
							"internalType": "uint256",
							"name": "bestRouteIndex",
							"type": "uint256"
						},
						{
							"indexed": false,
							"internalType": "uint256",
							"name": "highestProfit",
							"type": "uint256"
						},
						{
							"indexed": false,
							"internalType": "uint256",
							"name": "flashLoanAmount",
							"type": "uint256"
						}
					],
					"name": "OptimalRouteSelected",
					"type": "event"
				},
				{
					"anonymous": false,
					"inputs": [
						{
							"indexed": true,
							"internalType": "address",
							"name": "previousOwner",
							"type": "address"
						},
						{
							"indexed": true,
							"internalType": "address",
							"name": "newOwner",
							"type": "address"
						}
					],
					"name": "OwnershipTransferred",
					"type": "event"
				},
				{
					"anonymous": false,
					"inputs": [
						{
							"indexed": false,
							"internalType": "address",
							"name": "account",
							"type": "address"
						}
					],
					"name": "Paused",
					"type": "event"
				},
				{
					"anonymous": false,
					"inputs": [
						{
							"indexed": true,
							"internalType": "address",
							"name": "token",
							"type": "address"
						},
						{
							"indexed": false,
							"internalType": "uint256",
							"name": "amount",
							"type": "uint256"
						},
						{
							"indexed": true,
							"internalType": "address",
							"name": "recipient",
							"type": "address"
						}
					],
					"name": "ProfitWithdrawn",
					"type": "event"
				},
				{
					"anonymous": false,
					"inputs": [
						{
							"indexed": true,
							"internalType": "uint256",
							"name": "routeIndex",
							"type": "uint256"
						},
						{
							"indexed": false,
							"internalType": "uint256",
							"name": "estimatedProfit",
							"type": "uint256"
						},
						{
							"indexed": false,
							"internalType": "uint256",
							"name": "flashLoanAmount",
							"type": "uint256"
						},
						{
							"indexed": false,
							"internalType": "bool",
							"name": "isProfitable",
							"type": "bool"
						}
					],
					"name": "RouteAnalyzed",
					"type": "event"
				},
				{
					"anonymous": false,
					"inputs": [
						{
							"indexed": false,
							"internalType": "address",
							"name": "account",
							"type": "address"
						}
					],
					"name": "Unpaused",
					"type": "event"
				},
				{
					"anonymous": false,
					"inputs": [
						{
							"indexed": false,
							"internalType": "uint256",
							"name": "flashLoanAmount",
							"type": "uint256"
						},
						{
							"indexed": false,
							"internalType": "uint256",
							"name": "premiumPercentage",
							"type": "uint256"
						},
						{
							"indexed": false,
							"internalType": "uint256",
							"name": "minProfitBpsThreshold",
							"type": "uint256"
						},
						{
							"indexed": false,
							"internalType": "uint256",
							"name": "minProfitAmount",
							"type": "uint256"
						}
					],
					"name": "UserParametersUpdated",
					"type": "event"
				},
				{
					"inputs": [
						{
							"internalType": "uint256",
							"name": "flashLoanAmount",
							"type": "uint256"
						}
					],
					"name": "analyzeAllRoutes",
					"outputs": [
						{
							"internalType": "uint256[]",
							"name": "routeProfits",
							"type": "uint256[]"
						},
						{
							"internalType": "bool[]",
							"name": "routesProfitable",
							"type": "bool[]"
						}
					],
					"stateMutability": "nonpayable",
					"type": "function"
				},
				{
					"inputs": [
						{
							"internalType": "uint256",
							"name": "routeIndex",
							"type": "uint256"
						},
						{
							"internalType": "uint256",
							"name": "flashLoanAmount",
							"type": "uint256"
						}
					],
					"name": "analyzeRoute",
					"outputs": [
						{
							"internalType": "uint256",
							"name": "estimatedProfit",
							"type": "uint256"
						},
						{
							"internalType": "bool",
							"name": "isProfitable",
							"type": "bool"
						}
					],
					"stateMutability": "nonpayable",
					"type": "function"
				},
				{
					"inputs": [],
					"name": "arbExec",
					"outputs": [
						{
							"internalType": "contract IArbExec",
							"name": "",
							"type": "address"
						}
					],
					"stateMutability": "view",
					"type": "function"
				},
				{
					"inputs": [],
					"name": "autoExecute",
					"outputs": [
						{
							"internalType": "bool",
							"name": "",
							"type": "bool"
						}
					],
					"stateMutability": "view",
					"type": "function"
				},
				{
					"inputs": [],
					"name": "calculatePremiumAmount",
					"outputs": [
						{
							"internalType": "uint256",
							"name": "",
							"type": "uint256"
						}
					],
					"stateMutability": "view",
					"type": "function"
				},
				{
					"inputs": [
						{
							"internalType": "uint256",
							"name": "flashLoanAmount",
							"type": "uint256"
						}
					],
					"name": "executeOptimalArbitrage",
					"outputs": [
						{
							"internalType": "bool",
							"name": "success",
							"type": "bool"
						}
					],
					"stateMutability": "nonpayable",
					"type": "function"
				},
				{
					"inputs": [],
					"name": "executeOptimalArbitrageWithUserParams",
					"outputs": [
						{
							"internalType": "bool",
							"name": "success",
							"type": "bool"
						}
					],
					"stateMutability": "nonpayable",
					"type": "function"
				},
				{
					"inputs": [],
					"name": "executionCooldown",
					"outputs": [
						{
							"internalType": "uint256",
							"name": "",
							"type": "uint256"
						}
					],
					"stateMutability": "view",
					"type": "function"
				},
				{
					"inputs": [
						{
							"internalType": "uint256",
							"name": "flashLoanAmount",
							"type": "uint256"
						}
					],
					"name": "findOptimalRoute",
					"outputs": [
						{
							"internalType": "uint256",
							"name": "bestRouteIndex",
							"type": "uint256"
						},
						{
							"internalType": "uint256",
							"name": "highestProfit",
							"type": "uint256"
						},
						{
							"internalType": "bool",
							"name": "isProfitable",
							"type": "bool"
						}
					],
					"stateMutability": "nonpayable",
					"type": "function"
				},
				{
					"inputs": [],
					"name": "getAllBalances",
					"outputs": [
						{
							"internalType": "uint256",
							"name": "wethBalance",
							"type": "uint256"
						},
						{
							"internalType": "uint256",
							"name": "usdcBalance",
							"type": "uint256"
						},
						{
							"internalType": "uint256",
							"name": "usdtBalance",
							"type": "uint256"
						},
						{
							"internalType": "uint256",
							"name": "daiBalance",
							"type": "uint256"
						},
						{
							"internalType": "uint256",
							"name": "fraxBalance",
							"type": "uint256"
						},
						{
							"internalType": "uint256",
							"name": "lusdBalance",
							"type": "uint256"
						},
						{
							"internalType": "uint256",
							"name": "usdpBalance",
							"type": "uint256"
						},
						{
							"internalType": "uint256",
							"name": "tusdBalance",
							"type": "uint256"
						},
						{
							"internalType": "uint256",
							"name": "gusdBalance",
							"type": "uint256"
						},
						{
							"internalType": "uint256",
							"name": "busdBalance",
							"type": "uint256"
						},
						{
							"internalType": "uint256",
							"name": "usdcEBalance",
							"type": "uint256"
						},
						{
							"internalType": "uint256",
							"name": "eursBalance",
							"type": "uint256"
						},
						{
							"internalType": "uint256",
							"name": "ethBalance",
							"type": "uint256"
						}
					],
					"stateMutability": "view",
					"type": "function"
				},
				{
					"inputs": [],
					"name": "getAllUSDCAddresses",
					"outputs": [
						{
							"internalType": "address",
							"name": "ethereumUsdc",
							"type": "address"
						},
						{
							"internalType": "address",
							"name": "baseUsdc",
							"type": "address"
						},
						{
							"internalType": "address",
							"name": "arbitrumUsdc",
							"type": "address"
						}
					],
					"stateMutability": "pure",
					"type": "function"
				},
				{
					"inputs": [],
					"name": "getArbExecAddress",
					"outputs": [
						{
							"internalType": "address",
							"name": "",
							"type": "address"
						}
					],
					"stateMutability": "pure",
					"type": "function"
				},
				{
					"inputs": [],
					"name": "getETHBalance",
					"outputs": [
						{
							"internalType": "uint256",
							"name": "",
							"type": "uint256"
						}
					],
					"stateMutability": "view",
					"type": "function"
				},
				{
					"inputs": [],
					"name": "getSupportedTokens",
					"outputs": [
						{
							"internalType": "address[]",
							"name": "",
							"type": "address[]"
						}
					],
					"stateMutability": "pure",
					"type": "function"
				},
				{
					"inputs": [
						{
							"internalType": "address",
							"name": "token",
							"type": "address"
						}
					],
					"name": "getTokenBalance",
					"outputs": [
						{
							"internalType": "uint256",
							"name": "",
							"type": "uint256"
						}
					],
					"stateMutability": "view",
					"type": "function"
				},
				{
					"inputs": [
						{
							"internalType": "enum ArbOptimizer.Chain",
							"name": "chain",
							"type": "uint8"
						}
					],
					"name": "getUSDCAddressByChain",
					"outputs": [
						{
							"internalType": "address",
							"name": "usdcAddress",
							"type": "address"
						}
					],
					"stateMutability": "pure",
					"type": "function"
				},
				{
					"inputs": [],
					"name": "getUserParameters",
					"outputs": [
						{
							"internalType": "uint256",
							"name": "flashLoanAmount",
							"type": "uint256"
						},
						{
							"internalType": "uint256",
							"name": "premiumPercentage",
							"type": "uint256"
						},
						{
							"internalType": "uint256",
							"name": "_minProfitBps",
							"type": "uint256"
						},
						{
							"internalType": "uint256",
							"name": "_minProfitAmount",
							"type": "uint256"
						}
					],
					"stateMutability": "view",
					"type": "function"
				},
				{
					"inputs": [],
					"name": "getWETHAddress",
					"outputs": [
						{
							"internalType": "address",
							"name": "",
							"type": "address"
						}
					],
					"stateMutability": "pure",
					"type": "function"
				},
				{
					"inputs": [],
					"name": "getWethValueInUsd",
					"outputs": [
						{
							"internalType": "int256",
							"name": "",
							"type": "int256"
						}
					],
					"stateMutability": "view",
					"type": "function"
				},
				{
					"inputs": [],
					"name": "lastExecutionTime",
					"outputs": [
						{
							"internalType": "uint256",
							"name": "",
							"type": "uint256"
						}
					],
					"stateMutability": "view",
					"type": "function"
				},
				{
					"inputs": [],
					"name": "maxFlashLoanAmount",
					"outputs": [
						{
							"internalType": "uint256",
							"name": "",
							"type": "uint256"
						}
					],
					"stateMutability": "view",
					"type": "function"
				},
				{
					"inputs": [],
					"name": "minFlashLoanAmount",
					"outputs": [
						{
							"internalType": "uint256",
							"name": "",
							"type": "uint256"
						}
					],
					"stateMutability": "view",
					"type": "function"
				},
				{
					"inputs": [],
					"name": "minProfitAmount",
					"outputs": [
						{
							"internalType": "uint256",
							"name": "",
							"type": "uint256"
						}
					],
					"stateMutability": "view",
					"type": "function"
				},
				{
					"inputs": [],
					"name": "minProfitBpsThreshold",
					"outputs": [
						{
							"internalType": "uint256",
							"name": "",
							"type": "uint256"
						}
					],
					"stateMutability": "view",
					"type": "function"
				},
				{
					"inputs": [],
					"name": "owner",
					"outputs": [
						{
							"internalType": "address",
							"name": "",
							"type": "address"
						}
					],
					"stateMutability": "view",
					"type": "function"
				},
				{
					"inputs": [],
					"name": "pause",
					"outputs": [],
					"stateMutability": "nonpayable",
					"type": "function"
				},
				{
					"inputs": [],
					"name": "paused",
					"outputs": [
						{
							"internalType": "bool",
							"name": "",
							"type": "bool"
						}
					],
					"stateMutability": "view",
					"type": "function"
				},
				{
					"inputs": [],
					"name": "renounceOwnership",
					"outputs": [],
					"stateMutability": "nonpayable",
					"type": "function"
				},
				{
					"inputs": [
						{
							"internalType": "bool",
							"name": "_enabled",
							"type": "bool"
						}
					],
					"name": "setAutoExecute",
					"outputs": [],
					"stateMutability": "nonpayable",
					"type": "function"
				},
				{
					"inputs": [
						{
							"internalType": "uint256",
							"name": "_cooldown",
							"type": "uint256"
						}
					],
					"name": "setExecutionCooldown",
					"outputs": [],
					"stateMutability": "nonpayable",
					"type": "function"
				},
				{
					"inputs": [
						{
							"internalType": "uint256",
							"name": "_amount",
							"type": "uint256"
						}
					],
					"name": "setFlashLoanAmount",
					"outputs": [],
					"stateMutability": "nonpayable",
					"type": "function"
				},
				{
					"inputs": [
						{
							"internalType": "uint256",
							"name": "_min",
							"type": "uint256"
						},
						{
							"internalType": "uint256",
							"name": "_max",
							"type": "uint256"
						}
					],
					"name": "setFlashLoanLimits",
					"outputs": [],
					"stateMutability": "nonpayable",
					"type": "function"
				},
				{
					"inputs": [
						{
							"internalType": "uint256",
							"name": "_premiumPercentage",
							"type": "uint256"
						}
					],
					"name": "setFlashLoanPremium",
					"outputs": [],
					"stateMutability": "nonpayable",
					"type": "function"
				},
				{
					"inputs": [
						{
							"internalType": "uint256",
							"name": "_bps",
							"type": "uint256"
						},
						{
							"internalType": "uint256",
							"name": "_amount",
							"type": "uint256"
						}
					],
					"name": "setMinProfitThresholds",
					"outputs": [],
					"stateMutability": "nonpayable",
					"type": "function"
				},
				{
					"inputs": [
						{
							"internalType": "uint256",
							"name": "_minProfitAmount",
							"type": "uint256"
						}
					],
					"name": "setUserMinProfitAmount",
					"outputs": [],
					"stateMutability": "nonpayable",
					"type": "function"
				},
				{
					"inputs": [
						{
							"internalType": "uint256",
							"name": "_minProfitBps",
							"type": "uint256"
						}
					],
					"name": "setUserMinProfitBps",
					"outputs": [],
					"stateMutability": "nonpayable",
					"type": "function"
				},
				{
					"inputs": [
						{
							"internalType": "address",
							"name": "newOwner",
							"type": "address"
						}
					],
					"name": "transferOwnership",
					"outputs": [],
					"stateMutability": "nonpayable",
					"type": "function"
				},
				{
					"inputs": [],
					"name": "unpause",
					"outputs": [],
					"stateMutability": "nonpayable",
					"type": "function"
				},
				{
					"inputs": [],
					"name": "userFlashLoanAmount",
					"outputs": [
						{
							"internalType": "uint256",
							"name": "",
							"type": "uint256"
						}
					],
					"stateMutability": "view",
					"type": "function"
				},
				{
					"inputs": [],
					"name": "userMinProfitAmount",
					"outputs": [
						{
							"internalType": "uint256",
							"name": "",
							"type": "uint256"
						}
					],
					"stateMutability": "view",
					"type": "function"
				},
				{
					"inputs": [],
					"name": "userMinProfitBps",
					"outputs": [
						{
							"internalType": "uint256",
							"name": "",
							"type": "uint256"
						}
					],
					"stateMutability": "view",
					"type": "function"
				},
				{
					"inputs": [],
					"name": "userPremiumPercentage",
					"outputs": [
						{
							"internalType": "uint256",
							"name": "",
							"type": "uint256"
						}
					],
					"stateMutability": "view",
					"type": "function"
				},
				{
					"inputs": [],
					"name": "withdrawAll",
					"outputs": [],
					"stateMutability": "nonpayable",
					"type": "function"
				},
				{
					"inputs": [],
					"name": "withdrawDAI",
					"outputs": [],
					"stateMutability": "nonpayable",
					"type": "function"
				},
				{
					"inputs": [],
					"name": "withdrawETH",
					"outputs": [],
					"stateMutability": "nonpayable",
					"type": "function"
				},
				{
					"inputs": [
						{
							"internalType": "address",
							"name": "token",
							"type": "address"
						}
					],
					"name": "withdrawToken",
					"outputs": [],
					"stateMutability": "nonpayable",
					"type": "function"
				},
				{
					"inputs": [],
					"name": "withdrawUSDC",
					"outputs": [],
					"stateMutability": "nonpayable",
					"type": "function"
				},
				{
					"inputs": [],
					"name": "withdrawUSDT",
					"outputs": [],
					"stateMutability": "nonpayable",
					"type": "function"
				},
				{
					"inputs": [],
					"name": "withdrawWETH",
					"outputs": [],
					"stateMutability": "nonpayable",
					"type": "function"
				},
				{
					"stateMutability": "payable",
					"type": "receive"
				}
			],
			"devdoc": {
				"errors": {
					"OwnableInvalidOwner(address)": [
						{
							"details": "The owner is not a valid owner account. (eg. `address(0)`)"
						}
					],
					"OwnableUnauthorizedAccount(address)": [
						{
							"details": "The caller account is not authorized to perform an operation."
						}
					]
				},
				"events": {
					"Paused(address)": {
						"details": "Emitted when the pause is triggered by `account`."
					},
					"Unpaused(address)": {
						"details": "Emitted when the pause is lifted by `account`."
					}
				},
				"kind": "dev",
				"methods": {
					"analyzeAllRoutes(uint256)": {
						"params": {
							"flashLoanAmount": "Amount to flash loan"
						},
						"returns": {
							"routeProfits": "Array of profits for each route",
							"routesProfitable": "Array of profitability flags"
						}
					},
					"analyzeRoute(uint256,uint256)": {
						"params": {
							"flashLoanAmount": "Amount to flash loan",
							"routeIndex": "Index of the route to analyze"
						},
						"returns": {
							"estimatedProfit": "Expected profit in base token",
							"isProfitable": "Whether route meets minimum profit threshold"
						}
					},
					"calculatePremiumAmount()": {
						"returns": {
							"_0": "premiumAmount Premium amount in wei"
						}
					},
					"executeOptimalArbitrage(uint256)": {
						"params": {
							"flashLoanAmount": "Amount to flash loan (in wei, e.g., 10e18 for 10 WETH)"
						},
						"returns": {
							"success": "Whether execution was successful"
						}
					},
					"executeOptimalArbitrageWithUserParams()": {
						"returns": {
							"success": "Whether execution was successful"
						}
					},
					"findOptimalRoute(uint256)": {
						"params": {
							"flashLoanAmount": "Amount to flash loan"
						},
						"returns": {
							"bestRouteIndex": "Index of most profitable route",
							"highestProfit": "Estimated profit of best route",
							"isProfitable": "Whether best route meets minimum threshold"
						}
					},
					"getAllUSDCAddresses()": {
						"returns": {
							"arbitrumUsdc": "USDC address on Arbitrum",
							"baseUsdc": "USDC address on Base",
							"ethereumUsdc": "USDC address on Ethereum"
						}
					},
					"getUSDCAddressByChain(uint8)": {
						"params": {
							"chain": "Chain enum (ETHEREUM, BASE, ARBITRUM, BSC)"
						},
						"returns": {
							"usdcAddress": "USDC contract address for the specified chain"
						}
					},
					"getUserParameters()": {
						"returns": {
							"_minProfitAmount": "Current minimum profit amount in wei      // <-- Added `_`",
							"_minProfitBps": "Current minimum profit in basis points (BPS)  // <-- Added `_`",
							"flashLoanAmount": "Current flash loan amount",
							"premiumPercentage": "Current premium percentage"
						}
					},
					"getWethValueInUsd()": {
						"returns": {
							"_0": "usdValue The value in USD (scaled by 8 decimals, same as Chainlink)"
						}
					},
					"owner()": {
						"details": "Returns the address of the current owner."
					},
					"paused()": {
						"details": "Returns true if the contract is paused, and false otherwise."
					},
					"renounceOwnership()": {
						"details": "Leaves the contract without owner. It will not be possible to call `onlyOwner` functions. Can only be called by the current owner. NOTE: Renouncing ownership will leave the contract without an owner, thereby disabling any functionality that is only available to the owner."
					},
					"setFlashLoanAmount(uint256)": {
						"params": {
							"_amount": "Amount in wei (e.g., 1e18 = 1 WETH, 10000e18 = 10,000 WETH)"
						}
					},
					"setFlashLoanPremium(uint256)": {
						"params": {
							"_premiumPercentage": "Premium percentage (9 = 0.09%, 100 = 1%)"
						}
					},
					"setUserMinProfitAmount(uint256)": {
						"params": {
							"_minProfitAmount": "Minimum profit in wei (e.g., 0.01e18 = 0.01 WETH)"
						}
					},
					"setUserMinProfitBps(uint256)": {
						"params": {
							"_minProfitBps": "Minimum profit in BPS (50 = 0.5%, 100 = 1%)"
						}
					},
					"transferOwnership(address)": {
						"details": "Transfers ownership of the contract to a new account (`newOwner`). Can only be called by the current owner."
					},
					"withdrawToken(address)": {
						"params": {
							"token": "Token address to withdraw"
						}
					}
				},
				"version": 1
			},
			"evm": {
				"assembly": "    /* \"contracts/ArbOptV2.sol\":1616:23442  contract ArbOptimizer is Ownable, ReentrancyGuard, Pausable { ... */\n  0x80\n  dup1\n  0x40\n  mstore\n  jumpi(tag_1, callvalue)\n    /* \"contracts/ArbOptV2.sol\":8094:8104  msg.sender */\n  caller\n    /* \"@openzeppelin/contracts/access/Ownable.sol\":1310:1336  initialOwner == address(0) */\n  iszero\n    /* \"@openzeppelin/contracts/access/Ownable.sol\":1306:1403  if (initialOwner == address(0)) {... */\n  tag_3\n  jumpi\n    /* \"@openzeppelin/contracts/access/Ownable.sol\":1334:1335  0 */\n  0x00\n    /* \"contracts/ArbOptV2.sol\":1616:23442  contract ArbOptimizer is Ownable, ReentrancyGuard, Pausable { ... */\n  dup1\n  sload\n    /* \"contracts/ArbOptV2.sol\":8094:8104  msg.sender */\n  caller\n  not(sub(shl(0xa0, 0x01), 0x01))\n    /* \"contracts/ArbOptV2.sol\":1616:23442  contract ArbOptimizer is Ownable, ReentrancyGuard, Pausable { ... */\n  dup3\n  and\n  dup2\n  or\n  dup4\n  sstore\n  mload(0x40)\n  swap3\n    /* \"contracts/ArbOptV2.sol\":8094:8104  msg.sender */\n  swap1\n  swap2\n  sub(shl(0xa0, 0x01), 0x01)\n    /* \"contracts/ArbOptV2.sol\":1818:1860  0xEfac88d8e212ca21d4FE670F715c4fE12CFbEF05 */\n  and\n  swap1\n    /* \"@openzeppelin/contracts/access/Ownable.sol\":3148:3188  OwnershipTransferred(oldOwner, newOwner) */\n  0x8be0079c531659141344cd1fd0a4f28419497f9722a3daafe3b4186f6b6457e0\n  swap1\n    /* \"@openzeppelin/contracts/access/Ownable.sol\":1334:1335  0 */\n  dup1\n    /* \"@openzeppelin/contracts/access/Ownable.sol\":3148:3188  OwnershipTransferred(oldOwner, newOwner) */\n  log3\n    /* \"contracts/ArbOptV2.sol\":1616:23442  contract ArbOptimizer is Ownable, ReentrancyGuard, Pausable { ... */\n  0x01\n  dup1\n  sstore\n    /* \"contracts/ArbOptV2.sol\":1818:1860  0xEfac88d8e212ca21d4FE670F715c4fE12CFbEF05 */\n  0xefac88d8e212ca21d4fe670f715c4fe12cfbef0500\n    /* \"@openzeppelin/contracts/security/Pausable.sol\":1029:1044  _paused = false */\n  0x02\n    /* \"contracts/ArbOptV2.sol\":1616:23442  contract ArbOptimizer is Ownable, ReentrancyGuard, Pausable { ... */\n  sload\n    /* \"contracts/ArbOptV2.sol\":6546:6550  1e18 */\n  0x0de0b6b3a7640000\n    /* \"contracts/ArbOptV2.sol\":1616:23442  contract ArbOptimizer is Ownable, ReentrancyGuard, Pausable { ... */\n  dup1\n    /* \"contracts/ArbOptV2.sol\":6546:6550  1e18 */\n  0x03\n    /* \"contracts/ArbOptV2.sol\":1616:23442  contract ArbOptimizer is Ownable, ReentrancyGuard, Pausable { ... */\n  sstore\n    /* \"contracts/ArbOptV2.sol\":6611:6612  9 */\n  0x09\n  0x04\n    /* \"contracts/ArbOptV2.sol\":1616:23442  contract ArbOptimizer is Ownable, ReentrancyGuard, Pausable { ... */\n  sstore\n    /* \"contracts/ArbOptV2.sol\":6684:6686  50 */\n  0x32\n  0x05\n    /* \"contracts/ArbOptV2.sol\":1616:23442  contract ArbOptimizer is Ownable, ReentrancyGuard, Pausable { ... */\n  sstore\n    /* \"contracts/ArbOptV2.sol\":6761:6768  0.01e18 */\n  0x2386f26fc10000\n    /* \"contracts/ArbOptV2.sol\":1616:23442  contract ArbOptimizer is Ownable, ReentrancyGuard, Pausable { ... */\n  swap1\n  dup2\n    /* \"contracts/ArbOptV2.sol\":6761:6768  0.01e18 */\n  0x06\n    /* \"contracts/ArbOptV2.sol\":1616:23442  contract ArbOptimizer is Ownable, ReentrancyGuard, Pausable { ... */\n  sstore\n    /* \"contracts/ArbOptV2.sol\":6829:6833  1e18 */\n  0x07\n    /* \"contracts/ArbOptV2.sol\":1616:23442  contract ArbOptimizer is Ownable, ReentrancyGuard, Pausable { ... */\n  sstore\n    /* \"contracts/ArbOptV2.sol\":6872:6880  10000e18 */\n  0x021e19e0c9bab2400000\n  0x08\n    /* \"contracts/ArbOptV2.sol\":1616:23442  contract ArbOptimizer is Ownable, ReentrancyGuard, Pausable { ... */\n  sstore\n    /* \"contracts/ArbOptV2.sol\":6684:6686  50 */\n  0x32\n    /* \"contracts/ArbOptV2.sol\":6611:6612  9 */\n  0x09\n    /* \"contracts/ArbOptV2.sol\":1616:23442  contract ArbOptimizer is Ownable, ReentrancyGuard, Pausable { ... */\n  sstore\n    /* \"contracts/ArbOptV2.sol\":6998:7005  0.01e18 */\n  0x0a\n    /* \"contracts/ArbOptV2.sol\":1616:23442  contract ArbOptimizer is Ownable, ReentrancyGuard, Pausable { ... */\n  sstore\n  not(0xff)\n    /* \"contracts/ArbOptV2.sol\":7034:7039  false */\n  0x0b\n    /* \"contracts/ArbOptV2.sol\":1616:23442  contract ArbOptimizer is Ownable, ReentrancyGuard, Pausable { ... */\n  sload\n  and\n    /* \"contracts/ArbOptV2.sol\":7034:7039  false */\n  0x0b\n    /* \"contracts/ArbOptV2.sol\":1616:23442  contract ArbOptimizer is Ownable, ReentrancyGuard, Pausable { ... */\n  sstore\n    /* \"contracts/ArbOptV2.sol\":7112:7122  60 seconds */\n  0x3c\n  0x0d\n    /* \"contracts/ArbOptV2.sol\":1616:23442  contract ArbOptimizer is Ownable, ReentrancyGuard, Pausable { ... */\n  sstore\n  0x01\n    /* \"contracts/ArbOptV2.sol\":1818:1860  0xEfac88d8e212ca21d4FE670F715c4fE12CFbEF05 */\n  dup1\n  0xa8\n  shl\n  sub\n  not\n  and\n  or\n    /* \"@openzeppelin/contracts/security/Pausable.sol\":1029:1044  _paused = false */\n  0x02\n    /* \"contracts/ArbOptV2.sol\":1818:1860  0xEfac88d8e212ca21d4FE670F715c4fE12CFbEF05 */\n  sstore\n    /* \"contracts/ArbOptV2.sol\":1616:23442  contract ArbOptimizer is Ownable, ReentrancyGuard, Pausable { ... */\n  dataSize(sub_0)\n  swap1\n  dup2\n  dataOffset(sub_0)\n  dup3\n  codecopy\n  return\n    /* \"@openzeppelin/contracts/access/Ownable.sol\":1306:1403  if (initialOwner == address(0)) {... */\ntag_3:\n  shl(0xe0, 0x1e4fbdf7)\n    /* \"@openzeppelin/contracts/access/Ownable.sol\":1360:1391  OwnableInvalidOwner(address(0)) */\n  dup2\n  mstore\n    /* \"@openzeppelin/contracts/access/Ownable.sol\":1334:1335  0 */\n  0x00\n    /* \"@openzeppelin/contracts/access/Ownable.sol\":1360:1391  OwnableInvalidOwner(address(0)) */\n  0x04\n  dup3\n  add\n    /* \"contracts/ArbOptV2.sol\":1616:23442  contract ArbOptimizer is Ownable, ReentrancyGuard, Pausable { ... */\n  mstore\n  0x24\n  swap1\n    /* \"@openzeppelin/contracts/access/Ownable.sol\":1360:1391  OwnableInvalidOwner(address(0)) */\n  revert\n    /* \"contracts/ArbOptV2.sol\":1616:23442  contract ArbOptimizer is Ownable, ReentrancyGuard, Pausable { ... */\ntag_1:\n  0x00\n  dup1\n  revert\nstop\n\nsub_0: assembly {\n        /* \"contracts/ArbOptV2.sol\":1616:23442  contract ArbOptimizer is Ownable, ReentrancyGuard, Pausable { ... */\n      mstore(0x40, 0x80)\n      jumpi(tag_24, iszero(lt(calldatasize, 0x04)))\n    tag_25:\n      jumpi(tag_26, iszero(calldatasize))\n      0x00\n      dup1\n      revert\n    tag_26:\n      stop\n    tag_24:\n      0x00\n      dup1\n      calldataload\n      0xe0\n      shr\n      dup1\n      0x020bcc9e\n      eq\n      tag_28\n      jumpi\n      dup1\n      0x0af95101\n      eq\n      tag_30\n      jumpi\n      dup1\n      0x1da9e7bb\n      eq\n      tag_32\n      jumpi\n      dup1\n      0x2e610fb8\n      eq\n      tag_34\n      jumpi\n      dup1\n      0x315b41ce\n      eq\n      tag_36\n      jumpi\n      dup1\n      0x362e496b\n      eq\n      tag_38\n      jumpi\n      dup1\n      0x38fa84f8\n      eq\n      tag_40\n      jumpi\n      dup1\n      0x3aecd0e3\n      eq\n      tag_42\n      jumpi\n      dup1\n      0x3f4ba83a\n      eq\n      tag_44\n      jumpi\n      dup1\n      0x4c02f62e\n      eq\n      tag_46\n      jumpi\n      dup1\n      0x55cabd90\n      eq\n      tag_48\n      jumpi\n      dup1\n      0x55ce344a\n      eq\n      tag_50\n      jumpi\n      dup1\n      0x5c975abb\n      eq\n      tag_52\n      jumpi\n      dup1\n      0x66e5b5c5\n      eq\n      tag_54\n      jumpi\n      dup1\n      0x6b9c189f\n      eq\n      tag_56\n      jumpi\n      dup1\n      0x6e947298\n      eq\n      tag_58\n      jumpi\n      dup1\n      0x715018a6\n      eq\n      tag_60\n      jumpi\n      dup1\n      0x716ad825\n      eq\n      tag_62\n      jumpi\n      dup1\n      0x73b379bd\n      eq\n      tag_64\n      jumpi\n      dup1\n      0x8456cb59\n      eq\n      tag_66\n      jumpi\n      dup1\n      0x853828b6\n      eq\n      tag_68\n      jumpi\n      dup1\n      0x867e7c27\n      eq\n      tag_70\n      jumpi\n      dup1\n      0x89476069\n      eq\n      tag_72\n      jumpi\n      dup1\n      0x8da5cb5b\n      eq\n      tag_74\n      jumpi\n      dup1\n      0x8f40f0a6\n      eq\n      tag_76\n      jumpi\n      dup1\n      0x90324b58\n      eq\n      tag_78\n      jumpi\n      dup1\n      0x9517ed85\n      eq\n      tag_80\n      jumpi\n      dup1\n      0xa140edb4\n      eq\n      tag_82\n      jumpi\n      dup1\n      0xa3708744\n      eq\n      tag_84\n      jumpi\n      dup1\n      0xa6b8ec96\n      eq\n      tag_86\n      jumpi\n      dup1\n      0xa911f736\n      eq\n      tag_88\n      jumpi\n      dup1\n      0xad3707d4\n      eq\n      tag_90\n      jumpi\n      dup1\n      0xaffa8817\n      eq\n      tag_92\n      jumpi\n      dup1\n      0xb4804ce7\n      eq\n      tag_94\n      jumpi\n      dup1\n      0xb75844d6\n      eq\n      tag_96\n      jumpi\n      dup1\n      0xbaf22721\n      eq\n      tag_98\n      jumpi\n      dup1\n      0xccdc7057\n      eq\n      tag_100\n      jumpi\n      dup1\n      0xcf224d07\n      eq\n      tag_102\n      jumpi\n      dup1\n      0xd2d43111\n      eq\n      tag_104\n      jumpi\n      dup1\n      0xd3c7c2c7\n      eq\n      tag_106\n      jumpi\n      dup1\n      0xd7b3a397\n      eq\n      tag_108\n      jumpi\n      dup1\n      0xd8fc063d\n      eq\n      tag_110\n      jumpi\n      dup1\n      0xe086e5ec\n      eq\n      tag_112\n      jumpi\n      dup1\n      0xe2a594b6\n      eq\n      tag_114\n      jumpi\n      dup1\n      0xe61d98c5\n      eq\n      tag_116\n      jumpi\n      dup1\n      0xe6419b3f\n      eq\n      tag_118\n      jumpi\n      dup1\n      0xf2fde38b\n      eq\n      tag_120\n      jumpi\n      dup1\n      0xf4d2832d\n      eq\n      tag_122\n      jumpi\n      0xf7d5e663\n      eq\n      tag_124\n      jumpi\n      pop\n      jump(tag_25)\n    tag_124:\n      jumpi(tag_126, callvalue)\n      tag_128\n      calldatasize\n      tag_1\n      jump\t// in\n    tag_128:\n        /* \"@openzeppelin/contracts/access/Ownable.sol\":1546:1611  modifier onlyOwner() {... */\n      tag_129\n      tag_5\n      jump\t// in\n    tag_129:\n        /* \"contracts/ArbOptV2.sol\":19776:19784  _min > 0 */\n      dup2\n      iszero\n      iszero\n        /* \"contracts/ArbOptV2.sol\":19776:19799  _min > 0 && _max > _min */\n      dup1\n      tag_130\n      jumpi\n        /* \"contracts/ArbOptV2.sol\":1616:23442  contract ArbOptimizer is Ownable, ReentrancyGuard, Pausable { ... */\n    tag_131:\n      iszero\n      tag_132\n      jumpi\n        /* \"contracts/ArbOptV2.sol\":19825:19850  minFlashLoanAmount = _min */\n      0x07\n        /* \"contracts/ArbOptV2.sol\":1616:23442  contract ArbOptimizer is Ownable, ReentrancyGuard, Pausable { ... */\n      dup3\n      swap1\n      sstore\n        /* \"contracts/ArbOptV2.sol\":19857:19882  maxFlashLoanAmount = _max */\n      0x08\n        /* \"contracts/ArbOptV2.sol\":1616:23442  contract ArbOptimizer is Ownable, ReentrancyGuard, Pausable { ... */\n      dup2\n      swap1\n      sstore\n        /* \"contracts/ArbOptV2.sol\":19927:19948  minProfitBpsThreshold */\n      0x09\n        /* \"contracts/ArbOptV2.sol\":1616:23442  contract ArbOptimizer is Ownable, ReentrancyGuard, Pausable { ... */\n      sload\n        /* \"contracts/ArbOptV2.sol\":19950:19965  minProfitAmount */\n      0x0a\n        /* \"contracts/ArbOptV2.sol\":1616:23442  contract ArbOptimizer is Ownable, ReentrancyGuard, Pausable { ... */\n      sload\n      0x40\n      dup1\n      mload\n      swap5\n      dup6\n      mstore\n      0x20\n      dup6\n      add\n      swap4\n      swap1\n      swap4\n      mstore\n      swap2\n      dup4\n      add\n      mstore\n      0x60\n      dup3\n      add\n      mstore\n        /* \"contracts/ArbOptV2.sol\":19894:19966  ConfigurationUpdated(_min, _max, minProfitBpsThreshold, minProfitAmount) */\n      0xb332ff846a7f7e49c967d592cb8ecccd56f3693ab85af2f484aa5bfabcd2a57a\n      swap1\n        /* \"contracts/ArbOptV2.sol\":1616:23442  contract ArbOptimizer is Ownable, ReentrancyGuard, Pausable { ... */\n      dup1\n      0x80\n      dup2\n      add\n        /* \"contracts/ArbOptV2.sol\":19894:19966  ConfigurationUpdated(_min, _max, minProfitBpsThreshold, minProfitAmount) */\n    tag_134:\n      sub\n      swap1\n      log1\n        /* \"contracts/ArbOptV2.sol\":1616:23442  contract ArbOptimizer is Ownable, ReentrancyGuard, Pausable { ... */\n      dup1\n      return\n    tag_132:\n      mload(0x40)\n      shl(0xe5, 0x461bcd)\n      dup2\n      mstore\n      0x20\n      0x04\n      dup3\n      add\n      mstore\n      0x0e\n      0x24\n      dup3\n      add\n      mstore\n      shl(0x90, 0x496e76616c6964206c696d697473)\n      0x44\n      dup3\n      add\n      mstore\n      0x64\n      swap1\n      revert\n        /* \"contracts/ArbOptV2.sol\":19776:19799  _min > 0 && _max > _min */\n    tag_130:\n        /* \"contracts/ArbOptV2.sol\":19788:19799  _max > _min */\n      pop\n      dup2\n      dup2\n      gt\n        /* \"contracts/ArbOptV2.sol\":19776:19799  _min > 0 && _max > _min */\n      jump(tag_131)\n        /* \"contracts/ArbOptV2.sol\":1616:23442  contract ArbOptimizer is Ownable, ReentrancyGuard, Pausable { ... */\n    tag_126:\n      dup1\n      revert\n    tag_122:\n      pop\n      jumpi(tag_126, callvalue)\n      jumpi(tag_126, slt(add(not(0x03), calldatasize), 0x20))\n      0x00\n      dup1\n      mload\n      0x20\n      data_85fcec988403e367a9c095d79cbc6a0a812bce994f18f13f6c96747afa79ec6e\n      dup4\n      codecopy\n      dup2\n      mload\n      swap2\n      mstore\n      calldataload(0x04)\n        /* \"@openzeppelin/contracts/access/Ownable.sol\":1546:1611  modifier onlyOwner() {... */\n      tag_139\n      tag_5\n      jump\t// in\n    tag_139:\n        /* \"contracts/ArbOptV2.sol\":9544:9590  require(_minProfitBps <= 10000, \"Invalid BPS\") */\n      tag_140\n        /* \"contracts/ArbOptV2.sol\":9569:9574  10000 */\n      0x2710\n        /* \"contracts/ArbOptV2.sol\":9552:9574  _minProfitBps <= 10000 */\n      dup3\n      gt\n      iszero\n        /* \"contracts/ArbOptV2.sol\":9544:9590  require(_minProfitBps <= 10000, \"Invalid BPS\") */\n      tag_12\n      jump\t// in\n    tag_140:\n        /* \"contracts/ArbOptV2.sol\":1616:23442  contract ArbOptimizer is Ownable, ReentrancyGuard, Pausable { ... */\n      dup1\n        /* \"contracts/ArbOptV2.sol\":9597:9629  userMinProfitBps = _minProfitBps */\n      0x05\n        /* \"contracts/ArbOptV2.sol\":1616:23442  contract ArbOptimizer is Ownable, ReentrancyGuard, Pausable { ... */\n      sstore\n      sload(0x03)\n        /* \"contracts/ArbOptV2.sol\":9641:9788  UserParametersUpdated(... */\n      tag_134\n        /* \"contracts/ArbOptV2.sol\":1616:23442  contract ArbOptimizer is Ownable, ReentrancyGuard, Pausable { ... */\n      sload(0x04)\n      swap3\n        /* \"contracts/ArbOptV2.sol\":9762:9781  userMinProfitAmount */\n      0x06\n        /* \"contracts/ArbOptV2.sol\":1616:23442  contract ArbOptimizer is Ownable, ReentrancyGuard, Pausable { ... */\n      sload\n      swap1\n      mload(0x40)\n        /* \"contracts/ArbOptV2.sol\":9641:9788  UserParametersUpdated(... */\n      swap5\n      dup6\n      swap5\n      dup6\n        /* \"contracts/ArbOptV2.sol\":1616:23442  contract ArbOptimizer is Ownable, ReentrancyGuard, Pausable { ... */\n      swap1\n      swap5\n      swap4\n      swap3\n      0x60\n      swap3\n      0x80\n      dup4\n      add\n      swap7\n      dup4\n      mstore\n      0x20\n      dup4\n      add\n      mstore\n      0x40\n      dup3\n      add\n      mstore\n      add\n      mstore\n      jump\n    tag_120:\n      pop\n      jumpi(tag_126, callvalue)\n      jumpi(tag_126, slt(add(not(0x03), calldatasize), 0x20))\n      calldataload(0x04)\n      sub(shl(0xa0, 0x01), 0x01)\n      dup2\n      dup2\n      and\n      swap2\n      dup3\n      swap1\n      sub\n      tag_146\n      jumpi\n        /* \"@openzeppelin/contracts/access/Ownable.sol\":1546:1611  modifier onlyOwner() {... */\n      tag_148\n      tag_5\n      jump\t// in\n    tag_148:\n        /* \"@openzeppelin/contracts/access/Ownable.sol\":2710:2732  newOwner == address(0) */\n      dup2\n      iszero\n        /* \"@openzeppelin/contracts/access/Ownable.sol\":2706:2799  if (newOwner == address(0)) {... */\n      tag_149\n      jumpi\n        /* \"contracts/ArbOptV2.sol\":1616:23442  contract ArbOptimizer is Ownable, ReentrancyGuard, Pausable { ... */\n      sload(0x00)\n      dup3\n      shl(0xa0, 0xffffffffffffffffffffffff)\n      dup3\n      and\n      or\n      0x00\n      sstore\n      and\n        /* \"@openzeppelin/contracts/access/Ownable.sol\":3148:3188  OwnershipTransferred(oldOwner, newOwner) */\n      0x8be0079c531659141344cd1fd0a4f28419497f9722a3daafe3b4186f6b6457e0\n        /* \"contracts/ArbOptV2.sol\":1616:23442  contract ArbOptimizer is Ownable, ReentrancyGuard, Pausable { ... */\n      0x00\n        /* \"@openzeppelin/contracts/access/Ownable.sol\":3148:3188  OwnershipTransferred(oldOwner, newOwner) */\n      dup1\n      log3\n        /* \"contracts/ArbOptV2.sol\":1616:23442  contract ArbOptimizer is Ownable, ReentrancyGuard, Pausable { ... */\n      dup1\n      return\n        /* \"@openzeppelin/contracts/access/Ownable.sol\":2706:2799  if (newOwner == address(0)) {... */\n    tag_149:\n        /* \"contracts/ArbOptV2.sol\":1616:23442  contract ArbOptimizer is Ownable, ReentrancyGuard, Pausable { ... */\n      mload(0x40)\n      shl(0xe0, 0x1e4fbdf7)\n        /* \"@openzeppelin/contracts/access/Ownable.sol\":2756:2787  OwnableInvalidOwner(address(0)) */\n      dup2\n      mstore\n        /* \"contracts/ArbOptV2.sol\":1616:23442  contract ArbOptimizer is Ownable, ReentrancyGuard, Pausable { ... */\n      0x04\n        /* \"@openzeppelin/contracts/access/Ownable.sol\":2756:2787  OwnableInvalidOwner(address(0)) */\n      dup2\n      add\n        /* \"contracts/ArbOptV2.sol\":1616:23442  contract ArbOptimizer is Ownable, ReentrancyGuard, Pausable { ... */\n      dup5\n      swap1\n      mstore\n      0x24\n      swap1\n        /* \"@openzeppelin/contracts/access/Ownable.sol\":2756:2787  OwnableInvalidOwner(address(0)) */\n      revert\n        /* \"contracts/ArbOptV2.sol\":1616:23442  contract ArbOptimizer is Ownable, ReentrancyGuard, Pausable { ... */\n    tag_146:\n      dup3\n      dup1\n      revert\n    tag_118:\n      pop\n      jumpi(tag_126, callvalue)\n      dup1\n      add(calldatasize, not(0x03))\n      slt\n      tag_126\n      jumpi\n        /* \"contracts/ArbOptV2.sol\":6455:6478  IArbExec public arbExec */\n      0x02\n        /* \"contracts/ArbOptV2.sol\":1616:23442  contract ArbOptimizer is Ownable, ReentrancyGuard, Pausable { ... */\n      sload\n      mload(0x40)\n      0x08\n      swap2\n      swap1\n      swap2\n      shr\n      sub(shl(0xa0, 0x01), 0x01)\n      and\n      dup2\n      mstore\n      0x20\n      swap1\n      return\n    tag_116:\n      pop\n      jumpi(tag_126, callvalue)\n      dup1\n      add(calldatasize, not(0x03))\n      slt\n      tag_126\n      jumpi\n      0x60\n      mload(0x40)\n        /* \"contracts/ArbOptV2.sol\":1990:2032  0xA0b86991c6218b36c1d19D4a2e9Eb0cE3606eB48 */\n      0xa0b86991c6218b36c1d19d4a2e9eb0ce3606eb48\n        /* \"contracts/ArbOptV2.sol\":1616:23442  contract ArbOptimizer is Ownable, ReentrancyGuard, Pausable { ... */\n      dup2\n      mstore\n        /* \"contracts/ArbOptV2.sol\":2095:2137  0x833589fCD6eDb6E08f4c7C32D4f71b54bdA02913 */\n      0x833589fcd6edb6e08f4c7c32d4f71b54bda02913\n        /* \"contracts/ArbOptV2.sol\":1616:23442  contract ArbOptimizer is Ownable, ReentrancyGuard, Pausable { ... */\n      0x20\n      dup3\n      add\n      mstore\n        /* \"contracts/ArbOptV2.sol\":2203:2245  0xFd086bC7CD5C481DCC9C85ebE478A1C0b69FCbb9 */\n      0xfd086bc7cd5c481dcc9c85ebe478a1c0b69fcbb9\n        /* \"contracts/ArbOptV2.sol\":1616:23442  contract ArbOptimizer is Ownable, ReentrancyGuard, Pausable { ... */\n      0x40\n      dup3\n      add\n      mstore\n      return\n    tag_114:\n      pop\n      jumpi(tag_126, callvalue)\n      jumpi(tag_126, slt(add(not(0x03), calldatasize), 0x20))\n      calldataload(0x04)\n      swap1\n      0x04\n      dup3\n      lt\n      iszero\n      tag_126\n      jumpi\n      0x20\n      tag_165\n      dup4\n      tag_9\n      jump\t// in\n    tag_165:\n      mload(0x40)\n      sub(shl(0xa0, 0x01), 0x01)\n      swap1\n      swap2\n      and\n      dup2\n      mstore\n      return\n    tag_112:\n      pop\n      jumpi(tag_126, callvalue)\n      dup1\n      add(calldatasize, not(0x03))\n      slt\n      tag_126\n      jumpi\n        /* \"@openzeppelin/contracts/security/ReentrancyGuard.sol\":2276:2383  modifier nonReentrant() {... */\n      tag_170\n      tag_19\n      jump\t// in\n    tag_170:\n        /* \"@openzeppelin/contracts/access/Ownable.sol\":1546:1611  modifier onlyOwner() {... */\n      tag_171\n      tag_5\n      jump\t// in\n    tag_171:\n        /* \"contracts/ArbOptV2.sol\":18191:18198  arbExec */\n      0x02\n        /* \"contracts/ArbOptV2.sol\":1616:23442  contract ArbOptimizer is Ownable, ReentrancyGuard, Pausable { ... */\n      sload\n      dup2\n      swap1\n      0x08\n      shr\n      sub(shl(0xa0, 0x01), 0x01)\n      and\n        /* \"contracts/ArbOptV2.sol\":18191:18212  arbExec.withdrawETH() */\n      dup1\n      extcodesize\n      iszero\n      tag_172\n      jumpi\n        /* \"contracts/ArbOptV2.sol\":1616:23442  contract ArbOptimizer is Ownable, ReentrancyGuard, Pausable { ... */\n      dup2\n      dup1\n      swap2\n      0x04\n      mload(0x40)\n        /* \"contracts/ArbOptV2.sol\":4738:4803  AggregatorV3Interface(0x5f4eC3Df9cbd43714FE2740f5E3616155c5b8419) */\n      dup1\n      swap5\n      dup2\n      swap4\n      shl(0xe2, 0x3821b97b)\n        /* \"contracts/ArbOptV2.sol\":18191:18212  arbExec.withdrawETH() */\n      dup4\n      mstore\n      gas\n      call\n      dup1\n      iszero\n      tag_174\n      jumpi\n      tag_176\n      jumpi\n        /* \"contracts/ArbOptV2.sol\":1616:23442  contract ArbOptimizer is Ownable, ReentrancyGuard, Pausable { ... */\n    tag_177:\n        /* \"contracts/ArbOptV2.sol\":18237:18258  address(this).balance */\n      pop\n      pop\n      selfbalance\n        /* \"contracts/ArbOptV2.sol\":18269:18280  balance > 0 */\n      dup1\n        /* \"contracts/ArbOptV2.sol\":18265:18454  if (balance > 0) {... */\n      tag_178\n      jumpi\n        /* \"contracts/ArbOptV2.sol\":1616:23442  contract ArbOptimizer is Ownable, ReentrancyGuard, Pausable { ... */\n    tag_179:\n      pop\n      0x01\n      dup1\n      sstore\n      dup1\n      return\n        /* \"contracts/ArbOptV2.sol\":18265:18454  if (balance > 0) {... */\n    tag_178:\n        /* \"contracts/ArbOptV2.sol\":18358:18397  require(success, \"ETH transfer failed\") */\n      tag_180\n        /* \"contracts/ArbOptV2.sol\":18312:18322  msg.sender */\n      dup3\n      dup1\n      dup1\n      dup1\n      dup6\n      caller\n        /* \"contracts/ArbOptV2.sol\":18312:18347  msg.sender.call{value: balance}(\"\") */\n      gas\n      call\n      tag_181\n      tag_22\n      jump\t// in\n    tag_181:\n      pop\n        /* \"contracts/ArbOptV2.sol\":18358:18397  require(success, \"ETH transfer failed\") */\n      tag_23\n      jump\t// in\n    tag_180:\n        /* \"contracts/ArbOptV2.sol\":1616:23442  contract ArbOptimizer is Ownable, ReentrancyGuard, Pausable { ... */\n      mload(0x40)\n      swap1\n      dup2\n      mstore\n        /* \"contracts/ArbOptV2.sol\":18413:18446  ETHWithdrawn(balance, msg.sender) */\n      0x6148672a948a12b8e0bf92a9338349b9ac890fad62a234abaf0a4da99f62cfcc\n        /* \"contracts/ArbOptV2.sol\":1616:23442  contract ArbOptimizer is Ownable, ReentrancyGuard, Pausable { ... */\n      0x20\n        /* \"contracts/ArbOptV2.sol\":18312:18322  msg.sender */\n      caller\n        /* \"contracts/ArbOptV2.sol\":18413:18446  ETHWithdrawn(balance, msg.sender) */\n      swap3\n      log2\n        /* \"contracts/ArbOptV2.sol\":18265:18454  if (balance > 0) {... */\n      0x00\n      jump(tag_179)\n        /* \"contracts/ArbOptV2.sol\":18191:18212  arbExec.withdrawETH() */\n    tag_176:\n      tag_182\n      swap1\n      tag_6\n      jump\t// in\n    tag_182:\n        /* \"contracts/ArbOptV2.sol\":1616:23442  contract ArbOptimizer is Ownable, ReentrancyGuard, Pausable { ... */\n      tag_126\n      jumpi\n        /* \"contracts/ArbOptV2.sol\":18191:18212  arbExec.withdrawETH() */\n      dup1\n      0x00\n      jump(tag_177)\n    tag_174:\n        /* \"contracts/ArbOptV2.sol\":1616:23442  contract ArbOptimizer is Ownable, ReentrancyGuard, Pausable { ... */\n      mload(0x40)\n        /* \"contracts/ArbOptV2.sol\":4738:4803  AggregatorV3Interface(0x5f4eC3Df9cbd43714FE2740f5E3616155c5b8419) */\n      returndatasize\n        /* \"contracts/ArbOptV2.sol\":1616:23442  contract ArbOptimizer is Ownable, ReentrancyGuard, Pausable { ... */\n      dup5\n      dup3\n        /* \"contracts/ArbOptV2.sol\":4738:4803  AggregatorV3Interface(0x5f4eC3Df9cbd43714FE2740f5E3616155c5b8419) */\n      returndatacopy\n      returndatasize\n      swap1\n      revert\n        /* \"contracts/ArbOptV2.sol\":18191:18212  arbExec.withdrawETH() */\n    tag_172:\n        /* \"contracts/ArbOptV2.sol\":1616:23442  contract ArbOptimizer is Ownable, ReentrancyGuard, Pausable { ... */\n      pop\n      revert\n    tag_110:\n      pop\n      jumpi(tag_126, callvalue)\n      dup1\n      add(calldatasize, not(0x03))\n      slt\n      tag_126\n      jumpi\n        /* \"@openzeppelin/contracts/security/ReentrancyGuard.sol\":2276:2383  modifier nonReentrant() {... */\n      tag_189\n      tag_19\n      jump\t// in\n    tag_189:\n        /* \"@openzeppelin/contracts/access/Ownable.sol\":1546:1611  modifier onlyOwner() {... */\n      tag_190\n      tag_5\n      jump\t// in\n    tag_190:\n        /* \"contracts/ArbOptV2.sol\":16681:16688  arbExec */\n      0x02\n        /* \"contracts/ArbOptV2.sol\":1616:23442  contract ArbOptimizer is Ownable, ReentrancyGuard, Pausable { ... */\n      sload\n      0x08\n      shr\n      sub(shl(0xa0, 0x01), 0x01)\n      and\n        /* \"contracts/ArbOptV2.sol\":16681:16712  arbExec.emergencyWithdraw(USDC) */\n      dup1\n      extcodesize\n      iszero\n      tag_220\n      jumpi\n        /* \"contracts/ArbOptV2.sol\":1616:23442  contract ArbOptimizer is Ownable, ReentrancyGuard, Pausable { ... */\n      dup2\n      mload(0x40)\n        /* \"contracts/ArbOptV2.sol\":4738:4803  AggregatorV3Interface(0x5f4eC3Df9cbd43714FE2740f5E3616155c5b8419) */\n      shl(0xe2, 0x1bfc726f)\n        /* \"contracts/ArbOptV2.sol\":16681:16712  arbExec.emergencyWithdraw(USDC) */\n      dup2\n      mstore\n        /* \"contracts/ArbOptV2.sol\":1990:2032  0xA0b86991c6218b36c1d19D4a2e9Eb0cE3606eB48 */\n      dup2\n      dup2\n        /* \"contracts/ArbOptV2.sol\":1616:23442  contract ArbOptimizer is Ownable, ReentrancyGuard, Pausable { ... */\n      0x24\n        /* \"contracts/ArbOptV2.sol\":1990:2032  0xA0b86991c6218b36c1d19D4a2e9Eb0cE3606eB48 */\n      dup2\n      dup4\n      0xa0b86991c6218b36c1d19d4a2e9eb0ce3606eb48\n        /* \"contracts/ArbOptV2.sol\":16681:16712  arbExec.emergencyWithdraw(USDC) */\n      swap8\n      dup9\n        /* \"contracts/ArbOptV2.sol\":1616:23442  contract ArbOptimizer is Ownable, ReentrancyGuard, Pausable { ... */\n      0x04\n        /* \"contracts/ArbOptV2.sol\":16681:16712  arbExec.emergencyWithdraw(USDC) */\n      dup5\n      add\n        /* \"contracts/ArbOptV2.sol\":1616:23442  contract ArbOptimizer is Ownable, ReentrancyGuard, Pausable { ... */\n      mstore\n        /* \"contracts/ArbOptV2.sol\":16681:16712  arbExec.emergencyWithdraw(USDC) */\n      gas\n      call\n      dup1\n      iszero\n      tag_174\n      jumpi\n      tag_195\n      jumpi\n        /* \"contracts/ArbOptV2.sol\":1616:23442  contract ArbOptimizer is Ownable, ReentrancyGuard, Pausable { ... */\n    tag_196:\n      pop\n      pop\n      mload(0x40)\n      shl(0xe0, 0x70a08231)\n        /* \"contracts/ArbOptV2.sol\":16737:16774  IERC20(USDC).balanceOf(address(this)) */\n      dup2\n      mstore\n        /* \"contracts/ArbOptV2.sol\":16768:16772  this */\n      address\n        /* \"contracts/ArbOptV2.sol\":1616:23442  contract ArbOptimizer is Ownable, ReentrancyGuard, Pausable { ... */\n      0x04\n        /* \"contracts/ArbOptV2.sol\":16737:16774  IERC20(USDC).balanceOf(address(this)) */\n      dup3\n      add\n        /* \"contracts/ArbOptV2.sol\":1616:23442  contract ArbOptimizer is Ownable, ReentrancyGuard, Pausable { ... */\n      mstore\n      swap1\n      0x20\n      dup1\n      dup4\n      0x24\n      dup2\n        /* \"contracts/ArbOptV2.sol\":4738:4803  AggregatorV3Interface(0x5f4eC3Df9cbd43714FE2740f5E3616155c5b8419) */\n      dup6\n        /* \"contracts/ArbOptV2.sol\":16737:16774  IERC20(USDC).balanceOf(address(this)) */\n      gas\n      staticcall\n      swap3\n      dup4\n      iszero\n      tag_197\n      jumpi\n      dup5\n      swap4\n      tag_199\n      jumpi\n        /* \"contracts/ArbOptV2.sol\":1616:23442  contract ArbOptimizer is Ownable, ReentrancyGuard, Pausable { ... */\n    tag_200:\n        /* \"contracts/ArbOptV2.sol\":16785:16796  balance > 0 */\n      pop\n      dup3\n        /* \"contracts/ArbOptV2.sol\":16781:16917  if (balance > 0) {... */\n      tag_201\n      jumpi\n        /* \"contracts/ArbOptV2.sol\":1616:23442  contract ArbOptimizer is Ownable, ReentrancyGuard, Pausable { ... */\n    tag_202:\n      dup4\n      0x01\n      dup1\n      sstore\n      dup1\n      return\n        /* \"contracts/ArbOptV2.sol\":16781:16917  if (balance > 0) {... */\n    tag_201:\n        /* \"contracts/ArbOptV2.sol\":1616:23442  contract ArbOptimizer is Ownable, ReentrancyGuard, Pausable { ... */\n      mload(0x40)\n      shl(0xe0, 0xa9059cbb)\n        /* \"contracts/ArbOptV2.sol\":16809:16851  IERC20(USDC).transfer(msg.sender, balance) */\n      dup2\n      mstore\n        /* \"contracts/ArbOptV2.sol\":16831:16841  msg.sender */\n      caller\n        /* \"contracts/ArbOptV2.sol\":1616:23442  contract ArbOptimizer is Ownable, ReentrancyGuard, Pausable { ... */\n      0x04\n        /* \"contracts/ArbOptV2.sol\":16809:16851  IERC20(USDC).transfer(msg.sender, balance) */\n      dup3\n      add\n        /* \"contracts/ArbOptV2.sol\":1616:23442  contract ArbOptimizer is Ownable, ReentrancyGuard, Pausable { ... */\n      mstore\n      0x24\n      dup2\n      add\n      dup5\n      swap1\n      mstore\n      swap1\n      dup1\n      dup3\n      0x44\n      dup2\n        /* \"contracts/ArbOptV2.sol\":16809:16851  IERC20(USDC).transfer(msg.sender, balance) */\n      dup9\n      dup8\n      gas\n      call\n      dup1\n      iszero\n      tag_204\n      jumpi\n      tag_206\n      jumpi\n        /* \"contracts/ArbOptV2.sol\":16781:16917  if (balance > 0) {... */\n    tag_207:\n      0x00\n      dup1\n      mload\n      0x20\n      data_084f00436a29ddf9fe96da3f0df8ffde36506fc292725425a43a4251d44f1f53\n      dup4\n      codecopy\n      dup2\n      mload\n      swap2\n      mstore\n        /* \"contracts/ArbOptV2.sol\":1616:23442  contract ArbOptimizer is Ownable, ReentrancyGuard, Pausable { ... */\n      swap2\n      pop\n      mload(0x40)\n      swap4\n      dup5\n      mstore\n        /* \"contracts/ArbOptV2.sol\":16831:16841  msg.sender */\n      caller\n        /* \"contracts/ArbOptV2.sol\":16867:16909  ProfitWithdrawn(USDC, balance, msg.sender) */\n      swap4\n      log3\n        /* \"contracts/ArbOptV2.sol\":16781:16917  if (balance > 0) {... */\n      0x00\n      dup1\n      dup1\n      jump(tag_202)\n        /* \"contracts/ArbOptV2.sol\":16809:16851  IERC20(USDC).transfer(msg.sender, balance) */\n    tag_206:\n      dup1\n      dup3\n      dup2\n      returndatasize\n      dup4\n      gt\n      tag_208\n      jumpi\n    tag_209:\n      tag_210\n      dup2\n      dup4\n      tag_7\n      jump\t// in\n    tag_210:\n      dup2\n      add\n        /* \"contracts/ArbOptV2.sol\":1616:23442  contract ArbOptimizer is Ownable, ReentrancyGuard, Pausable { ... */\n      sub\n      slt\n      tag_211\n      jumpi\n      tag_213\n      0x00\n      dup1\n      mload\n      0x20\n      data_084f00436a29ddf9fe96da3f0df8ffde36506fc292725425a43a4251d44f1f53\n      dup4\n      codecopy\n      dup2\n      mload\n      swap2\n      mstore\n      swap3\n      tag_14\n      jump\t// in\n    tag_213:\n      pop\n        /* \"contracts/ArbOptV2.sol\":16809:16851  IERC20(USDC).transfer(msg.sender, balance) */\n      jump(tag_207)\n        /* \"contracts/ArbOptV2.sol\":1616:23442  contract ArbOptimizer is Ownable, ReentrancyGuard, Pausable { ... */\n    tag_211:\n      dup5\n      dup1\n      revert\n        /* \"contracts/ArbOptV2.sol\":16809:16851  IERC20(USDC).transfer(msg.sender, balance) */\n    tag_208:\n      pop\n      returndatasize\n      jump(tag_209)\n    tag_204:\n        /* \"contracts/ArbOptV2.sol\":1616:23442  contract ArbOptimizer is Ownable, ReentrancyGuard, Pausable { ... */\n      mload(0x40)\n        /* \"contracts/ArbOptV2.sol\":4738:4803  AggregatorV3Interface(0x5f4eC3Df9cbd43714FE2740f5E3616155c5b8419) */\n      returndatasize\n        /* \"contracts/ArbOptV2.sol\":1616:23442  contract ArbOptimizer is Ownable, ReentrancyGuard, Pausable { ... */\n      dup8\n      dup3\n        /* \"contracts/ArbOptV2.sol\":4738:4803  AggregatorV3Interface(0x5f4eC3Df9cbd43714FE2740f5E3616155c5b8419) */\n      returndatacopy\n      returndatasize\n      swap1\n      revert\n        /* \"contracts/ArbOptV2.sol\":16737:16774  IERC20(USDC).balanceOf(address(this)) */\n    tag_199:\n      swap1\n      dup1\n      swap4\n      pop\n      dup2\n      dup2\n      returndatasize\n      dup4\n      gt\n      tag_214\n      jumpi\n    tag_215:\n      tag_216\n      dup2\n      dup4\n      tag_7\n      jump\t// in\n    tag_216:\n      dup2\n      add\n        /* \"contracts/ArbOptV2.sol\":1616:23442  contract ArbOptimizer is Ownable, ReentrancyGuard, Pausable { ... */\n      sub\n      slt\n      tag_217\n      jumpi\n        /* \"contracts/ArbOptV2.sol\":4738:4803  AggregatorV3Interface(0x5f4eC3Df9cbd43714FE2740f5E3616155c5b8419) */\n      mload\n        /* \"contracts/ArbOptV2.sol\":16737:16774  IERC20(USDC).balanceOf(address(this)) */\n      swap2\n      0x00\n      jump(tag_200)\n        /* \"contracts/ArbOptV2.sol\":1616:23442  contract ArbOptimizer is Ownable, ReentrancyGuard, Pausable { ... */\n    tag_217:\n      0x00\n      dup1\n      revert\n        /* \"contracts/ArbOptV2.sol\":16737:16774  IERC20(USDC).balanceOf(address(this)) */\n    tag_214:\n      pop\n      returndatasize\n      jump(tag_215)\n    tag_197:\n        /* \"contracts/ArbOptV2.sol\":1616:23442  contract ArbOptimizer is Ownable, ReentrancyGuard, Pausable { ... */\n      mload(0x40)\n        /* \"contracts/ArbOptV2.sol\":4738:4803  AggregatorV3Interface(0x5f4eC3Df9cbd43714FE2740f5E3616155c5b8419) */\n      returndatasize\n        /* \"contracts/ArbOptV2.sol\":1616:23442  contract ArbOptimizer is Ownable, ReentrancyGuard, Pausable { ... */\n      dup7\n      dup3\n        /* \"contracts/ArbOptV2.sol\":4738:4803  AggregatorV3Interface(0x5f4eC3Df9cbd43714FE2740f5E3616155c5b8419) */\n      returndatacopy\n      returndatasize\n      swap1\n      revert\n        /* \"contracts/ArbOptV2.sol\":16681:16712  arbExec.emergencyWithdraw(USDC) */\n    tag_195:\n      tag_219\n      swap1\n      tag_6\n      jump\t// in\n    tag_219:\n        /* \"contracts/ArbOptV2.sol\":1616:23442  contract ArbOptimizer is Ownable, ReentrancyGuard, Pausable { ... */\n      tag_220\n      jumpi\n        /* \"contracts/ArbOptV2.sol\":16681:16712  arbExec.emergencyWithdraw(USDC) */\n      dup2\n      0x00\n      jump(tag_196)\n        /* \"contracts/ArbOptV2.sol\":1616:23442  contract ArbOptimizer is Ownable, ReentrancyGuard, Pausable { ... */\n    tag_220:\n      pop\n      dup1\n      revert\n    tag_108:\n      pop\n      jumpi(tag_126, callvalue)\n      dup1\n      add(calldatasize, not(0x03))\n      slt\n      tag_126\n      jumpi\n      mload(0x40)\n      shl(0xe2, 0x3fabe5a3)\n        /* \"contracts/ArbOptV2.sol\":5242:5281  ETH_USD_FEED_CONTRACT.latestRoundData() */\n      dup2\n      mstore\n        /* \"contracts/ArbOptV2.sol\":1616:23442  contract ArbOptimizer is Ownable, ReentrancyGuard, Pausable { ... */\n      swap1\n        /* \"contracts/ArbOptV2.sol\":5242:5281  ETH_USD_FEED_CONTRACT.latestRoundData() */\n      0xa0\n        /* \"contracts/ArbOptV2.sol\":1616:23442  contract ArbOptimizer is Ownable, ReentrancyGuard, Pausable { ... */\n      dup3\n      0x04\n      dup2\n        /* \"contracts/ArbOptV2.sol\":4760:4802  0x5f4eC3Df9cbd43714FE2740f5E3616155c5b8419 */\n      0x5f4ec3df9cbd43714fe2740f5e3616155c5b8419\n        /* \"contracts/ArbOptV2.sol\":5242:5281  ETH_USD_FEED_CONTRACT.latestRoundData() */\n      gas\n      staticcall\n      swap2\n      dup3\n      iszero\n      tag_226\n      jumpi\n        /* \"contracts/ArbOptV2.sol\":4738:4803  AggregatorV3Interface(0x5f4eC3Df9cbd43714FE2740f5E3616155c5b8419) */\n      dup2\n        /* \"contracts/ArbOptV2.sol\":5242:5281  ETH_USD_FEED_CONTRACT.latestRoundData() */\n      swap3\n      tag_228\n      jumpi\n        /* \"contracts/ArbOptV2.sol\":1616:23442  contract ArbOptimizer is Ownable, ReentrancyGuard, Pausable { ... */\n    tag_229:\n        /* \"contracts/ArbOptV2.sol\":5296:5311  ethUsdPrice > 0 */\n      pop\n      dup1\n      dup3\n      sgt\n        /* \"contracts/ArbOptV2.sol\":4738:4803  AggregatorV3Interface(0x5f4eC3Df9cbd43714FE2740f5E3616155c5b8419) */\n      iszero\n      tag_230\n      jumpi\n        /* \"contracts/ArbOptV2.sol\":5438:5441  100 */\n      0x64\n        /* \"contracts/ArbOptV2.sol\":4738:4803  AggregatorV3Interface(0x5f4eC3Df9cbd43714FE2740f5E3616155c5b8419) */\n      dup3\n      mul\n      swap2\n      dup1\n      dup4\n      sdiv\n        /* \"contracts/ArbOptV2.sol\":5438:5441  100 */\n      0x64\n        /* \"contracts/ArbOptV2.sol\":4738:4803  AggregatorV3Interface(0x5f4eC3Df9cbd43714FE2740f5E3616155c5b8419) */\n      eq\n      swap1\n      iszero\n      or\n      iszero\n      tag_232\n      jumpi\n        /* \"contracts/ArbOptV2.sol\":1616:23442  contract ArbOptimizer is Ownable, ReentrancyGuard, Pausable { ... */\n      0x20\n      dup3\n      mload(0x40)\n      swap1\n      dup2\n      mstore\n      return\n        /* \"contracts/ArbOptV2.sol\":4738:4803  AggregatorV3Interface(0x5f4eC3Df9cbd43714FE2740f5E3616155c5b8419) */\n    tag_232:\n      shl(0xe0, 0x4e487b71)\n      dup2\n      mstore\n      0x11\n        /* \"contracts/ArbOptV2.sol\":1616:23442  contract ArbOptimizer is Ownable, ReentrancyGuard, Pausable { ... */\n      0x04\n        /* \"contracts/ArbOptV2.sol\":4738:4803  AggregatorV3Interface(0x5f4eC3Df9cbd43714FE2740f5E3616155c5b8419) */\n      mstore\n      0x24\n      swap1\n      revert\n    tag_230:\n      0x64\n        /* \"contracts/ArbOptV2.sol\":1616:23442  contract ArbOptimizer is Ownable, ReentrancyGuard, Pausable { ... */\n      mload(0x40)\n      shl(0xe5, 0x461bcd)\n        /* \"contracts/ArbOptV2.sol\":4738:4803  AggregatorV3Interface(0x5f4eC3Df9cbd43714FE2740f5E3616155c5b8419) */\n      dup2\n      mstore\n      0x20\n        /* \"contracts/ArbOptV2.sol\":1616:23442  contract ArbOptimizer is Ownable, ReentrancyGuard, Pausable { ... */\n      0x04\n        /* \"contracts/ArbOptV2.sol\":4738:4803  AggregatorV3Interface(0x5f4eC3Df9cbd43714FE2740f5E3616155c5b8419) */\n      dup3\n      add\n      mstore\n      0x20\n      0x24\n      dup3\n      add\n        /* \"contracts/ArbOptV2.sol\":1616:23442  contract ArbOptimizer is Ownable, ReentrancyGuard, Pausable { ... */\n      mstore\n        /* \"contracts/ArbOptV2.sol\":4738:4803  AggregatorV3Interface(0x5f4eC3Df9cbd43714FE2740f5E3616155c5b8419) */\n      0x436861696e6c696e6b3a20496e76616c6964204554482f555344207072696365\n        /* \"contracts/ArbOptV2.sol\":1616:23442  contract ArbOptimizer is Ownable, ReentrancyGuard, Pausable { ... */\n      0x44\n      dup3\n      add\n        /* \"contracts/ArbOptV2.sol\":4738:4803  AggregatorV3Interface(0x5f4eC3Df9cbd43714FE2740f5E3616155c5b8419) */\n      mstore\n      revert\n        /* \"contracts/ArbOptV2.sol\":5242:5281  ETH_USD_FEED_CONTRACT.latestRoundData() */\n    tag_228:\n      swap1\n      swap2\n      pop\n      0xa0\n      dup2\n      returndatasize\n      dup3\n      gt\n      tag_234\n      jumpi\n    tag_235:\n      dup2\n      tag_236\n      0xa0\n      swap4\n      dup4\n      tag_7\n      jump\t// in\n    tag_236:\n      dup2\n      add\n        /* \"contracts/ArbOptV2.sol\":4738:4803  AggregatorV3Interface(0x5f4eC3Df9cbd43714FE2740f5E3616155c5b8419) */\n      sub\n      slt\n      tag_220\n      jumpi\n      tag_239\n      dup2\n      tag_8\n      jump\t// in\n    tag_239:\n      pop\n      tag_240\n      0x80\n      0x20\n      dup4\n      add\n      mload\n      swap3\n      add\n      tag_8\n      jump\t// in\n    tag_240:\n      pop\n        /* \"contracts/ArbOptV2.sol\":5242:5281  ETH_USD_FEED_CONTRACT.latestRoundData() */\n      swap1\n      0x00\n      jump(tag_229)\n    tag_234:\n      returndatasize\n      swap2\n      pop\n      jump(tag_235)\n    tag_226:\n        /* \"contracts/ArbOptV2.sol\":1616:23442  contract ArbOptimizer is Ownable, ReentrancyGuard, Pausable { ... */\n      pop\n      mload(0x40)\n        /* \"contracts/ArbOptV2.sol\":4738:4803  AggregatorV3Interface(0x5f4eC3Df9cbd43714FE2740f5E3616155c5b8419) */\n      swap1\n      returndatasize\n      swap1\n      dup3\n      returndatacopy\n      returndatasize\n      swap1\n      revert\n        /* \"contracts/ArbOptV2.sol\":1616:23442  contract ArbOptimizer is Ownable, ReentrancyGuard, Pausable { ... */\n    tag_106:\n      pop\n      jumpi(tag_126, callvalue)\n      dup1\n      add(calldatasize, not(0x03))\n      slt\n      tag_126\n      jumpi\n      mload(0x40)\n      0x01a0\n        /* \"contracts/ArbOptV2.sol\":4738:4803  AggregatorV3Interface(0x5f4eC3Df9cbd43714FE2740f5E3616155c5b8419) */\n      dup2\n      add\n      dup2\n      dup2\n      lt\n      0xffffffffffffffff\n      dup3\n      gt\n      or\n      tag_245\n      jumpi\n        /* \"contracts/ArbOptV2.sol\":1616:23442  contract ArbOptimizer is Ownable, ReentrancyGuard, Pausable { ... */\n      0x40\n        /* \"contracts/ArbOptV2.sol\":4738:4803  AggregatorV3Interface(0x5f4eC3Df9cbd43714FE2740f5E3616155c5b8419) */\n      mstore\n        /* \"contracts/ArbOptV2.sol\":21437:21439  12 */\n      0x0c\n        /* \"contracts/ArbOptV2.sol\":1616:23442  contract ArbOptimizer is Ownable, ReentrancyGuard, Pausable { ... */\n      dup2\n      mstore\n      0x0180\n      swap1\n      0x20\n      dup2\n      add\n      dup3\n      calldatasize\n      dup3\n      calldatacopy\n      dup2\n      mload\n      iszero\n      tag_269\n      jumpi\n        /* \"contracts/ArbOptV2.sol\":2354:2396  0xC02aaA39b223FE8D0A0e5C4F27eAD9083C756Cc2 */\n      0xc02aaa39b223fe8d0a0e5c4f27ead9083c756cc2\n        /* \"contracts/ArbOptV2.sol\":1616:23442  contract ArbOptimizer is Ownable, ReentrancyGuard, Pausable { ... */\n      swap1\n      mstore\n      dup1\n      mload\n        /* \"contracts/ArbOptV2.sol\":21477:21478  1 */\n      0x01\n        /* \"contracts/ArbOptV2.sol\":1616:23442  contract ArbOptimizer is Ownable, ReentrancyGuard, Pausable { ... */\n      lt\n      iszero\n      tag_269\n      jumpi\n        /* \"contracts/ArbOptV2.sol\":1990:2032  0xA0b86991c6218b36c1d19D4a2e9Eb0cE3606eB48 */\n      0xa0b86991c6218b36c1d19d4a2e9eb0ce3606eb48\n        /* \"contracts/ArbOptV2.sol\":1616:23442  contract ArbOptimizer is Ownable, ReentrancyGuard, Pausable { ... */\n      0x40\n      dup3\n      add\n      mstore\n      dup1\n      mload\n        /* \"contracts/ArbOptV2.sol\":21500:21501  2 */\n      0x02\n        /* \"contracts/ArbOptV2.sol\":1616:23442  contract ArbOptimizer is Ownable, ReentrancyGuard, Pausable { ... */\n      lt\n      iszero\n      tag_269\n      jumpi\n        /* \"contracts/ArbOptV2.sol\":2525:2567  0xdAC17F958D2ee523a2206206994597C13D831ec7 */\n      0xdac17f958d2ee523a2206206994597c13d831ec7\n        /* \"contracts/ArbOptV2.sol\":1616:23442  contract ArbOptimizer is Ownable, ReentrancyGuard, Pausable { ... */\n      0x60\n      dup3\n      add\n      mstore\n      dup1\n      mload\n      0x03\n      lt\n      iszero\n      tag_269\n      jumpi\n        /* \"contracts/ArbOptV2.sol\":2601:2643  0x6B175474E89094C44Da98b954EedeAC495271d0F */\n      0x6b175474e89094c44da98b954eedeac495271d0f\n        /* \"contracts/ArbOptV2.sol\":1616:23442  contract ArbOptimizer is Ownable, ReentrancyGuard, Pausable { ... */\n      0x80\n      dup3\n      add\n      mstore\n      dup1\n      mload\n      0x04\n      lt\n      iszero\n      tag_269\n      jumpi\n        /* \"contracts/ArbOptV2.sol\":2678:2720  0x3432B6A60D23Ca0dFCa7761B7ab56459D9C964D0 */\n      0x3432b6a60d23ca0dfca7761b7ab56459d9c964d0\n        /* \"contracts/ArbOptV2.sol\":1616:23442  contract ArbOptimizer is Ownable, ReentrancyGuard, Pausable { ... */\n      0xa0\n      dup3\n      add\n      mstore\n      dup1\n      mload\n        /* \"contracts/ArbOptV2.sol\":21568:21569  5 */\n      0x05\n        /* \"contracts/ArbOptV2.sol\":1616:23442  contract ArbOptimizer is Ownable, ReentrancyGuard, Pausable { ... */\n      lt\n      iszero\n      tag_269\n      jumpi\n        /* \"contracts/ArbOptV2.sol\":2755:2797  0x5f98805A4E8F28fB3FBE254CCf7e6f82e4467683 */\n      0x5f98805a4e8f28fb3fbe254ccf7e6f82e4467683\n        /* \"contracts/ArbOptV2.sol\":1616:23442  contract ArbOptimizer is Ownable, ReentrancyGuard, Pausable { ... */\n      0xc0\n      dup3\n      add\n      mstore\n      dup1\n      mload\n        /* \"contracts/ArbOptV2.sol\":21591:21592  6 */\n      0x06\n        /* \"contracts/ArbOptV2.sol\":1616:23442  contract ArbOptimizer is Ownable, ReentrancyGuard, Pausable { ... */\n      lt\n      iszero\n      tag_269\n      jumpi\n        /* \"contracts/ArbOptV2.sol\":2832:2874  0x8E870D67f660D95d5Be2D7738B5b1294a692a0b9 */\n      0x8e870d67f660d95d5be2d7738b5b1294a692a0b9\n        /* \"contracts/ArbOptV2.sol\":1616:23442  contract ArbOptimizer is Ownable, ReentrancyGuard, Pausable { ... */\n      0xe0\n      dup3\n      add\n      mstore\n      dup1\n      mload\n        /* \"contracts/ArbOptV2.sol\":21614:21615  7 */\n      0x07\n        /* \"contracts/ArbOptV2.sol\":1616:23442  contract ArbOptimizer is Ownable, ReentrancyGuard, Pausable { ... */\n      lt\n      iszero\n      tag_269\n      jumpi\n        /* \"contracts/ArbOptV2.sol\":2909:2951  0x0000000000085d4780B73119b644AE5ecd22b376 */\n      0x085d4780b73119b644ae5ecd22b376\n        /* \"contracts/ArbOptV2.sol\":1616:23442  contract ArbOptimizer is Ownable, ReentrancyGuard, Pausable { ... */\n      0x0100\n      dup3\n      add\n      mstore\n      dup1\n      mload\n        /* \"contracts/ArbOptV2.sol\":21637:21638  8 */\n      0x08\n        /* \"contracts/ArbOptV2.sol\":1616:23442  contract ArbOptimizer is Ownable, ReentrancyGuard, Pausable { ... */\n      lt\n      iszero\n      tag_269\n      jumpi\n        /* \"contracts/ArbOptV2.sol\":2986:3028  0x056Fd409E1d7A124BD7017459dFEa2F387b6d5Cd */\n      0x056fd409e1d7a124bd7017459dfea2f387b6d5cd\n        /* \"contracts/ArbOptV2.sol\":1616:23442  contract ArbOptimizer is Ownable, ReentrancyGuard, Pausable { ... */\n      0x0120\n      dup3\n      add\n      mstore\n      dup1\n      mload\n        /* \"contracts/ArbOptV2.sol\":21660:21661  9 */\n      0x09\n        /* \"contracts/ArbOptV2.sol\":1616:23442  contract ArbOptimizer is Ownable, ReentrancyGuard, Pausable { ... */\n      lt\n      iszero\n      tag_269\n      jumpi\n        /* \"contracts/ArbOptV2.sol\":3063:3105  0x4Fabb145d64652a948d72533023f6E7A623C7C53 */\n      0x4fabb145d64652a948d72533023f6e7a623c7c53\n        /* \"contracts/ArbOptV2.sol\":1616:23442  contract ArbOptimizer is Ownable, ReentrancyGuard, Pausable { ... */\n      0x0140\n      dup3\n      add\n      mstore\n      dup1\n      mload\n        /* \"contracts/ArbOptV2.sol\":21683:21685  10 */\n      0x0a\n        /* \"contracts/ArbOptV2.sol\":1616:23442  contract ArbOptimizer is Ownable, ReentrancyGuard, Pausable { ... */\n      lt\n      iszero\n      tag_269\n      jumpi\n        /* \"contracts/ArbOptV2.sol\":3142:3184  0xa7d1D0dA000261f05d8d4532FD34439D3325AD8B */\n      0xa7d1d0da000261f05d8d4532fd34439d3325ad8b\n        /* \"contracts/ArbOptV2.sol\":1616:23442  contract ArbOptimizer is Ownable, ReentrancyGuard, Pausable { ... */\n      0x0160\n      dup3\n      add\n      mstore\n      dup1\n      mload\n        /* \"contracts/ArbOptV2.sol\":21709:21711  11 */\n      0x0b\n        /* \"contracts/ArbOptV2.sol\":1616:23442  contract ArbOptimizer is Ownable, ReentrancyGuard, Pausable { ... */\n      lt\n      iszero\n      tag_269\n      jumpi\n        /* \"contracts/ArbOptV2.sol\":3219:3261  0xdB25f211AB05b1c97D595516F45794528a807ad8 */\n      0xdb25f211ab05b1c97d595516f45794528a807ad8\n        /* \"contracts/ArbOptV2.sol\":1616:23442  contract ArbOptimizer is Ownable, ReentrancyGuard, Pausable { ... */\n      tag_271\n      swap3\n      dup3\n      add\n      mstore\n      mload(0x40)\n      swap2\n      dup3\n      swap2\n      0x20\n      dup4\n      mstore\n      0x20\n      dup4\n      add\n      swap1\n      tag_4\n      jump\t// in\n    tag_271:\n      sub\n      swap1\n      return\n    tag_269:\n        /* \"contracts/ArbOptV2.sol\":4738:4803  AggregatorV3Interface(0x5f4eC3Df9cbd43714FE2740f5E3616155c5b8419) */\n      shl(0xe0, 0x4e487b71)\n        /* \"contracts/ArbOptV2.sol\":1616:23442  contract ArbOptimizer is Ownable, ReentrancyGuard, Pausable { ... */\n      0x00\n      mstore\n      mstore(0x04, 0x32)\n      revert(0x00, 0x24)\n        /* \"contracts/ArbOptV2.sol\":4738:4803  AggregatorV3Interface(0x5f4eC3Df9cbd43714FE2740f5E3616155c5b8419) */\n    tag_245:\n      shl(0xe0, 0x4e487b71)\n        /* \"contracts/ArbOptV2.sol\":1616:23442  contract ArbOptimizer is Ownable, ReentrancyGuard, Pausable { ... */\n      0x00\n        /* \"contracts/ArbOptV2.sol\":4738:4803  AggregatorV3Interface(0x5f4eC3Df9cbd43714FE2740f5E3616155c5b8419) */\n      mstore\n      0x41\n        /* \"contracts/ArbOptV2.sol\":1616:23442  contract ArbOptimizer is Ownable, ReentrancyGuard, Pausable { ... */\n      0x04\n        /* \"contracts/ArbOptV2.sol\":4738:4803  AggregatorV3Interface(0x5f4eC3Df9cbd43714FE2740f5E3616155c5b8419) */\n      mstore\n      0x24\n        /* \"contracts/ArbOptV2.sol\":1616:23442  contract ArbOptimizer is Ownable, ReentrancyGuard, Pausable { ... */\n      0x00\n        /* \"contracts/ArbOptV2.sol\":4738:4803  AggregatorV3Interface(0x5f4eC3Df9cbd43714FE2740f5E3616155c5b8419) */\n      revert\n        /* \"contracts/ArbOptV2.sol\":1616:23442  contract ArbOptimizer is Ownable, ReentrancyGuard, Pausable { ... */\n    tag_104:\n      pop\n      jumpi(tag_126, callvalue)\n      dup1\n      add(calldatasize, not(0x03))\n      slt\n      tag_126\n      jumpi\n      sload(0x03)\n      sload(0x04)\n        /* \"contracts/ArbOptV2.sol\":10926:10947  minProfitBpsThreshold */\n      0x09\n        /* \"contracts/ArbOptV2.sol\":1616:23442  contract ArbOptimizer is Ownable, ReentrancyGuard, Pausable { ... */\n      sload\n        /* \"contracts/ArbOptV2.sol\":10958:10973  minProfitAmount */\n      0x0a\n        /* \"contracts/ArbOptV2.sol\":1616:23442  contract ArbOptimizer is Ownable, ReentrancyGuard, Pausable { ... */\n      sload\n      0x40\n      dup1\n      mload\n      swap5\n      dup6\n      mstore\n      0x20\n      dup6\n      add\n      swap4\n      swap1\n      swap4\n      mstore\n      swap2\n      dup4\n      add\n      mstore\n      0x60\n      dup3\n      add\n      mstore\n      0x80\n      swap1\n      return\n    tag_102:\n      pop\n      jumpi(tag_126, callvalue)\n      dup1\n      add(calldatasize, not(0x03))\n      slt\n      tag_126\n      jumpi\n      0x20\n        /* \"contracts/ArbOptV2.sol\":6965:7005  uint256 public minProfitAmount = 0.01e18 */\n      0x0a\n        /* \"contracts/ArbOptV2.sol\":1616:23442  contract ArbOptimizer is Ownable, ReentrancyGuard, Pausable { ... */\n      sload\n      mload(0x40)\n      swap1\n      dup2\n      mstore\n      return\n    tag_100:\n      pop\n      jumpi(tag_126, callvalue)\n      dup1\n      add(calldatasize, not(0x03))\n      slt\n      tag_126\n      jumpi\n      0x20\n        /* \"contracts/ArbOptV2.sol\":6650:6686  uint256 public userMinProfitBps = 50 */\n      0x05\n        /* \"contracts/ArbOptV2.sol\":1616:23442  contract ArbOptimizer is Ownable, ReentrancyGuard, Pausable { ... */\n      sload\n      mload(0x40)\n      swap1\n      dup2\n      mstore\n      return\n    tag_98:\n      pop\n      jumpi(tag_126, callvalue)\n      dup1\n      add(calldatasize, not(0x03))\n      slt\n      tag_126\n      jumpi\n        /* \"@openzeppelin/contracts/security/ReentrancyGuard.sol\":2276:2383  modifier nonReentrant() {... */\n      tag_289\n      tag_19\n      jump\t// in\n    tag_289:\n        /* \"@openzeppelin/contracts/security/Pausable.sol\":1247:1322  modifier whenNotPaused() {... */\n      tag_290\n      tag_18\n      jump\t// in\n    tag_290:\n        /* \"@openzeppelin/contracts/access/Ownable.sol\":1546:1611  modifier onlyOwner() {... */\n      tag_291\n      tag_5\n      jump\t// in\n    tag_291:\n        /* \"contracts/ArbOptV2.sol\":1616:23442  contract ArbOptimizer is Ownable, ReentrancyGuard, Pausable { ... */\n      sload(0x03)\n        /* \"@openzeppelin/contracts/security/ReentrancyGuard.sol\":2276:2383  modifier nonReentrant() {... */\n      swap1\n      tag_292\n      tag_19\n      jump\t// in\n    tag_292:\n        /* \"@openzeppelin/contracts/security/Pausable.sol\":1247:1322  modifier whenNotPaused() {... */\n      tag_293\n      tag_18\n      jump\t// in\n    tag_293:\n        /* \"@openzeppelin/contracts/access/Ownable.sol\":1546:1611  modifier onlyOwner() {... */\n      tag_294\n      tag_5\n      jump\t// in\n    tag_294:\n        /* \"contracts/ArbOptV2.sol\":14405:14479  require(flashLoanAmount >= minFlashLoanAmount, \"Below minimum flash loan\") */\n      tag_295\n        /* \"contracts/ArbOptV2.sol\":14432:14450  minFlashLoanAmount */\n      0x07\n        /* \"contracts/ArbOptV2.sol\":1616:23442  contract ArbOptimizer is Ownable, ReentrancyGuard, Pausable { ... */\n      sload\n        /* \"contracts/ArbOptV2.sol\":14413:14450  flashLoanAmount >= minFlashLoanAmount */\n      dup4\n      lt\n      iszero\n        /* \"contracts/ArbOptV2.sol\":14405:14479  require(flashLoanAmount >= minFlashLoanAmount, \"Below minimum flash loan\") */\n      tag_10\n      jump\t// in\n    tag_295:\n        /* \"contracts/ArbOptV2.sol\":14486:14562  require(flashLoanAmount <= maxFlashLoanAmount, \"Exceeds maximum flash loan\") */\n      tag_296\n        /* \"contracts/ArbOptV2.sol\":14513:14531  maxFlashLoanAmount */\n      0x08\n        /* \"contracts/ArbOptV2.sol\":1616:23442  contract ArbOptimizer is Ownable, ReentrancyGuard, Pausable { ... */\n      sload\n        /* \"contracts/ArbOptV2.sol\":14494:14531  flashLoanAmount <= maxFlashLoanAmount */\n      dup4\n      gt\n      iszero\n        /* \"contracts/ArbOptV2.sol\":14486:14562  require(flashLoanAmount <= maxFlashLoanAmount, \"Exceeds maximum flash loan\") */\n      tag_11\n      jump\t// in\n    tag_296:\n        /* \"contracts/ArbOptV2.sol\":1616:23442  contract ArbOptimizer is Ownable, ReentrancyGuard, Pausable { ... */\n      0xff\n        /* \"contracts/ArbOptV2.sol\":14575:14586  autoExecute */\n      0x0b\n        /* \"contracts/ArbOptV2.sol\":1616:23442  contract ArbOptimizer is Ownable, ReentrancyGuard, Pausable { ... */\n      sload\n      and\n        /* \"contracts/ArbOptV2.sol\":14571:14735  if (autoExecute) {... */\n      tag_297\n      jumpi\n        /* \"contracts/ArbOptV2.sol\":1616:23442  contract ArbOptimizer is Ownable, ReentrancyGuard, Pausable { ... */\n    tag_298:\n      mload(0x40)\n      shl(0xe0, 0x716ad825)\n        /* \"contracts/ArbOptV2.sol\":14814:14862  this... */\n      dup2\n      mstore\n        /* \"contracts/ArbOptV2.sol\":1616:23442  contract ArbOptimizer is Ownable, ReentrancyGuard, Pausable { ... */\n      0x04\n        /* \"contracts/ArbOptV2.sol\":14814:14862  this... */\n      dup2\n      add\n        /* \"contracts/ArbOptV2.sol\":1616:23442  contract ArbOptimizer is Ownable, ReentrancyGuard, Pausable { ... */\n      dup4\n      swap1\n      mstore\n      swap2\n        /* \"contracts/ArbOptV2.sol\":14814:14862  this... */\n      0x60\n        /* \"contracts/ArbOptV2.sol\":1616:23442  contract ArbOptimizer is Ownable, ReentrancyGuard, Pausable { ... */\n      dup4\n      0x24\n      dup2\n        /* \"contracts/ArbOptV2.sol\":14814:14818  this */\n      dup6\n      address\n        /* \"contracts/ArbOptV2.sol\":14814:14862  this... */\n      gas\n      call\n      swap3\n      dup4\n      iszero\n      tag_174\n      jumpi\n      dup3\n      swap4\n      dup4\n      swap2\n      dup5\n      swap2\n      tag_301\n      jumpi\n        /* \"contracts/ArbOptV2.sol\":1616:23442  contract ArbOptimizer is Ownable, ReentrancyGuard, Pausable { ... */\n    tag_302:\n      pop\n      iszero\n      tag_303\n      jumpi\n      dup4\n        /* \"contracts/ArbOptV2.sol\":14933:15003  OptimalRouteSelected(bestRouteIndex, estimatedProfit, flashLoanAmount) */\n      0x99a04d4bd50085149e64dc7b09cd3bf736a5a4b19f85d58ea535527917c3b2ae\n        /* \"contracts/ArbOptV2.sol\":1616:23442  contract ArbOptimizer is Ownable, ReentrancyGuard, Pausable { ... */\n      0x40\n      dup1\n      mload\n      dup5\n      dup2\n      mstore\n      dup6\n      0x20\n      dup3\n      add\n      mstore\n        /* \"contracts/ArbOptV2.sol\":14933:15003  OptimalRouteSelected(bestRouteIndex, estimatedProfit, flashLoanAmount) */\n      log2\n        /* \"contracts/ArbOptV2.sol\":15016:15023  arbExec */\n      0x02\n        /* \"contracts/ArbOptV2.sol\":1616:23442  contract ArbOptimizer is Ownable, ReentrancyGuard, Pausable { ... */\n      sload\n        /* \"contracts/ArbOptV2.sol\":14513:14531  maxFlashLoanAmount */\n      0x08\n        /* \"contracts/ArbOptV2.sol\":1616:23442  contract ArbOptimizer is Ownable, ReentrancyGuard, Pausable { ... */\n      shr\n      sub(shl(0xa0, 0x01), 0x01)\n      and\n        /* \"contracts/ArbOptV2.sol\":15016:15087  arbExec.initiateArbitrage(WETH, flashLoanAmount, bestRouteIndex, false) */\n      dup1\n      extcodesize\n      iszero\n      tag_313\n      jumpi\n        /* \"contracts/ArbOptV2.sol\":1616:23442  contract ArbOptimizer is Ownable, ReentrancyGuard, Pausable { ... */\n      dup4\n      dup1\n      dup1\n      swap3\n        /* \"contracts/ArbOptV2.sol\":2354:2396  0xC02aaA39b223FE8D0A0e5C4F27eAD9083C756Cc2 */\n      0x84\n        /* \"contracts/ArbOptV2.sol\":1616:23442  contract ArbOptimizer is Ownable, ReentrancyGuard, Pausable { ... */\n      mload(0x40)\n        /* \"contracts/ArbOptV2.sol\":4738:4803  AggregatorV3Interface(0x5f4eC3Df9cbd43714FE2740f5E3616155c5b8419) */\n      dup1\n      swap6\n      dup2\n      swap4\n      shl(0xe0, 0x0ea62cb5)\n        /* \"contracts/ArbOptV2.sol\":15016:15087  arbExec.initiateArbitrage(WETH, flashLoanAmount, bestRouteIndex, false) */\n      dup4\n      mstore\n        /* \"contracts/ArbOptV2.sol\":2354:2396  0xC02aaA39b223FE8D0A0e5C4F27eAD9083C756Cc2 */\n      0xc02aaa39b223fe8d0a0e5c4f27ead9083c756cc2\n        /* \"contracts/ArbOptV2.sol\":1616:23442  contract ArbOptimizer is Ownable, ReentrancyGuard, Pausable { ... */\n      0x04\n        /* \"contracts/ArbOptV2.sol\":15016:15087  arbExec.initiateArbitrage(WETH, flashLoanAmount, bestRouteIndex, false) */\n      dup5\n      add\n        /* \"contracts/ArbOptV2.sol\":1616:23442  contract ArbOptimizer is Ownable, ReentrancyGuard, Pausable { ... */\n      mstore\n        /* \"contracts/ArbOptV2.sol\":2354:2396  0xC02aaA39b223FE8D0A0e5C4F27eAD9083C756Cc2 */\n      dup10\n        /* \"contracts/ArbOptV2.sol\":1616:23442  contract ArbOptimizer is Ownable, ReentrancyGuard, Pausable { ... */\n      0x24\n        /* \"contracts/ArbOptV2.sol\":2354:2396  0xC02aaA39b223FE8D0A0e5C4F27eAD9083C756Cc2 */\n      dup5\n      add\n        /* \"contracts/ArbOptV2.sol\":1616:23442  contract ArbOptimizer is Ownable, ReentrancyGuard, Pausable { ... */\n      mstore\n        /* \"contracts/ArbOptV2.sol\":2354:2396  0xC02aaA39b223FE8D0A0e5C4F27eAD9083C756Cc2 */\n      dup12\n      0x44\n      dup5\n      add\n        /* \"contracts/ArbOptV2.sol\":1616:23442  contract ArbOptimizer is Ownable, ReentrancyGuard, Pausable { ... */\n      mstore\n        /* \"contracts/ArbOptV2.sol\":2354:2396  0xC02aaA39b223FE8D0A0e5C4F27eAD9083C756Cc2 */\n      dup2\n      0x64\n      dup5\n      add\n        /* \"contracts/ArbOptV2.sol\":1616:23442  contract ArbOptimizer is Ownable, ReentrancyGuard, Pausable { ... */\n      mstore\n        /* \"contracts/ArbOptV2.sol\":15016:15087  arbExec.initiateArbitrage(WETH, flashLoanAmount, bestRouteIndex, false) */\n      gas\n      call\n      swap2\n      dup3\n      tag_307\n      jumpi\n        /* \"contracts/ArbOptV2.sol\":1616:23442  contract ArbOptimizer is Ownable, ReentrancyGuard, Pausable { ... */\n    tag_308:\n      pop\n      pop\n        /* \"contracts/ArbOptV2.sol\":15012:15291  try arbExec.initiateArbitrage(WETH, flashLoanAmount, bestRouteIndex, false) {... */\n      tag_309\n      jumpi\n        /* \"contracts/ArbOptV2.sol\":15268:15283  success = false */\n      pop\n      pop\n        /* \"contracts/ArbOptV2.sol\":1616:23442  contract ArbOptimizer is Ownable, ReentrancyGuard, Pausable { ... */\n      0x20\n        /* \"contracts/ArbOptV2.sol\":15268:15283  success = false */\n      swap2\n      pop\n        /* \"contracts/ArbOptV2.sol\":15012:15291  try arbExec.initiateArbitrage(WETH, flashLoanAmount, bestRouteIndex, false) {... */\n    tag_311:\n        /* \"contracts/ArbOptV2.sol\":1616:23442  contract ArbOptimizer is Ownable, ReentrancyGuard, Pausable { ... */\n      0x01\n      dup1\n      sstore\n      mload(0x40)\n      swap1\n      iszero\n      iszero\n      dup2\n      mstore\n      return\n        /* \"contracts/ArbOptV2.sol\":15012:15291  try arbExec.initiateArbitrage(WETH, flashLoanAmount, bestRouteIndex, false) {... */\n    tag_309:\n        /* \"contracts/ArbOptV2.sol\":15150:15217  ArbitrageExecuted(bestRouteIndex, flashLoanAmount, estimatedProfit) */\n      0x9f51370fe0eed8407b751449f0bf9ae3f5667f007a2ab895d820da7e2983ebab\n        /* \"contracts/ArbOptV2.sol\":15119:15134  block.timestamp */\n      swap3\n      pop\n      swap1\n        /* \"contracts/ArbOptV2.sol\":1616:23442  contract ArbOptimizer is Ownable, ReentrancyGuard, Pausable { ... */\n      0x40\n        /* \"contracts/ArbOptV2.sol\":15119:15134  block.timestamp */\n      swap2\n      timestamp\n        /* \"contracts/ArbOptV2.sol\":15099:15134  lastExecutionTime = block.timestamp */\n      0x0c\n        /* \"contracts/ArbOptV2.sol\":1616:23442  contract ArbOptimizer is Ownable, ReentrancyGuard, Pausable { ... */\n      sstore\n      dup3\n      mload\n      swap2\n      dup3\n      mstore\n      0x20\n      dup3\n      add\n      mstore\n        /* \"contracts/ArbOptV2.sol\":15150:15217  ArbitrageExecuted(bestRouteIndex, flashLoanAmount, estimatedProfit) */\n      log2\n        /* \"contracts/ArbOptV2.sol\":1616:23442  contract ArbOptimizer is Ownable, ReentrancyGuard, Pausable { ... */\n      0x20\n      0x01\n        /* \"contracts/ArbOptV2.sol\":15012:15291  try arbExec.initiateArbitrage(WETH, flashLoanAmount, bestRouteIndex, false) {... */\n      jump(tag_311)\n        /* \"contracts/ArbOptV2.sol\":15016:15087  arbExec.initiateArbitrage(WETH, flashLoanAmount, bestRouteIndex, false) */\n    tag_307:\n      tag_312\n      swap1\n      tag_6\n      jump\t// in\n    tag_312:\n        /* \"contracts/ArbOptV2.sol\":1616:23442  contract ArbOptimizer is Ownable, ReentrancyGuard, Pausable { ... */\n      tag_313\n      jumpi\n        /* \"contracts/ArbOptV2.sol\":15016:15087  arbExec.initiateArbitrage(WETH, flashLoanAmount, bestRouteIndex, false) */\n      dup4\n      0x00\n      jump(tag_308)\n        /* \"contracts/ArbOptV2.sol\":1616:23442  contract ArbOptimizer is Ownable, ReentrancyGuard, Pausable { ... */\n    tag_313:\n      dup4\n      dup1\n      revert\n    tag_303:\n      mload(0x40)\n      shl(0xe5, 0x461bcd)\n      dup2\n      mstore\n      0x20\n      0x04\n      dup3\n      add\n      mstore\n      0x19\n      0x24\n      dup3\n      add\n      mstore\n      shl(0x3a, 0x139bc81c1c9bd99a5d18589b19481c9bdd5d1948199bdd5b99)\n      0x44\n      dup3\n      add\n      mstore\n      0x64\n      swap1\n      revert\n        /* \"contracts/ArbOptV2.sol\":14814:14862  this... */\n    tag_301:\n      swap5\n      pop\n      pop\n      pop\n      0x60\n      dup4\n      returndatasize\n      dup3\n      gt\n      tag_315\n      jumpi\n    tag_316:\n      dup2\n      tag_317\n      0x60\n      swap4\n      dup4\n      tag_7\n      jump\t// in\n    tag_317:\n      dup2\n      add\n        /* \"contracts/ArbOptV2.sol\":1616:23442  contract ArbOptimizer is Ownable, ReentrancyGuard, Pausable { ... */\n      sub\n      slt\n      tag_220\n      jumpi\n        /* \"contracts/ArbOptV2.sol\":4738:4803  AggregatorV3Interface(0x5f4eC3Df9cbd43714FE2740f5E3616155c5b8419) */\n      dup3\n      mload\n        /* \"contracts/ArbOptV2.sol\":1616:23442  contract ArbOptimizer is Ownable, ReentrancyGuard, Pausable { ... */\n      tag_320\n      0x40\n      0x20\n      dup7\n      add\n        /* \"contracts/ArbOptV2.sol\":4738:4803  AggregatorV3Interface(0x5f4eC3Df9cbd43714FE2740f5E3616155c5b8419) */\n      mload\n        /* \"contracts/ArbOptV2.sol\":1616:23442  contract ArbOptimizer is Ownable, ReentrancyGuard, Pausable { ... */\n      swap6\n      add\n      tag_14\n      jump\t// in\n    tag_320:\n        /* \"contracts/ArbOptV2.sol\":14814:14862  this... */\n      swap1\n      swap4\n      swap1\n      0x00\n      jump(tag_302)\n    tag_315:\n      returndatasize\n      swap2\n      pop\n      jump(tag_316)\n        /* \"contracts/ArbOptV2.sol\":14571:14735  if (autoExecute) {... */\n    tag_297:\n        /* \"contracts/ArbOptV2.sol\":14640:14657  lastExecutionTime */\n      0x0c\n        /* \"contracts/ArbOptV2.sol\":1616:23442  contract ArbOptimizer is Ownable, ReentrancyGuard, Pausable { ... */\n      sload\n        /* \"contracts/ArbOptV2.sol\":14660:14677  executionCooldown */\n      0x0d\n        /* \"contracts/ArbOptV2.sol\":1616:23442  contract ArbOptimizer is Ownable, ReentrancyGuard, Pausable { ... */\n      sload\n      dup2\n      add\n      dup1\n      swap2\n      gt\n      tag_321\n      jumpi\n        /* \"contracts/ArbOptV2.sol\":14621:14636  block.timestamp */\n      timestamp\n        /* \"contracts/ArbOptV2.sol\":14621:14677  block.timestamp >= lastExecutionTime + executionCooldown */\n      lt\n        /* \"contracts/ArbOptV2.sol\":1616:23442  contract ArbOptimizer is Ownable, ReentrancyGuard, Pausable { ... */\n      iszero\n        /* \"contracts/ArbOptV2.sol\":14571:14735  if (autoExecute) {... */\n      tag_298\n        /* \"contracts/ArbOptV2.sol\":1616:23442  contract ArbOptimizer is Ownable, ReentrancyGuard, Pausable { ... */\n      jumpi\n      mload(0x40)\n      shl(0xe5, 0x461bcd)\n      dup2\n      mstore\n      0x20\n      0x04\n      dup3\n      add\n      mstore\n      0x16\n      0x24\n      dup3\n      add\n      mstore\n      shl(0x50, 0x436f6f6c646f776e20706572696f6420616374697665)\n      0x44\n      dup3\n      add\n      mstore\n      0x64\n      swap1\n      revert\n    tag_321:\n      shl(0xe0, 0x4e487b71)\n        /* \"contracts/ArbOptV2.sol\":4738:4803  AggregatorV3Interface(0x5f4eC3Df9cbd43714FE2740f5E3616155c5b8419) */\n      dup3\n      mstore\n      0x11\n        /* \"contracts/ArbOptV2.sol\":1616:23442  contract ArbOptimizer is Ownable, ReentrancyGuard, Pausable { ... */\n      0x04\n        /* \"contracts/ArbOptV2.sol\":4738:4803  AggregatorV3Interface(0x5f4eC3Df9cbd43714FE2740f5E3616155c5b8419) */\n      mstore\n      0x24\n      dup3\n      revert\n        /* \"contracts/ArbOptV2.sol\":1616:23442  contract ArbOptimizer is Ownable, ReentrancyGuard, Pausable { ... */\n    tag_96:\n      pop\n      jumpi(tag_126, callvalue)\n      dup1\n      add(calldatasize, not(0x03))\n      slt\n      tag_126\n      jumpi\n      0x20\n        /* \"contracts/ArbOptV2.sol\":6724:6768  uint256 public userMinProfitAmount = 0.01e18 */\n      0x06\n        /* \"contracts/ArbOptV2.sol\":1616:23442  contract ArbOptimizer is Ownable, ReentrancyGuard, Pausable { ... */\n      sload\n      mload(0x40)\n      swap1\n      dup2\n      mstore\n      return\n    tag_94:\n      pop\n      jumpi(tag_126, callvalue)\n      jumpi(tag_126, slt(add(not(0x03), calldatasize), 0x20))\n      calldataload(0x04)\n      dup1\n      iszero\n      iszero\n      dup1\n      swap2\n      sub\n      tag_220\n      jumpi\n        /* \"@openzeppelin/contracts/access/Ownable.sol\":1546:1611  modifier onlyOwner() {... */\n      tag_335\n      tag_5\n      jump\t// in\n    tag_335:\n        /* \"contracts/ArbOptV2.sol\":1616:23442  contract ArbOptimizer is Ownable, ReentrancyGuard, Pausable { ... */\n      0xff\n      dup1\n      not\n        /* \"contracts/ArbOptV2.sol\":20476:20498  autoExecute = _enabled */\n      0x0b\n        /* \"contracts/ArbOptV2.sol\":1616:23442  contract ArbOptimizer is Ownable, ReentrancyGuard, Pausable { ... */\n      sload\n      and\n      swap2\n      and\n      or\n        /* \"contracts/ArbOptV2.sol\":20476:20498  autoExecute = _enabled */\n      0x0b\n        /* \"contracts/ArbOptV2.sol\":1616:23442  contract ArbOptimizer is Ownable, ReentrancyGuard, Pausable { ... */\n      sstore\n      dup1\n      return\n    tag_92:\n      pop\n      jumpi(tag_126, callvalue)\n      dup1\n      add(calldatasize, not(0x03))\n      slt\n      tag_126\n      jumpi\n      0x20\n      mload(0x40)\n        /* \"contracts/ArbOptV2.sol\":2354:2396  0xC02aaA39b223FE8D0A0e5C4F27eAD9083C756Cc2 */\n      0xc02aaa39b223fe8d0a0e5c4f27ead9083c756cc2\n        /* \"contracts/ArbOptV2.sol\":1616:23442  contract ArbOptimizer is Ownable, ReentrancyGuard, Pausable { ... */\n      dup2\n      mstore\n      return\n    tag_90:\n      pop\n      jumpi(tag_126, callvalue)\n      dup1\n      add(calldatasize, not(0x03))\n      slt\n      tag_126\n      jumpi\n      0x20\n      mload(0x40)\n        /* \"contracts/ArbOptV2.sol\":1818:1860  0xEfac88d8e212ca21d4FE670F715c4fE12CFbEF05 */\n      0xefac88d8e212ca21d4fe670f715c4fe12cfbef05\n        /* \"contracts/ArbOptV2.sol\":1616:23442  contract ArbOptimizer is Ownable, ReentrancyGuard, Pausable { ... */\n      dup2\n      mstore\n      return\n    tag_88:\n      pop\n      jumpi(tag_126, callvalue)\n      dup1\n      add(calldatasize, not(0x03))\n      slt\n      tag_126\n      jumpi\n      0x20\n      0xff\n        /* \"contracts/ArbOptV2.sol\":7008:7039  bool public autoExecute = false */\n      0x0b\n        /* \"contracts/ArbOptV2.sol\":1616:23442  contract ArbOptimizer is Ownable, ReentrancyGuard, Pausable { ... */\n      sload\n      and\n      mload(0x40)\n      swap1\n      iszero\n      iszero\n      dup2\n      mstore\n      return\n    tag_86:\n      pop\n      jumpi(tag_126, callvalue)\n      jumpi(tag_126, slt(add(not(0x03), calldatasize), 0x20))\n      calldataload(0x04)\n        /* \"@openzeppelin/contracts/access/Ownable.sol\":1546:1611  modifier onlyOwner() {... */\n      tag_352\n      tag_5\n      jump\t// in\n    tag_352:\n        /* \"contracts/ArbOptV2.sol\":20654:20660  1 days */\n      0x015180\n        /* \"contracts/ArbOptV2.sol\":20641:20660  _cooldown <= 1 days */\n      dup2\n      gt\n        /* \"contracts/ArbOptV2.sol\":1616:23442  contract ArbOptimizer is Ownable, ReentrancyGuard, Pausable { ... */\n      tag_353\n      jumpi\n        /* \"contracts/ArbOptV2.sol\":20689:20718  executionCooldown = _cooldown */\n      0x0d\n        /* \"contracts/ArbOptV2.sol\":1616:23442  contract ArbOptimizer is Ownable, ReentrancyGuard, Pausable { ... */\n      sstore\n      dup1\n      return\n    tag_353:\n      mload(0x40)\n      shl(0xe5, 0x461bcd)\n      dup2\n      mstore\n      0x20\n      0x04\n      dup3\n      add\n      mstore\n      0x11\n      0x24\n      dup3\n      add\n      mstore\n      shl(0x78, 0x436f6f6c646f776e20746f6f206c6f6e67)\n      0x44\n      dup3\n      add\n      mstore\n      0x64\n      swap1\n      revert\n    tag_84:\n      pop\n      jumpi(tag_126, callvalue)\n      dup1\n      add(calldatasize, not(0x03))\n      slt\n      tag_126\n      jumpi\n      sload(0x03)\n      sload(0x04)\n      swap1\n      dup2\n      dup2\n      mul\n      swap2\n      dup2\n      dup4\n      div\n      eq\n      swap1\n      iszero\n      or\n      iszero\n      tag_359\n      jumpi\n      0x20\n      swap1\n        /* \"contracts/ArbOptV2.sol\":11234:11239  10000 */\n      0x2710\n        /* \"contracts/ArbOptV2.sol\":1616:23442  contract ArbOptimizer is Ownable, ReentrancyGuard, Pausable { ... */\n      mload(0x40)\n      swap2\n      div\n      dup2\n      mstore\n      return\n    tag_359:\n        /* \"contracts/ArbOptV2.sol\":4738:4803  AggregatorV3Interface(0x5f4eC3Df9cbd43714FE2740f5E3616155c5b8419) */\n      shl(0xe0, 0x4e487b71)\n        /* \"contracts/ArbOptV2.sol\":1616:23442  contract ArbOptimizer is Ownable, ReentrancyGuard, Pausable { ... */\n      0x00\n        /* \"contracts/ArbOptV2.sol\":4738:4803  AggregatorV3Interface(0x5f4eC3Df9cbd43714FE2740f5E3616155c5b8419) */\n      mstore\n      0x11\n        /* \"contracts/ArbOptV2.sol\":1616:23442  contract ArbOptimizer is Ownable, ReentrancyGuard, Pausable { ... */\n      0x04\n        /* \"contracts/ArbOptV2.sol\":4738:4803  AggregatorV3Interface(0x5f4eC3Df9cbd43714FE2740f5E3616155c5b8419) */\n      mstore\n      0x24\n        /* \"contracts/ArbOptV2.sol\":1616:23442  contract ArbOptimizer is Ownable, ReentrancyGuard, Pausable { ... */\n      0x00\n        /* \"contracts/ArbOptV2.sol\":4738:4803  AggregatorV3Interface(0x5f4eC3Df9cbd43714FE2740f5E3616155c5b8419) */\n      revert\n        /* \"contracts/ArbOptV2.sol\":1616:23442  contract ArbOptimizer is Ownable, ReentrancyGuard, Pausable { ... */\n    tag_82:\n      pop\n      jumpi(tag_126, callvalue)\n      dup1\n      add(calldatasize, not(0x03))\n      slt\n      tag_126\n      jumpi\n      0x20\n        /* \"contracts/ArbOptV2.sol\":6836:6880  uint256 public maxFlashLoanAmount = 10000e18 */\n      0x08\n        /* \"contracts/ArbOptV2.sol\":1616:23442  contract ArbOptimizer is Ownable, ReentrancyGuard, Pausable { ... */\n      sload\n      mload(0x40)\n      swap1\n      dup2\n      mstore\n      return\n    tag_80:\n      pop\n      jumpi(tag_126, callvalue)\n      tag_367\n      calldatasize\n      tag_1\n      jump\t// in\n    tag_367:\n      swap1\n      swap2\n        /* \"contracts/ArbOptV2.sol\":11730:11804  require(flashLoanAmount >= minFlashLoanAmount, \"Below minimum flash loan\") */\n      tag_368\n        /* \"contracts/ArbOptV2.sol\":11757:11775  minFlashLoanAmount */\n      0x07\n        /* \"contracts/ArbOptV2.sol\":1616:23442  contract ArbOptimizer is Ownable, ReentrancyGuard, Pausable { ... */\n      sload\n        /* \"contracts/ArbOptV2.sol\":11738:11775  flashLoanAmount >= minFlashLoanAmount */\n      dup4\n      lt\n      iszero\n        /* \"contracts/ArbOptV2.sol\":11730:11804  require(flashLoanAmount >= minFlashLoanAmount, \"Below minimum flash loan\") */\n      tag_10\n      jump\t// in\n    tag_368:\n        /* \"contracts/ArbOptV2.sol\":11811:11887  require(flashLoanAmount <= maxFlashLoanAmount, \"Exceeds maximum flash loan\") */\n      tag_369\n        /* \"contracts/ArbOptV2.sol\":11838:11856  maxFlashLoanAmount */\n      0x08\n        /* \"contracts/ArbOptV2.sol\":1616:23442  contract ArbOptimizer is Ownable, ReentrancyGuard, Pausable { ... */\n      sload\n        /* \"contracts/ArbOptV2.sol\":11819:11856  flashLoanAmount <= maxFlashLoanAmount */\n      dup4\n      gt\n      iszero\n        /* \"contracts/ArbOptV2.sol\":11811:11887  require(flashLoanAmount <= maxFlashLoanAmount, \"Exceeds maximum flash loan\") */\n      tag_11\n      jump\t// in\n    tag_369:\n        /* \"contracts/ArbOptV2.sol\":1616:23442  contract ArbOptimizer is Ownable, ReentrancyGuard, Pausable { ... */\n      0x01\n      dup1\n      0xa0\n      shl\n      sub\n        /* \"contracts/ArbOptV2.sol\":11935:11942  arbExec */\n      swap3\n      0x02\n        /* \"contracts/ArbOptV2.sol\":1616:23442  contract ArbOptimizer is Ownable, ReentrancyGuard, Pausable { ... */\n      swap2\n      dup5\n      dup4\n      sload\n        /* \"contracts/ArbOptV2.sol\":11838:11856  maxFlashLoanAmount */\n      0x08\n        /* \"contracts/ArbOptV2.sol\":1616:23442  contract ArbOptimizer is Ownable, ReentrancyGuard, Pausable { ... */\n      shr\n      and\n      swap3\n      mload(0x40)\n        /* \"contracts/ArbOptV2.sol\":4738:4803  AggregatorV3Interface(0x5f4eC3Df9cbd43714FE2740f5E3616155c5b8419) */\n      swap4\n      shl(0xe1, 0x7d331ac5)\n        /* \"contracts/ArbOptV2.sol\":11935:11963  arbExec.getRoute(routeIndex) */\n      dup6\n      mstore\n      dup4\n        /* \"contracts/ArbOptV2.sol\":1616:23442  contract ArbOptimizer is Ownable, ReentrancyGuard, Pausable { ... */\n      0x04\n        /* \"contracts/ArbOptV2.sol\":11935:11963  arbExec.getRoute(routeIndex) */\n      dup7\n      add\n        /* \"contracts/ArbOptV2.sol\":1616:23442  contract ArbOptimizer is Ownable, ReentrancyGuard, Pausable { ... */\n      mstore\n      0x24\n        /* \"contracts/ArbOptV2.sol\":11935:11963  arbExec.getRoute(routeIndex) */\n      swap5\n      dup4\n      dup2\n      dup8\n      dup2\n      dup6\n      gas\n      staticcall\n      swap8\n      dup9\n      iszero\n      tag_197\n      jumpi\n      dup5\n      swap9\n      tag_372\n      jumpi\n        /* \"contracts/ArbOptV2.sol\":1616:23442  contract ArbOptimizer is Ownable, ReentrancyGuard, Pausable { ... */\n    tag_373:\n        /* \"contracts/ArbOptV2.sol\":11978:11988  route.path */\n      pop\n      pop\n        /* \"contracts/ArbOptV2.sol\":1616:23442  contract ArbOptimizer is Ownable, ReentrancyGuard, Pausable { ... */\n      0x20\n        /* \"contracts/ArbOptV2.sol\":11978:11988  route.path */\n      dup8\n      add\n      dup3\n      dup2\n      mload\n        /* \"contracts/ArbOptV2.sol\":1616:23442  contract ArbOptimizer is Ownable, ReentrancyGuard, Pausable { ... */\n      mload\n        /* \"contracts/ArbOptV2.sol\":11978:12000  route.path.length >= 2 */\n      lt\n        /* \"contracts/ArbOptV2.sol\":1616:23442  contract ArbOptimizer is Ownable, ReentrancyGuard, Pausable { ... */\n      tag_374\n      jumpi\n        /* \"contracts/ArbOptV2.sol\":12111:12121  route.path */\n      mload\n        /* \"contracts/ArbOptV2.sol\":12158:12168  route.dexA */\n      swap2\n      0x60\n      dup9\n      add\n        /* \"contracts/ArbOptV2.sol\":1616:23442  contract ArbOptimizer is Ownable, ReentrancyGuard, Pausable { ... */\n      mload\n      swap8\n      dup2\n      dup10\n      lt\n      iszero\n      tag_376\n      jumpi\n        /* \"contracts/ArbOptV2.sol\":12179:12189  route.dexB */\n      0x80\n      add\n        /* \"contracts/ArbOptV2.sol\":1616:23442  contract ArbOptimizer is Ownable, ReentrancyGuard, Pausable { ... */\n      mload\n      swap1\n      dup2\n      lt\n      iszero\n      tag_378\n      jumpi\n      swap2\n      tag_380\n      swap7\n      swap8\n      swap2\n      tag_381\n      tag_382\n      swap5\n      mload(0x40)\n        /* \"contracts/ArbOptV2.sol\":4738:4803  AggregatorV3Interface(0x5f4eC3Df9cbd43714FE2740f5E3616155c5b8419) */\n      swap10\n      dup11\n      swap7\n      dup8\n      swap6\n      shl(0xe0, 0xb3eeb621)\n        /* \"contracts/ArbOptV2.sol\":12070:12196  arbExec.calculateProfitability(... */\n      dup8\n      mstore\n        /* \"contracts/ArbOptV2.sol\":12179:12189  route.dexB */\n      0x80\n        /* \"contracts/ArbOptV2.sol\":1616:23442  contract ArbOptimizer is Ownable, ReentrancyGuard, Pausable { ... */\n      0x04\n        /* \"contracts/ArbOptV2.sol\":12070:12196  arbExec.calculateProfitability(... */\n      dup9\n      add\n        /* \"contracts/ArbOptV2.sol\":1616:23442  contract ArbOptimizer is Ownable, ReentrancyGuard, Pausable { ... */\n      mstore\n      0x84\n      dup8\n      add\n      swap1\n      tag_4\n      jump\t// in\n    tag_382:\n      swap6\n      dup13\n      dup12\n      dup8\n      add\n      mstore\n      0x44\n      dup7\n      add\n      swap1\n      tag_15\n      jump\t// in\n    tag_380:\n      0x64\n      dup5\n      add\n      swap1\n      tag_15\n      jump\t// in\n    tag_381:\n        /* \"contracts/ArbOptV2.sol\":12070:12196  arbExec.calculateProfitability(... */\n      dup2\n      dup6\n      0x0140\n      swap6\n      dup7\n      swap6\n      sub\n      swap3\n      gas\n      call\n      swap5\n      dup6\n      iszero\n      tag_174\n      jumpi\n      dup3\n      swap6\n      tag_385\n      jumpi\n        /* \"contracts/ArbOptV2.sol\":1616:23442  contract ArbOptimizer is Ownable, ReentrancyGuard, Pausable { ... */\n    tag_386:\n        /* \"contracts/ArbOptV2.sol\":12223:12246  quote.expectedNetProfit */\n      pop\n      pop\n        /* \"contracts/ArbOptV2.sol\":12268:12286  quote.isProfitable */\n      0x0120\n        /* \"contracts/ArbOptV2.sol\":12223:12246  quote.expectedNetProfit */\n      0x0100\n      dup6\n      add\n        /* \"contracts/ArbOptV2.sol\":1616:23442  contract ArbOptimizer is Ownable, ReentrancyGuard, Pausable { ... */\n      mload\n        /* \"contracts/ArbOptV2.sol\":12268:12286  quote.isProfitable */\n      swap5\n      add\n        /* \"contracts/ArbOptV2.sol\":1616:23442  contract ArbOptimizer is Ownable, ReentrancyGuard, Pausable { ... */\n      mload\n      iszero\n      iszero\n        /* \"contracts/ArbOptV2.sol\":12268:12337  quote.isProfitable &&... */\n      swap3\n      dup4\n      tag_387\n      jumpi\n        /* \"contracts/ArbOptV2.sol\":1616:23442  contract ArbOptimizer is Ownable, ReentrancyGuard, Pausable { ... */\n    tag_388:\n        /* \"contracts/ArbOptV2.sol\":12268:12413  quote.isProfitable &&... */\n      dup4\n      tag_389\n      jumpi\n        /* \"contracts/ArbOptV2.sol\":1616:23442  contract ArbOptimizer is Ownable, ReentrancyGuard, Pausable { ... */\n    tag_390:\n      pop\n      pop\n      0x40\n      dup1\n      mload\n      dup5\n      dup2\n      mstore\n      0x20\n      dup2\n      add\n      swap6\n      swap1\n      swap6\n      mstore\n      dup3\n      iszero\n      iszero\n      dup6\n      dup3\n      add\n      mstore\n      swap4\n        /* \"contracts/ArbOptV2.sol\":12427:12500  RouteAnalyzed(routeIndex, estimatedProfit, flashLoanAmount, isProfitable) */\n      0xc30ee1c478b9b474754862f7feeeadc800dce627c1b0621a98906b3d4d97df2c\n      swap1\n        /* \"contracts/ArbOptV2.sol\":1616:23442  contract ArbOptimizer is Ownable, ReentrancyGuard, Pausable { ... */\n      0x60\n      swap1\n        /* \"contracts/ArbOptV2.sol\":12427:12500  RouteAnalyzed(routeIndex, estimatedProfit, flashLoanAmount, isProfitable) */\n      log2\n        /* \"contracts/ArbOptV2.sol\":1616:23442  contract ArbOptimizer is Ownable, ReentrancyGuard, Pausable { ... */\n      dup3\n      mload\n      swap2\n      dup3\n      mstore\n      iszero\n      iszero\n      0x20\n      dup3\n      add\n      mstore\n      return\n        /* \"contracts/ArbOptV2.sol\":12268:12413  quote.isProfitable &&... */\n    tag_389:\n        /* \"contracts/ArbOptV2.sol\":12369:12374  10000 */\n      swap1\n      swap5\n      swap3\n      pop\n      0x2710\n        /* \"contracts/ArbOptV2.sol\":1616:23442  contract ArbOptimizer is Ownable, ReentrancyGuard, Pausable { ... */\n      swap5\n      dup6\n      dup6\n      mul\n      swap6\n      dup6\n      dup8\n      div\n      eq\n      dup6\n      iszero\n      or\n      iszero\n      tag_392\n      jumpi\n      pop\n      dup3\n      iszero\n      tag_394\n      jumpi\n      pop\n        /* \"contracts/ArbOptV2.sol\":12427:12500  RouteAnalyzed(routeIndex, estimatedProfit, flashLoanAmount, isProfitable) */\n      0xc30ee1c478b9b474754862f7feeeadc800dce627c1b0621a98906b3d4d97df2c\n        /* \"contracts/ArbOptV2.sol\":1616:23442  contract ArbOptimizer is Ownable, ReentrancyGuard, Pausable { ... */\n      0x40\n      swap5\n      dup4\n        /* \"contracts/ArbOptV2.sol\":12397:12413  userMinProfitBps */\n      0x05\n        /* \"contracts/ArbOptV2.sol\":1616:23442  contract ArbOptimizer is Ownable, ReentrancyGuard, Pausable { ... */\n      sload\n      swap2\n      div\n        /* \"contracts/ArbOptV2.sol\":12350:12413  (estimatedProfit * 10000) / flashLoanAmount >= userMinProfitBps */\n      lt\n      iszero\n        /* \"contracts/ArbOptV2.sol\":12268:12413  quote.isProfitable &&... */\n      swap3\n      swap5\n      jump(tag_390)\n        /* \"contracts/ArbOptV2.sol\":1616:23442  contract ArbOptimizer is Ownable, ReentrancyGuard, Pausable { ... */\n    tag_394:\n      shl(0xe0, 0x4e487b71)\n      0x00\n      swap1\n      dup2\n      mstore\n      mstore(0x04, 0x12)\n      revert\n    tag_392:\n      shl(0xe0, 0x4e487b71)\n        /* \"contracts/ArbOptV2.sol\":4738:4803  AggregatorV3Interface(0x5f4eC3Df9cbd43714FE2740f5E3616155c5b8419) */\n      dup2\n      mstore\n      0x11\n        /* \"contracts/ArbOptV2.sol\":1616:23442  contract ArbOptimizer is Ownable, ReentrancyGuard, Pausable { ... */\n      0x04\n        /* \"contracts/ArbOptV2.sol\":4738:4803  AggregatorV3Interface(0x5f4eC3Df9cbd43714FE2740f5E3616155c5b8419) */\n      mstore\n      revert\n        /* \"contracts/ArbOptV2.sol\":12268:12337  quote.isProfitable &&... */\n    tag_387:\n        /* \"contracts/ArbOptV2.sol\":12318:12337  userMinProfitAmount */\n      0x06\n        /* \"contracts/ArbOptV2.sol\":1616:23442  contract ArbOptimizer is Ownable, ReentrancyGuard, Pausable { ... */\n      sload\n        /* \"contracts/ArbOptV2.sol\":12299:12337  estimatedProfit >= userMinProfitAmount */\n      dup6\n      lt\n      iszero\n      swap4\n      pop\n        /* \"contracts/ArbOptV2.sol\":12268:12337  quote.isProfitable &&... */\n      jump(tag_388)\n        /* \"contracts/ArbOptV2.sol\":12070:12196  arbExec.calculateProfitability(... */\n    tag_385:\n      swap1\n      dup1\n      swap3\n      swap6\n      pop\n      dup2\n      dup2\n      returndatasize\n      dup4\n      gt\n      tag_396\n      jumpi\n    tag_397:\n      tag_398\n      dup2\n      dup4\n      tag_7\n      jump\t// in\n    tag_398:\n      dup2\n      add\n        /* \"contracts/ArbOptV2.sol\":1616:23442  contract ArbOptimizer is Ownable, ReentrancyGuard, Pausable { ... */\n      sub\n      slt\n      tag_211\n      jumpi\n      mload(0x40)\n        /* \"contracts/ArbOptV2.sol\":4738:4803  AggregatorV3Interface(0x5f4eC3Df9cbd43714FE2740f5E3616155c5b8419) */\n      swap2\n      dup3\n      add\n      dup3\n      dup2\n      lt\n      0xffffffffffffffff\n      dup3\n      gt\n      or\n      tag_401\n      jumpi\n        /* \"contracts/ArbOptV2.sol\":1616:23442  contract ArbOptimizer is Ownable, ReentrancyGuard, Pausable { ... */\n      0x40\n        /* \"contracts/ArbOptV2.sol\":4738:4803  AggregatorV3Interface(0x5f4eC3Df9cbd43714FE2740f5E3616155c5b8419) */\n      mstore\n      dup1\n      mload\n        /* \"contracts/ArbOptV2.sol\":1616:23442  contract ArbOptimizer is Ownable, ReentrancyGuard, Pausable { ... */\n      dup3\n      mstore\n      0x20\n      dup2\n      add\n        /* \"contracts/ArbOptV2.sol\":4738:4803  AggregatorV3Interface(0x5f4eC3Df9cbd43714FE2740f5E3616155c5b8419) */\n      mload\n        /* \"contracts/ArbOptV2.sol\":1616:23442  contract ArbOptimizer is Ownable, ReentrancyGuard, Pausable { ... */\n      0x20\n      dup4\n      add\n      mstore\n      0x40\n      dup2\n      add\n        /* \"contracts/ArbOptV2.sol\":4738:4803  AggregatorV3Interface(0x5f4eC3Df9cbd43714FE2740f5E3616155c5b8419) */\n      mload\n        /* \"contracts/ArbOptV2.sol\":1616:23442  contract ArbOptimizer is Ownable, ReentrancyGuard, Pausable { ... */\n      0x40\n      dup4\n      add\n      mstore\n        /* \"contracts/ArbOptV2.sol\":12158:12168  route.dexA */\n      0x60\n        /* \"contracts/ArbOptV2.sol\":1616:23442  contract ArbOptimizer is Ownable, ReentrancyGuard, Pausable { ... */\n      dup2\n      add\n        /* \"contracts/ArbOptV2.sol\":4738:4803  AggregatorV3Interface(0x5f4eC3Df9cbd43714FE2740f5E3616155c5b8419) */\n      mload\n        /* \"contracts/ArbOptV2.sol\":12158:12168  route.dexA */\n      0x60\n        /* \"contracts/ArbOptV2.sol\":1616:23442  contract ArbOptimizer is Ownable, ReentrancyGuard, Pausable { ... */\n      dup4\n      add\n      mstore\n        /* \"contracts/ArbOptV2.sol\":12179:12189  route.dexB */\n      0x80\n        /* \"contracts/ArbOptV2.sol\":1616:23442  contract ArbOptimizer is Ownable, ReentrancyGuard, Pausable { ... */\n      dup2\n      add\n        /* \"contracts/ArbOptV2.sol\":4738:4803  AggregatorV3Interface(0x5f4eC3Df9cbd43714FE2740f5E3616155c5b8419) */\n      mload\n        /* \"contracts/ArbOptV2.sol\":12179:12189  route.dexB */\n      0x80\n        /* \"contracts/ArbOptV2.sol\":1616:23442  contract ArbOptimizer is Ownable, ReentrancyGuard, Pausable { ... */\n      dup4\n      add\n      mstore\n      0xa0\n      dup2\n      add\n        /* \"contracts/ArbOptV2.sol\":4738:4803  AggregatorV3Interface(0x5f4eC3Df9cbd43714FE2740f5E3616155c5b8419) */\n      mload\n        /* \"contracts/ArbOptV2.sol\":1616:23442  contract ArbOptimizer is Ownable, ReentrancyGuard, Pausable { ... */\n      0xa0\n      dup4\n      add\n      mstore\n      0xc0\n      dup2\n      add\n        /* \"contracts/ArbOptV2.sol\":4738:4803  AggregatorV3Interface(0x5f4eC3Df9cbd43714FE2740f5E3616155c5b8419) */\n      mload\n        /* \"contracts/ArbOptV2.sol\":1616:23442  contract ArbOptimizer is Ownable, ReentrancyGuard, Pausable { ... */\n      0xc0\n      dup4\n      add\n      mstore\n      0xe0\n      dup2\n      add\n        /* \"contracts/ArbOptV2.sol\":4738:4803  AggregatorV3Interface(0x5f4eC3Df9cbd43714FE2740f5E3616155c5b8419) */\n      mload\n        /* \"contracts/ArbOptV2.sol\":1616:23442  contract ArbOptimizer is Ownable, ReentrancyGuard, Pausable { ... */\n      0xe0\n      dup4\n      add\n      mstore\n      0x0100\n      dup1\n      dup3\n      add\n        /* \"contracts/ArbOptV2.sol\":4738:4803  AggregatorV3Interface(0x5f4eC3Df9cbd43714FE2740f5E3616155c5b8419) */\n      mload\n        /* \"contracts/ArbOptV2.sol\":1616:23442  contract ArbOptimizer is Ownable, ReentrancyGuard, Pausable { ... */\n      swap1\n      dup4\n      add\n      mstore\n      tag_403\n      0x0120\n      dup1\n      swap3\n      add\n      tag_14\n      jump\t// in\n    tag_403:\n      swap1\n      dup3\n      add\n      mstore\n        /* \"contracts/ArbOptV2.sol\":12070:12196  arbExec.calculateProfitability(... */\n      swap3\n      0x00\n      dup1\n      jump(tag_386)\n        /* \"contracts/ArbOptV2.sol\":4738:4803  AggregatorV3Interface(0x5f4eC3Df9cbd43714FE2740f5E3616155c5b8419) */\n    tag_401:\n      dup5\n      shl(0xe0, 0x4e487b71)\n        /* \"contracts/ArbOptV2.sol\":1616:23442  contract ArbOptimizer is Ownable, ReentrancyGuard, Pausable { ... */\n      0x00\n        /* \"contracts/ArbOptV2.sol\":4738:4803  AggregatorV3Interface(0x5f4eC3Df9cbd43714FE2740f5E3616155c5b8419) */\n      mstore\n      0x41\n        /* \"contracts/ArbOptV2.sol\":1616:23442  contract ArbOptimizer is Ownable, ReentrancyGuard, Pausable { ... */\n      0x04\n        /* \"contracts/ArbOptV2.sol\":4738:4803  AggregatorV3Interface(0x5f4eC3Df9cbd43714FE2740f5E3616155c5b8419) */\n      mstore\n        /* \"contracts/ArbOptV2.sol\":1616:23442  contract ArbOptimizer is Ownable, ReentrancyGuard, Pausable { ... */\n      0x00\n        /* \"contracts/ArbOptV2.sol\":4738:4803  AggregatorV3Interface(0x5f4eC3Df9cbd43714FE2740f5E3616155c5b8419) */\n      revert\n        /* \"contracts/ArbOptV2.sol\":12070:12196  arbExec.calculateProfitability(... */\n    tag_396:\n      pop\n      returndatasize\n      jump(tag_397)\n        /* \"contracts/ArbOptV2.sol\":1616:23442  contract ArbOptimizer is Ownable, ReentrancyGuard, Pausable { ... */\n    tag_378:\n      shl(0xe0, 0x4e487b71)\n      dup5\n      mstore\n      mstore(0x04, 0x21)\n        /* \"contracts/ArbOptV2.sol\":4738:4803  AggregatorV3Interface(0x5f4eC3Df9cbd43714FE2740f5E3616155c5b8419) */\n      dup6\n      dup5\n        /* \"contracts/ArbOptV2.sol\":1616:23442  contract ArbOptimizer is Ownable, ReentrancyGuard, Pausable { ... */\n      revert\n    tag_376:\n      shl(0xe0, 0x4e487b71)\n      dup6\n      mstore\n      mstore(0x04, 0x21)\n        /* \"contracts/ArbOptV2.sol\":4738:4803  AggregatorV3Interface(0x5f4eC3Df9cbd43714FE2740f5E3616155c5b8419) */\n      dup7\n      dup6\n        /* \"contracts/ArbOptV2.sol\":1616:23442  contract ArbOptimizer is Ownable, ReentrancyGuard, Pausable { ... */\n      revert\n    tag_374:\n      mload(0x40)\n      shl(0xe5, 0x461bcd)\n      dup2\n      mstore\n      0x20\n      0x04\n      dup3\n      add\n      mstore\n      0x0d\n      dup2\n      dup9\n      add\n      mstore\n      shl(0x98, 0x496e76616c696420726f757465)\n      0x44\n      dup3\n      add\n      mstore\n      0x64\n      swap1\n      revert\n        /* \"contracts/ArbOptV2.sol\":11935:11963  arbExec.getRoute(routeIndex) */\n    tag_372:\n      swap1\n      swap2\n      swap8\n      pop\n      returndatasize\n      dup1\n      dup6\n      dup5\n      returndatacopy\n      tag_404\n      dup2\n      dup5\n      tag_7\n      jump\t// in\n    tag_404:\n      dup3\n      add\n        /* \"contracts/ArbOptV2.sol\":1616:23442  contract ArbOptimizer is Ownable, ReentrancyGuard, Pausable { ... */\n      swap1\n      0x20\n      dup1\n      dup5\n      dup5\n      sub\n      slt\n      tag_405\n      jumpi\n      dup4\n      mload\n      0xffffffffffffffff\n      swap5\n      dup6\n      dup3\n      gt\n      tag_415\n      jumpi\n      add\n      swap3\n      0xa0\n      dup5\n      dup3\n      sub\n      slt\n      tag_409\n      jumpi\n      mload(0x40)\n        /* \"contracts/ArbOptV2.sol\":4738:4803  AggregatorV3Interface(0x5f4eC3Df9cbd43714FE2740f5E3616155c5b8419) */\n      swap5\n        /* \"contracts/ArbOptV2.sol\":1616:23442  contract ArbOptimizer is Ownable, ReentrancyGuard, Pausable { ... */\n      0xa0\n        /* \"contracts/ArbOptV2.sol\":4738:4803  AggregatorV3Interface(0x5f4eC3Df9cbd43714FE2740f5E3616155c5b8419) */\n      dup7\n      add\n      dup7\n      dup2\n      lt\n      dup3\n      dup3\n      gt\n      or\n      tag_411\n      jumpi\n        /* \"contracts/ArbOptV2.sol\":1616:23442  contract ArbOptimizer is Ownable, ReentrancyGuard, Pausable { ... */\n      0x40\n        /* \"contracts/ArbOptV2.sol\":4738:4803  AggregatorV3Interface(0x5f4eC3Df9cbd43714FE2740f5E3616155c5b8419) */\n      mstore\n      dup5\n      mload\n        /* \"contracts/ArbOptV2.sol\":1616:23442  contract ArbOptimizer is Ownable, ReentrancyGuard, Pausable { ... */\n      dup7\n      mstore\n      dup3\n      dup6\n      add\n      mload\n      swap1\n      dup2\n      gt\n      tag_415\n      jumpi\n      dup5\n      add\n      swap3\n      dup2\n      0x1f\n      dup6\n      add\n      slt\n      iszero\n      tag_415\n      jumpi\n      dup4\n      mload\n      swap1\n      tag_417\n      dup3\n      tag_13\n      jump\t// in\n    tag_417:\n      swap5\n      tag_418\n      mload(0x40)\n      swap7\n      dup8\n      tag_7\n      jump\t// in\n    tag_418:\n      dup3\n      dup7\n      mstore\n      dup5\n      dup1\n      dup8\n      add\n      swap4\n      0x05\n      shl\n      dup3\n      add\n      add\n      swap4\n      dup5\n      gt\n      tag_419\n      jumpi\n      dup5\n      add\n      swap2\n    tag_421:\n      dup4\n      dup4\n      lt\n      tag_422\n      jumpi\n      pop\n      pop\n      pop\n      pop\n      dup4\n      add\n      mstore\n      0x40\n      dup2\n      add\n        /* \"contracts/ArbOptV2.sol\":4738:4803  AggregatorV3Interface(0x5f4eC3Df9cbd43714FE2740f5E3616155c5b8419) */\n      mload\n        /* \"contracts/ArbOptV2.sol\":1616:23442  contract ArbOptimizer is Ownable, ReentrancyGuard, Pausable { ... */\n      0x40\n      dup4\n      add\n      mstore\n      0x60\n      dup2\n      add\n      mload\n      dup4\n      dup2\n      lt\n      iszero\n      tag_211\n      jumpi\n      0x60\n      dup4\n      add\n      mstore\n      0x80\n      add\n      mload\n      dup3\n      dup2\n      lt\n      iszero\n      tag_313\n      jumpi\n      0x80\n      dup3\n      add\n      mstore\n        /* \"contracts/ArbOptV2.sol\":11935:11963  arbExec.getRoute(routeIndex) */\n      swap6\n      0x00\n      dup1\n      jump(tag_373)\n        /* \"contracts/ArbOptV2.sol\":1616:23442  contract ArbOptimizer is Ownable, ReentrancyGuard, Pausable { ... */\n    tag_422:\n      dup3\n      mload\n      dup3\n      dup2\n      and\n      dup2\n      sub\n      tag_428\n      jumpi\n      dup2\n      mstore\n      swap2\n      dup5\n      add\n      swap2\n      dup5\n      add\n      jump(tag_421)\n    tag_428:\n      dup11\n      dup1\n      revert\n    tag_419:\n      dup10\n      dup1\n      revert\n    tag_415:\n      dup8\n      dup1\n      revert\n        /* \"contracts/ArbOptV2.sol\":4738:4803  AggregatorV3Interface(0x5f4eC3Df9cbd43714FE2740f5E3616155c5b8419) */\n    tag_411:\n      dup11\n      shl(0xe0, 0x4e487b71)\n        /* \"contracts/ArbOptV2.sol\":1616:23442  contract ArbOptimizer is Ownable, ReentrancyGuard, Pausable { ... */\n      0x00\n        /* \"contracts/ArbOptV2.sol\":4738:4803  AggregatorV3Interface(0x5f4eC3Df9cbd43714FE2740f5E3616155c5b8419) */\n      mstore\n      0x41\n        /* \"contracts/ArbOptV2.sol\":1616:23442  contract ArbOptimizer is Ownable, ReentrancyGuard, Pausable { ... */\n      0x04\n        /* \"contracts/ArbOptV2.sol\":4738:4803  AggregatorV3Interface(0x5f4eC3Df9cbd43714FE2740f5E3616155c5b8419) */\n      mstore\n        /* \"contracts/ArbOptV2.sol\":1616:23442  contract ArbOptimizer is Ownable, ReentrancyGuard, Pausable { ... */\n      0x00\n        /* \"contracts/ArbOptV2.sol\":4738:4803  AggregatorV3Interface(0x5f4eC3Df9cbd43714FE2740f5E3616155c5b8419) */\n      revert\n        /* \"contracts/ArbOptV2.sol\":1616:23442  contract ArbOptimizer is Ownable, ReentrancyGuard, Pausable { ... */\n    tag_409:\n      dup7\n      dup1\n      revert\n    tag_405:\n      dup6\n      dup1\n      revert\n    tag_78:\n      pop\n      jumpi(tag_126, callvalue)\n      dup1\n      add(calldatasize, not(0x03))\n      slt\n      tag_126\n      jumpi\n      0x20\n      sload(0x03)\n      mload(0x40)\n      swap1\n      dup2\n      mstore\n      return\n    tag_76:\n      pop\n      jumpi(tag_126, callvalue)\n      0x20\n      dup1\n      add(calldatasize, not(0x03))\n      slt\n      tag_220\n      jumpi\n        /* \"contracts/ArbOptV2.sol\":15703:15710  arbExec */\n      0x02\n        /* \"contracts/ArbOptV2.sol\":1616:23442  contract ArbOptimizer is Ownable, ReentrancyGuard, Pausable { ... */\n      sload\n      mload(0x40)\n      shl(0xe0, 0x32252057)\n        /* \"contracts/ArbOptV2.sol\":15703:15726  arbExec.getRouteCount() */\n      dup2\n      mstore\n        /* \"contracts/ArbOptV2.sol\":1616:23442  contract ArbOptimizer is Ownable, ReentrancyGuard, Pausable { ... */\n      0x04\n      dup1\n      calldataload\n      swap4\n      swap2\n      swap3\n      dup3\n      swap2\n      dup5\n      swap2\n      dup3\n      swap1\n      0x08\n      shr\n      sub(shl(0xa0, 0x01), 0x01)\n      and\n        /* \"contracts/ArbOptV2.sol\":15703:15726  arbExec.getRouteCount() */\n      gas\n      staticcall\n      swap2\n      dup3\n      iszero\n      tag_197\n      jumpi\n      dup5\n      swap3\n      tag_440\n      jumpi\n        /* \"contracts/ArbOptV2.sol\":1616:23442  contract ArbOptimizer is Ownable, ReentrancyGuard, Pausable { ... */\n    tag_441:\n      pop\n      swap1\n      swap2\n      swap3\n      tag_442\n      dup4\n      tag_13\n      jump\t// in\n    tag_442:\n      swap3\n      tag_443\n      mload(0x40)\n      swap5\n      dup6\n      tag_7\n      jump\t// in\n    tag_443:\n      dup1\n      dup5\n      mstore\n      tag_444\n      dup2\n      tag_13\n      jump\t// in\n    tag_444:\n      swap3\n      dup1\n      dup6\n      add\n      swap2\n      not(0x1f)\n      dup1\n      swap6\n      add\n      calldatasize\n      dup5\n      calldatacopy\n      tag_445\n      dup2\n      tag_13\n      jump\t// in\n    tag_445:\n      swap7\n      tag_446\n      mload(0x40)\n      swap9\n      dup10\n      tag_7\n      jump\t// in\n    tag_446:\n      dup2\n      dup9\n      mstore\n      tag_447\n      dup3\n      tag_13\n      jump\t// in\n    tag_447:\n      dup9\n      dup5\n      add\n      swap7\n      add\n      calldatasize\n      dup8\n      calldatacopy\n        /* \"contracts/ArbOptV2.sol\":15835:15848  uint256 i = 0 */\n      dup5\n        /* \"contracts/ArbOptV2.sol\":15850:15864  i < routeCount */\n    tag_448:\n      dup3\n      dup2\n      lt\n      tag_449\n      jumpi\n        /* \"contracts/ArbOptV2.sol\":1616:23442  contract ArbOptimizer is Ownable, ReentrancyGuard, Pausable { ... */\n      pop\n      pop\n      pop\n      mload(0x40)\n      swap6\n      dup7\n      swap6\n      0x40\n      dup8\n      add\n      swap1\n      0x40\n      dup9\n      mstore\n      mload\n      dup1\n      swap2\n      mstore\n      0x60\n      dup8\n      add\n      swap4\n      swap1\n      dup6\n    tag_451:\n      dup2\n      dup2\n      lt\n      tag_452\n      jumpi\n      pop\n      pop\n      pop\n      dup6\n      dup4\n      sub\n      dup7\n      dup4\n      add\n      mstore\n      mload\n      dup1\n      dup4\n      mstore\n      swap2\n      dup2\n      add\n      swap4\n      swap3\n    tag_454:\n      dup3\n      dup2\n      lt\n      tag_455\n      jumpi\n      pop\n      pop\n      pop\n      pop\n      sub\n      swap1\n      return\n    tag_455:\n      dup4\n      mload\n      iszero\n      iszero\n      dup6\n      mstore\n      dup7\n      swap6\n      pop\n      swap4\n      dup2\n      add\n      swap4\n      swap3\n      dup2\n      add\n      swap3\n      0x01\n      add\n      jump(tag_454)\n    tag_452:\n      dup3\n      mload\n      dup7\n      mstore\n      dup10\n      swap9\n      pop\n      swap5\n      dup5\n      add\n      swap5\n      swap2\n      dup5\n      add\n      swap2\n      0x01\n      add\n      jump(tag_451)\n        /* \"contracts/ArbOptV2.sol\":15866:15869  i++ */\n    tag_449:\n      tag_457\n        /* \"contracts/ArbOptV2.sol\":1616:23442  contract ArbOptimizer is Ownable, ReentrancyGuard, Pausable { ... */\n      swap1\n      0x40\n      swap10\n      swap5\n      swap7\n      swap6\n      swap8\n      swap9\n      swap10\n      mload\n        /* \"contracts/ArbOptV2.sol\":4738:4803  AggregatorV3Interface(0x5f4eC3Df9cbd43714FE2740f5E3616155c5b8419) */\n      shl(0xe0, 0x9517ed85)\n        /* \"contracts/ArbOptV2.sol\":15886:15923  this.analyzeRoute(i, flashLoanAmount) */\n      dup2\n      mstore\n      dup2\n        /* \"contracts/ArbOptV2.sol\":1616:23442  contract ArbOptimizer is Ownable, ReentrancyGuard, Pausable { ... */\n      0x04\n        /* \"contracts/ArbOptV2.sol\":15886:15923  this.analyzeRoute(i, flashLoanAmount) */\n      dup3\n      add\n        /* \"contracts/ArbOptV2.sol\":1616:23442  contract ArbOptimizer is Ownable, ReentrancyGuard, Pausable { ... */\n      mstore\n      dup4\n      0x24\n      dup3\n      add\n      mstore\n      0x40\n        /* \"contracts/ArbOptV2.sol\":15886:15890  this */\n      dup2\n        /* \"contracts/ArbOptV2.sol\":1616:23442  contract ArbOptimizer is Ownable, ReentrancyGuard, Pausable { ... */\n      0x44\n        /* \"contracts/ArbOptV2.sol\":15886:15890  this */\n      dup2\n      dup11\n      address\n        /* \"contracts/ArbOptV2.sol\":15886:15923  this.analyzeRoute(i, flashLoanAmount) */\n      gas\n      call\n      swap1\n      dup2\n      dup9\n      swap2\n      dup10\n      swap4\n      tag_458\n      jumpi\n        /* \"contracts/ArbOptV2.sol\":15866:15869  i++ */\n    tag_459:\n      pop\n        /* \"contracts/ArbOptV2.sol\":15882:16159  try this.analyzeRoute(i, flashLoanAmount) returns (uint256 profit, bool profitable) {... */\n      tag_460\n      jumpi\n        /* \"contracts/ArbOptV2.sol\":16086:16105  routeProfits[i] = 0 */\n      pop\n      pop\n      dup6\n      tag_462\n      dup3\n      dup13\n      tag_20\n      jump\t// in\n    tag_462:\n        /* \"contracts/ArbOptV2.sol\":1616:23442  contract ArbOptimizer is Ownable, ReentrancyGuard, Pausable { ... */\n      mstore\n        /* \"contracts/ArbOptV2.sol\":16120:16147  routesProfitable[i] = false */\n      dup6\n      tag_463\n      dup3\n      dup8\n      tag_20\n      jump\t// in\n    tag_463:\n        /* \"contracts/ArbOptV2.sol\":1616:23442  contract ArbOptimizer is Ownable, ReentrancyGuard, Pausable { ... */\n      mstore\n        /* \"contracts/ArbOptV2.sol\":15866:15869  i++ */\n      tag_16\n      jump\t// in\n    tag_457:\n        /* \"contracts/ArbOptV2.sol\":15835:15848  uint256 i = 0 */\n      swap8\n      swap7\n      swap6\n      swap4\n      swap5\n      swap3\n      swap8\n      jump(tag_448)\n        /* \"contracts/ArbOptV2.sol\":15882:16159  try this.analyzeRoute(i, flashLoanAmount) returns (uint256 profit, bool profitable) {... */\n    tag_460:\n        /* \"contracts/ArbOptV2.sol\":15981:16005  routeProfits[i] = profit */\n      tag_465\n      dup4\n      dup14\n      tag_20\n      jump\t// in\n    tag_465:\n        /* \"contracts/ArbOptV2.sol\":1616:23442  contract ArbOptimizer is Ownable, ReentrancyGuard, Pausable { ... */\n      mstore\n        /* \"contracts/ArbOptV2.sol\":16020:16052  routesProfitable[i] = profitable */\n      tag_466\n      dup3\n      dup8\n      tag_20\n      jump\t// in\n    tag_466:\n        /* \"contracts/ArbOptV2.sol\":1616:23442  contract ArbOptimizer is Ownable, ReentrancyGuard, Pausable { ... */\n      swap1\n      iszero\n      iszero\n      swap1\n      mstore\n        /* \"contracts/ArbOptV2.sol\":15866:15869  i++ */\n      tag_16\n      jump\t// in\n        /* \"contracts/ArbOptV2.sol\":15886:15923  this.analyzeRoute(i, flashLoanAmount) */\n    tag_458:\n      swap1\n      swap3\n      pop\n      tag_467\n      swap2\n      pop\n        /* \"contracts/ArbOptV2.sol\":1616:23442  contract ArbOptimizer is Ownable, ReentrancyGuard, Pausable { ... */\n      0x40\n        /* \"contracts/ArbOptV2.sol\":15886:15923  this.analyzeRoute(i, flashLoanAmount) */\n      returndatasize\n        /* \"contracts/ArbOptV2.sol\":1616:23442  contract ArbOptimizer is Ownable, ReentrancyGuard, Pausable { ... */\n      0x40\n        /* \"contracts/ArbOptV2.sol\":15886:15923  this.analyzeRoute(i, flashLoanAmount) */\n      gt\n      tag_468\n      jumpi\n    tag_469:\n      tag_470\n      dup2\n      dup4\n      tag_7\n      jump\t// in\n    tag_470:\n      dup2\n      add\n      swap1\n      tag_17\n      jump\t// in\n    tag_467:\n      swap2\n      0x00\n      jump(tag_459)\n    tag_468:\n      pop\n      returndatasize\n      jump(tag_469)\n        /* \"contracts/ArbOptV2.sol\":15703:15726  arbExec.getRouteCount() */\n    tag_440:\n      swap1\n      dup1\n      swap3\n      pop\n      dup2\n      dup2\n      returndatasize\n      dup4\n      gt\n      tag_471\n      jumpi\n    tag_472:\n      tag_473\n      dup2\n      dup4\n      tag_7\n      jump\t// in\n    tag_473:\n      dup2\n      add\n        /* \"contracts/ArbOptV2.sol\":1616:23442  contract ArbOptimizer is Ownable, ReentrancyGuard, Pausable { ... */\n      sub\n      slt\n      tag_217\n      jumpi\n        /* \"contracts/ArbOptV2.sol\":4738:4803  AggregatorV3Interface(0x5f4eC3Df9cbd43714FE2740f5E3616155c5b8419) */\n      mload\n        /* \"contracts/ArbOptV2.sol\":15703:15726  arbExec.getRouteCount() */\n      swap1\n      0x00\n      jump(tag_441)\n    tag_471:\n      pop\n      returndatasize\n      jump(tag_472)\n        /* \"contracts/ArbOptV2.sol\":1616:23442  contract ArbOptimizer is Ownable, ReentrancyGuard, Pausable { ... */\n    tag_74:\n      pop\n      jumpi(tag_126, callvalue)\n      dup1\n      add(calldatasize, not(0x03))\n      slt\n      tag_126\n      jumpi\n      sload\n      mload(0x40)\n      sub(shl(0xa0, 0x01), 0x01)\n      swap1\n      swap2\n      and\n      dup2\n      mstore\n      0x20\n      swap1\n      return\n    tag_72:\n      pop\n      jumpi(tag_126, callvalue)\n      0x20\n      dup1\n      add(calldatasize, not(0x03))\n      slt\n      tag_220\n      jumpi\n      calldataload(0x04)\n      sub(shl(0xa0, 0x01), 0x01)\n      dup2\n      dup2\n      and\n      swap2\n      dup3\n      swap1\n      sub\n      tag_313\n      jumpi\n        /* \"@openzeppelin/contracts/security/ReentrancyGuard.sol\":2276:2383  modifier nonReentrant() {... */\n      tag_486\n      tag_19\n      jump\t// in\n    tag_486:\n        /* \"@openzeppelin/contracts/access/Ownable.sol\":1546:1611  modifier onlyOwner() {... */\n      tag_487\n      tag_5\n      jump\t// in\n    tag_487:\n        /* \"contracts/ArbOptV2.sol\":17795:17814  token != address(0) */\n      dup2\n      iszero\n        /* \"contracts/ArbOptV2.sol\":1616:23442  contract ArbOptimizer is Ownable, ReentrancyGuard, Pausable { ... */\n      tag_488\n      jumpi\n      dup4\n      swap1\n        /* \"contracts/ArbOptV2.sol\":17839:17846  arbExec */\n      0x02\n        /* \"contracts/ArbOptV2.sol\":1616:23442  contract ArbOptimizer is Ownable, ReentrancyGuard, Pausable { ... */\n      sload\n      0x08\n      shr\n      and\n        /* \"contracts/ArbOptV2.sol\":17839:17871  arbExec.emergencyWithdraw(token) */\n      dup1\n      extcodesize\n      iszero\n      tag_220\n      jumpi\n        /* \"contracts/ArbOptV2.sol\":1616:23442  contract ArbOptimizer is Ownable, ReentrancyGuard, Pausable { ... */\n      dup2\n      dup1\n      swap2\n      0x24\n      mload(0x40)\n        /* \"contracts/ArbOptV2.sol\":4738:4803  AggregatorV3Interface(0x5f4eC3Df9cbd43714FE2740f5E3616155c5b8419) */\n      dup1\n      swap5\n      dup2\n      swap4\n      shl(0xe2, 0x1bfc726f)\n        /* \"contracts/ArbOptV2.sol\":17839:17871  arbExec.emergencyWithdraw(token) */\n      dup4\n      mstore\n      dup9\n        /* \"contracts/ArbOptV2.sol\":1616:23442  contract ArbOptimizer is Ownable, ReentrancyGuard, Pausable { ... */\n      0x04\n        /* \"contracts/ArbOptV2.sol\":17839:17871  arbExec.emergencyWithdraw(token) */\n      dup5\n      add\n        /* \"contracts/ArbOptV2.sol\":1616:23442  contract ArbOptimizer is Ownable, ReentrancyGuard, Pausable { ... */\n      mstore\n        /* \"contracts/ArbOptV2.sol\":17839:17871  arbExec.emergencyWithdraw(token) */\n      gas\n      call\n      dup1\n      iszero\n      tag_174\n      jumpi\n      tag_494\n      jumpi\n        /* \"contracts/ArbOptV2.sol\":1616:23442  contract ArbOptimizer is Ownable, ReentrancyGuard, Pausable { ... */\n    tag_495:\n      pop\n      pop\n      mload(0x40)\n      shl(0xe0, 0x70a08231)\n        /* \"contracts/ArbOptV2.sol\":17896:17934  IERC20(token).balanceOf(address(this)) */\n      dup2\n      mstore\n        /* \"contracts/ArbOptV2.sol\":17928:17932  this */\n      address\n        /* \"contracts/ArbOptV2.sol\":1616:23442  contract ArbOptimizer is Ownable, ReentrancyGuard, Pausable { ... */\n      0x04\n        /* \"contracts/ArbOptV2.sol\":17896:17934  IERC20(token).balanceOf(address(this)) */\n      dup3\n      add\n        /* \"contracts/ArbOptV2.sol\":1616:23442  contract ArbOptimizer is Ownable, ReentrancyGuard, Pausable { ... */\n      mstore\n      swap2\n        /* \"contracts/ArbOptV2.sol\":4738:4803  AggregatorV3Interface(0x5f4eC3Df9cbd43714FE2740f5E3616155c5b8419) */\n      dup1\n        /* \"contracts/ArbOptV2.sol\":1616:23442  contract ArbOptimizer is Ownable, ReentrancyGuard, Pausable { ... */\n      dup4\n      0x24\n      dup2\n        /* \"contracts/ArbOptV2.sol\":17896:17934  IERC20(token).balanceOf(address(this)) */\n      dup6\n      gas\n      staticcall\n      swap3\n      dup4\n      iszero\n      tag_197\n      jumpi\n      dup5\n      swap4\n      tag_199\n      jumpi\n        /* \"contracts/ArbOptV2.sol\":17945:17956  balance > 0 */\n      pop\n      dup3\n        /* \"contracts/ArbOptV2.sol\":17941:18079  if (balance > 0) {... */\n      tag_201\n      jumpi\n        /* \"contracts/ArbOptV2.sol\":1616:23442  contract ArbOptimizer is Ownable, ReentrancyGuard, Pausable { ... */\n      dup4\n      0x01\n      dup1\n      sstore\n      dup1\n      return\n        /* \"contracts/ArbOptV2.sol\":17839:17871  arbExec.emergencyWithdraw(token) */\n    tag_494:\n      tag_518\n      swap1\n      tag_6\n      jump\t// in\n    tag_518:\n        /* \"contracts/ArbOptV2.sol\":1616:23442  contract ArbOptimizer is Ownable, ReentrancyGuard, Pausable { ... */\n      tag_146\n      jumpi\n        /* \"contracts/ArbOptV2.sol\":17839:17871  arbExec.emergencyWithdraw(token) */\n      dup3\n      0x00\n      jump(tag_495)\n        /* \"contracts/ArbOptV2.sol\":1616:23442  contract ArbOptimizer is Ownable, ReentrancyGuard, Pausable { ... */\n    tag_488:\n      mload(0x40)\n      shl(0xe5, 0x461bcd)\n      dup2\n      mstore\n      0x04\n      dup2\n      add\n      dup5\n      swap1\n      mstore\n      0x0d\n      0x24\n      dup3\n      add\n      mstore\n      shl(0x99, 0x24b73b30b634b2103a37b5b2b7)\n      0x44\n      dup3\n      add\n      mstore\n      0x64\n      swap1\n      revert\n    tag_70:\n      pop\n      jumpi(tag_126, callvalue)\n      dup1\n      add(calldatasize, not(0x03))\n      slt\n      tag_126\n      jumpi\n      mload(0x40)\n      shl(0xe0, 0x70a08231)\n        /* \"contracts/ArbOptV2.sol\":22612:22649  IERC20(WETH).balanceOf(address(this)) */\n      dup2\n      mstore\n        /* \"contracts/ArbOptV2.sol\":22643:22647  this */\n      address\n        /* \"contracts/ArbOptV2.sol\":1616:23442  contract ArbOptimizer is Ownable, ReentrancyGuard, Pausable { ... */\n      0x04\n        /* \"contracts/ArbOptV2.sol\":22612:22649  IERC20(WETH).balanceOf(address(this)) */\n      dup3\n      add\n        /* \"contracts/ArbOptV2.sol\":1616:23442  contract ArbOptimizer is Ownable, ReentrancyGuard, Pausable { ... */\n      mstore\n        /* \"contracts/ArbOptV2.sol\":22612:22649  IERC20(WETH).balanceOf(address(this)) */\n      0x20\n        /* \"contracts/ArbOptV2.sol\":1616:23442  contract ArbOptimizer is Ownable, ReentrancyGuard, Pausable { ... */\n      dup2\n      0x24\n      dup2\n        /* \"contracts/ArbOptV2.sol\":2354:2396  0xC02aaA39b223FE8D0A0e5C4F27eAD9083C756Cc2 */\n      0xc02aaa39b223fe8d0a0e5c4f27ead9083c756cc2\n        /* \"contracts/ArbOptV2.sol\":22612:22649  IERC20(WETH).balanceOf(address(this)) */\n      gas\n      staticcall\n      swap1\n      dup2\n      iszero\n      tag_174\n      jumpi\n      dup3\n      swap2\n      tag_527\n      jumpi\n        /* \"contracts/ArbOptV2.sol\":1616:23442  contract ArbOptimizer is Ownable, ReentrancyGuard, Pausable { ... */\n    tag_528:\n      pop\n      mload(0x40)\n      shl(0xe0, 0x70a08231)\n        /* \"contracts/ArbOptV2.sol\":22670:22707  IERC20(USDC).balanceOf(address(this)) */\n      dup2\n      mstore\n        /* \"contracts/ArbOptV2.sol\":22643:22647  this */\n      address\n        /* \"contracts/ArbOptV2.sol\":1616:23442  contract ArbOptimizer is Ownable, ReentrancyGuard, Pausable { ... */\n      0x04\n        /* \"contracts/ArbOptV2.sol\":22670:22707  IERC20(USDC).balanceOf(address(this)) */\n      dup3\n      add\n        /* \"contracts/ArbOptV2.sol\":1616:23442  contract ArbOptimizer is Ownable, ReentrancyGuard, Pausable { ... */\n      mstore\n        /* \"contracts/ArbOptV2.sol\":22612:22649  IERC20(WETH).balanceOf(address(this)) */\n      0x20\n        /* \"contracts/ArbOptV2.sol\":1616:23442  contract ArbOptimizer is Ownable, ReentrancyGuard, Pausable { ... */\n      dup2\n      0x24\n      dup2\n        /* \"contracts/ArbOptV2.sol\":1990:2032  0xA0b86991c6218b36c1d19D4a2e9Eb0cE3606eB48 */\n      0xa0b86991c6218b36c1d19d4a2e9eb0ce3606eb48\n        /* \"contracts/ArbOptV2.sol\":22670:22707  IERC20(USDC).balanceOf(address(this)) */\n      gas\n      staticcall\n      swap1\n      dup2\n      iszero\n      tag_541\n      jumpi\n      dup4\n      swap2\n      tag_531\n      jumpi\n        /* \"contracts/ArbOptV2.sol\":1616:23442  contract ArbOptimizer is Ownable, ReentrancyGuard, Pausable { ... */\n    tag_532:\n      pop\n      mload(0x40)\n      shl(0xe0, 0x70a08231)\n        /* \"contracts/ArbOptV2.sol\":22728:22765  IERC20(USDT).balanceOf(address(this)) */\n      dup2\n      mstore\n        /* \"contracts/ArbOptV2.sol\":22643:22647  this */\n      address\n        /* \"contracts/ArbOptV2.sol\":1616:23442  contract ArbOptimizer is Ownable, ReentrancyGuard, Pausable { ... */\n      0x04\n        /* \"contracts/ArbOptV2.sol\":22728:22765  IERC20(USDT).balanceOf(address(this)) */\n      dup3\n      add\n        /* \"contracts/ArbOptV2.sol\":1616:23442  contract ArbOptimizer is Ownable, ReentrancyGuard, Pausable { ... */\n      mstore\n      swap3\n        /* \"contracts/ArbOptV2.sol\":22612:22649  IERC20(WETH).balanceOf(address(this)) */\n      0x20\n        /* \"contracts/ArbOptV2.sol\":1616:23442  contract ArbOptimizer is Ownable, ReentrancyGuard, Pausable { ... */\n      dup5\n      0x24\n      dup2\n        /* \"contracts/ArbOptV2.sol\":2525:2567  0xdAC17F958D2ee523a2206206994597C13D831ec7 */\n      0xdac17f958d2ee523a2206206994597c13d831ec7\n        /* \"contracts/ArbOptV2.sol\":22728:22765  IERC20(USDT).balanceOf(address(this)) */\n      gas\n      staticcall\n      swap4\n      dup5\n      iszero\n      tag_226\n      jumpi\n      dup2\n      swap5\n      tag_535\n      jumpi\n        /* \"contracts/ArbOptV2.sol\":1616:23442  contract ArbOptimizer is Ownable, ReentrancyGuard, Pausable { ... */\n    tag_536:\n      pop\n      mload(0x40)\n      shl(0xe0, 0x70a08231)\n        /* \"contracts/ArbOptV2.sol\":22785:22821  IERC20(DAI).balanceOf(address(this)) */\n      dup2\n      mstore\n        /* \"contracts/ArbOptV2.sol\":22643:22647  this */\n      address\n        /* \"contracts/ArbOptV2.sol\":1616:23442  contract ArbOptimizer is Ownable, ReentrancyGuard, Pausable { ... */\n      0x04\n        /* \"contracts/ArbOptV2.sol\":22785:22821  IERC20(DAI).balanceOf(address(this)) */\n      dup3\n      add\n        /* \"contracts/ArbOptV2.sol\":1616:23442  contract ArbOptimizer is Ownable, ReentrancyGuard, Pausable { ... */\n      mstore\n        /* \"contracts/ArbOptV2.sol\":22612:22649  IERC20(WETH).balanceOf(address(this)) */\n      0x20\n        /* \"contracts/ArbOptV2.sol\":1616:23442  contract ArbOptimizer is Ownable, ReentrancyGuard, Pausable { ... */\n      dup2\n      0x24\n      dup2\n        /* \"contracts/ArbOptV2.sol\":2601:2643  0x6B175474E89094C44Da98b954EedeAC495271d0F */\n      0x6b175474e89094c44da98b954eedeac495271d0f\n        /* \"contracts/ArbOptV2.sol\":22785:22821  IERC20(DAI).balanceOf(address(this)) */\n      gas\n      staticcall\n      swap1\n      dup2\n      iszero\n      tag_174\n      jumpi\n      dup3\n      swap2\n      tag_539\n      jumpi\n        /* \"contracts/ArbOptV2.sol\":1616:23442  contract ArbOptimizer is Ownable, ReentrancyGuard, Pausable { ... */\n    tag_540:\n      pop\n      mload(0x40)\n      shl(0xe0, 0x70a08231)\n        /* \"contracts/ArbOptV2.sol\":22842:22879  IERC20(FRAX).balanceOf(address(this)) */\n      dup2\n      mstore\n        /* \"contracts/ArbOptV2.sol\":22643:22647  this */\n      address\n        /* \"contracts/ArbOptV2.sol\":1616:23442  contract ArbOptimizer is Ownable, ReentrancyGuard, Pausable { ... */\n      0x04\n        /* \"contracts/ArbOptV2.sol\":22842:22879  IERC20(FRAX).balanceOf(address(this)) */\n      dup3\n      add\n        /* \"contracts/ArbOptV2.sol\":1616:23442  contract ArbOptimizer is Ownable, ReentrancyGuard, Pausable { ... */\n      mstore\n        /* \"contracts/ArbOptV2.sol\":22612:22649  IERC20(WETH).balanceOf(address(this)) */\n      0x20\n        /* \"contracts/ArbOptV2.sol\":1616:23442  contract ArbOptimizer is Ownable, ReentrancyGuard, Pausable { ... */\n      dup2\n      0x24\n      dup2\n        /* \"contracts/ArbOptV2.sol\":2678:2720  0x3432B6A60D23Ca0dFCa7761B7ab56459D9C964D0 */\n      0x3432b6a60d23ca0dfca7761b7ab56459d9c964d0\n        /* \"contracts/ArbOptV2.sol\":22842:22879  IERC20(FRAX).balanceOf(address(this)) */\n      gas\n      staticcall\n      swap1\n      dup2\n      iszero\n      tag_541\n      jumpi\n      dup4\n      swap2\n      tag_543\n      jumpi\n        /* \"contracts/ArbOptV2.sol\":1616:23442  contract ArbOptimizer is Ownable, ReentrancyGuard, Pausable { ... */\n    tag_544:\n      pop\n      mload(0x40)\n      shl(0xe0, 0x70a08231)\n        /* \"contracts/ArbOptV2.sol\":22900:22937  IERC20(LUSD).balanceOf(address(this)) */\n      dup2\n      mstore\n        /* \"contracts/ArbOptV2.sol\":22643:22647  this */\n      address\n        /* \"contracts/ArbOptV2.sol\":1616:23442  contract ArbOptimizer is Ownable, ReentrancyGuard, Pausable { ... */\n      0x04\n        /* \"contracts/ArbOptV2.sol\":22900:22937  IERC20(LUSD).balanceOf(address(this)) */\n      dup3\n      add\n        /* \"contracts/ArbOptV2.sol\":1616:23442  contract ArbOptimizer is Ownable, ReentrancyGuard, Pausable { ... */\n      mstore\n        /* \"contracts/ArbOptV2.sol\":22612:22649  IERC20(WETH).balanceOf(address(this)) */\n      0x20\n        /* \"contracts/ArbOptV2.sol\":1616:23442  contract ArbOptimizer is Ownable, ReentrancyGuard, Pausable { ... */\n      dup2\n      0x24\n      dup2\n        /* \"contracts/ArbOptV2.sol\":2755:2797  0x5f98805A4E8F28fB3FBE254CCf7e6f82e4467683 */\n      0x5f98805a4e8f28fb3fbe254ccf7e6f82e4467683\n        /* \"contracts/ArbOptV2.sol\":22900:22937  IERC20(LUSD).balanceOf(address(this)) */\n      gas\n      staticcall\n      swap1\n      dup2\n      iszero\n      tag_197\n      jumpi\n      dup5\n      swap2\n      tag_547\n      jumpi\n        /* \"contracts/ArbOptV2.sol\":1616:23442  contract ArbOptimizer is Ownable, ReentrancyGuard, Pausable { ... */\n    tag_548:\n      pop\n      mload(0x40)\n      shl(0xe0, 0x70a08231)\n        /* \"contracts/ArbOptV2.sol\":22958:22995  IERC20(USDP).balanceOf(address(this)) */\n      dup2\n      mstore\n        /* \"contracts/ArbOptV2.sol\":22643:22647  this */\n      address\n        /* \"contracts/ArbOptV2.sol\":1616:23442  contract ArbOptimizer is Ownable, ReentrancyGuard, Pausable { ... */\n      0x04\n        /* \"contracts/ArbOptV2.sol\":22958:22995  IERC20(USDP).balanceOf(address(this)) */\n      dup3\n      add\n        /* \"contracts/ArbOptV2.sol\":1616:23442  contract ArbOptimizer is Ownable, ReentrancyGuard, Pausable { ... */\n      mstore\n        /* \"contracts/ArbOptV2.sol\":22612:22649  IERC20(WETH).balanceOf(address(this)) */\n      0x20\n        /* \"contracts/ArbOptV2.sol\":1616:23442  contract ArbOptimizer is Ownable, ReentrancyGuard, Pausable { ... */\n      dup2\n      0x24\n      dup2\n        /* \"contracts/ArbOptV2.sol\":2832:2874  0x8E870D67f660D95d5Be2D7738B5b1294a692a0b9 */\n      0x8e870d67f660d95d5be2d7738b5b1294a692a0b9\n        /* \"contracts/ArbOptV2.sol\":22958:22995  IERC20(USDP).balanceOf(address(this)) */\n      gas\n      staticcall\n      swap1\n      dup2\n      iszero\n      tag_204\n      jumpi\n      dup6\n      swap2\n      tag_551\n      jumpi\n        /* \"contracts/ArbOptV2.sol\":1616:23442  contract ArbOptimizer is Ownable, ReentrancyGuard, Pausable { ... */\n    tag_552:\n      pop\n      mload(0x40)\n      shl(0xe0, 0x70a08231)\n        /* \"contracts/ArbOptV2.sol\":23016:23053  IERC20(TUSD).balanceOf(address(this)) */\n      dup2\n      mstore\n        /* \"contracts/ArbOptV2.sol\":22643:22647  this */\n      address\n        /* \"contracts/ArbOptV2.sol\":1616:23442  contract ArbOptimizer is Ownable, ReentrancyGuard, Pausable { ... */\n      0x04\n        /* \"contracts/ArbOptV2.sol\":23016:23053  IERC20(TUSD).balanceOf(address(this)) */\n      dup3\n      add\n        /* \"contracts/ArbOptV2.sol\":1616:23442  contract ArbOptimizer is Ownable, ReentrancyGuard, Pausable { ... */\n      mstore\n      swap1\n        /* \"contracts/ArbOptV2.sol\":22612:22649  IERC20(WETH).balanceOf(address(this)) */\n      0x20\n        /* \"contracts/ArbOptV2.sol\":1616:23442  contract ArbOptimizer is Ownable, ReentrancyGuard, Pausable { ... */\n      dup3\n      0x24\n      dup2\n        /* \"contracts/ArbOptV2.sol\":2909:2951  0x0000000000085d4780B73119b644AE5ecd22b376 */\n      0x085d4780b73119b644ae5ecd22b376\n        /* \"contracts/ArbOptV2.sol\":23016:23053  IERC20(TUSD).balanceOf(address(this)) */\n      gas\n      staticcall\n      swap2\n      dup3\n      iszero\n      tag_553\n      jumpi\n      dup7\n      swap3\n      tag_555\n      jumpi\n        /* \"contracts/ArbOptV2.sol\":1616:23442  contract ArbOptimizer is Ownable, ReentrancyGuard, Pausable { ... */\n    tag_556:\n      pop\n      mload(0x40)\n      shl(0xe0, 0x70a08231)\n        /* \"contracts/ArbOptV2.sol\":23074:23111  IERC20(GUSD).balanceOf(address(this)) */\n      dup2\n      mstore\n        /* \"contracts/ArbOptV2.sol\":22643:22647  this */\n      address\n        /* \"contracts/ArbOptV2.sol\":1616:23442  contract ArbOptimizer is Ownable, ReentrancyGuard, Pausable { ... */\n      0x04\n        /* \"contracts/ArbOptV2.sol\":23074:23111  IERC20(GUSD).balanceOf(address(this)) */\n      dup3\n      add\n        /* \"contracts/ArbOptV2.sol\":1616:23442  contract ArbOptimizer is Ownable, ReentrancyGuard, Pausable { ... */\n      mstore\n      swap3\n        /* \"contracts/ArbOptV2.sol\":22612:22649  IERC20(WETH).balanceOf(address(this)) */\n      0x20\n        /* \"contracts/ArbOptV2.sol\":1616:23442  contract ArbOptimizer is Ownable, ReentrancyGuard, Pausable { ... */\n      dup5\n      0x24\n      dup2\n        /* \"contracts/ArbOptV2.sol\":2986:3028  0x056Fd409E1d7A124BD7017459dFEa2F387b6d5Cd */\n      0x056fd409e1d7a124bd7017459dfea2f387b6d5cd\n        /* \"contracts/ArbOptV2.sol\":23074:23111  IERC20(GUSD).balanceOf(address(this)) */\n      gas\n      staticcall\n      swap4\n      dup5\n      iszero\n      tag_557\n      jumpi\n      dup8\n      swap5\n      tag_559\n      jumpi\n        /* \"contracts/ArbOptV2.sol\":1616:23442  contract ArbOptimizer is Ownable, ReentrancyGuard, Pausable { ... */\n    tag_560:\n      pop\n      mload(0x40)\n      shl(0xe0, 0x70a08231)\n        /* \"contracts/ArbOptV2.sol\":23132:23169  IERC20(BUSD).balanceOf(address(this)) */\n      dup2\n      mstore\n        /* \"contracts/ArbOptV2.sol\":22643:22647  this */\n      address\n        /* \"contracts/ArbOptV2.sol\":1616:23442  contract ArbOptimizer is Ownable, ReentrancyGuard, Pausable { ... */\n      0x04\n        /* \"contracts/ArbOptV2.sol\":23132:23169  IERC20(BUSD).balanceOf(address(this)) */\n      dup3\n      add\n        /* \"contracts/ArbOptV2.sol\":1616:23442  contract ArbOptimizer is Ownable, ReentrancyGuard, Pausable { ... */\n      mstore\n      swap5\n        /* \"contracts/ArbOptV2.sol\":22612:22649  IERC20(WETH).balanceOf(address(this)) */\n      0x20\n        /* \"contracts/ArbOptV2.sol\":1616:23442  contract ArbOptimizer is Ownable, ReentrancyGuard, Pausable { ... */\n      dup7\n      0x24\n      dup2\n        /* \"contracts/ArbOptV2.sol\":3063:3105  0x4Fabb145d64652a948d72533023f6E7A623C7C53 */\n      0x4fabb145d64652a948d72533023f6e7a623c7c53\n        /* \"contracts/ArbOptV2.sol\":23132:23169  IERC20(BUSD).balanceOf(address(this)) */\n      gas\n      staticcall\n      swap6\n      dup7\n      iszero\n      tag_561\n      jumpi\n      dup9\n      swap7\n      tag_563\n      jumpi\n        /* \"contracts/ArbOptV2.sol\":1616:23442  contract ArbOptimizer is Ownable, ReentrancyGuard, Pausable { ... */\n    tag_564:\n      pop\n      mload(0x40)\n      shl(0xe0, 0x70a08231)\n        /* \"contracts/ArbOptV2.sol\":23191:23230  IERC20(USDC_E).balanceOf(address(this)) */\n      dup2\n      mstore\n        /* \"contracts/ArbOptV2.sol\":22643:22647  this */\n      address\n        /* \"contracts/ArbOptV2.sol\":1616:23442  contract ArbOptimizer is Ownable, ReentrancyGuard, Pausable { ... */\n      0x04\n        /* \"contracts/ArbOptV2.sol\":23191:23230  IERC20(USDC_E).balanceOf(address(this)) */\n      dup3\n      add\n        /* \"contracts/ArbOptV2.sol\":1616:23442  contract ArbOptimizer is Ownable, ReentrancyGuard, Pausable { ... */\n      mstore\n      swap7\n        /* \"contracts/ArbOptV2.sol\":22612:22649  IERC20(WETH).balanceOf(address(this)) */\n      0x20\n        /* \"contracts/ArbOptV2.sol\":1616:23442  contract ArbOptimizer is Ownable, ReentrancyGuard, Pausable { ... */\n      dup9\n      0x24\n      dup2\n        /* \"contracts/ArbOptV2.sol\":3142:3184  0xa7d1D0dA000261f05d8d4532FD34439D3325AD8B */\n      0xa7d1d0da000261f05d8d4532fd34439d3325ad8b\n        /* \"contracts/ArbOptV2.sol\":23191:23230  IERC20(USDC_E).balanceOf(address(this)) */\n      gas\n      staticcall\n      swap8\n      dup9\n      iszero\n      tag_565\n      jumpi\n      dup10\n      swap9\n      tag_567\n      jumpi\n        /* \"contracts/ArbOptV2.sol\":1616:23442  contract ArbOptimizer is Ownable, ReentrancyGuard, Pausable { ... */\n    tag_568:\n      pop\n      mload(0x40)\n      shl(0xe0, 0x70a08231)\n        /* \"contracts/ArbOptV2.sol\":23251:23288  IERC20(EURS).balanceOf(address(this)) */\n      dup2\n      mstore\n        /* \"contracts/ArbOptV2.sol\":22643:22647  this */\n      address\n        /* \"contracts/ArbOptV2.sol\":1616:23442  contract ArbOptimizer is Ownable, ReentrancyGuard, Pausable { ... */\n      0x04\n        /* \"contracts/ArbOptV2.sol\":23251:23288  IERC20(EURS).balanceOf(address(this)) */\n      dup3\n      add\n        /* \"contracts/ArbOptV2.sol\":1616:23442  contract ArbOptimizer is Ownable, ReentrancyGuard, Pausable { ... */\n      mstore\n      swap12\n        /* \"contracts/ArbOptV2.sol\":22612:22649  IERC20(WETH).balanceOf(address(this)) */\n      0x20\n        /* \"contracts/ArbOptV2.sol\":1616:23442  contract ArbOptimizer is Ownable, ReentrancyGuard, Pausable { ... */\n      dup14\n      0x24\n      dup2\n        /* \"contracts/ArbOptV2.sol\":3219:3261  0xdB25f211AB05b1c97D595516F45794528a807ad8 */\n      0xdb25f211ab05b1c97d595516f45794528a807ad8\n        /* \"contracts/ArbOptV2.sol\":23251:23288  IERC20(EURS).balanceOf(address(this)) */\n      gas\n      staticcall\n      swap10\n      dup11\n      iszero\n      tag_569\n      jumpi\n      swap10\n      tag_571\n      jumpi\n        /* \"contracts/ArbOptV2.sol\":1616:23442  contract ArbOptimizer is Ownable, ReentrancyGuard, Pausable { ... */\n    tag_572:\n      0x01a0\n        /* \"contracts/ArbOptV2.sol\":23308:23329  address(this).balance */\n      swap13\n      pop\n      selfbalance\n        /* \"contracts/ArbOptV2.sol\":1616:23442  contract ArbOptimizer is Ownable, ReentrancyGuard, Pausable { ... */\n      swap11\n      mload(0x40)\n      swap13\n      dup14\n      mstore\n        /* \"contracts/ArbOptV2.sol\":22612:22649  IERC20(WETH).balanceOf(address(this)) */\n      0x20\n        /* \"contracts/ArbOptV2.sol\":1616:23442  contract ArbOptimizer is Ownable, ReentrancyGuard, Pausable { ... */\n      dup14\n      add\n      mstore\n      0x40\n      dup13\n      add\n      mstore\n      0x60\n      dup12\n      add\n      mstore\n      0x80\n      dup11\n      add\n      mstore\n      0xa0\n      dup10\n      add\n      mstore\n      0xc0\n      dup9\n      add\n      mstore\n      0xe0\n      dup8\n      add\n      mstore\n      0x0100\n      dup7\n      add\n      mstore\n      0x0120\n      dup6\n      add\n      mstore\n      0x0140\n      dup5\n      add\n      mstore\n      0x0160\n      dup4\n      add\n      mstore\n      0x0180\n      dup3\n      add\n      mstore\n      return\n        /* \"contracts/ArbOptV2.sol\":23251:23288  IERC20(EURS).balanceOf(address(this)) */\n    tag_571:\n      swap9\n      pop\n        /* \"contracts/ArbOptV2.sol\":22612:22649  IERC20(WETH).balanceOf(address(this)) */\n      0x20\n        /* \"contracts/ArbOptV2.sol\":23251:23288  IERC20(EURS).balanceOf(address(this)) */\n      dup13\n      returndatasize\n        /* \"contracts/ArbOptV2.sol\":22612:22649  IERC20(WETH).balanceOf(address(this)) */\n      0x20\n        /* \"contracts/ArbOptV2.sol\":23251:23288  IERC20(EURS).balanceOf(address(this)) */\n      gt\n      tag_573\n      jumpi\n    tag_574:\n      dup2\n      tag_575\n        /* \"contracts/ArbOptV2.sol\":22612:22649  IERC20(WETH).balanceOf(address(this)) */\n      0x20\n        /* \"contracts/ArbOptV2.sol\":23251:23288  IERC20(EURS).balanceOf(address(this)) */\n      swap4\n      dup4\n      tag_7\n      jump\t// in\n    tag_575:\n      dup2\n      add\n        /* \"contracts/ArbOptV2.sol\":1616:23442  contract ArbOptimizer is Ownable, ReentrancyGuard, Pausable { ... */\n      sub\n      slt\n      tag_217\n      jumpi\n      0x01a0\n        /* \"contracts/ArbOptV2.sol\":4738:4803  AggregatorV3Interface(0x5f4eC3Df9cbd43714FE2740f5E3616155c5b8419) */\n      swap12\n      mload\n        /* \"contracts/ArbOptV2.sol\":23251:23288  IERC20(EURS).balanceOf(address(this)) */\n      swap9\n      jump(tag_572)\n    tag_573:\n      returndatasize\n      swap2\n      pop\n      jump(tag_574)\n    tag_569:\n        /* \"contracts/ArbOptV2.sol\":1616:23442  contract ArbOptimizer is Ownable, ReentrancyGuard, Pausable { ... */\n      mload(0x40)\n        /* \"contracts/ArbOptV2.sol\":4738:4803  AggregatorV3Interface(0x5f4eC3Df9cbd43714FE2740f5E3616155c5b8419) */\n      swap1\n      returndatasize\n      swap1\n      dup3\n      returndatacopy\n      returndatasize\n      swap1\n      revert\n        /* \"contracts/ArbOptV2.sol\":23191:23230  IERC20(USDC_E).balanceOf(address(this)) */\n    tag_567:\n      swap1\n      swap8\n      pop\n        /* \"contracts/ArbOptV2.sol\":22612:22649  IERC20(WETH).balanceOf(address(this)) */\n      0x20\n        /* \"contracts/ArbOptV2.sol\":23191:23230  IERC20(USDC_E).balanceOf(address(this)) */\n      dup2\n      returndatasize\n        /* \"contracts/ArbOptV2.sol\":22612:22649  IERC20(WETH).balanceOf(address(this)) */\n      0x20\n        /* \"contracts/ArbOptV2.sol\":23191:23230  IERC20(USDC_E).balanceOf(address(this)) */\n      gt\n      tag_578\n      jumpi\n    tag_579:\n      dup2\n      tag_580\n        /* \"contracts/ArbOptV2.sol\":22612:22649  IERC20(WETH).balanceOf(address(this)) */\n      0x20\n        /* \"contracts/ArbOptV2.sol\":23191:23230  IERC20(USDC_E).balanceOf(address(this)) */\n      swap4\n      dup4\n      tag_7\n      jump\t// in\n    tag_580:\n      dup2\n      add\n        /* \"contracts/ArbOptV2.sol\":1616:23442  contract ArbOptimizer is Ownable, ReentrancyGuard, Pausable { ... */\n      sub\n      slt\n      tag_217\n      jumpi\n        /* \"contracts/ArbOptV2.sol\":4738:4803  AggregatorV3Interface(0x5f4eC3Df9cbd43714FE2740f5E3616155c5b8419) */\n      mload\n        /* \"contracts/ArbOptV2.sol\":23191:23230  IERC20(USDC_E).balanceOf(address(this)) */\n      swap7\n      0x00\n      jump(tag_568)\n    tag_578:\n      returndatasize\n      swap2\n      pop\n      jump(tag_579)\n    tag_565:\n        /* \"contracts/ArbOptV2.sol\":1616:23442  contract ArbOptimizer is Ownable, ReentrancyGuard, Pausable { ... */\n      mload(0x40)\n        /* \"contracts/ArbOptV2.sol\":4738:4803  AggregatorV3Interface(0x5f4eC3Df9cbd43714FE2740f5E3616155c5b8419) */\n      returndatasize\n        /* \"contracts/ArbOptV2.sol\":1616:23442  contract ArbOptimizer is Ownable, ReentrancyGuard, Pausable { ... */\n      dup12\n      dup3\n        /* \"contracts/ArbOptV2.sol\":4738:4803  AggregatorV3Interface(0x5f4eC3Df9cbd43714FE2740f5E3616155c5b8419) */\n      returndatacopy\n      returndatasize\n      swap1\n      revert\n        /* \"contracts/ArbOptV2.sol\":23132:23169  IERC20(BUSD).balanceOf(address(this)) */\n    tag_563:\n      swap1\n      swap6\n      pop\n        /* \"contracts/ArbOptV2.sol\":22612:22649  IERC20(WETH).balanceOf(address(this)) */\n      0x20\n        /* \"contracts/ArbOptV2.sol\":23132:23169  IERC20(BUSD).balanceOf(address(this)) */\n      dup2\n      returndatasize\n        /* \"contracts/ArbOptV2.sol\":22612:22649  IERC20(WETH).balanceOf(address(this)) */\n      0x20\n        /* \"contracts/ArbOptV2.sol\":23132:23169  IERC20(BUSD).balanceOf(address(this)) */\n      gt\n      tag_583\n      jumpi\n    tag_584:\n      dup2\n      tag_585\n        /* \"contracts/ArbOptV2.sol\":22612:22649  IERC20(WETH).balanceOf(address(this)) */\n      0x20\n        /* \"contracts/ArbOptV2.sol\":23132:23169  IERC20(BUSD).balanceOf(address(this)) */\n      swap4\n      dup4\n      tag_7\n      jump\t// in\n    tag_585:\n      dup2\n      add\n        /* \"contracts/ArbOptV2.sol\":1616:23442  contract ArbOptimizer is Ownable, ReentrancyGuard, Pausable { ... */\n      sub\n      slt\n      tag_217\n      jumpi\n        /* \"contracts/ArbOptV2.sol\":4738:4803  AggregatorV3Interface(0x5f4eC3Df9cbd43714FE2740f5E3616155c5b8419) */\n      mload\n        /* \"contracts/ArbOptV2.sol\":23132:23169  IERC20(BUSD).balanceOf(address(this)) */\n      swap5\n      0x00\n      jump(tag_564)\n    tag_583:\n      returndatasize\n      swap2\n      pop\n      jump(tag_584)\n    tag_561:\n        /* \"contracts/ArbOptV2.sol\":1616:23442  contract ArbOptimizer is Ownable, ReentrancyGuard, Pausable { ... */\n      mload(0x40)\n        /* \"contracts/ArbOptV2.sol\":4738:4803  AggregatorV3Interface(0x5f4eC3Df9cbd43714FE2740f5E3616155c5b8419) */\n      returndatasize\n        /* \"contracts/ArbOptV2.sol\":1616:23442  contract ArbOptimizer is Ownable, ReentrancyGuard, Pausable { ... */\n      dup11\n      dup3\n        /* \"contracts/ArbOptV2.sol\":4738:4803  AggregatorV3Interface(0x5f4eC3Df9cbd43714FE2740f5E3616155c5b8419) */\n      returndatacopy\n      returndatasize\n      swap1\n      revert\n        /* \"contracts/ArbOptV2.sol\":23074:23111  IERC20(GUSD).balanceOf(address(this)) */\n    tag_559:\n      swap1\n      swap4\n      pop\n        /* \"contracts/ArbOptV2.sol\":22612:22649  IERC20(WETH).balanceOf(address(this)) */\n      0x20\n        /* \"contracts/ArbOptV2.sol\":23074:23111  IERC20(GUSD).balanceOf(address(this)) */\n      dup2\n      returndatasize\n        /* \"contracts/ArbOptV2.sol\":22612:22649  IERC20(WETH).balanceOf(address(this)) */\n      0x20\n        /* \"contracts/ArbOptV2.sol\":23074:23111  IERC20(GUSD).balanceOf(address(this)) */\n      gt\n      tag_588\n      jumpi\n    tag_589:\n      dup2\n      tag_590\n        /* \"contracts/ArbOptV2.sol\":22612:22649  IERC20(WETH).balanceOf(address(this)) */\n      0x20\n        /* \"contracts/ArbOptV2.sol\":23074:23111  IERC20(GUSD).balanceOf(address(this)) */\n      swap4\n      dup4\n      tag_7\n      jump\t// in\n    tag_590:\n      dup2\n      add\n        /* \"contracts/ArbOptV2.sol\":1616:23442  contract ArbOptimizer is Ownable, ReentrancyGuard, Pausable { ... */\n      sub\n      slt\n      tag_217\n      jumpi\n        /* \"contracts/ArbOptV2.sol\":4738:4803  AggregatorV3Interface(0x5f4eC3Df9cbd43714FE2740f5E3616155c5b8419) */\n      mload\n        /* \"contracts/ArbOptV2.sol\":23074:23111  IERC20(GUSD).balanceOf(address(this)) */\n      swap3\n      0x00\n      jump(tag_560)\n    tag_588:\n      returndatasize\n      swap2\n      pop\n      jump(tag_589)\n    tag_557:\n        /* \"contracts/ArbOptV2.sol\":1616:23442  contract ArbOptimizer is Ownable, ReentrancyGuard, Pausable { ... */\n      mload(0x40)\n        /* \"contracts/ArbOptV2.sol\":4738:4803  AggregatorV3Interface(0x5f4eC3Df9cbd43714FE2740f5E3616155c5b8419) */\n      returndatasize\n        /* \"contracts/ArbOptV2.sol\":1616:23442  contract ArbOptimizer is Ownable, ReentrancyGuard, Pausable { ... */\n      dup10\n      dup3\n        /* \"contracts/ArbOptV2.sol\":4738:4803  AggregatorV3Interface(0x5f4eC3Df9cbd43714FE2740f5E3616155c5b8419) */\n      returndatacopy\n      returndatasize\n      swap1\n      revert\n        /* \"contracts/ArbOptV2.sol\":23016:23053  IERC20(TUSD).balanceOf(address(this)) */\n    tag_555:\n      swap1\n      swap2\n      pop\n        /* \"contracts/ArbOptV2.sol\":22612:22649  IERC20(WETH).balanceOf(address(this)) */\n      0x20\n        /* \"contracts/ArbOptV2.sol\":23016:23053  IERC20(TUSD).balanceOf(address(this)) */\n      dup2\n      returndatasize\n        /* \"contracts/ArbOptV2.sol\":22612:22649  IERC20(WETH).balanceOf(address(this)) */\n      0x20\n        /* \"contracts/ArbOptV2.sol\":23016:23053  IERC20(TUSD).balanceOf(address(this)) */\n      gt\n      tag_593\n      jumpi\n    tag_594:\n      dup2\n      tag_595\n        /* \"contracts/ArbOptV2.sol\":22612:22649  IERC20(WETH).balanceOf(address(this)) */\n      0x20\n        /* \"contracts/ArbOptV2.sol\":23016:23053  IERC20(TUSD).balanceOf(address(this)) */\n      swap4\n      dup4\n      tag_7\n      jump\t// in\n    tag_595:\n      dup2\n      add\n        /* \"contracts/ArbOptV2.sol\":1616:23442  contract ArbOptimizer is Ownable, ReentrancyGuard, Pausable { ... */\n      sub\n      slt\n      tag_217\n      jumpi\n        /* \"contracts/ArbOptV2.sol\":4738:4803  AggregatorV3Interface(0x5f4eC3Df9cbd43714FE2740f5E3616155c5b8419) */\n      mload\n        /* \"contracts/ArbOptV2.sol\":23016:23053  IERC20(TUSD).balanceOf(address(this)) */\n      swap1\n      0x00\n      jump(tag_556)\n    tag_593:\n      returndatasize\n      swap2\n      pop\n      jump(tag_594)\n    tag_553:\n        /* \"contracts/ArbOptV2.sol\":1616:23442  contract ArbOptimizer is Ownable, ReentrancyGuard, Pausable { ... */\n      mload(0x40)\n        /* \"contracts/ArbOptV2.sol\":4738:4803  AggregatorV3Interface(0x5f4eC3Df9cbd43714FE2740f5E3616155c5b8419) */\n      returndatasize\n        /* \"contracts/ArbOptV2.sol\":1616:23442  contract ArbOptimizer is Ownable, ReentrancyGuard, Pausable { ... */\n      dup9\n      dup3\n        /* \"contracts/ArbOptV2.sol\":4738:4803  AggregatorV3Interface(0x5f4eC3Df9cbd43714FE2740f5E3616155c5b8419) */\n      returndatacopy\n      returndatasize\n      swap1\n      revert\n        /* \"contracts/ArbOptV2.sol\":22958:22995  IERC20(USDP).balanceOf(address(this)) */\n    tag_551:\n      swap1\n      pop\n        /* \"contracts/ArbOptV2.sol\":22612:22649  IERC20(WETH).balanceOf(address(this)) */\n      0x20\n        /* \"contracts/ArbOptV2.sol\":22958:22995  IERC20(USDP).balanceOf(address(this)) */\n      dup2\n      returndatasize\n        /* \"contracts/ArbOptV2.sol\":22612:22649  IERC20(WETH).balanceOf(address(this)) */\n      0x20\n        /* \"contracts/ArbOptV2.sol\":22958:22995  IERC20(USDP).balanceOf(address(this)) */\n      gt\n      tag_598\n      jumpi\n    tag_599:\n      dup2\n      tag_600\n        /* \"contracts/ArbOptV2.sol\":22612:22649  IERC20(WETH).balanceOf(address(this)) */\n      0x20\n        /* \"contracts/ArbOptV2.sol\":22958:22995  IERC20(USDP).balanceOf(address(this)) */\n      swap4\n      dup4\n      tag_7\n      jump\t// in\n    tag_600:\n      dup2\n      add\n        /* \"contracts/ArbOptV2.sol\":1616:23442  contract ArbOptimizer is Ownable, ReentrancyGuard, Pausable { ... */\n      sub\n      slt\n      tag_217\n      jumpi\n        /* \"contracts/ArbOptV2.sol\":4738:4803  AggregatorV3Interface(0x5f4eC3Df9cbd43714FE2740f5E3616155c5b8419) */\n      mload\n        /* \"contracts/ArbOptV2.sol\":22958:22995  IERC20(USDP).balanceOf(address(this)) */\n      0x00\n      jump(tag_552)\n    tag_598:\n      returndatasize\n      swap2\n      pop\n      jump(tag_599)\n        /* \"contracts/ArbOptV2.sol\":22900:22937  IERC20(LUSD).balanceOf(address(this)) */\n    tag_547:\n      swap1\n      pop\n        /* \"contracts/ArbOptV2.sol\":22612:22649  IERC20(WETH).balanceOf(address(this)) */\n      0x20\n        /* \"contracts/ArbOptV2.sol\":22900:22937  IERC20(LUSD).balanceOf(address(this)) */\n      dup2\n      returndatasize\n        /* \"contracts/ArbOptV2.sol\":22612:22649  IERC20(WETH).balanceOf(address(this)) */\n      0x20\n        /* \"contracts/ArbOptV2.sol\":22900:22937  IERC20(LUSD).balanceOf(address(this)) */\n      gt\n      tag_603\n      jumpi\n    tag_604:\n      dup2\n      tag_605\n        /* \"contracts/ArbOptV2.sol\":22612:22649  IERC20(WETH).balanceOf(address(this)) */\n      0x20\n        /* \"contracts/ArbOptV2.sol\":22900:22937  IERC20(LUSD).balanceOf(address(this)) */\n      swap4\n      dup4\n      tag_7\n      jump\t// in\n    tag_605:\n      dup2\n      add\n        /* \"contracts/ArbOptV2.sol\":1616:23442  contract ArbOptimizer is Ownable, ReentrancyGuard, Pausable { ... */\n      sub\n      slt\n      tag_217\n      jumpi\n        /* \"contracts/ArbOptV2.sol\":4738:4803  AggregatorV3Interface(0x5f4eC3Df9cbd43714FE2740f5E3616155c5b8419) */\n      mload\n        /* \"contracts/ArbOptV2.sol\":22900:22937  IERC20(LUSD).balanceOf(address(this)) */\n      0x00\n      jump(tag_548)\n    tag_603:\n      returndatasize\n      swap2\n      pop\n      jump(tag_604)\n        /* \"contracts/ArbOptV2.sol\":22842:22879  IERC20(FRAX).balanceOf(address(this)) */\n    tag_543:\n      swap1\n      pop\n        /* \"contracts/ArbOptV2.sol\":22612:22649  IERC20(WETH).balanceOf(address(this)) */\n      0x20\n        /* \"contracts/ArbOptV2.sol\":22842:22879  IERC20(FRAX).balanceOf(address(this)) */\n      dup2\n      returndatasize\n        /* \"contracts/ArbOptV2.sol\":22612:22649  IERC20(WETH).balanceOf(address(this)) */\n      0x20\n        /* \"contracts/ArbOptV2.sol\":22842:22879  IERC20(FRAX).balanceOf(address(this)) */\n      gt\n      tag_608\n      jumpi\n    tag_609:\n      dup2\n      tag_610\n        /* \"contracts/ArbOptV2.sol\":22612:22649  IERC20(WETH).balanceOf(address(this)) */\n      0x20\n        /* \"contracts/ArbOptV2.sol\":22842:22879  IERC20(FRAX).balanceOf(address(this)) */\n      swap4\n      dup4\n      tag_7\n      jump\t// in\n    tag_610:\n      dup2\n      add\n        /* \"contracts/ArbOptV2.sol\":1616:23442  contract ArbOptimizer is Ownable, ReentrancyGuard, Pausable { ... */\n      sub\n      slt\n      tag_217\n      jumpi\n        /* \"contracts/ArbOptV2.sol\":4738:4803  AggregatorV3Interface(0x5f4eC3Df9cbd43714FE2740f5E3616155c5b8419) */\n      mload\n        /* \"contracts/ArbOptV2.sol\":22842:22879  IERC20(FRAX).balanceOf(address(this)) */\n      0x00\n      jump(tag_544)\n    tag_608:\n      returndatasize\n      swap2\n      pop\n      jump(tag_609)\n    tag_541:\n        /* \"contracts/ArbOptV2.sol\":1616:23442  contract ArbOptimizer is Ownable, ReentrancyGuard, Pausable { ... */\n      mload(0x40)\n        /* \"contracts/ArbOptV2.sol\":4738:4803  AggregatorV3Interface(0x5f4eC3Df9cbd43714FE2740f5E3616155c5b8419) */\n      returndatasize\n        /* \"contracts/ArbOptV2.sol\":1616:23442  contract ArbOptimizer is Ownable, ReentrancyGuard, Pausable { ... */\n      dup6\n      dup3\n        /* \"contracts/ArbOptV2.sol\":4738:4803  AggregatorV3Interface(0x5f4eC3Df9cbd43714FE2740f5E3616155c5b8419) */\n      returndatacopy\n      returndatasize\n      swap1\n      revert\n        /* \"contracts/ArbOptV2.sol\":22785:22821  IERC20(DAI).balanceOf(address(this)) */\n    tag_539:\n      swap1\n      pop\n        /* \"contracts/ArbOptV2.sol\":22612:22649  IERC20(WETH).balanceOf(address(this)) */\n      0x20\n        /* \"contracts/ArbOptV2.sol\":22785:22821  IERC20(DAI).balanceOf(address(this)) */\n      dup2\n      returndatasize\n        /* \"contracts/ArbOptV2.sol\":22612:22649  IERC20(WETH).balanceOf(address(this)) */\n      0x20\n        /* \"contracts/ArbOptV2.sol\":22785:22821  IERC20(DAI).balanceOf(address(this)) */\n      gt\n      tag_613\n      jumpi\n    tag_614:\n      dup2\n      tag_615\n        /* \"contracts/ArbOptV2.sol\":22612:22649  IERC20(WETH).balanceOf(address(this)) */\n      0x20\n        /* \"contracts/ArbOptV2.sol\":22785:22821  IERC20(DAI).balanceOf(address(this)) */\n      swap4\n      dup4\n      tag_7\n      jump\t// in\n    tag_615:\n      dup2\n      add\n        /* \"contracts/ArbOptV2.sol\":1616:23442  contract ArbOptimizer is Ownable, ReentrancyGuard, Pausable { ... */\n      sub\n      slt\n      tag_217\n      jumpi\n        /* \"contracts/ArbOptV2.sol\":4738:4803  AggregatorV3Interface(0x5f4eC3Df9cbd43714FE2740f5E3616155c5b8419) */\n      mload\n        /* \"contracts/ArbOptV2.sol\":22785:22821  IERC20(DAI).balanceOf(address(this)) */\n      0x00\n      jump(tag_540)\n    tag_613:\n      returndatasize\n      swap2\n      pop\n      jump(tag_614)\n        /* \"contracts/ArbOptV2.sol\":22728:22765  IERC20(USDT).balanceOf(address(this)) */\n    tag_535:\n      swap1\n      swap4\n      pop\n        /* \"contracts/ArbOptV2.sol\":22612:22649  IERC20(WETH).balanceOf(address(this)) */\n      0x20\n        /* \"contracts/ArbOptV2.sol\":22728:22765  IERC20(USDT).balanceOf(address(this)) */\n      dup2\n      returndatasize\n        /* \"contracts/ArbOptV2.sol\":22612:22649  IERC20(WETH).balanceOf(address(this)) */\n      0x20\n        /* \"contracts/ArbOptV2.sol\":22728:22765  IERC20(USDT).balanceOf(address(this)) */\n      gt\n      tag_618\n      jumpi\n    tag_619:\n      dup2\n      tag_620\n        /* \"contracts/ArbOptV2.sol\":22612:22649  IERC20(WETH).balanceOf(address(this)) */\n      0x20\n        /* \"contracts/ArbOptV2.sol\":22728:22765  IERC20(USDT).balanceOf(address(this)) */\n      swap4\n      dup4\n      tag_7\n      jump\t// in\n    tag_620:\n      dup2\n      add\n        /* \"contracts/ArbOptV2.sol\":1616:23442  contract ArbOptimizer is Ownable, ReentrancyGuard, Pausable { ... */\n      sub\n      slt\n      tag_217\n      jumpi\n        /* \"contracts/ArbOptV2.sol\":4738:4803  AggregatorV3Interface(0x5f4eC3Df9cbd43714FE2740f5E3616155c5b8419) */\n      mload\n        /* \"contracts/ArbOptV2.sol\":22728:22765  IERC20(USDT).balanceOf(address(this)) */\n      swap3\n      0x00\n      jump(tag_536)\n    tag_618:\n      returndatasize\n      swap2\n      pop\n      jump(tag_619)\n        /* \"contracts/ArbOptV2.sol\":22670:22707  IERC20(USDC).balanceOf(address(this)) */\n    tag_531:\n      swap1\n      pop\n        /* \"contracts/ArbOptV2.sol\":22612:22649  IERC20(WETH).balanceOf(address(this)) */\n      0x20\n        /* \"contracts/ArbOptV2.sol\":22670:22707  IERC20(USDC).balanceOf(address(this)) */\n      dup2\n      returndatasize\n        /* \"contracts/ArbOptV2.sol\":22612:22649  IERC20(WETH).balanceOf(address(this)) */\n      0x20\n        /* \"contracts/ArbOptV2.sol\":22670:22707  IERC20(USDC).balanceOf(address(this)) */\n      gt\n      tag_623\n      jumpi\n    tag_624:\n      dup2\n      tag_625\n        /* \"contracts/ArbOptV2.sol\":22612:22649  IERC20(WETH).balanceOf(address(this)) */\n      0x20\n        /* \"contracts/ArbOptV2.sol\":22670:22707  IERC20(USDC).balanceOf(address(this)) */\n      swap4\n      dup4\n      tag_7\n      jump\t// in\n    tag_625:\n      dup2\n      add\n        /* \"contracts/ArbOptV2.sol\":1616:23442  contract ArbOptimizer is Ownable, ReentrancyGuard, Pausable { ... */\n      sub\n      slt\n      tag_217\n      jumpi\n        /* \"contracts/ArbOptV2.sol\":4738:4803  AggregatorV3Interface(0x5f4eC3Df9cbd43714FE2740f5E3616155c5b8419) */\n      mload\n        /* \"contracts/ArbOptV2.sol\":22670:22707  IERC20(USDC).balanceOf(address(this)) */\n      0x00\n      jump(tag_532)\n    tag_623:\n      returndatasize\n      swap2\n      pop\n      jump(tag_624)\n        /* \"contracts/ArbOptV2.sol\":22612:22649  IERC20(WETH).balanceOf(address(this)) */\n    tag_527:\n      swap1\n      pop\n      0x20\n      dup2\n      jumpi(tag_628, gt(0x20, returndatasize))\n    tag_629:\n      dup2\n      tag_630\n      0x20\n      swap4\n      dup4\n      tag_7\n      jump\t// in\n    tag_630:\n      dup2\n      add\n        /* \"contracts/ArbOptV2.sol\":1616:23442  contract ArbOptimizer is Ownable, ReentrancyGuard, Pausable { ... */\n      sub\n      slt\n      tag_217\n      jumpi\n        /* \"contracts/ArbOptV2.sol\":4738:4803  AggregatorV3Interface(0x5f4eC3Df9cbd43714FE2740f5E3616155c5b8419) */\n      mload\n        /* \"contracts/ArbOptV2.sol\":22612:22649  IERC20(WETH).balanceOf(address(this)) */\n      0x00\n      jump(tag_528)\n    tag_628:\n      returndatasize\n      swap2\n      pop\n      jump(tag_629)\n        /* \"contracts/ArbOptV2.sol\":1616:23442  contract ArbOptimizer is Ownable, ReentrancyGuard, Pausable { ... */\n    tag_68:\n      pop\n      jumpi(tag_126, callvalue)\n      dup1\n      add(calldatasize, not(0x03))\n      slt\n      tag_126\n      jumpi\n        /* \"@openzeppelin/contracts/security/ReentrancyGuard.sol\":2276:2383  modifier nonReentrant() {... */\n      tag_637\n      tag_19\n      jump\t// in\n    tag_637:\n        /* \"@openzeppelin/contracts/access/Ownable.sol\":1546:1611  modifier onlyOwner() {... */\n      tag_638\n      tag_5\n      jump\t// in\n    tag_638:\n        /* \"contracts/ArbOptV2.sol\":19320:19327  arbExec */\n      0x02\n        /* \"contracts/ArbOptV2.sol\":1616:23442  contract ArbOptimizer is Ownable, ReentrancyGuard, Pausable { ... */\n      dup1\n      sload\n      sub(shl(0xa0, 0x01), 0x01)\n      swap3\n      swap2\n      0x00\n      swap2\n      0x08\n      swap1\n      dup2\n      shr\n      dup6\n      and\n        /* \"contracts/ArbOptV2.sol\":19320:19352  arbExec.emergencyWithdraw(token) */\n      dup1\n      extcodesize\n      iszero\n      tag_313\n      jumpi\n        /* \"contracts/ArbOptV2.sol\":1616:23442  contract ArbOptimizer is Ownable, ReentrancyGuard, Pausable { ... */\n      dup4\n      swap5\n      swap6\n      mload(0x40)\n        /* \"contracts/ArbOptV2.sol\":4738:4803  AggregatorV3Interface(0x5f4eC3Df9cbd43714FE2740f5E3616155c5b8419) */\n      swap4\n      shl(0xe2, 0x1bfc726f)\n        /* \"contracts/ArbOptV2.sol\":19320:19352  arbExec.emergencyWithdraw(token) */\n      swap5\n      dup6\n      dup2\n      mstore\n        /* \"contracts/ArbOptV2.sol\":2354:2396  0xC02aaA39b223FE8D0A0e5C4F27eAD9083C756Cc2 */\n      dup7\n      dup2\n      0xc02aaa39b223fe8d0a0e5c4f27ead9083c756cc2\n        /* \"contracts/ArbOptV2.sol\":19320:19352  arbExec.emergencyWithdraw(token) */\n      swap6\n      dup7\n        /* \"contracts/ArbOptV2.sol\":1616:23442  contract ArbOptimizer is Ownable, ReentrancyGuard, Pausable { ... */\n      0x04\n        /* \"contracts/ArbOptV2.sol\":19320:19352  arbExec.emergencyWithdraw(token) */\n      dup4\n      add\n        /* \"contracts/ArbOptV2.sol\":1616:23442  contract ArbOptimizer is Ownable, ReentrancyGuard, Pausable { ... */\n      mstore\n      dup2\n      0x24\n        /* \"contracts/ArbOptV2.sol\":19320:19352  arbExec.emergencyWithdraw(token) */\n      swap11\n      dup12\n      swap3\n      gas\n      call\n      tag_641\n      jumpi\n        /* \"contracts/ArbOptV2.sol\":1616:23442  contract ArbOptimizer is Ownable, ReentrancyGuard, Pausable { ... */\n    tag_642:\n      pop\n      mload(0x40)\n        /* \"contracts/ArbOptV2.sol\":4738:4803  AggregatorV3Interface(0x5f4eC3Df9cbd43714FE2740f5E3616155c5b8419) */\n      shl(0xe0, 0x70a08231)\n        /* \"contracts/ArbOptV2.sol\":19388:19426  IERC20(token).balanceOf(address(this)) */\n      swap4\n      dup5\n      dup3\n      mstore\n        /* \"contracts/ArbOptV2.sol\":19420:19424  this */\n      address\n        /* \"contracts/ArbOptV2.sol\":1616:23442  contract ArbOptimizer is Ownable, ReentrancyGuard, Pausable { ... */\n      0x04\n        /* \"contracts/ArbOptV2.sol\":19388:19426  IERC20(token).balanceOf(address(this)) */\n      dup4\n      add\n        /* \"contracts/ArbOptV2.sol\":1616:23442  contract ArbOptimizer is Ownable, ReentrancyGuard, Pausable { ... */\n      mstore\n      0x20\n        /* \"contracts/ArbOptV2.sol\":19388:19426  IERC20(token).balanceOf(address(this)) */\n      swap9\n      dup10\n      dup4\n      dup11\n      dup2\n      dup6\n      gas\n      staticcall\n      swap3\n      dup4\n      iszero\n      tag_226\n      jumpi\n      dup2\n      swap4\n      tag_645\n      jumpi\n        /* \"contracts/ArbOptV2.sol\":1616:23442  contract ArbOptimizer is Ownable, ReentrancyGuard, Pausable { ... */\n    tag_646:\n        /* \"contracts/ArbOptV2.sol\":19437:19448  balance > 0 */\n      pop\n      dup3\n        /* \"contracts/ArbOptV2.sol\":19433:19571  if (balance > 0) {... */\n      tag_647\n      jumpi\n        /* \"contracts/ArbOptV2.sol\":1616:23442  contract ArbOptimizer is Ownable, ReentrancyGuard, Pausable { ... */\n    tag_648:\n      pop\n      pop\n      dup2\n      sload\n      dup6\n      shr\n      dup4\n      and\n      swap1\n      pop\n      0x00\n        /* \"contracts/ArbOptV2.sol\":19320:19352  arbExec.emergencyWithdraw(token) */\n      dup2\n      extcodesize\n      iszero\n      tag_126\n      jumpi\n        /* \"contracts/ArbOptV2.sol\":1616:23442  contract ArbOptimizer is Ownable, ReentrancyGuard, Pausable { ... */\n      mload(0x40)\n        /* \"contracts/ArbOptV2.sol\":19320:19352  arbExec.emergencyWithdraw(token) */\n      dup8\n      dup2\n      mstore\n        /* \"contracts/ArbOptV2.sol\":1990:2032  0xA0b86991c6218b36c1d19D4a2e9Eb0cE3606eB48 */\n      dup2\n      dup2\n      dup11\n      dup2\n      dup4\n      0xa0b86991c6218b36c1d19d4a2e9eb0ce3606eb48\n        /* \"contracts/ArbOptV2.sol\":19320:19352  arbExec.emergencyWithdraw(token) */\n      swap8\n      dup9\n        /* \"contracts/ArbOptV2.sol\":1616:23442  contract ArbOptimizer is Ownable, ReentrancyGuard, Pausable { ... */\n      0x04\n        /* \"contracts/ArbOptV2.sol\":19320:19352  arbExec.emergencyWithdraw(token) */\n      dup5\n      add\n        /* \"contracts/ArbOptV2.sol\":1616:23442  contract ArbOptimizer is Ownable, ReentrancyGuard, Pausable { ... */\n      mstore\n        /* \"contracts/ArbOptV2.sol\":19320:19352  arbExec.emergencyWithdraw(token) */\n      gas\n      call\n      tag_651\n      jumpi\n        /* \"contracts/ArbOptV2.sol\":1616:23442  contract ArbOptimizer is Ownable, ReentrancyGuard, Pausable { ... */\n    tag_652:\n      pop\n      swap1\n      mload(0x40)\n        /* \"contracts/ArbOptV2.sol\":19388:19426  IERC20(token).balanceOf(address(this)) */\n      swap2\n      dup6\n      dup4\n      mstore\n        /* \"contracts/ArbOptV2.sol\":19420:19424  this */\n      address\n        /* \"contracts/ArbOptV2.sol\":1616:23442  contract ArbOptimizer is Ownable, ReentrancyGuard, Pausable { ... */\n      0x04\n        /* \"contracts/ArbOptV2.sol\":19388:19426  IERC20(token).balanceOf(address(this)) */\n      dup5\n      add\n        /* \"contracts/ArbOptV2.sol\":1616:23442  contract ArbOptimizer is Ownable, ReentrancyGuard, Pausable { ... */\n      mstore\n        /* \"contracts/ArbOptV2.sol\":19388:19426  IERC20(token).balanceOf(address(this)) */\n      dup10\n      dup4\n      dup11\n      dup2\n      dup6\n      gas\n      staticcall\n      swap3\n      dup4\n      iszero\n      tag_226\n      jumpi\n      dup2\n      swap4\n      tag_655\n      jumpi\n        /* \"contracts/ArbOptV2.sol\":1616:23442  contract ArbOptimizer is Ownable, ReentrancyGuard, Pausable { ... */\n    tag_656:\n        /* \"contracts/ArbOptV2.sol\":19437:19448  balance > 0 */\n      pop\n      dup3\n        /* \"contracts/ArbOptV2.sol\":19433:19571  if (balance > 0) {... */\n      tag_657\n      jumpi\n        /* \"contracts/ArbOptV2.sol\":1616:23442  contract ArbOptimizer is Ownable, ReentrancyGuard, Pausable { ... */\n    tag_658:\n      pop\n      pop\n      dup2\n      sload\n      dup6\n      shr\n      dup4\n      and\n      swap1\n      pop\n      0x00\n        /* \"contracts/ArbOptV2.sol\":19320:19352  arbExec.emergencyWithdraw(token) */\n      dup2\n      extcodesize\n      iszero\n      tag_126\n      jumpi\n        /* \"contracts/ArbOptV2.sol\":1616:23442  contract ArbOptimizer is Ownable, ReentrancyGuard, Pausable { ... */\n      mload(0x40)\n        /* \"contracts/ArbOptV2.sol\":19320:19352  arbExec.emergencyWithdraw(token) */\n      dup8\n      dup2\n      mstore\n        /* \"contracts/ArbOptV2.sol\":2525:2567  0xdAC17F958D2ee523a2206206994597C13D831ec7 */\n      dup2\n      dup2\n      dup11\n      dup2\n      dup4\n      0xdac17f958d2ee523a2206206994597c13d831ec7\n        /* \"contracts/ArbOptV2.sol\":19320:19352  arbExec.emergencyWithdraw(token) */\n      swap8\n      dup9\n        /* \"contracts/ArbOptV2.sol\":1616:23442  contract ArbOptimizer is Ownable, ReentrancyGuard, Pausable { ... */\n      0x04\n        /* \"contracts/ArbOptV2.sol\":19320:19352  arbExec.emergencyWithdraw(token) */\n      dup5\n      add\n        /* \"contracts/ArbOptV2.sol\":1616:23442  contract ArbOptimizer is Ownable, ReentrancyGuard, Pausable { ... */\n      mstore\n        /* \"contracts/ArbOptV2.sol\":19320:19352  arbExec.emergencyWithdraw(token) */\n      gas\n      call\n      tag_661\n      jumpi\n        /* \"contracts/ArbOptV2.sol\":1616:23442  contract ArbOptimizer is Ownable, ReentrancyGuard, Pausable { ... */\n    tag_662:\n      pop\n      swap1\n      mload(0x40)\n        /* \"contracts/ArbOptV2.sol\":19388:19426  IERC20(token).balanceOf(address(this)) */\n      swap2\n      dup6\n      dup4\n      mstore\n        /* \"contracts/ArbOptV2.sol\":19420:19424  this */\n      address\n        /* \"contracts/ArbOptV2.sol\":1616:23442  contract ArbOptimizer is Ownable, ReentrancyGuard, Pausable { ... */\n      0x04\n        /* \"contracts/ArbOptV2.sol\":19388:19426  IERC20(token).balanceOf(address(this)) */\n      dup5\n      add\n        /* \"contracts/ArbOptV2.sol\":1616:23442  contract ArbOptimizer is Ownable, ReentrancyGuard, Pausable { ... */\n      mstore\n        /* \"contracts/ArbOptV2.sol\":19388:19426  IERC20(token).balanceOf(address(this)) */\n      dup10\n      dup4\n      dup11\n      dup2\n      dup6\n      gas\n      staticcall\n      swap3\n      dup4\n      iszero\n      tag_226\n      jumpi\n      dup2\n      swap4\n      tag_665\n      jumpi\n        /* \"contracts/ArbOptV2.sol\":1616:23442  contract ArbOptimizer is Ownable, ReentrancyGuard, Pausable { ... */\n    tag_666:\n        /* \"contracts/ArbOptV2.sol\":19437:19448  balance > 0 */\n      pop\n      dup3\n        /* \"contracts/ArbOptV2.sol\":19433:19571  if (balance > 0) {... */\n      tag_667\n      jumpi\n        /* \"contracts/ArbOptV2.sol\":1616:23442  contract ArbOptimizer is Ownable, ReentrancyGuard, Pausable { ... */\n    tag_668:\n      pop\n      pop\n      dup2\n      sload\n      dup6\n      shr\n      dup4\n      and\n      swap1\n      pop\n      0x00\n        /* \"contracts/ArbOptV2.sol\":19320:19352  arbExec.emergencyWithdraw(token) */\n      dup2\n      extcodesize\n      iszero\n      tag_126\n      jumpi\n        /* \"contracts/ArbOptV2.sol\":1616:23442  contract ArbOptimizer is Ownable, ReentrancyGuard, Pausable { ... */\n      mload(0x40)\n        /* \"contracts/ArbOptV2.sol\":19320:19352  arbExec.emergencyWithdraw(token) */\n      dup8\n      dup2\n      mstore\n        /* \"contracts/ArbOptV2.sol\":2601:2643  0x6B175474E89094C44Da98b954EedeAC495271d0F */\n      dup2\n      dup2\n      dup11\n      dup2\n      dup4\n      0x6b175474e89094c44da98b954eedeac495271d0f\n        /* \"contracts/ArbOptV2.sol\":19320:19352  arbExec.emergencyWithdraw(token) */\n      swap8\n      dup9\n        /* \"contracts/ArbOptV2.sol\":1616:23442  contract ArbOptimizer is Ownable, ReentrancyGuard, Pausable { ... */\n      0x04\n        /* \"contracts/ArbOptV2.sol\":19320:19352  arbExec.emergencyWithdraw(token) */\n      dup5\n      add\n        /* \"contracts/ArbOptV2.sol\":1616:23442  contract ArbOptimizer is Ownable, ReentrancyGuard, Pausable { ... */\n      mstore\n        /* \"contracts/ArbOptV2.sol\":19320:19352  arbExec.emergencyWithdraw(token) */\n      gas\n      call\n      tag_671\n      jumpi\n        /* \"contracts/ArbOptV2.sol\":1616:23442  contract ArbOptimizer is Ownable, ReentrancyGuard, Pausable { ... */\n    tag_672:\n      pop\n      swap1\n      mload(0x40)\n        /* \"contracts/ArbOptV2.sol\":19388:19426  IERC20(token).balanceOf(address(this)) */\n      swap2\n      dup6\n      dup4\n      mstore\n        /* \"contracts/ArbOptV2.sol\":19420:19424  this */\n      address\n        /* \"contracts/ArbOptV2.sol\":1616:23442  contract ArbOptimizer is Ownable, ReentrancyGuard, Pausable { ... */\n      0x04\n        /* \"contracts/ArbOptV2.sol\":19388:19426  IERC20(token).balanceOf(address(this)) */\n      dup5\n      add\n        /* \"contracts/ArbOptV2.sol\":1616:23442  contract ArbOptimizer is Ownable, ReentrancyGuard, Pausable { ... */\n      mstore\n        /* \"contracts/ArbOptV2.sol\":19388:19426  IERC20(token).balanceOf(address(this)) */\n      dup10\n      dup4\n      dup11\n      dup2\n      dup6\n      gas\n      staticcall\n      swap3\n      dup4\n      iszero\n      tag_226\n      jumpi\n      dup2\n      swap4\n      tag_675\n      jumpi\n        /* \"contracts/ArbOptV2.sol\":1616:23442  contract ArbOptimizer is Ownable, ReentrancyGuard, Pausable { ... */\n    tag_676:\n        /* \"contracts/ArbOptV2.sol\":19437:19448  balance > 0 */\n      pop\n      dup3\n        /* \"contracts/ArbOptV2.sol\":19433:19571  if (balance > 0) {... */\n      tag_677\n      jumpi\n        /* \"contracts/ArbOptV2.sol\":1616:23442  contract ArbOptimizer is Ownable, ReentrancyGuard, Pausable { ... */\n    tag_678:\n      pop\n      pop\n      dup2\n      sload\n      dup6\n      shr\n      dup4\n      and\n      swap1\n      pop\n      0x00\n        /* \"contracts/ArbOptV2.sol\":19320:19352  arbExec.emergencyWithdraw(token) */\n      dup2\n      extcodesize\n      iszero\n      tag_126\n      jumpi\n        /* \"contracts/ArbOptV2.sol\":1616:23442  contract ArbOptimizer is Ownable, ReentrancyGuard, Pausable { ... */\n      mload(0x40)\n        /* \"contracts/ArbOptV2.sol\":19320:19352  arbExec.emergencyWithdraw(token) */\n      dup8\n      dup2\n      mstore\n        /* \"contracts/ArbOptV2.sol\":2678:2720  0x3432B6A60D23Ca0dFCa7761B7ab56459D9C964D0 */\n      dup2\n      dup2\n      dup11\n      dup2\n      dup4\n      0x3432b6a60d23ca0dfca7761b7ab56459d9c964d0\n        /* \"contracts/ArbOptV2.sol\":19320:19352  arbExec.emergencyWithdraw(token) */\n      swap8\n      dup9\n        /* \"contracts/ArbOptV2.sol\":1616:23442  contract ArbOptimizer is Ownable, ReentrancyGuard, Pausable { ... */\n      0x04\n        /* \"contracts/ArbOptV2.sol\":19320:19352  arbExec.emergencyWithdraw(token) */\n      dup5\n      add\n        /* \"contracts/ArbOptV2.sol\":1616:23442  contract ArbOptimizer is Ownable, ReentrancyGuard, Pausable { ... */\n      mstore\n        /* \"contracts/ArbOptV2.sol\":19320:19352  arbExec.emergencyWithdraw(token) */\n      gas\n      call\n      tag_681\n      jumpi\n        /* \"contracts/ArbOptV2.sol\":1616:23442  contract ArbOptimizer is Ownable, ReentrancyGuard, Pausable { ... */\n    tag_682:\n      pop\n      swap1\n      mload(0x40)\n        /* \"contracts/ArbOptV2.sol\":19388:19426  IERC20(token).balanceOf(address(this)) */\n      swap2\n      dup6\n      dup4\n      mstore\n        /* \"contracts/ArbOptV2.sol\":19420:19424  this */\n      address\n        /* \"contracts/ArbOptV2.sol\":1616:23442  contract ArbOptimizer is Ownable, ReentrancyGuard, Pausable { ... */\n      0x04\n        /* \"contracts/ArbOptV2.sol\":19388:19426  IERC20(token).balanceOf(address(this)) */\n      dup5\n      add\n        /* \"contracts/ArbOptV2.sol\":1616:23442  contract ArbOptimizer is Ownable, ReentrancyGuard, Pausable { ... */\n      mstore\n        /* \"contracts/ArbOptV2.sol\":19388:19426  IERC20(token).balanceOf(address(this)) */\n      dup10\n      dup4\n      dup11\n      dup2\n      dup6\n      gas\n      staticcall\n      swap3\n      dup4\n      iszero\n      tag_226\n      jumpi\n      dup2\n      swap4\n      tag_685\n      jumpi\n        /* \"contracts/ArbOptV2.sol\":1616:23442  contract ArbOptimizer is Ownable, ReentrancyGuard, Pausable { ... */\n    tag_686:\n        /* \"contracts/ArbOptV2.sol\":19437:19448  balance > 0 */\n      pop\n      dup3\n        /* \"contracts/ArbOptV2.sol\":19433:19571  if (balance > 0) {... */\n      tag_687\n      jumpi\n        /* \"contracts/ArbOptV2.sol\":1616:23442  contract ArbOptimizer is Ownable, ReentrancyGuard, Pausable { ... */\n    tag_688:\n      pop\n      pop\n      dup2\n      sload\n      dup6\n      shr\n      dup4\n      and\n      swap1\n      pop\n      0x00\n        /* \"contracts/ArbOptV2.sol\":19320:19352  arbExec.emergencyWithdraw(token) */\n      dup2\n      extcodesize\n      iszero\n      tag_126\n      jumpi\n        /* \"contracts/ArbOptV2.sol\":1616:23442  contract ArbOptimizer is Ownable, ReentrancyGuard, Pausable { ... */\n      mload(0x40)\n        /* \"contracts/ArbOptV2.sol\":19320:19352  arbExec.emergencyWithdraw(token) */\n      dup8\n      dup2\n      mstore\n        /* \"contracts/ArbOptV2.sol\":2755:2797  0x5f98805A4E8F28fB3FBE254CCf7e6f82e4467683 */\n      dup2\n      dup2\n      dup11\n      dup2\n      dup4\n      0x5f98805a4e8f28fb3fbe254ccf7e6f82e4467683\n        /* \"contracts/ArbOptV2.sol\":19320:19352  arbExec.emergencyWithdraw(token) */\n      swap8\n      dup9\n        /* \"contracts/ArbOptV2.sol\":1616:23442  contract ArbOptimizer is Ownable, ReentrancyGuard, Pausable { ... */\n      0x04\n        /* \"contracts/ArbOptV2.sol\":19320:19352  arbExec.emergencyWithdraw(token) */\n      dup5\n      add\n        /* \"contracts/ArbOptV2.sol\":1616:23442  contract ArbOptimizer is Ownable, ReentrancyGuard, Pausable { ... */\n      mstore\n        /* \"contracts/ArbOptV2.sol\":19320:19352  arbExec.emergencyWithdraw(token) */\n      gas\n      call\n      tag_691\n      jumpi\n        /* \"contracts/ArbOptV2.sol\":1616:23442  contract ArbOptimizer is Ownable, ReentrancyGuard, Pausable { ... */\n    tag_692:\n      pop\n      swap1\n      mload(0x40)\n        /* \"contracts/ArbOptV2.sol\":19388:19426  IERC20(token).balanceOf(address(this)) */\n      swap2\n      dup6\n      dup4\n      mstore\n        /* \"contracts/ArbOptV2.sol\":19420:19424  this */\n      address\n        /* \"contracts/ArbOptV2.sol\":1616:23442  contract ArbOptimizer is Ownable, ReentrancyGuard, Pausable { ... */\n      0x04\n        /* \"contracts/ArbOptV2.sol\":19388:19426  IERC20(token).balanceOf(address(this)) */\n      dup5\n      add\n        /* \"contracts/ArbOptV2.sol\":1616:23442  contract ArbOptimizer is Ownable, ReentrancyGuard, Pausable { ... */\n      mstore\n        /* \"contracts/ArbOptV2.sol\":19388:19426  IERC20(token).balanceOf(address(this)) */\n      dup10\n      dup4\n      dup11\n      dup2\n      dup6\n      gas\n      staticcall\n      swap3\n      dup4\n      iszero\n      tag_226\n      jumpi\n      dup2\n      swap4\n      tag_695\n      jumpi\n        /* \"contracts/ArbOptV2.sol\":1616:23442  contract ArbOptimizer is Ownable, ReentrancyGuard, Pausable { ... */\n    tag_696:\n        /* \"contracts/ArbOptV2.sol\":19437:19448  balance > 0 */\n      pop\n      dup3\n        /* \"contracts/ArbOptV2.sol\":19433:19571  if (balance > 0) {... */\n      tag_697\n      jumpi\n        /* \"contracts/ArbOptV2.sol\":1616:23442  contract ArbOptimizer is Ownable, ReentrancyGuard, Pausable { ... */\n    tag_698:\n      pop\n      pop\n      dup2\n      sload\n      dup6\n      shr\n      dup4\n      and\n      swap1\n      pop\n      0x00\n        /* \"contracts/ArbOptV2.sol\":19320:19352  arbExec.emergencyWithdraw(token) */\n      dup2\n      extcodesize\n      iszero\n      tag_126\n      jumpi\n        /* \"contracts/ArbOptV2.sol\":1616:23442  contract ArbOptimizer is Ownable, ReentrancyGuard, Pausable { ... */\n      mload(0x40)\n        /* \"contracts/ArbOptV2.sol\":19320:19352  arbExec.emergencyWithdraw(token) */\n      dup8\n      dup2\n      mstore\n        /* \"contracts/ArbOptV2.sol\":2832:2874  0x8E870D67f660D95d5Be2D7738B5b1294a692a0b9 */\n      dup2\n      dup2\n      dup11\n      dup2\n      dup4\n      0x8e870d67f660d95d5be2d7738b5b1294a692a0b9\n        /* \"contracts/ArbOptV2.sol\":19320:19352  arbExec.emergencyWithdraw(token) */\n      swap8\n      dup9\n        /* \"contracts/ArbOptV2.sol\":1616:23442  contract ArbOptimizer is Ownable, ReentrancyGuard, Pausable { ... */\n      0x04\n        /* \"contracts/ArbOptV2.sol\":19320:19352  arbExec.emergencyWithdraw(token) */\n      dup5\n      add\n        /* \"contracts/ArbOptV2.sol\":1616:23442  contract ArbOptimizer is Ownable, ReentrancyGuard, Pausable { ... */\n      mstore\n        /* \"contracts/ArbOptV2.sol\":19320:19352  arbExec.emergencyWithdraw(token) */\n      gas\n      call\n      tag_701\n      jumpi\n        /* \"contracts/ArbOptV2.sol\":1616:23442  contract ArbOptimizer is Ownable, ReentrancyGuard, Pausable { ... */\n    tag_702:\n      pop\n      swap1\n      mload(0x40)\n        /* \"contracts/ArbOptV2.sol\":19388:19426  IERC20(token).balanceOf(address(this)) */\n      swap2\n      dup6\n      dup4\n      mstore\n        /* \"contracts/ArbOptV2.sol\":19420:19424  this */\n      address\n        /* \"contracts/ArbOptV2.sol\":1616:23442  contract ArbOptimizer is Ownable, ReentrancyGuard, Pausable { ... */\n      0x04\n        /* \"contracts/ArbOptV2.sol\":19388:19426  IERC20(token).balanceOf(address(this)) */\n      dup5\n      add\n        /* \"contracts/ArbOptV2.sol\":1616:23442  contract ArbOptimizer is Ownable, ReentrancyGuard, Pausable { ... */\n      mstore\n        /* \"contracts/ArbOptV2.sol\":19388:19426  IERC20(token).balanceOf(address(this)) */\n      dup10\n      dup4\n      dup11\n      dup2\n      dup6\n      gas\n      staticcall\n      swap3\n      dup4\n      iszero\n      tag_226\n      jumpi\n      dup2\n      swap4\n      tag_705\n      jumpi\n        /* \"contracts/ArbOptV2.sol\":1616:23442  contract ArbOptimizer is Ownable, ReentrancyGuard, Pausable { ... */\n    tag_706:\n        /* \"contracts/ArbOptV2.sol\":19437:19448  balance > 0 */\n      pop\n      dup3\n        /* \"contracts/ArbOptV2.sol\":19433:19571  if (balance > 0) {... */\n      tag_707\n      jumpi\n        /* \"contracts/ArbOptV2.sol\":1616:23442  contract ArbOptimizer is Ownable, ReentrancyGuard, Pausable { ... */\n    tag_708:\n      pop\n      pop\n      dup2\n      sload\n      dup6\n      shr\n      dup4\n      and\n      swap1\n      pop\n      0x00\n        /* \"contracts/ArbOptV2.sol\":19320:19352  arbExec.emergencyWithdraw(token) */\n      dup2\n      extcodesize\n      iszero\n      tag_126\n      jumpi\n        /* \"contracts/ArbOptV2.sol\":1616:23442  contract ArbOptimizer is Ownable, ReentrancyGuard, Pausable { ... */\n      mload(0x40)\n        /* \"contracts/ArbOptV2.sol\":19320:19352  arbExec.emergencyWithdraw(token) */\n      dup8\n      dup2\n      mstore\n        /* \"contracts/ArbOptV2.sol\":2909:2951  0x0000000000085d4780B73119b644AE5ecd22b376 */\n      dup2\n      dup2\n      dup11\n      dup2\n      dup4\n      0x085d4780b73119b644ae5ecd22b376\n        /* \"contracts/ArbOptV2.sol\":19320:19352  arbExec.emergencyWithdraw(token) */\n      swap8\n      dup9\n        /* \"contracts/ArbOptV2.sol\":1616:23442  contract ArbOptimizer is Ownable, ReentrancyGuard, Pausable { ... */\n      0x04\n        /* \"contracts/ArbOptV2.sol\":19320:19352  arbExec.emergencyWithdraw(token) */\n      dup5\n      add\n        /* \"contracts/ArbOptV2.sol\":1616:23442  contract ArbOptimizer is Ownable, ReentrancyGuard, Pausable { ... */\n      mstore\n        /* \"contracts/ArbOptV2.sol\":19320:19352  arbExec.emergencyWithdraw(token) */\n      gas\n      call\n      tag_711\n      jumpi\n        /* \"contracts/ArbOptV2.sol\":1616:23442  contract ArbOptimizer is Ownable, ReentrancyGuard, Pausable { ... */\n    tag_712:\n      pop\n      swap1\n      mload(0x40)\n        /* \"contracts/ArbOptV2.sol\":19388:19426  IERC20(token).balanceOf(address(this)) */\n      swap2\n      dup6\n      dup4\n      mstore\n        /* \"contracts/ArbOptV2.sol\":19420:19424  this */\n      address\n        /* \"contracts/ArbOptV2.sol\":1616:23442  contract ArbOptimizer is Ownable, ReentrancyGuard, Pausable { ... */\n      0x04\n        /* \"contracts/ArbOptV2.sol\":19388:19426  IERC20(token).balanceOf(address(this)) */\n      dup5\n      add\n        /* \"contracts/ArbOptV2.sol\":1616:23442  contract ArbOptimizer is Ownable, ReentrancyGuard, Pausable { ... */\n      mstore\n        /* \"contracts/ArbOptV2.sol\":19388:19426  IERC20(token).balanceOf(address(this)) */\n      dup10\n      dup4\n      dup11\n      dup2\n      dup6\n      gas\n      staticcall\n      swap3\n      dup4\n      iszero\n      tag_226\n      jumpi\n      dup2\n      swap4\n      tag_715\n      jumpi\n        /* \"contracts/ArbOptV2.sol\":1616:23442  contract ArbOptimizer is Ownable, ReentrancyGuard, Pausable { ... */\n    tag_716:\n        /* \"contracts/ArbOptV2.sol\":19437:19448  balance > 0 */\n      pop\n      dup3\n        /* \"contracts/ArbOptV2.sol\":19433:19571  if (balance > 0) {... */\n      tag_717\n      jumpi\n        /* \"contracts/ArbOptV2.sol\":1616:23442  contract ArbOptimizer is Ownable, ReentrancyGuard, Pausable { ... */\n    tag_718:\n      pop\n      pop\n      dup2\n      sload\n      dup6\n      shr\n      dup4\n      and\n      swap1\n      pop\n      0x00\n        /* \"contracts/ArbOptV2.sol\":19320:19352  arbExec.emergencyWithdraw(token) */\n      dup2\n      extcodesize\n      iszero\n      tag_126\n      jumpi\n        /* \"contracts/ArbOptV2.sol\":1616:23442  contract ArbOptimizer is Ownable, ReentrancyGuard, Pausable { ... */\n      mload(0x40)\n        /* \"contracts/ArbOptV2.sol\":19320:19352  arbExec.emergencyWithdraw(token) */\n      dup8\n      dup2\n      mstore\n        /* \"contracts/ArbOptV2.sol\":2986:3028  0x056Fd409E1d7A124BD7017459dFEa2F387b6d5Cd */\n      dup2\n      dup2\n      dup11\n      dup2\n      dup4\n      0x056fd409e1d7a124bd7017459dfea2f387b6d5cd\n        /* \"contracts/ArbOptV2.sol\":19320:19352  arbExec.emergencyWithdraw(token) */\n      swap8\n      dup9\n        /* \"contracts/ArbOptV2.sol\":1616:23442  contract ArbOptimizer is Ownable, ReentrancyGuard, Pausable { ... */\n      0x04\n        /* \"contracts/ArbOptV2.sol\":19320:19352  arbExec.emergencyWithdraw(token) */\n      dup5\n      add\n        /* \"contracts/ArbOptV2.sol\":1616:23442  contract ArbOptimizer is Ownable, ReentrancyGuard, Pausable { ... */\n      mstore\n        /* \"contracts/ArbOptV2.sol\":19320:19352  arbExec.emergencyWithdraw(token) */\n      gas\n      call\n      tag_721\n      jumpi\n        /* \"contracts/ArbOptV2.sol\":1616:23442  contract ArbOptimizer is Ownable, ReentrancyGuard, Pausable { ... */\n    tag_722:\n      pop\n      swap1\n      mload(0x40)\n        /* \"contracts/ArbOptV2.sol\":19388:19426  IERC20(token).balanceOf(address(this)) */\n      swap2\n      dup6\n      dup4\n      mstore\n        /* \"contracts/ArbOptV2.sol\":19420:19424  this */\n      address\n        /* \"contracts/ArbOptV2.sol\":1616:23442  contract ArbOptimizer is Ownable, ReentrancyGuard, Pausable { ... */\n      0x04\n        /* \"contracts/ArbOptV2.sol\":19388:19426  IERC20(token).balanceOf(address(this)) */\n      dup5\n      add\n        /* \"contracts/ArbOptV2.sol\":1616:23442  contract ArbOptimizer is Ownable, ReentrancyGuard, Pausable { ... */\n      mstore\n        /* \"contracts/ArbOptV2.sol\":19388:19426  IERC20(token).balanceOf(address(this)) */\n      dup10\n      dup4\n      dup11\n      dup2\n      dup6\n      gas\n      staticcall\n      swap3\n      dup4\n      iszero\n      tag_226\n      jumpi\n      dup2\n      swap4\n      tag_725\n      jumpi\n        /* \"contracts/ArbOptV2.sol\":1616:23442  contract ArbOptimizer is Ownable, ReentrancyGuard, Pausable { ... */\n    tag_726:\n        /* \"contracts/ArbOptV2.sol\":19437:19448  balance > 0 */\n      pop\n      dup3\n        /* \"contracts/ArbOptV2.sol\":19433:19571  if (balance > 0) {... */\n      tag_727\n      jumpi\n        /* \"contracts/ArbOptV2.sol\":1616:23442  contract ArbOptimizer is Ownable, ReentrancyGuard, Pausable { ... */\n    tag_728:\n      pop\n      pop\n      dup2\n      sload\n      dup6\n      shr\n      dup4\n      and\n      swap1\n      pop\n      0x00\n        /* \"contracts/ArbOptV2.sol\":19320:19352  arbExec.emergencyWithdraw(token) */\n      dup2\n      extcodesize\n      iszero\n      tag_126\n      jumpi\n        /* \"contracts/ArbOptV2.sol\":1616:23442  contract ArbOptimizer is Ownable, ReentrancyGuard, Pausable { ... */\n      mload(0x40)\n        /* \"contracts/ArbOptV2.sol\":19320:19352  arbExec.emergencyWithdraw(token) */\n      dup8\n      dup2\n      mstore\n        /* \"contracts/ArbOptV2.sol\":3063:3105  0x4Fabb145d64652a948d72533023f6E7A623C7C53 */\n      dup2\n      dup2\n      dup11\n      dup2\n      dup4\n      0x4fabb145d64652a948d72533023f6e7a623c7c53\n        /* \"contracts/ArbOptV2.sol\":19320:19352  arbExec.emergencyWithdraw(token) */\n      swap8\n      dup9\n        /* \"contracts/ArbOptV2.sol\":1616:23442  contract ArbOptimizer is Ownable, ReentrancyGuard, Pausable { ... */\n      0x04\n        /* \"contracts/ArbOptV2.sol\":19320:19352  arbExec.emergencyWithdraw(token) */\n      dup5\n      add\n        /* \"contracts/ArbOptV2.sol\":1616:23442  contract ArbOptimizer is Ownable, ReentrancyGuard, Pausable { ... */\n      mstore\n        /* \"contracts/ArbOptV2.sol\":19320:19352  arbExec.emergencyWithdraw(token) */\n      gas\n      call\n      tag_731\n      jumpi\n        /* \"contracts/ArbOptV2.sol\":1616:23442  contract ArbOptimizer is Ownable, ReentrancyGuard, Pausable { ... */\n    tag_732:\n      pop\n      swap1\n      mload(0x40)\n        /* \"contracts/ArbOptV2.sol\":19388:19426  IERC20(token).balanceOf(address(this)) */\n      swap2\n      dup6\n      dup4\n      mstore\n        /* \"contracts/ArbOptV2.sol\":19420:19424  this */\n      address\n        /* \"contracts/ArbOptV2.sol\":1616:23442  contract ArbOptimizer is Ownable, ReentrancyGuard, Pausable { ... */\n      0x04\n        /* \"contracts/ArbOptV2.sol\":19388:19426  IERC20(token).balanceOf(address(this)) */\n      dup5\n      add\n        /* \"contracts/ArbOptV2.sol\":1616:23442  contract ArbOptimizer is Ownable, ReentrancyGuard, Pausable { ... */\n      mstore\n        /* \"contracts/ArbOptV2.sol\":19388:19426  IERC20(token).balanceOf(address(this)) */\n      dup10\n      dup4\n      dup11\n      dup2\n      dup6\n      gas\n      staticcall\n      swap3\n      dup4\n      iszero\n      tag_226\n      jumpi\n      dup2\n      swap4\n      tag_735\n      jumpi\n        /* \"contracts/ArbOptV2.sol\":1616:23442  contract ArbOptimizer is Ownable, ReentrancyGuard, Pausable { ... */\n    tag_736:\n        /* \"contracts/ArbOptV2.sol\":19437:19448  balance > 0 */\n      pop\n      dup3\n        /* \"contracts/ArbOptV2.sol\":19433:19571  if (balance > 0) {... */\n      tag_737\n      jumpi\n        /* \"contracts/ArbOptV2.sol\":1616:23442  contract ArbOptimizer is Ownable, ReentrancyGuard, Pausable { ... */\n    tag_738:\n      pop\n      pop\n      dup2\n      sload\n      dup6\n      shr\n      dup4\n      and\n      swap1\n      pop\n      0x00\n        /* \"contracts/ArbOptV2.sol\":19320:19352  arbExec.emergencyWithdraw(token) */\n      dup2\n      extcodesize\n      iszero\n      tag_126\n      jumpi\n        /* \"contracts/ArbOptV2.sol\":1616:23442  contract ArbOptimizer is Ownable, ReentrancyGuard, Pausable { ... */\n      mload(0x40)\n        /* \"contracts/ArbOptV2.sol\":19320:19352  arbExec.emergencyWithdraw(token) */\n      dup8\n      dup2\n      mstore\n        /* \"contracts/ArbOptV2.sol\":3142:3184  0xa7d1D0dA000261f05d8d4532FD34439D3325AD8B */\n      dup2\n      dup2\n      dup11\n      dup2\n      dup4\n      0xa7d1d0da000261f05d8d4532fd34439d3325ad8b\n        /* \"contracts/ArbOptV2.sol\":19320:19352  arbExec.emergencyWithdraw(token) */\n      swap8\n      dup9\n        /* \"contracts/ArbOptV2.sol\":1616:23442  contract ArbOptimizer is Ownable, ReentrancyGuard, Pausable { ... */\n      0x04\n        /* \"contracts/ArbOptV2.sol\":19320:19352  arbExec.emergencyWithdraw(token) */\n      dup5\n      add\n        /* \"contracts/ArbOptV2.sol\":1616:23442  contract ArbOptimizer is Ownable, ReentrancyGuard, Pausable { ... */\n      mstore\n        /* \"contracts/ArbOptV2.sol\":19320:19352  arbExec.emergencyWithdraw(token) */\n      gas\n      call\n      tag_741\n      jumpi\n        /* \"contracts/ArbOptV2.sol\":1616:23442  contract ArbOptimizer is Ownable, ReentrancyGuard, Pausable { ... */\n    tag_742:\n      pop\n      swap1\n      mload(0x40)\n        /* \"contracts/ArbOptV2.sol\":19388:19426  IERC20(token).balanceOf(address(this)) */\n      swap2\n      dup6\n      dup4\n      mstore\n        /* \"contracts/ArbOptV2.sol\":19420:19424  this */\n      address\n        /* \"contracts/ArbOptV2.sol\":1616:23442  contract ArbOptimizer is Ownable, ReentrancyGuard, Pausable { ... */\n      0x04\n        /* \"contracts/ArbOptV2.sol\":19388:19426  IERC20(token).balanceOf(address(this)) */\n      dup5\n      add\n        /* \"contracts/ArbOptV2.sol\":1616:23442  contract ArbOptimizer is Ownable, ReentrancyGuard, Pausable { ... */\n      mstore\n        /* \"contracts/ArbOptV2.sol\":19388:19426  IERC20(token).balanceOf(address(this)) */\n      dup10\n      dup4\n      dup11\n      dup2\n      dup6\n      gas\n      staticcall\n      swap3\n      dup4\n      iszero\n      tag_226\n      jumpi\n      dup2\n      swap4\n      tag_745\n      jumpi\n        /* \"contracts/ArbOptV2.sol\":1616:23442  contract ArbOptimizer is Ownable, ReentrancyGuard, Pausable { ... */\n    tag_746:\n        /* \"contracts/ArbOptV2.sol\":19437:19448  balance > 0 */\n      pop\n      dup3\n        /* \"contracts/ArbOptV2.sol\":19433:19571  if (balance > 0) {... */\n      tag_747\n      jumpi\n        /* \"contracts/ArbOptV2.sol\":1616:23442  contract ArbOptimizer is Ownable, ReentrancyGuard, Pausable { ... */\n    tag_748:\n      pop\n      pop\n      pop\n      sload\n      0x00\n      swap4\n      shr\n      and\n        /* \"contracts/ArbOptV2.sol\":19320:19352  arbExec.emergencyWithdraw(token) */\n      swap3\n      dup4\n      extcodesize\n      iszero\n      tag_146\n      jumpi\n        /* \"contracts/ArbOptV2.sol\":1616:23442  contract ArbOptimizer is Ownable, ReentrancyGuard, Pausable { ... */\n      swap1\n      dup6\n      swap2\n      mload(0x40)\n        /* \"contracts/ArbOptV2.sol\":19320:19352  arbExec.emergencyWithdraw(token) */\n      swap1\n      dup2\n      mstore\n        /* \"contracts/ArbOptV2.sol\":3219:3261  0xdB25f211AB05b1c97D595516F45794528a807ad8 */\n      dup4\n      dup2\n      dup8\n      dup2\n      dup4\n      0xdb25f211ab05b1c97d595516f45794528a807ad8\n        /* \"contracts/ArbOptV2.sol\":19320:19352  arbExec.emergencyWithdraw(token) */\n      swap10\n      dup11\n        /* \"contracts/ArbOptV2.sol\":1616:23442  contract ArbOptimizer is Ownable, ReentrancyGuard, Pausable { ... */\n      0x04\n        /* \"contracts/ArbOptV2.sol\":19320:19352  arbExec.emergencyWithdraw(token) */\n      dup5\n      add\n        /* \"contracts/ArbOptV2.sol\":1616:23442  contract ArbOptimizer is Ownable, ReentrancyGuard, Pausable { ... */\n      mstore\n        /* \"contracts/ArbOptV2.sol\":19320:19352  arbExec.emergencyWithdraw(token) */\n      gas\n      call\n      tag_751\n      jumpi\n        /* \"contracts/ArbOptV2.sol\":1616:23442  contract ArbOptimizer is Ownable, ReentrancyGuard, Pausable { ... */\n    tag_752:\n      pop\n      mload(0x40)\n        /* \"contracts/ArbOptV2.sol\":19388:19426  IERC20(token).balanceOf(address(this)) */\n      swap5\n      dup6\n      swap2\n      dup3\n      mstore\n        /* \"contracts/ArbOptV2.sol\":19420:19424  this */\n      address\n        /* \"contracts/ArbOptV2.sol\":1616:23442  contract ArbOptimizer is Ownable, ReentrancyGuard, Pausable { ... */\n      0x04\n        /* \"contracts/ArbOptV2.sol\":19388:19426  IERC20(token).balanceOf(address(this)) */\n      dup4\n      add\n        /* \"contracts/ArbOptV2.sol\":1616:23442  contract ArbOptimizer is Ownable, ReentrancyGuard, Pausable { ... */\n      mstore\n        /* \"contracts/ArbOptV2.sol\":19388:19426  IERC20(token).balanceOf(address(this)) */\n      dup2\n      dup6\n      gas\n      staticcall\n      swap3\n      dup4\n      iszero\n      tag_226\n      jumpi\n      dup2\n      swap4\n      tag_755\n      jumpi\n        /* \"contracts/ArbOptV2.sol\":1616:23442  contract ArbOptimizer is Ownable, ReentrancyGuard, Pausable { ... */\n    tag_756:\n        /* \"contracts/ArbOptV2.sol\":19437:19448  balance > 0 */\n      pop\n      dup3\n        /* \"contracts/ArbOptV2.sol\":19433:19571  if (balance > 0) {... */\n      tag_757\n      jumpi\n        /* \"contracts/ArbOptV2.sol\":1616:23442  contract ArbOptimizer is Ownable, ReentrancyGuard, Pausable { ... */\n    tag_758:\n        /* \"contracts/ArbOptV2.sol\":18966:18987  address(this).balance */\n      pop\n      pop\n      pop\n      selfbalance\n        /* \"contracts/ArbOptV2.sol\":18998:19012  ethBalance > 0 */\n      swap1\n      dup2\n        /* \"contracts/ArbOptV2.sol\":18994:19192  if (ethBalance > 0) {... */\n      tag_759\n      jumpi\n        /* \"contracts/ArbOptV2.sol\":1616:23442  contract ArbOptimizer is Ownable, ReentrancyGuard, Pausable { ... */\n    tag_760:\n      dup3\n      0x01\n      dup1\n      sstore\n      dup1\n      return\n        /* \"contracts/ArbOptV2.sol\":18994:19192  if (ethBalance > 0) {... */\n    tag_759:\n        /* \"contracts/ArbOptV2.sol\":19148:19184  ETHWithdrawn(ethBalance, msg.sender) */\n      0x6148672a948a12b8e0bf92a9338349b9ac890fad62a234abaf0a4da99f62cfcc\n        /* \"contracts/ArbOptV2.sol\":19044:19054  msg.sender */\n      swap1\n        /* \"contracts/ArbOptV2.sol\":19093:19132  require(success, \"ETH transfer failed\") */\n      tag_761\n        /* \"contracts/ArbOptV2.sol\":19044:19054  msg.sender */\n      dup5\n      dup1\n      dup1\n      dup1\n      dup8\n      caller\n        /* \"contracts/ArbOptV2.sol\":19044:19082  msg.sender.call{value: ethBalance}(\"\") */\n      gas\n      call\n      tag_181\n      tag_22\n      jump\t// in\n        /* \"contracts/ArbOptV2.sol\":19093:19132  require(success, \"ETH transfer failed\") */\n    tag_761:\n        /* \"contracts/ArbOptV2.sol\":1616:23442  contract ArbOptimizer is Ownable, ReentrancyGuard, Pausable { ... */\n      mload(0x40)\n      swap3\n      dup4\n      mstore\n        /* \"contracts/ArbOptV2.sol\":19044:19054  msg.sender */\n      caller\n        /* \"contracts/ArbOptV2.sol\":19148:19184  ETHWithdrawn(ethBalance, msg.sender) */\n      swap3\n      log2\n        /* \"contracts/ArbOptV2.sol\":18994:19192  if (ethBalance > 0) {... */\n      0x00\n      dup1\n      jump(tag_760)\n        /* \"contracts/ArbOptV2.sol\":19433:19571  if (balance > 0) {... */\n    tag_757:\n        /* \"contracts/ArbOptV2.sol\":1616:23442  contract ArbOptimizer is Ownable, ReentrancyGuard, Pausable { ... */\n      mload(0x40)\n      shl(0xe0, 0xa9059cbb)\n        /* \"contracts/ArbOptV2.sol\":19461:19504  IERC20(token).transfer(msg.sender, balance) */\n      dup2\n      mstore\n        /* \"contracts/ArbOptV2.sol\":19484:19494  msg.sender */\n      caller\n        /* \"contracts/ArbOptV2.sol\":1616:23442  contract ArbOptimizer is Ownable, ReentrancyGuard, Pausable { ... */\n      0x04\n        /* \"contracts/ArbOptV2.sol\":19461:19504  IERC20(token).transfer(msg.sender, balance) */\n      dup3\n      add\n        /* \"contracts/ArbOptV2.sol\":1616:23442  contract ArbOptimizer is Ownable, ReentrancyGuard, Pausable { ... */\n      mstore\n      0x24\n      dup2\n      add\n      dup5\n      swap1\n      mstore\n      swap1\n        /* \"contracts/ArbOptV2.sol\":19484:19494  msg.sender */\n      dup5\n        /* \"contracts/ArbOptV2.sol\":1616:23442  contract ArbOptimizer is Ownable, ReentrancyGuard, Pausable { ... */\n      dup3\n      0x44\n      dup2\n      dup5\n        /* \"contracts/ArbOptV2.sol\":19461:19504  IERC20(token).transfer(msg.sender, balance) */\n      dup8\n      gas\n      call\n      dup1\n      iszero\n      tag_226\n      jumpi\n      tag_766\n      jumpi\n        /* \"contracts/ArbOptV2.sol\":19433:19571  if (balance > 0) {... */\n    tag_767:\n        /* \"contracts/ArbOptV2.sol\":1616:23442  contract ArbOptimizer is Ownable, ReentrancyGuard, Pausable { ... */\n      pop\n      pop\n      mload(0x40)\n      swap2\n      dup3\n      mstore\n      0x00\n      dup1\n      mload\n      0x20\n      data_084f00436a29ddf9fe96da3f0df8ffde36506fc292725425a43a4251d44f1f53\n      dup4\n      codecopy\n      dup2\n      mload\n      swap2\n      mstore\n        /* \"contracts/ArbOptV2.sol\":19484:19494  msg.sender */\n      dup4\n      caller\n        /* \"contracts/ArbOptV2.sol\":19520:19563  ProfitWithdrawn(token, balance, msg.sender) */\n      swap4\n      log3\n        /* \"contracts/ArbOptV2.sol\":19433:19571  if (balance > 0) {... */\n      0x00\n      dup1\n      dup1\n      jump(tag_758)\n        /* \"contracts/ArbOptV2.sol\":19461:19504  IERC20(token).transfer(msg.sender, balance) */\n    tag_766:\n      dup5\n      dup3\n      dup2\n      returndatasize\n      dup4\n      gt\n      tag_768\n      jumpi\n    tag_769:\n      tag_770\n      dup2\n      dup4\n      tag_7\n      jump\t// in\n    tag_770:\n      dup2\n      add\n        /* \"contracts/ArbOptV2.sol\":1616:23442  contract ArbOptimizer is Ownable, ReentrancyGuard, Pausable { ... */\n      sub\n      slt\n      tag_126\n      jumpi\n      pop\n      tag_773\n      swap1\n      tag_14\n      jump\t// in\n    tag_773:\n      pop\n        /* \"contracts/ArbOptV2.sol\":19461:19504  IERC20(token).transfer(msg.sender, balance) */\n      0x00\n      dup1\n      jump(tag_767)\n    tag_768:\n      pop\n      returndatasize\n      jump(tag_769)\n        /* \"contracts/ArbOptV2.sol\":19388:19426  IERC20(token).balanceOf(address(this)) */\n    tag_755:\n      swap1\n      swap3\n      pop\n      dup4\n      dup2\n      dup2\n      returndatasize\n      dup4\n      gt\n      tag_774\n      jumpi\n    tag_775:\n      tag_776\n      dup2\n      dup4\n      tag_7\n      jump\t// in\n    tag_776:\n      dup2\n      add\n        /* \"contracts/ArbOptV2.sol\":1616:23442  contract ArbOptimizer is Ownable, ReentrancyGuard, Pausable { ... */\n      sub\n      slt\n      tag_217\n      jumpi\n        /* \"contracts/ArbOptV2.sol\":4738:4803  AggregatorV3Interface(0x5f4eC3Df9cbd43714FE2740f5E3616155c5b8419) */\n      mload\n        /* \"contracts/ArbOptV2.sol\":19388:19426  IERC20(token).balanceOf(address(this)) */\n      swap2\n      0x00\n      jump(tag_756)\n    tag_774:\n      pop\n      returndatasize\n      jump(tag_775)\n        /* \"contracts/ArbOptV2.sol\":19320:19352  arbExec.emergencyWithdraw(token) */\n    tag_751:\n      tag_779\n      swap1\n      swap4\n      swap2\n      swap4\n      tag_6\n      jump\t// in\n    tag_779:\n      swap2\n      0x00\n      jump(tag_752)\n        /* \"contracts/ArbOptV2.sol\":19433:19571  if (balance > 0) {... */\n    tag_747:\n        /* \"contracts/ArbOptV2.sol\":1616:23442  contract ArbOptimizer is Ownable, ReentrancyGuard, Pausable { ... */\n      mload(0x40)\n      shl(0xe0, 0xa9059cbb)\n        /* \"contracts/ArbOptV2.sol\":19461:19504  IERC20(token).transfer(msg.sender, balance) */\n      dup2\n      mstore\n        /* \"contracts/ArbOptV2.sol\":19484:19494  msg.sender */\n      caller\n        /* \"contracts/ArbOptV2.sol\":1616:23442  contract ArbOptimizer is Ownable, ReentrancyGuard, Pausable { ... */\n      0x04\n        /* \"contracts/ArbOptV2.sol\":19461:19504  IERC20(token).transfer(msg.sender, balance) */\n      dup3\n      add\n        /* \"contracts/ArbOptV2.sol\":1616:23442  contract ArbOptimizer is Ownable, ReentrancyGuard, Pausable { ... */\n      mstore\n      0x24\n      dup2\n      add\n      dup5\n      swap1\n      mstore\n      swap1\n        /* \"contracts/ArbOptV2.sol\":19484:19494  msg.sender */\n      dup11\n        /* \"contracts/ArbOptV2.sol\":1616:23442  contract ArbOptimizer is Ownable, ReentrancyGuard, Pausable { ... */\n      dup3\n      0x44\n      dup2\n      dup5\n        /* \"contracts/ArbOptV2.sol\":19461:19504  IERC20(token).transfer(msg.sender, balance) */\n      dup8\n      gas\n      call\n      dup1\n      iszero\n      tag_226\n      jumpi\n      tag_783\n      jumpi\n        /* \"contracts/ArbOptV2.sol\":19433:19571  if (balance > 0) {... */\n    tag_784:\n        /* \"contracts/ArbOptV2.sol\":1616:23442  contract ArbOptimizer is Ownable, ReentrancyGuard, Pausable { ... */\n      pop\n      pop\n      mload(0x40)\n      swap2\n      dup3\n      mstore\n      0x00\n      dup1\n      mload\n      0x20\n      data_084f00436a29ddf9fe96da3f0df8ffde36506fc292725425a43a4251d44f1f53\n      dup4\n      codecopy\n      dup2\n      mload\n      swap2\n      mstore\n        /* \"contracts/ArbOptV2.sol\":19484:19494  msg.sender */\n      dup10\n      caller\n        /* \"contracts/ArbOptV2.sol\":19520:19563  ProfitWithdrawn(token, balance, msg.sender) */\n      swap4\n      log3\n        /* \"contracts/ArbOptV2.sol\":19433:19571  if (balance > 0) {... */\n      0x00\n      dup1\n      dup1\n      jump(tag_748)\n        /* \"contracts/ArbOptV2.sol\":19461:19504  IERC20(token).transfer(msg.sender, balance) */\n    tag_783:\n      dup11\n      dup3\n      dup2\n      returndatasize\n      dup4\n      gt\n      tag_785\n      jumpi\n    tag_786:\n      tag_787\n      dup2\n      dup4\n      tag_7\n      jump\t// in\n    tag_787:\n      dup2\n      add\n        /* \"contracts/ArbOptV2.sol\":1616:23442  contract ArbOptimizer is Ownable, ReentrancyGuard, Pausable { ... */\n      sub\n      slt\n      tag_126\n      jumpi\n      pop\n      tag_790\n      swap1\n      tag_14\n      jump\t// in\n    tag_790:\n      pop\n        /* \"contracts/ArbOptV2.sol\":19461:19504  IERC20(token).transfer(msg.sender, balance) */\n      0x00\n      dup1\n      jump(tag_784)\n    tag_785:\n      pop\n      returndatasize\n      jump(tag_786)\n        /* \"contracts/ArbOptV2.sol\":19388:19426  IERC20(token).balanceOf(address(this)) */\n    tag_745:\n      swap1\n      swap3\n      pop\n      dup10\n      dup2\n      dup2\n      returndatasize\n      dup4\n      gt\n      tag_791\n      jumpi\n    tag_792:\n      tag_793\n      dup2\n      dup4\n      tag_7\n      jump\t// in\n    tag_793:\n      dup2\n      add\n        /* \"contracts/ArbOptV2.sol\":1616:23442  contract ArbOptimizer is Ownable, ReentrancyGuard, Pausable { ... */\n      sub\n      slt\n      tag_217\n      jumpi\n        /* \"contracts/ArbOptV2.sol\":4738:4803  AggregatorV3Interface(0x5f4eC3Df9cbd43714FE2740f5E3616155c5b8419) */\n      mload\n        /* \"contracts/ArbOptV2.sol\":19388:19426  IERC20(token).balanceOf(address(this)) */\n      swap2\n      0x00\n      jump(tag_746)\n    tag_791:\n      pop\n      returndatasize\n      jump(tag_792)\n        /* \"contracts/ArbOptV2.sol\":19320:19352  arbExec.emergencyWithdraw(token) */\n    tag_741:\n      tag_796\n      swap1\n      tag_6\n      jump\t// in\n    tag_796:\n      0x00\n      jump(tag_742)\n        /* \"contracts/ArbOptV2.sol\":19433:19571  if (balance > 0) {... */\n    tag_737:\n        /* \"contracts/ArbOptV2.sol\":1616:23442  contract ArbOptimizer is Ownable, ReentrancyGuard, Pausable { ... */\n      mload(0x40)\n      shl(0xe0, 0xa9059cbb)\n        /* \"contracts/ArbOptV2.sol\":19461:19504  IERC20(token).transfer(msg.sender, balance) */\n      dup2\n      mstore\n        /* \"contracts/ArbOptV2.sol\":19484:19494  msg.sender */\n      caller\n        /* \"contracts/ArbOptV2.sol\":1616:23442  contract ArbOptimizer is Ownable, ReentrancyGuard, Pausable { ... */\n      0x04\n        /* \"contracts/ArbOptV2.sol\":19461:19504  IERC20(token).transfer(msg.sender, balance) */\n      dup3\n      add\n        /* \"contracts/ArbOptV2.sol\":1616:23442  contract ArbOptimizer is Ownable, ReentrancyGuard, Pausable { ... */\n      mstore\n      0x24\n      dup2\n      add\n      dup5\n      swap1\n      mstore\n      swap1\n        /* \"contracts/ArbOptV2.sol\":19484:19494  msg.sender */\n      dup11\n        /* \"contracts/ArbOptV2.sol\":1616:23442  contract ArbOptimizer is Ownable, ReentrancyGuard, Pausable { ... */\n      dup3\n      0x44\n      dup2\n      dup5\n        /* \"contracts/ArbOptV2.sol\":19461:19504  IERC20(token).transfer(msg.sender, balance) */\n      dup8\n      gas\n      call\n      dup1\n      iszero\n      tag_226\n      jumpi\n      tag_800\n      jumpi\n        /* \"contracts/ArbOptV2.sol\":19433:19571  if (balance > 0) {... */\n    tag_801:\n        /* \"contracts/ArbOptV2.sol\":1616:23442  contract ArbOptimizer is Ownable, ReentrancyGuard, Pausable { ... */\n      pop\n      pop\n      mload(0x40)\n      swap2\n      dup3\n      mstore\n      0x00\n      dup1\n      mload\n      0x20\n      data_084f00436a29ddf9fe96da3f0df8ffde36506fc292725425a43a4251d44f1f53\n      dup4\n      codecopy\n      dup2\n      mload\n      swap2\n      mstore\n        /* \"contracts/ArbOptV2.sol\":19484:19494  msg.sender */\n      dup10\n      caller\n        /* \"contracts/ArbOptV2.sol\":19520:19563  ProfitWithdrawn(token, balance, msg.sender) */\n      swap4\n      log3\n        /* \"contracts/ArbOptV2.sol\":19433:19571  if (balance > 0) {... */\n      0x00\n      dup1\n      dup1\n      jump(tag_738)\n        /* \"contracts/ArbOptV2.sol\":19461:19504  IERC20(token).transfer(msg.sender, balance) */\n    tag_800:\n      dup11\n      dup3\n      dup2\n      returndatasize\n      dup4\n      gt\n      tag_802\n      jumpi\n    tag_803:\n      tag_804\n      dup2\n      dup4\n      tag_7\n      jump\t// in\n    tag_804:\n      dup2\n      add\n        /* \"contracts/ArbOptV2.sol\":1616:23442  contract ArbOptimizer is Ownable, ReentrancyGuard, Pausable { ... */\n      sub\n      slt\n      tag_126\n      jumpi\n      pop\n      tag_807\n      swap1\n      tag_14\n      jump\t// in\n    tag_807:\n      pop\n        /* \"contracts/ArbOptV2.sol\":19461:19504  IERC20(token).transfer(msg.sender, balance) */\n      0x00\n      dup1\n      jump(tag_801)\n    tag_802:\n      pop\n      returndatasize\n      jump(tag_803)\n        /* \"contracts/ArbOptV2.sol\":19388:19426  IERC20(token).balanceOf(address(this)) */\n    tag_735:\n      swap1\n      swap3\n      pop\n      dup10\n      dup2\n      dup2\n      returndatasize\n      dup4\n      gt\n      tag_808\n      jumpi\n    tag_809:\n      tag_810\n      dup2\n      dup4\n      tag_7\n      jump\t// in\n    tag_810:\n      dup2\n      add\n        /* \"contracts/ArbOptV2.sol\":1616:23442  contract ArbOptimizer is Ownable, ReentrancyGuard, Pausable { ... */\n      sub\n      slt\n      tag_217\n      jumpi\n        /* \"contracts/ArbOptV2.sol\":4738:4803  AggregatorV3Interface(0x5f4eC3Df9cbd43714FE2740f5E3616155c5b8419) */\n      mload\n        /* \"contracts/ArbOptV2.sol\":19388:19426  IERC20(token).balanceOf(address(this)) */\n      swap2\n      0x00\n      jump(tag_736)\n    tag_808:\n      pop\n      returndatasize\n      jump(tag_809)\n        /* \"contracts/ArbOptV2.sol\":19320:19352  arbExec.emergencyWithdraw(token) */\n    tag_731:\n      tag_813\n      swap1\n      tag_6\n      jump\t// in\n    tag_813:\n      0x00\n      jump(tag_732)\n        /* \"contracts/ArbOptV2.sol\":19433:19571  if (balance > 0) {... */\n    tag_727:\n        /* \"contracts/ArbOptV2.sol\":1616:23442  contract ArbOptimizer is Ownable, ReentrancyGuard, Pausable { ... */\n      mload(0x40)\n      shl(0xe0, 0xa9059cbb)\n        /* \"contracts/ArbOptV2.sol\":19461:19504  IERC20(token).transfer(msg.sender, balance) */\n      dup2\n      mstore\n        /* \"contracts/ArbOptV2.sol\":19484:19494  msg.sender */\n      caller\n        /* \"contracts/ArbOptV2.sol\":1616:23442  contract ArbOptimizer is Ownable, ReentrancyGuard, Pausable { ... */\n      0x04\n        /* \"contracts/ArbOptV2.sol\":19461:19504  IERC20(token).transfer(msg.sender, balance) */\n      dup3\n      add\n        /* \"contracts/ArbOptV2.sol\":1616:23442  contract ArbOptimizer is Ownable, ReentrancyGuard, Pausable { ... */\n      mstore\n      0x24\n      dup2\n      add\n      dup5\n      swap1\n      mstore\n      swap1\n        /* \"contracts/ArbOptV2.sol\":19484:19494  msg.sender */\n      dup11\n        /* \"contracts/ArbOptV2.sol\":1616:23442  contract ArbOptimizer is Ownable, ReentrancyGuard, Pausable { ... */\n      dup3\n      0x44\n      dup2\n      dup5\n        /* \"contracts/ArbOptV2.sol\":19461:19504  IERC20(token).transfer(msg.sender, balance) */\n      dup8\n      gas\n      call\n      dup1\n      iszero\n      tag_226\n      jumpi\n      tag_817\n      jumpi\n        /* \"contracts/ArbOptV2.sol\":19433:19571  if (balance > 0) {... */\n    tag_818:\n        /* \"contracts/ArbOptV2.sol\":1616:23442  contract ArbOptimizer is Ownable, ReentrancyGuard, Pausable { ... */\n      pop\n      pop\n      mload(0x40)\n      swap2\n      dup3\n      mstore\n      0x00\n      dup1\n      mload\n      0x20\n      data_084f00436a29ddf9fe96da3f0df8ffde36506fc292725425a43a4251d44f1f53\n      dup4\n      codecopy\n      dup2\n      mload\n      swap2\n      mstore\n        /* \"contracts/ArbOptV2.sol\":19484:19494  msg.sender */\n      dup10\n      caller\n        /* \"contracts/ArbOptV2.sol\":19520:19563  ProfitWithdrawn(token, balance, msg.sender) */\n      swap4\n      log3\n        /* \"contracts/ArbOptV2.sol\":19433:19571  if (balance > 0) {... */\n      0x00\n      dup1\n      dup1\n      jump(tag_728)\n        /* \"contracts/ArbOptV2.sol\":19461:19504  IERC20(token).transfer(msg.sender, balance) */\n    tag_817:\n      dup11\n      dup3\n      dup2\n      returndatasize\n      dup4\n      gt\n      tag_819\n      jumpi\n    tag_820:\n      tag_821\n      dup2\n      dup4\n      tag_7\n      jump\t// in\n    tag_821:\n      dup2\n      add\n        /* \"contracts/ArbOptV2.sol\":1616:23442  contract ArbOptimizer is Ownable, ReentrancyGuard, Pausable { ... */\n      sub\n      slt\n      tag_126\n      jumpi\n      pop\n      tag_824\n      swap1\n      tag_14\n      jump\t// in\n    tag_824:\n      pop\n        /* \"contracts/ArbOptV2.sol\":19461:19504  IERC20(token).transfer(msg.sender, balance) */\n      0x00\n      dup1\n      jump(tag_818)\n    tag_819:\n      pop\n      returndatasize\n      jump(tag_820)\n        /* \"contracts/ArbOptV2.sol\":19388:19426  IERC20(token).balanceOf(address(this)) */\n    tag_725:\n      swap1\n      swap3\n      pop\n      dup10\n      dup2\n      dup2\n      returndatasize\n      dup4\n      gt\n      tag_825\n      jumpi\n    tag_826:\n      tag_827\n      dup2\n      dup4\n      tag_7\n      jump\t// in\n    tag_827:\n      dup2\n      add\n        /* \"contracts/ArbOptV2.sol\":1616:23442  contract ArbOptimizer is Ownable, ReentrancyGuard, Pausable { ... */\n      sub\n      slt\n      tag_217\n      jumpi\n        /* \"contracts/ArbOptV2.sol\":4738:4803  AggregatorV3Interface(0x5f4eC3Df9cbd43714FE2740f5E3616155c5b8419) */\n      mload\n        /* \"contracts/ArbOptV2.sol\":19388:19426  IERC20(token).balanceOf(address(this)) */\n      swap2\n      0x00\n      jump(tag_726)\n    tag_825:\n      pop\n      returndatasize\n      jump(tag_826)\n        /* \"contracts/ArbOptV2.sol\":19320:19352  arbExec.emergencyWithdraw(token) */\n    tag_721:\n      tag_830\n      swap1\n      tag_6\n      jump\t// in\n    tag_830:\n      0x00\n      jump(tag_722)\n        /* \"contracts/ArbOptV2.sol\":19433:19571  if (balance > 0) {... */\n    tag_717:\n        /* \"contracts/ArbOptV2.sol\":1616:23442  contract ArbOptimizer is Ownable, ReentrancyGuard, Pausable { ... */\n      mload(0x40)\n      shl(0xe0, 0xa9059cbb)\n        /* \"contracts/ArbOptV2.sol\":19461:19504  IERC20(token).transfer(msg.sender, balance) */\n      dup2\n      mstore\n        /* \"contracts/ArbOptV2.sol\":19484:19494  msg.sender */\n      caller\n        /* \"contracts/ArbOptV2.sol\":1616:23442  contract ArbOptimizer is Ownable, ReentrancyGuard, Pausable { ... */\n      0x04\n        /* \"contracts/ArbOptV2.sol\":19461:19504  IERC20(token).transfer(msg.sender, balance) */\n      dup3\n      add\n        /* \"contracts/ArbOptV2.sol\":1616:23442  contract ArbOptimizer is Ownable, ReentrancyGuard, Pausable { ... */\n      mstore\n      0x24\n      dup2\n      add\n      dup5\n      swap1\n      mstore\n      swap1\n        /* \"contracts/ArbOptV2.sol\":19484:19494  msg.sender */\n      dup11\n        /* \"contracts/ArbOptV2.sol\":1616:23442  contract ArbOptimizer is Ownable, ReentrancyGuard, Pausable { ... */\n      dup3\n      0x44\n      dup2\n      dup5\n        /* \"contracts/ArbOptV2.sol\":19461:19504  IERC20(token).transfer(msg.sender, balance) */\n      dup8\n      gas\n      call\n      dup1\n      iszero\n      tag_226\n      jumpi\n      tag_834\n      jumpi\n        /* \"contracts/ArbOptV2.sol\":19433:19571  if (balance > 0) {... */\n    tag_835:\n        /* \"contracts/ArbOptV2.sol\":1616:23442  contract ArbOptimizer is Ownable, ReentrancyGuard, Pausable { ... */\n      pop\n      pop\n      mload(0x40)\n      swap2\n      dup3\n      mstore\n      0x00\n      dup1\n      mload\n      0x20\n      data_084f00436a29ddf9fe96da3f0df8ffde36506fc292725425a43a4251d44f1f53\n      dup4\n      codecopy\n      dup2\n      mload\n      swap2\n      mstore\n        /* \"contracts/ArbOptV2.sol\":19484:19494  msg.sender */\n      dup10\n      caller\n        /* \"contracts/ArbOptV2.sol\":19520:19563  ProfitWithdrawn(token, balance, msg.sender) */\n      swap4\n      log3\n        /* \"contracts/ArbOptV2.sol\":19433:19571  if (balance > 0) {... */\n      0x00\n      dup1\n      dup1\n      jump(tag_718)\n        /* \"contracts/ArbOptV2.sol\":19461:19504  IERC20(token).transfer(msg.sender, balance) */\n    tag_834:\n      dup11\n      dup3\n      dup2\n      returndatasize\n      dup4\n      gt\n      tag_836\n      jumpi\n    tag_837:\n      tag_838\n      dup2\n      dup4\n      tag_7\n      jump\t// in\n    tag_838:\n      dup2\n      add\n        /* \"contracts/ArbOptV2.sol\":1616:23442  contract ArbOptimizer is Ownable, ReentrancyGuard, Pausable { ... */\n      sub\n      slt\n      tag_126\n      jumpi\n      pop\n      tag_841\n      swap1\n      tag_14\n      jump\t// in\n    tag_841:\n      pop\n        /* \"contracts/ArbOptV2.sol\":19461:19504  IERC20(token).transfer(msg.sender, balance) */\n      0x00\n      dup1\n      jump(tag_835)\n    tag_836:\n      pop\n      returndatasize\n      jump(tag_837)\n        /* \"contracts/ArbOptV2.sol\":19388:19426  IERC20(token).balanceOf(address(this)) */\n    tag_715:\n      swap1\n      swap3\n      pop\n      dup10\n      dup2\n      dup2\n      returndatasize\n      dup4\n      gt\n      tag_842\n      jumpi\n    tag_843:\n      tag_844\n      dup2\n      dup4\n      tag_7\n      jump\t// in\n    tag_844:\n      dup2\n      add\n        /* \"contracts/ArbOptV2.sol\":1616:23442  contract ArbOptimizer is Ownable, ReentrancyGuard, Pausable { ... */\n      sub\n      slt\n      tag_217\n      jumpi\n        /* \"contracts/ArbOptV2.sol\":4738:4803  AggregatorV3Interface(0x5f4eC3Df9cbd43714FE2740f5E3616155c5b8419) */\n      mload\n        /* \"contracts/ArbOptV2.sol\":19388:19426  IERC20(token).balanceOf(address(this)) */\n      swap2\n      0x00\n      jump(tag_716)\n    tag_842:\n      pop\n      returndatasize\n      jump(tag_843)\n        /* \"contracts/ArbOptV2.sol\":19320:19352  arbExec.emergencyWithdraw(token) */\n    tag_711:\n      tag_847\n      swap1\n      tag_6\n      jump\t// in\n    tag_847:\n      0x00\n      jump(tag_712)\n        /* \"contracts/ArbOptV2.sol\":19433:19571  if (balance > 0) {... */\n    tag_707:\n        /* \"contracts/ArbOptV2.sol\":1616:23442  contract ArbOptimizer is Ownable, ReentrancyGuard, Pausable { ... */\n      mload(0x40)\n      shl(0xe0, 0xa9059cbb)\n        /* \"contracts/ArbOptV2.sol\":19461:19504  IERC20(token).transfer(msg.sender, balance) */\n      dup2\n      mstore\n        /* \"contracts/ArbOptV2.sol\":19484:19494  msg.sender */\n      caller\n        /* \"contracts/ArbOptV2.sol\":1616:23442  contract ArbOptimizer is Ownable, ReentrancyGuard, Pausable { ... */\n      0x04\n        /* \"contracts/ArbOptV2.sol\":19461:19504  IERC20(token).transfer(msg.sender, balance) */\n      dup3\n      add\n        /* \"contracts/ArbOptV2.sol\":1616:23442  contract ArbOptimizer is Ownable, ReentrancyGuard, Pausable { ... */\n      mstore\n      0x24\n      dup2\n      add\n      dup5\n      swap1\n      mstore\n      swap1\n        /* \"contracts/ArbOptV2.sol\":19484:19494  msg.sender */\n      dup11\n        /* \"contracts/ArbOptV2.sol\":1616:23442  contract ArbOptimizer is Ownable, ReentrancyGuard, Pausable { ... */\n      dup3\n      0x44\n      dup2\n      dup5\n        /* \"contracts/ArbOptV2.sol\":19461:19504  IERC20(token).transfer(msg.sender, balance) */\n      dup8\n      gas\n      call\n      dup1\n      iszero\n      tag_226\n      jumpi\n      tag_851\n      jumpi\n        /* \"contracts/ArbOptV2.sol\":19433:19571  if (balance > 0) {... */\n    tag_852:\n        /* \"contracts/ArbOptV2.sol\":1616:23442  contract ArbOptimizer is Ownable, ReentrancyGuard, Pausable { ... */\n      pop\n      pop\n      mload(0x40)\n      swap2\n      dup3\n      mstore\n      0x00\n      dup1\n      mload\n      0x20\n      data_084f00436a29ddf9fe96da3f0df8ffde36506fc292725425a43a4251d44f1f53\n      dup4\n      codecopy\n      dup2\n      mload\n      swap2\n      mstore\n        /* \"contracts/ArbOptV2.sol\":19484:19494  msg.sender */\n      dup10\n      caller\n        /* \"contracts/ArbOptV2.sol\":19520:19563  ProfitWithdrawn(token, balance, msg.sender) */\n      swap4\n      log3\n        /* \"contracts/ArbOptV2.sol\":19433:19571  if (balance > 0) {... */\n      0x00\n      dup1\n      dup1\n      jump(tag_708)\n        /* \"contracts/ArbOptV2.sol\":19461:19504  IERC20(token).transfer(msg.sender, balance) */\n    tag_851:\n      dup11\n      dup3\n      dup2\n      returndatasize\n      dup4\n      gt\n      tag_853\n      jumpi\n    tag_854:\n      tag_855\n      dup2\n      dup4\n      tag_7\n      jump\t// in\n    tag_855:\n      dup2\n      add\n        /* \"contracts/ArbOptV2.sol\":1616:23442  contract ArbOptimizer is Ownable, ReentrancyGuard, Pausable { ... */\n      sub\n      slt\n      tag_126\n      jumpi\n      pop\n      tag_858\n      swap1\n      tag_14\n      jump\t// in\n    tag_858:\n      pop\n        /* \"contracts/ArbOptV2.sol\":19461:19504  IERC20(token).transfer(msg.sender, balance) */\n      0x00\n      dup1\n      jump(tag_852)\n    tag_853:\n      pop\n      returndatasize\n      jump(tag_854)\n        /* \"contracts/ArbOptV2.sol\":19388:19426  IERC20(token).balanceOf(address(this)) */\n    tag_705:\n      swap1\n      swap3\n      pop\n      dup10\n      dup2\n      dup2\n      returndatasize\n      dup4\n      gt\n      tag_859\n      jumpi\n    tag_860:\n      tag_861\n      dup2\n      dup4\n      tag_7\n      jump\t// in\n    tag_861:\n      dup2\n      add\n        /* \"contracts/ArbOptV2.sol\":1616:23442  contract ArbOptimizer is Ownable, ReentrancyGuard, Pausable { ... */\n      sub\n      slt\n      tag_217\n      jumpi\n        /* \"contracts/ArbOptV2.sol\":4738:4803  AggregatorV3Interface(0x5f4eC3Df9cbd43714FE2740f5E3616155c5b8419) */\n      mload\n        /* \"contracts/ArbOptV2.sol\":19388:19426  IERC20(token).balanceOf(address(this)) */\n      swap2\n      0x00\n      jump(tag_706)\n    tag_859:\n      pop\n      returndatasize\n      jump(tag_860)\n        /* \"contracts/ArbOptV2.sol\":19320:19352  arbExec.emergencyWithdraw(token) */\n    tag_701:\n      tag_864\n      swap1\n      tag_6\n      jump\t// in\n    tag_864:\n      0x00\n      jump(tag_702)\n        /* \"contracts/ArbOptV2.sol\":19433:19571  if (balance > 0) {... */\n    tag_697:\n        /* \"contracts/ArbOptV2.sol\":1616:23442  contract ArbOptimizer is Ownable, ReentrancyGuard, Pausable { ... */\n      mload(0x40)\n      shl(0xe0, 0xa9059cbb)\n        /* \"contracts/ArbOptV2.sol\":19461:19504  IERC20(token).transfer(msg.sender, balance) */\n      dup2\n      mstore\n        /* \"contracts/ArbOptV2.sol\":19484:19494  msg.sender */\n      caller\n        /* \"contracts/ArbOptV2.sol\":1616:23442  contract ArbOptimizer is Ownable, ReentrancyGuard, Pausable { ... */\n      0x04\n        /* \"contracts/ArbOptV2.sol\":19461:19504  IERC20(token).transfer(msg.sender, balance) */\n      dup3\n      add\n        /* \"contracts/ArbOptV2.sol\":1616:23442  contract ArbOptimizer is Ownable, ReentrancyGuard, Pausable { ... */\n      mstore\n      0x24\n      dup2\n      add\n      dup5\n      swap1\n      mstore\n      swap1\n        /* \"contracts/ArbOptV2.sol\":19484:19494  msg.sender */\n      dup11\n        /* \"contracts/ArbOptV2.sol\":1616:23442  contract ArbOptimizer is Ownable, ReentrancyGuard, Pausable { ... */\n      dup3\n      0x44\n      dup2\n      dup5\n        /* \"contracts/ArbOptV2.sol\":19461:19504  IERC20(token).transfer(msg.sender, balance) */\n      dup8\n      gas\n      call\n      dup1\n      iszero\n      tag_226\n      jumpi\n      tag_868\n      jumpi\n        /* \"contracts/ArbOptV2.sol\":19433:19571  if (balance > 0) {... */\n    tag_869:\n        /* \"contracts/ArbOptV2.sol\":1616:23442  contract ArbOptimizer is Ownable, ReentrancyGuard, Pausable { ... */\n      pop\n      pop\n      mload(0x40)\n      swap2\n      dup3\n      mstore\n      0x00\n      dup1\n      mload\n      0x20\n      data_084f00436a29ddf9fe96da3f0df8ffde36506fc292725425a43a4251d44f1f53\n      dup4\n      codecopy\n      dup2\n      mload\n      swap2\n      mstore\n        /* \"contracts/ArbOptV2.sol\":19484:19494  msg.sender */\n      dup10\n      caller\n        /* \"contracts/ArbOptV2.sol\":19520:19563  ProfitWithdrawn(token, balance, msg.sender) */\n      swap4\n      log3\n        /* \"contracts/ArbOptV2.sol\":19433:19571  if (balance > 0) {... */\n      0x00\n      dup1\n      dup1\n      jump(tag_698)\n        /* \"contracts/ArbOptV2.sol\":19461:19504  IERC20(token).transfer(msg.sender, balance) */\n    tag_868:\n      dup11\n      dup3\n      dup2\n      returndatasize\n      dup4\n      gt\n      tag_870\n      jumpi\n    tag_871:\n      tag_872\n      dup2\n      dup4\n      tag_7\n      jump\t// in\n    tag_872:\n      dup2\n      add\n        /* \"contracts/ArbOptV2.sol\":1616:23442  contract ArbOptimizer is Ownable, ReentrancyGuard, Pausable { ... */\n      sub\n      slt\n      tag_126\n      jumpi\n      pop\n      tag_875\n      swap1\n      tag_14\n      jump\t// in\n    tag_875:\n      pop\n        /* \"contracts/ArbOptV2.sol\":19461:19504  IERC20(token).transfer(msg.sender, balance) */\n      0x00\n      dup1\n      jump(tag_869)\n    tag_870:\n      pop\n      returndatasize\n      jump(tag_871)\n        /* \"contracts/ArbOptV2.sol\":19388:19426  IERC20(token).balanceOf(address(this)) */\n    tag_695:\n      swap1\n      swap3\n      pop\n      dup10\n      dup2\n      dup2\n      returndatasize\n      dup4\n      gt\n      tag_876\n      jumpi\n    tag_877:\n      tag_878\n      dup2\n      dup4\n      tag_7\n      jump\t// in\n    tag_878:\n      dup2\n      add\n        /* \"contracts/ArbOptV2.sol\":1616:23442  contract ArbOptimizer is Ownable, ReentrancyGuard, Pausable { ... */\n      sub\n      slt\n      tag_217\n      jumpi\n        /* \"contracts/ArbOptV2.sol\":4738:4803  AggregatorV3Interface(0x5f4eC3Df9cbd43714FE2740f5E3616155c5b8419) */\n      mload\n        /* \"contracts/ArbOptV2.sol\":19388:19426  IERC20(token).balanceOf(address(this)) */\n      swap2\n      0x00\n      jump(tag_696)\n    tag_876:\n      pop\n      returndatasize\n      jump(tag_877)\n        /* \"contracts/ArbOptV2.sol\":19320:19352  arbExec.emergencyWithdraw(token) */\n    tag_691:\n      tag_881\n      swap1\n      tag_6\n      jump\t// in\n    tag_881:\n      0x00\n      jump(tag_692)\n        /* \"contracts/ArbOptV2.sol\":19433:19571  if (balance > 0) {... */\n    tag_687:\n        /* \"contracts/ArbOptV2.sol\":1616:23442  contract ArbOptimizer is Ownable, ReentrancyGuard, Pausable { ... */\n      mload(0x40)\n      shl(0xe0, 0xa9059cbb)\n        /* \"contracts/ArbOptV2.sol\":19461:19504  IERC20(token).transfer(msg.sender, balance) */\n      dup2\n      mstore\n        /* \"contracts/ArbOptV2.sol\":19484:19494  msg.sender */\n      caller\n        /* \"contracts/ArbOptV2.sol\":1616:23442  contract ArbOptimizer is Ownable, ReentrancyGuard, Pausable { ... */\n      0x04\n        /* \"contracts/ArbOptV2.sol\":19461:19504  IERC20(token).transfer(msg.sender, balance) */\n      dup3\n      add\n        /* \"contracts/ArbOptV2.sol\":1616:23442  contract ArbOptimizer is Ownable, ReentrancyGuard, Pausable { ... */\n      mstore\n      0x24\n      dup2\n      add\n      dup5\n      swap1\n      mstore\n      swap1\n        /* \"contracts/ArbOptV2.sol\":19484:19494  msg.sender */\n      dup11\n        /* \"contracts/ArbOptV2.sol\":1616:23442  contract ArbOptimizer is Ownable, ReentrancyGuard, Pausable { ... */\n      dup3\n      0x44\n      dup2\n      dup5\n        /* \"contracts/ArbOptV2.sol\":19461:19504  IERC20(token).transfer(msg.sender, balance) */\n      dup8\n      gas\n      call\n      dup1\n      iszero\n      tag_226\n      jumpi\n      tag_885\n      jumpi\n        /* \"contracts/ArbOptV2.sol\":19433:19571  if (balance > 0) {... */\n    tag_886:\n        /* \"contracts/ArbOptV2.sol\":1616:23442  contract ArbOptimizer is Ownable, ReentrancyGuard, Pausable { ... */\n      pop\n      pop\n      mload(0x40)\n      swap2\n      dup3\n      mstore\n      0x00\n      dup1\n      mload\n      0x20\n      data_084f00436a29ddf9fe96da3f0df8ffde36506fc292725425a43a4251d44f1f53\n      dup4\n      codecopy\n      dup2\n      mload\n      swap2\n      mstore\n        /* \"contracts/ArbOptV2.sol\":19484:19494  msg.sender */\n      dup10\n      caller\n        /* \"contracts/ArbOptV2.sol\":19520:19563  ProfitWithdrawn(token, balance, msg.sender) */\n      swap4\n      log3\n        /* \"contracts/ArbOptV2.sol\":19433:19571  if (balance > 0) {... */\n      0x00\n      dup1\n      dup1\n      jump(tag_688)\n        /* \"contracts/ArbOptV2.sol\":19461:19504  IERC20(token).transfer(msg.sender, balance) */\n    tag_885:\n      dup11\n      dup3\n      dup2\n      returndatasize\n      dup4\n      gt\n      tag_887\n      jumpi\n    tag_888:\n      tag_889\n      dup2\n      dup4\n      tag_7\n      jump\t// in\n    tag_889:\n      dup2\n      add\n        /* \"contracts/ArbOptV2.sol\":1616:23442  contract ArbOptimizer is Ownable, ReentrancyGuard, Pausable { ... */\n      sub\n      slt\n      tag_126\n      jumpi\n      pop\n      tag_892\n      swap1\n      tag_14\n      jump\t// in\n    tag_892:\n      pop\n        /* \"contracts/ArbOptV2.sol\":19461:19504  IERC20(token).transfer(msg.sender, balance) */\n      0x00\n      dup1\n      jump(tag_886)\n    tag_887:\n      pop\n      returndatasize\n      jump(tag_888)\n        /* \"contracts/ArbOptV2.sol\":19388:19426  IERC20(token).balanceOf(address(this)) */\n    tag_685:\n      swap1\n      swap3\n      pop\n      dup10\n      dup2\n      dup2\n      returndatasize\n      dup4\n      gt\n      tag_893\n      jumpi\n    tag_894:\n      tag_895\n      dup2\n      dup4\n      tag_7\n      jump\t// in\n    tag_895:\n      dup2\n      add\n        /* \"contracts/ArbOptV2.sol\":1616:23442  contract ArbOptimizer is Ownable, ReentrancyGuard, Pausable { ... */\n      sub\n      slt\n      tag_217\n      jumpi\n        /* \"contracts/ArbOptV2.sol\":4738:4803  AggregatorV3Interface(0x5f4eC3Df9cbd43714FE2740f5E3616155c5b8419) */\n      mload\n        /* \"contracts/ArbOptV2.sol\":19388:19426  IERC20(token).balanceOf(address(this)) */\n      swap2\n      0x00\n      jump(tag_686)\n    tag_893:\n      pop\n      returndatasize\n      jump(tag_894)\n        /* \"contracts/ArbOptV2.sol\":19320:19352  arbExec.emergencyWithdraw(token) */\n    tag_681:\n      tag_898\n      swap1\n      tag_6\n      jump\t// in\n    tag_898:\n      0x00\n      jump(tag_682)\n        /* \"contracts/ArbOptV2.sol\":19433:19571  if (balance > 0) {... */\n    tag_677:\n        /* \"contracts/ArbOptV2.sol\":1616:23442  contract ArbOptimizer is Ownable, ReentrancyGuard, Pausable { ... */\n      mload(0x40)\n      shl(0xe0, 0xa9059cbb)\n        /* \"contracts/ArbOptV2.sol\":19461:19504  IERC20(token).transfer(msg.sender, balance) */\n      dup2\n      mstore\n        /* \"contracts/ArbOptV2.sol\":19484:19494  msg.sender */\n      caller\n        /* \"contracts/ArbOptV2.sol\":1616:23442  contract ArbOptimizer is Ownable, ReentrancyGuard, Pausable { ... */\n      0x04\n        /* \"contracts/ArbOptV2.sol\":19461:19504  IERC20(token).transfer(msg.sender, balance) */\n      dup3\n      add\n        /* \"contracts/ArbOptV2.sol\":1616:23442  contract ArbOptimizer is Ownable, ReentrancyGuard, Pausable { ... */\n      mstore\n      0x24\n      dup2\n      add\n      dup5\n      swap1\n      mstore\n      swap1\n        /* \"contracts/ArbOptV2.sol\":19484:19494  msg.sender */\n      dup11\n        /* \"contracts/ArbOptV2.sol\":1616:23442  contract ArbOptimizer is Ownable, ReentrancyGuard, Pausable { ... */\n      dup3\n      0x44\n      dup2\n      dup5\n        /* \"contracts/ArbOptV2.sol\":19461:19504  IERC20(token).transfer(msg.sender, balance) */\n      dup8\n      gas\n      call\n      dup1\n      iszero\n      tag_226\n      jumpi\n      tag_902\n      jumpi\n        /* \"contracts/ArbOptV2.sol\":19433:19571  if (balance > 0) {... */\n    tag_903:\n        /* \"contracts/ArbOptV2.sol\":1616:23442  contract ArbOptimizer is Ownable, ReentrancyGuard, Pausable { ... */\n      pop\n      pop\n      mload(0x40)\n      swap2\n      dup3\n      mstore\n      0x00\n      dup1\n      mload\n      0x20\n      data_084f00436a29ddf9fe96da3f0df8ffde36506fc292725425a43a4251d44f1f53\n      dup4\n      codecopy\n      dup2\n      mload\n      swap2\n      mstore\n        /* \"contracts/ArbOptV2.sol\":19484:19494  msg.sender */\n      dup10\n      caller\n        /* \"contracts/ArbOptV2.sol\":19520:19563  ProfitWithdrawn(token, balance, msg.sender) */\n      swap4\n      log3\n        /* \"contracts/ArbOptV2.sol\":19433:19571  if (balance > 0) {... */\n      0x00\n      dup1\n      dup1\n      jump(tag_678)\n        /* \"contracts/ArbOptV2.sol\":19461:19504  IERC20(token).transfer(msg.sender, balance) */\n    tag_902:\n      dup11\n      dup3\n      dup2\n      returndatasize\n      dup4\n      gt\n      tag_904\n      jumpi\n    tag_905:\n      tag_906\n      dup2\n      dup4\n      tag_7\n      jump\t// in\n    tag_906:\n      dup2\n      add\n        /* \"contracts/ArbOptV2.sol\":1616:23442  contract ArbOptimizer is Ownable, ReentrancyGuard, Pausable { ... */\n      sub\n      slt\n      tag_126\n      jumpi\n      pop\n      tag_909\n      swap1\n      tag_14\n      jump\t// in\n    tag_909:\n      pop\n        /* \"contracts/ArbOptV2.sol\":19461:19504  IERC20(token).transfer(msg.sender, balance) */\n      0x00\n      dup1\n      jump(tag_903)\n    tag_904:\n      pop\n      returndatasize\n      jump(tag_905)\n        /* \"contracts/ArbOptV2.sol\":19388:19426  IERC20(token).balanceOf(address(this)) */\n    tag_675:\n      swap1\n      swap3\n      pop\n      dup10\n      dup2\n      dup2\n      returndatasize\n      dup4\n      gt\n      tag_910\n      jumpi\n    tag_911:\n      tag_912\n      dup2\n      dup4\n      tag_7\n      jump\t// in\n    tag_912:\n      dup2\n      add\n        /* \"contracts/ArbOptV2.sol\":1616:23442  contract ArbOptimizer is Ownable, ReentrancyGuard, Pausable { ... */\n      sub\n      slt\n      tag_217\n      jumpi\n        /* \"contracts/ArbOptV2.sol\":4738:4803  AggregatorV3Interface(0x5f4eC3Df9cbd43714FE2740f5E3616155c5b8419) */\n      mload\n        /* \"contracts/ArbOptV2.sol\":19388:19426  IERC20(token).balanceOf(address(this)) */\n      swap2\n      0x00\n      jump(tag_676)\n    tag_910:\n      pop\n      returndatasize\n      jump(tag_911)\n        /* \"contracts/ArbOptV2.sol\":19320:19352  arbExec.emergencyWithdraw(token) */\n    tag_671:\n      tag_915\n      swap1\n      tag_6\n      jump\t// in\n    tag_915:\n      0x00\n      jump(tag_672)\n        /* \"contracts/ArbOptV2.sol\":19433:19571  if (balance > 0) {... */\n    tag_667:\n        /* \"contracts/ArbOptV2.sol\":1616:23442  contract ArbOptimizer is Ownable, ReentrancyGuard, Pausable { ... */\n      mload(0x40)\n      shl(0xe0, 0xa9059cbb)\n        /* \"contracts/ArbOptV2.sol\":19461:19504  IERC20(token).transfer(msg.sender, balance) */\n      dup2\n      mstore\n        /* \"contracts/ArbOptV2.sol\":19484:19494  msg.sender */\n      caller\n        /* \"contracts/ArbOptV2.sol\":1616:23442  contract ArbOptimizer is Ownable, ReentrancyGuard, Pausable { ... */\n      0x04\n        /* \"contracts/ArbOptV2.sol\":19461:19504  IERC20(token).transfer(msg.sender, balance) */\n      dup3\n      add\n        /* \"contracts/ArbOptV2.sol\":1616:23442  contract ArbOptimizer is Ownable, ReentrancyGuard, Pausable { ... */\n      mstore\n      0x24\n      dup2\n      add\n      dup5\n      swap1\n      mstore\n      swap1\n        /* \"contracts/ArbOptV2.sol\":19484:19494  msg.sender */\n      dup11\n        /* \"contracts/ArbOptV2.sol\":1616:23442  contract ArbOptimizer is Ownable, ReentrancyGuard, Pausable { ... */\n      dup3\n      0x44\n      dup2\n      dup5\n        /* \"contracts/ArbOptV2.sol\":19461:19504  IERC20(token).transfer(msg.sender, balance) */\n      dup8\n      gas\n      call\n      dup1\n      iszero\n      tag_226\n      jumpi\n      tag_919\n      jumpi\n        /* \"contracts/ArbOptV2.sol\":19433:19571  if (balance > 0) {... */\n    tag_920:\n        /* \"contracts/ArbOptV2.sol\":1616:23442  contract ArbOptimizer is Ownable, ReentrancyGuard, Pausable { ... */\n      pop\n      pop\n      mload(0x40)\n      swap2\n      dup3\n      mstore\n      0x00\n      dup1\n      mload\n      0x20\n      data_084f00436a29ddf9fe96da3f0df8ffde36506fc292725425a43a4251d44f1f53\n      dup4\n      codecopy\n      dup2\n      mload\n      swap2\n      mstore\n        /* \"contracts/ArbOptV2.sol\":19484:19494  msg.sender */\n      dup10\n      caller\n        /* \"contracts/ArbOptV2.sol\":19520:19563  ProfitWithdrawn(token, balance, msg.sender) */\n      swap4\n      log3\n        /* \"contracts/ArbOptV2.sol\":19433:19571  if (balance > 0) {... */\n      0x00\n      dup1\n      dup1\n      jump(tag_668)\n        /* \"contracts/ArbOptV2.sol\":19461:19504  IERC20(token).transfer(msg.sender, balance) */\n    tag_919:\n      dup11\n      dup3\n      dup2\n      returndatasize\n      dup4\n      gt\n      tag_921\n      jumpi\n    tag_922:\n      tag_923\n      dup2\n      dup4\n      tag_7\n      jump\t// in\n    tag_923:\n      dup2\n      add\n        /* \"contracts/ArbOptV2.sol\":1616:23442  contract ArbOptimizer is Ownable, ReentrancyGuard, Pausable { ... */\n      sub\n      slt\n      tag_126\n      jumpi\n      pop\n      tag_926\n      swap1\n      tag_14\n      jump\t// in\n    tag_926:\n      pop\n        /* \"contracts/ArbOptV2.sol\":19461:19504  IERC20(token).transfer(msg.sender, balance) */\n      0x00\n      dup1\n      jump(tag_920)\n    tag_921:\n      pop\n      returndatasize\n      jump(tag_922)\n        /* \"contracts/ArbOptV2.sol\":19388:19426  IERC20(token).balanceOf(address(this)) */\n    tag_665:\n      swap1\n      swap3\n      pop\n      dup10\n      dup2\n      dup2\n      returndatasize\n      dup4\n      gt\n      tag_927\n      jumpi\n    tag_928:\n      tag_929\n      dup2\n      dup4\n      tag_7\n      jump\t// in\n    tag_929:\n      dup2\n      add\n        /* \"contracts/ArbOptV2.sol\":1616:23442  contract ArbOptimizer is Ownable, ReentrancyGuard, Pausable { ... */\n      sub\n      slt\n      tag_217\n      jumpi\n        /* \"contracts/ArbOptV2.sol\":4738:4803  AggregatorV3Interface(0x5f4eC3Df9cbd43714FE2740f5E3616155c5b8419) */\n      mload\n        /* \"contracts/ArbOptV2.sol\":19388:19426  IERC20(token).balanceOf(address(this)) */\n      swap2\n      0x00\n      jump(tag_666)\n    tag_927:\n      pop\n      returndatasize\n      jump(tag_928)\n        /* \"contracts/ArbOptV2.sol\":19320:19352  arbExec.emergencyWithdraw(token) */\n    tag_661:\n      tag_932\n      swap1\n      tag_6\n      jump\t// in\n    tag_932:\n      0x00\n      jump(tag_662)\n        /* \"contracts/ArbOptV2.sol\":19433:19571  if (balance > 0) {... */\n    tag_657:\n        /* \"contracts/ArbOptV2.sol\":1616:23442  contract ArbOptimizer is Ownable, ReentrancyGuard, Pausable { ... */\n      mload(0x40)\n      shl(0xe0, 0xa9059cbb)\n        /* \"contracts/ArbOptV2.sol\":19461:19504  IERC20(token).transfer(msg.sender, balance) */\n      dup2\n      mstore\n        /* \"contracts/ArbOptV2.sol\":19484:19494  msg.sender */\n      caller\n        /* \"contracts/ArbOptV2.sol\":1616:23442  contract ArbOptimizer is Ownable, ReentrancyGuard, Pausable { ... */\n      0x04\n        /* \"contracts/ArbOptV2.sol\":19461:19504  IERC20(token).transfer(msg.sender, balance) */\n      dup3\n      add\n        /* \"contracts/ArbOptV2.sol\":1616:23442  contract ArbOptimizer is Ownable, ReentrancyGuard, Pausable { ... */\n      mstore\n      0x24\n      dup2\n      add\n      dup5\n      swap1\n      mstore\n      swap1\n        /* \"contracts/ArbOptV2.sol\":19484:19494  msg.sender */\n      dup11\n        /* \"contracts/ArbOptV2.sol\":1616:23442  contract ArbOptimizer is Ownable, ReentrancyGuard, Pausable { ... */\n      dup3\n      0x44\n      dup2\n      dup5\n        /* \"contracts/ArbOptV2.sol\":19461:19504  IERC20(token).transfer(msg.sender, balance) */\n      dup8\n      gas\n      call\n      dup1\n      iszero\n      tag_226\n      jumpi\n      tag_936\n      jumpi\n        /* \"contracts/ArbOptV2.sol\":19433:19571  if (balance > 0) {... */\n    tag_937:\n        /* \"contracts/ArbOptV2.sol\":1616:23442  contract ArbOptimizer is Ownable, ReentrancyGuard, Pausable { ... */\n      pop\n      pop\n      mload(0x40)\n      swap2\n      dup3\n      mstore\n      0x00\n      dup1\n      mload\n      0x20\n      data_084f00436a29ddf9fe96da3f0df8ffde36506fc292725425a43a4251d44f1f53\n      dup4\n      codecopy\n      dup2\n      mload\n      swap2\n      mstore\n        /* \"contracts/ArbOptV2.sol\":19484:19494  msg.sender */\n      dup10\n      caller\n        /* \"contracts/ArbOptV2.sol\":19520:19563  ProfitWithdrawn(token, balance, msg.sender) */\n      swap4\n      log3\n        /* \"contracts/ArbOptV2.sol\":19433:19571  if (balance > 0) {... */\n      0x00\n      dup1\n      dup1\n      jump(tag_658)\n        /* \"contracts/ArbOptV2.sol\":19461:19504  IERC20(token).transfer(msg.sender, balance) */\n    tag_936:\n      dup11\n      dup3\n      dup2\n      returndatasize\n      dup4\n      gt\n      tag_938\n      jumpi\n    tag_939:\n      tag_940\n      dup2\n      dup4\n      tag_7\n      jump\t// in\n    tag_940:\n      dup2\n      add\n        /* \"contracts/ArbOptV2.sol\":1616:23442  contract ArbOptimizer is Ownable, ReentrancyGuard, Pausable { ... */\n      sub\n      slt\n      tag_126\n      jumpi\n      pop\n      tag_943\n      swap1\n      tag_14\n      jump\t// in\n    tag_943:\n      pop\n        /* \"contracts/ArbOptV2.sol\":19461:19504  IERC20(token).transfer(msg.sender, balance) */\n      0x00\n      dup1\n      jump(tag_937)\n    tag_938:\n      pop\n      returndatasize\n      jump(tag_939)\n        /* \"contracts/ArbOptV2.sol\":19388:19426  IERC20(token).balanceOf(address(this)) */\n    tag_655:\n      swap1\n      swap3\n      pop\n      dup10\n      dup2\n      dup2\n      returndatasize\n      dup4\n      gt\n      tag_944\n      jumpi\n    tag_945:\n      tag_946\n      dup2\n      dup4\n      tag_7\n      jump\t// in\n    tag_946:\n      dup2\n      add\n        /* \"contracts/ArbOptV2.sol\":1616:23442  contract ArbOptimizer is Ownable, ReentrancyGuard, Pausable { ... */\n      sub\n      slt\n      tag_217\n      jumpi\n        /* \"contracts/ArbOptV2.sol\":4738:4803  AggregatorV3Interface(0x5f4eC3Df9cbd43714FE2740f5E3616155c5b8419) */\n      mload\n        /* \"contracts/ArbOptV2.sol\":19388:19426  IERC20(token).balanceOf(address(this)) */\n      swap2\n      0x00\n      jump(tag_656)\n    tag_944:\n      pop\n      returndatasize\n      jump(tag_945)\n        /* \"contracts/ArbOptV2.sol\":19320:19352  arbExec.emergencyWithdraw(token) */\n    tag_651:\n      tag_949\n      swap1\n      tag_6\n      jump\t// in\n    tag_949:\n      0x00\n      jump(tag_652)\n        /* \"contracts/ArbOptV2.sol\":19433:19571  if (balance > 0) {... */\n    tag_647:\n        /* \"contracts/ArbOptV2.sol\":1616:23442  contract ArbOptimizer is Ownable, ReentrancyGuard, Pausable { ... */\n      mload(0x40)\n      shl(0xe0, 0xa9059cbb)\n        /* \"contracts/ArbOptV2.sol\":19461:19504  IERC20(token).transfer(msg.sender, balance) */\n      dup2\n      mstore\n        /* \"contracts/ArbOptV2.sol\":19484:19494  msg.sender */\n      caller\n        /* \"contracts/ArbOptV2.sol\":1616:23442  contract ArbOptimizer is Ownable, ReentrancyGuard, Pausable { ... */\n      0x04\n        /* \"contracts/ArbOptV2.sol\":19461:19504  IERC20(token).transfer(msg.sender, balance) */\n      dup3\n      add\n        /* \"contracts/ArbOptV2.sol\":1616:23442  contract ArbOptimizer is Ownable, ReentrancyGuard, Pausable { ... */\n      mstore\n      0x24\n      dup2\n      add\n      dup5\n      swap1\n      mstore\n      swap1\n        /* \"contracts/ArbOptV2.sol\":19484:19494  msg.sender */\n      dup11\n        /* \"contracts/ArbOptV2.sol\":1616:23442  contract ArbOptimizer is Ownable, ReentrancyGuard, Pausable { ... */\n      dup3\n      0x44\n      dup2\n      dup5\n        /* \"contracts/ArbOptV2.sol\":19461:19504  IERC20(token).transfer(msg.sender, balance) */\n      dup8\n      gas\n      call\n      dup1\n      iszero\n      tag_226\n      jumpi\n      tag_953\n      jumpi\n        /* \"contracts/ArbOptV2.sol\":19433:19571  if (balance > 0) {... */\n    tag_954:\n        /* \"contracts/ArbOptV2.sol\":1616:23442  contract ArbOptimizer is Ownable, ReentrancyGuard, Pausable { ... */\n      pop\n      pop\n      mload(0x40)\n      swap2\n      dup3\n      mstore\n      0x00\n      dup1\n      mload\n      0x20\n      data_084f00436a29ddf9fe96da3f0df8ffde36506fc292725425a43a4251d44f1f53\n      dup4\n      codecopy\n      dup2\n      mload\n      swap2\n      mstore\n        /* \"contracts/ArbOptV2.sol\":19484:19494  msg.sender */\n      dup10\n      caller\n        /* \"contracts/ArbOptV2.sol\":19520:19563  ProfitWithdrawn(token, balance, msg.sender) */\n      swap4\n      log3\n        /* \"contracts/ArbOptV2.sol\":19433:19571  if (balance > 0) {... */\n      0x00\n      dup1\n      dup1\n      jump(tag_648)\n        /* \"contracts/ArbOptV2.sol\":19461:19504  IERC20(token).transfer(msg.sender, balance) */\n    tag_953:\n      dup11\n      dup3\n      dup2\n      returndatasize\n      dup4\n      gt\n      tag_955\n      jumpi\n    tag_956:\n      tag_957\n      dup2\n      dup4\n      tag_7\n      jump\t// in\n    tag_957:\n      dup2\n      add\n        /* \"contracts/ArbOptV2.sol\":1616:23442  contract ArbOptimizer is Ownable, ReentrancyGuard, Pausable { ... */\n      sub\n      slt\n      tag_126\n      jumpi\n      pop\n      tag_960\n      swap1\n      tag_14\n      jump\t// in\n    tag_960:\n      pop\n        /* \"contracts/ArbOptV2.sol\":19461:19504  IERC20(token).transfer(msg.sender, balance) */\n      0x00\n      dup1\n      jump(tag_954)\n    tag_955:\n      pop\n      returndatasize\n      jump(tag_956)\n        /* \"contracts/ArbOptV2.sol\":19388:19426  IERC20(token).balanceOf(address(this)) */\n    tag_645:\n      swap1\n      swap3\n      pop\n      dup10\n      dup2\n      dup2\n      returndatasize\n      dup4\n      gt\n      tag_961\n      jumpi\n    tag_962:\n      tag_963\n      dup2\n      dup4\n      tag_7\n      jump\t// in\n    tag_963:\n      dup2\n      add\n        /* \"contracts/ArbOptV2.sol\":1616:23442  contract ArbOptimizer is Ownable, ReentrancyGuard, Pausable { ... */\n      sub\n      slt\n      tag_217\n      jumpi\n        /* \"contracts/ArbOptV2.sol\":4738:4803  AggregatorV3Interface(0x5f4eC3Df9cbd43714FE2740f5E3616155c5b8419) */\n      mload\n        /* \"contracts/ArbOptV2.sol\":19388:19426  IERC20(token).balanceOf(address(this)) */\n      swap2\n      0x00\n      jump(tag_646)\n    tag_961:\n      pop\n      returndatasize\n      jump(tag_962)\n        /* \"contracts/ArbOptV2.sol\":19320:19352  arbExec.emergencyWithdraw(token) */\n    tag_641:\n      tag_966\n      swap1\n      swap8\n      swap2\n      swap8\n      tag_6\n      jump\t// in\n    tag_966:\n      swap6\n      0x00\n      jump(tag_642)\n        /* \"contracts/ArbOptV2.sol\":1616:23442  contract ArbOptimizer is Ownable, ReentrancyGuard, Pausable { ... */\n    tag_66:\n      pop\n      jumpi(tag_126, callvalue)\n      dup1\n      add(calldatasize, not(0x03))\n      slt\n      tag_126\n      jumpi\n        /* \"@openzeppelin/contracts/access/Ownable.sol\":1546:1611  modifier onlyOwner() {... */\n      tag_971\n      tag_5\n      jump\t// in\n    tag_971:\n        /* \"@openzeppelin/contracts/security/Pausable.sol\":1247:1322  modifier whenNotPaused() {... */\n      tag_972\n      tag_18\n      jump\t// in\n    tag_972:\n        /* \"@openzeppelin/contracts/security/Pausable.sol\":2344:2348  true */\n      0x01\n        /* \"contracts/ArbOptV2.sol\":1616:23442  contract ArbOptimizer is Ownable, ReentrancyGuard, Pausable { ... */\n      not(0xff)\n        /* \"@openzeppelin/contracts/security/Pausable.sol\":2334:2348  _paused = true */\n      0x02\n        /* \"contracts/ArbOptV2.sol\":1616:23442  contract ArbOptimizer is Ownable, ReentrancyGuard, Pausable { ... */\n      sload\n      and\n      or\n        /* \"@openzeppelin/contracts/security/Pausable.sol\":2334:2348  _paused = true */\n      0x02\n        /* \"contracts/ArbOptV2.sol\":1616:23442  contract ArbOptimizer is Ownable, ReentrancyGuard, Pausable { ... */\n      sstore\n        /* \"@openzeppelin/contracts/security/Pausable.sol\":2364:2384  Paused(_msgSender()) */\n      0x62e78cea01bee320cd4e420270b5ea74000d11b0c9f74754ebdbfc544b05a258\n        /* \"contracts/ArbOptV2.sol\":1616:23442  contract ArbOptimizer is Ownable, ReentrancyGuard, Pausable { ... */\n      0x20\n      mload(0x40)\n        /* \"@openzeppelin/contracts/utils/Context.sol\":752:762  msg.sender */\n      caller\n        /* \"contracts/ArbOptV2.sol\":1616:23442  contract ArbOptimizer is Ownable, ReentrancyGuard, Pausable { ... */\n      dup2\n      mstore\n        /* \"@openzeppelin/contracts/security/Pausable.sol\":2364:2384  Paused(_msgSender()) */\n      log1\n        /* \"contracts/ArbOptV2.sol\":1616:23442  contract ArbOptimizer is Ownable, ReentrancyGuard, Pausable { ... */\n      dup1\n      return\n    tag_64:\n      pop\n      jumpi(tag_126, callvalue)\n      dup1\n      add(calldatasize, not(0x03))\n      slt\n      tag_126\n      jumpi\n      0x20\n        /* \"contracts/ArbOptV2.sol\":7042:7074  uint256 public lastExecutionTime */\n      0x0c\n        /* \"contracts/ArbOptV2.sol\":1616:23442  contract ArbOptimizer is Ownable, ReentrancyGuard, Pausable { ... */\n      sload\n      mload(0x40)\n      swap1\n      dup2\n      mstore\n      return\n    tag_62:\n      pop\n      jumpi(tag_126, callvalue)\n      0x20\n      dup1\n      add(calldatasize, not(0x03))\n      slt\n      tag_220\n      jumpi\n        /* \"contracts/ArbOptV2.sol\":12994:13001  arbExec */\n      0x02\n        /* \"contracts/ArbOptV2.sol\":1616:23442  contract ArbOptimizer is Ownable, ReentrancyGuard, Pausable { ... */\n      sload\n      mload(0x40)\n      shl(0xe0, 0x32252057)\n        /* \"contracts/ArbOptV2.sol\":12994:13017  arbExec.getRouteCount() */\n      dup2\n      mstore\n        /* \"contracts/ArbOptV2.sol\":1616:23442  contract ArbOptimizer is Ownable, ReentrancyGuard, Pausable { ... */\n      swap3\n      0x04\n      dup1\n      calldataload\n      swap4\n      swap2\n      swap3\n      dup3\n      swap2\n      dup7\n      swap2\n      dup3\n      swap1\n      0x08\n      shr\n      sub(shl(0xa0, 0x01), 0x01)\n      and\n        /* \"contracts/ArbOptV2.sol\":12994:13017  arbExec.getRouteCount() */\n      gas\n      staticcall\n      swap4\n      dup5\n      iszero\n      tag_174\n      jumpi\n      dup3\n      swap5\n      tag_983\n      jumpi\n        /* \"contracts/ArbOptV2.sol\":1616:23442  contract ArbOptimizer is Ownable, ReentrancyGuard, Pausable { ... */\n    tag_984:\n        /* \"contracts/ArbOptV2.sol\":13032:13046  routeCount > 0 */\n      pop\n      dup4\n      iszero\n        /* \"contracts/ArbOptV2.sol\":1616:23442  contract ArbOptimizer is Ownable, ReentrancyGuard, Pausable { ... */\n      tag_985\n      jumpi\n      pop\n        /* \"contracts/ArbOptV2.sol\":13077:13151  require(flashLoanAmount >= minFlashLoanAmount, \"Below minimum flash loan\") */\n      tag_987\n        /* \"contracts/ArbOptV2.sol\":13104:13122  minFlashLoanAmount */\n      0x07\n        /* \"contracts/ArbOptV2.sol\":1616:23442  contract ArbOptimizer is Ownable, ReentrancyGuard, Pausable { ... */\n      sload\n        /* \"contracts/ArbOptV2.sol\":13085:13122  flashLoanAmount >= minFlashLoanAmount */\n      dup4\n      lt\n      iszero\n        /* \"contracts/ArbOptV2.sol\":13077:13151  require(flashLoanAmount >= minFlashLoanAmount, \"Below minimum flash loan\") */\n      tag_10\n      jump\t// in\n    tag_987:\n        /* \"contracts/ArbOptV2.sol\":13158:13234  require(flashLoanAmount <= maxFlashLoanAmount, \"Exceeds maximum flash loan\") */\n      tag_988\n        /* \"contracts/ArbOptV2.sol\":1616:23442  contract ArbOptimizer is Ownable, ReentrancyGuard, Pausable { ... */\n      sload(0x08)\n        /* \"contracts/ArbOptV2.sol\":13166:13203  flashLoanAmount <= maxFlashLoanAmount */\n      dup4\n      gt\n      iszero\n        /* \"contracts/ArbOptV2.sol\":13158:13234  require(flashLoanAmount <= maxFlashLoanAmount, \"Exceeds maximum flash loan\") */\n      tag_11\n      jump\t// in\n    tag_988:\n        /* \"contracts/ArbOptV2.sol\":13243:13260  highestProfit = 0 */\n      dup1\n        /* \"contracts/ArbOptV2.sol\":13267:13285  bestRouteIndex = 0 */\n      swap3\n      dup2\n        /* \"contracts/ArbOptV2.sol\":13292:13312  isProfitable = false */\n      swap3\n      dup3\n        /* \"contracts/ArbOptV2.sol\":13326:13339  uint256 i = 0 */\n      dup1\n        /* \"contracts/ArbOptV2.sol\":13341:13355  i < routeCount */\n    tag_989:\n      dup4\n      dup2\n      lt\n      tag_990\n      jumpi\n        /* \"contracts/ArbOptV2.sol\":1616:23442  contract ArbOptimizer is Ownable, ReentrancyGuard, Pausable { ... */\n      0x40\n      dup1\n      mload\n      dup8\n      dup2\n      mstore\n      0x20\n      dup2\n      add\n      dup10\n      swap1\n      mstore\n      dup7\n      iszero\n      iszero\n      swap2\n      dup2\n      add\n      swap2\n      swap1\n      swap2\n      mstore\n      0x60\n      swap1\n      return\n        /* \"contracts/ArbOptV2.sol\":13357:13360  i++ */\n    tag_990:\n        /* \"contracts/ArbOptV2.sol\":1616:23442  contract ArbOptimizer is Ownable, ReentrancyGuard, Pausable { ... */\n      mload(0x40)\n        /* \"contracts/ArbOptV2.sol\":4738:4803  AggregatorV3Interface(0x5f4eC3Df9cbd43714FE2740f5E3616155c5b8419) */\n      shl(0xe0, 0x9517ed85)\n        /* \"contracts/ArbOptV2.sol\":13377:13414  this.analyzeRoute(i, flashLoanAmount) */\n      dup2\n      mstore\n      dup2\n        /* \"contracts/ArbOptV2.sol\":1616:23442  contract ArbOptimizer is Ownable, ReentrancyGuard, Pausable { ... */\n      0x04\n        /* \"contracts/ArbOptV2.sol\":13377:13414  this.analyzeRoute(i, flashLoanAmount) */\n      dup3\n      add\n        /* \"contracts/ArbOptV2.sol\":1616:23442  contract ArbOptimizer is Ownable, ReentrancyGuard, Pausable { ... */\n      mstore\n      dup4\n      0x24\n      dup3\n      add\n      mstore\n      0x40\n        /* \"contracts/ArbOptV2.sol\":13377:13381  this */\n      dup2\n        /* \"contracts/ArbOptV2.sol\":1616:23442  contract ArbOptimizer is Ownable, ReentrancyGuard, Pausable { ... */\n      0x44\n        /* \"contracts/ArbOptV2.sol\":13377:13381  this */\n      dup2\n      dup7\n      address\n        /* \"contracts/ArbOptV2.sol\":13377:13414  this.analyzeRoute(i, flashLoanAmount) */\n      gas\n      call\n      swap1\n      dup2\n      dup5\n      swap2\n      dup6\n      swap4\n      tag_993\n      jumpi\n        /* \"contracts/ArbOptV2.sol\":13357:13360  i++ */\n    tag_994:\n      pop\n        /* \"contracts/ArbOptV2.sol\":13373:13691  try this.analyzeRoute(i, flashLoanAmount) returns (uint256 profit, bool profitable) {... */\n      tag_995\n      jumpi\n        /* \"contracts/ArbOptV2.sol\":13671:13679  continue */\n      pop\n      pop\n        /* \"contracts/ArbOptV2.sol\":13357:13360  i++ */\n      tag_997\n        /* \"contracts/ArbOptV2.sol\":13671:13679  continue */\n      swap1\n        /* \"contracts/ArbOptV2.sol\":13357:13360  i++ */\n      tag_16\n      jump\t// in\n    tag_997:\n        /* \"contracts/ArbOptV2.sol\":13326:13339  uint256 i = 0 */\n      jump(tag_989)\n        /* \"contracts/ArbOptV2.sol\":13373:13691  try this.analyzeRoute(i, flashLoanAmount) returns (uint256 profit, bool profitable) {... */\n    tag_995:\n        /* \"contracts/ArbOptV2.sol\":13476:13498  profit > highestProfit */\n      dup9\n      dup2\n      gt\n        /* \"contracts/ArbOptV2.sol\":13472:13638  if (profit > highestProfit) {... */\n      tag_999\n      jumpi\n        /* \"contracts/ArbOptV2.sol\":13373:13691  try this.analyzeRoute(i, flashLoanAmount) returns (uint256 profit, bool profitable) {... */\n    tag_1000:\n      pop\n      pop\n        /* \"contracts/ArbOptV2.sol\":13357:13360  i++ */\n      tag_997\n        /* \"contracts/ArbOptV2.sol\":13373:13691  try this.analyzeRoute(i, flashLoanAmount) returns (uint256 profit, bool profitable) {... */\n      swap1\n        /* \"contracts/ArbOptV2.sol\":13357:13360  i++ */\n      tag_16\n      jump\t// in\n        /* \"contracts/ArbOptV2.sol\":13472:13638  if (profit > highestProfit) {... */\n    tag_999:\n        /* \"contracts/ArbOptV2.sol\":13519:13541  highestProfit = profit */\n      swap8\n      pop\n      swap1\n      swap6\n      pop\n      swap4\n      pop\n      dup5\n        /* \"contracts/ArbOptV2.sol\":13357:13360  i++ */\n      tag_997\n        /* \"contracts/ArbOptV2.sol\":13472:13638  if (profit > highestProfit) {... */\n      0x00\n      jump(tag_1000)\n        /* \"contracts/ArbOptV2.sol\":13377:13414  this.analyzeRoute(i, flashLoanAmount) */\n    tag_993:\n      swap1\n      swap3\n      pop\n      tag_1001\n      swap2\n      pop\n        /* \"contracts/ArbOptV2.sol\":1616:23442  contract ArbOptimizer is Ownable, ReentrancyGuard, Pausable { ... */\n      0x40\n        /* \"contracts/ArbOptV2.sol\":13377:13414  this.analyzeRoute(i, flashLoanAmount) */\n      returndatasize\n        /* \"contracts/ArbOptV2.sol\":1616:23442  contract ArbOptimizer is Ownable, ReentrancyGuard, Pausable { ... */\n      0x40\n        /* \"contracts/ArbOptV2.sol\":13377:13414  this.analyzeRoute(i, flashLoanAmount) */\n      gt\n      tag_468\n      jumpi\n      tag_470\n      dup2\n      dup4\n      tag_7\n      jump\t// in\n    tag_1001:\n      swap2\n      0x00\n      jump(tag_994)\n        /* \"contracts/ArbOptV2.sol\":1616:23442  contract ArbOptimizer is Ownable, ReentrancyGuard, Pausable { ... */\n    tag_985:\n      0x64\n      swap1\n      mload(0x40)\n      swap1\n      shl(0xe5, 0x461bcd)\n      dup3\n      mstore\n      0x04\n      dup3\n      add\n      mstore\n      0x13\n      0x24\n      dup3\n      add\n      mstore\n      shl(0x68, 0x4e6f20726f7574657320617661696c61626c65)\n      0x44\n      dup3\n      add\n      mstore\n      revert\n        /* \"contracts/ArbOptV2.sol\":12994:13017  arbExec.getRouteCount() */\n    tag_983:\n      swap1\n      dup1\n      swap5\n      pop\n      dup2\n      dup2\n      returndatasize\n      dup4\n      gt\n      tag_1005\n      jumpi\n    tag_1006:\n      tag_1007\n      dup2\n      dup4\n      tag_7\n      jump\t// in\n    tag_1007:\n      dup2\n      add\n        /* \"contracts/ArbOptV2.sol\":1616:23442  contract ArbOptimizer is Ownable, ReentrancyGuard, Pausable { ... */\n      sub\n      slt\n      tag_217\n      jumpi\n        /* \"contracts/ArbOptV2.sol\":4738:4803  AggregatorV3Interface(0x5f4eC3Df9cbd43714FE2740f5E3616155c5b8419) */\n      mload\n        /* \"contracts/ArbOptV2.sol\":12994:13017  arbExec.getRouteCount() */\n      swap3\n      0x00\n      jump(tag_984)\n    tag_1005:\n      pop\n      returndatasize\n      jump(tag_1006)\n        /* \"contracts/ArbOptV2.sol\":1616:23442  contract ArbOptimizer is Ownable, ReentrancyGuard, Pausable { ... */\n    tag_60:\n      pop\n      jumpi(tag_126, callvalue)\n      dup1\n      add(calldatasize, not(0x03))\n      slt\n      tag_126\n      jumpi\n        /* \"@openzeppelin/contracts/access/Ownable.sol\":1546:1611  modifier onlyOwner() {... */\n      tag_1014\n      tag_5\n      jump\t// in\n    tag_1014:\n        /* \"contracts/ArbOptV2.sol\":1616:23442  contract ArbOptimizer is Ownable, ReentrancyGuard, Pausable { ... */\n      0x00\n      dup1\n      sload\n      not(sub(shl(0xa0, 0x01), 0x01))\n      dup2\n      and\n      dup3\n      sstore\n      sub(shl(0xa0, 0x01), 0x01)\n      and\n        /* \"@openzeppelin/contracts/access/Ownable.sol\":3148:3188  OwnershipTransferred(oldOwner, newOwner) */\n      0x8be0079c531659141344cd1fd0a4f28419497f9722a3daafe3b4186f6b6457e0\n        /* \"contracts/ArbOptV2.sol\":1616:23442  contract ArbOptimizer is Ownable, ReentrancyGuard, Pausable { ... */\n      dup3\n      dup1\n        /* \"@openzeppelin/contracts/access/Ownable.sol\":3148:3188  OwnershipTransferred(oldOwner, newOwner) */\n      log3\n        /* \"contracts/ArbOptV2.sol\":1616:23442  contract ArbOptimizer is Ownable, ReentrancyGuard, Pausable { ... */\n      dup1\n      return\n    tag_58:\n      pop\n      jumpi(tag_126, callvalue)\n      dup1\n      add(calldatasize, not(0x03))\n      slt\n      tag_126\n      jumpi\n      0x20\n        /* \"contracts/ArbOptV2.sol\":22062:22083  address(this).balance */\n      selfbalance\n        /* \"contracts/ArbOptV2.sol\":1616:23442  contract ArbOptimizer is Ownable, ReentrancyGuard, Pausable { ... */\n      mload(0x40)\n      swap1\n      dup2\n      mstore\n      return\n    tag_56:\n      pop\n      jumpi(tag_126, callvalue)\n      dup1\n      add(calldatasize, not(0x03))\n      slt\n      tag_126\n      jumpi\n      0x20\n        /* \"contracts/ArbOptV2.sol\":6793:6833  uint256 public minFlashLoanAmount = 1e18 */\n      0x07\n        /* \"contracts/ArbOptV2.sol\":1616:23442  contract ArbOptimizer is Ownable, ReentrancyGuard, Pausable { ... */\n      sload\n      mload(0x40)\n      swap1\n      dup2\n      mstore\n      return\n    tag_54:\n      pop\n      jumpi(tag_126, callvalue)\n      jumpi(tag_126, slt(add(not(0x03), calldatasize), 0x20))\n      0x00\n      dup1\n      mload\n      0x20\n      data_85fcec988403e367a9c095d79cbc6a0a812bce994f18f13f6c96747afa79ec6e\n      dup4\n      codecopy\n      dup2\n      mload\n      swap2\n      mstore\n      calldataload(0x04)\n        /* \"@openzeppelin/contracts/access/Ownable.sol\":1546:1611  modifier onlyOwner() {... */\n      tag_1027\n      tag_5\n      jump\t// in\n    tag_1027:\n        /* \"contracts/ArbOptV2.sol\":8410:8476  require(_amount >= minFlashLoanAmount, \"Below minimum flash loan\") */\n      tag_1028\n        /* \"contracts/ArbOptV2.sol\":8429:8447  minFlashLoanAmount */\n      0x07\n        /* \"contracts/ArbOptV2.sol\":1616:23442  contract ArbOptimizer is Ownable, ReentrancyGuard, Pausable { ... */\n      sload\n        /* \"contracts/ArbOptV2.sol\":8418:8447  _amount >= minFlashLoanAmount */\n      dup3\n      lt\n      iszero\n        /* \"contracts/ArbOptV2.sol\":8410:8476  require(_amount >= minFlashLoanAmount, \"Below minimum flash loan\") */\n      tag_10\n      jump\t// in\n    tag_1028:\n        /* \"contracts/ArbOptV2.sol\":8483:8551  require(_amount <= maxFlashLoanAmount, \"Exceeds maximum flash loan\") */\n      tag_1029\n        /* \"contracts/ArbOptV2.sol\":8502:8520  maxFlashLoanAmount */\n      0x08\n        /* \"contracts/ArbOptV2.sol\":1616:23442  contract ArbOptimizer is Ownable, ReentrancyGuard, Pausable { ... */\n      sload\n        /* \"contracts/ArbOptV2.sol\":8491:8520  _amount <= maxFlashLoanAmount */\n      dup3\n      gt\n      iszero\n        /* \"contracts/ArbOptV2.sol\":8483:8551  require(_amount <= maxFlashLoanAmount, \"Exceeds maximum flash loan\") */\n      tag_11\n      jump\t// in\n    tag_1029:\n        /* \"contracts/ArbOptV2.sol\":1616:23442  contract ArbOptimizer is Ownable, ReentrancyGuard, Pausable { ... */\n      0x03\n      dup2\n      swap1\n      sstore\n      sload(0x04)\n        /* \"contracts/ArbOptV2.sol\":8693:8709  userMinProfitBps */\n      0x05\n        /* \"contracts/ArbOptV2.sol\":1616:23442  contract ArbOptimizer is Ownable, ReentrancyGuard, Pausable { ... */\n      sload\n        /* \"contracts/ArbOptV2.sol\":8720:8739  userMinProfitAmount */\n      0x06\n        /* \"contracts/ArbOptV2.sol\":1616:23442  contract ArbOptimizer is Ownable, ReentrancyGuard, Pausable { ... */\n      sload\n      0x40\n      dup1\n      mload\n      swap5\n      dup6\n      mstore\n      0x20\n      dup6\n      add\n      swap4\n      swap1\n      swap4\n      mstore\n      swap2\n      dup4\n      add\n      mstore\n      0x60\n      dup3\n      add\n      mstore\n      dup1\n      0x80\n      dup2\n      add\n        /* \"contracts/ArbOptV2.sol\":8599:8746  UserParametersUpdated(... */\n      tag_134\n        /* \"contracts/ArbOptV2.sol\":1616:23442  contract ArbOptimizer is Ownable, ReentrancyGuard, Pausable { ... */\n      jump\n    tag_52:\n      pop\n      jumpi(tag_126, callvalue)\n      dup1\n      add(calldatasize, not(0x03))\n      slt\n      tag_126\n      jumpi\n      0x20\n      0xff\n        /* \"@openzeppelin/contracts/security/Pausable.sol\":1749:1756  _paused */\n      0x02\n        /* \"contracts/ArbOptV2.sol\":1616:23442  contract ArbOptimizer is Ownable, ReentrancyGuard, Pausable { ... */\n      sload\n      and\n      mload(0x40)\n      swap1\n      iszero\n      iszero\n      dup2\n      mstore\n      return\n    tag_50:\n      pop\n      jumpi(tag_126, callvalue)\n      jumpi(tag_126, slt(add(not(0x03), calldatasize), 0x20))\n      0x00\n      dup1\n      mload\n      0x20\n      data_85fcec988403e367a9c095d79cbc6a0a812bce994f18f13f6c96747afa79ec6e\n      dup4\n      codecopy\n      dup2\n      mload\n      swap2\n      mstore\n      calldataload(0x04)\n        /* \"@openzeppelin/contracts/access/Ownable.sol\":1546:1611  modifier onlyOwner() {... */\n      tag_1039\n      tag_5\n      jump\t// in\n    tag_1039:\n        /* \"contracts/ArbOptV2.sol\":1616:23442  contract ArbOptimizer is Ownable, ReentrancyGuard, Pausable { ... */\n      dup1\n        /* \"contracts/ArbOptV2.sol\":10028:10066  userMinProfitAmount = _minProfitAmount */\n      0x06\n        /* \"contracts/ArbOptV2.sol\":1616:23442  contract ArbOptimizer is Ownable, ReentrancyGuard, Pausable { ... */\n      sstore\n      sload(0x03)\n        /* \"contracts/ArbOptV2.sol\":10078:10225  UserParametersUpdated(... */\n      tag_134\n        /* \"contracts/ArbOptV2.sol\":1616:23442  contract ArbOptimizer is Ownable, ReentrancyGuard, Pausable { ... */\n      sload(0x04)\n      swap3\n        /* \"contracts/ArbOptV2.sol\":10172:10188  userMinProfitBps */\n      0x05\n        /* \"contracts/ArbOptV2.sol\":1616:23442  contract ArbOptimizer is Ownable, ReentrancyGuard, Pausable { ... */\n      sload\n      mload(0x40)\n        /* \"contracts/ArbOptV2.sol\":10078:10225  UserParametersUpdated(... */\n      swap5\n      dup6\n      swap5\n      dup6\n        /* \"contracts/ArbOptV2.sol\":1616:23442  contract ArbOptimizer is Ownable, ReentrancyGuard, Pausable { ... */\n      swap1\n      swap5\n      swap4\n      swap3\n      0x60\n      swap3\n      0x80\n      dup4\n      add\n      swap7\n      dup4\n      mstore\n      0x20\n      dup4\n      add\n      mstore\n      0x40\n      dup3\n      add\n      mstore\n      add\n      mstore\n      jump\n    tag_48:\n      pop\n      jumpi(tag_126, callvalue)\n      dup1\n      add(calldatasize, not(0x03))\n      slt\n      tag_126\n      jumpi\n      0x20\n      sload(0x04)\n      mload(0x40)\n      swap1\n      dup2\n      mstore\n      return\n    tag_46:\n      pop\n      jumpi(tag_126, callvalue)\n      dup1\n      add(calldatasize, not(0x03))\n      slt\n      tag_126\n      jumpi\n        /* \"@openzeppelin/contracts/security/ReentrancyGuard.sol\":2276:2383  modifier nonReentrant() {... */\n      tag_1049\n      tag_19\n      jump\t// in\n    tag_1049:\n        /* \"@openzeppelin/contracts/access/Ownable.sol\":1546:1611  modifier onlyOwner() {... */\n      tag_1050\n      tag_5\n      jump\t// in\n    tag_1050:\n        /* \"contracts/ArbOptV2.sol\":16331:16338  arbExec */\n      0x02\n        /* \"contracts/ArbOptV2.sol\":1616:23442  contract ArbOptimizer is Ownable, ReentrancyGuard, Pausable { ... */\n      sload\n      0x08\n      shr\n      sub(shl(0xa0, 0x01), 0x01)\n      and\n        /* \"contracts/ArbOptV2.sol\":16331:16362  arbExec.emergencyWithdraw(WETH) */\n      dup1\n      extcodesize\n      iszero\n      tag_220\n      jumpi\n        /* \"contracts/ArbOptV2.sol\":1616:23442  contract ArbOptimizer is Ownable, ReentrancyGuard, Pausable { ... */\n      dup2\n      mload(0x40)\n        /* \"contracts/ArbOptV2.sol\":4738:4803  AggregatorV3Interface(0x5f4eC3Df9cbd43714FE2740f5E3616155c5b8419) */\n      shl(0xe2, 0x1bfc726f)\n        /* \"contracts/ArbOptV2.sol\":16331:16362  arbExec.emergencyWithdraw(WETH) */\n      dup2\n      mstore\n        /* \"contracts/ArbOptV2.sol\":2354:2396  0xC02aaA39b223FE8D0A0e5C4F27eAD9083C756Cc2 */\n      dup2\n      dup2\n        /* \"contracts/ArbOptV2.sol\":1616:23442  contract ArbOptimizer is Ownable, ReentrancyGuard, Pausable { ... */\n      0x24\n        /* \"contracts/ArbOptV2.sol\":2354:2396  0xC02aaA39b223FE8D0A0e5C4F27eAD9083C756Cc2 */\n      dup2\n      dup4\n      0xc02aaa39b223fe8d0a0e5c4f27ead9083c756cc2\n        /* \"contracts/ArbOptV2.sol\":16331:16362  arbExec.emergencyWithdraw(WETH) */\n      swap8\n      dup9\n        /* \"contracts/ArbOptV2.sol\":1616:23442  contract ArbOptimizer is Ownable, ReentrancyGuard, Pausable { ... */\n      0x04\n        /* \"contracts/ArbOptV2.sol\":16331:16362  arbExec.emergencyWithdraw(WETH) */\n      dup5\n      add\n        /* \"contracts/ArbOptV2.sol\":1616:23442  contract ArbOptimizer is Ownable, ReentrancyGuard, Pausable { ... */\n      mstore\n        /* \"contracts/ArbOptV2.sol\":16331:16362  arbExec.emergencyWithdraw(WETH) */\n      gas\n      call\n      dup1\n      iszero\n      tag_174\n      jumpi\n      tag_195\n      jumpi\n      pop\n      pop\n        /* \"contracts/ArbOptV2.sol\":1616:23442  contract ArbOptimizer is Ownable, ReentrancyGuard, Pausable { ... */\n      mload(0x40)\n      shl(0xe0, 0x70a08231)\n        /* \"contracts/ArbOptV2.sol\":16387:16424  IERC20(WETH).balanceOf(address(this)) */\n      dup2\n      mstore\n        /* \"contracts/ArbOptV2.sol\":16418:16422  this */\n      address\n        /* \"contracts/ArbOptV2.sol\":1616:23442  contract ArbOptimizer is Ownable, ReentrancyGuard, Pausable { ... */\n      0x04\n        /* \"contracts/ArbOptV2.sol\":16387:16424  IERC20(WETH).balanceOf(address(this)) */\n      dup3\n      add\n        /* \"contracts/ArbOptV2.sol\":1616:23442  contract ArbOptimizer is Ownable, ReentrancyGuard, Pausable { ... */\n      mstore\n      swap1\n      0x20\n      dup1\n      dup4\n      0x24\n      dup2\n        /* \"contracts/ArbOptV2.sol\":4738:4803  AggregatorV3Interface(0x5f4eC3Df9cbd43714FE2740f5E3616155c5b8419) */\n      dup6\n        /* \"contracts/ArbOptV2.sol\":16387:16424  IERC20(WETH).balanceOf(address(this)) */\n      gas\n      staticcall\n      swap3\n      dup4\n      iszero\n      tag_197\n      jumpi\n      dup5\n      swap4\n      tag_199\n      jumpi\n        /* \"contracts/ArbOptV2.sol\":16435:16446  balance > 0 */\n      pop\n      dup3\n        /* \"contracts/ArbOptV2.sol\":16431:16567  if (balance > 0) {... */\n      tag_201\n      jumpi\n        /* \"contracts/ArbOptV2.sol\":1616:23442  contract ArbOptimizer is Ownable, ReentrancyGuard, Pausable { ... */\n      dup4\n      0x01\n      dup1\n      sstore\n      dup1\n      return\n    tag_44:\n      pop\n      jumpi(tag_126, callvalue)\n      dup1\n      add(calldatasize, not(0x03))\n      slt\n      tag_126\n      jumpi\n        /* \"@openzeppelin/contracts/access/Ownable.sol\":1546:1611  modifier onlyOwner() {... */\n      tag_1086\n      tag_5\n      jump\t// in\n    tag_1086:\n        /* \"@openzeppelin/contracts/security/Pausable.sol\":1749:1756  _paused */\n      0x02\n        /* \"contracts/ArbOptV2.sol\":1616:23442  contract ArbOptimizer is Ownable, ReentrancyGuard, Pausable { ... */\n      sload\n      0xff\n      dup2\n      and\n      iszero\n      tag_1087\n      jumpi\n      not(0xff)\n      and\n        /* \"@openzeppelin/contracts/security/Pausable.sol\":1749:1756  _paused */\n      0x02\n        /* \"contracts/ArbOptV2.sol\":1616:23442  contract ArbOptimizer is Ownable, ReentrancyGuard, Pausable { ... */\n      sstore\n        /* \"@openzeppelin/contracts/security/Pausable.sol\":2623:2645  Unpaused(_msgSender()) */\n      0x5db9ee0a495bf2e6ff9c91a7834c1ba4fdd244a5e8aa4e537bd38aeae4b073aa\n        /* \"contracts/ArbOptV2.sol\":1616:23442  contract ArbOptimizer is Ownable, ReentrancyGuard, Pausable { ... */\n      0x20\n      mload(0x40)\n        /* \"@openzeppelin/contracts/utils/Context.sol\":752:762  msg.sender */\n      caller\n        /* \"contracts/ArbOptV2.sol\":1616:23442  contract ArbOptimizer is Ownable, ReentrancyGuard, Pausable { ... */\n      dup2\n      mstore\n        /* \"@openzeppelin/contracts/security/Pausable.sol\":2623:2645  Unpaused(_msgSender()) */\n      log1\n        /* \"contracts/ArbOptV2.sol\":1616:23442  contract ArbOptimizer is Ownable, ReentrancyGuard, Pausable { ... */\n      dup1\n      return\n    tag_1087:\n      mload(0x40)\n      shl(0xe5, 0x461bcd)\n      dup2\n      mstore\n      0x20\n      0x04\n      dup3\n      add\n      mstore\n      0x14\n      0x24\n      dup3\n      add\n      mstore\n      shl(0x62, 0x14185d5cd8589b194e881b9bdd081c185d5cd959)\n      0x44\n      dup3\n      add\n      mstore\n      0x64\n      swap1\n      revert\n    tag_42:\n      pop\n      jumpi(tag_126, callvalue)\n      0x20\n      swap1\n      dup2\n      add(calldatasize, not(0x03))\n      slt\n      tag_126\n      jumpi\n      calldataload(0x04)\n      sub(shl(0xa0, 0x01), 0x01)\n      dup2\n      and\n      swap1\n      dup2\n      swap1\n      sub\n      tag_220\n      jumpi\n      dup3\n      0x24\n      swap2\n      mload(0x40)\n        /* \"contracts/ArbOptV2.sol\":4738:4803  AggregatorV3Interface(0x5f4eC3Df9cbd43714FE2740f5E3616155c5b8419) */\n      swap3\n      dup4\n      dup1\n      swap3\n      shl(0xe0, 0x70a08231)\n        /* \"contracts/ArbOptV2.sol\":21890:21928  IERC20(token).balanceOf(address(this)) */\n      dup3\n      mstore\n        /* \"contracts/ArbOptV2.sol\":21922:21926  this */\n      address\n        /* \"contracts/ArbOptV2.sol\":1616:23442  contract ArbOptimizer is Ownable, ReentrancyGuard, Pausable { ... */\n      0x04\n        /* \"contracts/ArbOptV2.sol\":21890:21928  IERC20(token).balanceOf(address(this)) */\n      dup4\n      add\n        /* \"contracts/ArbOptV2.sol\":1616:23442  contract ArbOptimizer is Ownable, ReentrancyGuard, Pausable { ... */\n      mstore\n        /* \"contracts/ArbOptV2.sol\":21890:21928  IERC20(token).balanceOf(address(this)) */\n      gas\n      staticcall\n      swap2\n      dup3\n      iszero\n      tag_569\n      jumpi\n      swap2\n      tag_1097\n      jumpi\n        /* \"contracts/ArbOptV2.sol\":1616:23442  contract ArbOptimizer is Ownable, ReentrancyGuard, Pausable { ... */\n    tag_1098:\n      pop\n      mload(0x40)\n      swap1\n      dup2\n      mstore\n      return\n        /* \"contracts/ArbOptV2.sol\":21890:21928  IERC20(token).balanceOf(address(this)) */\n    tag_1097:\n      swap1\n      pop\n      dup2\n      dup2\n      dup2\n      returndatasize\n      dup4\n      gt\n      tag_1099\n      jumpi\n    tag_1100:\n      tag_1101\n      dup2\n      dup4\n      tag_7\n      jump\t// in\n    tag_1101:\n      dup2\n      add\n        /* \"contracts/ArbOptV2.sol\":1616:23442  contract ArbOptimizer is Ownable, ReentrancyGuard, Pausable { ... */\n      sub\n      slt\n      tag_217\n      jumpi\n        /* \"contracts/ArbOptV2.sol\":4738:4803  AggregatorV3Interface(0x5f4eC3Df9cbd43714FE2740f5E3616155c5b8419) */\n      mload\n        /* \"contracts/ArbOptV2.sol\":21890:21928  IERC20(token).balanceOf(address(this)) */\n      0x00\n      jump(tag_1098)\n    tag_1099:\n      pop\n      returndatasize\n      jump(tag_1100)\n        /* \"contracts/ArbOptV2.sol\":1616:23442  contract ArbOptimizer is Ownable, ReentrancyGuard, Pausable { ... */\n    tag_40:\n      pop\n      jumpi(tag_126, callvalue)\n      dup1\n      add(calldatasize, not(0x03))\n      slt\n      tag_126\n      jumpi\n      0x20\n        /* \"contracts/ArbOptV2.sol\":6904:6945  uint256 public minProfitBpsThreshold = 50 */\n      0x09\n        /* \"contracts/ArbOptV2.sol\":1616:23442  contract ArbOptimizer is Ownable, ReentrancyGuard, Pausable { ... */\n      sload\n      mload(0x40)\n      swap1\n      dup2\n      mstore\n      return\n    tag_38:\n      pop\n      jumpi(tag_126, callvalue)\n      dup1\n      add(calldatasize, not(0x03))\n      slt\n      tag_126\n      jumpi\n        /* \"@openzeppelin/contracts/security/ReentrancyGuard.sol\":2276:2383  modifier nonReentrant() {... */\n      tag_1112\n      tag_19\n      jump\t// in\n    tag_1112:\n        /* \"@openzeppelin/contracts/access/Ownable.sol\":1546:1611  modifier onlyOwner() {... */\n      tag_1113\n      tag_5\n      jump\t// in\n    tag_1113:\n        /* \"contracts/ArbOptV2.sol\":17031:17038  arbExec */\n      0x02\n        /* \"contracts/ArbOptV2.sol\":1616:23442  contract ArbOptimizer is Ownable, ReentrancyGuard, Pausable { ... */\n      sload\n      0x08\n      shr\n      sub(shl(0xa0, 0x01), 0x01)\n      and\n        /* \"contracts/ArbOptV2.sol\":17031:17062  arbExec.emergencyWithdraw(USDT) */\n      dup1\n      extcodesize\n      iszero\n      tag_220\n      jumpi\n        /* \"contracts/ArbOptV2.sol\":1616:23442  contract ArbOptimizer is Ownable, ReentrancyGuard, Pausable { ... */\n      dup2\n      mload(0x40)\n        /* \"contracts/ArbOptV2.sol\":4738:4803  AggregatorV3Interface(0x5f4eC3Df9cbd43714FE2740f5E3616155c5b8419) */\n      shl(0xe2, 0x1bfc726f)\n        /* \"contracts/ArbOptV2.sol\":17031:17062  arbExec.emergencyWithdraw(USDT) */\n      dup2\n      mstore\n        /* \"contracts/ArbOptV2.sol\":2525:2567  0xdAC17F958D2ee523a2206206994597C13D831ec7 */\n      dup2\n      dup2\n        /* \"contracts/ArbOptV2.sol\":1616:23442  contract ArbOptimizer is Ownable, ReentrancyGuard, Pausable { ... */\n      0x24\n        /* \"contracts/ArbOptV2.sol\":2525:2567  0xdAC17F958D2ee523a2206206994597C13D831ec7 */\n      dup2\n      dup4\n      0xdac17f958d2ee523a2206206994597c13d831ec7\n        /* \"contracts/ArbOptV2.sol\":17031:17062  arbExec.emergencyWithdraw(USDT) */\n      swap8\n      dup9\n        /* \"contracts/ArbOptV2.sol\":1616:23442  contract ArbOptimizer is Ownable, ReentrancyGuard, Pausable { ... */\n      0x04\n        /* \"contracts/ArbOptV2.sol\":17031:17062  arbExec.emergencyWithdraw(USDT) */\n      dup5\n      add\n        /* \"contracts/ArbOptV2.sol\":1616:23442  contract ArbOptimizer is Ownable, ReentrancyGuard, Pausable { ... */\n      mstore\n        /* \"contracts/ArbOptV2.sol\":17031:17062  arbExec.emergencyWithdraw(USDT) */\n      gas\n      call\n      dup1\n      iszero\n      tag_174\n      jumpi\n      tag_195\n      jumpi\n      pop\n      pop\n        /* \"contracts/ArbOptV2.sol\":1616:23442  contract ArbOptimizer is Ownable, ReentrancyGuard, Pausable { ... */\n      mload(0x40)\n      shl(0xe0, 0x70a08231)\n        /* \"contracts/ArbOptV2.sol\":17087:17124  IERC20(USDT).balanceOf(address(this)) */\n      dup2\n      mstore\n        /* \"contracts/ArbOptV2.sol\":17118:17122  this */\n      address\n        /* \"contracts/ArbOptV2.sol\":1616:23442  contract ArbOptimizer is Ownable, ReentrancyGuard, Pausable { ... */\n      0x04\n        /* \"contracts/ArbOptV2.sol\":17087:17124  IERC20(USDT).balanceOf(address(this)) */\n      dup3\n      add\n        /* \"contracts/ArbOptV2.sol\":1616:23442  contract ArbOptimizer is Ownable, ReentrancyGuard, Pausable { ... */\n      mstore\n      swap1\n      0x20\n      dup1\n      dup4\n      0x24\n      dup2\n        /* \"contracts/ArbOptV2.sol\":4738:4803  AggregatorV3Interface(0x5f4eC3Df9cbd43714FE2740f5E3616155c5b8419) */\n      dup6\n        /* \"contracts/ArbOptV2.sol\":17087:17124  IERC20(USDT).balanceOf(address(this)) */\n      gas\n      staticcall\n      swap3\n      dup4\n      iszero\n      tag_197\n      jumpi\n      dup5\n      swap4\n      tag_199\n      jumpi\n        /* \"contracts/ArbOptV2.sol\":17135:17146  balance > 0 */\n      pop\n      dup3\n        /* \"contracts/ArbOptV2.sol\":17131:17267  if (balance > 0) {... */\n      tag_201\n      jumpi\n        /* \"contracts/ArbOptV2.sol\":1616:23442  contract ArbOptimizer is Ownable, ReentrancyGuard, Pausable { ... */\n      dup4\n      0x01\n      dup1\n      sstore\n      dup1\n      return\n    tag_36:\n      pop\n      jumpi(tag_126, callvalue)\n        /* \"contracts/ArbOptV2.sol\":20279:20354  ConfigurationUpdated(minFlashLoanAmount, maxFlashLoanAmount, _bps, _amount) */\n      0xb332ff846a7f7e49c967d592cb8ecccd56f3693ab85af2f484aa5bfabcd2a57a\n        /* \"contracts/ArbOptV2.sol\":1616:23442  contract ArbOptimizer is Ownable, ReentrancyGuard, Pausable { ... */\n      tag_1147\n      calldatasize\n      tag_1\n      jump\t// in\n    tag_1147:\n        /* \"@openzeppelin/contracts/access/Ownable.sol\":1546:1611  modifier onlyOwner() {... */\n      tag_1148\n      tag_5\n      jump\t// in\n    tag_1148:\n        /* \"contracts/ArbOptV2.sol\":20118:20155  require(_bps <= 10000, \"Invalid BPS\") */\n      tag_1149\n        /* \"contracts/ArbOptV2.sol\":20134:20139  10000 */\n      0x2710\n        /* \"contracts/ArbOptV2.sol\":20126:20139  _bps <= 10000 */\n      dup4\n      gt\n      iszero\n        /* \"contracts/ArbOptV2.sol\":20118:20155  require(_bps <= 10000, \"Invalid BPS\") */\n      tag_12\n      jump\t// in\n    tag_1149:\n        /* \"contracts/ArbOptV2.sol\":20162:20190  minProfitBpsThreshold = _bps */\n      0x09\n        /* \"contracts/ArbOptV2.sol\":1616:23442  contract ArbOptimizer is Ownable, ReentrancyGuard, Pausable { ... */\n      dup3\n      swap1\n      sstore\n        /* \"contracts/ArbOptV2.sol\":20242:20267  minProfitAmount = _amount */\n      0x0a\n        /* \"contracts/ArbOptV2.sol\":1616:23442  contract ArbOptimizer is Ownable, ReentrancyGuard, Pausable { ... */\n      dup2\n      swap1\n      sstore\n        /* \"contracts/ArbOptV2.sol\":20300:20318  minFlashLoanAmount */\n      0x07\n        /* \"contracts/ArbOptV2.sol\":1616:23442  contract ArbOptimizer is Ownable, ReentrancyGuard, Pausable { ... */\n      sload\n        /* \"contracts/ArbOptV2.sol\":20320:20338  maxFlashLoanAmount */\n      0x08\n        /* \"contracts/ArbOptV2.sol\":1616:23442  contract ArbOptimizer is Ownable, ReentrancyGuard, Pausable { ... */\n      sload\n      0x40\n      dup1\n      mload\n      swap3\n      dup4\n      mstore\n      0x20\n      dup4\n      add\n      swap2\n      swap1\n      swap2\n      mstore\n      dup2\n      add\n      swap3\n      swap1\n      swap3\n      mstore\n      0x60\n      dup3\n      add\n      mstore\n      dup1\n      0x80\n      dup2\n      add\n        /* \"contracts/ArbOptV2.sol\":20279:20354  ConfigurationUpdated(minFlashLoanAmount, maxFlashLoanAmount, _bps, _amount) */\n      tag_134\n        /* \"contracts/ArbOptV2.sol\":1616:23442  contract ArbOptimizer is Ownable, ReentrancyGuard, Pausable { ... */\n      jump\n    tag_34:\n      pop\n      jumpi(tag_126, callvalue)\n      dup1\n      add(calldatasize, not(0x03))\n      slt\n      tag_126\n      jumpi\n      0x20\n        /* \"contracts/ArbOptV2.sol\":7077:7122  uint256 public executionCooldown = 60 seconds */\n      0x0d\n        /* \"contracts/ArbOptV2.sol\":1616:23442  contract ArbOptimizer is Ownable, ReentrancyGuard, Pausable { ... */\n      sload\n      mload(0x40)\n      swap1\n      dup2\n      mstore\n      return\n    tag_32:\n      pop\n      jumpi(tag_126, callvalue)\n      jumpi(tag_126, slt(add(not(0x03), calldatasize), 0x20))\n      calldataload(0x04)\n        /* \"@openzeppelin/contracts/access/Ownable.sol\":1546:1611  modifier onlyOwner() {... */\n      tag_1159\n      tag_5\n      jump\t// in\n    tag_1159:\n        /* \"contracts/ArbOptV2.sol\":8998:9020  _premiumPercentage > 0 */\n      dup1\n      iszero\n        /* \"contracts/ArbOptV2.sol\":1616:23442  contract ArbOptimizer is Ownable, ReentrancyGuard, Pausable { ... */\n      tag_1160\n      jumpi\n        /* \"contracts/ArbOptV2.sol\":9086:9090  1000 */\n      0x03e8\n        /* \"contracts/ArbOptV2.sol\":9064:9090  _premiumPercentage <= 1000 */\n      dup2\n      gt\n        /* \"contracts/ArbOptV2.sol\":1616:23442  contract ArbOptimizer is Ownable, ReentrancyGuard, Pausable { ... */\n      tag_1162\n      jumpi\n      dup1\n      0x00\n      dup1\n      mload\n      0x20\n      data_85fcec988403e367a9c095d79cbc6a0a812bce994f18f13f6c96747afa79ec6e\n      dup4\n      codecopy\n      dup2\n      mload\n      swap2\n      mstore\n      swap2\n      0x04\n      sstore\n      sload(0x03)\n        /* \"contracts/ArbOptV2.sol\":9175:9322  UserParametersUpdated(... */\n      tag_134\n        /* \"contracts/ArbOptV2.sol\":9269:9285  userMinProfitBps */\n      0x05\n        /* \"contracts/ArbOptV2.sol\":1616:23442  contract ArbOptimizer is Ownable, ReentrancyGuard, Pausable { ... */\n      sload\n        /* \"contracts/ArbOptV2.sol\":9296:9315  userMinProfitAmount */\n      0x06\n        /* \"contracts/ArbOptV2.sol\":1616:23442  contract ArbOptimizer is Ownable, ReentrancyGuard, Pausable { ... */\n      sload\n      swap1\n      mload(0x40)\n        /* \"contracts/ArbOptV2.sol\":9175:9322  UserParametersUpdated(... */\n      swap5\n      dup6\n      swap5\n      dup6\n        /* \"contracts/ArbOptV2.sol\":1616:23442  contract ArbOptimizer is Ownable, ReentrancyGuard, Pausable { ... */\n      swap1\n      swap5\n      swap4\n      swap3\n      0x60\n      swap3\n      0x80\n      dup4\n      add\n      swap7\n      dup4\n      mstore\n      0x20\n      dup4\n      add\n      mstore\n      0x40\n      dup3\n      add\n      mstore\n      add\n      mstore\n      jump\n    tag_1162:\n      mload(0x40)\n      shl(0xe5, 0x461bcd)\n      dup2\n      mstore\n      0x20\n      0x04\n      dup3\n      add\n      mstore\n      0x13\n      0x24\n      dup3\n      add\n      mstore\n      shl(0x68, 0x5072656d69756d206578636565647320313025)\n      0x44\n      dup3\n      add\n      mstore\n      0x64\n      swap1\n      revert\n    tag_1160:\n      mload(0x40)\n      shl(0xe5, 0x461bcd)\n      dup2\n      mstore\n      0x20\n      0x04\n      dup3\n      add\n      mstore\n      0x18\n      0x24\n      dup3\n      add\n      mstore\n      0x5072656d69756d206d75737420626520706f7369746976650000000000000000\n      0x44\n      dup3\n      add\n      mstore\n      0x64\n      swap1\n      revert\n    tag_30:\n      pop\n      jumpi(tag_126, callvalue)\n      0x20\n      swap1\n      dup2\n      add(calldatasize, not(0x03))\n      slt\n      tag_126\n      jumpi\n      calldataload(0x04)\n        /* \"@openzeppelin/contracts/security/ReentrancyGuard.sol\":2276:2383  modifier nonReentrant() {... */\n      tag_1169\n      tag_19\n      jump\t// in\n    tag_1169:\n        /* \"@openzeppelin/contracts/security/Pausable.sol\":1247:1322  modifier whenNotPaused() {... */\n      tag_1170\n      tag_18\n      jump\t// in\n    tag_1170:\n        /* \"@openzeppelin/contracts/access/Ownable.sol\":1546:1611  modifier onlyOwner() {... */\n      tag_1171\n      tag_5\n      jump\t// in\n    tag_1171:\n        /* \"contracts/ArbOptV2.sol\":14405:14479  require(flashLoanAmount >= minFlashLoanAmount, \"Below minimum flash loan\") */\n      tag_1172\n        /* \"contracts/ArbOptV2.sol\":14432:14450  minFlashLoanAmount */\n      0x07\n        /* \"contracts/ArbOptV2.sol\":1616:23442  contract ArbOptimizer is Ownable, ReentrancyGuard, Pausable { ... */\n      sload\n        /* \"contracts/ArbOptV2.sol\":14413:14450  flashLoanAmount >= minFlashLoanAmount */\n      dup3\n      lt\n      iszero\n        /* \"contracts/ArbOptV2.sol\":14405:14479  require(flashLoanAmount >= minFlashLoanAmount, \"Below minimum flash loan\") */\n      tag_10\n      jump\t// in\n    tag_1172:\n        /* \"contracts/ArbOptV2.sol\":14486:14562  require(flashLoanAmount <= maxFlashLoanAmount, \"Exceeds maximum flash loan\") */\n      tag_1173\n        /* \"contracts/ArbOptV2.sol\":14513:14531  maxFlashLoanAmount */\n      0x08\n        /* \"contracts/ArbOptV2.sol\":1616:23442  contract ArbOptimizer is Ownable, ReentrancyGuard, Pausable { ... */\n      sload\n        /* \"contracts/ArbOptV2.sol\":14494:14531  flashLoanAmount <= maxFlashLoanAmount */\n      dup3\n      gt\n      iszero\n        /* \"contracts/ArbOptV2.sol\":14486:14562  require(flashLoanAmount <= maxFlashLoanAmount, \"Exceeds maximum flash loan\") */\n      tag_11\n      jump\t// in\n    tag_1173:\n        /* \"contracts/ArbOptV2.sol\":1616:23442  contract ArbOptimizer is Ownable, ReentrancyGuard, Pausable { ... */\n      0xff\n        /* \"contracts/ArbOptV2.sol\":14575:14586  autoExecute */\n      0x0b\n        /* \"contracts/ArbOptV2.sol\":1616:23442  contract ArbOptimizer is Ownable, ReentrancyGuard, Pausable { ... */\n      sload\n      and\n        /* \"contracts/ArbOptV2.sol\":14571:14735  if (autoExecute) {... */\n      tag_1174\n      jumpi\n        /* \"contracts/ArbOptV2.sol\":1616:23442  contract ArbOptimizer is Ownable, ReentrancyGuard, Pausable { ... */\n    tag_1175:\n      mload(0x40)\n      shl(0xe0, 0x716ad825)\n        /* \"contracts/ArbOptV2.sol\":14814:14862  this... */\n      dup2\n      mstore\n        /* \"contracts/ArbOptV2.sol\":1616:23442  contract ArbOptimizer is Ownable, ReentrancyGuard, Pausable { ... */\n      0x04\n        /* \"contracts/ArbOptV2.sol\":14814:14862  this... */\n      dup2\n      add\n        /* \"contracts/ArbOptV2.sol\":1616:23442  contract ArbOptimizer is Ownable, ReentrancyGuard, Pausable { ... */\n      dup3\n      swap1\n      mstore\n      swap1\n        /* \"contracts/ArbOptV2.sol\":14814:14862  this... */\n      0x60\n        /* \"contracts/ArbOptV2.sol\":1616:23442  contract ArbOptimizer is Ownable, ReentrancyGuard, Pausable { ... */\n      dup3\n      0x24\n      dup2\n        /* \"contracts/ArbOptV2.sol\":14814:14818  this */\n      dup7\n      address\n        /* \"contracts/ArbOptV2.sol\":14814:14862  this... */\n      gas\n      call\n      swap2\n      dup3\n      iszero\n      tag_541\n      jumpi\n      dup4\n      swap3\n      dup5\n      swap2\n      dup6\n      swap2\n      tag_1178\n      jumpi\n        /* \"contracts/ArbOptV2.sol\":1616:23442  contract ArbOptimizer is Ownable, ReentrancyGuard, Pausable { ... */\n    tag_1179:\n      pop\n      iszero\n      tag_1180\n      jumpi\n      dup3\n        /* \"contracts/ArbOptV2.sol\":14933:15003  OptimalRouteSelected(bestRouteIndex, estimatedProfit, flashLoanAmount) */\n      0x99a04d4bd50085149e64dc7b09cd3bf736a5a4b19f85d58ea535527917c3b2ae\n        /* \"contracts/ArbOptV2.sol\":1616:23442  contract ArbOptimizer is Ownable, ReentrancyGuard, Pausable { ... */\n      0x40\n      dup1\n      mload\n      dup5\n      dup2\n      mstore\n      dup6\n      dup10\n      dup3\n      add\n      mstore\n        /* \"contracts/ArbOptV2.sol\":14933:15003  OptimalRouteSelected(bestRouteIndex, estimatedProfit, flashLoanAmount) */\n      log2\n        /* \"contracts/ArbOptV2.sol\":15016:15023  arbExec */\n      0x02\n        /* \"contracts/ArbOptV2.sol\":1616:23442  contract ArbOptimizer is Ownable, ReentrancyGuard, Pausable { ... */\n      sload\n        /* \"contracts/ArbOptV2.sol\":14513:14531  maxFlashLoanAmount */\n      0x08\n        /* \"contracts/ArbOptV2.sol\":1616:23442  contract ArbOptimizer is Ownable, ReentrancyGuard, Pausable { ... */\n      shr\n      sub(shl(0xa0, 0x01), 0x01)\n      and\n        /* \"contracts/ArbOptV2.sol\":15016:15087  arbExec.initiateArbitrage(WETH, flashLoanAmount, bestRouteIndex, false) */\n      dup1\n      extcodesize\n      iszero\n      tag_211\n      jumpi\n        /* \"contracts/ArbOptV2.sol\":1616:23442  contract ArbOptimizer is Ownable, ReentrancyGuard, Pausable { ... */\n      dup5\n      dup1\n      dup1\n      swap3\n        /* \"contracts/ArbOptV2.sol\":2354:2396  0xC02aaA39b223FE8D0A0e5C4F27eAD9083C756Cc2 */\n      0x84\n        /* \"contracts/ArbOptV2.sol\":1616:23442  contract ArbOptimizer is Ownable, ReentrancyGuard, Pausable { ... */\n      mload(0x40)\n        /* \"contracts/ArbOptV2.sol\":4738:4803  AggregatorV3Interface(0x5f4eC3Df9cbd43714FE2740f5E3616155c5b8419) */\n      dup1\n      swap6\n      dup2\n      swap4\n      shl(0xe0, 0x0ea62cb5)\n        /* \"contracts/ArbOptV2.sol\":15016:15087  arbExec.initiateArbitrage(WETH, flashLoanAmount, bestRouteIndex, false) */\n      dup4\n      mstore\n        /* \"contracts/ArbOptV2.sol\":2354:2396  0xC02aaA39b223FE8D0A0e5C4F27eAD9083C756Cc2 */\n      0xc02aaa39b223fe8d0a0e5c4f27ead9083c756cc2\n        /* \"contracts/ArbOptV2.sol\":1616:23442  contract ArbOptimizer is Ownable, ReentrancyGuard, Pausable { ... */\n      0x04\n        /* \"contracts/ArbOptV2.sol\":15016:15087  arbExec.initiateArbitrage(WETH, flashLoanAmount, bestRouteIndex, false) */\n      dup5\n      add\n        /* \"contracts/ArbOptV2.sol\":1616:23442  contract ArbOptimizer is Ownable, ReentrancyGuard, Pausable { ... */\n      mstore\n        /* \"contracts/ArbOptV2.sol\":2354:2396  0xC02aaA39b223FE8D0A0e5C4F27eAD9083C756Cc2 */\n      dup10\n        /* \"contracts/ArbOptV2.sol\":1616:23442  contract ArbOptimizer is Ownable, ReentrancyGuard, Pausable { ... */\n      0x24\n        /* \"contracts/ArbOptV2.sol\":2354:2396  0xC02aaA39b223FE8D0A0e5C4F27eAD9083C756Cc2 */\n      dup5\n      add\n        /* \"contracts/ArbOptV2.sol\":1616:23442  contract ArbOptimizer is Ownable, ReentrancyGuard, Pausable { ... */\n      mstore\n        /* \"contracts/ArbOptV2.sol\":2354:2396  0xC02aaA39b223FE8D0A0e5C4F27eAD9083C756Cc2 */\n      dup11\n      0x44\n      dup5\n      add\n        /* \"contracts/ArbOptV2.sol\":1616:23442  contract ArbOptimizer is Ownable, ReentrancyGuard, Pausable { ... */\n      mstore\n        /* \"contracts/ArbOptV2.sol\":2354:2396  0xC02aaA39b223FE8D0A0e5C4F27eAD9083C756Cc2 */\n      dup2\n      0x64\n      dup5\n      add\n        /* \"contracts/ArbOptV2.sol\":1616:23442  contract ArbOptimizer is Ownable, ReentrancyGuard, Pausable { ... */\n      mstore\n        /* \"contracts/ArbOptV2.sol\":15016:15087  arbExec.initiateArbitrage(WETH, flashLoanAmount, bestRouteIndex, false) */\n      gas\n      call\n      swap2\n      dup3\n      tag_1184\n      jumpi\n        /* \"contracts/ArbOptV2.sol\":1616:23442  contract ArbOptimizer is Ownable, ReentrancyGuard, Pausable { ... */\n    tag_1185:\n      pop\n      pop\n        /* \"contracts/ArbOptV2.sol\":15012:15291  try arbExec.initiateArbitrage(WETH, flashLoanAmount, bestRouteIndex, false) {... */\n      tag_1186\n      jumpi\n        /* \"contracts/ArbOptV2.sol\":15268:15283  success = false */\n      pop\n      pop\n      pop\n        /* \"contracts/ArbOptV2.sol\":1616:23442  contract ArbOptimizer is Ownable, ReentrancyGuard, Pausable { ... */\n      0x01\n      dup1\n      sstore\n      mload(0x40)\n      swap1\n      iszero\n      iszero\n      dup2\n      mstore\n      return\n        /* \"contracts/ArbOptV2.sol\":15012:15291  try arbExec.initiateArbitrage(WETH, flashLoanAmount, bestRouteIndex, false) {... */\n    tag_1186:\n        /* \"contracts/ArbOptV2.sol\":15150:15217  ArbitrageExecuted(bestRouteIndex, flashLoanAmount, estimatedProfit) */\n      0x9f51370fe0eed8407b751449f0bf9ae3f5667f007a2ab895d820da7e2983ebab\n        /* \"contracts/ArbOptV2.sol\":15119:15134  block.timestamp */\n      swap3\n      swap4\n      pop\n      swap1\n        /* \"contracts/ArbOptV2.sol\":1616:23442  contract ArbOptimizer is Ownable, ReentrancyGuard, Pausable { ... */\n      0x40\n        /* \"contracts/ArbOptV2.sol\":15119:15134  block.timestamp */\n      swap2\n      timestamp\n        /* \"contracts/ArbOptV2.sol\":15099:15134  lastExecutionTime = block.timestamp */\n      0x0c\n        /* \"contracts/ArbOptV2.sol\":1616:23442  contract ArbOptimizer is Ownable, ReentrancyGuard, Pausable { ... */\n      sstore\n      dup3\n      mload\n      swap2\n      dup3\n      mstore\n      dup6\n      dup3\n      add\n      mstore\n        /* \"contracts/ArbOptV2.sol\":15150:15217  ArbitrageExecuted(bestRouteIndex, flashLoanAmount, estimatedProfit) */\n      log2\n        /* \"contracts/ArbOptV2.sol\":1616:23442  contract ArbOptimizer is Ownable, ReentrancyGuard, Pausable { ... */\n      0x01\n        /* \"contracts/ArbOptV2.sol\":15012:15291  try arbExec.initiateArbitrage(WETH, flashLoanAmount, bestRouteIndex, false) {... */\n      jump(tag_311)\n        /* \"contracts/ArbOptV2.sol\":15016:15087  arbExec.initiateArbitrage(WETH, flashLoanAmount, bestRouteIndex, false) */\n    tag_1184:\n      tag_1189\n      swap1\n      tag_6\n      jump\t// in\n    tag_1189:\n        /* \"contracts/ArbOptV2.sol\":1616:23442  contract ArbOptimizer is Ownable, ReentrancyGuard, Pausable { ... */\n      tag_211\n      jumpi\n        /* \"contracts/ArbOptV2.sol\":15016:15087  arbExec.initiateArbitrage(WETH, flashLoanAmount, bestRouteIndex, false) */\n      dup5\n      0x00\n      jump(tag_1185)\n        /* \"contracts/ArbOptV2.sol\":1616:23442  contract ArbOptimizer is Ownable, ReentrancyGuard, Pausable { ... */\n    tag_1180:\n      mload(0x40)\n      shl(0xe5, 0x461bcd)\n      dup2\n      mstore\n      0x04\n      dup2\n      add\n      dup7\n      swap1\n      mstore\n      0x19\n      0x24\n      dup3\n      add\n      mstore\n      shl(0x3a, 0x139bc81c1c9bd99a5d18589b19481c9bdd5d1948199bdd5b99)\n      0x44\n      dup3\n      add\n      mstore\n      0x64\n      swap1\n      revert\n        /* \"contracts/ArbOptV2.sol\":14814:14862  this... */\n    tag_1178:\n      swap4\n      pop\n      pop\n      pop\n      0x60\n      dup3\n      returndatasize\n      dup3\n      gt\n      tag_1192\n      jumpi\n    tag_1193:\n      dup2\n      tag_1194\n      0x60\n      swap4\n      dup4\n      tag_7\n      jump\t// in\n    tag_1194:\n      dup2\n      add\n        /* \"contracts/ArbOptV2.sol\":1616:23442  contract ArbOptimizer is Ownable, ReentrancyGuard, Pausable { ... */\n      sub\n      slt\n      tag_146\n      jumpi\n        /* \"contracts/ArbOptV2.sol\":4738:4803  AggregatorV3Interface(0x5f4eC3Df9cbd43714FE2740f5E3616155c5b8419) */\n      dup2\n      mload\n        /* \"contracts/ArbOptV2.sol\":1616:23442  contract ArbOptimizer is Ownable, ReentrancyGuard, Pausable { ... */\n      tag_1197\n      0x40\n      dup7\n      dup6\n      add\n        /* \"contracts/ArbOptV2.sol\":4738:4803  AggregatorV3Interface(0x5f4eC3Df9cbd43714FE2740f5E3616155c5b8419) */\n      mload\n        /* \"contracts/ArbOptV2.sol\":1616:23442  contract ArbOptimizer is Ownable, ReentrancyGuard, Pausable { ... */\n      swap5\n      add\n      tag_14\n      jump\t// in\n    tag_1197:\n        /* \"contracts/ArbOptV2.sol\":14814:14862  this... */\n      swap1\n      swap3\n      swap1\n      0x00\n      jump(tag_1179)\n    tag_1192:\n      returndatasize\n      swap2\n      pop\n      jump(tag_1193)\n        /* \"contracts/ArbOptV2.sol\":14571:14735  if (autoExecute) {... */\n    tag_1174:\n        /* \"contracts/ArbOptV2.sol\":14640:14657  lastExecutionTime */\n      0x0c\n        /* \"contracts/ArbOptV2.sol\":1616:23442  contract ArbOptimizer is Ownable, ReentrancyGuard, Pausable { ... */\n      sload\n        /* \"contracts/ArbOptV2.sol\":14660:14677  executionCooldown */\n      0x0d\n        /* \"contracts/ArbOptV2.sol\":1616:23442  contract ArbOptimizer is Ownable, ReentrancyGuard, Pausable { ... */\n      sload\n      dup2\n      add\n      dup1\n      swap2\n      gt\n      tag_1198\n      jumpi\n        /* \"contracts/ArbOptV2.sol\":14621:14636  block.timestamp */\n      timestamp\n        /* \"contracts/ArbOptV2.sol\":14621:14677  block.timestamp >= lastExecutionTime + executionCooldown */\n      lt\n        /* \"contracts/ArbOptV2.sol\":1616:23442  contract ArbOptimizer is Ownable, ReentrancyGuard, Pausable { ... */\n      iszero\n        /* \"contracts/ArbOptV2.sol\":14571:14735  if (autoExecute) {... */\n      tag_1175\n        /* \"contracts/ArbOptV2.sol\":1616:23442  contract ArbOptimizer is Ownable, ReentrancyGuard, Pausable { ... */\n      jumpi\n      mload(0x40)\n      shl(0xe5, 0x461bcd)\n      dup2\n      mstore\n      0x04\n      dup2\n      add\n      dup5\n      swap1\n      mstore\n      0x16\n      0x24\n      dup3\n      add\n      mstore\n      shl(0x50, 0x436f6f6c646f776e20706572696f6420616374697665)\n      0x44\n      dup3\n      add\n      mstore\n      0x64\n      swap1\n      revert\n    tag_1198:\n      shl(0xe0, 0x4e487b71)\n        /* \"contracts/ArbOptV2.sol\":4738:4803  AggregatorV3Interface(0x5f4eC3Df9cbd43714FE2740f5E3616155c5b8419) */\n      dup4\n      mstore\n      0x11\n        /* \"contracts/ArbOptV2.sol\":1616:23442  contract ArbOptimizer is Ownable, ReentrancyGuard, Pausable { ... */\n      0x04\n        /* \"contracts/ArbOptV2.sol\":4738:4803  AggregatorV3Interface(0x5f4eC3Df9cbd43714FE2740f5E3616155c5b8419) */\n      mstore\n      0x24\n      dup4\n      revert\n        /* \"contracts/ArbOptV2.sol\":1616:23442  contract ArbOptimizer is Ownable, ReentrancyGuard, Pausable { ... */\n    tag_28:\n      pop\n      jumpi(tag_126, callvalue)\n      dup1\n      add(calldatasize, not(0x03))\n      slt\n      tag_126\n      jumpi\n        /* \"@openzeppelin/contracts/security/ReentrancyGuard.sol\":2276:2383  modifier nonReentrant() {... */\n      tag_1206\n      tag_19\n      jump\t// in\n    tag_1206:\n        /* \"@openzeppelin/contracts/access/Ownable.sol\":1546:1611  modifier onlyOwner() {... */\n      tag_1207\n      tag_5\n      jump\t// in\n    tag_1207:\n        /* \"contracts/ArbOptV2.sol\":17379:17386  arbExec */\n      0x02\n        /* \"contracts/ArbOptV2.sol\":1616:23442  contract ArbOptimizer is Ownable, ReentrancyGuard, Pausable { ... */\n      sload\n      0x08\n      shr\n      sub(shl(0xa0, 0x01), 0x01)\n      and\n      swap1\n        /* \"contracts/ArbOptV2.sol\":17379:17409  arbExec.emergencyWithdraw(DAI) */\n      dup2\n      extcodesize\n      iszero\n      tag_126\n      jumpi\n        /* \"contracts/ArbOptV2.sol\":1616:23442  contract ArbOptimizer is Ownable, ReentrancyGuard, Pausable { ... */\n      mload(0x40)\n        /* \"contracts/ArbOptV2.sol\":4738:4803  AggregatorV3Interface(0x5f4eC3Df9cbd43714FE2740f5E3616155c5b8419) */\n      shl(0xe2, 0x1bfc726f)\n        /* \"contracts/ArbOptV2.sol\":17379:17409  arbExec.emergencyWithdraw(DAI) */\n      dup2\n      mstore\n        /* \"contracts/ArbOptV2.sol\":2601:2643  0x6B175474E89094C44Da98b954EedeAC495271d0F */\n      dup2\n      dup2\n        /* \"contracts/ArbOptV2.sol\":1616:23442  contract ArbOptimizer is Ownable, ReentrancyGuard, Pausable { ... */\n      0x24\n        /* \"contracts/ArbOptV2.sol\":2601:2643  0x6B175474E89094C44Da98b954EedeAC495271d0F */\n      dup2\n      dup4\n      0x6b175474e89094c44da98b954eedeac495271d0f\n        /* \"contracts/ArbOptV2.sol\":17379:17409  arbExec.emergencyWithdraw(DAI) */\n      swap8\n      dup9\n        /* \"contracts/ArbOptV2.sol\":1616:23442  contract ArbOptimizer is Ownable, ReentrancyGuard, Pausable { ... */\n      0x04\n        /* \"contracts/ArbOptV2.sol\":17379:17409  arbExec.emergencyWithdraw(DAI) */\n      dup5\n      add\n        /* \"contracts/ArbOptV2.sol\":1616:23442  contract ArbOptimizer is Ownable, ReentrancyGuard, Pausable { ... */\n      mstore\n        /* \"contracts/ArbOptV2.sol\":17379:17409  arbExec.emergencyWithdraw(DAI) */\n      gas\n      call\n      dup1\n      iszero\n      tag_174\n      jumpi\n      tag_1212\n      jumpi\n        /* \"contracts/ArbOptV2.sol\":1616:23442  contract ArbOptimizer is Ownable, ReentrancyGuard, Pausable { ... */\n    tag_1213:\n      pop\n      mload(0x40)\n      shl(0xe0, 0x70a08231)\n        /* \"contracts/ArbOptV2.sol\":17434:17470  IERC20(DAI).balanceOf(address(this)) */\n      dup2\n      mstore\n        /* \"contracts/ArbOptV2.sol\":17464:17468  this */\n      address\n        /* \"contracts/ArbOptV2.sol\":1616:23442  contract ArbOptimizer is Ownable, ReentrancyGuard, Pausable { ... */\n      0x04\n        /* \"contracts/ArbOptV2.sol\":17434:17470  IERC20(DAI).balanceOf(address(this)) */\n      dup3\n      add\n        /* \"contracts/ArbOptV2.sol\":1616:23442  contract ArbOptimizer is Ownable, ReentrancyGuard, Pausable { ... */\n      mstore\n      swap1\n      swap2\n      0x20\n      dup1\n      dup4\n      0x24\n      dup2\n      dup6\n        /* \"contracts/ArbOptV2.sol\":17434:17470  IERC20(DAI).balanceOf(address(this)) */\n      gas\n      staticcall\n      swap3\n      dup4\n      iszero\n      tag_197\n      jumpi\n      dup5\n      swap4\n      tag_199\n      jumpi\n        /* \"contracts/ArbOptV2.sol\":17481:17492  balance > 0 */\n      pop\n      dup3\n        /* \"contracts/ArbOptV2.sol\":17477:17611  if (balance > 0) {... */\n      tag_201\n      jumpi\n        /* \"contracts/ArbOptV2.sol\":1616:23442  contract ArbOptimizer is Ownable, ReentrancyGuard, Pausable { ... */\n      dup4\n      0x01\n      dup1\n      sstore\n      dup1\n      return\n        /* \"contracts/ArbOptV2.sol\":17379:17409  arbExec.emergencyWithdraw(DAI) */\n    tag_1212:\n      tag_1236\n      swap1\n      tag_6\n      jump\t// in\n    tag_1236:\n      0x00\n      jump(tag_1213)\n        /* \"contracts/ArbOptV2.sol\":1616:23442  contract ArbOptimizer is Ownable, ReentrancyGuard, Pausable { ... */\n    tag_1:\n      0x40\n      swap1\n      not(0x03)\n      add\n      slt\n      tag_217\n      jumpi\n      calldataload(0x04)\n      swap1\n      calldataload(0x24)\n      swap1\n      jump\t// out\n    tag_4:\n      swap1\n      dup2\n      mload\n      dup1\n      dup3\n      mstore\n      0x20\n      dup1\n      dup1\n      swap4\n      add\n      swap4\n      add\n      swap2\n      0x00\n    tag_1239:\n      dup3\n      dup2\n      lt\n      tag_1240\n      jumpi\n      pop\n      pop\n      pop\n      pop\n      swap1\n      jump\t// out\n    tag_1240:\n      dup4\n      mload\n      sub(shl(0xa0, 0x01), 0x01)\n      and\n      dup6\n      mstore\n      swap4\n      dup2\n      add\n      swap4\n      swap3\n      dup2\n      add\n      swap3\n      0x01\n      add\n      jump(tag_1239)\n        /* \"@openzeppelin/contracts/access/Ownable.sol\":1857:2023  function _checkOwner() internal view virtual {... */\n    tag_5:\n        /* \"@openzeppelin/contracts/access/Ownable.sol\":1765:1771  _owner */\n      0x00\n        /* \"contracts/ArbOptV2.sol\":1616:23442  contract ArbOptimizer is Ownable, ReentrancyGuard, Pausable { ... */\n      sload\n      sub(shl(0xa0, 0x01), 0x01)\n      and\n        /* \"@openzeppelin/contracts/utils/Context.sol\":752:762  msg.sender */\n      caller\n        /* \"@openzeppelin/contracts/access/Ownable.sol\":1917:1940  owner() != _msgSender() */\n      sub\n        /* \"@openzeppelin/contracts/access/Ownable.sol\":1913:2016  if (owner() != _msgSender()) {... */\n      tag_1242\n      jumpi\n        /* \"@openzeppelin/contracts/access/Ownable.sol\":1857:2023  function _checkOwner() internal view virtual {... */\n      jump\t// out\n        /* \"@openzeppelin/contracts/access/Ownable.sol\":1913:2016  if (owner() != _msgSender()) {... */\n    tag_1242:\n        /* \"contracts/ArbOptV2.sol\":1616:23442  contract ArbOptimizer is Ownable, ReentrancyGuard, Pausable { ... */\n      mload(0x40)\n      shl(0xe0, 0x118cdaa7)\n        /* \"@openzeppelin/contracts/access/Ownable.sol\":1964:2004  OwnableUnauthorizedAccount(_msgSender()) */\n      dup2\n      mstore\n        /* \"@openzeppelin/contracts/utils/Context.sol\":752:762  msg.sender */\n      caller\n        /* \"@openzeppelin/contracts/access/Ownable.sol\":1964:2004  OwnableUnauthorizedAccount(_msgSender()) */\n      0x04\n      dup3\n      add\n        /* \"contracts/ArbOptV2.sol\":1616:23442  contract ArbOptimizer is Ownable, ReentrancyGuard, Pausable { ... */\n      mstore\n      0x24\n      swap1\n        /* \"@openzeppelin/contracts/access/Ownable.sol\":1964:2004  OwnableUnauthorizedAccount(_msgSender()) */\n      revert\n        /* \"contracts/ArbOptV2.sol\":4738:4803  AggregatorV3Interface(0x5f4eC3Df9cbd43714FE2740f5E3616155c5b8419) */\n    tag_6:\n      0xffffffffffffffff\n      dup2\n      gt\n      tag_245\n      jumpi\n      0x40\n      mstore\n      jump\t// out\n    tag_7:\n      swap1\n        /* \"contracts/ArbOptV2.sol\":1616:23442  contract ArbOptimizer is Ownable, ReentrancyGuard, Pausable { ... */\n      0x1f\n      dup1\n      not\n        /* \"contracts/ArbOptV2.sol\":4738:4803  AggregatorV3Interface(0x5f4eC3Df9cbd43714FE2740f5E3616155c5b8419) */\n      swap2\n      add\n      and\n      dup2\n      add\n      swap1\n      dup2\n      lt\n      0xffffffffffffffff\n      dup3\n      gt\n      or\n      tag_245\n      jumpi\n      0x40\n      mstore\n      jump\t// out\n    tag_8:\n      mload\n      swap1\n      0xffffffffffffffffffff\n      dup3\n      and\n      dup3\n      sub\n      tag_217\n      jumpi\n      jump\t// out\n        /* \"contracts/ArbOptV2.sol\":5639:5975  function getUSDCAddressByChain(Chain chain) external pure returns (address usdcAddress) {... */\n    tag_9:\n        /* \"contracts/ArbOptV2.sol\":1616:23442  contract ArbOptimizer is Ownable, ReentrancyGuard, Pausable { ... */\n      0x04\n      dup2\n      lt\n      iszero\n      tag_1250\n      jumpi\n        /* \"contracts/ArbOptV2.sol\":5738:5761  chain == Chain.ETHEREUM */\n      dup1\n      tag_1252\n      jumpi\n        /* \"contracts/ArbOptV2.sol\":5774:5794  return USDC_ETHEREUM */\n      pop\n        /* \"contracts/ArbOptV2.sol\":1990:2032  0xA0b86991c6218b36c1d19D4a2e9Eb0cE3606eB48 */\n      0xa0b86991c6218b36c1d19d4a2e9eb0ce3606eb48\n        /* \"contracts/ArbOptV2.sol\":5774:5794  return USDC_ETHEREUM */\n      swap1\n      jump\t// out\n        /* \"contracts/ArbOptV2.sol\":5734:5942  if (chain == Chain.ETHEREUM) {... */\n    tag_1252:\n        /* \"contracts/ArbOptV2.sol\":1616:23442  contract ArbOptimizer is Ownable, ReentrancyGuard, Pausable { ... */\n      0x01\n        /* \"contracts/ArbOptV2.sol\":5812:5831  chain == Chain.BASE */\n      dup2\n      sub\n        /* \"contracts/ArbOptV2.sol\":1616:23442  contract ArbOptimizer is Ownable, ReentrancyGuard, Pausable { ... */\n      tag_1254\n      jumpi\n        /* \"contracts/ArbOptV2.sol\":5844:5860  return USDC_BASE */\n      pop\n        /* \"contracts/ArbOptV2.sol\":2095:2137  0x833589fCD6eDb6E08f4c7C32D4f71b54bdA02913 */\n      0x833589fcd6edb6e08f4c7c32d4f71b54bda02913\n        /* \"contracts/ArbOptV2.sol\":5844:5860  return USDC_BASE */\n      swap1\n      jump\t// out\n        /* \"contracts/ArbOptV2.sol\":5808:5942  if (chain == Chain.BASE) {... */\n    tag_1254:\n        /* \"contracts/ArbOptV2.sol\":5887:5901  Chain.ARBITRUM */\n      0x02\n        /* \"contracts/ArbOptV2.sol\":5878:5901  chain == Chain.ARBITRUM */\n      eq\n        /* \"contracts/ArbOptV2.sol\":5874:5942  if (chain == Chain.ARBITRUM) {... */\n      tag_1256\n      jumpi\n        /* \"contracts/ArbOptV2.sol\":1616:23442  contract ArbOptimizer is Ownable, ReentrancyGuard, Pausable { ... */\n      mload(0x40)\n      shl(0xe5, 0x461bcd)\n        /* \"contracts/ArbOptV2.sol\":5948:5971  revert(\"Invalid chain\") */\n      dup2\n      mstore\n        /* \"contracts/ArbOptV2.sol\":1990:2032  0xA0b86991c6218b36c1d19D4a2e9Eb0cE3606eB48 */\n      0x20\n        /* \"contracts/ArbOptV2.sol\":1616:23442  contract ArbOptimizer is Ownable, ReentrancyGuard, Pausable { ... */\n      0x04\n        /* \"contracts/ArbOptV2.sol\":5948:5971  revert(\"Invalid chain\") */\n      dup3\n      add\n        /* \"contracts/ArbOptV2.sol\":1990:2032  0xA0b86991c6218b36c1d19D4a2e9Eb0cE3606eB48 */\n      mstore\n      0x0d\n      0x24\n      dup3\n      add\n        /* \"contracts/ArbOptV2.sol\":1616:23442  contract ArbOptimizer is Ownable, ReentrancyGuard, Pausable { ... */\n      mstore\n      shl(0x99, 0x24b73b30b634b21031b430b4b7)\n      0x44\n      dup3\n      add\n        /* \"contracts/ArbOptV2.sol\":1990:2032  0xA0b86991c6218b36c1d19D4a2e9Eb0cE3606eB48 */\n      mstore\n      0x64\n      swap1\n        /* \"contracts/ArbOptV2.sol\":5948:5971  revert(\"Invalid chain\") */\n      revert\n        /* \"contracts/ArbOptV2.sol\":5874:5942  if (chain == Chain.ARBITRUM) {... */\n    tag_1256:\n        /* \"contracts/ArbOptV2.sol\":2203:2245  0xFd086bC7CD5C481DCC9C85ebE478A1C0b69FCbb9 */\n      0xfd086bc7cd5c481dcc9c85ebe478a1c0b69fcbb9\n        /* \"contracts/ArbOptV2.sol\":5914:5934  return USDC_ARBITRUM */\n      swap1\n      jump\t// out\n        /* \"contracts/ArbOptV2.sol\":1616:23442  contract ArbOptimizer is Ownable, ReentrancyGuard, Pausable { ... */\n    tag_1250:\n        /* \"contracts/ArbOptV2.sol\":4738:4803  AggregatorV3Interface(0x5f4eC3Df9cbd43714FE2740f5E3616155c5b8419) */\n      shl(0xe0, 0x4e487b71)\n        /* \"contracts/ArbOptV2.sol\":5747:5761  Chain.ETHEREUM */\n      0x00\n        /* \"contracts/ArbOptV2.sol\":1616:23442  contract ArbOptimizer is Ownable, ReentrancyGuard, Pausable { ... */\n      mstore\n      mstore(0x04, 0x21)\n      0x24\n        /* \"contracts/ArbOptV2.sol\":5747:5761  Chain.ETHEREUM */\n      0x00\n        /* \"contracts/ArbOptV2.sol\":1616:23442  contract ArbOptimizer is Ownable, ReentrancyGuard, Pausable { ... */\n      revert\n    tag_10:\n      iszero\n      tag_1258\n      jumpi\n      jump\t// out\n    tag_1258:\n      mload(0x40)\n      shl(0xe5, 0x461bcd)\n      dup2\n      mstore\n      0x20\n      0x04\n      dup3\n      add\n      mstore\n      0x18\n      0x24\n      dup3\n      add\n      mstore\n      0x42656c6f77206d696e696d756d20666c617368206c6f616e0000000000000000\n      0x44\n      dup3\n      add\n      mstore\n      0x64\n      swap1\n      revert\n    tag_11:\n      iszero\n      tag_1260\n      jumpi\n      jump\t// out\n    tag_1260:\n      mload(0x40)\n      shl(0xe5, 0x461bcd)\n      dup2\n      mstore\n      0x20\n      0x04\n      dup3\n      add\n      mstore\n      0x1a\n      0x24\n      dup3\n      add\n      mstore\n      0x45786365656473206d6178696d756d20666c617368206c6f616e000000000000\n      0x44\n      dup3\n      add\n      mstore\n      0x64\n      swap1\n      revert\n    tag_12:\n      iszero\n      tag_1262\n      jumpi\n      jump\t// out\n    tag_1262:\n      mload(0x40)\n      shl(0xe5, 0x461bcd)\n      dup2\n      mstore\n      0x20\n      0x04\n      dup3\n      add\n      mstore\n      0x0b\n      0x24\n      dup3\n      add\n      mstore\n      shl(0xa8, 0x496e76616c696420425053)\n      0x44\n      dup3\n      add\n      mstore\n      0x64\n      swap1\n      revert\n    tag_13:\n      0xffffffffffffffff\n      dup2\n      gt\n      tag_245\n      jumpi\n      0x05\n      shl\n      0x20\n      add\n      swap1\n      jump\t// out\n    tag_14:\n      mload\n      swap1\n      dup2\n      iszero\n      iszero\n      dup3\n      sub\n      tag_217\n      jumpi\n      jump\t// out\n    tag_15:\n      swap1\n      0x02\n      dup3\n      lt\n      iszero\n      tag_1250\n      jumpi\n      mstore\n      jump\t// out\n    tag_16:\n      not(0x00)\n      dup2\n      eq\n      tag_359\n      jumpi\n      0x01\n      add\n      swap1\n      jump\t// out\n    tag_17:\n      swap2\n      swap1\n      dup3\n      0x40\n      swap2\n      sub\n      slt\n      tag_217\n      jumpi\n      tag_1274\n      0x20\n        /* \"contracts/ArbOptV2.sol\":4738:4803  AggregatorV3Interface(0x5f4eC3Df9cbd43714FE2740f5E3616155c5b8419) */\n      dup4\n      mload\n        /* \"contracts/ArbOptV2.sol\":1616:23442  contract ArbOptimizer is Ownable, ReentrancyGuard, Pausable { ... */\n      swap4\n      add\n      tag_14\n      jump\t// in\n    tag_1274:\n      swap1\n      jump\t// out\n        /* \"@openzeppelin/contracts/security/Pausable.sol\":1837:1945  function _requireNotPaused() internal view virtual {... */\n    tag_18:\n        /* \"contracts/ArbOptV2.sol\":1616:23442  contract ArbOptimizer is Ownable, ReentrancyGuard, Pausable { ... */\n      0xff\n        /* \"@openzeppelin/contracts/security/Pausable.sol\":1749:1756  _paused */\n      0x02\n        /* \"contracts/ArbOptV2.sol\":1616:23442  contract ArbOptimizer is Ownable, ReentrancyGuard, Pausable { ... */\n      sload\n      and\n      tag_1275\n      jumpi\n        /* \"@openzeppelin/contracts/security/Pausable.sol\":1837:1945  function _requireNotPaused() internal view virtual {... */\n      jump\t// out\n        /* \"contracts/ArbOptV2.sol\":1616:23442  contract ArbOptimizer is Ownable, ReentrancyGuard, Pausable { ... */\n    tag_1275:\n      mload(0x40)\n      shl(0xe5, 0x461bcd)\n      dup2\n      mstore\n      0x20\n      0x04\n      dup3\n      add\n      mstore\n      0x10\n      0x24\n      dup3\n      add\n      mstore\n      shl(0x82, 0x14185d5cd8589b194e881c185d5cd959)\n      0x44\n      dup3\n      add\n      mstore\n      0x64\n      swap1\n      revert\n        /* \"@openzeppelin/contracts/security/ReentrancyGuard.sol\":2391:2684  function _nonReentrantBefore() private {... */\n    tag_19:\n        /* \"@openzeppelin/contracts/security/ReentrancyGuard.sol\":1793:1794  2 */\n      0x02\n        /* \"@openzeppelin/contracts/security/ReentrancyGuard.sol\":2525:2532  _status */\n      0x01\n        /* \"contracts/ArbOptV2.sol\":1616:23442  contract ArbOptimizer is Ownable, ReentrancyGuard, Pausable { ... */\n      sload\n        /* \"@openzeppelin/contracts/security/ReentrancyGuard.sol\":2525:2544  _status != _ENTERED */\n      eq\n        /* \"@openzeppelin/contracts/security/ReentrancyGuard.sol\":1793:1794  2 */\n      tag_1277\n      jumpi\n      0x02\n        /* \"@openzeppelin/contracts/security/ReentrancyGuard.sol\":2525:2532  _status */\n      0x01\n        /* \"contracts/ArbOptV2.sol\":1616:23442  contract ArbOptimizer is Ownable, ReentrancyGuard, Pausable { ... */\n      sstore\n        /* \"@openzeppelin/contracts/security/ReentrancyGuard.sol\":2391:2684  function _nonReentrantBefore() private {... */\n      jump\t// out\n        /* \"@openzeppelin/contracts/security/ReentrancyGuard.sol\":1793:1794  2 */\n    tag_1277:\n        /* \"contracts/ArbOptV2.sol\":1616:23442  contract ArbOptimizer is Ownable, ReentrancyGuard, Pausable { ... */\n      mload(0x40)\n      shl(0xe5, 0x461bcd)\n        /* \"@openzeppelin/contracts/security/ReentrancyGuard.sol\":1793:1794  2 */\n      dup2\n      mstore\n      0x20\n      0x04\n      dup3\n      add\n      mstore\n      0x1f\n      0x24\n      dup3\n      add\n        /* \"contracts/ArbOptV2.sol\":1616:23442  contract ArbOptimizer is Ownable, ReentrancyGuard, Pausable { ... */\n      mstore\n        /* \"@openzeppelin/contracts/security/ReentrancyGuard.sol\":1793:1794  2 */\n      0x5265656e7472616e637947756172643a207265656e7472616e742063616c6c00\n        /* \"contracts/ArbOptV2.sol\":1616:23442  contract ArbOptimizer is Ownable, ReentrancyGuard, Pausable { ... */\n      0x44\n      dup3\n      add\n        /* \"@openzeppelin/contracts/security/ReentrancyGuard.sol\":1793:1794  2 */\n      mstore\n      0x64\n      swap1\n      revert\n        /* \"contracts/ArbOptV2.sol\":1616:23442  contract ArbOptimizer is Ownable, ReentrancyGuard, Pausable { ... */\n    tag_20:\n      dup1\n      mload\n      dup3\n      lt\n      iszero\n      tag_269\n      jumpi\n      0x20\n      swap2\n      0x05\n      shl\n      add\n      add\n      swap1\n      jump\t// out\n    tag_22:\n      jumpi(tag_1281, iszero(returndatasize))\n      returndatasize\n      swap1\n      0xffffffffffffffff\n      dup3\n      gt\n      tag_245\n      jumpi\n      mload(0x40)\n      swap2\n      tag_1285\n      0x1f\n        /* \"contracts/ArbOptV2.sol\":4738:4803  AggregatorV3Interface(0x5f4eC3Df9cbd43714FE2740f5E3616155c5b8419) */\n      dup3\n      add\n      not(0x1f)\n      and\n        /* \"contracts/ArbOptV2.sol\":1616:23442  contract ArbOptimizer is Ownable, ReentrancyGuard, Pausable { ... */\n      0x20\n      add\n      dup5\n      tag_7\n      jump\t// in\n    tag_1285:\n      dup3\n      mstore\n      returndatasize\n      0x00\n      0x20\n      dup5\n      add\n      returndatacopy\n      jump\t// out\n    tag_1281:\n      0x60\n      swap1\n      jump\t// out\n    tag_23:\n      iszero\n      tag_1287\n      jumpi\n      jump\t// out\n    tag_1287:\n      mload(0x40)\n      shl(0xe5, 0x461bcd)\n      dup2\n      mstore\n      0x20\n      0x04\n      dup3\n      add\n      mstore\n      0x13\n      0x24\n      dup3\n      add\n      mstore\n      shl(0x6a, 0x115512081d1c985b9cd9995c8819985a5b1959)\n      0x44\n      dup3\n      add\n      mstore\n      0x64\n      swap1\n      revert\n    stop\n    data_084f00436a29ddf9fe96da3f0df8ffde36506fc292725425a43a4251d44f1f53 e6fee221bb8a85476104e6b67ae7b66010866c78f60f8ce4946f80da6ce04df0\n    data_85fcec988403e367a9c095d79cbc6a0a812bce994f18f13f6c96747afa79ec6e e80ae431014c3cf3f69bd7993ebcf6e5b6aee464fd4152bb7f730ca4f812b9d0\n\n    auxdata: 0xa26469706673582212204af50cebb8c2e5c45f9c165c84279f8315111e24e3d9bbec0607cc9dbd8a38c964736f6c63430008140033\n}\n",
				"bytecode": {
					"linkReferences": {},
					"object": "608080604052346100ee5733156100d9575f8054336001600160a01b03198216811783556040519290916001600160a01b0316907f8be0079c531659141344cd1fd0a4f28419497f9722a3daafe3b4186f6b6457e09080a36001805574efac88d8e212ca21d4fe670f715c4fe12cfbef0500600254670de0b6b3a76400008060035560096004556032600555662386f26fc10000908160065560075569021e19e0c9bab24000006008556032600955600a5560ff19600b5416600b55603c600d5560018060a81b03191617600255613b0490816100f38239f35b631e4fbdf760e01b81525f6004820152602490fd5b5f80fdfe6080604052600436101561001a575b3615610018575f80fd5b005b5f803560e01c8063020bcc9e146135f85780630af95101146133825780631da9e7bb146132935780632e610fb814613275578063315b41ce146131fb578063362e496b1461314d57806338fa84f81461312f5780633aecd0e3146130a65780633f4ba83a146130115780634c02f62e14612f6357806355cabd9014612f4557806355ce344a14612ee65780635c975abb14612ec357806366e5b5c514612e4c5780636b9c189f14612e2e5780636e94729814612e12578063715018a614612db9578063716ad82514612c2a57806373b379bd14612c0c5780638456cb5914612bb1578063853828b614611cd1578063867e7c27146116d457806389476069146115da5780638da5cb5b146115b35780638f40f0a61461139c57806390324b581461137e5780639517ed8514610f4c578063a140edb414610f2e578063a370874414610ee3578063a6b8ec9614610e7d578063a911f73614610e5a578063ad3707d414610e2b578063affa881714610dfc578063b4804ce714610dc4578063b75844d614610da6578063baf2272114610b0e578063ccdc705714610af0578063cf224d0714610ad2578063d2d4311114610a98578063d3c7c2c71461086e578063d7b3a3971461074a578063d8fc063d146105a3578063e086e5ec146104c9578063e2a594b61461048d578063e61d98c51461042a578063e6419b3f146103fd578063f2fde38b1461036a578063f4d2832d146102fc5763f7d5e66314610240575061000e565b346102f95761024e366136b6565b610256613708565b811515806102f0575b156102ba5760078290556008819055600954600a546040805194855260208501939093529183015260608201527fb332ff846a7f7e49c967d592cb8ecccd56f3693ab85af2f484aa5bfabcd2a57a9080608081015b0390a180f35b60405162461bcd60e51b815260206004820152600e60248201526d496e76616c6964206c696d69747360901b6044820152606490fd5b5081811161025f565b80fd5b50346102f95760203660031901126102f9575f80516020613aaf833981519152600435610327613708565b6103356127108211156138c8565b806005556003546102b46004549260065490604051948594859094939260609260808301968352602083015260408201520152565b50346102f95760203660031901126102f9576004356001600160a01b03818116918290036103f95761039a613708565b81156103e0575f54826bffffffffffffffffffffffff60a01b8216175f55167f8be0079c531659141344cd1fd0a4f28419497f9722a3daafe3b4186f6b6457e05f80a380f35b604051631e4fbdf760e01b815260048101849052602490fd5b8280fd5b50346102f957806003193601126102f95760025460405160089190911c6001600160a01b03168152602090f35b50346102f957806003193601126102f957606060405173a0b86991c6218b36c1d19d4a2e9eb0ce3606eb48815273833589fcd6edb6e08f4c7c32d4f71b54bda02913602082015273fd086bc7cd5c481dcc9c85ebe478a1c0b69fcbb96040820152f35b50346102f95760203660031901126102f9576004359060048210156102f95760206104b783613780565b6040516001600160a01b039091168152f35b50346102f957806003193601126102f9576104e26139a3565b6104ea613708565b600254819060081c6001600160a01b0316803b156105a057818091600460405180948193633821b97b60e21b83525af1801561059557610581575b50504780610536575b506001805580f35b61054f8280808085335af1610549613a0d565b50613a4c565b6040519081527f6148672a948a12b8e0bf92a9338349b9ac890fad62a234abaf0a4da99f62cfcc60203392a25f61052e565b61058a90613733565b6102f957805f610525565b6040513d84823e3d90fd5b50fd5b50346102f957806003193601126102f9576105bc6139a3565b6105c4613708565b60025460081c6001600160a01b0316803b156107465781604051631bfc726f60e21b815281816024818373a0b86991c6218b36c1d19d4a2e9eb0ce3606eb48978860048401525af1801561059557610732575b50506040516370a0823160e01b81523060048201529060208083602481855afa9283156107275784936106f4575b5082610654575b836001805580f35b60405163a9059cbb60e01b81523360048201526024810184905290808260448188875af180156106e9576106a4575b5f80516020613a8f83398151915291506040519384523393a35f808061064c565b8082813d83116106e2575b6106b98183613747565b810103126106de576106d85f80516020613a8f8339815191529261391a565b50610683565b8480fd5b503d6106af565b6040513d87823e3d90fd5b9080935081813d8311610720575b61070c8183613747565b8101031261071c5751915f610645565b5f80fd5b503d610702565b6040513d86823e3d90fd5b61073b90613733565b61074657815f610617565b5080fd5b50346102f957806003193601126102f957604051633fabe5a360e21b81529060a082600481735f4ec3df9cbd43714fe2740f5e3616155c5b84195afa918215610861578192610813575b50808213156107cf576064820291808305606414901517156107bb57602082604051908152f35b634e487b7160e01b81526011600452602490fd5b606460405162461bcd60e51b815260206004820152602060248201527f436861696e6c696e6b3a20496e76616c6964204554482f5553442070726963656044820152fd5b90915060a0813d8211610859575b8161082e60a09383613747565b810103126107465761083f81613769565b50610851608060208301519201613769565b50905f610794565b3d9150610821565b50604051903d90823e3d90fd5b50346102f957806003193601126102f9576040516101a0810181811067ffffffffffffffff821117610a8457604052600c8152610180906020810182368237815115610a705773c02aaa39b223fe8d0a0e5c4f27ead9083c756cc29052805160011015610a705773a0b86991c6218b36c1d19d4a2e9eb0ce3606eb486040820152805160021015610a705773dac17f958d2ee523a2206206994597c13d831ec76060820152805160031015610a7057736b175474e89094c44da98b954eedeac495271d0f6080820152805160041015610a7057733432b6a60d23ca0dfca7761b7ab56459d9c964d060a0820152805160051015610a7057735f98805a4e8f28fb3fbe254ccf7e6f82e446768360c0820152805160061015610a7057738e870d67f660d95d5be2d7738b5b1294a692a0b960e0820152805160071015610a70576e085d4780b73119b644ae5ecd22b376610100820152805160081015610a705773056fd409e1d7a124bd7017459dfea2f387b6d5cd610120820152805160091015610a7057734fabb145d64652a948d72533023f6e7a623c7c536101408201528051600a1015610a705773a7d1d0da000261f05d8d4532fd34439d3325ad8b6101608201528051600b1015610a705773db25f211ab05b1c97d595516f45794528a807ad8610a6c928201526040519182916020835260208301906136cc565b0390f35b634e487b7160e01b5f52603260045260245ffd5b634e487b7160e01b5f52604160045260245ffd5b50346102f957806003193601126102f957600354600454600954600a54604080519485526020850193909352918301526060820152608090f35b50346102f957806003193601126102f9576020600a54604051908152f35b50346102f957806003193601126102f9576020600554604051908152f35b50346102f957806003193601126102f957610b276139a3565b610b2f61395f565b610b37613708565b60035490610b436139a3565b610b4b61395f565b610b53613708565b610b61600754831015613830565b610b6f60085483111561387c565b60ff600b5416610d3e575b60405163716ad82560e01b8152600481018390529160608360248185305af192831561059557829383918491610cf6575b5015610cb557837f99a04d4bd50085149e64dc7b09cd3bf736a5a4b19f85d58ea535527917c3b2ae60408051848152856020820152a260025460081c6001600160a01b0316803b15610cb15783808092608460405180958193630ea62cb560e01b835273c02aaa39b223fe8d0a0e5c4f27ead9083c756cc260048401528960248401528b60448401528160648401525af19182610c9d575b5050610c5e575050602091505b600180556040519015158152f35b7f9f51370fe0eed8407b751449f0bf9ae3f5667f007a2ab895d820da7e2983ebab92509060409142600c5582519182526020820152a260206001610c50565b610ca690613733565b610cb157835f610c43565b8380fd5b60405162461bcd60e51b8152602060048201526019602482015278139bc81c1c9bd99a5d18589b19481c9bdd5d1948199bdd5b99603a1b6044820152606490fd5b945050506060833d8211610d36575b81610d1260609383613747565b81010312610746578251610d2d60406020860151950161391a565b9093905f610bab565b3d9150610d05565b600c54600d548101809111610d9257421015610b7a5760405162461bcd60e51b8152602060048201526016602482015275436f6f6c646f776e20706572696f642061637469766560501b6044820152606490fd5b634e487b7160e01b82526011600452602482fd5b50346102f957806003193601126102f9576020600654604051908152f35b50346102f95760203660031901126102f95760043580151580910361074657610deb613708565b60ff8019600b5416911617600b5580f35b50346102f957806003193601126102f957602060405173c02aaa39b223fe8d0a0e5c4f27ead9083c756cc28152f35b50346102f957806003193601126102f957602060405173efac88d8e212ca21d4fe670f715c4fe12cfbef058152f35b50346102f957806003193601126102f957602060ff600b54166040519015158152f35b50346102f95760203660031901126102f957600435610e9a613708565b620151808111610eaa57600d5580f35b60405162461bcd60e51b8152602060048201526011602482015270436f6f6c646f776e20746f6f206c6f6e6760781b6044820152606490fd5b50346102f957806003193601126102f95760035460045490818102918183041490151715610f1a5760209061271060405191048152f35b634e487b7160e01b5f52601160045260245ffd5b50346102f957806003193601126102f9576020600854604051908152f35b50346102f957610f5b366136b6565b9091610f6b600754831015613830565b610f7960085483111561387c565b60018060a01b039260029184835460081c169260405193637d331ac560e11b855283600486015260249483818781855afa978815610727578498611256575b50506020870182815151106112225751916060880151978189101561120f5760800151908110156111fc579161102496979161102e61101494604051998a96879563b3eeb62160e01b87526080600488015260848701906136cc565b958c8b8701526044860190613927565b6064840190613927565b818561014095869503925af1948515610595578295611136575b505061012061010085015194015115159283611129575b836110b2575b505060408051848152602081019590955282151585820152937fc30ee1c478b9b474754862f7feeeadc800dce627c1b0621a98906b3d4d97df2c90606090a2825191825215156020820152f35b90949250612710948585029585870414851517156111185750821561110557507fc30ee1c478b9b474754862f7feeeadc800dce627c1b0621a98906b3d4d97df2c60409483600554910410159294611065565b634e487b7160e01b5f9081526012600452fd5b634e487b7160e01b81526011600452fd5b600654851015935061105f565b908092955081813d83116111f5575b61114f8183613747565b810103126106de5760405191820182811067ffffffffffffffff8211176111e257604052805182526020810151602083015260408101516040830152606081015160608301526080810151608083015260a081015160a083015260c081015160c083015260e081015160e083015261010080820151908301526111d661012080920161391a565b90820152925f80611048565b84634e487b7160e01b5f5260416004525ffd5b503d611145565b634e487b7160e01b845260216004528584fd5b634e487b7160e01b855260216004528685fd5b60405162461bcd60e51b815260206004820152600d818801526c496e76616c696420726f75746560981b6044820152606490fd5b909197503d8085843e6112698184613747565b8201906020808484031261137a57835167ffffffffffffffff9485821161135f57019260a084820312611376576040519460a086018681108282111761136357604052845186528285015190811161135f5784019281601f8501121561135f578351906112d582613902565b946112e36040519687613747565b828652848087019360051b82010193841161135b578401915b83831061133f5750505050830152604081015160408301526060810151838110156106de5760608301526080015182811015610cb1576080820152955f80610fb8565b825182811681036113575781529184019184016112fc565b8a80fd5b8980fd5b8780fd5b8a634e487b7160e01b5f5260416004525ffd5b8680fd5b8580fd5b50346102f957806003193601126102f9576020600354604051908152f35b50346102f95760208060031936011261074657600254604051633225205760e01b81526004803593919282918491829060081c6001600160a01b03165afa918215610727578492611584575b509091926113f583613902565b926114036040519485613747565b80845261140f81613902565b9280850191601f1980950136843761142681613902565b966114346040519889613747565b81885261144082613902565b8884019601368737845b8281106114c95750505060405195869560408701906040885251809152606087019390855b8181106114b257505050858303868301525180835291810193925b82811061149957505050500390f35b835115158552869550938101939281019260010161148a565b82518652899850948401949184019160010161146f565b6115269060409994969597989951639517ed8560e01b81528160048201528360248201526040816044818a305af1908188918993611551575b5061153257505085611514828c6139f9565b528561152082876139f9565b52613934565b9796959394929761144a565b61153c838d6139f9565b5261154782876139f9565b9015159052613934565b909250611576915060403d60401161157d575b61156e8183613747565b810190613942565b915f611502565b503d611564565b9080925081813d83116115ac575b61159c8183613747565b8101031261071c5751905f6113e8565b503d611592565b50346102f957806003193601126102f957546040516001600160a01b039091168152602090f35b50346102f957602080600319360112610746576004356001600160a01b0381811691829003610cb15761160b6139a3565b611613613708565b811561169f57839060025460081c16803b1561074657818091602460405180948193631bfc726f60e21b83528860048401525af180156105955761168b575b50506040516370a0823160e01b8152306004820152918083602481855afa9283156107275784936106f457508261065457836001805580f35b61169490613733565b6103f957825f611652565b60405162461bcd60e51b815260048101849052600d60248201526c24b73b30b634b2103a37b5b2b760991b6044820152606490fd5b50346102f957806003193601126102f9576040516370a0823160e01b815230600482015260208160248173c02aaa39b223fe8d0a0e5c4f27ead9083c756cc25afa908115610595578291611c9f575b506040516370a0823160e01b815230600482015260208160248173a0b86991c6218b36c1d19d4a2e9eb0ce3606eb485afa908115611bfc578391611c6d575b506040516370a0823160e01b81523060048201529260208460248173dac17f958d2ee523a2206206994597c13d831ec75afa938415610861578194611c39575b506040516370a0823160e01b8152306004820152602081602481736b175474e89094c44da98b954eedeac495271d0f5afa908115610595578291611c07575b506040516370a0823160e01b8152306004820152602081602481733432b6a60d23ca0dfca7761b7ab56459d9c964d05afa908115611bfc578391611bca575b506040516370a0823160e01b8152306004820152602081602481735f98805a4e8f28fb3fbe254ccf7e6f82e44676835afa908115610727578491611b98575b506040516370a0823160e01b8152306004820152602081602481738e870d67f660d95d5be2d7738b5b1294a692a0b95afa9081156106e9578591611b66575b506040516370a0823160e01b8152306004820152906020826024816e085d4780b73119b644ae5ecd22b3765afa918215611b5b578692611b27575b506040516370a0823160e01b81523060048201529260208460248173056fd409e1d7a124bd7017459dfea2f387b6d5cd5afa938415611b1c578794611ae8575b506040516370a0823160e01b815230600482015294602086602481734fabb145d64652a948d72533023f6e7a623c7c535afa958615611add578896611aa9575b506040516370a0823160e01b81523060048201529660208860248173a7d1d0da000261f05d8d4532fd34439d3325ad8b5afa978815611a9e578998611a6a575b506040516370a0823160e01b81523060048201529b60208d60248173db25f211ab05b1c97d595516f45794528a807ad85afa998a15611a5e5799611a28575b6101a09c50479a6040519c8d5260208d015260408c015260608b015260808a015260a089015260c088015260e0870152610100860152610120850152610140840152610160830152610180820152f35b985060208c3d602011611a56575b81611a4360209383613747565b8101031261071c576101a09b51986119d8565b3d9150611a36565b604051903d90823e3d90fd5b9097506020813d602011611a96575b81611a8660209383613747565b8101031261071c5751965f611999565b3d9150611a79565b6040513d8b823e3d90fd5b9095506020813d602011611ad5575b81611ac560209383613747565b8101031261071c5751945f611959565b3d9150611ab8565b6040513d8a823e3d90fd5b9093506020813d602011611b14575b81611b0460209383613747565b8101031261071c5751925f611919565b3d9150611af7565b6040513d89823e3d90fd5b9091506020813d602011611b53575b81611b4360209383613747565b8101031261071c5751905f6118d9565b3d9150611b36565b6040513d88823e3d90fd5b90506020813d602011611b90575b81611b8160209383613747565b8101031261071c57515f61189e565b3d9150611b74565b90506020813d602011611bc2575b81611bb360209383613747565b8101031261071c57515f61185f565b3d9150611ba6565b90506020813d602011611bf4575b81611be560209383613747565b8101031261071c57515f611820565b3d9150611bd8565b6040513d85823e3d90fd5b90506020813d602011611c31575b81611c2260209383613747565b8101031261071c57515f6117e1565b3d9150611c15565b9093506020813d602011611c65575b81611c5560209383613747565b8101031261071c5751925f6117a2565b3d9150611c48565b90506020813d602011611c97575b81611c8860209383613747565b8101031261071c57515f611762565b3d9150611c7b565b90506020813d602011611cc9575b81611cba60209383613747565b8101031261071c57515f611723565b3d9150611cad565b50346102f957806003193601126102f957611cea6139a3565b611cf2613708565b600280546001600160a01b0392915f91600890811c8516803b15610cb15783949560405193631bfc726f60e21b94858152868173c02aaa39b223fe8d0a0e5c4f27ead9083c756cc2958660048301528160249a8b925af1612b9e575b506040516370a0823160e01b9384825230600483015260209889838a81855afa928315610861578193612b6f575b5082612ae8575b50508154851c831690505f813b156102f95760405187815281818a818373a0b86991c6218b36c1d19d4a2e9eb0ce3606eb48978860048401525af1612ad9575b50906040519185835230600484015289838a81855afa928315610861578193612aaa575b5082612a23575b50508154851c831690505f813b156102f95760405187815281818a818373dac17f958d2ee523a2206206994597c13d831ec7978860048401525af1612a14575b50906040519185835230600484015289838a81855afa9283156108615781936129e5575b508261295e575b50508154851c831690505f813b156102f95760405187815281818a8183736b175474e89094c44da98b954eedeac495271d0f978860048401525af161294f575b50906040519185835230600484015289838a81855afa928315610861578193612920575b5082612899575b50508154851c831690505f813b156102f95760405187815281818a8183733432b6a60d23ca0dfca7761b7ab56459d9c964d0978860048401525af161288a575b50906040519185835230600484015289838a81855afa92831561086157819361285b575b50826127d4575b50508154851c831690505f813b156102f95760405187815281818a8183735f98805a4e8f28fb3fbe254ccf7e6f82e4467683978860048401525af16127c5575b50906040519185835230600484015289838a81855afa928315610861578193612796575b508261270f575b50508154851c831690505f813b156102f95760405187815281818a8183738e870d67f660d95d5be2d7738b5b1294a692a0b9978860048401525af1612700575b50906040519185835230600484015289838a81855afa9283156108615781936126d1575b508261264a575b50508154851c831690505f813b156102f95760405187815281818a81836e085d4780b73119b644ae5ecd22b376978860048401525af161263b575b50906040519185835230600484015289838a81855afa92831561086157819361260c575b5082612585575b50508154851c831690505f813b156102f95760405187815281818a818373056fd409e1d7a124bd7017459dfea2f387b6d5cd978860048401525af1612576575b50906040519185835230600484015289838a81855afa928315610861578193612547575b50826124c0575b50508154851c831690505f813b156102f95760405187815281818a8183734fabb145d64652a948d72533023f6e7a623c7c53978860048401525af16124b1575b50906040519185835230600484015289838a81855afa928315610861578193612482575b50826123fb575b50508154851c831690505f813b156102f95760405187815281818a818373a7d1d0da000261f05d8d4532fd34439d3325ad8b978860048401525af16123ec575b50906040519185835230600484015289838a81855afa9283156108615781936123bd575b5082612336575b505050545f931c1692833b156103f957908591604051908152838187818373db25f211ab05b1c97d595516f45794528a807ad8998a60048401525af1612323575b50604051948591825230600483015281855afa9283156108615781936122f4575b508261226d575b505050479081612228575b826001805580f35b7f6148672a948a12b8e0bf92a9338349b9ac890fad62a234abaf0a4da99f62cfcc9061225d8480808087335af1610549613a0d565b6040519283523392a25f80612220565b60405163a9059cbb60e01b81523360048201526024810184905290848260448184875af18015610861576122be575b50506040519182525f80516020613a8f833981519152833393a35f8080612215565b8482813d83116122ed575b6122d38183613747565b810103126102f957506122e59061391a565b505f8061229c565b503d6122c9565b9092508381813d831161231c575b61230c8183613747565b8101031261071c5751915f61220e565b503d612302565b61232f90939193613733565b915f6121ed565b60405163a9059cbb60e01b815233600482015260248101849052908a8260448184875af1801561086157612387575b50506040519182525f80516020613a8f833981519152893393a35f80806121ac565b8a82813d83116123b6575b61239c8183613747565b810103126102f957506123ae9061391a565b505f80612365565b503d612392565b9092508981813d83116123e5575b6123d58183613747565b8101031261071c5751915f6121a5565b503d6123cb565b6123f590613733565b5f612181565b60405163a9059cbb60e01b815233600482015260248101849052908a8260448184875af180156108615761244c575b50506040519182525f80516020613a8f833981519152893393a35f8080612141565b8a82813d831161247b575b6124618183613747565b810103126102f957506124739061391a565b505f8061242a565b503d612457565b9092508981813d83116124aa575b61249a8183613747565b8101031261071c5751915f61213a565b503d612490565b6124ba90613733565b5f612116565b60405163a9059cbb60e01b815233600482015260248101849052908a8260448184875af1801561086157612511575b50506040519182525f80516020613a8f833981519152893393a35f80806120d6565b8a82813d8311612540575b6125268183613747565b810103126102f957506125389061391a565b505f806124ef565b503d61251c565b9092508981813d831161256f575b61255f8183613747565b8101031261071c5751915f6120cf565b503d612555565b61257f90613733565b5f6120ab565b60405163a9059cbb60e01b815233600482015260248101849052908a8260448184875af18015610861576125d6575b50506040519182525f80516020613a8f833981519152893393a35f808061206b565b8a82813d8311612605575b6125eb8183613747565b810103126102f957506125fd9061391a565b505f806125b4565b503d6125e1565b9092508981813d8311612634575b6126248183613747565b8101031261071c5751915f612064565b503d61261a565b61264490613733565b5f612040565b60405163a9059cbb60e01b815233600482015260248101849052908a8260448184875af180156108615761269b575b50506040519182525f80516020613a8f833981519152893393a35f8080612005565b8a82813d83116126ca575b6126b08183613747565b810103126102f957506126c29061391a565b505f80612679565b503d6126a6565b9092508981813d83116126f9575b6126e98183613747565b8101031261071c5751915f611ffe565b503d6126df565b61270990613733565b5f611fda565b60405163a9059cbb60e01b815233600482015260248101849052908a8260448184875af1801561086157612760575b50506040519182525f80516020613a8f833981519152893393a35f8080611f9a565b8a82813d831161278f575b6127758183613747565b810103126102f957506127879061391a565b505f8061273e565b503d61276b565b9092508981813d83116127be575b6127ae8183613747565b8101031261071c5751915f611f93565b503d6127a4565b6127ce90613733565b5f611f6f565b60405163a9059cbb60e01b815233600482015260248101849052908a8260448184875af1801561086157612825575b50506040519182525f80516020613a8f833981519152893393a35f8080611f2f565b8a82813d8311612854575b61283a8183613747565b810103126102f9575061284c9061391a565b505f80612803565b503d612830565b9092508981813d8311612883575b6128738183613747565b8101031261071c5751915f611f28565b503d612869565b61289390613733565b5f611f04565b60405163a9059cbb60e01b815233600482015260248101849052908a8260448184875af18015610861576128ea575b50506040519182525f80516020613a8f833981519152893393a35f8080611ec4565b8a82813d8311612919575b6128ff8183613747565b810103126102f957506129119061391a565b505f806128c8565b503d6128f5565b9092508981813d8311612948575b6129388183613747565b8101031261071c5751915f611ebd565b503d61292e565b61295890613733565b5f611e99565b60405163a9059cbb60e01b815233600482015260248101849052908a8260448184875af18015610861576129af575b50506040519182525f80516020613a8f833981519152893393a35f8080611e59565b8a82813d83116129de575b6129c48183613747565b810103126102f957506129d69061391a565b505f8061298d565b503d6129ba565b9092508981813d8311612a0d575b6129fd8183613747565b8101031261071c5751915f611e52565b503d6129f3565b612a1d90613733565b5f611e2e565b60405163a9059cbb60e01b815233600482015260248101849052908a8260448184875af1801561086157612a74575b50506040519182525f80516020613a8f833981519152893393a35f8080611dee565b8a82813d8311612aa3575b612a898183613747565b810103126102f95750612a9b9061391a565b505f80612a52565b503d612a7f565b9092508981813d8311612ad2575b612ac28183613747565b8101031261071c5751915f611de7565b503d612ab8565b612ae290613733565b5f611dc3565b60405163a9059cbb60e01b815233600482015260248101849052908a8260448184875af1801561086157612b39575b50506040519182525f80516020613a8f833981519152893393a35f8080611d83565b8a82813d8311612b68575b612b4e8183613747565b810103126102f95750612b609061391a565b505f80612b17565b503d612b44565b9092508981813d8311612b97575b612b878183613747565b8101031261071c5751915f611d7c565b503d612b7d565b612baa90979197613733565b955f611d4e565b50346102f957806003193601126102f957612bca613708565b612bd261395f565b600160ff1960025416176002557f62e78cea01bee320cd4e420270b5ea74000d11b0c9f74754ebdbfc544b05a2586020604051338152a180f35b50346102f957806003193601126102f9576020600c54604051908152f35b50346102f95760208060031936011261074657600254604051633225205760e01b8152926004803593919282918691829060081c6001600160a01b03165afa938415610595578294612d8a575b508315612d505750612c8d600754831015613830565b612c9b60085483111561387c565b8092819282805b838110612cc657604080518781526020810189905286151591810191909152606090f35b604051639517ed8560e01b815281600482015283602482015260408160448186305af1908184918593612d2d575b50612d09575050612d0490613934565b612ca2565b888111612d1c575b5050612d0490613934565b9750909550935084612d045f612d11565b909250612d49915060403d60401161157d5761156e8183613747565b915f612cf4565b6064906040519062461bcd60e51b8252600482015260136024820152724e6f20726f7574657320617661696c61626c6560681b6044820152fd5b9080945081813d8311612db2575b612da28183613747565b8101031261071c5751925f612c77565b503d612d98565b50346102f957806003193601126102f957612dd2613708565b5f80546001600160a01b0319811682556001600160a01b03167f8be0079c531659141344cd1fd0a4f28419497f9722a3daafe3b4186f6b6457e08280a380f35b50346102f957806003193601126102f957602047604051908152f35b50346102f957806003193601126102f9576020600754604051908152f35b50346102f95760203660031901126102f9575f80516020613aaf833981519152600435612e77613708565b612e85600754821015613830565b612e9360085482111561387c565b600381905560045460055460065460408051948552602085019390935291830152606082015280608081016102b4565b50346102f957806003193601126102f957602060ff600254166040519015158152f35b50346102f95760203660031901126102f9575f80516020613aaf833981519152600435612f11613708565b806006556003546102b460045492600554604051948594859094939260609260808301968352602083015260408201520152565b50346102f957806003193601126102f9576020600454604051908152f35b50346102f957806003193601126102f957612f7c6139a3565b612f84613708565b60025460081c6001600160a01b0316803b156107465781604051631bfc726f60e21b815281816024818373c02aaa39b223fe8d0a0e5c4f27ead9083c756cc2978860048401525af18015610595576107325750506040516370a0823160e01b81523060048201529060208083602481855afa9283156107275784936106f457508261065457836001805580f35b50346102f957806003193601126102f95761302a613708565b60025460ff81161561306a5760ff19166002557f5db9ee0a495bf2e6ff9c91a7834c1ba4fdd244a5e8aa4e537bd38aeae4b073aa6020604051338152a180f35b60405162461bcd60e51b815260206004820152601460248201527314185d5cd8589b194e881b9bdd081c185d5cd95960621b6044820152606490fd5b50346102f957602090816003193601126102f9576004356001600160a01b038116908190036107465782602491604051928380926370a0823160e01b82523060048301525afa918215611a5e5791613102575b50604051908152f35b90508181813d8311613128575b6131198183613747565b8101031261071c57515f6130f9565b503d61310f565b50346102f957806003193601126102f9576020600954604051908152f35b50346102f957806003193601126102f9576131666139a3565b61316e613708565b60025460081c6001600160a01b0316803b156107465781604051631bfc726f60e21b815281816024818373dac17f958d2ee523a2206206994597c13d831ec7978860048401525af18015610595576107325750506040516370a0823160e01b81523060048201529060208083602481855afa9283156107275784936106f457508261065457836001805580f35b50346102f9577fb332ff846a7f7e49c967d592cb8ecccd56f3693ab85af2f484aa5bfabcd2a57a61322b366136b6565b613233613708565b6132416127108311156138c8565b6009829055600a819055600754600854604080519283526020830191909152810192909252606082015280608081016102b4565b50346102f957806003193601126102f9576020600d54604051908152f35b50346102f95760203660031901126102f9576004356132b0613708565b801561333d576103e8811161330257805f80516020613aaf833981519152916004556003546102b460055460065490604051948594859094939260609260808301968352602083015260408201520152565b60405162461bcd60e51b81526020600482015260136024820152725072656d69756d20657863656564732031302560681b6044820152606490fd5b60405162461bcd60e51b815260206004820152601860248201527f5072656d69756d206d75737420626520706f73697469766500000000000000006044820152606490fd5b50346102f957602090816003193601126102f9576004356133a16139a3565b6133a961395f565b6133b1613708565b6133bf600754821015613830565b6133cd60085482111561387c565b60ff600b5416613590575b60405163716ad82560e01b8152600481018290529060608260248186305af1918215611bfc57839284918591613549575b501561350857827f99a04d4bd50085149e64dc7b09cd3bf736a5a4b19f85d58ea535527917c3b2ae604080518481528589820152a260025460081c6001600160a01b0316803b156106de5784808092608460405180958193630ea62cb560e01b835273c02aaa39b223fe8d0a0e5c4f27ead9083c756cc260048401528960248401528a60448401528160648401525af191826134f4575b50506134b757505050600180556040519015158152f35b7f9f51370fe0eed8407b751449f0bf9ae3f5667f007a2ab895d820da7e2983ebab9293509060409142600c55825191825285820152a26001610c50565b6134fd90613733565b6106de57845f6134a0565b60405162461bcd60e51b8152600481018690526019602482015278139bc81c1c9bd99a5d18589b19481c9bdd5d1948199bdd5b99603a1b6044820152606490fd5b935050506060823d8211613588575b8161356560609383613747565b810103126103f957815161357f604086850151940161391a565b9092905f613409565b3d9150613558565b600c54600d5481018091116135e4574210156133d85760405162461bcd60e51b8152600481018490526016602482015275436f6f6c646f776e20706572696f642061637469766560501b6044820152606490fd5b634e487b7160e01b83526011600452602483fd5b50346102f957806003193601126102f9576136116139a3565b613619613708565b60025460081c6001600160a01b031690813b156102f957604051631bfc726f60e21b8152818160248183736b175474e89094c44da98b954eedeac495271d0f978860048401525af18015610595576136a7575b506040516370a0823160e01b8152306004820152909160208083602481855afa9283156107275784936106f457508261065457836001805580f35b6136b090613733565b5f61366c565b604090600319011261071c576004359060243590565b9081518082526020808093019301915f5b8281106136eb575050505090565b83516001600160a01b0316855293810193928101926001016136dd565b5f546001600160a01b0316330361371b57565b60405163118cdaa760e01b8152336004820152602490fd5b67ffffffffffffffff8111610a8457604052565b90601f8019910116810190811067ffffffffffffffff821117610a8457604052565b519069ffffffffffffffffffff8216820361071c57565b600481101561381c57806137a7575073a0b86991c6218b36c1d19d4a2e9eb0ce3606eb4890565b600181036137c8575073833589fcd6edb6e08f4c7c32d4f71b54bda0291390565b6002146138045760405162461bcd60e51b815260206004820152600d60248201526c24b73b30b634b21031b430b4b760991b6044820152606490fd5b73fd086bc7cd5c481dcc9c85ebe478a1c0b69fcbb990565b634e487b7160e01b5f52602160045260245ffd5b1561383757565b60405162461bcd60e51b815260206004820152601860248201527f42656c6f77206d696e696d756d20666c617368206c6f616e00000000000000006044820152606490fd5b1561388357565b60405162461bcd60e51b815260206004820152601a60248201527f45786365656473206d6178696d756d20666c617368206c6f616e0000000000006044820152606490fd5b156138cf57565b60405162461bcd60e51b815260206004820152600b60248201526a496e76616c69642042505360a81b6044820152606490fd5b67ffffffffffffffff8111610a845760051b60200190565b5190811515820361071c57565b90600282101561381c5752565b5f198114610f1a5760010190565b919082604091031261071c5761395c60208351930161391a565b90565b60ff6002541661396b57565b60405162461bcd60e51b815260206004820152601060248201526f14185d5cd8589b194e881c185d5cd95960821b6044820152606490fd5b6002600154146139b4576002600155565b60405162461bcd60e51b815260206004820152601f60248201527f5265656e7472616e637947756172643a207265656e7472616e742063616c6c006044820152606490fd5b8051821015610a705760209160051b010190565b3d15613a47573d9067ffffffffffffffff8211610a845760405191613a3c601f8201601f191660200184613747565b82523d5f602084013e565b606090565b15613a5357565b60405162461bcd60e51b8152602060048201526013602482015272115512081d1c985b9cd9995c8819985a5b1959606a1b6044820152606490fdfee6fee221bb8a85476104e6b67ae7b66010866c78f60f8ce4946f80da6ce04df0e80ae431014c3cf3f69bd7993ebcf6e5b6aee464fd4152bb7f730ca4f812b9d0a26469706673582212204af50cebb8c2e5c45f9c165c84279f8315111e24e3d9bbec0607cc9dbd8a38c964736f6c63430008140033",
					"opcodes": "PUSH1 0x80 DUP1 PUSH1 0x40 MSTORE CALLVALUE PUSH2 0xEE JUMPI CALLER ISZERO PUSH2 0xD9 JUMPI PUSH0 DUP1 SLOAD CALLER PUSH1 0x1 PUSH1 0x1 PUSH1 0xA0 SHL SUB NOT DUP3 AND DUP2 OR DUP4 SSTORE PUSH1 0x40 MLOAD SWAP3 SWAP1 SWAP2 PUSH1 0x1 PUSH1 0x1 PUSH1 0xA0 SHL SUB AND SWAP1 PUSH32 0x8BE0079C531659141344CD1FD0A4F28419497F9722A3DAAFE3B4186F6B6457E0 SWAP1 DUP1 LOG3 PUSH1 0x1 DUP1 SSTORE PUSH21 0xEFAC88D8E212CA21D4FE670F715C4FE12CFBEF0500 PUSH1 0x2 SLOAD PUSH8 0xDE0B6B3A7640000 DUP1 PUSH1 0x3 SSTORE PUSH1 0x9 PUSH1 0x4 SSTORE PUSH1 0x32 PUSH1 0x5 SSTORE PUSH7 0x2386F26FC10000 SWAP1 DUP2 PUSH1 0x6 SSTORE PUSH1 0x7 SSTORE PUSH10 0x21E19E0C9BAB2400000 PUSH1 0x8 SSTORE PUSH1 0x32 PUSH1 0x9 SSTORE PUSH1 0xA SSTORE PUSH1 0xFF NOT PUSH1 0xB SLOAD AND PUSH1 0xB SSTORE PUSH1 0x3C PUSH1 0xD SSTORE PUSH1 0x1 DUP1 PUSH1 0xA8 SHL SUB NOT AND OR PUSH1 0x2 SSTORE PUSH2 0x3B04 SWAP1 DUP2 PUSH2 0xF3 DUP3 CODECOPY RETURN JUMPDEST PUSH4 0x1E4FBDF7 PUSH1 0xE0 SHL DUP2 MSTORE PUSH0 PUSH1 0x4 DUP3 ADD MSTORE PUSH1 0x24 SWAP1 REVERT JUMPDEST PUSH0 DUP1 REVERT INVALID PUSH1 0x80 PUSH1 0x40 MSTORE PUSH1 0x4 CALLDATASIZE LT ISZERO PUSH2 0x1A JUMPI JUMPDEST CALLDATASIZE ISZERO PUSH2 0x18 JUMPI PUSH0 DUP1 REVERT JUMPDEST STOP JUMPDEST PUSH0 DUP1 CALLDATALOAD PUSH1 0xE0 SHR DUP1 PUSH4 0x20BCC9E EQ PUSH2 0x35F8 JUMPI DUP1 PUSH4 0xAF95101 EQ PUSH2 0x3382 JUMPI DUP1 PUSH4 0x1DA9E7BB EQ PUSH2 0x3293 JUMPI DUP1 PUSH4 0x2E610FB8 EQ PUSH2 0x3275 JUMPI DUP1 PUSH4 0x315B41CE EQ PUSH2 0x31FB JUMPI DUP1 PUSH4 0x362E496B EQ PUSH2 0x314D JUMPI DUP1 PUSH4 0x38FA84F8 EQ PUSH2 0x312F JUMPI DUP1 PUSH4 0x3AECD0E3 EQ PUSH2 0x30A6 JUMPI DUP1 PUSH4 0x3F4BA83A EQ PUSH2 0x3011 JUMPI DUP1 PUSH4 0x4C02F62E EQ PUSH2 0x2F63 JUMPI DUP1 PUSH4 0x55CABD90 EQ PUSH2 0x2F45 JUMPI DUP1 PUSH4 0x55CE344A EQ PUSH2 0x2EE6 JUMPI DUP1 PUSH4 0x5C975ABB EQ PUSH2 0x2EC3 JUMPI DUP1 PUSH4 0x66E5B5C5 EQ PUSH2 0x2E4C JUMPI DUP1 PUSH4 0x6B9C189F EQ PUSH2 0x2E2E JUMPI DUP1 PUSH4 0x6E947298 EQ PUSH2 0x2E12 JUMPI DUP1 PUSH4 0x715018A6 EQ PUSH2 0x2DB9 JUMPI DUP1 PUSH4 0x716AD825 EQ PUSH2 0x2C2A JUMPI DUP1 PUSH4 0x73B379BD EQ PUSH2 0x2C0C JUMPI DUP1 PUSH4 0x8456CB59 EQ PUSH2 0x2BB1 JUMPI DUP1 PUSH4 0x853828B6 EQ PUSH2 0x1CD1 JUMPI DUP1 PUSH4 0x867E7C27 EQ PUSH2 0x16D4 JUMPI DUP1 PUSH4 0x89476069 EQ PUSH2 0x15DA JUMPI DUP1 PUSH4 0x8DA5CB5B EQ PUSH2 0x15B3 JUMPI DUP1 PUSH4 0x8F40F0A6 EQ PUSH2 0x139C JUMPI DUP1 PUSH4 0x90324B58 EQ PUSH2 0x137E JUMPI DUP1 PUSH4 0x9517ED85 EQ PUSH2 0xF4C JUMPI DUP1 PUSH4 0xA140EDB4 EQ PUSH2 0xF2E JUMPI DUP1 PUSH4 0xA3708744 EQ PUSH2 0xEE3 JUMPI DUP1 PUSH4 0xA6B8EC96 EQ PUSH2 0xE7D JUMPI DUP1 PUSH4 0xA911F736 EQ PUSH2 0xE5A JUMPI DUP1 PUSH4 0xAD3707D4 EQ PUSH2 0xE2B JUMPI DUP1 PUSH4 0xAFFA8817 EQ PUSH2 0xDFC JUMPI DUP1 PUSH4 0xB4804CE7 EQ PUSH2 0xDC4 JUMPI DUP1 PUSH4 0xB75844D6 EQ PUSH2 0xDA6 JUMPI DUP1 PUSH4 0xBAF22721 EQ PUSH2 0xB0E JUMPI DUP1 PUSH4 0xCCDC7057 EQ PUSH2 0xAF0 JUMPI DUP1 PUSH4 0xCF224D07 EQ PUSH2 0xAD2 JUMPI DUP1 PUSH4 0xD2D43111 EQ PUSH2 0xA98 JUMPI DUP1 PUSH4 0xD3C7C2C7 EQ PUSH2 0x86E JUMPI DUP1 PUSH4 0xD7B3A397 EQ PUSH2 0x74A JUMPI DUP1 PUSH4 0xD8FC063D EQ PUSH2 0x5A3 JUMPI DUP1 PUSH4 0xE086E5EC EQ PUSH2 0x4C9 JUMPI DUP1 PUSH4 0xE2A594B6 EQ PUSH2 0x48D JUMPI DUP1 PUSH4 0xE61D98C5 EQ PUSH2 0x42A JUMPI DUP1 PUSH4 0xE6419B3F EQ PUSH2 0x3FD JUMPI DUP1 PUSH4 0xF2FDE38B EQ PUSH2 0x36A JUMPI DUP1 PUSH4 0xF4D2832D EQ PUSH2 0x2FC JUMPI PUSH4 0xF7D5E663 EQ PUSH2 0x240 JUMPI POP PUSH2 0xE JUMP JUMPDEST CALLVALUE PUSH2 0x2F9 JUMPI PUSH2 0x24E CALLDATASIZE PUSH2 0x36B6 JUMP JUMPDEST PUSH2 0x256 PUSH2 0x3708 JUMP JUMPDEST DUP2 ISZERO ISZERO DUP1 PUSH2 0x2F0 JUMPI JUMPDEST ISZERO PUSH2 0x2BA JUMPI PUSH1 0x7 DUP3 SWAP1 SSTORE PUSH1 0x8 DUP2 SWAP1 SSTORE PUSH1 0x9 SLOAD PUSH1 0xA SLOAD PUSH1 0x40 DUP1 MLOAD SWAP5 DUP6 MSTORE PUSH1 0x20 DUP6 ADD SWAP4 SWAP1 SWAP4 MSTORE SWAP2 DUP4 ADD MSTORE PUSH1 0x60 DUP3 ADD MSTORE PUSH32 0xB332FF846A7F7E49C967D592CB8ECCCD56F3693AB85AF2F484AA5BFABCD2A57A SWAP1 DUP1 PUSH1 0x80 DUP2 ADD JUMPDEST SUB SWAP1 LOG1 DUP1 RETURN JUMPDEST PUSH1 0x40 MLOAD PUSH3 0x461BCD PUSH1 0xE5 SHL DUP2 MSTORE PUSH1 0x20 PUSH1 0x4 DUP3 ADD MSTORE PUSH1 0xE PUSH1 0x24 DUP3 ADD MSTORE PUSH14 0x496E76616C6964206C696D697473 PUSH1 0x90 SHL PUSH1 0x44 DUP3 ADD MSTORE PUSH1 0x64 SWAP1 REVERT JUMPDEST POP DUP2 DUP2 GT PUSH2 0x25F JUMP JUMPDEST DUP1 REVERT JUMPDEST POP CALLVALUE PUSH2 0x2F9 JUMPI PUSH1 0x20 CALLDATASIZE PUSH1 0x3 NOT ADD SLT PUSH2 0x2F9 JUMPI PUSH0 DUP1 MLOAD PUSH1 0x20 PUSH2 0x3AAF DUP4 CODECOPY DUP2 MLOAD SWAP2 MSTORE PUSH1 0x4 CALLDATALOAD PUSH2 0x327 PUSH2 0x3708 JUMP JUMPDEST PUSH2 0x335 PUSH2 0x2710 DUP3 GT ISZERO PUSH2 0x38C8 JUMP JUMPDEST DUP1 PUSH1 0x5 SSTORE PUSH1 0x3 SLOAD PUSH2 0x2B4 PUSH1 0x4 SLOAD SWAP3 PUSH1 0x6 SLOAD SWAP1 PUSH1 0x40 MLOAD SWAP5 DUP6 SWAP5 DUP6 SWAP1 SWAP5 SWAP4 SWAP3 PUSH1 0x60 SWAP3 PUSH1 0x80 DUP4 ADD SWAP7 DUP4 MSTORE PUSH1 0x20 DUP4 ADD MSTORE PUSH1 0x40 DUP3 ADD MSTORE ADD MSTORE JUMP JUMPDEST POP CALLVALUE PUSH2 0x2F9 JUMPI PUSH1 0x20 CALLDATASIZE PUSH1 0x3 NOT ADD SLT PUSH2 0x2F9 JUMPI PUSH1 0x4 CALLDATALOAD PUSH1 0x1 PUSH1 0x1 PUSH1 0xA0 SHL SUB DUP2 DUP2 AND SWAP2 DUP3 SWAP1 SUB PUSH2 0x3F9 JUMPI PUSH2 0x39A PUSH2 0x3708 JUMP JUMPDEST DUP2 ISZERO PUSH2 0x3E0 JUMPI PUSH0 SLOAD DUP3 PUSH12 0xFFFFFFFFFFFFFFFFFFFFFFFF PUSH1 0xA0 SHL DUP3 AND OR PUSH0 SSTORE AND PUSH32 0x8BE0079C531659141344CD1FD0A4F28419497F9722A3DAAFE3B4186F6B6457E0 PUSH0 DUP1 LOG3 DUP1 RETURN JUMPDEST PUSH1 0x40 MLOAD PUSH4 0x1E4FBDF7 PUSH1 0xE0 SHL DUP2 MSTORE PUSH1 0x4 DUP2 ADD DUP5 SWAP1 MSTORE PUSH1 0x24 SWAP1 REVERT JUMPDEST DUP3 DUP1 REVERT JUMPDEST POP CALLVALUE PUSH2 0x2F9 JUMPI DUP1 PUSH1 0x3 NOT CALLDATASIZE ADD SLT PUSH2 0x2F9 JUMPI PUSH1 0x2 SLOAD PUSH1 0x40 MLOAD PUSH1 0x8 SWAP2 SWAP1 SWAP2 SHR PUSH1 0x1 PUSH1 0x1 PUSH1 0xA0 SHL SUB AND DUP2 MSTORE PUSH1 0x20 SWAP1 RETURN JUMPDEST POP CALLVALUE PUSH2 0x2F9 JUMPI DUP1 PUSH1 0x3 NOT CALLDATASIZE ADD SLT PUSH2 0x2F9 JUMPI PUSH1 0x60 PUSH1 0x40 MLOAD PUSH20 0xA0B86991C6218B36C1D19D4A2E9EB0CE3606EB48 DUP2 MSTORE PUSH20 0x833589FCD6EDB6E08F4C7C32D4F71B54BDA02913 PUSH1 0x20 DUP3 ADD MSTORE PUSH20 0xFD086BC7CD5C481DCC9C85EBE478A1C0B69FCBB9 PUSH1 0x40 DUP3 ADD MSTORE RETURN JUMPDEST POP CALLVALUE PUSH2 0x2F9 JUMPI PUSH1 0x20 CALLDATASIZE PUSH1 0x3 NOT ADD SLT PUSH2 0x2F9 JUMPI PUSH1 0x4 CALLDATALOAD SWAP1 PUSH1 0x4 DUP3 LT ISZERO PUSH2 0x2F9 JUMPI PUSH1 0x20 PUSH2 0x4B7 DUP4 PUSH2 0x3780 JUMP JUMPDEST PUSH1 0x40 MLOAD PUSH1 0x1 PUSH1 0x1 PUSH1 0xA0 SHL SUB SWAP1 SWAP2 AND DUP2 MSTORE RETURN JUMPDEST POP CALLVALUE PUSH2 0x2F9 JUMPI DUP1 PUSH1 0x3 NOT CALLDATASIZE ADD SLT PUSH2 0x2F9 JUMPI PUSH2 0x4E2 PUSH2 0x39A3 JUMP JUMPDEST PUSH2 0x4EA PUSH2 0x3708 JUMP JUMPDEST PUSH1 0x2 SLOAD DUP2 SWAP1 PUSH1 0x8 SHR PUSH1 0x1 PUSH1 0x1 PUSH1 0xA0 SHL SUB AND DUP1 EXTCODESIZE ISZERO PUSH2 0x5A0 JUMPI DUP2 DUP1 SWAP2 PUSH1 0x4 PUSH1 0x40 MLOAD DUP1 SWAP5 DUP2 SWAP4 PUSH4 0x3821B97B PUSH1 0xE2 SHL DUP4 MSTORE GAS CALL DUP1 ISZERO PUSH2 0x595 JUMPI PUSH2 0x581 JUMPI JUMPDEST POP POP SELFBALANCE DUP1 PUSH2 0x536 JUMPI JUMPDEST POP PUSH1 0x1 DUP1 SSTORE DUP1 RETURN JUMPDEST PUSH2 0x54F DUP3 DUP1 DUP1 DUP1 DUP6 CALLER GAS CALL PUSH2 0x549 PUSH2 0x3A0D JUMP JUMPDEST POP PUSH2 0x3A4C JUMP JUMPDEST PUSH1 0x40 MLOAD SWAP1 DUP2 MSTORE PUSH32 0x6148672A948A12B8E0BF92A9338349B9AC890FAD62A234ABAF0A4DA99F62CFCC PUSH1 0x20 CALLER SWAP3 LOG2 PUSH0 PUSH2 0x52E JUMP JUMPDEST PUSH2 0x58A SWAP1 PUSH2 0x3733 JUMP JUMPDEST PUSH2 0x2F9 JUMPI DUP1 PUSH0 PUSH2 0x525 JUMP JUMPDEST PUSH1 0x40 MLOAD RETURNDATASIZE DUP5 DUP3 RETURNDATACOPY RETURNDATASIZE SWAP1 REVERT JUMPDEST POP REVERT JUMPDEST POP CALLVALUE PUSH2 0x2F9 JUMPI DUP1 PUSH1 0x3 NOT CALLDATASIZE ADD SLT PUSH2 0x2F9 JUMPI PUSH2 0x5BC PUSH2 0x39A3 JUMP JUMPDEST PUSH2 0x5C4 PUSH2 0x3708 JUMP JUMPDEST PUSH1 0x2 SLOAD PUSH1 0x8 SHR PUSH1 0x1 PUSH1 0x1 PUSH1 0xA0 SHL SUB AND DUP1 EXTCODESIZE ISZERO PUSH2 0x746 JUMPI DUP2 PUSH1 0x40 MLOAD PUSH4 0x1BFC726F PUSH1 0xE2 SHL DUP2 MSTORE DUP2 DUP2 PUSH1 0x24 DUP2 DUP4 PUSH20 0xA0B86991C6218B36C1D19D4A2E9EB0CE3606EB48 SWAP8 DUP9 PUSH1 0x4 DUP5 ADD MSTORE GAS CALL DUP1 ISZERO PUSH2 0x595 JUMPI PUSH2 0x732 JUMPI JUMPDEST POP POP PUSH1 0x40 MLOAD PUSH4 0x70A08231 PUSH1 0xE0 SHL DUP2 MSTORE ADDRESS PUSH1 0x4 DUP3 ADD MSTORE SWAP1 PUSH1 0x20 DUP1 DUP4 PUSH1 0x24 DUP2 DUP6 GAS STATICCALL SWAP3 DUP4 ISZERO PUSH2 0x727 JUMPI DUP5 SWAP4 PUSH2 0x6F4 JUMPI JUMPDEST POP DUP3 PUSH2 0x654 JUMPI JUMPDEST DUP4 PUSH1 0x1 DUP1 SSTORE DUP1 RETURN JUMPDEST PUSH1 0x40 MLOAD PUSH4 0xA9059CBB PUSH1 0xE0 SHL DUP2 MSTORE CALLER PUSH1 0x4 DUP3 ADD MSTORE PUSH1 0x24 DUP2 ADD DUP5 SWAP1 MSTORE SWAP1 DUP1 DUP3 PUSH1 0x44 DUP2 DUP9 DUP8 GAS CALL DUP1 ISZERO PUSH2 0x6E9 JUMPI PUSH2 0x6A4 JUMPI JUMPDEST PUSH0 DUP1 MLOAD PUSH1 0x20 PUSH2 0x3A8F DUP4 CODECOPY DUP2 MLOAD SWAP2 MSTORE SWAP2 POP PUSH1 0x40 MLOAD SWAP4 DUP5 MSTORE CALLER SWAP4 LOG3 PUSH0 DUP1 DUP1 PUSH2 0x64C JUMP JUMPDEST DUP1 DUP3 DUP2 RETURNDATASIZE DUP4 GT PUSH2 0x6E2 JUMPI JUMPDEST PUSH2 0x6B9 DUP2 DUP4 PUSH2 0x3747 JUMP JUMPDEST DUP2 ADD SUB SLT PUSH2 0x6DE JUMPI PUSH2 0x6D8 PUSH0 DUP1 MLOAD PUSH1 0x20 PUSH2 0x3A8F DUP4 CODECOPY DUP2 MLOAD SWAP2 MSTORE SWAP3 PUSH2 0x391A JUMP JUMPDEST POP PUSH2 0x683 JUMP JUMPDEST DUP5 DUP1 REVERT JUMPDEST POP RETURNDATASIZE PUSH2 0x6AF JUMP JUMPDEST PUSH1 0x40 MLOAD RETURNDATASIZE DUP8 DUP3 RETURNDATACOPY RETURNDATASIZE SWAP1 REVERT JUMPDEST SWAP1 DUP1 SWAP4 POP DUP2 DUP2 RETURNDATASIZE DUP4 GT PUSH2 0x720 JUMPI JUMPDEST PUSH2 0x70C DUP2 DUP4 PUSH2 0x3747 JUMP JUMPDEST DUP2 ADD SUB SLT PUSH2 0x71C JUMPI MLOAD SWAP2 PUSH0 PUSH2 0x645 JUMP JUMPDEST PUSH0 DUP1 REVERT JUMPDEST POP RETURNDATASIZE PUSH2 0x702 JUMP JUMPDEST PUSH1 0x40 MLOAD RETURNDATASIZE DUP7 DUP3 RETURNDATACOPY RETURNDATASIZE SWAP1 REVERT JUMPDEST PUSH2 0x73B SWAP1 PUSH2 0x3733 JUMP JUMPDEST PUSH2 0x746 JUMPI DUP2 PUSH0 PUSH2 0x617 JUMP JUMPDEST POP DUP1 REVERT JUMPDEST POP CALLVALUE PUSH2 0x2F9 JUMPI DUP1 PUSH1 0x3 NOT CALLDATASIZE ADD SLT PUSH2 0x2F9 JUMPI PUSH1 0x40 MLOAD PUSH4 0x3FABE5A3 PUSH1 0xE2 SHL DUP2 MSTORE SWAP1 PUSH1 0xA0 DUP3 PUSH1 0x4 DUP2 PUSH20 0x5F4EC3DF9CBD43714FE2740F5E3616155C5B8419 GAS STATICCALL SWAP2 DUP3 ISZERO PUSH2 0x861 JUMPI DUP2 SWAP3 PUSH2 0x813 JUMPI JUMPDEST POP DUP1 DUP3 SGT ISZERO PUSH2 0x7CF JUMPI PUSH1 0x64 DUP3 MUL SWAP2 DUP1 DUP4 SDIV PUSH1 0x64 EQ SWAP1 ISZERO OR ISZERO PUSH2 0x7BB JUMPI PUSH1 0x20 DUP3 PUSH1 0x40 MLOAD SWAP1 DUP2 MSTORE RETURN JUMPDEST PUSH4 0x4E487B71 PUSH1 0xE0 SHL DUP2 MSTORE PUSH1 0x11 PUSH1 0x4 MSTORE PUSH1 0x24 SWAP1 REVERT JUMPDEST PUSH1 0x64 PUSH1 0x40 MLOAD PUSH3 0x461BCD PUSH1 0xE5 SHL DUP2 MSTORE PUSH1 0x20 PUSH1 0x4 DUP3 ADD MSTORE PUSH1 0x20 PUSH1 0x24 DUP3 ADD MSTORE PUSH32 0x436861696E6C696E6B3A20496E76616C6964204554482F555344207072696365 PUSH1 0x44 DUP3 ADD MSTORE REVERT JUMPDEST SWAP1 SWAP2 POP PUSH1 0xA0 DUP2 RETURNDATASIZE DUP3 GT PUSH2 0x859 JUMPI JUMPDEST DUP2 PUSH2 0x82E PUSH1 0xA0 SWAP4 DUP4 PUSH2 0x3747 JUMP JUMPDEST DUP2 ADD SUB SLT PUSH2 0x746 JUMPI PUSH2 0x83F DUP2 PUSH2 0x3769 JUMP JUMPDEST POP PUSH2 0x851 PUSH1 0x80 PUSH1 0x20 DUP4 ADD MLOAD SWAP3 ADD PUSH2 0x3769 JUMP JUMPDEST POP SWAP1 PUSH0 PUSH2 0x794 JUMP JUMPDEST RETURNDATASIZE SWAP2 POP PUSH2 0x821 JUMP JUMPDEST POP PUSH1 0x40 MLOAD SWAP1 RETURNDATASIZE SWAP1 DUP3 RETURNDATACOPY RETURNDATASIZE SWAP1 REVERT JUMPDEST POP CALLVALUE PUSH2 0x2F9 JUMPI DUP1 PUSH1 0x3 NOT CALLDATASIZE ADD SLT PUSH2 0x2F9 JUMPI PUSH1 0x40 MLOAD PUSH2 0x1A0 DUP2 ADD DUP2 DUP2 LT PUSH8 0xFFFFFFFFFFFFFFFF DUP3 GT OR PUSH2 0xA84 JUMPI PUSH1 0x40 MSTORE PUSH1 0xC DUP2 MSTORE PUSH2 0x180 SWAP1 PUSH1 0x20 DUP2 ADD DUP3 CALLDATASIZE DUP3 CALLDATACOPY DUP2 MLOAD ISZERO PUSH2 0xA70 JUMPI PUSH20 0xC02AAA39B223FE8D0A0E5C4F27EAD9083C756CC2 SWAP1 MSTORE DUP1 MLOAD PUSH1 0x1 LT ISZERO PUSH2 0xA70 JUMPI PUSH20 0xA0B86991C6218B36C1D19D4A2E9EB0CE3606EB48 PUSH1 0x40 DUP3 ADD MSTORE DUP1 MLOAD PUSH1 0x2 LT ISZERO PUSH2 0xA70 JUMPI PUSH20 0xDAC17F958D2EE523A2206206994597C13D831EC7 PUSH1 0x60 DUP3 ADD MSTORE DUP1 MLOAD PUSH1 0x3 LT ISZERO PUSH2 0xA70 JUMPI PUSH20 0x6B175474E89094C44DA98B954EEDEAC495271D0F PUSH1 0x80 DUP3 ADD MSTORE DUP1 MLOAD PUSH1 0x4 LT ISZERO PUSH2 0xA70 JUMPI PUSH20 0x3432B6A60D23CA0DFCA7761B7AB56459D9C964D0 PUSH1 0xA0 DUP3 ADD MSTORE DUP1 MLOAD PUSH1 0x5 LT ISZERO PUSH2 0xA70 JUMPI PUSH20 0x5F98805A4E8F28FB3FBE254CCF7E6F82E4467683 PUSH1 0xC0 DUP3 ADD MSTORE DUP1 MLOAD PUSH1 0x6 LT ISZERO PUSH2 0xA70 JUMPI PUSH20 0x8E870D67F660D95D5BE2D7738B5B1294A692A0B9 PUSH1 0xE0 DUP3 ADD MSTORE DUP1 MLOAD PUSH1 0x7 LT ISZERO PUSH2 0xA70 JUMPI PUSH15 0x85D4780B73119B644AE5ECD22B376 PUSH2 0x100 DUP3 ADD MSTORE DUP1 MLOAD PUSH1 0x8 LT ISZERO PUSH2 0xA70 JUMPI PUSH20 0x56FD409E1D7A124BD7017459DFEA2F387B6D5CD PUSH2 0x120 DUP3 ADD MSTORE DUP1 MLOAD PUSH1 0x9 LT ISZERO PUSH2 0xA70 JUMPI PUSH20 0x4FABB145D64652A948D72533023F6E7A623C7C53 PUSH2 0x140 DUP3 ADD MSTORE DUP1 MLOAD PUSH1 0xA LT ISZERO PUSH2 0xA70 JUMPI PUSH20 0xA7D1D0DA000261F05D8D4532FD34439D3325AD8B PUSH2 0x160 DUP3 ADD MSTORE DUP1 MLOAD PUSH1 0xB LT ISZERO PUSH2 0xA70 JUMPI PUSH20 0xDB25F211AB05B1C97D595516F45794528A807AD8 PUSH2 0xA6C SWAP3 DUP3 ADD MSTORE PUSH1 0x40 MLOAD SWAP2 DUP3 SWAP2 PUSH1 0x20 DUP4 MSTORE PUSH1 0x20 DUP4 ADD SWAP1 PUSH2 0x36CC JUMP JUMPDEST SUB SWAP1 RETURN JUMPDEST PUSH4 0x4E487B71 PUSH1 0xE0 SHL PUSH0 MSTORE PUSH1 0x32 PUSH1 0x4 MSTORE PUSH1 0x24 PUSH0 REVERT JUMPDEST PUSH4 0x4E487B71 PUSH1 0xE0 SHL PUSH0 MSTORE PUSH1 0x41 PUSH1 0x4 MSTORE PUSH1 0x24 PUSH0 REVERT JUMPDEST POP CALLVALUE PUSH2 0x2F9 JUMPI DUP1 PUSH1 0x3 NOT CALLDATASIZE ADD SLT PUSH2 0x2F9 JUMPI PUSH1 0x3 SLOAD PUSH1 0x4 SLOAD PUSH1 0x9 SLOAD PUSH1 0xA SLOAD PUSH1 0x40 DUP1 MLOAD SWAP5 DUP6 MSTORE PUSH1 0x20 DUP6 ADD SWAP4 SWAP1 SWAP4 MSTORE SWAP2 DUP4 ADD MSTORE PUSH1 0x60 DUP3 ADD MSTORE PUSH1 0x80 SWAP1 RETURN JUMPDEST POP CALLVALUE PUSH2 0x2F9 JUMPI DUP1 PUSH1 0x3 NOT CALLDATASIZE ADD SLT PUSH2 0x2F9 JUMPI PUSH1 0x20 PUSH1 0xA SLOAD PUSH1 0x40 MLOAD SWAP1 DUP2 MSTORE RETURN JUMPDEST POP CALLVALUE PUSH2 0x2F9 JUMPI DUP1 PUSH1 0x3 NOT CALLDATASIZE ADD SLT PUSH2 0x2F9 JUMPI PUSH1 0x20 PUSH1 0x5 SLOAD PUSH1 0x40 MLOAD SWAP1 DUP2 MSTORE RETURN JUMPDEST POP CALLVALUE PUSH2 0x2F9 JUMPI DUP1 PUSH1 0x3 NOT CALLDATASIZE ADD SLT PUSH2 0x2F9 JUMPI PUSH2 0xB27 PUSH2 0x39A3 JUMP JUMPDEST PUSH2 0xB2F PUSH2 0x395F JUMP JUMPDEST PUSH2 0xB37 PUSH2 0x3708 JUMP JUMPDEST PUSH1 0x3 SLOAD SWAP1 PUSH2 0xB43 PUSH2 0x39A3 JUMP JUMPDEST PUSH2 0xB4B PUSH2 0x395F JUMP JUMPDEST PUSH2 0xB53 PUSH2 0x3708 JUMP JUMPDEST PUSH2 0xB61 PUSH1 0x7 SLOAD DUP4 LT ISZERO PUSH2 0x3830 JUMP JUMPDEST PUSH2 0xB6F PUSH1 0x8 SLOAD DUP4 GT ISZERO PUSH2 0x387C JUMP JUMPDEST PUSH1 0xFF PUSH1 0xB SLOAD AND PUSH2 0xD3E JUMPI JUMPDEST PUSH1 0x40 MLOAD PUSH4 0x716AD825 PUSH1 0xE0 SHL DUP2 MSTORE PUSH1 0x4 DUP2 ADD DUP4 SWAP1 MSTORE SWAP2 PUSH1 0x60 DUP4 PUSH1 0x24 DUP2 DUP6 ADDRESS GAS CALL SWAP3 DUP4 ISZERO PUSH2 0x595 JUMPI DUP3 SWAP4 DUP4 SWAP2 DUP5 SWAP2 PUSH2 0xCF6 JUMPI JUMPDEST POP ISZERO PUSH2 0xCB5 JUMPI DUP4 PUSH32 0x99A04D4BD50085149E64DC7B09CD3BF736A5A4B19F85D58EA535527917C3B2AE PUSH1 0x40 DUP1 MLOAD DUP5 DUP2 MSTORE DUP6 PUSH1 0x20 DUP3 ADD MSTORE LOG2 PUSH1 0x2 SLOAD PUSH1 0x8 SHR PUSH1 0x1 PUSH1 0x1 PUSH1 0xA0 SHL SUB AND DUP1 EXTCODESIZE ISZERO PUSH2 0xCB1 JUMPI DUP4 DUP1 DUP1 SWAP3 PUSH1 0x84 PUSH1 0x40 MLOAD DUP1 SWAP6 DUP2 SWAP4 PUSH4 0xEA62CB5 PUSH1 0xE0 SHL DUP4 MSTORE PUSH20 0xC02AAA39B223FE8D0A0E5C4F27EAD9083C756CC2 PUSH1 0x4 DUP5 ADD MSTORE DUP10 PUSH1 0x24 DUP5 ADD MSTORE DUP12 PUSH1 0x44 DUP5 ADD MSTORE DUP2 PUSH1 0x64 DUP5 ADD MSTORE GAS CALL SWAP2 DUP3 PUSH2 0xC9D JUMPI JUMPDEST POP POP PUSH2 0xC5E JUMPI POP POP PUSH1 0x20 SWAP2 POP JUMPDEST PUSH1 0x1 DUP1 SSTORE PUSH1 0x40 MLOAD SWAP1 ISZERO ISZERO DUP2 MSTORE RETURN JUMPDEST PUSH32 0x9F51370FE0EED8407B751449F0BF9AE3F5667F007A2AB895D820DA7E2983EBAB SWAP3 POP SWAP1 PUSH1 0x40 SWAP2 TIMESTAMP PUSH1 0xC SSTORE DUP3 MLOAD SWAP2 DUP3 MSTORE PUSH1 0x20 DUP3 ADD MSTORE LOG2 PUSH1 0x20 PUSH1 0x1 PUSH2 0xC50 JUMP JUMPDEST PUSH2 0xCA6 SWAP1 PUSH2 0x3733 JUMP JUMPDEST PUSH2 0xCB1 JUMPI DUP4 PUSH0 PUSH2 0xC43 JUMP JUMPDEST DUP4 DUP1 REVERT JUMPDEST PUSH1 0x40 MLOAD PUSH3 0x461BCD PUSH1 0xE5 SHL DUP2 MSTORE PUSH1 0x20 PUSH1 0x4 DUP3 ADD MSTORE PUSH1 0x19 PUSH1 0x24 DUP3 ADD MSTORE PUSH25 0x139BC81C1C9BD99A5D18589B19481C9BDD5D1948199BDD5B99 PUSH1 0x3A SHL PUSH1 0x44 DUP3 ADD MSTORE PUSH1 0x64 SWAP1 REVERT JUMPDEST SWAP5 POP POP POP PUSH1 0x60 DUP4 RETURNDATASIZE DUP3 GT PUSH2 0xD36 JUMPI JUMPDEST DUP2 PUSH2 0xD12 PUSH1 0x60 SWAP4 DUP4 PUSH2 0x3747 JUMP JUMPDEST DUP2 ADD SUB SLT PUSH2 0x746 JUMPI DUP3 MLOAD PUSH2 0xD2D PUSH1 0x40 PUSH1 0x20 DUP7 ADD MLOAD SWAP6 ADD PUSH2 0x391A JUMP JUMPDEST SWAP1 SWAP4 SWAP1 PUSH0 PUSH2 0xBAB JUMP JUMPDEST RETURNDATASIZE SWAP2 POP PUSH2 0xD05 JUMP JUMPDEST PUSH1 0xC SLOAD PUSH1 0xD SLOAD DUP2 ADD DUP1 SWAP2 GT PUSH2 0xD92 JUMPI TIMESTAMP LT ISZERO PUSH2 0xB7A JUMPI PUSH1 0x40 MLOAD PUSH3 0x461BCD PUSH1 0xE5 SHL DUP2 MSTORE PUSH1 0x20 PUSH1 0x4 DUP3 ADD MSTORE PUSH1 0x16 PUSH1 0x24 DUP3 ADD MSTORE PUSH22 0x436F6F6C646F776E20706572696F6420616374697665 PUSH1 0x50 SHL PUSH1 0x44 DUP3 ADD MSTORE PUSH1 0x64 SWAP1 REVERT JUMPDEST PUSH4 0x4E487B71 PUSH1 0xE0 SHL DUP3 MSTORE PUSH1 0x11 PUSH1 0x4 MSTORE PUSH1 0x24 DUP3 REVERT JUMPDEST POP CALLVALUE PUSH2 0x2F9 JUMPI DUP1 PUSH1 0x3 NOT CALLDATASIZE ADD SLT PUSH2 0x2F9 JUMPI PUSH1 0x20 PUSH1 0x6 SLOAD PUSH1 0x40 MLOAD SWAP1 DUP2 MSTORE RETURN JUMPDEST POP CALLVALUE PUSH2 0x2F9 JUMPI PUSH1 0x20 CALLDATASIZE PUSH1 0x3 NOT ADD SLT PUSH2 0x2F9 JUMPI PUSH1 0x4 CALLDATALOAD DUP1 ISZERO ISZERO DUP1 SWAP2 SUB PUSH2 0x746 JUMPI PUSH2 0xDEB PUSH2 0x3708 JUMP JUMPDEST PUSH1 0xFF DUP1 NOT PUSH1 0xB SLOAD AND SWAP2 AND OR PUSH1 0xB SSTORE DUP1 RETURN JUMPDEST POP CALLVALUE PUSH2 0x2F9 JUMPI DUP1 PUSH1 0x3 NOT CALLDATASIZE ADD SLT PUSH2 0x2F9 JUMPI PUSH1 0x20 PUSH1 0x40 MLOAD PUSH20 0xC02AAA39B223FE8D0A0E5C4F27EAD9083C756CC2 DUP2 MSTORE RETURN JUMPDEST POP CALLVALUE PUSH2 0x2F9 JUMPI DUP1 PUSH1 0x3 NOT CALLDATASIZE ADD SLT PUSH2 0x2F9 JUMPI PUSH1 0x20 PUSH1 0x40 MLOAD PUSH20 0xEFAC88D8E212CA21D4FE670F715C4FE12CFBEF05 DUP2 MSTORE RETURN JUMPDEST POP CALLVALUE PUSH2 0x2F9 JUMPI DUP1 PUSH1 0x3 NOT CALLDATASIZE ADD SLT PUSH2 0x2F9 JUMPI PUSH1 0x20 PUSH1 0xFF PUSH1 0xB SLOAD AND PUSH1 0x40 MLOAD SWAP1 ISZERO ISZERO DUP2 MSTORE RETURN JUMPDEST POP CALLVALUE PUSH2 0x2F9 JUMPI PUSH1 0x20 CALLDATASIZE PUSH1 0x3 NOT ADD SLT PUSH2 0x2F9 JUMPI PUSH1 0x4 CALLDATALOAD PUSH2 0xE9A PUSH2 0x3708 JUMP JUMPDEST PUSH3 0x15180 DUP2 GT PUSH2 0xEAA JUMPI PUSH1 0xD SSTORE DUP1 RETURN JUMPDEST PUSH1 0x40 MLOAD PUSH3 0x461BCD PUSH1 0xE5 SHL DUP2 MSTORE PUSH1 0x20 PUSH1 0x4 DUP3 ADD MSTORE PUSH1 0x11 PUSH1 0x24 DUP3 ADD MSTORE PUSH17 0x436F6F6C646F776E20746F6F206C6F6E67 PUSH1 0x78 SHL PUSH1 0x44 DUP3 ADD MSTORE PUSH1 0x64 SWAP1 REVERT JUMPDEST POP CALLVALUE PUSH2 0x2F9 JUMPI DUP1 PUSH1 0x3 NOT CALLDATASIZE ADD SLT PUSH2 0x2F9 JUMPI PUSH1 0x3 SLOAD PUSH1 0x4 SLOAD SWAP1 DUP2 DUP2 MUL SWAP2 DUP2 DUP4 DIV EQ SWAP1 ISZERO OR ISZERO PUSH2 0xF1A JUMPI PUSH1 0x20 SWAP1 PUSH2 0x2710 PUSH1 0x40 MLOAD SWAP2 DIV DUP2 MSTORE RETURN JUMPDEST PUSH4 0x4E487B71 PUSH1 0xE0 SHL PUSH0 MSTORE PUSH1 0x11 PUSH1 0x4 MSTORE PUSH1 0x24 PUSH0 REVERT JUMPDEST POP CALLVALUE PUSH2 0x2F9 JUMPI DUP1 PUSH1 0x3 NOT CALLDATASIZE ADD SLT PUSH2 0x2F9 JUMPI PUSH1 0x20 PUSH1 0x8 SLOAD PUSH1 0x40 MLOAD SWAP1 DUP2 MSTORE RETURN JUMPDEST POP CALLVALUE PUSH2 0x2F9 JUMPI PUSH2 0xF5B CALLDATASIZE PUSH2 0x36B6 JUMP JUMPDEST SWAP1 SWAP2 PUSH2 0xF6B PUSH1 0x7 SLOAD DUP4 LT ISZERO PUSH2 0x3830 JUMP JUMPDEST PUSH2 0xF79 PUSH1 0x8 SLOAD DUP4 GT ISZERO PUSH2 0x387C JUMP JUMPDEST PUSH1 0x1 DUP1 PUSH1 0xA0 SHL SUB SWAP3 PUSH1 0x2 SWAP2 DUP5 DUP4 SLOAD PUSH1 0x8 SHR AND SWAP3 PUSH1 0x40 MLOAD SWAP4 PUSH4 0x7D331AC5 PUSH1 0xE1 SHL DUP6 MSTORE DUP4 PUSH1 0x4 DUP7 ADD MSTORE PUSH1 0x24 SWAP5 DUP4 DUP2 DUP8 DUP2 DUP6 GAS STATICCALL SWAP8 DUP9 ISZERO PUSH2 0x727 JUMPI DUP5 SWAP9 PUSH2 0x1256 JUMPI JUMPDEST POP POP PUSH1 0x20 DUP8 ADD DUP3 DUP2 MLOAD MLOAD LT PUSH2 0x1222 JUMPI MLOAD SWAP2 PUSH1 0x60 DUP9 ADD MLOAD SWAP8 DUP2 DUP10 LT ISZERO PUSH2 0x120F JUMPI PUSH1 0x80 ADD MLOAD SWAP1 DUP2 LT ISZERO PUSH2 0x11FC JUMPI SWAP2 PUSH2 0x1024 SWAP7 SWAP8 SWAP2 PUSH2 0x102E PUSH2 0x1014 SWAP5 PUSH1 0x40 MLOAD SWAP10 DUP11 SWAP7 DUP8 SWAP6 PUSH4 0xB3EEB621 PUSH1 0xE0 SHL DUP8 MSTORE PUSH1 0x80 PUSH1 0x4 DUP9 ADD MSTORE PUSH1 0x84 DUP8 ADD SWAP1 PUSH2 0x36CC JUMP JUMPDEST SWAP6 DUP13 DUP12 DUP8 ADD MSTORE PUSH1 0x44 DUP7 ADD SWAP1 PUSH2 0x3927 JUMP JUMPDEST PUSH1 0x64 DUP5 ADD SWAP1 PUSH2 0x3927 JUMP JUMPDEST DUP2 DUP6 PUSH2 0x140 SWAP6 DUP7 SWAP6 SUB SWAP3 GAS CALL SWAP5 DUP6 ISZERO PUSH2 0x595 JUMPI DUP3 SWAP6 PUSH2 0x1136 JUMPI JUMPDEST POP POP PUSH2 0x120 PUSH2 0x100 DUP6 ADD MLOAD SWAP5 ADD MLOAD ISZERO ISZERO SWAP3 DUP4 PUSH2 0x1129 JUMPI JUMPDEST DUP4 PUSH2 0x10B2 JUMPI JUMPDEST POP POP PUSH1 0x40 DUP1 MLOAD DUP5 DUP2 MSTORE PUSH1 0x20 DUP2 ADD SWAP6 SWAP1 SWAP6 MSTORE DUP3 ISZERO ISZERO DUP6 DUP3 ADD MSTORE SWAP4 PUSH32 0xC30EE1C478B9B474754862F7FEEEADC800DCE627C1B0621A98906B3D4D97DF2C SWAP1 PUSH1 0x60 SWAP1 LOG2 DUP3 MLOAD SWAP2 DUP3 MSTORE ISZERO ISZERO PUSH1 0x20 DUP3 ADD MSTORE RETURN JUMPDEST SWAP1 SWAP5 SWAP3 POP PUSH2 0x2710 SWAP5 DUP6 DUP6 MUL SWAP6 DUP6 DUP8 DIV EQ DUP6 ISZERO OR ISZERO PUSH2 0x1118 JUMPI POP DUP3 ISZERO PUSH2 0x1105 JUMPI POP PUSH32 0xC30EE1C478B9B474754862F7FEEEADC800DCE627C1B0621A98906B3D4D97DF2C PUSH1 0x40 SWAP5 DUP4 PUSH1 0x5 SLOAD SWAP2 DIV LT ISZERO SWAP3 SWAP5 PUSH2 0x1065 JUMP JUMPDEST PUSH4 0x4E487B71 PUSH1 0xE0 SHL PUSH0 SWAP1 DUP2 MSTORE PUSH1 0x12 PUSH1 0x4 MSTORE REVERT JUMPDEST PUSH4 0x4E487B71 PUSH1 0xE0 SHL DUP2 MSTORE PUSH1 0x11 PUSH1 0x4 MSTORE REVERT JUMPDEST PUSH1 0x6 SLOAD DUP6 LT ISZERO SWAP4 POP PUSH2 0x105F JUMP JUMPDEST SWAP1 DUP1 SWAP3 SWAP6 POP DUP2 DUP2 RETURNDATASIZE DUP4 GT PUSH2 0x11F5 JUMPI JUMPDEST PUSH2 0x114F DUP2 DUP4 PUSH2 0x3747 JUMP JUMPDEST DUP2 ADD SUB SLT PUSH2 0x6DE JUMPI PUSH1 0x40 MLOAD SWAP2 DUP3 ADD DUP3 DUP2 LT PUSH8 0xFFFFFFFFFFFFFFFF DUP3 GT OR PUSH2 0x11E2 JUMPI PUSH1 0x40 MSTORE DUP1 MLOAD DUP3 MSTORE PUSH1 0x20 DUP2 ADD MLOAD PUSH1 0x20 DUP4 ADD MSTORE PUSH1 0x40 DUP2 ADD MLOAD PUSH1 0x40 DUP4 ADD MSTORE PUSH1 0x60 DUP2 ADD MLOAD PUSH1 0x60 DUP4 ADD MSTORE PUSH1 0x80 DUP2 ADD MLOAD PUSH1 0x80 DUP4 ADD MSTORE PUSH1 0xA0 DUP2 ADD MLOAD PUSH1 0xA0 DUP4 ADD MSTORE PUSH1 0xC0 DUP2 ADD MLOAD PUSH1 0xC0 DUP4 ADD MSTORE PUSH1 0xE0 DUP2 ADD MLOAD PUSH1 0xE0 DUP4 ADD MSTORE PUSH2 0x100 DUP1 DUP3 ADD MLOAD SWAP1 DUP4 ADD MSTORE PUSH2 0x11D6 PUSH2 0x120 DUP1 SWAP3 ADD PUSH2 0x391A JUMP JUMPDEST SWAP1 DUP3 ADD MSTORE SWAP3 PUSH0 DUP1 PUSH2 0x1048 JUMP JUMPDEST DUP5 PUSH4 0x4E487B71 PUSH1 0xE0 SHL PUSH0 MSTORE PUSH1 0x41 PUSH1 0x4 MSTORE PUSH0 REVERT JUMPDEST POP RETURNDATASIZE PUSH2 0x1145 JUMP JUMPDEST PUSH4 0x4E487B71 PUSH1 0xE0 SHL DUP5 MSTORE PUSH1 0x21 PUSH1 0x4 MSTORE DUP6 DUP5 REVERT JUMPDEST PUSH4 0x4E487B71 PUSH1 0xE0 SHL DUP6 MSTORE PUSH1 0x21 PUSH1 0x4 MSTORE DUP7 DUP6 REVERT JUMPDEST PUSH1 0x40 MLOAD PUSH3 0x461BCD PUSH1 0xE5 SHL DUP2 MSTORE PUSH1 0x20 PUSH1 0x4 DUP3 ADD MSTORE PUSH1 0xD DUP2 DUP9 ADD MSTORE PUSH13 0x496E76616C696420726F757465 PUSH1 0x98 SHL PUSH1 0x44 DUP3 ADD MSTORE PUSH1 0x64 SWAP1 REVERT JUMPDEST SWAP1 SWAP2 SWAP8 POP RETURNDATASIZE DUP1 DUP6 DUP5 RETURNDATACOPY PUSH2 0x1269 DUP2 DUP5 PUSH2 0x3747 JUMP JUMPDEST DUP3 ADD SWAP1 PUSH1 0x20 DUP1 DUP5 DUP5 SUB SLT PUSH2 0x137A JUMPI DUP4 MLOAD PUSH8 0xFFFFFFFFFFFFFFFF SWAP5 DUP6 DUP3 GT PUSH2 0x135F JUMPI ADD SWAP3 PUSH1 0xA0 DUP5 DUP3 SUB SLT PUSH2 0x1376 JUMPI PUSH1 0x40 MLOAD SWAP5 PUSH1 0xA0 DUP7 ADD DUP7 DUP2 LT DUP3 DUP3 GT OR PUSH2 0x1363 JUMPI PUSH1 0x40 MSTORE DUP5 MLOAD DUP7 MSTORE DUP3 DUP6 ADD MLOAD SWAP1 DUP2 GT PUSH2 0x135F JUMPI DUP5 ADD SWAP3 DUP2 PUSH1 0x1F DUP6 ADD SLT ISZERO PUSH2 0x135F JUMPI DUP4 MLOAD SWAP1 PUSH2 0x12D5 DUP3 PUSH2 0x3902 JUMP JUMPDEST SWAP5 PUSH2 0x12E3 PUSH1 0x40 MLOAD SWAP7 DUP8 PUSH2 0x3747 JUMP JUMPDEST DUP3 DUP7 MSTORE DUP5 DUP1 DUP8 ADD SWAP4 PUSH1 0x5 SHL DUP3 ADD ADD SWAP4 DUP5 GT PUSH2 0x135B JUMPI DUP5 ADD SWAP2 JUMPDEST DUP4 DUP4 LT PUSH2 0x133F JUMPI POP POP POP POP DUP4 ADD MSTORE PUSH1 0x40 DUP2 ADD MLOAD PUSH1 0x40 DUP4 ADD MSTORE PUSH1 0x60 DUP2 ADD MLOAD DUP4 DUP2 LT ISZERO PUSH2 0x6DE JUMPI PUSH1 0x60 DUP4 ADD MSTORE PUSH1 0x80 ADD MLOAD DUP3 DUP2 LT ISZERO PUSH2 0xCB1 JUMPI PUSH1 0x80 DUP3 ADD MSTORE SWAP6 PUSH0 DUP1 PUSH2 0xFB8 JUMP JUMPDEST DUP3 MLOAD DUP3 DUP2 AND DUP2 SUB PUSH2 0x1357 JUMPI DUP2 MSTORE SWAP2 DUP5 ADD SWAP2 DUP5 ADD PUSH2 0x12FC JUMP JUMPDEST DUP11 DUP1 REVERT JUMPDEST DUP10 DUP1 REVERT JUMPDEST DUP8 DUP1 REVERT JUMPDEST DUP11 PUSH4 0x4E487B71 PUSH1 0xE0 SHL PUSH0 MSTORE PUSH1 0x41 PUSH1 0x4 MSTORE PUSH0 REVERT JUMPDEST DUP7 DUP1 REVERT JUMPDEST DUP6 DUP1 REVERT JUMPDEST POP CALLVALUE PUSH2 0x2F9 JUMPI DUP1 PUSH1 0x3 NOT CALLDATASIZE ADD SLT PUSH2 0x2F9 JUMPI PUSH1 0x20 PUSH1 0x3 SLOAD PUSH1 0x40 MLOAD SWAP1 DUP2 MSTORE RETURN JUMPDEST POP CALLVALUE PUSH2 0x2F9 JUMPI PUSH1 0x20 DUP1 PUSH1 0x3 NOT CALLDATASIZE ADD SLT PUSH2 0x746 JUMPI PUSH1 0x2 SLOAD PUSH1 0x40 MLOAD PUSH4 0x32252057 PUSH1 0xE0 SHL DUP2 MSTORE PUSH1 0x4 DUP1 CALLDATALOAD SWAP4 SWAP2 SWAP3 DUP3 SWAP2 DUP5 SWAP2 DUP3 SWAP1 PUSH1 0x8 SHR PUSH1 0x1 PUSH1 0x1 PUSH1 0xA0 SHL SUB AND GAS STATICCALL SWAP2 DUP3 ISZERO PUSH2 0x727 JUMPI DUP5 SWAP3 PUSH2 0x1584 JUMPI JUMPDEST POP SWAP1 SWAP2 SWAP3 PUSH2 0x13F5 DUP4 PUSH2 0x3902 JUMP JUMPDEST SWAP3 PUSH2 0x1403 PUSH1 0x40 MLOAD SWAP5 DUP6 PUSH2 0x3747 JUMP JUMPDEST DUP1 DUP5 MSTORE PUSH2 0x140F DUP2 PUSH2 0x3902 JUMP JUMPDEST SWAP3 DUP1 DUP6 ADD SWAP2 PUSH1 0x1F NOT DUP1 SWAP6 ADD CALLDATASIZE DUP5 CALLDATACOPY PUSH2 0x1426 DUP2 PUSH2 0x3902 JUMP JUMPDEST SWAP7 PUSH2 0x1434 PUSH1 0x40 MLOAD SWAP9 DUP10 PUSH2 0x3747 JUMP JUMPDEST DUP2 DUP9 MSTORE PUSH2 0x1440 DUP3 PUSH2 0x3902 JUMP JUMPDEST DUP9 DUP5 ADD SWAP7 ADD CALLDATASIZE DUP8 CALLDATACOPY DUP5 JUMPDEST DUP3 DUP2 LT PUSH2 0x14C9 JUMPI POP POP POP PUSH1 0x40 MLOAD SWAP6 DUP7 SWAP6 PUSH1 0x40 DUP8 ADD SWAP1 PUSH1 0x40 DUP9 MSTORE MLOAD DUP1 SWAP2 MSTORE PUSH1 0x60 DUP8 ADD SWAP4 SWAP1 DUP6 JUMPDEST DUP2 DUP2 LT PUSH2 0x14B2 JUMPI POP POP POP DUP6 DUP4 SUB DUP7 DUP4 ADD MSTORE MLOAD DUP1 DUP4 MSTORE SWAP2 DUP2 ADD SWAP4 SWAP3 JUMPDEST DUP3 DUP2 LT PUSH2 0x1499 JUMPI POP POP POP POP SUB SWAP1 RETURN JUMPDEST DUP4 MLOAD ISZERO ISZERO DUP6 MSTORE DUP7 SWAP6 POP SWAP4 DUP2 ADD SWAP4 SWAP3 DUP2 ADD SWAP3 PUSH1 0x1 ADD PUSH2 0x148A JUMP JUMPDEST DUP3 MLOAD DUP7 MSTORE DUP10 SWAP9 POP SWAP5 DUP5 ADD SWAP5 SWAP2 DUP5 ADD SWAP2 PUSH1 0x1 ADD PUSH2 0x146F JUMP JUMPDEST PUSH2 0x1526 SWAP1 PUSH1 0x40 SWAP10 SWAP5 SWAP7 SWAP6 SWAP8 SWAP9 SWAP10 MLOAD PUSH4 0x9517ED85 PUSH1 0xE0 SHL DUP2 MSTORE DUP2 PUSH1 0x4 DUP3 ADD MSTORE DUP4 PUSH1 0x24 DUP3 ADD MSTORE PUSH1 0x40 DUP2 PUSH1 0x44 DUP2 DUP11 ADDRESS GAS CALL SWAP1 DUP2 DUP9 SWAP2 DUP10 SWAP4 PUSH2 0x1551 JUMPI JUMPDEST POP PUSH2 0x1532 JUMPI POP POP DUP6 PUSH2 0x1514 DUP3 DUP13 PUSH2 0x39F9 JUMP JUMPDEST MSTORE DUP6 PUSH2 0x1520 DUP3 DUP8 PUSH2 0x39F9 JUMP JUMPDEST MSTORE PUSH2 0x3934 JUMP JUMPDEST SWAP8 SWAP7 SWAP6 SWAP4 SWAP5 SWAP3 SWAP8 PUSH2 0x144A JUMP JUMPDEST PUSH2 0x153C DUP4 DUP14 PUSH2 0x39F9 JUMP JUMPDEST MSTORE PUSH2 0x1547 DUP3 DUP8 PUSH2 0x39F9 JUMP JUMPDEST SWAP1 ISZERO ISZERO SWAP1 MSTORE PUSH2 0x3934 JUMP JUMPDEST SWAP1 SWAP3 POP PUSH2 0x1576 SWAP2 POP PUSH1 0x40 RETURNDATASIZE PUSH1 0x40 GT PUSH2 0x157D JUMPI JUMPDEST PUSH2 0x156E DUP2 DUP4 PUSH2 0x3747 JUMP JUMPDEST DUP2 ADD SWAP1 PUSH2 0x3942 JUMP JUMPDEST SWAP2 PUSH0 PUSH2 0x1502 JUMP JUMPDEST POP RETURNDATASIZE PUSH2 0x1564 JUMP JUMPDEST SWAP1 DUP1 SWAP3 POP DUP2 DUP2 RETURNDATASIZE DUP4 GT PUSH2 0x15AC JUMPI JUMPDEST PUSH2 0x159C DUP2 DUP4 PUSH2 0x3747 JUMP JUMPDEST DUP2 ADD SUB SLT PUSH2 0x71C JUMPI MLOAD SWAP1 PUSH0 PUSH2 0x13E8 JUMP JUMPDEST POP RETURNDATASIZE PUSH2 0x1592 JUMP JUMPDEST POP CALLVALUE PUSH2 0x2F9 JUMPI DUP1 PUSH1 0x3 NOT CALLDATASIZE ADD SLT PUSH2 0x2F9 JUMPI SLOAD PUSH1 0x40 MLOAD PUSH1 0x1 PUSH1 0x1 PUSH1 0xA0 SHL SUB SWAP1 SWAP2 AND DUP2 MSTORE PUSH1 0x20 SWAP1 RETURN JUMPDEST POP CALLVALUE PUSH2 0x2F9 JUMPI PUSH1 0x20 DUP1 PUSH1 0x3 NOT CALLDATASIZE ADD SLT PUSH2 0x746 JUMPI PUSH1 0x4 CALLDATALOAD PUSH1 0x1 PUSH1 0x1 PUSH1 0xA0 SHL SUB DUP2 DUP2 AND SWAP2 DUP3 SWAP1 SUB PUSH2 0xCB1 JUMPI PUSH2 0x160B PUSH2 0x39A3 JUMP JUMPDEST PUSH2 0x1613 PUSH2 0x3708 JUMP JUMPDEST DUP2 ISZERO PUSH2 0x169F JUMPI DUP4 SWAP1 PUSH1 0x2 SLOAD PUSH1 0x8 SHR AND DUP1 EXTCODESIZE ISZERO PUSH2 0x746 JUMPI DUP2 DUP1 SWAP2 PUSH1 0x24 PUSH1 0x40 MLOAD DUP1 SWAP5 DUP2 SWAP4 PUSH4 0x1BFC726F PUSH1 0xE2 SHL DUP4 MSTORE DUP9 PUSH1 0x4 DUP5 ADD MSTORE GAS CALL DUP1 ISZERO PUSH2 0x595 JUMPI PUSH2 0x168B JUMPI JUMPDEST POP POP PUSH1 0x40 MLOAD PUSH4 0x70A08231 PUSH1 0xE0 SHL DUP2 MSTORE ADDRESS PUSH1 0x4 DUP3 ADD MSTORE SWAP2 DUP1 DUP4 PUSH1 0x24 DUP2 DUP6 GAS STATICCALL SWAP3 DUP4 ISZERO PUSH2 0x727 JUMPI DUP5 SWAP4 PUSH2 0x6F4 JUMPI POP DUP3 PUSH2 0x654 JUMPI DUP4 PUSH1 0x1 DUP1 SSTORE DUP1 RETURN JUMPDEST PUSH2 0x1694 SWAP1 PUSH2 0x3733 JUMP JUMPDEST PUSH2 0x3F9 JUMPI DUP3 PUSH0 PUSH2 0x1652 JUMP JUMPDEST PUSH1 0x40 MLOAD PUSH3 0x461BCD PUSH1 0xE5 SHL DUP2 MSTORE PUSH1 0x4 DUP2 ADD DUP5 SWAP1 MSTORE PUSH1 0xD PUSH1 0x24 DUP3 ADD MSTORE PUSH13 0x24B73B30B634B2103A37B5B2B7 PUSH1 0x99 SHL PUSH1 0x44 DUP3 ADD MSTORE PUSH1 0x64 SWAP1 REVERT JUMPDEST POP CALLVALUE PUSH2 0x2F9 JUMPI DUP1 PUSH1 0x3 NOT CALLDATASIZE ADD SLT PUSH2 0x2F9 JUMPI PUSH1 0x40 MLOAD PUSH4 0x70A08231 PUSH1 0xE0 SHL DUP2 MSTORE ADDRESS PUSH1 0x4 DUP3 ADD MSTORE PUSH1 0x20 DUP2 PUSH1 0x24 DUP2 PUSH20 0xC02AAA39B223FE8D0A0E5C4F27EAD9083C756CC2 GAS STATICCALL SWAP1 DUP2 ISZERO PUSH2 0x595 JUMPI DUP3 SWAP2 PUSH2 0x1C9F JUMPI JUMPDEST POP PUSH1 0x40 MLOAD PUSH4 0x70A08231 PUSH1 0xE0 SHL DUP2 MSTORE ADDRESS PUSH1 0x4 DUP3 ADD MSTORE PUSH1 0x20 DUP2 PUSH1 0x24 DUP2 PUSH20 0xA0B86991C6218B36C1D19D4A2E9EB0CE3606EB48 GAS STATICCALL SWAP1 DUP2 ISZERO PUSH2 0x1BFC JUMPI DUP4 SWAP2 PUSH2 0x1C6D JUMPI JUMPDEST POP PUSH1 0x40 MLOAD PUSH4 0x70A08231 PUSH1 0xE0 SHL DUP2 MSTORE ADDRESS PUSH1 0x4 DUP3 ADD MSTORE SWAP3 PUSH1 0x20 DUP5 PUSH1 0x24 DUP2 PUSH20 0xDAC17F958D2EE523A2206206994597C13D831EC7 GAS STATICCALL SWAP4 DUP5 ISZERO PUSH2 0x861 JUMPI DUP2 SWAP5 PUSH2 0x1C39 JUMPI JUMPDEST POP PUSH1 0x40 MLOAD PUSH4 0x70A08231 PUSH1 0xE0 SHL DUP2 MSTORE ADDRESS PUSH1 0x4 DUP3 ADD MSTORE PUSH1 0x20 DUP2 PUSH1 0x24 DUP2 PUSH20 0x6B175474E89094C44DA98B954EEDEAC495271D0F GAS STATICCALL SWAP1 DUP2 ISZERO PUSH2 0x595 JUMPI DUP3 SWAP2 PUSH2 0x1C07 JUMPI JUMPDEST POP PUSH1 0x40 MLOAD PUSH4 0x70A08231 PUSH1 0xE0 SHL DUP2 MSTORE ADDRESS PUSH1 0x4 DUP3 ADD MSTORE PUSH1 0x20 DUP2 PUSH1 0x24 DUP2 PUSH20 0x3432B6A60D23CA0DFCA7761B7AB56459D9C964D0 GAS STATICCALL SWAP1 DUP2 ISZERO PUSH2 0x1BFC JUMPI DUP4 SWAP2 PUSH2 0x1BCA JUMPI JUMPDEST POP PUSH1 0x40 MLOAD PUSH4 0x70A08231 PUSH1 0xE0 SHL DUP2 MSTORE ADDRESS PUSH1 0x4 DUP3 ADD MSTORE PUSH1 0x20 DUP2 PUSH1 0x24 DUP2 PUSH20 0x5F98805A4E8F28FB3FBE254CCF7E6F82E4467683 GAS STATICCALL SWAP1 DUP2 ISZERO PUSH2 0x727 JUMPI DUP5 SWAP2 PUSH2 0x1B98 JUMPI JUMPDEST POP PUSH1 0x40 MLOAD PUSH4 0x70A08231 PUSH1 0xE0 SHL DUP2 MSTORE ADDRESS PUSH1 0x4 DUP3 ADD MSTORE PUSH1 0x20 DUP2 PUSH1 0x24 DUP2 PUSH20 0x8E870D67F660D95D5BE2D7738B5B1294A692A0B9 GAS STATICCALL SWAP1 DUP2 ISZERO PUSH2 0x6E9 JUMPI DUP6 SWAP2 PUSH2 0x1B66 JUMPI JUMPDEST POP PUSH1 0x40 MLOAD PUSH4 0x70A08231 PUSH1 0xE0 SHL DUP2 MSTORE ADDRESS PUSH1 0x4 DUP3 ADD MSTORE SWAP1 PUSH1 0x20 DUP3 PUSH1 0x24 DUP2 PUSH15 0x85D4780B73119B644AE5ECD22B376 GAS STATICCALL SWAP2 DUP3 ISZERO PUSH2 0x1B5B JUMPI DUP7 SWAP3 PUSH2 0x1B27 JUMPI JUMPDEST POP PUSH1 0x40 MLOAD PUSH4 0x70A08231 PUSH1 0xE0 SHL DUP2 MSTORE ADDRESS PUSH1 0x4 DUP3 ADD MSTORE SWAP3 PUSH1 0x20 DUP5 PUSH1 0x24 DUP2 PUSH20 0x56FD409E1D7A124BD7017459DFEA2F387B6D5CD GAS STATICCALL SWAP4 DUP5 ISZERO PUSH2 0x1B1C JUMPI DUP8 SWAP5 PUSH2 0x1AE8 JUMPI JUMPDEST POP PUSH1 0x40 MLOAD PUSH4 0x70A08231 PUSH1 0xE0 SHL DUP2 MSTORE ADDRESS PUSH1 0x4 DUP3 ADD MSTORE SWAP5 PUSH1 0x20 DUP7 PUSH1 0x24 DUP2 PUSH20 0x4FABB145D64652A948D72533023F6E7A623C7C53 GAS STATICCALL SWAP6 DUP7 ISZERO PUSH2 0x1ADD JUMPI DUP9 SWAP7 PUSH2 0x1AA9 JUMPI JUMPDEST POP PUSH1 0x40 MLOAD PUSH4 0x70A08231 PUSH1 0xE0 SHL DUP2 MSTORE ADDRESS PUSH1 0x4 DUP3 ADD MSTORE SWAP7 PUSH1 0x20 DUP9 PUSH1 0x24 DUP2 PUSH20 0xA7D1D0DA000261F05D8D4532FD34439D3325AD8B GAS STATICCALL SWAP8 DUP9 ISZERO PUSH2 0x1A9E JUMPI DUP10 SWAP9 PUSH2 0x1A6A JUMPI JUMPDEST POP PUSH1 0x40 MLOAD PUSH4 0x70A08231 PUSH1 0xE0 SHL DUP2 MSTORE ADDRESS PUSH1 0x4 DUP3 ADD MSTORE SWAP12 PUSH1 0x20 DUP14 PUSH1 0x24 DUP2 PUSH20 0xDB25F211AB05B1C97D595516F45794528A807AD8 GAS STATICCALL SWAP10 DUP11 ISZERO PUSH2 0x1A5E JUMPI SWAP10 PUSH2 0x1A28 JUMPI JUMPDEST PUSH2 0x1A0 SWAP13 POP SELFBALANCE SWAP11 PUSH1 0x40 MLOAD SWAP13 DUP14 MSTORE PUSH1 0x20 DUP14 ADD MSTORE PUSH1 0x40 DUP13 ADD MSTORE PUSH1 0x60 DUP12 ADD MSTORE PUSH1 0x80 DUP11 ADD MSTORE PUSH1 0xA0 DUP10 ADD MSTORE PUSH1 0xC0 DUP9 ADD MSTORE PUSH1 0xE0 DUP8 ADD MSTORE PUSH2 0x100 DUP7 ADD MSTORE PUSH2 0x120 DUP6 ADD MSTORE PUSH2 0x140 DUP5 ADD MSTORE PUSH2 0x160 DUP4 ADD MSTORE PUSH2 0x180 DUP3 ADD MSTORE RETURN JUMPDEST SWAP9 POP PUSH1 0x20 DUP13 RETURNDATASIZE PUSH1 0x20 GT PUSH2 0x1A56 JUMPI JUMPDEST DUP2 PUSH2 0x1A43 PUSH1 0x20 SWAP4 DUP4 PUSH2 0x3747 JUMP JUMPDEST DUP2 ADD SUB SLT PUSH2 0x71C JUMPI PUSH2 0x1A0 SWAP12 MLOAD SWAP9 PUSH2 0x19D8 JUMP JUMPDEST RETURNDATASIZE SWAP2 POP PUSH2 0x1A36 JUMP JUMPDEST PUSH1 0x40 MLOAD SWAP1 RETURNDATASIZE SWAP1 DUP3 RETURNDATACOPY RETURNDATASIZE SWAP1 REVERT JUMPDEST SWAP1 SWAP8 POP PUSH1 0x20 DUP2 RETURNDATASIZE PUSH1 0x20 GT PUSH2 0x1A96 JUMPI JUMPDEST DUP2 PUSH2 0x1A86 PUSH1 0x20 SWAP4 DUP4 PUSH2 0x3747 JUMP JUMPDEST DUP2 ADD SUB SLT PUSH2 0x71C JUMPI MLOAD SWAP7 PUSH0 PUSH2 0x1999 JUMP JUMPDEST RETURNDATASIZE SWAP2 POP PUSH2 0x1A79 JUMP JUMPDEST PUSH1 0x40 MLOAD RETURNDATASIZE DUP12 DUP3 RETURNDATACOPY RETURNDATASIZE SWAP1 REVERT JUMPDEST SWAP1 SWAP6 POP PUSH1 0x20 DUP2 RETURNDATASIZE PUSH1 0x20 GT PUSH2 0x1AD5 JUMPI JUMPDEST DUP2 PUSH2 0x1AC5 PUSH1 0x20 SWAP4 DUP4 PUSH2 0x3747 JUMP JUMPDEST DUP2 ADD SUB SLT PUSH2 0x71C JUMPI MLOAD SWAP5 PUSH0 PUSH2 0x1959 JUMP JUMPDEST RETURNDATASIZE SWAP2 POP PUSH2 0x1AB8 JUMP JUMPDEST PUSH1 0x40 MLOAD RETURNDATASIZE DUP11 DUP3 RETURNDATACOPY RETURNDATASIZE SWAP1 REVERT JUMPDEST SWAP1 SWAP4 POP PUSH1 0x20 DUP2 RETURNDATASIZE PUSH1 0x20 GT PUSH2 0x1B14 JUMPI JUMPDEST DUP2 PUSH2 0x1B04 PUSH1 0x20 SWAP4 DUP4 PUSH2 0x3747 JUMP JUMPDEST DUP2 ADD SUB SLT PUSH2 0x71C JUMPI MLOAD SWAP3 PUSH0 PUSH2 0x1919 JUMP JUMPDEST RETURNDATASIZE SWAP2 POP PUSH2 0x1AF7 JUMP JUMPDEST PUSH1 0x40 MLOAD RETURNDATASIZE DUP10 DUP3 RETURNDATACOPY RETURNDATASIZE SWAP1 REVERT JUMPDEST SWAP1 SWAP2 POP PUSH1 0x20 DUP2 RETURNDATASIZE PUSH1 0x20 GT PUSH2 0x1B53 JUMPI JUMPDEST DUP2 PUSH2 0x1B43 PUSH1 0x20 SWAP4 DUP4 PUSH2 0x3747 JUMP JUMPDEST DUP2 ADD SUB SLT PUSH2 0x71C JUMPI MLOAD SWAP1 PUSH0 PUSH2 0x18D9 JUMP JUMPDEST RETURNDATASIZE SWAP2 POP PUSH2 0x1B36 JUMP JUMPDEST PUSH1 0x40 MLOAD RETURNDATASIZE DUP9 DUP3 RETURNDATACOPY RETURNDATASIZE SWAP1 REVERT JUMPDEST SWAP1 POP PUSH1 0x20 DUP2 RETURNDATASIZE PUSH1 0x20 GT PUSH2 0x1B90 JUMPI JUMPDEST DUP2 PUSH2 0x1B81 PUSH1 0x20 SWAP4 DUP4 PUSH2 0x3747 JUMP JUMPDEST DUP2 ADD SUB SLT PUSH2 0x71C JUMPI MLOAD PUSH0 PUSH2 0x189E JUMP JUMPDEST RETURNDATASIZE SWAP2 POP PUSH2 0x1B74 JUMP JUMPDEST SWAP1 POP PUSH1 0x20 DUP2 RETURNDATASIZE PUSH1 0x20 GT PUSH2 0x1BC2 JUMPI JUMPDEST DUP2 PUSH2 0x1BB3 PUSH1 0x20 SWAP4 DUP4 PUSH2 0x3747 JUMP JUMPDEST DUP2 ADD SUB SLT PUSH2 0x71C JUMPI MLOAD PUSH0 PUSH2 0x185F JUMP JUMPDEST RETURNDATASIZE SWAP2 POP PUSH2 0x1BA6 JUMP JUMPDEST SWAP1 POP PUSH1 0x20 DUP2 RETURNDATASIZE PUSH1 0x20 GT PUSH2 0x1BF4 JUMPI JUMPDEST DUP2 PUSH2 0x1BE5 PUSH1 0x20 SWAP4 DUP4 PUSH2 0x3747 JUMP JUMPDEST DUP2 ADD SUB SLT PUSH2 0x71C JUMPI MLOAD PUSH0 PUSH2 0x1820 JUMP JUMPDEST RETURNDATASIZE SWAP2 POP PUSH2 0x1BD8 JUMP JUMPDEST PUSH1 0x40 MLOAD RETURNDATASIZE DUP6 DUP3 RETURNDATACOPY RETURNDATASIZE SWAP1 REVERT JUMPDEST SWAP1 POP PUSH1 0x20 DUP2 RETURNDATASIZE PUSH1 0x20 GT PUSH2 0x1C31 JUMPI JUMPDEST DUP2 PUSH2 0x1C22 PUSH1 0x20 SWAP4 DUP4 PUSH2 0x3747 JUMP JUMPDEST DUP2 ADD SUB SLT PUSH2 0x71C JUMPI MLOAD PUSH0 PUSH2 0x17E1 JUMP JUMPDEST RETURNDATASIZE SWAP2 POP PUSH2 0x1C15 JUMP JUMPDEST SWAP1 SWAP4 POP PUSH1 0x20 DUP2 RETURNDATASIZE PUSH1 0x20 GT PUSH2 0x1C65 JUMPI JUMPDEST DUP2 PUSH2 0x1C55 PUSH1 0x20 SWAP4 DUP4 PUSH2 0x3747 JUMP JUMPDEST DUP2 ADD SUB SLT PUSH2 0x71C JUMPI MLOAD SWAP3 PUSH0 PUSH2 0x17A2 JUMP JUMPDEST RETURNDATASIZE SWAP2 POP PUSH2 0x1C48 JUMP JUMPDEST SWAP1 POP PUSH1 0x20 DUP2 RETURNDATASIZE PUSH1 0x20 GT PUSH2 0x1C97 JUMPI JUMPDEST DUP2 PUSH2 0x1C88 PUSH1 0x20 SWAP4 DUP4 PUSH2 0x3747 JUMP JUMPDEST DUP2 ADD SUB SLT PUSH2 0x71C JUMPI MLOAD PUSH0 PUSH2 0x1762 JUMP JUMPDEST RETURNDATASIZE SWAP2 POP PUSH2 0x1C7B JUMP JUMPDEST SWAP1 POP PUSH1 0x20 DUP2 RETURNDATASIZE PUSH1 0x20 GT PUSH2 0x1CC9 JUMPI JUMPDEST DUP2 PUSH2 0x1CBA PUSH1 0x20 SWAP4 DUP4 PUSH2 0x3747 JUMP JUMPDEST DUP2 ADD SUB SLT PUSH2 0x71C JUMPI MLOAD PUSH0 PUSH2 0x1723 JUMP JUMPDEST RETURNDATASIZE SWAP2 POP PUSH2 0x1CAD JUMP JUMPDEST POP CALLVALUE PUSH2 0x2F9 JUMPI DUP1 PUSH1 0x3 NOT CALLDATASIZE ADD SLT PUSH2 0x2F9 JUMPI PUSH2 0x1CEA PUSH2 0x39A3 JUMP JUMPDEST PUSH2 0x1CF2 PUSH2 0x3708 JUMP JUMPDEST PUSH1 0x2 DUP1 SLOAD PUSH1 0x1 PUSH1 0x1 PUSH1 0xA0 SHL SUB SWAP3 SWAP2 PUSH0 SWAP2 PUSH1 0x8 SWAP1 DUP2 SHR DUP6 AND DUP1 EXTCODESIZE ISZERO PUSH2 0xCB1 JUMPI DUP4 SWAP5 SWAP6 PUSH1 0x40 MLOAD SWAP4 PUSH4 0x1BFC726F PUSH1 0xE2 SHL SWAP5 DUP6 DUP2 MSTORE DUP7 DUP2 PUSH20 0xC02AAA39B223FE8D0A0E5C4F27EAD9083C756CC2 SWAP6 DUP7 PUSH1 0x4 DUP4 ADD MSTORE DUP2 PUSH1 0x24 SWAP11 DUP12 SWAP3 GAS CALL PUSH2 0x2B9E JUMPI JUMPDEST POP PUSH1 0x40 MLOAD PUSH4 0x70A08231 PUSH1 0xE0 SHL SWAP4 DUP5 DUP3 MSTORE ADDRESS PUSH1 0x4 DUP4 ADD MSTORE PUSH1 0x20 SWAP9 DUP10 DUP4 DUP11 DUP2 DUP6 GAS STATICCALL SWAP3 DUP4 ISZERO PUSH2 0x861 JUMPI DUP2 SWAP4 PUSH2 0x2B6F JUMPI JUMPDEST POP DUP3 PUSH2 0x2AE8 JUMPI JUMPDEST POP POP DUP2 SLOAD DUP6 SHR DUP4 AND SWAP1 POP PUSH0 DUP2 EXTCODESIZE ISZERO PUSH2 0x2F9 JUMPI PUSH1 0x40 MLOAD DUP8 DUP2 MSTORE DUP2 DUP2 DUP11 DUP2 DUP4 PUSH20 0xA0B86991C6218B36C1D19D4A2E9EB0CE3606EB48 SWAP8 DUP9 PUSH1 0x4 DUP5 ADD MSTORE GAS CALL PUSH2 0x2AD9 JUMPI JUMPDEST POP SWAP1 PUSH1 0x40 MLOAD SWAP2 DUP6 DUP4 MSTORE ADDRESS PUSH1 0x4 DUP5 ADD MSTORE DUP10 DUP4 DUP11 DUP2 DUP6 GAS STATICCALL SWAP3 DUP4 ISZERO PUSH2 0x861 JUMPI DUP2 SWAP4 PUSH2 0x2AAA JUMPI JUMPDEST POP DUP3 PUSH2 0x2A23 JUMPI JUMPDEST POP POP DUP2 SLOAD DUP6 SHR DUP4 AND SWAP1 POP PUSH0 DUP2 EXTCODESIZE ISZERO PUSH2 0x2F9 JUMPI PUSH1 0x40 MLOAD DUP8 DUP2 MSTORE DUP2 DUP2 DUP11 DUP2 DUP4 PUSH20 0xDAC17F958D2EE523A2206206994597C13D831EC7 SWAP8 DUP9 PUSH1 0x4 DUP5 ADD MSTORE GAS CALL PUSH2 0x2A14 JUMPI JUMPDEST POP SWAP1 PUSH1 0x40 MLOAD SWAP2 DUP6 DUP4 MSTORE ADDRESS PUSH1 0x4 DUP5 ADD MSTORE DUP10 DUP4 DUP11 DUP2 DUP6 GAS STATICCALL SWAP3 DUP4 ISZERO PUSH2 0x861 JUMPI DUP2 SWAP4 PUSH2 0x29E5 JUMPI JUMPDEST POP DUP3 PUSH2 0x295E JUMPI JUMPDEST POP POP DUP2 SLOAD DUP6 SHR DUP4 AND SWAP1 POP PUSH0 DUP2 EXTCODESIZE ISZERO PUSH2 0x2F9 JUMPI PUSH1 0x40 MLOAD DUP8 DUP2 MSTORE DUP2 DUP2 DUP11 DUP2 DUP4 PUSH20 0x6B175474E89094C44DA98B954EEDEAC495271D0F SWAP8 DUP9 PUSH1 0x4 DUP5 ADD MSTORE GAS CALL PUSH2 0x294F JUMPI JUMPDEST POP SWAP1 PUSH1 0x40 MLOAD SWAP2 DUP6 DUP4 MSTORE ADDRESS PUSH1 0x4 DUP5 ADD MSTORE DUP10 DUP4 DUP11 DUP2 DUP6 GAS STATICCALL SWAP3 DUP4 ISZERO PUSH2 0x861 JUMPI DUP2 SWAP4 PUSH2 0x2920 JUMPI JUMPDEST POP DUP3 PUSH2 0x2899 JUMPI JUMPDEST POP POP DUP2 SLOAD DUP6 SHR DUP4 AND SWAP1 POP PUSH0 DUP2 EXTCODESIZE ISZERO PUSH2 0x2F9 JUMPI PUSH1 0x40 MLOAD DUP8 DUP2 MSTORE DUP2 DUP2 DUP11 DUP2 DUP4 PUSH20 0x3432B6A60D23CA0DFCA7761B7AB56459D9C964D0 SWAP8 DUP9 PUSH1 0x4 DUP5 ADD MSTORE GAS CALL PUSH2 0x288A JUMPI JUMPDEST POP SWAP1 PUSH1 0x40 MLOAD SWAP2 DUP6 DUP4 MSTORE ADDRESS PUSH1 0x4 DUP5 ADD MSTORE DUP10 DUP4 DUP11 DUP2 DUP6 GAS STATICCALL SWAP3 DUP4 ISZERO PUSH2 0x861 JUMPI DUP2 SWAP4 PUSH2 0x285B JUMPI JUMPDEST POP DUP3 PUSH2 0x27D4 JUMPI JUMPDEST POP POP DUP2 SLOAD DUP6 SHR DUP4 AND SWAP1 POP PUSH0 DUP2 EXTCODESIZE ISZERO PUSH2 0x2F9 JUMPI PUSH1 0x40 MLOAD DUP8 DUP2 MSTORE DUP2 DUP2 DUP11 DUP2 DUP4 PUSH20 0x5F98805A4E8F28FB3FBE254CCF7E6F82E4467683 SWAP8 DUP9 PUSH1 0x4 DUP5 ADD MSTORE GAS CALL PUSH2 0x27C5 JUMPI JUMPDEST POP SWAP1 PUSH1 0x40 MLOAD SWAP2 DUP6 DUP4 MSTORE ADDRESS PUSH1 0x4 DUP5 ADD MSTORE DUP10 DUP4 DUP11 DUP2 DUP6 GAS STATICCALL SWAP3 DUP4 ISZERO PUSH2 0x861 JUMPI DUP2 SWAP4 PUSH2 0x2796 JUMPI JUMPDEST POP DUP3 PUSH2 0x270F JUMPI JUMPDEST POP POP DUP2 SLOAD DUP6 SHR DUP4 AND SWAP1 POP PUSH0 DUP2 EXTCODESIZE ISZERO PUSH2 0x2F9 JUMPI PUSH1 0x40 MLOAD DUP8 DUP2 MSTORE DUP2 DUP2 DUP11 DUP2 DUP4 PUSH20 0x8E870D67F660D95D5BE2D7738B5B1294A692A0B9 SWAP8 DUP9 PUSH1 0x4 DUP5 ADD MSTORE GAS CALL PUSH2 0x2700 JUMPI JUMPDEST POP SWAP1 PUSH1 0x40 MLOAD SWAP2 DUP6 DUP4 MSTORE ADDRESS PUSH1 0x4 DUP5 ADD MSTORE DUP10 DUP4 DUP11 DUP2 DUP6 GAS STATICCALL SWAP3 DUP4 ISZERO PUSH2 0x861 JUMPI DUP2 SWAP4 PUSH2 0x26D1 JUMPI JUMPDEST POP DUP3 PUSH2 0x264A JUMPI JUMPDEST POP POP DUP2 SLOAD DUP6 SHR DUP4 AND SWAP1 POP PUSH0 DUP2 EXTCODESIZE ISZERO PUSH2 0x2F9 JUMPI PUSH1 0x40 MLOAD DUP8 DUP2 MSTORE DUP2 DUP2 DUP11 DUP2 DUP4 PUSH15 0x85D4780B73119B644AE5ECD22B376 SWAP8 DUP9 PUSH1 0x4 DUP5 ADD MSTORE GAS CALL PUSH2 0x263B JUMPI JUMPDEST POP SWAP1 PUSH1 0x40 MLOAD SWAP2 DUP6 DUP4 MSTORE ADDRESS PUSH1 0x4 DUP5 ADD MSTORE DUP10 DUP4 DUP11 DUP2 DUP6 GAS STATICCALL SWAP3 DUP4 ISZERO PUSH2 0x861 JUMPI DUP2 SWAP4 PUSH2 0x260C JUMPI JUMPDEST POP DUP3 PUSH2 0x2585 JUMPI JUMPDEST POP POP DUP2 SLOAD DUP6 SHR DUP4 AND SWAP1 POP PUSH0 DUP2 EXTCODESIZE ISZERO PUSH2 0x2F9 JUMPI PUSH1 0x40 MLOAD DUP8 DUP2 MSTORE DUP2 DUP2 DUP11 DUP2 DUP4 PUSH20 0x56FD409E1D7A124BD7017459DFEA2F387B6D5CD SWAP8 DUP9 PUSH1 0x4 DUP5 ADD MSTORE GAS CALL PUSH2 0x2576 JUMPI JUMPDEST POP SWAP1 PUSH1 0x40 MLOAD SWAP2 DUP6 DUP4 MSTORE ADDRESS PUSH1 0x4 DUP5 ADD MSTORE DUP10 DUP4 DUP11 DUP2 DUP6 GAS STATICCALL SWAP3 DUP4 ISZERO PUSH2 0x861 JUMPI DUP2 SWAP4 PUSH2 0x2547 JUMPI JUMPDEST POP DUP3 PUSH2 0x24C0 JUMPI JUMPDEST POP POP DUP2 SLOAD DUP6 SHR DUP4 AND SWAP1 POP PUSH0 DUP2 EXTCODESIZE ISZERO PUSH2 0x2F9 JUMPI PUSH1 0x40 MLOAD DUP8 DUP2 MSTORE DUP2 DUP2 DUP11 DUP2 DUP4 PUSH20 0x4FABB145D64652A948D72533023F6E7A623C7C53 SWAP8 DUP9 PUSH1 0x4 DUP5 ADD MSTORE GAS CALL PUSH2 0x24B1 JUMPI JUMPDEST POP SWAP1 PUSH1 0x40 MLOAD SWAP2 DUP6 DUP4 MSTORE ADDRESS PUSH1 0x4 DUP5 ADD MSTORE DUP10 DUP4 DUP11 DUP2 DUP6 GAS STATICCALL SWAP3 DUP4 ISZERO PUSH2 0x861 JUMPI DUP2 SWAP4 PUSH2 0x2482 JUMPI JUMPDEST POP DUP3 PUSH2 0x23FB JUMPI JUMPDEST POP POP DUP2 SLOAD DUP6 SHR DUP4 AND SWAP1 POP PUSH0 DUP2 EXTCODESIZE ISZERO PUSH2 0x2F9 JUMPI PUSH1 0x40 MLOAD DUP8 DUP2 MSTORE DUP2 DUP2 DUP11 DUP2 DUP4 PUSH20 0xA7D1D0DA000261F05D8D4532FD34439D3325AD8B SWAP8 DUP9 PUSH1 0x4 DUP5 ADD MSTORE GAS CALL PUSH2 0x23EC JUMPI JUMPDEST POP SWAP1 PUSH1 0x40 MLOAD SWAP2 DUP6 DUP4 MSTORE ADDRESS PUSH1 0x4 DUP5 ADD MSTORE DUP10 DUP4 DUP11 DUP2 DUP6 GAS STATICCALL SWAP3 DUP4 ISZERO PUSH2 0x861 JUMPI DUP2 SWAP4 PUSH2 0x23BD JUMPI JUMPDEST POP DUP3 PUSH2 0x2336 JUMPI JUMPDEST POP POP POP SLOAD PUSH0 SWAP4 SHR AND SWAP3 DUP4 EXTCODESIZE ISZERO PUSH2 0x3F9 JUMPI SWAP1 DUP6 SWAP2 PUSH1 0x40 MLOAD SWAP1 DUP2 MSTORE DUP4 DUP2 DUP8 DUP2 DUP4 PUSH20 0xDB25F211AB05B1C97D595516F45794528A807AD8 SWAP10 DUP11 PUSH1 0x4 DUP5 ADD MSTORE GAS CALL PUSH2 0x2323 JUMPI JUMPDEST POP PUSH1 0x40 MLOAD SWAP5 DUP6 SWAP2 DUP3 MSTORE ADDRESS PUSH1 0x4 DUP4 ADD MSTORE DUP2 DUP6 GAS STATICCALL SWAP3 DUP4 ISZERO PUSH2 0x861 JUMPI DUP2 SWAP4 PUSH2 0x22F4 JUMPI JUMPDEST POP DUP3 PUSH2 0x226D JUMPI JUMPDEST POP POP POP SELFBALANCE SWAP1 DUP2 PUSH2 0x2228 JUMPI JUMPDEST DUP3 PUSH1 0x1 DUP1 SSTORE DUP1 RETURN JUMPDEST PUSH32 0x6148672A948A12B8E0BF92A9338349B9AC890FAD62A234ABAF0A4DA99F62CFCC SWAP1 PUSH2 0x225D DUP5 DUP1 DUP1 DUP1 DUP8 CALLER GAS CALL PUSH2 0x549 PUSH2 0x3A0D JUMP JUMPDEST PUSH1 0x40 MLOAD SWAP3 DUP4 MSTORE CALLER SWAP3 LOG2 PUSH0 DUP1 PUSH2 0x2220 JUMP JUMPDEST PUSH1 0x40 MLOAD PUSH4 0xA9059CBB PUSH1 0xE0 SHL DUP2 MSTORE CALLER PUSH1 0x4 DUP3 ADD MSTORE PUSH1 0x24 DUP2 ADD DUP5 SWAP1 MSTORE SWAP1 DUP5 DUP3 PUSH1 0x44 DUP2 DUP5 DUP8 GAS CALL DUP1 ISZERO PUSH2 0x861 JUMPI PUSH2 0x22BE JUMPI JUMPDEST POP POP PUSH1 0x40 MLOAD SWAP2 DUP3 MSTORE PUSH0 DUP1 MLOAD PUSH1 0x20 PUSH2 0x3A8F DUP4 CODECOPY DUP2 MLOAD SWAP2 MSTORE DUP4 CALLER SWAP4 LOG3 PUSH0 DUP1 DUP1 PUSH2 0x2215 JUMP JUMPDEST DUP5 DUP3 DUP2 RETURNDATASIZE DUP4 GT PUSH2 0x22ED JUMPI JUMPDEST PUSH2 0x22D3 DUP2 DUP4 PUSH2 0x3747 JUMP JUMPDEST DUP2 ADD SUB SLT PUSH2 0x2F9 JUMPI POP PUSH2 0x22E5 SWAP1 PUSH2 0x391A JUMP JUMPDEST POP PUSH0 DUP1 PUSH2 0x229C JUMP JUMPDEST POP RETURNDATASIZE PUSH2 0x22C9 JUMP JUMPDEST SWAP1 SWAP3 POP DUP4 DUP2 DUP2 RETURNDATASIZE DUP4 GT PUSH2 0x231C JUMPI JUMPDEST PUSH2 0x230C DUP2 DUP4 PUSH2 0x3747 JUMP JUMPDEST DUP2 ADD SUB SLT PUSH2 0x71C JUMPI MLOAD SWAP2 PUSH0 PUSH2 0x220E JUMP JUMPDEST POP RETURNDATASIZE PUSH2 0x2302 JUMP JUMPDEST PUSH2 0x232F SWAP1 SWAP4 SWAP2 SWAP4 PUSH2 0x3733 JUMP JUMPDEST SWAP2 PUSH0 PUSH2 0x21ED JUMP JUMPDEST PUSH1 0x40 MLOAD PUSH4 0xA9059CBB PUSH1 0xE0 SHL DUP2 MSTORE CALLER PUSH1 0x4 DUP3 ADD MSTORE PUSH1 0x24 DUP2 ADD DUP5 SWAP1 MSTORE SWAP1 DUP11 DUP3 PUSH1 0x44 DUP2 DUP5 DUP8 GAS CALL DUP1 ISZERO PUSH2 0x861 JUMPI PUSH2 0x2387 JUMPI JUMPDEST POP POP PUSH1 0x40 MLOAD SWAP2 DUP3 MSTORE PUSH0 DUP1 MLOAD PUSH1 0x20 PUSH2 0x3A8F DUP4 CODECOPY DUP2 MLOAD SWAP2 MSTORE DUP10 CALLER SWAP4 LOG3 PUSH0 DUP1 DUP1 PUSH2 0x21AC JUMP JUMPDEST DUP11 DUP3 DUP2 RETURNDATASIZE DUP4 GT PUSH2 0x23B6 JUMPI JUMPDEST PUSH2 0x239C DUP2 DUP4 PUSH2 0x3747 JUMP JUMPDEST DUP2 ADD SUB SLT PUSH2 0x2F9 JUMPI POP PUSH2 0x23AE SWAP1 PUSH2 0x391A JUMP JUMPDEST POP PUSH0 DUP1 PUSH2 0x2365 JUMP JUMPDEST POP RETURNDATASIZE PUSH2 0x2392 JUMP JUMPDEST SWAP1 SWAP3 POP DUP10 DUP2 DUP2 RETURNDATASIZE DUP4 GT PUSH2 0x23E5 JUMPI JUMPDEST PUSH2 0x23D5 DUP2 DUP4 PUSH2 0x3747 JUMP JUMPDEST DUP2 ADD SUB SLT PUSH2 0x71C JUMPI MLOAD SWAP2 PUSH0 PUSH2 0x21A5 JUMP JUMPDEST POP RETURNDATASIZE PUSH2 0x23CB JUMP JUMPDEST PUSH2 0x23F5 SWAP1 PUSH2 0x3733 JUMP JUMPDEST PUSH0 PUSH2 0x2181 JUMP JUMPDEST PUSH1 0x40 MLOAD PUSH4 0xA9059CBB PUSH1 0xE0 SHL DUP2 MSTORE CALLER PUSH1 0x4 DUP3 ADD MSTORE PUSH1 0x24 DUP2 ADD DUP5 SWAP1 MSTORE SWAP1 DUP11 DUP3 PUSH1 0x44 DUP2 DUP5 DUP8 GAS CALL DUP1 ISZERO PUSH2 0x861 JUMPI PUSH2 0x244C JUMPI JUMPDEST POP POP PUSH1 0x40 MLOAD SWAP2 DUP3 MSTORE PUSH0 DUP1 MLOAD PUSH1 0x20 PUSH2 0x3A8F DUP4 CODECOPY DUP2 MLOAD SWAP2 MSTORE DUP10 CALLER SWAP4 LOG3 PUSH0 DUP1 DUP1 PUSH2 0x2141 JUMP JUMPDEST DUP11 DUP3 DUP2 RETURNDATASIZE DUP4 GT PUSH2 0x247B JUMPI JUMPDEST PUSH2 0x2461 DUP2 DUP4 PUSH2 0x3747 JUMP JUMPDEST DUP2 ADD SUB SLT PUSH2 0x2F9 JUMPI POP PUSH2 0x2473 SWAP1 PUSH2 0x391A JUMP JUMPDEST POP PUSH0 DUP1 PUSH2 0x242A JUMP JUMPDEST POP RETURNDATASIZE PUSH2 0x2457 JUMP JUMPDEST SWAP1 SWAP3 POP DUP10 DUP2 DUP2 RETURNDATASIZE DUP4 GT PUSH2 0x24AA JUMPI JUMPDEST PUSH2 0x249A DUP2 DUP4 PUSH2 0x3747 JUMP JUMPDEST DUP2 ADD SUB SLT PUSH2 0x71C JUMPI MLOAD SWAP2 PUSH0 PUSH2 0x213A JUMP JUMPDEST POP RETURNDATASIZE PUSH2 0x2490 JUMP JUMPDEST PUSH2 0x24BA SWAP1 PUSH2 0x3733 JUMP JUMPDEST PUSH0 PUSH2 0x2116 JUMP JUMPDEST PUSH1 0x40 MLOAD PUSH4 0xA9059CBB PUSH1 0xE0 SHL DUP2 MSTORE CALLER PUSH1 0x4 DUP3 ADD MSTORE PUSH1 0x24 DUP2 ADD DUP5 SWAP1 MSTORE SWAP1 DUP11 DUP3 PUSH1 0x44 DUP2 DUP5 DUP8 GAS CALL DUP1 ISZERO PUSH2 0x861 JUMPI PUSH2 0x2511 JUMPI JUMPDEST POP POP PUSH1 0x40 MLOAD SWAP2 DUP3 MSTORE PUSH0 DUP1 MLOAD PUSH1 0x20 PUSH2 0x3A8F DUP4 CODECOPY DUP2 MLOAD SWAP2 MSTORE DUP10 CALLER SWAP4 LOG3 PUSH0 DUP1 DUP1 PUSH2 0x20D6 JUMP JUMPDEST DUP11 DUP3 DUP2 RETURNDATASIZE DUP4 GT PUSH2 0x2540 JUMPI JUMPDEST PUSH2 0x2526 DUP2 DUP4 PUSH2 0x3747 JUMP JUMPDEST DUP2 ADD SUB SLT PUSH2 0x2F9 JUMPI POP PUSH2 0x2538 SWAP1 PUSH2 0x391A JUMP JUMPDEST POP PUSH0 DUP1 PUSH2 0x24EF JUMP JUMPDEST POP RETURNDATASIZE PUSH2 0x251C JUMP JUMPDEST SWAP1 SWAP3 POP DUP10 DUP2 DUP2 RETURNDATASIZE DUP4 GT PUSH2 0x256F JUMPI JUMPDEST PUSH2 0x255F DUP2 DUP4 PUSH2 0x3747 JUMP JUMPDEST DUP2 ADD SUB SLT PUSH2 0x71C JUMPI MLOAD SWAP2 PUSH0 PUSH2 0x20CF JUMP JUMPDEST POP RETURNDATASIZE PUSH2 0x2555 JUMP JUMPDEST PUSH2 0x257F SWAP1 PUSH2 0x3733 JUMP JUMPDEST PUSH0 PUSH2 0x20AB JUMP JUMPDEST PUSH1 0x40 MLOAD PUSH4 0xA9059CBB PUSH1 0xE0 SHL DUP2 MSTORE CALLER PUSH1 0x4 DUP3 ADD MSTORE PUSH1 0x24 DUP2 ADD DUP5 SWAP1 MSTORE SWAP1 DUP11 DUP3 PUSH1 0x44 DUP2 DUP5 DUP8 GAS CALL DUP1 ISZERO PUSH2 0x861 JUMPI PUSH2 0x25D6 JUMPI JUMPDEST POP POP PUSH1 0x40 MLOAD SWAP2 DUP3 MSTORE PUSH0 DUP1 MLOAD PUSH1 0x20 PUSH2 0x3A8F DUP4 CODECOPY DUP2 MLOAD SWAP2 MSTORE DUP10 CALLER SWAP4 LOG3 PUSH0 DUP1 DUP1 PUSH2 0x206B JUMP JUMPDEST DUP11 DUP3 DUP2 RETURNDATASIZE DUP4 GT PUSH2 0x2605 JUMPI JUMPDEST PUSH2 0x25EB DUP2 DUP4 PUSH2 0x3747 JUMP JUMPDEST DUP2 ADD SUB SLT PUSH2 0x2F9 JUMPI POP PUSH2 0x25FD SWAP1 PUSH2 0x391A JUMP JUMPDEST POP PUSH0 DUP1 PUSH2 0x25B4 JUMP JUMPDEST POP RETURNDATASIZE PUSH2 0x25E1 JUMP JUMPDEST SWAP1 SWAP3 POP DUP10 DUP2 DUP2 RETURNDATASIZE DUP4 GT PUSH2 0x2634 JUMPI JUMPDEST PUSH2 0x2624 DUP2 DUP4 PUSH2 0x3747 JUMP JUMPDEST DUP2 ADD SUB SLT PUSH2 0x71C JUMPI MLOAD SWAP2 PUSH0 PUSH2 0x2064 JUMP JUMPDEST POP RETURNDATASIZE PUSH2 0x261A JUMP JUMPDEST PUSH2 0x2644 SWAP1 PUSH2 0x3733 JUMP JUMPDEST PUSH0 PUSH2 0x2040 JUMP JUMPDEST PUSH1 0x40 MLOAD PUSH4 0xA9059CBB PUSH1 0xE0 SHL DUP2 MSTORE CALLER PUSH1 0x4 DUP3 ADD MSTORE PUSH1 0x24 DUP2 ADD DUP5 SWAP1 MSTORE SWAP1 DUP11 DUP3 PUSH1 0x44 DUP2 DUP5 DUP8 GAS CALL DUP1 ISZERO PUSH2 0x861 JUMPI PUSH2 0x269B JUMPI JUMPDEST POP POP PUSH1 0x40 MLOAD SWAP2 DUP3 MSTORE PUSH0 DUP1 MLOAD PUSH1 0x20 PUSH2 0x3A8F DUP4 CODECOPY DUP2 MLOAD SWAP2 MSTORE DUP10 CALLER SWAP4 LOG3 PUSH0 DUP1 DUP1 PUSH2 0x2005 JUMP JUMPDEST DUP11 DUP3 DUP2 RETURNDATASIZE DUP4 GT PUSH2 0x26CA JUMPI JUMPDEST PUSH2 0x26B0 DUP2 DUP4 PUSH2 0x3747 JUMP JUMPDEST DUP2 ADD SUB SLT PUSH2 0x2F9 JUMPI POP PUSH2 0x26C2 SWAP1 PUSH2 0x391A JUMP JUMPDEST POP PUSH0 DUP1 PUSH2 0x2679 JUMP JUMPDEST POP RETURNDATASIZE PUSH2 0x26A6 JUMP JUMPDEST SWAP1 SWAP3 POP DUP10 DUP2 DUP2 RETURNDATASIZE DUP4 GT PUSH2 0x26F9 JUMPI JUMPDEST PUSH2 0x26E9 DUP2 DUP4 PUSH2 0x3747 JUMP JUMPDEST DUP2 ADD SUB SLT PUSH2 0x71C JUMPI MLOAD SWAP2 PUSH0 PUSH2 0x1FFE JUMP JUMPDEST POP RETURNDATASIZE PUSH2 0x26DF JUMP JUMPDEST PUSH2 0x2709 SWAP1 PUSH2 0x3733 JUMP JUMPDEST PUSH0 PUSH2 0x1FDA JUMP JUMPDEST PUSH1 0x40 MLOAD PUSH4 0xA9059CBB PUSH1 0xE0 SHL DUP2 MSTORE CALLER PUSH1 0x4 DUP3 ADD MSTORE PUSH1 0x24 DUP2 ADD DUP5 SWAP1 MSTORE SWAP1 DUP11 DUP3 PUSH1 0x44 DUP2 DUP5 DUP8 GAS CALL DUP1 ISZERO PUSH2 0x861 JUMPI PUSH2 0x2760 JUMPI JUMPDEST POP POP PUSH1 0x40 MLOAD SWAP2 DUP3 MSTORE PUSH0 DUP1 MLOAD PUSH1 0x20 PUSH2 0x3A8F DUP4 CODECOPY DUP2 MLOAD SWAP2 MSTORE DUP10 CALLER SWAP4 LOG3 PUSH0 DUP1 DUP1 PUSH2 0x1F9A JUMP JUMPDEST DUP11 DUP3 DUP2 RETURNDATASIZE DUP4 GT PUSH2 0x278F JUMPI JUMPDEST PUSH2 0x2775 DUP2 DUP4 PUSH2 0x3747 JUMP JUMPDEST DUP2 ADD SUB SLT PUSH2 0x2F9 JUMPI POP PUSH2 0x2787 SWAP1 PUSH2 0x391A JUMP JUMPDEST POP PUSH0 DUP1 PUSH2 0x273E JUMP JUMPDEST POP RETURNDATASIZE PUSH2 0x276B JUMP JUMPDEST SWAP1 SWAP3 POP DUP10 DUP2 DUP2 RETURNDATASIZE DUP4 GT PUSH2 0x27BE JUMPI JUMPDEST PUSH2 0x27AE DUP2 DUP4 PUSH2 0x3747 JUMP JUMPDEST DUP2 ADD SUB SLT PUSH2 0x71C JUMPI MLOAD SWAP2 PUSH0 PUSH2 0x1F93 JUMP JUMPDEST POP RETURNDATASIZE PUSH2 0x27A4 JUMP JUMPDEST PUSH2 0x27CE SWAP1 PUSH2 0x3733 JUMP JUMPDEST PUSH0 PUSH2 0x1F6F JUMP JUMPDEST PUSH1 0x40 MLOAD PUSH4 0xA9059CBB PUSH1 0xE0 SHL DUP2 MSTORE CALLER PUSH1 0x4 DUP3 ADD MSTORE PUSH1 0x24 DUP2 ADD DUP5 SWAP1 MSTORE SWAP1 DUP11 DUP3 PUSH1 0x44 DUP2 DUP5 DUP8 GAS CALL DUP1 ISZERO PUSH2 0x861 JUMPI PUSH2 0x2825 JUMPI JUMPDEST POP POP PUSH1 0x40 MLOAD SWAP2 DUP3 MSTORE PUSH0 DUP1 MLOAD PUSH1 0x20 PUSH2 0x3A8F DUP4 CODECOPY DUP2 MLOAD SWAP2 MSTORE DUP10 CALLER SWAP4 LOG3 PUSH0 DUP1 DUP1 PUSH2 0x1F2F JUMP JUMPDEST DUP11 DUP3 DUP2 RETURNDATASIZE DUP4 GT PUSH2 0x2854 JUMPI JUMPDEST PUSH2 0x283A DUP2 DUP4 PUSH2 0x3747 JUMP JUMPDEST DUP2 ADD SUB SLT PUSH2 0x2F9 JUMPI POP PUSH2 0x284C SWAP1 PUSH2 0x391A JUMP JUMPDEST POP PUSH0 DUP1 PUSH2 0x2803 JUMP JUMPDEST POP RETURNDATASIZE PUSH2 0x2830 JUMP JUMPDEST SWAP1 SWAP3 POP DUP10 DUP2 DUP2 RETURNDATASIZE DUP4 GT PUSH2 0x2883 JUMPI JUMPDEST PUSH2 0x2873 DUP2 DUP4 PUSH2 0x3747 JUMP JUMPDEST DUP2 ADD SUB SLT PUSH2 0x71C JUMPI MLOAD SWAP2 PUSH0 PUSH2 0x1F28 JUMP JUMPDEST POP RETURNDATASIZE PUSH2 0x2869 JUMP JUMPDEST PUSH2 0x2893 SWAP1 PUSH2 0x3733 JUMP JUMPDEST PUSH0 PUSH2 0x1F04 JUMP JUMPDEST PUSH1 0x40 MLOAD PUSH4 0xA9059CBB PUSH1 0xE0 SHL DUP2 MSTORE CALLER PUSH1 0x4 DUP3 ADD MSTORE PUSH1 0x24 DUP2 ADD DUP5 SWAP1 MSTORE SWAP1 DUP11 DUP3 PUSH1 0x44 DUP2 DUP5 DUP8 GAS CALL DUP1 ISZERO PUSH2 0x861 JUMPI PUSH2 0x28EA JUMPI JUMPDEST POP POP PUSH1 0x40 MLOAD SWAP2 DUP3 MSTORE PUSH0 DUP1 MLOAD PUSH1 0x20 PUSH2 0x3A8F DUP4 CODECOPY DUP2 MLOAD SWAP2 MSTORE DUP10 CALLER SWAP4 LOG3 PUSH0 DUP1 DUP1 PUSH2 0x1EC4 JUMP JUMPDEST DUP11 DUP3 DUP2 RETURNDATASIZE DUP4 GT PUSH2 0x2919 JUMPI JUMPDEST PUSH2 0x28FF DUP2 DUP4 PUSH2 0x3747 JUMP JUMPDEST DUP2 ADD SUB SLT PUSH2 0x2F9 JUMPI POP PUSH2 0x2911 SWAP1 PUSH2 0x391A JUMP JUMPDEST POP PUSH0 DUP1 PUSH2 0x28C8 JUMP JUMPDEST POP RETURNDATASIZE PUSH2 0x28F5 JUMP JUMPDEST SWAP1 SWAP3 POP DUP10 DUP2 DUP2 RETURNDATASIZE DUP4 GT PUSH2 0x2948 JUMPI JUMPDEST PUSH2 0x2938 DUP2 DUP4 PUSH2 0x3747 JUMP JUMPDEST DUP2 ADD SUB SLT PUSH2 0x71C JUMPI MLOAD SWAP2 PUSH0 PUSH2 0x1EBD JUMP JUMPDEST POP RETURNDATASIZE PUSH2 0x292E JUMP JUMPDEST PUSH2 0x2958 SWAP1 PUSH2 0x3733 JUMP JUMPDEST PUSH0 PUSH2 0x1E99 JUMP JUMPDEST PUSH1 0x40 MLOAD PUSH4 0xA9059CBB PUSH1 0xE0 SHL DUP2 MSTORE CALLER PUSH1 0x4 DUP3 ADD MSTORE PUSH1 0x24 DUP2 ADD DUP5 SWAP1 MSTORE SWAP1 DUP11 DUP3 PUSH1 0x44 DUP2 DUP5 DUP8 GAS CALL DUP1 ISZERO PUSH2 0x861 JUMPI PUSH2 0x29AF JUMPI JUMPDEST POP POP PUSH1 0x40 MLOAD SWAP2 DUP3 MSTORE PUSH0 DUP1 MLOAD PUSH1 0x20 PUSH2 0x3A8F DUP4 CODECOPY DUP2 MLOAD SWAP2 MSTORE DUP10 CALLER SWAP4 LOG3 PUSH0 DUP1 DUP1 PUSH2 0x1E59 JUMP JUMPDEST DUP11 DUP3 DUP2 RETURNDATASIZE DUP4 GT PUSH2 0x29DE JUMPI JUMPDEST PUSH2 0x29C4 DUP2 DUP4 PUSH2 0x3747 JUMP JUMPDEST DUP2 ADD SUB SLT PUSH2 0x2F9 JUMPI POP PUSH2 0x29D6 SWAP1 PUSH2 0x391A JUMP JUMPDEST POP PUSH0 DUP1 PUSH2 0x298D JUMP JUMPDEST POP RETURNDATASIZE PUSH2 0x29BA JUMP JUMPDEST SWAP1 SWAP3 POP DUP10 DUP2 DUP2 RETURNDATASIZE DUP4 GT PUSH2 0x2A0D JUMPI JUMPDEST PUSH2 0x29FD DUP2 DUP4 PUSH2 0x3747 JUMP JUMPDEST DUP2 ADD SUB SLT PUSH2 0x71C JUMPI MLOAD SWAP2 PUSH0 PUSH2 0x1E52 JUMP JUMPDEST POP RETURNDATASIZE PUSH2 0x29F3 JUMP JUMPDEST PUSH2 0x2A1D SWAP1 PUSH2 0x3733 JUMP JUMPDEST PUSH0 PUSH2 0x1E2E JUMP JUMPDEST PUSH1 0x40 MLOAD PUSH4 0xA9059CBB PUSH1 0xE0 SHL DUP2 MSTORE CALLER PUSH1 0x4 DUP3 ADD MSTORE PUSH1 0x24 DUP2 ADD DUP5 SWAP1 MSTORE SWAP1 DUP11 DUP3 PUSH1 0x44 DUP2 DUP5 DUP8 GAS CALL DUP1 ISZERO PUSH2 0x861 JUMPI PUSH2 0x2A74 JUMPI JUMPDEST POP POP PUSH1 0x40 MLOAD SWAP2 DUP3 MSTORE PUSH0 DUP1 MLOAD PUSH1 0x20 PUSH2 0x3A8F DUP4 CODECOPY DUP2 MLOAD SWAP2 MSTORE DUP10 CALLER SWAP4 LOG3 PUSH0 DUP1 DUP1 PUSH2 0x1DEE JUMP JUMPDEST DUP11 DUP3 DUP2 RETURNDATASIZE DUP4 GT PUSH2 0x2AA3 JUMPI JUMPDEST PUSH2 0x2A89 DUP2 DUP4 PUSH2 0x3747 JUMP JUMPDEST DUP2 ADD SUB SLT PUSH2 0x2F9 JUMPI POP PUSH2 0x2A9B SWAP1 PUSH2 0x391A JUMP JUMPDEST POP PUSH0 DUP1 PUSH2 0x2A52 JUMP JUMPDEST POP RETURNDATASIZE PUSH2 0x2A7F JUMP JUMPDEST SWAP1 SWAP3 POP DUP10 DUP2 DUP2 RETURNDATASIZE DUP4 GT PUSH2 0x2AD2 JUMPI JUMPDEST PUSH2 0x2AC2 DUP2 DUP4 PUSH2 0x3747 JUMP JUMPDEST DUP2 ADD SUB SLT PUSH2 0x71C JUMPI MLOAD SWAP2 PUSH0 PUSH2 0x1DE7 JUMP JUMPDEST POP RETURNDATASIZE PUSH2 0x2AB8 JUMP JUMPDEST PUSH2 0x2AE2 SWAP1 PUSH2 0x3733 JUMP JUMPDEST PUSH0 PUSH2 0x1DC3 JUMP JUMPDEST PUSH1 0x40 MLOAD PUSH4 0xA9059CBB PUSH1 0xE0 SHL DUP2 MSTORE CALLER PUSH1 0x4 DUP3 ADD MSTORE PUSH1 0x24 DUP2 ADD DUP5 SWAP1 MSTORE SWAP1 DUP11 DUP3 PUSH1 0x44 DUP2 DUP5 DUP8 GAS CALL DUP1 ISZERO PUSH2 0x861 JUMPI PUSH2 0x2B39 JUMPI JUMPDEST POP POP PUSH1 0x40 MLOAD SWAP2 DUP3 MSTORE PUSH0 DUP1 MLOAD PUSH1 0x20 PUSH2 0x3A8F DUP4 CODECOPY DUP2 MLOAD SWAP2 MSTORE DUP10 CALLER SWAP4 LOG3 PUSH0 DUP1 DUP1 PUSH2 0x1D83 JUMP JUMPDEST DUP11 DUP3 DUP2 RETURNDATASIZE DUP4 GT PUSH2 0x2B68 JUMPI JUMPDEST PUSH2 0x2B4E DUP2 DUP4 PUSH2 0x3747 JUMP JUMPDEST DUP2 ADD SUB SLT PUSH2 0x2F9 JUMPI POP PUSH2 0x2B60 SWAP1 PUSH2 0x391A JUMP JUMPDEST POP PUSH0 DUP1 PUSH2 0x2B17 JUMP JUMPDEST POP RETURNDATASIZE PUSH2 0x2B44 JUMP JUMPDEST SWAP1 SWAP3 POP DUP10 DUP2 DUP2 RETURNDATASIZE DUP4 GT PUSH2 0x2B97 JUMPI JUMPDEST PUSH2 0x2B87 DUP2 DUP4 PUSH2 0x3747 JUMP JUMPDEST DUP2 ADD SUB SLT PUSH2 0x71C JUMPI MLOAD SWAP2 PUSH0 PUSH2 0x1D7C JUMP JUMPDEST POP RETURNDATASIZE PUSH2 0x2B7D JUMP JUMPDEST PUSH2 0x2BAA SWAP1 SWAP8 SWAP2 SWAP8 PUSH2 0x3733 JUMP JUMPDEST SWAP6 PUSH0 PUSH2 0x1D4E JUMP JUMPDEST POP CALLVALUE PUSH2 0x2F9 JUMPI DUP1 PUSH1 0x3 NOT CALLDATASIZE ADD SLT PUSH2 0x2F9 JUMPI PUSH2 0x2BCA PUSH2 0x3708 JUMP JUMPDEST PUSH2 0x2BD2 PUSH2 0x395F JUMP JUMPDEST PUSH1 0x1 PUSH1 0xFF NOT PUSH1 0x2 SLOAD AND OR PUSH1 0x2 SSTORE PUSH32 0x62E78CEA01BEE320CD4E420270B5EA74000D11B0C9F74754EBDBFC544B05A258 PUSH1 0x20 PUSH1 0x40 MLOAD CALLER DUP2 MSTORE LOG1 DUP1 RETURN JUMPDEST POP CALLVALUE PUSH2 0x2F9 JUMPI DUP1 PUSH1 0x3 NOT CALLDATASIZE ADD SLT PUSH2 0x2F9 JUMPI PUSH1 0x20 PUSH1 0xC SLOAD PUSH1 0x40 MLOAD SWAP1 DUP2 MSTORE RETURN JUMPDEST POP CALLVALUE PUSH2 0x2F9 JUMPI PUSH1 0x20 DUP1 PUSH1 0x3 NOT CALLDATASIZE ADD SLT PUSH2 0x746 JUMPI PUSH1 0x2 SLOAD PUSH1 0x40 MLOAD PUSH4 0x32252057 PUSH1 0xE0 SHL DUP2 MSTORE SWAP3 PUSH1 0x4 DUP1 CALLDATALOAD SWAP4 SWAP2 SWAP3 DUP3 SWAP2 DUP7 SWAP2 DUP3 SWAP1 PUSH1 0x8 SHR PUSH1 0x1 PUSH1 0x1 PUSH1 0xA0 SHL SUB AND GAS STATICCALL SWAP4 DUP5 ISZERO PUSH2 0x595 JUMPI DUP3 SWAP5 PUSH2 0x2D8A JUMPI JUMPDEST POP DUP4 ISZERO PUSH2 0x2D50 JUMPI POP PUSH2 0x2C8D PUSH1 0x7 SLOAD DUP4 LT ISZERO PUSH2 0x3830 JUMP JUMPDEST PUSH2 0x2C9B PUSH1 0x8 SLOAD DUP4 GT ISZERO PUSH2 0x387C JUMP JUMPDEST DUP1 SWAP3 DUP2 SWAP3 DUP3 DUP1 JUMPDEST DUP4 DUP2 LT PUSH2 0x2CC6 JUMPI PUSH1 0x40 DUP1 MLOAD DUP8 DUP2 MSTORE PUSH1 0x20 DUP2 ADD DUP10 SWAP1 MSTORE DUP7 ISZERO ISZERO SWAP2 DUP2 ADD SWAP2 SWAP1 SWAP2 MSTORE PUSH1 0x60 SWAP1 RETURN JUMPDEST PUSH1 0x40 MLOAD PUSH4 0x9517ED85 PUSH1 0xE0 SHL DUP2 MSTORE DUP2 PUSH1 0x4 DUP3 ADD MSTORE DUP4 PUSH1 0x24 DUP3 ADD MSTORE PUSH1 0x40 DUP2 PUSH1 0x44 DUP2 DUP7 ADDRESS GAS CALL SWAP1 DUP2 DUP5 SWAP2 DUP6 SWAP4 PUSH2 0x2D2D JUMPI JUMPDEST POP PUSH2 0x2D09 JUMPI POP POP PUSH2 0x2D04 SWAP1 PUSH2 0x3934 JUMP JUMPDEST PUSH2 0x2CA2 JUMP JUMPDEST DUP9 DUP2 GT PUSH2 0x2D1C JUMPI JUMPDEST POP POP PUSH2 0x2D04 SWAP1 PUSH2 0x3934 JUMP JUMPDEST SWAP8 POP SWAP1 SWAP6 POP SWAP4 POP DUP5 PUSH2 0x2D04 PUSH0 PUSH2 0x2D11 JUMP JUMPDEST SWAP1 SWAP3 POP PUSH2 0x2D49 SWAP2 POP PUSH1 0x40 RETURNDATASIZE PUSH1 0x40 GT PUSH2 0x157D JUMPI PUSH2 0x156E DUP2 DUP4 PUSH2 0x3747 JUMP JUMPDEST SWAP2 PUSH0 PUSH2 0x2CF4 JUMP JUMPDEST PUSH1 0x64 SWAP1 PUSH1 0x40 MLOAD SWAP1 PUSH3 0x461BCD PUSH1 0xE5 SHL DUP3 MSTORE PUSH1 0x4 DUP3 ADD MSTORE PUSH1 0x13 PUSH1 0x24 DUP3 ADD MSTORE PUSH19 0x4E6F20726F7574657320617661696C61626C65 PUSH1 0x68 SHL PUSH1 0x44 DUP3 ADD MSTORE REVERT JUMPDEST SWAP1 DUP1 SWAP5 POP DUP2 DUP2 RETURNDATASIZE DUP4 GT PUSH2 0x2DB2 JUMPI JUMPDEST PUSH2 0x2DA2 DUP2 DUP4 PUSH2 0x3747 JUMP JUMPDEST DUP2 ADD SUB SLT PUSH2 0x71C JUMPI MLOAD SWAP3 PUSH0 PUSH2 0x2C77 JUMP JUMPDEST POP RETURNDATASIZE PUSH2 0x2D98 JUMP JUMPDEST POP CALLVALUE PUSH2 0x2F9 JUMPI DUP1 PUSH1 0x3 NOT CALLDATASIZE ADD SLT PUSH2 0x2F9 JUMPI PUSH2 0x2DD2 PUSH2 0x3708 JUMP JUMPDEST PUSH0 DUP1 SLOAD PUSH1 0x1 PUSH1 0x1 PUSH1 0xA0 SHL SUB NOT DUP2 AND DUP3 SSTORE PUSH1 0x1 PUSH1 0x1 PUSH1 0xA0 SHL SUB AND PUSH32 0x8BE0079C531659141344CD1FD0A4F28419497F9722A3DAAFE3B4186F6B6457E0 DUP3 DUP1 LOG3 DUP1 RETURN JUMPDEST POP CALLVALUE PUSH2 0x2F9 JUMPI DUP1 PUSH1 0x3 NOT CALLDATASIZE ADD SLT PUSH2 0x2F9 JUMPI PUSH1 0x20 SELFBALANCE PUSH1 0x40 MLOAD SWAP1 DUP2 MSTORE RETURN JUMPDEST POP CALLVALUE PUSH2 0x2F9 JUMPI DUP1 PUSH1 0x3 NOT CALLDATASIZE ADD SLT PUSH2 0x2F9 JUMPI PUSH1 0x20 PUSH1 0x7 SLOAD PUSH1 0x40 MLOAD SWAP1 DUP2 MSTORE RETURN JUMPDEST POP CALLVALUE PUSH2 0x2F9 JUMPI PUSH1 0x20 CALLDATASIZE PUSH1 0x3 NOT ADD SLT PUSH2 0x2F9 JUMPI PUSH0 DUP1 MLOAD PUSH1 0x20 PUSH2 0x3AAF DUP4 CODECOPY DUP2 MLOAD SWAP2 MSTORE PUSH1 0x4 CALLDATALOAD PUSH2 0x2E77 PUSH2 0x3708 JUMP JUMPDEST PUSH2 0x2E85 PUSH1 0x7 SLOAD DUP3 LT ISZERO PUSH2 0x3830 JUMP JUMPDEST PUSH2 0x2E93 PUSH1 0x8 SLOAD DUP3 GT ISZERO PUSH2 0x387C JUMP JUMPDEST PUSH1 0x3 DUP2 SWAP1 SSTORE PUSH1 0x4 SLOAD PUSH1 0x5 SLOAD PUSH1 0x6 SLOAD PUSH1 0x40 DUP1 MLOAD SWAP5 DUP6 MSTORE PUSH1 0x20 DUP6 ADD SWAP4 SWAP1 SWAP4 MSTORE SWAP2 DUP4 ADD MSTORE PUSH1 0x60 DUP3 ADD MSTORE DUP1 PUSH1 0x80 DUP2 ADD PUSH2 0x2B4 JUMP JUMPDEST POP CALLVALUE PUSH2 0x2F9 JUMPI DUP1 PUSH1 0x3 NOT CALLDATASIZE ADD SLT PUSH2 0x2F9 JUMPI PUSH1 0x20 PUSH1 0xFF PUSH1 0x2 SLOAD AND PUSH1 0x40 MLOAD SWAP1 ISZERO ISZERO DUP2 MSTORE RETURN JUMPDEST POP CALLVALUE PUSH2 0x2F9 JUMPI PUSH1 0x20 CALLDATASIZE PUSH1 0x3 NOT ADD SLT PUSH2 0x2F9 JUMPI PUSH0 DUP1 MLOAD PUSH1 0x20 PUSH2 0x3AAF DUP4 CODECOPY DUP2 MLOAD SWAP2 MSTORE PUSH1 0x4 CALLDATALOAD PUSH2 0x2F11 PUSH2 0x3708 JUMP JUMPDEST DUP1 PUSH1 0x6 SSTORE PUSH1 0x3 SLOAD PUSH2 0x2B4 PUSH1 0x4 SLOAD SWAP3 PUSH1 0x5 SLOAD PUSH1 0x40 MLOAD SWAP5 DUP6 SWAP5 DUP6 SWAP1 SWAP5 SWAP4 SWAP3 PUSH1 0x60 SWAP3 PUSH1 0x80 DUP4 ADD SWAP7 DUP4 MSTORE PUSH1 0x20 DUP4 ADD MSTORE PUSH1 0x40 DUP3 ADD MSTORE ADD MSTORE JUMP JUMPDEST POP CALLVALUE PUSH2 0x2F9 JUMPI DUP1 PUSH1 0x3 NOT CALLDATASIZE ADD SLT PUSH2 0x2F9 JUMPI PUSH1 0x20 PUSH1 0x4 SLOAD PUSH1 0x40 MLOAD SWAP1 DUP2 MSTORE RETURN JUMPDEST POP CALLVALUE PUSH2 0x2F9 JUMPI DUP1 PUSH1 0x3 NOT CALLDATASIZE ADD SLT PUSH2 0x2F9 JUMPI PUSH2 0x2F7C PUSH2 0x39A3 JUMP JUMPDEST PUSH2 0x2F84 PUSH2 0x3708 JUMP JUMPDEST PUSH1 0x2 SLOAD PUSH1 0x8 SHR PUSH1 0x1 PUSH1 0x1 PUSH1 0xA0 SHL SUB AND DUP1 EXTCODESIZE ISZERO PUSH2 0x746 JUMPI DUP2 PUSH1 0x40 MLOAD PUSH4 0x1BFC726F PUSH1 0xE2 SHL DUP2 MSTORE DUP2 DUP2 PUSH1 0x24 DUP2 DUP4 PUSH20 0xC02AAA39B223FE8D0A0E5C4F27EAD9083C756CC2 SWAP8 DUP9 PUSH1 0x4 DUP5 ADD MSTORE GAS CALL DUP1 ISZERO PUSH2 0x595 JUMPI PUSH2 0x732 JUMPI POP POP PUSH1 0x40 MLOAD PUSH4 0x70A08231 PUSH1 0xE0 SHL DUP2 MSTORE ADDRESS PUSH1 0x4 DUP3 ADD MSTORE SWAP1 PUSH1 0x20 DUP1 DUP4 PUSH1 0x24 DUP2 DUP6 GAS STATICCALL SWAP3 DUP4 ISZERO PUSH2 0x727 JUMPI DUP5 SWAP4 PUSH2 0x6F4 JUMPI POP DUP3 PUSH2 0x654 JUMPI DUP4 PUSH1 0x1 DUP1 SSTORE DUP1 RETURN JUMPDEST POP CALLVALUE PUSH2 0x2F9 JUMPI DUP1 PUSH1 0x3 NOT CALLDATASIZE ADD SLT PUSH2 0x2F9 JUMPI PUSH2 0x302A PUSH2 0x3708 JUMP JUMPDEST PUSH1 0x2 SLOAD PUSH1 0xFF DUP2 AND ISZERO PUSH2 0x306A JUMPI PUSH1 0xFF NOT AND PUSH1 0x2 SSTORE PUSH32 0x5DB9EE0A495BF2E6FF9C91A7834C1BA4FDD244A5E8AA4E537BD38AEAE4B073AA PUSH1 0x20 PUSH1 0x40 MLOAD CALLER DUP2 MSTORE LOG1 DUP1 RETURN JUMPDEST PUSH1 0x40 MLOAD PUSH3 0x461BCD PUSH1 0xE5 SHL DUP2 MSTORE PUSH1 0x20 PUSH1 0x4 DUP3 ADD MSTORE PUSH1 0x14 PUSH1 0x24 DUP3 ADD MSTORE PUSH20 0x14185D5CD8589B194E881B9BDD081C185D5CD959 PUSH1 0x62 SHL PUSH1 0x44 DUP3 ADD MSTORE PUSH1 0x64 SWAP1 REVERT JUMPDEST POP CALLVALUE PUSH2 0x2F9 JUMPI PUSH1 0x20 SWAP1 DUP2 PUSH1 0x3 NOT CALLDATASIZE ADD SLT PUSH2 0x2F9 JUMPI PUSH1 0x4 CALLDATALOAD PUSH1 0x1 PUSH1 0x1 PUSH1 0xA0 SHL SUB DUP2 AND SWAP1 DUP2 SWAP1 SUB PUSH2 0x746 JUMPI DUP3 PUSH1 0x24 SWAP2 PUSH1 0x40 MLOAD SWAP3 DUP4 DUP1 SWAP3 PUSH4 0x70A08231 PUSH1 0xE0 SHL DUP3 MSTORE ADDRESS PUSH1 0x4 DUP4 ADD MSTORE GAS STATICCALL SWAP2 DUP3 ISZERO PUSH2 0x1A5E JUMPI SWAP2 PUSH2 0x3102 JUMPI JUMPDEST POP PUSH1 0x40 MLOAD SWAP1 DUP2 MSTORE RETURN JUMPDEST SWAP1 POP DUP2 DUP2 DUP2 RETURNDATASIZE DUP4 GT PUSH2 0x3128 JUMPI JUMPDEST PUSH2 0x3119 DUP2 DUP4 PUSH2 0x3747 JUMP JUMPDEST DUP2 ADD SUB SLT PUSH2 0x71C JUMPI MLOAD PUSH0 PUSH2 0x30F9 JUMP JUMPDEST POP RETURNDATASIZE PUSH2 0x310F JUMP JUMPDEST POP CALLVALUE PUSH2 0x2F9 JUMPI DUP1 PUSH1 0x3 NOT CALLDATASIZE ADD SLT PUSH2 0x2F9 JUMPI PUSH1 0x20 PUSH1 0x9 SLOAD PUSH1 0x40 MLOAD SWAP1 DUP2 MSTORE RETURN JUMPDEST POP CALLVALUE PUSH2 0x2F9 JUMPI DUP1 PUSH1 0x3 NOT CALLDATASIZE ADD SLT PUSH2 0x2F9 JUMPI PUSH2 0x3166 PUSH2 0x39A3 JUMP JUMPDEST PUSH2 0x316E PUSH2 0x3708 JUMP JUMPDEST PUSH1 0x2 SLOAD PUSH1 0x8 SHR PUSH1 0x1 PUSH1 0x1 PUSH1 0xA0 SHL SUB AND DUP1 EXTCODESIZE ISZERO PUSH2 0x746 JUMPI DUP2 PUSH1 0x40 MLOAD PUSH4 0x1BFC726F PUSH1 0xE2 SHL DUP2 MSTORE DUP2 DUP2 PUSH1 0x24 DUP2 DUP4 PUSH20 0xDAC17F958D2EE523A2206206994597C13D831EC7 SWAP8 DUP9 PUSH1 0x4 DUP5 ADD MSTORE GAS CALL DUP1 ISZERO PUSH2 0x595 JUMPI PUSH2 0x732 JUMPI POP POP PUSH1 0x40 MLOAD PUSH4 0x70A08231 PUSH1 0xE0 SHL DUP2 MSTORE ADDRESS PUSH1 0x4 DUP3 ADD MSTORE SWAP1 PUSH1 0x20 DUP1 DUP4 PUSH1 0x24 DUP2 DUP6 GAS STATICCALL SWAP3 DUP4 ISZERO PUSH2 0x727 JUMPI DUP5 SWAP4 PUSH2 0x6F4 JUMPI POP DUP3 PUSH2 0x654 JUMPI DUP4 PUSH1 0x1 DUP1 SSTORE DUP1 RETURN JUMPDEST POP CALLVALUE PUSH2 0x2F9 JUMPI PUSH32 0xB332FF846A7F7E49C967D592CB8ECCCD56F3693AB85AF2F484AA5BFABCD2A57A PUSH2 0x322B CALLDATASIZE PUSH2 0x36B6 JUMP JUMPDEST PUSH2 0x3233 PUSH2 0x3708 JUMP JUMPDEST PUSH2 0x3241 PUSH2 0x2710 DUP4 GT ISZERO PUSH2 0x38C8 JUMP JUMPDEST PUSH1 0x9 DUP3 SWAP1 SSTORE PUSH1 0xA DUP2 SWAP1 SSTORE PUSH1 0x7 SLOAD PUSH1 0x8 SLOAD PUSH1 0x40 DUP1 MLOAD SWAP3 DUP4 MSTORE PUSH1 0x20 DUP4 ADD SWAP2 SWAP1 SWAP2 MSTORE DUP2 ADD SWAP3 SWAP1 SWAP3 MSTORE PUSH1 0x60 DUP3 ADD MSTORE DUP1 PUSH1 0x80 DUP2 ADD PUSH2 0x2B4 JUMP JUMPDEST POP CALLVALUE PUSH2 0x2F9 JUMPI DUP1 PUSH1 0x3 NOT CALLDATASIZE ADD SLT PUSH2 0x2F9 JUMPI PUSH1 0x20 PUSH1 0xD SLOAD PUSH1 0x40 MLOAD SWAP1 DUP2 MSTORE RETURN JUMPDEST POP CALLVALUE PUSH2 0x2F9 JUMPI PUSH1 0x20 CALLDATASIZE PUSH1 0x3 NOT ADD SLT PUSH2 0x2F9 JUMPI PUSH1 0x4 CALLDATALOAD PUSH2 0x32B0 PUSH2 0x3708 JUMP JUMPDEST DUP1 ISZERO PUSH2 0x333D JUMPI PUSH2 0x3E8 DUP2 GT PUSH2 0x3302 JUMPI DUP1 PUSH0 DUP1 MLOAD PUSH1 0x20 PUSH2 0x3AAF DUP4 CODECOPY DUP2 MLOAD SWAP2 MSTORE SWAP2 PUSH1 0x4 SSTORE PUSH1 0x3 SLOAD PUSH2 0x2B4 PUSH1 0x5 SLOAD PUSH1 0x6 SLOAD SWAP1 PUSH1 0x40 MLOAD SWAP5 DUP6 SWAP5 DUP6 SWAP1 SWAP5 SWAP4 SWAP3 PUSH1 0x60 SWAP3 PUSH1 0x80 DUP4 ADD SWAP7 DUP4 MSTORE PUSH1 0x20 DUP4 ADD MSTORE PUSH1 0x40 DUP3 ADD MSTORE ADD MSTORE JUMP JUMPDEST PUSH1 0x40 MLOAD PUSH3 0x461BCD PUSH1 0xE5 SHL DUP2 MSTORE PUSH1 0x20 PUSH1 0x4 DUP3 ADD MSTORE PUSH1 0x13 PUSH1 0x24 DUP3 ADD MSTORE PUSH19 0x5072656D69756D206578636565647320313025 PUSH1 0x68 SHL PUSH1 0x44 DUP3 ADD MSTORE PUSH1 0x64 SWAP1 REVERT JUMPDEST PUSH1 0x40 MLOAD PUSH3 0x461BCD PUSH1 0xE5 SHL DUP2 MSTORE PUSH1 0x20 PUSH1 0x4 DUP3 ADD MSTORE PUSH1 0x18 PUSH1 0x24 DUP3 ADD MSTORE PUSH32 0x5072656D69756D206D75737420626520706F7369746976650000000000000000 PUSH1 0x44 DUP3 ADD MSTORE PUSH1 0x64 SWAP1 REVERT JUMPDEST POP CALLVALUE PUSH2 0x2F9 JUMPI PUSH1 0x20 SWAP1 DUP2 PUSH1 0x3 NOT CALLDATASIZE ADD SLT PUSH2 0x2F9 JUMPI PUSH1 0x4 CALLDATALOAD PUSH2 0x33A1 PUSH2 0x39A3 JUMP JUMPDEST PUSH2 0x33A9 PUSH2 0x395F JUMP JUMPDEST PUSH2 0x33B1 PUSH2 0x3708 JUMP JUMPDEST PUSH2 0x33BF PUSH1 0x7 SLOAD DUP3 LT ISZERO PUSH2 0x3830 JUMP JUMPDEST PUSH2 0x33CD PUSH1 0x8 SLOAD DUP3 GT ISZERO PUSH2 0x387C JUMP JUMPDEST PUSH1 0xFF PUSH1 0xB SLOAD AND PUSH2 0x3590 JUMPI JUMPDEST PUSH1 0x40 MLOAD PUSH4 0x716AD825 PUSH1 0xE0 SHL DUP2 MSTORE PUSH1 0x4 DUP2 ADD DUP3 SWAP1 MSTORE SWAP1 PUSH1 0x60 DUP3 PUSH1 0x24 DUP2 DUP7 ADDRESS GAS CALL SWAP2 DUP3 ISZERO PUSH2 0x1BFC JUMPI DUP4 SWAP3 DUP5 SWAP2 DUP6 SWAP2 PUSH2 0x3549 JUMPI JUMPDEST POP ISZERO PUSH2 0x3508 JUMPI DUP3 PUSH32 0x99A04D4BD50085149E64DC7B09CD3BF736A5A4B19F85D58EA535527917C3B2AE PUSH1 0x40 DUP1 MLOAD DUP5 DUP2 MSTORE DUP6 DUP10 DUP3 ADD MSTORE LOG2 PUSH1 0x2 SLOAD PUSH1 0x8 SHR PUSH1 0x1 PUSH1 0x1 PUSH1 0xA0 SHL SUB AND DUP1 EXTCODESIZE ISZERO PUSH2 0x6DE JUMPI DUP5 DUP1 DUP1 SWAP3 PUSH1 0x84 PUSH1 0x40 MLOAD DUP1 SWAP6 DUP2 SWAP4 PUSH4 0xEA62CB5 PUSH1 0xE0 SHL DUP4 MSTORE PUSH20 0xC02AAA39B223FE8D0A0E5C4F27EAD9083C756CC2 PUSH1 0x4 DUP5 ADD MSTORE DUP10 PUSH1 0x24 DUP5 ADD MSTORE DUP11 PUSH1 0x44 DUP5 ADD MSTORE DUP2 PUSH1 0x64 DUP5 ADD MSTORE GAS CALL SWAP2 DUP3 PUSH2 0x34F4 JUMPI JUMPDEST POP POP PUSH2 0x34B7 JUMPI POP POP POP PUSH1 0x1 DUP1 SSTORE PUSH1 0x40 MLOAD SWAP1 ISZERO ISZERO DUP2 MSTORE RETURN JUMPDEST PUSH32 0x9F51370FE0EED8407B751449F0BF9AE3F5667F007A2AB895D820DA7E2983EBAB SWAP3 SWAP4 POP SWAP1 PUSH1 0x40 SWAP2 TIMESTAMP PUSH1 0xC SSTORE DUP3 MLOAD SWAP2 DUP3 MSTORE DUP6 DUP3 ADD MSTORE LOG2 PUSH1 0x1 PUSH2 0xC50 JUMP JUMPDEST PUSH2 0x34FD SWAP1 PUSH2 0x3733 JUMP JUMPDEST PUSH2 0x6DE JUMPI DUP5 PUSH0 PUSH2 0x34A0 JUMP JUMPDEST PUSH1 0x40 MLOAD PUSH3 0x461BCD PUSH1 0xE5 SHL DUP2 MSTORE PUSH1 0x4 DUP2 ADD DUP7 SWAP1 MSTORE PUSH1 0x19 PUSH1 0x24 DUP3 ADD MSTORE PUSH25 0x139BC81C1C9BD99A5D18589B19481C9BDD5D1948199BDD5B99 PUSH1 0x3A SHL PUSH1 0x44 DUP3 ADD MSTORE PUSH1 0x64 SWAP1 REVERT JUMPDEST SWAP4 POP POP POP PUSH1 0x60 DUP3 RETURNDATASIZE DUP3 GT PUSH2 0x3588 JUMPI JUMPDEST DUP2 PUSH2 0x3565 PUSH1 0x60 SWAP4 DUP4 PUSH2 0x3747 JUMP JUMPDEST DUP2 ADD SUB SLT PUSH2 0x3F9 JUMPI DUP2 MLOAD PUSH2 0x357F PUSH1 0x40 DUP7 DUP6 ADD MLOAD SWAP5 ADD PUSH2 0x391A JUMP JUMPDEST SWAP1 SWAP3 SWAP1 PUSH0 PUSH2 0x3409 JUMP JUMPDEST RETURNDATASIZE SWAP2 POP PUSH2 0x3558 JUMP JUMPDEST PUSH1 0xC SLOAD PUSH1 0xD SLOAD DUP2 ADD DUP1 SWAP2 GT PUSH2 0x35E4 JUMPI TIMESTAMP LT ISZERO PUSH2 0x33D8 JUMPI PUSH1 0x40 MLOAD PUSH3 0x461BCD PUSH1 0xE5 SHL DUP2 MSTORE PUSH1 0x4 DUP2 ADD DUP5 SWAP1 MSTORE PUSH1 0x16 PUSH1 0x24 DUP3 ADD MSTORE PUSH22 0x436F6F6C646F776E20706572696F6420616374697665 PUSH1 0x50 SHL PUSH1 0x44 DUP3 ADD MSTORE PUSH1 0x64 SWAP1 REVERT JUMPDEST PUSH4 0x4E487B71 PUSH1 0xE0 SHL DUP4 MSTORE PUSH1 0x11 PUSH1 0x4 MSTORE PUSH1 0x24 DUP4 REVERT JUMPDEST POP CALLVALUE PUSH2 0x2F9 JUMPI DUP1 PUSH1 0x3 NOT CALLDATASIZE ADD SLT PUSH2 0x2F9 JUMPI PUSH2 0x3611 PUSH2 0x39A3 JUMP JUMPDEST PUSH2 0x3619 PUSH2 0x3708 JUMP JUMPDEST PUSH1 0x2 SLOAD PUSH1 0x8 SHR PUSH1 0x1 PUSH1 0x1 PUSH1 0xA0 SHL SUB AND SWAP1 DUP2 EXTCODESIZE ISZERO PUSH2 0x2F9 JUMPI PUSH1 0x40 MLOAD PUSH4 0x1BFC726F PUSH1 0xE2 SHL DUP2 MSTORE DUP2 DUP2 PUSH1 0x24 DUP2 DUP4 PUSH20 0x6B175474E89094C44DA98B954EEDEAC495271D0F SWAP8 DUP9 PUSH1 0x4 DUP5 ADD MSTORE GAS CALL DUP1 ISZERO PUSH2 0x595 JUMPI PUSH2 0x36A7 JUMPI JUMPDEST POP PUSH1 0x40 MLOAD PUSH4 0x70A08231 PUSH1 0xE0 SHL DUP2 MSTORE ADDRESS PUSH1 0x4 DUP3 ADD MSTORE SWAP1 SWAP2 PUSH1 0x20 DUP1 DUP4 PUSH1 0x24 DUP2 DUP6 GAS STATICCALL SWAP3 DUP4 ISZERO PUSH2 0x727 JUMPI DUP5 SWAP4 PUSH2 0x6F4 JUMPI POP DUP3 PUSH2 0x654 JUMPI DUP4 PUSH1 0x1 DUP1 SSTORE DUP1 RETURN JUMPDEST PUSH2 0x36B0 SWAP1 PUSH2 0x3733 JUMP JUMPDEST PUSH0 PUSH2 0x366C JUMP JUMPDEST PUSH1 0x40 SWAP1 PUSH1 0x3 NOT ADD SLT PUSH2 0x71C JUMPI PUSH1 0x4 CALLDATALOAD SWAP1 PUSH1 0x24 CALLDATALOAD SWAP1 JUMP JUMPDEST SWAP1 DUP2 MLOAD DUP1 DUP3 MSTORE PUSH1 0x20 DUP1 DUP1 SWAP4 ADD SWAP4 ADD SWAP2 PUSH0 JUMPDEST DUP3 DUP2 LT PUSH2 0x36EB JUMPI POP POP POP POP SWAP1 JUMP JUMPDEST DUP4 MLOAD PUSH1 0x1 PUSH1 0x1 PUSH1 0xA0 SHL SUB AND DUP6 MSTORE SWAP4 DUP2 ADD SWAP4 SWAP3 DUP2 ADD SWAP3 PUSH1 0x1 ADD PUSH2 0x36DD JUMP JUMPDEST PUSH0 SLOAD PUSH1 0x1 PUSH1 0x1 PUSH1 0xA0 SHL SUB AND CALLER SUB PUSH2 0x371B JUMPI JUMP JUMPDEST PUSH1 0x40 MLOAD PUSH4 0x118CDAA7 PUSH1 0xE0 SHL DUP2 MSTORE CALLER PUSH1 0x4 DUP3 ADD MSTORE PUSH1 0x24 SWAP1 REVERT JUMPDEST PUSH8 0xFFFFFFFFFFFFFFFF DUP2 GT PUSH2 0xA84 JUMPI PUSH1 0x40 MSTORE JUMP JUMPDEST SWAP1 PUSH1 0x1F DUP1 NOT SWAP2 ADD AND DUP2 ADD SWAP1 DUP2 LT PUSH8 0xFFFFFFFFFFFFFFFF DUP3 GT OR PUSH2 0xA84 JUMPI PUSH1 0x40 MSTORE JUMP JUMPDEST MLOAD SWAP1 PUSH10 0xFFFFFFFFFFFFFFFFFFFF DUP3 AND DUP3 SUB PUSH2 0x71C JUMPI JUMP JUMPDEST PUSH1 0x4 DUP2 LT ISZERO PUSH2 0x381C JUMPI DUP1 PUSH2 0x37A7 JUMPI POP PUSH20 0xA0B86991C6218B36C1D19D4A2E9EB0CE3606EB48 SWAP1 JUMP JUMPDEST PUSH1 0x1 DUP2 SUB PUSH2 0x37C8 JUMPI POP PUSH20 0x833589FCD6EDB6E08F4C7C32D4F71B54BDA02913 SWAP1 JUMP JUMPDEST PUSH1 0x2 EQ PUSH2 0x3804 JUMPI PUSH1 0x40 MLOAD PUSH3 0x461BCD PUSH1 0xE5 SHL DUP2 MSTORE PUSH1 0x20 PUSH1 0x4 DUP3 ADD MSTORE PUSH1 0xD PUSH1 0x24 DUP3 ADD MSTORE PUSH13 0x24B73B30B634B21031B430B4B7 PUSH1 0x99 SHL PUSH1 0x44 DUP3 ADD MSTORE PUSH1 0x64 SWAP1 REVERT JUMPDEST PUSH20 0xFD086BC7CD5C481DCC9C85EBE478A1C0B69FCBB9 SWAP1 JUMP JUMPDEST PUSH4 0x4E487B71 PUSH1 0xE0 SHL PUSH0 MSTORE PUSH1 0x21 PUSH1 0x4 MSTORE PUSH1 0x24 PUSH0 REVERT JUMPDEST ISZERO PUSH2 0x3837 JUMPI JUMP JUMPDEST PUSH1 0x40 MLOAD PUSH3 0x461BCD PUSH1 0xE5 SHL DUP2 MSTORE PUSH1 0x20 PUSH1 0x4 DUP3 ADD MSTORE PUSH1 0x18 PUSH1 0x24 DUP3 ADD MSTORE PUSH32 0x42656C6F77206D696E696D756D20666C617368206C6F616E0000000000000000 PUSH1 0x44 DUP3 ADD MSTORE PUSH1 0x64 SWAP1 REVERT JUMPDEST ISZERO PUSH2 0x3883 JUMPI JUMP JUMPDEST PUSH1 0x40 MLOAD PUSH3 0x461BCD PUSH1 0xE5 SHL DUP2 MSTORE PUSH1 0x20 PUSH1 0x4 DUP3 ADD MSTORE PUSH1 0x1A PUSH1 0x24 DUP3 ADD MSTORE PUSH32 0x45786365656473206D6178696D756D20666C617368206C6F616E000000000000 PUSH1 0x44 DUP3 ADD MSTORE PUSH1 0x64 SWAP1 REVERT JUMPDEST ISZERO PUSH2 0x38CF JUMPI JUMP JUMPDEST PUSH1 0x40 MLOAD PUSH3 0x461BCD PUSH1 0xE5 SHL DUP2 MSTORE PUSH1 0x20 PUSH1 0x4 DUP3 ADD MSTORE PUSH1 0xB PUSH1 0x24 DUP3 ADD MSTORE PUSH11 0x496E76616C696420425053 PUSH1 0xA8 SHL PUSH1 0x44 DUP3 ADD MSTORE PUSH1 0x64 SWAP1 REVERT JUMPDEST PUSH8 0xFFFFFFFFFFFFFFFF DUP2 GT PUSH2 0xA84 JUMPI PUSH1 0x5 SHL PUSH1 0x20 ADD SWAP1 JUMP JUMPDEST MLOAD SWAP1 DUP2 ISZERO ISZERO DUP3 SUB PUSH2 0x71C JUMPI JUMP JUMPDEST SWAP1 PUSH1 0x2 DUP3 LT ISZERO PUSH2 0x381C JUMPI MSTORE JUMP JUMPDEST PUSH0 NOT DUP2 EQ PUSH2 0xF1A JUMPI PUSH1 0x1 ADD SWAP1 JUMP JUMPDEST SWAP2 SWAP1 DUP3 PUSH1 0x40 SWAP2 SUB SLT PUSH2 0x71C JUMPI PUSH2 0x395C PUSH1 0x20 DUP4 MLOAD SWAP4 ADD PUSH2 0x391A JUMP JUMPDEST SWAP1 JUMP JUMPDEST PUSH1 0xFF PUSH1 0x2 SLOAD AND PUSH2 0x396B JUMPI JUMP JUMPDEST PUSH1 0x40 MLOAD PUSH3 0x461BCD PUSH1 0xE5 SHL DUP2 MSTORE PUSH1 0x20 PUSH1 0x4 DUP3 ADD MSTORE PUSH1 0x10 PUSH1 0x24 DUP3 ADD MSTORE PUSH16 0x14185D5CD8589B194E881C185D5CD959 PUSH1 0x82 SHL PUSH1 0x44 DUP3 ADD MSTORE PUSH1 0x64 SWAP1 REVERT JUMPDEST PUSH1 0x2 PUSH1 0x1 SLOAD EQ PUSH2 0x39B4 JUMPI PUSH1 0x2 PUSH1 0x1 SSTORE JUMP JUMPDEST PUSH1 0x40 MLOAD PUSH3 0x461BCD PUSH1 0xE5 SHL DUP2 MSTORE PUSH1 0x20 PUSH1 0x4 DUP3 ADD MSTORE PUSH1 0x1F PUSH1 0x24 DUP3 ADD MSTORE PUSH32 0x5265656E7472616E637947756172643A207265656E7472616E742063616C6C00 PUSH1 0x44 DUP3 ADD MSTORE PUSH1 0x64 SWAP1 REVERT JUMPDEST DUP1 MLOAD DUP3 LT ISZERO PUSH2 0xA70 JUMPI PUSH1 0x20 SWAP2 PUSH1 0x5 SHL ADD ADD SWAP1 JUMP JUMPDEST RETURNDATASIZE ISZERO PUSH2 0x3A47 JUMPI RETURNDATASIZE SWAP1 PUSH8 0xFFFFFFFFFFFFFFFF DUP3 GT PUSH2 0xA84 JUMPI PUSH1 0x40 MLOAD SWAP2 PUSH2 0x3A3C PUSH1 0x1F DUP3 ADD PUSH1 0x1F NOT AND PUSH1 0x20 ADD DUP5 PUSH2 0x3747 JUMP JUMPDEST DUP3 MSTORE RETURNDATASIZE PUSH0 PUSH1 0x20 DUP5 ADD RETURNDATACOPY JUMP JUMPDEST PUSH1 0x60 SWAP1 JUMP JUMPDEST ISZERO PUSH2 0x3A53 JUMPI JUMP JUMPDEST PUSH1 0x40 MLOAD PUSH3 0x461BCD PUSH1 0xE5 SHL DUP2 MSTORE PUSH1 0x20 PUSH1 0x4 DUP3 ADD MSTORE PUSH1 0x13 PUSH1 0x24 DUP3 ADD MSTORE PUSH19 0x115512081D1C985B9CD9995C8819985A5B1959 PUSH1 0x6A SHL PUSH1 0x44 DUP3 ADD MSTORE PUSH1 0x64 SWAP1 REVERT INVALID 0xE6 INVALID 0xE2 0x21 0xBB DUP11 DUP6 SELFBALANCE PUSH2 0x4E6 0xB6 PUSH27 0xE7B66010866C78F60F8CE4946F80DA6CE04DF0E80AE431014C3CF3 0xF6 SWAP12 0xD7 SWAP10 RETURNDATACOPY 0xBC 0xF6 0xE5 0xB6 0xAE 0xE4 PUSH5 0xFD4152BB7F PUSH20 0xCA4F812B9D0A26469706673582212204AF50CEB 0xB8 0xC2 0xE5 0xC4 PUSH0 SWAP13 AND 0x5C DUP5 0x27 SWAP16 DUP4 ISZERO GT 0x1E 0x24 0xE3 0xD9 0xBB 0xEC MOD SMOD 0xCC SWAP14 0xBD DUP11 CODESIZE 0xC9 PUSH5 0x736F6C6343 STOP ADDMOD EQ STOP CALLER "
				},
				"gasEstimates": {
					"creation": {
						"codeDepositCost": "3021600",
						"executionCost": "298653",
						"totalCost": "3320253"
					},
					"external": {
						"analyzeAllRoutes(uint256)": "infinite",
						"analyzeRoute(uint256,uint256)": "infinite",
						"arbExec()": "3277",
						"autoExecute()": "2926",
						"calculatePremiumAmount()": "5040",
						"executeOptimalArbitrage(uint256)": "infinite",
						"executeOptimalArbitrageWithUserParams()": "infinite",
						"executionCooldown()": "2320",
						"findOptimalRoute(uint256)": "infinite",
						"getAllBalances()": "infinite",
						"getAllUSDCAddresses()": "1155",
						"getArbExecAddress()": "833",
						"getETHBalance()": "486",
						"getSupportedTokens()": "infinite",
						"getTokenBalance(address)": "infinite",
						"getUSDCAddressByChain(uint8)": "1305",
						"getUserParameters()": "9459",
						"getWETHAddress()": "855",
						"getWethValueInUsd()": "infinite",
						"lastExecutionTime()": "2650",
						"maxFlashLoanAmount()": "2848",
						"minFlashLoanAmount()": "2562",
						"minProfitAmount()": "3068",
						"minProfitBpsThreshold()": "2386",
						"owner()": "2781",
						"pause()": "30109",
						"paused()": "2530",
						"renounceOwnership()": "28403",
						"setAutoExecute(bool)": "27282",
						"setExecutionCooldown(uint256)": "25061",
						"setFlashLoanAmount(uint256)": "infinite",
						"setFlashLoanLimits(uint256,uint256)": "53754",
						"setFlashLoanPremium(uint256)": "infinite",
						"setMinProfitThresholds(uint256,uint256)": "52792",
						"setUserMinProfitAmount(uint256)": "infinite",
						"setUserMinProfitBps(uint256)": "infinite",
						"transferOwnership(address)": "29114",
						"unpause()": "27740",
						"userFlashLoanAmount()": "2804",
						"userMinProfitAmount()": "3002",
						"userMinProfitBps()": "3046",
						"userPremiumPercentage()": "2474",
						"withdrawAll()": "infinite",
						"withdrawDAI()": "infinite",
						"withdrawETH()": "infinite",
						"withdrawToken(address)": "infinite",
						"withdrawUSDC()": "infinite",
						"withdrawUSDT()": "infinite",
						"withdrawWETH()": "infinite"
					},
					"internal": {
						"_safeWithdraw(address)": "infinite"
					}
				},
				"methodIdentifiers": {
					"analyzeAllRoutes(uint256)": "8f40f0a6",
					"analyzeRoute(uint256,uint256)": "9517ed85",
					"arbExec()": "e6419b3f",
					"autoExecute()": "a911f736",
					"calculatePremiumAmount()": "a3708744",
					"executeOptimalArbitrage(uint256)": "0af95101",
					"executeOptimalArbitrageWithUserParams()": "baf22721",
					"executionCooldown()": "2e610fb8",
					"findOptimalRoute(uint256)": "716ad825",
					"getAllBalances()": "867e7c27",
					"getAllUSDCAddresses()": "e61d98c5",
					"getArbExecAddress()": "ad3707d4",
					"getETHBalance()": "6e947298",
					"getSupportedTokens()": "d3c7c2c7",
					"getTokenBalance(address)": "3aecd0e3",
					"getUSDCAddressByChain(uint8)": "e2a594b6",
					"getUserParameters()": "d2d43111",
					"getWETHAddress()": "affa8817",
					"getWethValueInUsd()": "d7b3a397",
					"lastExecutionTime()": "73b379bd",
					"maxFlashLoanAmount()": "a140edb4",
					"minFlashLoanAmount()": "6b9c189f",
					"minProfitAmount()": "cf224d07",
					"minProfitBpsThreshold()": "38fa84f8",
					"owner()": "8da5cb5b",
					"pause()": "8456cb59",
					"paused()": "5c975abb",
					"renounceOwnership()": "715018a6",
					"setAutoExecute(bool)": "b4804ce7",
					"setExecutionCooldown(uint256)": "a6b8ec96",
					"setFlashLoanAmount(uint256)": "66e5b5c5",
					"setFlashLoanLimits(uint256,uint256)": "f7d5e663",
					"setFlashLoanPremium(uint256)": "1da9e7bb",
					"setMinProfitThresholds(uint256,uint256)": "315b41ce",
					"setUserMinProfitAmount(uint256)": "55ce344a",
					"setUserMinProfitBps(uint256)": "f4d2832d",
					"transferOwnership(address)": "f2fde38b",
					"unpause()": "3f4ba83a",
					"userFlashLoanAmount()": "90324b58",
					"userMinProfitAmount()": "b75844d6",
					"userMinProfitBps()": "ccdc7057",
					"userPremiumPercentage()": "55cabd90",
					"withdrawAll()": "853828b6",
					"withdrawDAI()": "020bcc9e",
					"withdrawETH()": "e086e5ec",
					"withdrawToken(address)": "89476069",
					"withdrawUSDC()": "d8fc063d",
					"withdrawUSDT()": "362e496b",
					"withdrawWETH()": "4c02f62e"
				}
			},
			"storageLayout": {
				"storage": [
					{
						"astId": 54,
						"contract": "contracts/ArbOptV2.sol:ArbOptimizer",
						"label": "_owner",
						"offset": 0,
						"slot": "0",
						"type": "t_address"
					},
					{
						"astId": 312,
						"contract": "contracts/ArbOptV2.sol:ArbOptimizer",
						"label": "_status",
						"offset": 0,
						"slot": "1",
						"type": "t_uint256"
					},
					{
						"astId": 211,
						"contract": "contracts/ArbOptV2.sol:ArbOptimizer",
						"label": "_paused",
						"offset": 0,
						"slot": "2",
						"type": "t_bool"
					},
					{
						"astId": 762,
						"contract": "contracts/ArbOptV2.sol:ArbOptimizer",
						"label": "arbExec",
						"offset": 1,
						"slot": "2",
						"type": "t_contract(IArbExec)580"
					},
					{
						"astId": 765,
						"contract": "contracts/ArbOptV2.sol:ArbOptimizer",
						"label": "userFlashLoanAmount",
						"offset": 0,
						"slot": "3",
						"type": "t_uint256"
					},
					{
						"astId": 768,
						"contract": "contracts/ArbOptV2.sol:ArbOptimizer",
						"label": "userPremiumPercentage",
						"offset": 0,
						"slot": "4",
						"type": "t_uint256"
					},
					{
						"astId": 771,
						"contract": "contracts/ArbOptV2.sol:ArbOptimizer",
						"label": "userMinProfitBps",
						"offset": 0,
						"slot": "5",
						"type": "t_uint256"
					},
					{
						"astId": 774,
						"contract": "contracts/ArbOptV2.sol:ArbOptimizer",
						"label": "userMinProfitAmount",
						"offset": 0,
						"slot": "6",
						"type": "t_uint256"
					},
					{
						"astId": 777,
						"contract": "contracts/ArbOptV2.sol:ArbOptimizer",
						"label": "minFlashLoanAmount",
						"offset": 0,
						"slot": "7",
						"type": "t_uint256"
					},
					{
						"astId": 780,
						"contract": "contracts/ArbOptV2.sol:ArbOptimizer",
						"label": "maxFlashLoanAmount",
						"offset": 0,
						"slot": "8",
						"type": "t_uint256"
					},
					{
						"astId": 783,
						"contract": "contracts/ArbOptV2.sol:ArbOptimizer",
						"label": "minProfitBpsThreshold",
						"offset": 0,
						"slot": "9",
						"type": "t_uint256"
					},
					{
						"astId": 786,
						"contract": "contracts/ArbOptV2.sol:ArbOptimizer",
						"label": "minProfitAmount",
						"offset": 0,
						"slot": "10",
						"type": "t_uint256"
					},
					{
						"astId": 789,
						"contract": "contracts/ArbOptV2.sol:ArbOptimizer",
						"label": "autoExecute",
						"offset": 0,
						"slot": "11",
						"type": "t_bool"
					},
					{
						"astId": 791,
						"contract": "contracts/ArbOptV2.sol:ArbOptimizer",
						"label": "lastExecutionTime",
						"offset": 0,
						"slot": "12",
						"type": "t_uint256"
					},
					{
						"astId": 794,
						"contract": "contracts/ArbOptV2.sol:ArbOptimizer",
						"label": "executionCooldown",
						"offset": 0,
						"slot": "13",
						"type": "t_uint256"
					}
				],
				"types": {
					"t_address": {
						"encoding": "inplace",
						"label": "address",
						"numberOfBytes": "20"
					},
					"t_bool": {
						"encoding": "inplace",
						"label": "bool",
						"numberOfBytes": "1"
					},
					"t_contract(IArbExec)580": {
						"encoding": "inplace",
						"label": "contract IArbExec",
						"numberOfBytes": "20"
					},
					"t_uint256": {
						"encoding": "inplace",
						"label": "uint256",
						"numberOfBytes": "32"
					}
				}
			},
			"userdoc": {
				"kind": "user",
				"methods": {
					"analyzeAllRoutes(uint256)": {
						"notice": "Analyze all routes and return profitability data"
					},
					"analyzeRoute(uint256,uint256)": {
						"notice": "Analyze a single route for profitability"
					},
					"calculatePremiumAmount()": {
						"notice": "Calculate actual premium amount from percentage"
					},
					"executeOptimalArbitrage(uint256)": {
						"notice": "Execute arbitrage on the optimal route"
					},
					"executeOptimalArbitrageWithUserParams()": {
						"notice": "Execute arbitrage on the optimal route using user parameters"
					},
					"findOptimalRoute(uint256)": {
						"notice": "Find the most profitable route across all available routes"
					},
					"getAllBalances()": {
						"notice": "Get all balances"
					},
					"getAllUSDCAddresses()": {
						"notice": "Get all USDC addresses across chains"
					},
					"getArbExecAddress()": {
						"notice": "Get ArbExec contract address"
					},
					"getETHBalance()": {
						"notice": "Get ETH balance in this contract"
					},
					"getSupportedTokens()": {
						"notice": "Get all supported token addresses"
					},
					"getTokenBalance(address)": {
						"notice": "Get token balance in this contract"
					},
					"getUSDCAddressByChain(uint8)": {
						"notice": "Get USDC address for a specific chain"
					},
					"getUserParameters()": {
						"notice": "Get current user parameters"
					},
					"getWETHAddress()": {
						"notice": "Get WETH address"
					},
					"getWethValueInUsd()": {
						"notice": "Fetches the current USD value of 100 WETH using Chainlink"
					},
					"pause()": {
						"notice": "Pause contract operations"
					},
					"setAutoExecute(bool)": {
						"notice": "Toggle auto-execution mode"
					},
					"setExecutionCooldown(uint256)": {
						"notice": "Set execution cooldown period"
					},
					"setFlashLoanAmount(uint256)": {
						"notice": "Set flash loan amount (in wei)"
					},
					"setFlashLoanLimits(uint256,uint256)": {
						"notice": "Update flash loan amount limits"
					},
					"setFlashLoanPremium(uint256)": {
						"notice": "Set flash loan premium as percentage (e.g., 0.09 for 0.09%)"
					},
					"setMinProfitThresholds(uint256,uint256)": {
						"notice": "Update minimum profit thresholds"
					},
					"setUserMinProfitAmount(uint256)": {
						"notice": "Set minimum profit threshold in absolute amount"
					},
					"setUserMinProfitBps(uint256)": {
						"notice": "Set minimum profit threshold in basis points"
					},
					"unpause()": {
						"notice": "Unpause contract operations"
					},
					"withdrawAll()": {
						"notice": "Withdraw all available profits"
					},
					"withdrawDAI()": {
						"notice": "Withdraw DAI profits"
					},
					"withdrawETH()": {
						"notice": "Withdraw ETH profits"
					},
					"withdrawToken(address)": {
						"notice": "Withdraw any token profits"
					},
					"withdrawUSDC()": {
						"notice": "Withdraw USDC profits"
					},
					"withdrawUSDT()": {
						"notice": "Withdraw USDT profits"
					},
					"withdrawWETH()": {
						"notice": "Withdraw WETH profits"
					}
				},
				"version": 1
			}
		}
	}
}