{
	"contracts/src/ArbitrageAnalyzer.sol": {
		"ArbitrageAnalyzer": {
			"abi": [
				{
					"inputs": [],
					"name": "ArrayLengthMismatch",
					"type": "error"
				},
				{
					"inputs": [],
					"name": "DivisionByZero",
					"type": "error"
				},
				{
					"inputs": [],
					"name": "InsufficientData",
					"type": "error"
				},
				{
					"inputs": [],
					"name": "InvalidInput",
					"type": "error"
				},
				{
					"inputs": [],
					"name": "InvalidPriceFeed",
					"type": "error"
				},
				{
					"inputs": [],
					"name": "InvalidTokenAddress",
					"type": "error"
				},
				{
					"anonymous": false,
					"inputs": [
						{
							"indexed": true,
							"internalType": "uint256",
							"name": "tradeCount",
							"type": "uint256"
						},
						{
							"indexed": false,
							"internalType": "uint256",
							"name": "meanProfit",
							"type": "uint256"
						},
						{
							"indexed": false,
							"internalType": "uint256",
							"name": "successRate",
							"type": "uint256"
						}
					],
					"name": "AnalysisPerformed",
					"type": "event"
				},
				{
					"anonymous": false,
					"inputs": [
						{
							"indexed": false,
							"internalType": "uint256",
							"name": "scenarioCount",
							"type": "uint256"
						},
						{
							"indexed": false,
							"internalType": "uint256",
							"name": "bestRoi",
							"type": "uint256"
						}
					],
					"name": "BacktestCompleted",
					"type": "event"
				},
				{
					"anonymous": false,
					"inputs": [
						{
							"indexed": false,
							"internalType": "uint256",
							"name": "minProfitBps",
							"type": "uint256"
						},
						{
							"indexed": false,
							"internalType": "uint256",
							"name": "maxSlippageBps",
							"type": "uint256"
						},
						{
							"indexed": false,
							"internalType": "uint256",
							"name": "confidence",
							"type": "uint256"
						}
					],
					"name": "ParametersRecommended",
					"type": "event"
				},
				{
					"anonymous": false,
					"inputs": [
						{
							"indexed": false,
							"internalType": "uint256",
							"name": "borrowAmount",
							"type": "uint256"
						},
						{
							"indexed": false,
							"internalType": "uint256",
							"name": "netProfit",
							"type": "uint256"
						},
						{
							"indexed": false,
							"internalType": "bool",
							"name": "isProfitable",
							"type": "bool"
						}
					],
					"name": "ProfitabilityCalculated",
					"type": "event"
				},
				{
					"anonymous": false,
					"inputs": [
						{
							"indexed": false,
							"internalType": "uint256",
							"name": "scenarioCount",
							"type": "uint256"
						}
					],
					"name": "SensitivityAnalysisPerformed",
					"type": "event"
				},
				{
					"inputs": [
						{
							"components": [
								{
									"internalType": "uint256",
									"name": "profit",
									"type": "uint256"
								},
								{
									"internalType": "uint256",
									"name": "gasUsed",
									"type": "uint256"
								},
								{
									"internalType": "uint256",
									"name": "slippage",
									"type": "uint256"
								},
								{
									"internalType": "uint256",
									"name": "executionTime",
									"type": "uint256"
								}
							],
							"internalType": "struct ArbitrageAnalyzer.TradeData[]",
							"name": "trades",
							"type": "tuple[]"
						},
						{
							"internalType": "uint256[]",
							"name": "gasPrices",
							"type": "uint256[]"
						}
					],
					"name": "analyzeGasEfficiency",
					"outputs": [
						{
							"internalType": "uint256",
							"name": "meanGasCost",
							"type": "uint256"
						},
						{
							"internalType": "uint256",
							"name": "profitPerGasUnit",
							"type": "uint256"
						},
						{
							"internalType": "string",
							"name": "recommendation",
							"type": "string"
						}
					],
					"stateMutability": "pure",
					"type": "function"
				},
				{
					"inputs": [
						{
							"components": [
								{
									"internalType": "uint256",
									"name": "profit",
									"type": "uint256"
								},
								{
									"internalType": "uint256",
									"name": "gasUsed",
									"type": "uint256"
								},
								{
									"internalType": "uint256",
									"name": "slippage",
									"type": "uint256"
								},
								{
									"internalType": "uint256",
									"name": "executionTime",
									"type": "uint256"
								}
							],
							"internalType": "struct ArbitrageAnalyzer.TradeData[]",
							"name": "trades",
							"type": "tuple[]"
						}
					],
					"name": "analyzeHistoricalTrades",
					"outputs": [
						{
							"components": [
								{
									"internalType": "uint256",
									"name": "meanProfit",
									"type": "uint256"
								},
								{
									"internalType": "uint256",
									"name": "medianProfit",
									"type": "uint256"
								},
								{
									"internalType": "uint256",
									"name": "stdDeviation",
									"type": "uint256"
								},
								{
									"internalType": "uint256",
									"name": "minProfit",
									"type": "uint256"
								},
								{
									"internalType": "uint256",
									"name": "maxProfit",
									"type": "uint256"
								},
								{
									"internalType": "uint256",
									"name": "successRate",
									"type": "uint256"
								},
								{
									"internalType": "uint256",
									"name": "averageGasUsed",
									"type": "uint256"
								},
								{
									"internalType": "uint256",
									"name": "totalTrades",
									"type": "uint256"
								}
							],
							"internalType": "struct ArbitrageAnalyzer.StatisticalAnalysis",
							"name": "",
							"type": "tuple"
						}
					],
					"stateMutability": "nonpayable",
					"type": "function"
				},
				{
					"inputs": [
						{
							"components": [
								{
									"internalType": "uint256",
									"name": "profit",
									"type": "uint256"
								},
								{
									"internalType": "uint256",
									"name": "gasUsed",
									"type": "uint256"
								},
								{
									"internalType": "uint256",
									"name": "slippage",
									"type": "uint256"
								},
								{
									"internalType": "uint256",
									"name": "executionTime",
									"type": "uint256"
								}
							],
							"internalType": "struct ArbitrageAnalyzer.TradeData[]",
							"name": "trades",
							"type": "tuple[]"
						},
						{
							"internalType": "uint256[]",
							"name": "minProfitBpsArray",
							"type": "uint256[]"
						},
						{
							"internalType": "uint256[]",
							"name": "maxSlippageBpsArray",
							"type": "uint256[]"
						}
					],
					"name": "backtestParameters",
					"outputs": [
						{
							"components": [
								{
									"internalType": "uint256",
									"name": "minProfitBps",
									"type": "uint256"
								},
								{
									"internalType": "uint256",
									"name": "maxSlippageBps",
									"type": "uint256"
								},
								{
									"internalType": "uint256",
									"name": "successCount",
									"type": "uint256"
								},
								{
									"internalType": "uint256",
									"name": "totalProfit",
									"type": "uint256"
								},
								{
									"internalType": "uint256",
									"name": "roi",
									"type": "uint256"
								}
							],
							"internalType": "struct ArbitrageAnalyzer.BacktestResult[]",
							"name": "",
							"type": "tuple[]"
						}
					],
					"stateMutability": "nonpayable",
					"type": "function"
				},
				{
					"inputs": [
						{
							"internalType": "uint256",
							"name": "borrowAmount",
							"type": "uint256"
						},
						{
							"internalType": "uint256",
							"name": "flashLoanPremiumBps",
							"type": "uint256"
						},
						{
							"internalType": "uint256",
							"name": "gasPrice",
							"type": "uint256"
						},
						{
							"internalType": "uint256",
							"name": "gasUnitsEstimate",
							"type": "uint256"
						},
						{
							"internalType": "uint256",
							"name": "leg1AmountOut",
							"type": "uint256"
						},
						{
							"internalType": "uint256",
							"name": "leg2AmountOut",
							"type": "uint256"
						},
						{
							"internalType": "uint256",
							"name": "builderTipBps",
							"type": "uint256"
						},
						{
							"internalType": "uint256",
							"name": "safetyBufferBps",
							"type": "uint256"
						}
					],
					"name": "calculateProfitability",
					"outputs": [
						{
							"components": [
								{
									"internalType": "uint256",
									"name": "borrowAmount",
									"type": "uint256"
								},
								{
									"internalType": "uint256",
									"name": "flashLoanFee",
									"type": "uint256"
								},
								{
									"internalType": "uint256",
									"name": "gasCost",
									"type": "uint256"
								},
								{
									"internalType": "uint256",
									"name": "builderTip",
									"type": "uint256"
								},
								{
									"internalType": "uint256",
									"name": "safetyBuffer",
									"type": "uint256"
								},
								{
									"internalType": "uint256",
									"name": "totalCosts",
									"type": "uint256"
								},
								{
									"internalType": "uint256",
									"name": "grossProfit",
									"type": "uint256"
								},
								{
									"internalType": "uint256",
									"name": "netProfit",
									"type": "uint256"
								},
								{
									"internalType": "uint256",
									"name": "roi",
									"type": "uint256"
								},
								{
									"internalType": "bool",
									"name": "isProfitable",
									"type": "bool"
								},
								{
									"components": [
										{
											"internalType": "uint256",
											"name": "flashLoanFeePercent",
											"type": "uint256"
										},
										{
											"internalType": "uint256",
											"name": "gasCostPercent",
											"type": "uint256"
										},
										{
											"internalType": "uint256",
											"name": "builderTipPercent",
											"type": "uint256"
										},
										{
											"internalType": "uint256",
											"name": "safetyBufferPercent",
											"type": "uint256"
										}
									],
									"internalType": "struct ArbitrageAnalyzer.CostPercentages",
									"name": "costBreakdown",
									"type": "tuple"
								}
							],
							"internalType": "struct ArbitrageAnalyzer.ProfitabilityBreakdown",
							"name": "",
							"type": "tuple"
						}
					],
					"stateMutability": "nonpayable",
					"type": "function"
				},
				{
					"inputs": [
						{
							"internalType": "uint256",
							"name": "minBorrowAmount",
							"type": "uint256"
						},
						{
							"internalType": "uint256",
							"name": "maxBorrowAmount",
							"type": "uint256"
						},
						{
							"internalType": "uint256",
							"name": "step",
							"type": "uint256"
						},
						{
							"internalType": "uint256",
							"name": "priceRatio",
							"type": "uint256"
						},
						{
							"internalType": "uint256",
							"name": "flashLoanPremiumBps",
							"type": "uint256"
						},
						{
							"internalType": "uint256",
							"name": "gasPrice",
							"type": "uint256"
						},
						{
							"internalType": "uint256",
							"name": "gasUnitsEstimate",
							"type": "uint256"
						},
						{
							"internalType": "uint256",
							"name": "builderTipBps",
							"type": "uint256"
						},
						{
							"internalType": "uint256",
							"name": "safetyBufferBps",
							"type": "uint256"
						}
					],
					"name": "findOptimalBorrowAmount",
					"outputs": [
						{
							"components": [
								{
									"internalType": "uint256",
									"name": "optimalAmount",
									"type": "uint256"
								},
								{
									"internalType": "uint256",
									"name": "maxProfit",
									"type": "uint256"
								},
								{
									"components": [
										{
											"internalType": "uint256",
											"name": "borrowAmount",
											"type": "uint256"
										},
										{
											"internalType": "uint256",
											"name": "flashLoanFee",
											"type": "uint256"
										},
										{
											"internalType": "uint256",
											"name": "gasCost",
											"type": "uint256"
										},
										{
											"internalType": "uint256",
											"name": "builderTip",
											"type": "uint256"
										},
										{
											"internalType": "uint256",
											"name": "safetyBuffer",
											"type": "uint256"
										},
										{
											"internalType": "uint256",
											"name": "totalCosts",
											"type": "uint256"
										},
										{
											"internalType": "uint256",
											"name": "grossProfit",
											"type": "uint256"
										},
										{
											"internalType": "uint256",
											"name": "netProfit",
											"type": "uint256"
										},
										{
											"internalType": "uint256",
											"name": "roi",
											"type": "uint256"
										},
										{
											"internalType": "bool",
											"name": "isProfitable",
											"type": "bool"
										},
										{
											"components": [
												{
													"internalType": "uint256",
													"name": "flashLoanFeePercent",
													"type": "uint256"
												},
												{
													"internalType": "uint256",
													"name": "gasCostPercent",
													"type": "uint256"
												},
												{
													"internalType": "uint256",
													"name": "builderTipPercent",
													"type": "uint256"
												},
												{
													"internalType": "uint256",
													"name": "safetyBufferPercent",
													"type": "uint256"
												}
											],
											"internalType": "struct ArbitrageAnalyzer.CostPercentages",
											"name": "costBreakdown",
											"type": "tuple"
										}
									],
									"internalType": "struct ArbitrageAnalyzer.ProfitabilityBreakdown",
									"name": "profitability",
									"type": "tuple"
								}
							],
							"internalType": "struct ArbitrageAnalyzer.OptimalBorrowResult",
							"name": "",
							"type": "tuple"
						}
					],
					"stateMutability": "nonpayable",
					"type": "function"
				},
				{
					"inputs": [
						{
							"components": [
								{
									"internalType": "uint256",
									"name": "meanProfit",
									"type": "uint256"
								},
								{
									"internalType": "uint256",
									"name": "medianProfit",
									"type": "uint256"
								},
								{
									"internalType": "uint256",
									"name": "stdDeviation",
									"type": "uint256"
								},
								{
									"internalType": "uint256",
									"name": "minProfit",
									"type": "uint256"
								},
								{
									"internalType": "uint256",
									"name": "maxProfit",
									"type": "uint256"
								},
								{
									"internalType": "uint256",
									"name": "successRate",
									"type": "uint256"
								},
								{
									"internalType": "uint256",
									"name": "averageGasUsed",
									"type": "uint256"
								},
								{
									"internalType": "uint256",
									"name": "totalTrades",
									"type": "uint256"
								}
							],
							"internalType": "struct ArbitrageAnalyzer.StatisticalAnalysis",
							"name": "analysis",
							"type": "tuple"
						},
						{
							"components": [
								{
									"internalType": "uint256",
									"name": "profit",
									"type": "uint256"
								},
								{
									"internalType": "uint256",
									"name": "gasUsed",
									"type": "uint256"
								},
								{
									"internalType": "uint256",
									"name": "slippage",
									"type": "uint256"
								},
								{
									"internalType": "uint256",
									"name": "executionTime",
									"type": "uint256"
								}
							],
							"internalType": "struct ArbitrageAnalyzer.TradeData[]",
							"name": "trades",
							"type": "tuple[]"
						}
					],
					"name": "generateParameterRecommendations",
					"outputs": [
						{
							"components": [
								{
									"internalType": "uint256",
									"name": "minProfitBps",
									"type": "uint256"
								},
								{
									"internalType": "uint256",
									"name": "maxSlippageBps",
									"type": "uint256"
								},
								{
									"internalType": "uint256",
									"name": "deadlineSeconds",
									"type": "uint256"
								},
								{
									"internalType": "uint256",
									"name": "gasUnitsEstimate",
									"type": "uint256"
								},
								{
									"internalType": "uint256",
									"name": "confidence",
									"type": "uint256"
								},
								{
									"internalType": "string",
									"name": "reasoning",
									"type": "string"
								}
							],
							"internalType": "struct ArbitrageAnalyzer.ParameterRecommendation",
							"name": "",
							"type": "tuple"
						}
					],
					"stateMutability": "nonpayable",
					"type": "function"
				},
				{
					"inputs": [
						{
							"internalType": "uint256",
							"name": "baseProfit",
							"type": "uint256"
						},
						{
							"internalType": "uint256",
							"name": "baseBorrowAmount",
							"type": "uint256"
						},
						{
							"internalType": "uint256[]",
							"name": "gasPrices",
							"type": "uint256[]"
						},
						{
							"internalType": "uint256[]",
							"name": "flashLoanPremiums",
							"type": "uint256[]"
						},
						{
							"internalType": "uint256",
							"name": "gasUnitsEstimate",
							"type": "uint256"
						},
						{
							"internalType": "uint256",
							"name": "builderTipBps",
							"type": "uint256"
						},
						{
							"internalType": "uint256",
							"name": "safetyBufferBps",
							"type": "uint256"
						}
					],
					"name": "sensitivityAnalysis",
					"outputs": [
						{
							"components": [
								{
									"internalType": "uint256",
									"name": "gasPrice",
									"type": "uint256"
								},
								{
									"internalType": "uint256",
									"name": "flashLoanPremiumBps",
									"type": "uint256"
								},
								{
									"internalType": "uint256",
									"name": "netProfit",
									"type": "uint256"
								},
								{
									"internalType": "uint256",
									"name": "roi",
									"type": "uint256"
								}
							],
							"internalType": "struct ArbitrageAnalyzer.SensitivityResult[]",
							"name": "",
							"type": "tuple[]"
						}
					],
					"stateMutability": "nonpayable",
					"type": "function"
				}
			],
			"devdoc": {
				"details": "Performs statistical analysis on historical trade data and recommends parameters Does NOT execute trades or interact with DEXs",
				"kind": "dev",
				"methods": {
					"analyzeGasEfficiency((uint256,uint256,uint256,uint256)[],uint256[])": {
						"params": {
							"gasPrices": "Array of gas prices used in each trade",
							"trades": "Historical trade data with gas information"
						},
						"returns": {
							"meanGasCost": "Average gas cost",
							"profitPerGasUnit": "Average profit per gas unit",
							"recommendation": "Text recommendation"
						}
					},
					"analyzeHistoricalTrades((uint256,uint256,uint256,uint256)[])": {
						"params": {
							"trades": "Array of historical trade data"
						},
						"returns": {
							"_0": "StatisticalAnalysis with computed metrics"
						}
					},
					"backtestParameters((uint256,uint256,uint256,uint256)[],uint256[],uint256[])": {
						"params": {
							"maxSlippageBpsArray": "Array of maxSlippageBps to test",
							"minProfitBpsArray": "Array of minProfitBps to test",
							"trades": "Historical trade data"
						},
						"returns": {
							"_0": "Array of BacktestResult for each combination"
						}
					},
					"calculateProfitability(uint256,uint256,uint256,uint256,uint256,uint256,uint256,uint256)": {
						"params": {
							"borrowAmount": "Amount to borrow in Wei",
							"builderTipBps": "Builder tip in BPS",
							"flashLoanPremiumBps": "Flash loan premium in BPS",
							"gasPrice": "Gas price in Wei",
							"gasUnitsEstimate": "Estimated gas units",
							"leg1AmountOut": "Expected output from first leg in Wei",
							"leg2AmountOut": "Expected output from second leg in Wei",
							"safetyBufferBps": "Safety buffer in BPS"
						},
						"returns": {
							"_0": "ProfitabilityBreakdown with detailed cost analysis"
						}
					},
					"findOptimalBorrowAmount(uint256,uint256,uint256,uint256,uint256,uint256,uint256,uint256,uint256)": {
						"params": {
							"builderTipBps": "Builder tip in BPS",
							"flashLoanPremiumBps": "Flash loan premium in BPS",
							"gasPrice": "Gas price in Wei",
							"gasUnitsEstimate": "Estimated gas units",
							"maxBorrowAmount": "Maximum borrow amount in Wei",
							"minBorrowAmount": "Minimum borrow amount in Wei",
							"priceRatio": "Expected ratio of leg2Out / leg1Out (in PRECISION)",
							"safetyBufferBps": "Safety buffer in BPS",
							"step": "Step size for iteration in Wei"
						},
						"returns": {
							"_0": "OptimalBorrowResult with optimal amount and profitability"
						}
					},
					"generateParameterRecommendations((uint256,uint256,uint256,uint256,uint256,uint256,uint256,uint256),(uint256,uint256,uint256,uint256)[])": {
						"params": {
							"analysis": "StatisticalAnalysis from analyzeHistoricalTrades",
							"trades": "Original trade data for slippage and execution time analysis"
						},
						"returns": {
							"_0": "ParameterRecommendation with suggested parameters"
						}
					},
					"sensitivityAnalysis(uint256,uint256,uint256[],uint256[],uint256,uint256,uint256)": {
						"params": {
							"baseBorrowAmount": "Base borrow amount in Wei",
							"baseProfit": "Base profit amount in Wei",
							"builderTipBps": "Builder tip in BPS",
							"flashLoanPremiums": "Array of flash loan premiums to test in BPS",
							"gasPrices": "Array of gas prices to test in Wei",
							"gasUnitsEstimate": "Estimated gas units",
							"safetyBufferBps": "Safety buffer in BPS"
						},
						"returns": {
							"_0": "Array of SensitivityResult for each combination"
						}
					}
				},
				"title": "ArbitrageAnalyzer",
				"version": 1
			},
			"evm": {
				"assembly": "    /* \"contracts/src/ArbitrageAnalyzer.sol\":319:27441  contract ArbitrageAnalyzer {... */\n  0x80\n  dup1\n  0x40\n  mstore\n  jumpi(tag_1, callvalue)\n  dataSize(sub_0)\n  swap1\n  dup2\n  dataOffset(sub_0)\n  dup3\n  codecopy\n  return\ntag_1:\n  0x00\n  dup1\n  revert\nstop\n\nsub_0: assembly {\n        /* \"contracts/src/ArbitrageAnalyzer.sol\":319:27441  contract ArbitrageAnalyzer {... */\n      0x80\n      dup1\n      0x40\n      mstore\n      jumpi(tag_37, iszero(lt(calldatasize, 0x04)))\n      0x00\n      dup1\n      revert\n    tag_37:\n      shr(0xe0, calldataload(0x00))\n      swap1\n      dup2\n      0x0b54db8f\n      eq\n      tag_39\n      jumpi\n      pop\n      dup1\n      0x248fc940\n      eq\n      tag_41\n      jumpi\n      dup1\n      0x42598dca\n      eq\n      tag_43\n      jumpi\n      dup1\n      0x5c5d15cd\n      eq\n      tag_45\n      jumpi\n      dup1\n      0x714c179a\n      eq\n      tag_47\n      jumpi\n      dup1\n      0xd22ae846\n      eq\n      tag_49\n      jumpi\n      0xe91ca8b6\n      eq\n      tag_51\n      jumpi\n      0x00\n      dup1\n      revert\n    tag_51:\n      jumpi(tag_63, callvalue)\n      jumpi(tag_63, slt(add(not(0x03), calldatasize), 0x60))\n      sub(shl(0x40, 0x01), 0x01)\n      calldataload(0x04)\n      dup2\n      dup2\n      gt\n      tag_63\n      jumpi\n      tag_59\n      swap1\n      calldatasize\n      swap1\n      0x04\n      add\n      tag_1\n      jump\t// in\n    tag_59:\n      0x24\n      swap3\n      swap2\n      swap3\n      calldataload\n      dup3\n      dup2\n      gt\n      tag_63\n      jumpi\n      tag_62\n      swap1\n      calldatasize\n      swap1\n      0x04\n      add\n      tag_3\n      jump\t// in\n    tag_62:\n      swap4\n      swap1\n      swap3\n      calldataload(0x44)\n      swap1\n      dup2\n      gt\n      tag_63\n      jumpi\n      tag_65\n      swap1\n      calldatasize\n      swap1\n      0x04\n      add\n      tag_3\n      jump\t// in\n    tag_65:\n        /* \"contracts/src/ArbitrageAnalyzer.sol\":17767:17785  trades.length == 0 */\n      swap2\n      swap1\n      swap4\n      dup4\n      iszero\n        /* \"contracts/src/ArbitrageAnalyzer.sol\":17763:17812  if (trades.length == 0) revert InsufficientData() */\n      tag_66\n      jumpi\n        /* \"contracts/src/ArbitrageAnalyzer.sol\":17827:17856  minProfitBpsArray.length == 0 */\n      dup6\n      iszero\n        /* \"contracts/src/ArbitrageAnalyzer.sol\":17827:17891  minProfitBpsArray.length == 0 || maxSlippageBpsArray.length == 0 */\n      dup1\n      iszero\n      tag_68\n      jumpi\n        /* \"contracts/src/ArbitrageAnalyzer.sol\":319:27441  contract ArbitrageAnalyzer {... */\n    tag_69:\n        /* \"contracts/src/ArbitrageAnalyzer.sol\":17823:17927  if (minProfitBpsArray.length == 0 || maxSlippageBpsArray.length == 0)... */\n      tag_70\n      jumpi\n        /* \"contracts/src/ArbitrageAnalyzer.sol\":17962:18028  minProfitBpsArray.length *... */\n      tag_72\n      dup4\n      dup8\n      swap7\n      swap8\n      tag_16\n      jump\t// in\n    tag_72:\n        /* \"contracts/src/ArbitrageAnalyzer.sol\":319:27441  contract ArbitrageAnalyzer {... */\n      swap4\n      tag_73\n      dup6\n      tag_22\n      jump\t// in\n    tag_73:\n      swap6\n      tag_74\n      mload(0x40)\n      swap8\n      dup9\n      tag_10\n      jump\t// in\n    tag_74:\n      dup6\n      dup8\n      mstore\n      not(0x1f)\n      tag_75\n      dup8\n      tag_22\n      jump\t// in\n    tag_75:\n      add\n      0x00\n    tag_76:\n      dup2\n      dup2\n      lt\n      tag_77\n      jumpi\n        /* \"contracts/src/ArbitrageAnalyzer.sol\":18119:18134  uint256 idx = 0 */\n      pop\n      pop\n        /* \"contracts/src/ArbitrageAnalyzer.sol\":319:27441  contract ArbitrageAnalyzer {... */\n      0x00\n        /* \"contracts/src/ArbitrageAnalyzer.sol\":18145:18164  uint256 bestRoi = 0 */\n      swap1\n        /* \"contracts/src/ArbitrageAnalyzer.sol\":319:27441  contract ArbitrageAnalyzer {... */\n      0x00\n        /* \"contracts/src/ArbitrageAnalyzer.sol\":18182:18195  uint256 i = 0 */\n      swap9\n        /* \"contracts/src/ArbitrageAnalyzer.sol\":319:27441  contract ArbitrageAnalyzer {... */\n      0x00\n        /* \"contracts/src/ArbitrageAnalyzer.sol\":18197:18225  i < minProfitBpsArray.length */\n    tag_79:\n      dup3\n      dup2\n      lt\n      tag_80\n      jumpi\n        /* \"contracts/src/ArbitrageAnalyzer.sol\":319:27441  contract ArbitrageAnalyzer {... */\n      dup11\n      dup11\n        /* \"contracts/src/ArbitrageAnalyzer.sol\":19625:19664  BacktestCompleted(resultCount, bestRoi) */\n      0xce02315fb96cbb0454e42d85a6b1d9cfe79538fc4b258c8e3b924b99bcd7a02a\n        /* \"contracts/src/ArbitrageAnalyzer.sol\":319:27441  contract ArbitrageAnalyzer {... */\n      0x40\n      dup13\n      dup2\n      mload\n      swap1\n      dup2\n      mstore\n      0x20\n        /* \"contracts/src/ArbitrageAnalyzer.sol\":676:682  10_000 */\n      swap5\n      dup6\n      dup3\n      add\n        /* \"contracts/src/ArbitrageAnalyzer.sol\":319:27441  contract ArbitrageAnalyzer {... */\n      mstore\n        /* \"contracts/src/ArbitrageAnalyzer.sol\":19625:19664  BacktestCompleted(resultCount, bestRoi) */\n      log1\n        /* \"contracts/src/ArbitrageAnalyzer.sol\":319:27441  contract ArbitrageAnalyzer {... */\n      mload(0x40)\n      swap1\n      dup3\n      dup3\n      add\n      dup4\n      dup4\n      mstore\n      dup2\n      mload\n      dup1\n      swap2\n      mstore\n      dup4\n      0x40\n      dup5\n      add\n      swap3\n      add\n      swap4\n      0x00\n    tag_82:\n      dup3\n      dup2\n      lt\n      tag_83\n      jumpi\n      dup5\n      dup5\n      sub\n      dup6\n      return\n    tag_83:\n      dup6\n      mload\n      dup1\n      mload\n      dup6\n      mstore\n      dup1\n      dup4\n      add\n      mload\n      dup6\n      dup5\n      add\n      mstore\n      0x40\n      dup1\n      dup3\n      add\n      mload\n      swap1\n      dup7\n      add\n      mstore\n      0x60\n      dup1\n      dup3\n      add\n      mload\n      swap1\n      dup7\n      add\n      mstore\n      0x80\n      swap1\n      dup2\n      add\n      mload\n      swap1\n      dup6\n      add\n      mstore\n      swap5\n      dup2\n      add\n      swap5\n      0xa0\n      swap1\n      swap4\n      add\n      swap3\n      0x01\n      add\n      jump(tag_82)\n        /* \"contracts/src/ArbitrageAnalyzer.sol\":18227:18230  i++ */\n    tag_80:\n        /* \"contracts/src/ArbitrageAnalyzer.sol\":319:27441  contract ArbitrageAnalyzer {... */\n      0x00\n        /* \"contracts/src/ArbitrageAnalyzer.sol\":18252:18265  uint256 j = 0 */\n      swap11\n      swap10\n      swap11\n        /* \"contracts/src/ArbitrageAnalyzer.sol\":18267:18297  j < maxSlippageBpsArray.length */\n    tag_85:\n      dup9\n      dup2\n      lt\n      tag_86\n      jumpi\n        /* \"contracts/src/ArbitrageAnalyzer.sol\":18227:18230  i++ */\n      pop\n      tag_88\n      swap1\n      tag_11\n      jump\t// in\n    tag_88:\n        /* \"contracts/src/ArbitrageAnalyzer.sol\":18182:18195  uint256 i = 0 */\n      swap10\n      swap9\n      swap10\n      jump(tag_79)\n        /* \"contracts/src/ArbitrageAnalyzer.sol\":18299:18302  j++ */\n    tag_86:\n        /* \"contracts/src/ArbitrageAnalyzer.sol\":18323:18347  uint256 successCount = 0 */\n      swap4\n        /* \"contracts/src/ArbitrageAnalyzer.sol\":319:27441  contract ArbitrageAnalyzer {... */\n      0x00\n      dup1\n      0x00\n        /* \"contracts/src/ArbitrageAnalyzer.sol\":18430:18447  k < trades.length */\n    tag_89:\n      dup9\n      dup2\n      lt\n      tag_90\n      jumpi\n      pop\n        /* \"contracts/src/ArbitrageAnalyzer.sol\":19032:19048  successCount > 0 */\n      dup14\n      dup14\n      dup4\n      iszero\n      tag_92\n      jumpi\n        /* \"contracts/src/ArbitrageAnalyzer.sol\":676:682  10_000 */\n      pop\n      pop\n      0x2710\n      swap1\n      dup1\n      dup3\n      dup2\n      mul\n      div\n      dup3\n      eq\n      dup2\n      iszero\n      or\n      iszero\n      tag_94\n      jumpi\n      dup15\n      swap3\n        /* \"contracts/src/ArbitrageAnalyzer.sol\":19072:19119  (totalProfit * BPS_DENOMINATOR) / trades.length */\n      tag_96\n        /* \"contracts/src/ArbitrageAnalyzer.sol\":676:682  10_000 */\n      dup16\n      swap4\n      dup12\n      swap1\n      dup5\n      mul\n        /* \"contracts/src/ArbitrageAnalyzer.sol\":19072:19119  (totalProfit * BPS_DENOMINATOR) / trades.length */\n      tag_14\n      jump\t// in\n    tag_96:\n        /* \"contracts/src/ArbitrageAnalyzer.sol\":19032:19144  successCount > 0... */\n      swap3\n    tag_97:\n        /* \"contracts/src/ArbitrageAnalyzer.sol\":19169:19182  roi > bestRoi */\n      dup4\n      gt\n        /* \"contracts/src/ArbitrageAnalyzer.sol\":19165:19240  if (roi > bestRoi) {... */\n      tag_98\n      jumpi\n        /* \"contracts/src/ArbitrageAnalyzer.sol\":19032:19144  successCount > 0... */\n    tag_99:\n        /* \"contracts/src/ArbitrageAnalyzer.sol\":19327:19347  minProfitBpsArray[i] */\n      swap4\n        /* \"contracts/src/ArbitrageAnalyzer.sol\":19576:19581  idx++ */\n      tag_100\n        /* \"contracts/src/ArbitrageAnalyzer.sol\":19327:19347  minProfitBpsArray[i] */\n      swap4\n      dup8\n      dup3\n      swap5\n      dup16\n      swap5\n        /* \"contracts/src/ArbitrageAnalyzer.sol\":18299:18302  j++ */\n      tag_101\n        /* \"contracts/src/ArbitrageAnalyzer.sol\":19327:19347  minProfitBpsArray[i] */\n      swap9\n      dup16\n      dup15\n        /* \"contracts/src/ArbitrageAnalyzer.sol\":19260:19555  results[idx] = BacktestResult({... */\n      tag_102\n        /* \"contracts/src/ArbitrageAnalyzer.sol\":19327:19347  minProfitBpsArray[i] */\n      swap9\n      dup16\n      dup15\n      tag_103\n      swap2\n        /* \"contracts/src/ArbitrageAnalyzer.sol\":19386:19408  maxSlippageBpsArray[j] */\n      tag_104\n        /* \"contracts/src/ArbitrageAnalyzer.sol\":19327:19347  minProfitBpsArray[i] */\n      swap6\n      tag_23\n      jump\t// in\n    tag_103:\n        /* \"contracts/src/ArbitrageAnalyzer.sol\":775:779  1000 */\n      calldataload\n        /* \"contracts/src/ArbitrageAnalyzer.sol\":19386:19408  maxSlippageBpsArray[j] */\n      swap7\n      tag_23\n      jump\t// in\n    tag_104:\n        /* \"contracts/src/ArbitrageAnalyzer.sol\":775:779  1000 */\n      calldataload\n        /* \"contracts/src/ArbitrageAnalyzer.sol\":319:27441  contract ArbitrageAnalyzer {... */\n      mload(0x40)\n      swap5\n      tag_105\n      dup7\n      tag_9\n      jump\t// in\n    tag_105:\n        /* \"contracts/src/ArbitrageAnalyzer.sol\":676:682  10_000 */\n      dup6\n      mstore\n        /* \"contracts/src/ArbitrageAnalyzer.sol\":319:27441  contract ArbitrageAnalyzer {... */\n      0x20\n        /* \"contracts/src/ArbitrageAnalyzer.sol\":19275:19555  BacktestResult({... */\n      dup6\n      add\n        /* \"contracts/src/ArbitrageAnalyzer.sol\":676:682  10_000 */\n      mstore\n        /* \"contracts/src/ArbitrageAnalyzer.sol\":319:27441  contract ArbitrageAnalyzer {... */\n      0x40\n        /* \"contracts/src/ArbitrageAnalyzer.sol\":19275:19555  BacktestResult({... */\n      dup5\n      add\n        /* \"contracts/src/ArbitrageAnalyzer.sol\":676:682  10_000 */\n      mstore\n        /* \"contracts/src/ArbitrageAnalyzer.sol\":319:27441  contract ArbitrageAnalyzer {... */\n      0x60\n        /* \"contracts/src/ArbitrageAnalyzer.sol\":19275:19555  BacktestResult({... */\n      dup4\n      add\n        /* \"contracts/src/ArbitrageAnalyzer.sol\":676:682  10_000 */\n      mstore\n        /* \"contracts/src/ArbitrageAnalyzer.sol\":319:27441  contract ArbitrageAnalyzer {... */\n      0x80\n        /* \"contracts/src/ArbitrageAnalyzer.sol\":19275:19555  BacktestResult({... */\n      dup3\n      add\n        /* \"contracts/src/ArbitrageAnalyzer.sol\":676:682  10_000 */\n      mstore\n        /* \"contracts/src/ArbitrageAnalyzer.sol\":19260:19555  results[idx] = BacktestResult({... */\n      tag_106\n      dup4\n      dup4\n      tag_24\n      jump\t// in\n    tag_106:\n      mstore\n      tag_24\n      jump\t// in\n    tag_102:\n      pop\n        /* \"contracts/src/ArbitrageAnalyzer.sol\":19576:19581  idx++ */\n      tag_11\n      jump\t// in\n    tag_100:\n        /* \"contracts/src/ArbitrageAnalyzer.sol\":18299:18302  j++ */\n      swap5\n      tag_11\n      jump\t// in\n    tag_101:\n        /* \"contracts/src/ArbitrageAnalyzer.sol\":18252:18265  uint256 j = 0 */\n      jump(tag_85)\n        /* \"contracts/src/ArbitrageAnalyzer.sol\":19165:19240  if (roi > bestRoi) {... */\n    tag_98:\n        /* \"contracts/src/ArbitrageAnalyzer.sol\":19207:19220  bestRoi = roi */\n      swap2\n      swap14\n      pop\n      dup14\n      swap2\n        /* \"contracts/src/ArbitrageAnalyzer.sol\":19165:19240  if (roi > bestRoi) {... */\n      jump(tag_99)\n        /* \"contracts/src/ArbitrageAnalyzer.sol\":676:682  10_000 */\n    tag_94:\n        /* \"contracts/src/ArbitrageAnalyzer.sol\":319:27441  contract ArbitrageAnalyzer {... */\n      shl(0xe0, 0x4e487b71)\n      0x00\n        /* \"contracts/src/ArbitrageAnalyzer.sol\":775:779  1000 */\n      mstore\n      0x11\n        /* \"contracts/src/ArbitrageAnalyzer.sol\":319:27441  contract ArbitrageAnalyzer {... */\n      0x04\n        /* \"contracts/src/ArbitrageAnalyzer.sol\":775:779  1000 */\n      mstore\n        /* \"contracts/src/ArbitrageAnalyzer.sol\":319:27441  contract ArbitrageAnalyzer {... */\n      0x24\n      0x00\n        /* \"contracts/src/ArbitrageAnalyzer.sol\":775:779  1000 */\n      revert\n        /* \"contracts/src/ArbitrageAnalyzer.sol\":19032:19144  successCount > 0... */\n    tag_92:\n      swap2\n      swap1\n      swap3\n        /* \"contracts/src/ArbitrageAnalyzer.sol\":319:27441  contract ArbitrageAnalyzer {... */\n      0x00\n        /* \"contracts/src/ArbitrageAnalyzer.sol\":19032:19144  successCount > 0... */\n      swap3\n      jump(tag_97)\n        /* \"contracts/src/ArbitrageAnalyzer.sol\":18449:18452  k++ */\n    tag_90:\n        /* \"contracts/src/ArbitrageAnalyzer.sol\":18551:18560  trades[k] */\n      tag_107\n      dup2\n      dup11\n      dup14\n      tag_12\n      jump\t// in\n    tag_107:\n        /* \"contracts/src/ArbitrageAnalyzer.sol\":775:779  1000 */\n      calldataload\n        /* \"contracts/src/ArbitrageAnalyzer.sol\":18551:18571  trades[k].profit > 0 */\n      iszero\n        /* \"contracts/src/ArbitrageAnalyzer.sol\":18551:18671  trades[k].profit > 0... */\n      tag_108\n      jumpi\n        /* \"contracts/src/ArbitrageAnalyzer.sol\":18600:18609  trades[k] */\n      tag_110\n      dup2\n      dup11\n      dup14\n      tag_12\n      jump\t// in\n    tag_110:\n        /* \"contracts/src/ArbitrageAnalyzer.sol\":775:779  1000 */\n      calldataload\n        /* \"contracts/src/ArbitrageAnalyzer.sol\":676:682  10_000 */\n      0x2710\n      dup2\n      dup2\n      dup2\n      mul\n      div\n      dup2\n      eq\n      dup3\n      iszero\n      or\n      iszero\n      tag_94\n      jumpi\n      dup13\n      swap2\n      dup12\n      swap2\n        /* \"contracts/src/ArbitrageAnalyzer.sol\":18638:18642  1e18 */\n      0x0de0b6b3a7640000\n        /* \"contracts/src/ArbitrageAnalyzer.sol\":676:682  10_000 */\n      swap2\n      mul\n        /* \"contracts/src/ArbitrageAnalyzer.sol\":775:779  1000 */\n      div\n        /* \"contracts/src/ArbitrageAnalyzer.sol\":18739:18759  minProfitBpsArray[i] */\n      tag_113\n        /* \"contracts/src/ArbitrageAnalyzer.sol\":676:682  10_000 */\n      dup9\n      dup12\n      dup16\n        /* \"contracts/src/ArbitrageAnalyzer.sol\":18739:18759  minProfitBpsArray[i] */\n      tag_23\n      jump\t// in\n    tag_113:\n        /* \"contracts/src/ArbitrageAnalyzer.sol\":775:779  1000 */\n      calldataload\n      gt\n        /* \"contracts/src/ArbitrageAnalyzer.sol\":18726:18759  profitBps >= minProfitBpsArray[i] */\n      iszero\n        /* \"contracts/src/ArbitrageAnalyzer.sol\":18726:18832  profitBps >= minProfitBpsArray[i] &&... */\n      dup1\n      tag_115\n      jumpi\n        /* \"contracts/src/ArbitrageAnalyzer.sol\":18551:18671  trades[k].profit > 0... */\n    tag_116:\n        /* \"contracts/src/ArbitrageAnalyzer.sol\":18696:18979  if (... */\n      tag_117\n      jumpi\n        /* \"contracts/src/ArbitrageAnalyzer.sol\":18551:18671  trades[k].profit > 0... */\n    tag_118:\n        /* \"contracts/src/ArbitrageAnalyzer.sol\":18449:18452  k++ */\n      pop\n      pop\n      tag_119\n      swap1\n      tag_11\n      jump\t// in\n    tag_119:\n        /* \"contracts/src/ArbitrageAnalyzer.sol\":18415:18428  uint256 k = 0 */\n      jump(tag_89)\n        /* \"contracts/src/ArbitrageAnalyzer.sol\":18696:18979  if (... */\n    tag_117:\n        /* \"contracts/src/ArbitrageAnalyzer.sol\":18883:18897  successCount++ */\n      swap3\n        /* \"contracts/src/ArbitrageAnalyzer.sol\":18939:18948  trades[k] */\n      tag_120\n        /* \"contracts/src/ArbitrageAnalyzer.sol\":18883:18897  successCount++ */\n      dup4\n        /* \"contracts/src/ArbitrageAnalyzer.sol\":18449:18452  k++ */\n      tag_119\n        /* \"contracts/src/ArbitrageAnalyzer.sol\":18883:18897  successCount++ */\n      swap5\n      swap6\n      tag_121\n        /* \"contracts/src/ArbitrageAnalyzer.sol\":18924:18955  totalProfit += trades[k].profit */\n      tag_122\n        /* \"contracts/src/ArbitrageAnalyzer.sol\":18883:18897  successCount++ */\n      swap6\n      swap9\n      tag_11\n      jump\t// in\n    tag_121:\n        /* \"contracts/src/ArbitrageAnalyzer.sol\":18939:18948  trades[k] */\n      swap8\n      tag_12\n      jump\t// in\n    tag_120:\n        /* \"contracts/src/ArbitrageAnalyzer.sol\":775:779  1000 */\n      calldataload\n        /* \"contracts/src/ArbitrageAnalyzer.sol\":18924:18955  totalProfit += trades[k].profit */\n      swap1\n      tag_13\n      jump\t// in\n    tag_122:\n        /* \"contracts/src/ArbitrageAnalyzer.sol\":18696:18979  if (... */\n      swap2\n      swap1\n      pop\n      dup11\n      dup10\n      jump(tag_118)\n        /* \"contracts/src/ArbitrageAnalyzer.sol\":18726:18832  profitBps >= minProfitBpsArray[i] &&... */\n    tag_115:\n        /* \"contracts/src/ArbitrageAnalyzer.sol\":18788:18797  trades[k] */\n      pop\n      dup14\n        /* \"contracts/src/ArbitrageAnalyzer.sol\":18810:18832  maxSlippageBpsArray[j] */\n      tag_123\n        /* \"contracts/src/ArbitrageAnalyzer.sol\":18788:18797  trades[k] */\n      dup12\n        /* \"contracts/src/ArbitrageAnalyzer.sol\":319:27441  contract ArbitrageAnalyzer {... */\n      0x40\n        /* \"contracts/src/ArbitrageAnalyzer.sol\":18788:18797  trades[k] */\n      tag_124\n      dup8\n      dup7\n      dup9\n      tag_12\n      jump\t// in\n    tag_124:\n        /* \"contracts/src/ArbitrageAnalyzer.sol\":18788:18806  trades[k].slippage */\n      add\n        /* \"contracts/src/ArbitrageAnalyzer.sol\":775:779  1000 */\n      calldataload\n        /* \"contracts/src/ArbitrageAnalyzer.sol\":18810:18832  maxSlippageBpsArray[j] */\n      swap3\n      dup12\n      tag_23\n      jump\t// in\n    tag_123:\n        /* \"contracts/src/ArbitrageAnalyzer.sol\":775:779  1000 */\n      calldataload\n      lt\n        /* \"contracts/src/ArbitrageAnalyzer.sol\":18788:18832  trades[k].slippage <= maxSlippageBpsArray[j] */\n      iszero\n        /* \"contracts/src/ArbitrageAnalyzer.sol\":18726:18832  profitBps >= minProfitBpsArray[i] &&... */\n      jump(tag_116)\n        /* \"contracts/src/ArbitrageAnalyzer.sol\":18551:18671  trades[k].profit > 0... */\n    tag_108:\n      dup11\n      dup10\n        /* \"contracts/src/ArbitrageAnalyzer.sol\":319:27441  contract ArbitrageAnalyzer {... */\n      0x00\n        /* \"contracts/src/ArbitrageAnalyzer.sol\":18739:18759  minProfitBpsArray[i] */\n      tag_113\n        /* \"contracts/src/ArbitrageAnalyzer.sol\":18551:18671  trades[k].profit > 0... */\n      dup9\n      dup12\n      dup16\n        /* \"contracts/src/ArbitrageAnalyzer.sol\":18739:18759  minProfitBpsArray[i] */\n      tag_23\n      jump\t// in\n        /* \"contracts/src/ArbitrageAnalyzer.sol\":319:27441  contract ArbitrageAnalyzer {... */\n    tag_77:\n      0x20\n      swap1\n      0x40\n      swap11\n      swap10\n      swap11\n      mload\n      tag_125\n      dup2\n      tag_9\n      jump\t// in\n    tag_125:\n      0x00\n      dup2\n      mstore\n      dup3\n      0x00\n      dup2\n      dup4\n      add\n      mstore\n      0x00\n      0x40\n      dup4\n      add\n      mstore\n      0x00\n      0x60\n      dup4\n      add\n      mstore\n      0x00\n      0x80\n      dup4\n      add\n      mstore\n      dup3\n      dup14\n      add\n      add\n      mstore\n      add\n      swap9\n      swap8\n      swap9\n      jump(tag_76)\n        /* \"contracts/src/ArbitrageAnalyzer.sol\":17823:17927  if (minProfitBpsArray.length == 0 || maxSlippageBpsArray.length == 0)... */\n    tag_70:\n        /* \"contracts/src/ArbitrageAnalyzer.sol\":319:27441  contract ArbitrageAnalyzer {... */\n      mload(0x40)\n      shl(0xe0, 0xb4fa3fb3)\n        /* \"contracts/src/ArbitrageAnalyzer.sol\":17913:17927  InvalidInput() */\n      dup2\n      mstore\n        /* \"contracts/src/ArbitrageAnalyzer.sol\":319:27441  contract ArbitrageAnalyzer {... */\n      0x04\n      swap1\n        /* \"contracts/src/ArbitrageAnalyzer.sol\":17913:17927  InvalidInput() */\n      revert\n        /* \"contracts/src/ArbitrageAnalyzer.sol\":17827:17891  minProfitBpsArray.length == 0 || maxSlippageBpsArray.length == 0 */\n    tag_68:\n        /* \"contracts/src/ArbitrageAnalyzer.sol\":17860:17891  maxSlippageBpsArray.length == 0 */\n      pop\n      dup3\n      iszero\n        /* \"contracts/src/ArbitrageAnalyzer.sol\":17827:17891  minProfitBpsArray.length == 0 || maxSlippageBpsArray.length == 0 */\n      jump(tag_69)\n        /* \"contracts/src/ArbitrageAnalyzer.sol\":17763:17812  if (trades.length == 0) revert InsufficientData() */\n    tag_66:\n        /* \"contracts/src/ArbitrageAnalyzer.sol\":319:27441  contract ArbitrageAnalyzer {... */\n      mload(0x40)\n      shl(0xe1, 0x7bfbc40b)\n        /* \"contracts/src/ArbitrageAnalyzer.sol\":17794:17812  InsufficientData() */\n      dup2\n      mstore\n        /* \"contracts/src/ArbitrageAnalyzer.sol\":319:27441  contract ArbitrageAnalyzer {... */\n      0x04\n      swap1\n        /* \"contracts/src/ArbitrageAnalyzer.sol\":17794:17812  InsufficientData() */\n      revert\n        /* \"contracts/src/ArbitrageAnalyzer.sol\":319:27441  contract ArbitrageAnalyzer {... */\n    tag_63:\n      0x00\n      dup1\n      revert\n    tag_49:\n      jumpi(tag_63, callvalue)\n      jumpi(tag_63, slt(add(not(0x03), calldatasize), 0x20))\n      calldataload(0x04)\n      sub(shl(0x40, 0x01), 0x01)\n      dup2\n      gt\n      tag_63\n      jumpi\n      tag_132\n      swap1\n      calldatasize\n      swap1\n      0x04\n      add\n      tag_1\n      jump\t// in\n    tag_132:\n      mload(0x40)\n      0x0100\n      dup2\n      add\n      dup2\n      dup2\n      lt\n      sub(shl(0x40, 0x01), 0x01)\n      dup3\n      gt\n      or\n      tag_157\n      jumpi\n      0x00\n      swap2\n      0xe0\n      swap2\n      0x40\n      mstore\n      dup3\n      dup2\n      mstore\n      dup3\n      0x20\n      dup3\n      add\n      mstore\n      dup3\n      0x40\n      dup3\n      add\n      mstore\n      dup3\n      0x60\n      dup3\n      add\n      mstore\n      dup3\n      0x80\n      dup3\n      add\n      mstore\n      dup3\n      0xa0\n      dup3\n      add\n      mstore\n      dup3\n      0xc0\n      dup3\n      add\n      mstore\n      add\n      mstore\n        /* \"contracts/src/ArbitrageAnalyzer.sol\":4428:4446  trades.length == 0 */\n      dup1\n      iszero\n        /* \"contracts/src/ArbitrageAnalyzer.sol\":4424:4473  if (trades.length == 0) revert InsufficientData() */\n      tag_66\n      jumpi\n        /* \"contracts/src/ArbitrageAnalyzer.sol\":775:779  1000 */\n      0x03e8\n        /* \"contracts/src/ArbitrageAnalyzer.sol\":4488:4514  trades.length > MAX_TRADES */\n      dup2\n      gt\n        /* \"contracts/src/ArbitrageAnalyzer.sol\":4484:4537  if (trades.length > MAX_TRADES) revert InvalidInput() */\n      tag_70\n      jumpi\n        /* \"contracts/src/ArbitrageAnalyzer.sol\":319:27441  contract ArbitrageAnalyzer {... */\n      0x00\n      swap1\n      dup2\n      not(0x00)\n      dup2\n      dup1\n      dup1\n        /* \"contracts/src/ArbitrageAnalyzer.sol\":4808:4825  i < trades.length */\n    tag_139:\n      dup6\n      dup2\n      lt\n      tag_140\n      jumpi\n        /* \"contracts/src/ArbitrageAnalyzer.sol\":5286:5313  totalProfit / trades.length */\n      pop\n      dup5\n        /* \"contracts/src/ArbitrageAnalyzer.sol\":5411:5441  successCount * BPS_DENOMINATOR */\n      tag_142\n        /* \"contracts/src/ArbitrageAnalyzer.sol\":5349:5377  totalGasUsed / trades.length */\n      tag_143\n        /* \"contracts/src/ArbitrageAnalyzer.sol\":5286:5313  totalProfit / trades.length */\n      dup3\n      tag_144\n      dup2\n        /* \"contracts/src/ArbitrageAnalyzer.sol\":5410:5458  (successCount * BPS_DENOMINATOR) / trades.length */\n      tag_145\n        /* \"contracts/src/ArbitrageAnalyzer.sol\":5286:5313  totalProfit / trades.length */\n      swap7\n      tag_14\n      jump\t// in\n    tag_144:\n        /* \"contracts/src/ArbitrageAnalyzer.sol\":5349:5377  totalGasUsed / trades.length */\n      swap10\n      tag_14\n      jump\t// in\n    tag_143:\n        /* \"contracts/src/ArbitrageAnalyzer.sol\":5411:5441  successCount * BPS_DENOMINATOR */\n      swap6\n      tag_15\n      jump\t// in\n    tag_142:\n        /* \"contracts/src/ArbitrageAnalyzer.sol\":5410:5458  (successCount * BPS_DENOMINATOR) / trades.length */\n      tag_14\n      jump\t// in\n    tag_145:\n        /* \"contracts/src/ArbitrageAnalyzer.sol\":21676:21704  new uint256[](trades.length) */\n      swap2\n      tag_146\n      dup6\n      tag_25\n      jump\t// in\n    tag_146:\n        /* \"contracts/src/ArbitrageAnalyzer.sol\":21720:21733  uint256 i = 0 */\n      dup7\n      dup7\n        /* \"contracts/src/ArbitrageAnalyzer.sol\":319:27441  contract ArbitrageAnalyzer {... */\n      0x00\n        /* \"contracts/src/ArbitrageAnalyzer.sol\":21735:21752  i < trades.length */\n    tag_147:\n      dup2\n      dup2\n      lt\n      tag_148\n      jumpi\n        /* \"contracts/src/ArbitrageAnalyzer.sol\":319:27441  contract ArbitrageAnalyzer {... */\n      pop\n        /* \"contracts/src/ArbitrageAnalyzer.sol\":5523:5561  _calculateMedian(_sortProfits(trades)) */\n      tag_150\n        /* \"contracts/src/ArbitrageAnalyzer.sol\":21832:21882  _quickSort(profits, 0, int256(profits.length) - 1) */\n      tag_151\n        /* \"contracts/src/ArbitrageAnalyzer.sol\":319:27441  contract ArbitrageAnalyzer {... */\n      dup5\n      0x00\n        /* \"contracts/src/ArbitrageAnalyzer.sol\":21855:21881  int256(profits.length) - 1 */\n      tag_152\n        /* \"contracts/src/ArbitrageAnalyzer.sol\":5638:5680  _calculateStdDeviation(trades, meanProfit) */\n      tag_153\n        /* \"contracts/src/ArbitrageAnalyzer.sol\":319:27441  contract ArbitrageAnalyzer {... */\n      swap8\n      mload\n        /* \"contracts/src/ArbitrageAnalyzer.sol\":21855:21881  int256(profits.length) - 1 */\n      tag_26\n      jump\t// in\n    tag_152:\n        /* \"contracts/src/ArbitrageAnalyzer.sol\":21832:21882  _quickSort(profits, 0, int256(profits.length) - 1) */\n      swap2\n      tag_28\n      jump\t// in\n    tag_151:\n        /* \"contracts/src/ArbitrageAnalyzer.sol\":5523:5561  _calculateMedian(_sortProfits(trades)) */\n      tag_30\n      jump\t// in\n    tag_150:\n        /* \"contracts/src/ArbitrageAnalyzer.sol\":5638:5680  _calculateStdDeviation(trades, meanProfit) */\n      swap10\n      tag_31\n      jump\t// in\n    tag_153:\n        /* \"contracts/src/ArbitrageAnalyzer.sol\":319:27441  contract ArbitrageAnalyzer {... */\n      swap1\n      dup6\n        /* \"contracts/src/ArbitrageAnalyzer.sol\":5698:5755  AnalysisPerformed(trades.length, meanProfit, successRate) */\n      0xcfe57e905ab17a85e457e7deecc108449d49cdd26719290c306542b53b0ec366\n        /* \"contracts/src/ArbitrageAnalyzer.sol\":319:27441  contract ArbitrageAnalyzer {... */\n      0x40\n      dup1\n      mload\n      dup11\n      dup2\n      mstore\n        /* \"contracts/src/ArbitrageAnalyzer.sol\":676:682  10_000 */\n      dup8\n        /* \"contracts/src/ArbitrageAnalyzer.sol\":319:27441  contract ArbitrageAnalyzer {... */\n      0x20\n        /* \"contracts/src/ArbitrageAnalyzer.sol\":676:682  10_000 */\n      dup3\n      add\n        /* \"contracts/src/ArbitrageAnalyzer.sol\":319:27441  contract ArbitrageAnalyzer {... */\n      mstore\n        /* \"contracts/src/ArbitrageAnalyzer.sol\":5698:5755  AnalysisPerformed(trades.length, meanProfit, successRate) */\n      log2\n      not(0x00)\n        /* \"contracts/src/ArbitrageAnalyzer.sol\":5969:5999  minProfit == type(uint256).max */\n      dup2\n      sub\n        /* \"contracts/src/ArbitrageAnalyzer.sol\":4674:4691  type(uint256).max */\n      tag_154\n      jumpi\n        /* \"contracts/src/ArbitrageAnalyzer.sol\":5969:6015  minProfit == type(uint256).max ? 0 : minProfit */\n      pop\n        /* \"contracts/src/ArbitrageAnalyzer.sol\":319:27441  contract ArbitrageAnalyzer {... */\n      0x00\n        /* \"contracts/src/ArbitrageAnalyzer.sol\":5969:6015  minProfit == type(uint256).max ? 0 : minProfit */\n      swap1\n    tag_156:\n        /* \"contracts/src/ArbitrageAnalyzer.sol\":319:27441  contract ArbitrageAnalyzer {... */\n      mload(0x40)\n      swap8\n      0x0100\n      dup10\n      add\n      dup10\n      dup2\n      lt\n      sub(shl(0x40, 0x01), 0x01)\n      dup3\n      gt\n      or\n      tag_157\n      jumpi\n      0x0100\n      swap10\n      0xe0\n      swap2\n      0x40\n      mstore\n        /* \"contracts/src/ArbitrageAnalyzer.sol\":676:682  10_000 */\n      dup10\n      dup2\n      mstore\n        /* \"contracts/src/ArbitrageAnalyzer.sol\":319:27441  contract ArbitrageAnalyzer {... */\n      0x20\n        /* \"contracts/src/ArbitrageAnalyzer.sol\":5788:6207  StatisticalAnalysis({... */\n      dup2\n      add\n        /* \"contracts/src/ArbitrageAnalyzer.sol\":676:682  10_000 */\n      swap3\n      dup4\n      mstore\n        /* \"contracts/src/ArbitrageAnalyzer.sol\":319:27441  contract ArbitrageAnalyzer {... */\n      0x40\n        /* \"contracts/src/ArbitrageAnalyzer.sol\":5788:6207  StatisticalAnalysis({... */\n      dup2\n      add\n        /* \"contracts/src/ArbitrageAnalyzer.sol\":676:682  10_000 */\n      swap4\n      dup5\n      mstore\n        /* \"contracts/src/ArbitrageAnalyzer.sol\":319:27441  contract ArbitrageAnalyzer {... */\n      0x60\n        /* \"contracts/src/ArbitrageAnalyzer.sol\":5788:6207  StatisticalAnalysis({... */\n      dup2\n      add\n        /* \"contracts/src/ArbitrageAnalyzer.sol\":676:682  10_000 */\n      swap5\n      dup6\n      mstore\n        /* \"contracts/src/ArbitrageAnalyzer.sol\":319:27441  contract ArbitrageAnalyzer {... */\n      0x80\n        /* \"contracts/src/ArbitrageAnalyzer.sol\":5788:6207  StatisticalAnalysis({... */\n      dup2\n      add\n        /* \"contracts/src/ArbitrageAnalyzer.sol\":676:682  10_000 */\n      swap6\n      dup7\n      mstore\n        /* \"contracts/src/ArbitrageAnalyzer.sol\":319:27441  contract ArbitrageAnalyzer {... */\n      0xa0\n        /* \"contracts/src/ArbitrageAnalyzer.sol\":5788:6207  StatisticalAnalysis({... */\n      dup2\n      add\n        /* \"contracts/src/ArbitrageAnalyzer.sol\":676:682  10_000 */\n      swap7\n      dup8\n      mstore\n        /* \"contracts/src/ArbitrageAnalyzer.sol\":319:27441  contract ArbitrageAnalyzer {... */\n      0xc0\n        /* \"contracts/src/ArbitrageAnalyzer.sol\":5788:6207  StatisticalAnalysis({... */\n      dup2\n      add\n        /* \"contracts/src/ArbitrageAnalyzer.sol\":676:682  10_000 */\n      swap8\n      dup9\n      mstore\n        /* \"contracts/src/ArbitrageAnalyzer.sol\":5788:6207  StatisticalAnalysis({... */\n      add\n        /* \"contracts/src/ArbitrageAnalyzer.sol\":676:682  10_000 */\n      swap7\n      dup8\n      mstore\n        /* \"contracts/src/ArbitrageAnalyzer.sol\":319:27441  contract ArbitrageAnalyzer {... */\n      mload(0x40)\n      swap8\n      dup9\n      mstore\n      mload\n      0x20\n      dup9\n      add\n      mstore\n      mload\n      0x40\n      dup8\n      add\n      mstore\n      mload\n      0x60\n      dup7\n      add\n      mstore\n      mload\n      0x80\n      dup6\n      add\n      mstore\n      mload\n      0xa0\n      dup5\n      add\n      mstore\n      mload\n      0xc0\n      dup4\n      add\n      mstore\n      mload\n      0xe0\n      dup3\n      add\n      mstore\n      return\n    tag_157:\n      mstore(0x00, shl(0xe0, 0x4e487b71))\n      mstore(0x04, 0x41)\n      revert(0x00, 0x24)\n        /* \"contracts/src/ArbitrageAnalyzer.sol\":5969:6015  minProfit == type(uint256).max ? 0 : minProfit */\n    tag_154:\n      swap1\n      jump(tag_156)\n        /* \"contracts/src/ArbitrageAnalyzer.sol\":21754:21757  i++ */\n    tag_148:\n        /* \"contracts/src/ArbitrageAnalyzer.sol\":21787:21796  trades[i] */\n      swap1\n        /* \"contracts/src/ArbitrageAnalyzer.sol\":21754:21757  i++ */\n      tag_159\n        /* \"contracts/src/ArbitrageAnalyzer.sol\":21787:21796  trades[i] */\n      swap3\n      pop\n      dup2\n      tag_160\n      swap2\n      dup13\n      tag_12\n      jump\t// in\n    tag_160:\n        /* \"contracts/src/ArbitrageAnalyzer.sol\":775:779  1000 */\n      calldataload\n        /* \"contracts/src/ArbitrageAnalyzer.sol\":21774:21803  profits[i] = trades[i].profit */\n      tag_161\n      dup3\n      dup6\n      tag_24\n      jump\t// in\n    tag_161:\n        /* \"contracts/src/ArbitrageAnalyzer.sol\":676:682  10_000 */\n      mstore\n        /* \"contracts/src/ArbitrageAnalyzer.sol\":21754:21757  i++ */\n      tag_11\n      jump\t// in\n    tag_159:\n        /* \"contracts/src/ArbitrageAnalyzer.sol\":21720:21733  uint256 i = 0 */\n      dup7\n      dup9\n      swap2\n      jump(tag_147)\n        /* \"contracts/src/ArbitrageAnalyzer.sol\":4827:4830  i++ */\n    tag_140:\n        /* \"contracts/src/ArbitrageAnalyzer.sol\":4862:4871  trades[i] */\n      swap6\n      swap1\n        /* \"contracts/src/ArbitrageAnalyzer.sol\":4847:4878  totalProfit += trades[i].profit */\n      tag_162\n        /* \"contracts/src/ArbitrageAnalyzer.sol\":4893:4926  totalGasUsed += trades[i].gasUsed */\n      tag_163\n        /* \"contracts/src/ArbitrageAnalyzer.sol\":4862:4871  trades[i] */\n      swap2\n      tag_120\n      dup10\n      dup10\n      dup13\n      tag_12\n      jump\t// in\n        /* \"contracts/src/ArbitrageAnalyzer.sol\":4847:4878  totalProfit += trades[i].profit */\n    tag_162:\n        /* \"contracts/src/ArbitrageAnalyzer.sol\":4909:4918  trades[i] */\n      swap2\n        /* \"contracts/src/ArbitrageAnalyzer.sol\":319:27441  contract ArbitrageAnalyzer {... */\n      0x20\n        /* \"contracts/src/ArbitrageAnalyzer.sol\":4909:4918  trades[i] */\n      tag_165\n      dup10\n      dup10\n      dup13\n      tag_12\n      jump\t// in\n    tag_165:\n        /* \"contracts/src/ArbitrageAnalyzer.sol\":4909:4926  trades[i].gasUsed */\n      add\n        /* \"contracts/src/ArbitrageAnalyzer.sol\":775:779  1000 */\n      calldataload\n        /* \"contracts/src/ArbitrageAnalyzer.sol\":4893:4926  totalGasUsed += trades[i].gasUsed */\n      swap1\n      tag_13\n      jump\t// in\n    tag_163:\n        /* \"contracts/src/ArbitrageAnalyzer.sol\":4947:4956  trades[i] */\n      swap6\n      tag_166\n      dup2\n      dup8\n      dup11\n      tag_12\n      jump\t// in\n    tag_166:\n        /* \"contracts/src/ArbitrageAnalyzer.sol\":775:779  1000 */\n      calldataload\n        /* \"contracts/src/ArbitrageAnalyzer.sol\":4943:5018  if (trades[i].profit > 0) {... */\n      tag_167\n      jumpi\n        /* \"contracts/src/ArbitrageAnalyzer.sol\":4827:4830  i++ */\n    tag_168:\n        /* \"contracts/src/ArbitrageAnalyzer.sol\":5038:5047  trades[i] */\n      dup4\n      tag_169\n      dup3\n      dup9\n      dup12\n      tag_12\n      jump\t// in\n    tag_169:\n        /* \"contracts/src/ArbitrageAnalyzer.sol\":775:779  1000 */\n      calldataload\n        /* \"contracts/src/ArbitrageAnalyzer.sol\":5038:5066  trades[i].profit < minProfit */\n      lt\n        /* \"contracts/src/ArbitrageAnalyzer.sol\":5034:5131  if (trades[i].profit < minProfit) {... */\n      tag_170\n      jumpi\n        /* \"contracts/src/ArbitrageAnalyzer.sol\":4827:4830  i++ */\n    tag_171:\n        /* \"contracts/src/ArbitrageAnalyzer.sol\":5149:5158  trades[i] */\n      dup3\n      tag_172\n      dup3\n      dup9\n      dup12\n      tag_12\n      jump\t// in\n    tag_172:\n        /* \"contracts/src/ArbitrageAnalyzer.sol\":775:779  1000 */\n      calldataload\n        /* \"contracts/src/ArbitrageAnalyzer.sol\":5149:5177  trades[i].profit > maxProfit */\n      gt\n        /* \"contracts/src/ArbitrageAnalyzer.sol\":5145:5242  if (trades[i].profit > maxProfit) {... */\n      tag_173\n      jumpi\n        /* \"contracts/src/ArbitrageAnalyzer.sol\":4827:4830  i++ */\n    tag_174:\n      tag_175\n      swap1\n      tag_11\n      jump\t// in\n    tag_175:\n        /* \"contracts/src/ArbitrageAnalyzer.sol\":4793:4806  uint256 i = 0 */\n      jump(tag_139)\n        /* \"contracts/src/ArbitrageAnalyzer.sol\":5145:5242  if (trades[i].profit > maxProfit) {... */\n    tag_173:\n        /* \"contracts/src/ArbitrageAnalyzer.sol\":5210:5219  trades[i] */\n      swap2\n      pop\n        /* \"contracts/src/ArbitrageAnalyzer.sol\":4827:4830  i++ */\n      tag_175\n        /* \"contracts/src/ArbitrageAnalyzer.sol\":5210:5219  trades[i] */\n      tag_176\n      dup4\n      dup8\n      dup11\n      tag_12\n      jump\t// in\n    tag_176:\n        /* \"contracts/src/ArbitrageAnalyzer.sol\":775:779  1000 */\n      calldataload\n        /* \"contracts/src/ArbitrageAnalyzer.sol\":5145:5242  if (trades[i].profit > maxProfit) {... */\n      swap3\n      swap1\n      pop\n      jump(tag_174)\n        /* \"contracts/src/ArbitrageAnalyzer.sol\":5034:5131  if (trades[i].profit < minProfit) {... */\n    tag_170:\n        /* \"contracts/src/ArbitrageAnalyzer.sol\":5099:5108  trades[i] */\n      swap3\n      pop\n      tag_177\n      dup4\n      dup7\n      dup10\n      tag_12\n      jump\t// in\n    tag_177:\n        /* \"contracts/src/ArbitrageAnalyzer.sol\":775:779  1000 */\n      calldataload\n        /* \"contracts/src/ArbitrageAnalyzer.sol\":5034:5131  if (trades[i].profit < minProfit) {... */\n      swap3\n      jump(tag_171)\n        /* \"contracts/src/ArbitrageAnalyzer.sol\":4943:5018  if (trades[i].profit > 0) {... */\n    tag_167:\n        /* \"contracts/src/ArbitrageAnalyzer.sol\":4988:5002  successCount++ */\n      swap4\n      tag_178\n      swap1\n      tag_11\n      jump\t// in\n    tag_178:\n        /* \"contracts/src/ArbitrageAnalyzer.sol\":4943:5018  if (trades[i].profit > 0) {... */\n      swap4\n      jump(tag_168)\n        /* \"contracts/src/ArbitrageAnalyzer.sol\":319:27441  contract ArbitrageAnalyzer {... */\n    tag_47:\n      jumpi(tag_63, callvalue)\n      jumpi(tag_63, slt(add(not(0x03), calldatasize), 0x0120))\n      calldataload(0x04)\n      calldataload(0x24)\n      swap1\n      calldataload(0x44)\n      calldataload(0x64)\n      swap3\n      calldataload(0x84)\n      calldataload(0xa4)\n      swap3\n      calldataload(0xc4)\n      swap1\n      calldataload(0xe4)\n      swap7\n      calldataload(0x0104)\n      swap2\n      mload(0x40)\n      tag_183\n      dup2\n      tag_8\n      jump\t// in\n    tag_183:\n      0x00\n      dup2\n      mstore\n      0x00\n      0x20\n      dup3\n      add\n      mstore\n      0x40\n      tag_184\n      tag_19\n      jump\t// in\n    tag_184:\n      swap2\n      add\n      mstore\n        /* \"contracts/src/ArbitrageAnalyzer.sol\":12649:12669  minBorrowAmount == 0 */\n      dup8\n      iszero\n        /* \"contracts/src/ArbitrageAnalyzer.sol\":12649:12693  minBorrowAmount == 0 || maxBorrowAmount == 0 */\n      dup1\n      iszero\n      tag_185\n      jumpi\n        /* \"contracts/src/ArbitrageAnalyzer.sol\":319:27441  contract ArbitrageAnalyzer {... */\n    tag_186:\n        /* \"contracts/src/ArbitrageAnalyzer.sol\":12645:12716  if (minBorrowAmount == 0 || maxBorrowAmount == 0) revert InvalidInput() */\n      tag_70\n      jumpi\n        /* \"contracts/src/ArbitrageAnalyzer.sol\":12731:12764  minBorrowAmount > maxBorrowAmount */\n      dup6\n      dup9\n      gt\n        /* \"contracts/src/ArbitrageAnalyzer.sol\":12727:12787  if (minBorrowAmount > maxBorrowAmount) revert InvalidInput() */\n      tag_70\n      jumpi\n        /* \"contracts/src/ArbitrageAnalyzer.sol\":12802:12811  step == 0 */\n      dup1\n      iszero\n        /* \"contracts/src/ArbitrageAnalyzer.sol\":12798:12834  if (step == 0) revert InvalidInput() */\n      tag_70\n      jumpi\n        /* \"contracts/src/ArbitrageAnalyzer.sol\":12849:12864  priceRatio == 0 */\n      dup2\n      iszero\n        /* \"contracts/src/ArbitrageAnalyzer.sol\":12845:12887  if (priceRatio == 0) revert InvalidInput() */\n      tag_70\n      jumpi\n        /* \"contracts/src/ArbitrageAnalyzer.sol\":319:27441  contract ArbitrageAnalyzer {... */\n      0x00\n      swap6\n        /* \"contracts/src/ArbitrageAnalyzer.sol\":12900:12921  uint256 maxProfit = 0 */\n      dup9\n      swap5\n      swap4\n      swap3\n      swap2\n      swap1\n      dup6\n        /* \"contracts/src/ArbitrageAnalyzer.sol\":13035:13061  current <= maxBorrowAmount */\n    tag_195:\n      dup2\n      dup2\n      gt\n      iszero\n      tag_196\n      jumpi\n        /* \"contracts/src/ArbitrageAnalyzer.sol\":13968:13995  optimalLeg1Out * priceRatio */\n      pop\n      pop\n      pop\n      swap1\n        /* \"contracts/src/ArbitrageAnalyzer.sol\":726:730  1e18 */\n      0x0de0b6b3a7640000\n        /* \"contracts/src/ArbitrageAnalyzer.sol\":13968:13995  optimalLeg1Out * priceRatio */\n      tag_198\n        /* \"contracts/src/ArbitrageAnalyzer.sol\":14072:14392  this... */\n      tag_199\n        /* \"contracts/src/ArbitrageAnalyzer.sol\":13968:13995  optimalLeg1Out * priceRatio */\n      swap4\n      dup7\n      tag_16\n      jump\t// in\n    tag_198:\n        /* \"contracts/src/ArbitrageAnalyzer.sol\":775:779  1000 */\n      div\n        /* \"contracts/src/ArbitrageAnalyzer.sol\":319:27441  contract ArbitrageAnalyzer {... */\n      swap9\n      mload(0x40)\n        /* \"contracts/src/ArbitrageAnalyzer.sol\":726:730  1e18 */\n      swap10\n      dup11\n      swap6\n      dup7\n      swap6\n      shl(0xe1, 0x212cc6e5)\n        /* \"contracts/src/ArbitrageAnalyzer.sol\":14072:14392  this... */\n      dup8\n      mstore\n        /* \"contracts/src/ArbitrageAnalyzer.sol\":13254:13608  this... */\n      0x01c0\n        /* \"contracts/src/ArbitrageAnalyzer.sol\":14072:14392  this... */\n      swap11\n      dup12\n      swap10\n      dup4\n        /* \"contracts/src/ArbitrageAnalyzer.sol\":319:27441  contract ArbitrageAnalyzer {... */\n      0x04\n        /* \"contracts/src/ArbitrageAnalyzer.sol\":14072:14392  this... */\n      dup11\n      add\n        /* \"contracts/src/ArbitrageAnalyzer.sol\":726:730  1e18 */\n      swap5\n      swap2\n      swap3\n      0xe0\n      swap7\n      swap4\n      swap10\n      swap9\n      swap8\n      swap5\n      swap2\n      swap10\n      0x0100\n      dup8\n      add\n        /* \"contracts/src/ArbitrageAnalyzer.sol\":319:27441  contract ArbitrageAnalyzer {... */\n      swap11\n      dup8\n      mstore\n        /* \"contracts/src/ArbitrageAnalyzer.sol\":726:730  1e18 */\n      0x20\n      dup8\n      add\n        /* \"contracts/src/ArbitrageAnalyzer.sol\":319:27441  contract ArbitrageAnalyzer {... */\n      mstore\n        /* \"contracts/src/ArbitrageAnalyzer.sol\":726:730  1e18 */\n      0x40\n      dup7\n      add\n        /* \"contracts/src/ArbitrageAnalyzer.sol\":319:27441  contract ArbitrageAnalyzer {... */\n      mstore\n        /* \"contracts/src/ArbitrageAnalyzer.sol\":726:730  1e18 */\n      0x60\n      dup6\n      add\n        /* \"contracts/src/ArbitrageAnalyzer.sol\":319:27441  contract ArbitrageAnalyzer {... */\n      mstore\n        /* \"contracts/src/ArbitrageAnalyzer.sol\":726:730  1e18 */\n      0x80\n      dup5\n      add\n        /* \"contracts/src/ArbitrageAnalyzer.sol\":319:27441  contract ArbitrageAnalyzer {... */\n      mstore\n        /* \"contracts/src/ArbitrageAnalyzer.sol\":726:730  1e18 */\n      0xa0\n      dup4\n      add\n        /* \"contracts/src/ArbitrageAnalyzer.sol\":319:27441  contract ArbitrageAnalyzer {... */\n      mstore\n        /* \"contracts/src/ArbitrageAnalyzer.sol\":726:730  1e18 */\n      0xc0\n      dup3\n      add\n        /* \"contracts/src/ArbitrageAnalyzer.sol\":319:27441  contract ArbitrageAnalyzer {... */\n      mstore\n        /* \"contracts/src/ArbitrageAnalyzer.sol\":726:730  1e18 */\n      add\n        /* \"contracts/src/ArbitrageAnalyzer.sol\":319:27441  contract ArbitrageAnalyzer {... */\n      mstore\n        /* \"contracts/src/ArbitrageAnalyzer.sol\":726:730  1e18 */\n      jump\n        /* \"contracts/src/ArbitrageAnalyzer.sol\":14072:14392  this... */\n    tag_199:\n      sub\n        /* \"contracts/src/ArbitrageAnalyzer.sol\":13254:13258  this */\n      dup2\n        /* \"contracts/src/ArbitrageAnalyzer.sol\":319:27441  contract ArbitrageAnalyzer {... */\n      0x00\n        /* \"contracts/src/ArbitrageAnalyzer.sol\":13254:13258  this */\n      address\n        /* \"contracts/src/ArbitrageAnalyzer.sol\":14072:14392  this... */\n      gas\n      call\n      swap1\n      dup2\n      iszero\n      tag_200\n      jumpi\n        /* \"contracts/src/ArbitrageAnalyzer.sol\":319:27441  contract ArbitrageAnalyzer {... */\n      0x0200\n        /* \"contracts/src/ArbitrageAnalyzer.sol\":14072:14392  this... */\n      swap5\n        /* \"contracts/src/ArbitrageAnalyzer.sol\":319:27441  contract ArbitrageAnalyzer {... */\n      tag_202\n        /* \"contracts/src/ArbitrageAnalyzer.sol\":14072:14392  this... */\n      swap4\n        /* \"contracts/src/ArbitrageAnalyzer.sol\":319:27441  contract ArbitrageAnalyzer {... */\n      0x00\n        /* \"contracts/src/ArbitrageAnalyzer.sol\":14072:14392  this... */\n      swap4\n      tag_203\n      jumpi\n        /* \"contracts/src/ArbitrageAnalyzer.sol\":13028:13821  while (current <= maxBorrowAmount) {... */\n    tag_204:\n        /* \"contracts/src/ArbitrageAnalyzer.sol\":319:27441  contract ArbitrageAnalyzer {... */\n      pop\n      pop\n      0x40\n      dup1\n      mload\n      tag_205\n      dup2\n      tag_8\n      jump\t// in\n    tag_205:\n        /* \"contracts/src/ArbitrageAnalyzer.sol\":676:682  10_000 */\n      dup6\n      dup2\n      mstore\n        /* \"contracts/src/ArbitrageAnalyzer.sol\":319:27441  contract ArbitrageAnalyzer {... */\n      0x20\n        /* \"contracts/src/ArbitrageAnalyzer.sol\":14425:14599  OptimalBorrowResult({... */\n      dup2\n      add\n        /* \"contracts/src/ArbitrageAnalyzer.sol\":676:682  10_000 */\n      swap3\n      dup4\n      mstore\n        /* \"contracts/src/ArbitrageAnalyzer.sol\":14425:14599  OptimalBorrowResult({... */\n      add\n        /* \"contracts/src/ArbitrageAnalyzer.sol\":676:682  10_000 */\n      swap2\n      dup3\n      mstore\n        /* \"contracts/src/ArbitrageAnalyzer.sol\":319:27441  contract ArbitrageAnalyzer {... */\n      mload(0x40)\n      swap4\n      dup5\n      mstore\n      mload\n      0x20\n      dup5\n      add\n      mstore\n      mload\n      0x40\n      dup4\n      add\n      swap1\n      tag_5\n      jump\t// in\n    tag_202:\n      return\n        /* \"contracts/src/ArbitrageAnalyzer.sol\":14072:14392  this... */\n    tag_203:\n      tag_206\n      swap3\n      swap4\n      pop\n      dup1\n      returndatasize\n      lt\n      tag_207\n      jumpi\n    tag_208:\n      tag_209\n      dup2\n      dup4\n      tag_10\n      jump\t// in\n    tag_209:\n      dup2\n      add\n      swap1\n      tag_20\n      jump\t// in\n    tag_206:\n      swap1\n      dup6\n      dup1\n      jump(tag_204)\n    tag_207:\n      pop\n      returndatasize\n      jump(tag_208)\n    tag_200:\n        /* \"contracts/src/ArbitrageAnalyzer.sol\":319:27441  contract ArbitrageAnalyzer {... */\n      mload(0x40)\n        /* \"contracts/src/ArbitrageAnalyzer.sol\":726:730  1e18 */\n      returndatasize\n        /* \"contracts/src/ArbitrageAnalyzer.sol\":319:27441  contract ArbitrageAnalyzer {... */\n      0x00\n        /* \"contracts/src/ArbitrageAnalyzer.sol\":726:730  1e18 */\n      dup3\n      returndatacopy\n      returndatasize\n      swap1\n      revert\n        /* \"contracts/src/ArbitrageAnalyzer.sol\":13028:13821  while (current <= maxBorrowAmount) {... */\n    tag_196:\n        /* \"contracts/src/ArbitrageAnalyzer.sol\":13151:13178  currentLeg1Out * priceRatio */\n      swap1\n      swap2\n      swap3\n      swap4\n      swap5\n      swap6\n      pop\n      dup9\n      dup12\n      dup9\n      dup4\n      dup10\n        /* \"contracts/src/ArbitrageAnalyzer.sol\":13254:13608  this... */\n      tag_210\n        /* \"contracts/src/ArbitrageAnalyzer.sol\":13151:13178  currentLeg1Out * priceRatio */\n      dup11\n        /* \"contracts/src/ArbitrageAnalyzer.sol\":726:730  1e18 */\n      0x0de0b6b3a7640000\n        /* \"contracts/src/ArbitrageAnalyzer.sol\":13151:13178  currentLeg1Out * priceRatio */\n      tag_211\n      dup13\n      dup7\n      tag_16\n      jump\t// in\n    tag_211:\n        /* \"contracts/src/ArbitrageAnalyzer.sol\":775:779  1000 */\n      div\n        /* \"contracts/src/ArbitrageAnalyzer.sol\":319:27441  contract ArbitrageAnalyzer {... */\n      swap6\n      mload(0x40)\n        /* \"contracts/src/ArbitrageAnalyzer.sol\":726:730  1e18 */\n      swap7\n      dup8\n      swap6\n      dup7\n      swap6\n      shl(0xe1, 0x212cc6e5)\n        /* \"contracts/src/ArbitrageAnalyzer.sol\":13254:13608  this... */\n      dup8\n      mstore\n      0x01c0\n      swap11\n      dup12\n      swap10\n      dup4\n        /* \"contracts/src/ArbitrageAnalyzer.sol\":319:27441  contract ArbitrageAnalyzer {... */\n      0x04\n        /* \"contracts/src/ArbitrageAnalyzer.sol\":13254:13608  this... */\n      dup11\n      add\n        /* \"contracts/src/ArbitrageAnalyzer.sol\":726:730  1e18 */\n      swap5\n      swap2\n      swap3\n      0xe0\n      swap7\n      swap4\n      swap10\n      swap9\n      swap8\n      swap5\n      swap2\n      swap10\n      0x0100\n      dup8\n      add\n        /* \"contracts/src/ArbitrageAnalyzer.sol\":319:27441  contract ArbitrageAnalyzer {... */\n      swap11\n      dup8\n      mstore\n        /* \"contracts/src/ArbitrageAnalyzer.sol\":726:730  1e18 */\n      0x20\n      dup8\n      add\n        /* \"contracts/src/ArbitrageAnalyzer.sol\":319:27441  contract ArbitrageAnalyzer {... */\n      mstore\n        /* \"contracts/src/ArbitrageAnalyzer.sol\":726:730  1e18 */\n      0x40\n      dup7\n      add\n        /* \"contracts/src/ArbitrageAnalyzer.sol\":319:27441  contract ArbitrageAnalyzer {... */\n      mstore\n        /* \"contracts/src/ArbitrageAnalyzer.sol\":726:730  1e18 */\n      0x60\n      dup6\n      add\n        /* \"contracts/src/ArbitrageAnalyzer.sol\":319:27441  contract ArbitrageAnalyzer {... */\n      mstore\n        /* \"contracts/src/ArbitrageAnalyzer.sol\":726:730  1e18 */\n      0x80\n      dup5\n      add\n        /* \"contracts/src/ArbitrageAnalyzer.sol\":319:27441  contract ArbitrageAnalyzer {... */\n      mstore\n        /* \"contracts/src/ArbitrageAnalyzer.sol\":726:730  1e18 */\n      0xa0\n      dup4\n      add\n        /* \"contracts/src/ArbitrageAnalyzer.sol\":319:27441  contract ArbitrageAnalyzer {... */\n      mstore\n        /* \"contracts/src/ArbitrageAnalyzer.sol\":726:730  1e18 */\n      0xc0\n      dup3\n      add\n        /* \"contracts/src/ArbitrageAnalyzer.sol\":319:27441  contract ArbitrageAnalyzer {... */\n      mstore\n        /* \"contracts/src/ArbitrageAnalyzer.sol\":726:730  1e18 */\n      add\n        /* \"contracts/src/ArbitrageAnalyzer.sol\":319:27441  contract ArbitrageAnalyzer {... */\n      mstore\n        /* \"contracts/src/ArbitrageAnalyzer.sol\":726:730  1e18 */\n      jump\n        /* \"contracts/src/ArbitrageAnalyzer.sol\":13254:13608  this... */\n    tag_210:\n      sub\n        /* \"contracts/src/ArbitrageAnalyzer.sol\":13254:13258  this */\n      dup2\n        /* \"contracts/src/ArbitrageAnalyzer.sol\":319:27441  contract ArbitrageAnalyzer {... */\n      0x00\n        /* \"contracts/src/ArbitrageAnalyzer.sol\":13254:13258  this */\n      address\n        /* \"contracts/src/ArbitrageAnalyzer.sol\":13254:13608  this... */\n      gas\n      call\n      swap1\n      dup2\n      iszero\n      tag_200\n      jumpi\n        /* \"contracts/src/ArbitrageAnalyzer.sol\":319:27441  contract ArbitrageAnalyzer {... */\n      0xe0\n        /* \"contracts/src/ArbitrageAnalyzer.sol\":13254:13608  this... */\n      swap3\n        /* \"contracts/src/ArbitrageAnalyzer.sol\":319:27441  contract ArbitrageAnalyzer {... */\n      0x00\n        /* \"contracts/src/ArbitrageAnalyzer.sol\":13254:13608  this... */\n      swap3\n      tag_214\n      jumpi\n        /* \"contracts/src/ArbitrageAnalyzer.sol\":13028:13821  while (current <= maxBorrowAmount) {... */\n    tag_215:\n        /* \"contracts/src/ArbitrageAnalyzer.sol\":13629:13652  profitability.netProfit */\n      pop\n      pop\n      add\n        /* \"contracts/src/ArbitrageAnalyzer.sol\":726:730  1e18 */\n      mload\n        /* \"contracts/src/ArbitrageAnalyzer.sol\":13629:13664  profitability.netProfit > maxProfit */\n      dup9\n      dup2\n      gt\n        /* \"contracts/src/ArbitrageAnalyzer.sol\":13625:13778  if (profitability.netProfit > maxProfit) {... */\n      tag_216\n      jumpi\n        /* \"contracts/src/ArbitrageAnalyzer.sol\":13028:13821  while (current <= maxBorrowAmount) {... */\n    tag_217:\n        /* \"contracts/src/ArbitrageAnalyzer.sol\":13794:13809  current += step */\n      pop\n      dup3\n      tag_218\n      swap2\n      tag_13\n      jump\t// in\n    tag_218:\n        /* \"contracts/src/ArbitrageAnalyzer.sol\":13028:13821  while (current <= maxBorrowAmount) {... */\n      swap1\n      dup10\n      swap6\n      swap5\n      swap4\n      swap3\n      swap2\n      jump(tag_195)\n        /* \"contracts/src/ArbitrageAnalyzer.sol\":13625:13778  if (profitability.netProfit > maxProfit) {... */\n    tag_216:\n        /* \"contracts/src/ArbitrageAnalyzer.sol\":13685:13720  maxProfit = profitability.netProfit */\n      swap1\n      swap10\n      pop\n      swap7\n      pop\n      dup9\n        /* \"contracts/src/ArbitrageAnalyzer.sol\":13739:13762  optimalAmount = current */\n      dup3\n        /* \"contracts/src/ArbitrageAnalyzer.sol\":13625:13778  if (profitability.netProfit > maxProfit) {... */\n      jump(tag_217)\n        /* \"contracts/src/ArbitrageAnalyzer.sol\":13254:13608  this... */\n    tag_214:\n      tag_219\n      swap3\n      pop\n      dup1\n      returndatasize\n      lt\n      tag_207\n      jumpi\n      tag_209\n      dup2\n      dup4\n      tag_10\n      jump\t// in\n    tag_219:\n      dup14\n      dup1\n      jump(tag_215)\n        /* \"contracts/src/ArbitrageAnalyzer.sol\":12649:12693  minBorrowAmount == 0 || maxBorrowAmount == 0 */\n    tag_185:\n        /* \"contracts/src/ArbitrageAnalyzer.sol\":12673:12693  maxBorrowAmount == 0 */\n      pop\n      dup6\n      iszero\n        /* \"contracts/src/ArbitrageAnalyzer.sol\":12649:12693  minBorrowAmount == 0 || maxBorrowAmount == 0 */\n      jump(tag_186)\n        /* \"contracts/src/ArbitrageAnalyzer.sol\":319:27441  contract ArbitrageAnalyzer {... */\n    tag_45:\n      jumpi(tag_63, callvalue)\n      jumpi(tag_63, slt(add(not(0x03), calldatasize), 0xe0))\n      sub(shl(0x40, 0x01), 0x01)\n      calldataload(0x44)\n      dup2\n      dup2\n      gt\n      tag_63\n      jumpi\n      tag_229\n      swap1\n      calldatasize\n      swap1\n      0x04\n      add\n      tag_3\n      jump\t// in\n    tag_229:\n      swap2\n      calldataload(0x64)\n      swap1\n      dup2\n      gt\n      tag_63\n      jumpi\n      tag_232\n      swap1\n      calldatasize\n      swap1\n      0x04\n      add\n      tag_3\n      jump\t// in\n    tag_232:\n        /* \"contracts/src/ArbitrageAnalyzer.sol\":15513:15534  gasPrices.length == 0 */\n      dup4\n      swap3\n      swap2\n      swap3\n      iszero\n        /* \"contracts/src/ArbitrageAnalyzer.sol\":15513:15567  gasPrices.length == 0 || flashLoanPremiums.length == 0 */\n      dup1\n      iszero\n      tag_233\n      jumpi\n        /* \"contracts/src/ArbitrageAnalyzer.sol\":319:27441  contract ArbitrageAnalyzer {... */\n    tag_234:\n        /* \"contracts/src/ArbitrageAnalyzer.sol\":15509:15603  if (gasPrices.length == 0 || flashLoanPremiums.length == 0)... */\n      tag_70\n      jumpi\n        /* \"contracts/src/ArbitrageAnalyzer.sol\":15638:15681  gasPrices.length * flashLoanPremiums.length */\n      tag_237\n      dup2\n      dup6\n      tag_16\n      jump\t// in\n    tag_237:\n        /* \"contracts/src/ArbitrageAnalyzer.sol\":319:27441  contract ArbitrageAnalyzer {... */\n      swap3\n      tag_238\n      dup5\n      tag_22\n      jump\t// in\n    tag_238:\n      swap5\n      tag_239\n      mload(0x40)\n      swap7\n      dup8\n      tag_10\n      jump\t// in\n    tag_239:\n      dup5\n      dup7\n      mstore\n      not(0x1f)\n      tag_240\n      dup7\n      tag_22\n      jump\t// in\n    tag_240:\n      add\n      0x00\n    tag_241:\n      dup2\n      dup2\n      lt\n      tag_242\n      jumpi\n        /* \"contracts/src/ArbitrageAnalyzer.sol\":15802:15817  uint256 idx = 0 */\n      pop\n      pop\n        /* \"contracts/src/ArbitrageAnalyzer.sol\":319:27441  contract ArbitrageAnalyzer {... */\n      0x00\n      dup1\n        /* \"contracts/src/ArbitrageAnalyzer.sol\":15848:15868  i < gasPrices.length */\n    tag_244:\n      dup3\n      dup2\n      lt\n      tag_245\n      jumpi\n        /* \"contracts/src/ArbitrageAnalyzer.sol\":319:27441  contract ArbitrageAnalyzer {... */\n      dup7\n      dup9\n      mload(0x40)\n      swap2\n      dup3\n      mstore\n        /* \"contracts/src/ArbitrageAnalyzer.sol\":17131:17172  SensitivityAnalysisPerformed(resultCount) */\n      0x2218b4fcf560dd36c548fb0ac486b85c68763a82fff0cafe334e2f44be6f3e50\n        /* \"contracts/src/ArbitrageAnalyzer.sol\":319:27441  contract ArbitrageAnalyzer {... */\n      0x20\n        /* \"contracts/src/ArbitrageAnalyzer.sol\":17131:17172  SensitivityAnalysisPerformed(resultCount) */\n      dup1\n      swap4\n      log1\n        /* \"contracts/src/ArbitrageAnalyzer.sol\":319:27441  contract ArbitrageAnalyzer {... */\n      mload(0x40)\n      swap1\n      dup3\n      dup3\n      add\n      dup4\n      dup4\n      mstore\n      dup2\n      mload\n      dup1\n      swap2\n      mstore\n      dup4\n      0x40\n      dup5\n      add\n      swap3\n      add\n      swap4\n      0x00\n    tag_247:\n      dup3\n      dup2\n      lt\n      tag_248\n      jumpi\n      dup5\n      dup5\n      sub\n      dup6\n      return\n    tag_248:\n      swap1\n      swap2\n      swap3\n      dup3\n      0x80\n      dup3\n      tag_250\n      0x01\n      swap5\n      dup11\n      mload\n      0x60\n      dup1\n      swap2\n      dup1\n      mload\n      dup5\n      mstore\n      0x20\n      dup2\n      add\n      mload\n      0x20\n      dup6\n      add\n      mstore\n      0x40\n      dup2\n      add\n      mload\n      0x40\n      dup6\n      add\n      mstore\n      add\n      mload\n      swap2\n      add\n      mstore\n      jump\n    tag_250:\n      add\n      swap7\n      add\n      swap2\n      add\n      swap5\n      swap3\n      swap2\n      swap1\n      swap5\n      jump(tag_247)\n        /* \"contracts/src/ArbitrageAnalyzer.sol\":15870:15873  i++ */\n    tag_245:\n        /* \"contracts/src/ArbitrageAnalyzer.sol\":319:27441  contract ArbitrageAnalyzer {... */\n      0x00\n        /* \"contracts/src/ArbitrageAnalyzer.sol\":15910:15938  j < flashLoanPremiums.length */\n    tag_251:\n      dup6\n      dup2\n      lt\n      tag_252\n      jumpi\n        /* \"contracts/src/ArbitrageAnalyzer.sol\":15870:15873  i++ */\n      pop\n      tag_254\n      swap1\n      tag_11\n      jump\t// in\n    tag_254:\n        /* \"contracts/src/ArbitrageAnalyzer.sol\":15833:15846  uint256 i = 0 */\n      jump(tag_244)\n        /* \"contracts/src/ArbitrageAnalyzer.sol\":15940:15943  j++ */\n    tag_252:\n        /* \"contracts/src/ArbitrageAnalyzer.sol\":319:27441  contract ArbitrageAnalyzer {... */\n      swap2\n        /* \"contracts/src/ArbitrageAnalyzer.sol\":16407:16520  gasCost +... */\n      tag_255\n        /* \"contracts/src/ArbitrageAnalyzer.sol\":15982:16013  gasPrices[i] * gasUnitsEstimate */\n      tag_256\n        /* \"contracts/src/ArbitrageAnalyzer.sol\":319:27441  contract ArbitrageAnalyzer {... */\n      calldataload(0x84)\n        /* \"contracts/src/ArbitrageAnalyzer.sol\":15982:15994  gasPrices[i] */\n      tag_257\n      dup6\n      dup9\n      dup13\n      tag_23\n      jump\t// in\n    tag_257:\n        /* \"contracts/src/ArbitrageAnalyzer.sol\":775:779  1000 */\n      calldataload\n        /* \"contracts/src/ArbitrageAnalyzer.sol\":15982:16013  gasPrices[i] * gasUnitsEstimate */\n      tag_16\n      jump\t// in\n    tag_256:\n        /* \"contracts/src/ArbitrageAnalyzer.sol\":16407:16484  gasCost +... */\n      tag_261\n        /* \"contracts/src/ArbitrageAnalyzer.sol\":676:682  10_000 */\n      0x2710\n        /* \"contracts/src/ArbitrageAnalyzer.sol\":16056:16116  baseBorrowAmount *... */\n      tag_259\n        /* \"contracts/src/ArbitrageAnalyzer.sol\":16096:16116  flashLoanPremiums[j] */\n      tag_260\n      dup9\n      dup13\n      dup13\n      tag_23\n      jump\t// in\n    tag_260:\n        /* \"contracts/src/ArbitrageAnalyzer.sol\":775:779  1000 */\n      calldataload\n        /* \"contracts/src/ArbitrageAnalyzer.sol\":319:27441  contract ArbitrageAnalyzer {... */\n      calldataload(0x24)\n        /* \"contracts/src/ArbitrageAnalyzer.sol\":16056:16116  baseBorrowAmount *... */\n      tag_16\n      jump\t// in\n    tag_259:\n        /* \"contracts/src/ArbitrageAnalyzer.sol\":775:779  1000 */\n      div\n        /* \"contracts/src/ArbitrageAnalyzer.sol\":16407:16450  gasCost +... */\n      tag_261\n        /* \"contracts/src/ArbitrageAnalyzer.sol\":676:682  10_000 */\n      0x2710\n        /* \"contracts/src/ArbitrageAnalyzer.sol\":16176:16208  baseBorrowAmount * builderTipBps */\n      tag_262\n        /* \"contracts/src/ArbitrageAnalyzer.sol\":319:27441  contract ArbitrageAnalyzer {... */\n      calldataload(0xa4)\n      calldataload(0x24)\n        /* \"contracts/src/ArbitrageAnalyzer.sol\":16176:16208  baseBorrowAmount * builderTipBps */\n      tag_16\n      jump\t// in\n    tag_262:\n        /* \"contracts/src/ArbitrageAnalyzer.sol\":775:779  1000 */\n      div\n        /* \"contracts/src/ArbitrageAnalyzer.sol\":319:27441  contract ArbitrageAnalyzer {... */\n      swap2\n        /* \"contracts/src/ArbitrageAnalyzer.sol\":676:682  10_000 */\n      0x2710\n        /* \"contracts/src/ArbitrageAnalyzer.sol\":16291:16325  baseBorrowAmount * safetyBufferBps */\n      tag_263\n        /* \"contracts/src/ArbitrageAnalyzer.sol\":319:27441  contract ArbitrageAnalyzer {... */\n      calldataload(0xc4)\n      calldataload(0x24)\n        /* \"contracts/src/ArbitrageAnalyzer.sol\":16291:16325  baseBorrowAmount * safetyBufferBps */\n      tag_16\n      jump\t// in\n    tag_263:\n        /* \"contracts/src/ArbitrageAnalyzer.sol\":775:779  1000 */\n      div\n        /* \"contracts/src/ArbitrageAnalyzer.sol\":16407:16450  gasCost +... */\n      swap5\n      tag_13\n      jump\t// in\n    tag_261:\n        /* \"contracts/src/ArbitrageAnalyzer.sol\":16407:16484  gasCost +... */\n      tag_13\n      jump\t// in\n        /* \"contracts/src/ArbitrageAnalyzer.sol\":16407:16520  gasCost +... */\n    tag_255:\n        /* \"contracts/src/ArbitrageAnalyzer.sol\":319:27441  contract ArbitrageAnalyzer {... */\n      dup1\n      calldataload(0x04)\n        /* \"contracts/src/ArbitrageAnalyzer.sol\":16559:16582  baseProfit > totalCosts */\n      gt\n        /* \"contracts/src/ArbitrageAnalyzer.sol\":16559:16654  baseProfit > totalCosts... */\n      0x00\n        /* \"contracts/src/ArbitrageAnalyzer.sol\":16559:16582  baseProfit > totalCosts */\n      eq\n      tag_264\n      jumpi\n        /* \"contracts/src/ArbitrageAnalyzer.sol\":16606:16629  baseProfit - totalCosts */\n      tag_266\n        /* \"contracts/src/ArbitrageAnalyzer.sol\":319:27441  contract ArbitrageAnalyzer {... */\n      swap1\n      calldataload(0x04)\n        /* \"contracts/src/ArbitrageAnalyzer.sol\":16606:16629  baseProfit - totalCosts */\n      tag_17\n      jump\t// in\n    tag_266:\n        /* \"contracts/src/ArbitrageAnalyzer.sol\":319:27441  contract ArbitrageAnalyzer {... */\n      calldataload(0x24)\n        /* \"contracts/src/ArbitrageAnalyzer.sol\":16687:16707  baseBorrowAmount > 0 */\n      iszero\n        /* \"contracts/src/ArbitrageAnalyzer.sol\":319:27441  contract ArbitrageAnalyzer {... */\n      tag_268\n      jumpi\n        /* \"contracts/src/ArbitrageAnalyzer.sol\":676:682  10_000 */\n      dup1\n      0x2710\n      dup2\n      mul\n      div\n      0x2710\n      eq\n      dup2\n      iszero\n      or\n      iszero\n      tag_94\n      jumpi\n        /* \"contracts/src/ArbitrageAnalyzer.sol\":15940:15943  j++ */\n      tag_272\n        /* \"contracts/src/ArbitrageAnalyzer.sol\":319:27441  contract ArbitrageAnalyzer {... */\n      swap2\n        /* \"contracts/src/ArbitrageAnalyzer.sol\":17082:17087  idx++ */\n      tag_273\n        /* \"contracts/src/ArbitrageAnalyzer.sol\":319:27441  contract ArbitrageAnalyzer {... */\n      swap2\n        /* \"contracts/src/ArbitrageAnalyzer.sol\":16731:16779  (netProfit * BPS_DENOMINATOR) / baseBorrowAmount */\n      tag_274\n        /* \"contracts/src/ArbitrageAnalyzer.sol\":319:27441  contract ArbitrageAnalyzer {... */\n      calldataload(0x24)\n        /* \"contracts/src/ArbitrageAnalyzer.sol\":676:682  10_000 */\n      0x2710\n      dup4\n      mul\n        /* \"contracts/src/ArbitrageAnalyzer.sol\":16731:16779  (netProfit * BPS_DENOMINATOR) / baseBorrowAmount */\n      tag_14\n      jump\t// in\n    tag_274:\n        /* \"contracts/src/ArbitrageAnalyzer.sol\":16891:16903  gasPrices[i] */\n      tag_276\n      dup7\n      dup10\n      dup14\n      tag_23\n      jump\t// in\n    tag_276:\n        /* \"contracts/src/ArbitrageAnalyzer.sol\":775:779  1000 */\n      calldataload\n        /* \"contracts/src/ArbitrageAnalyzer.sol\":16947:16967  flashLoanPremiums[j] */\n      swap2\n      tag_277\n      dup9\n      dup13\n      dup13\n      tag_23\n      jump\t// in\n    tag_277:\n        /* \"contracts/src/ArbitrageAnalyzer.sol\":775:779  1000 */\n      calldataload\n        /* \"contracts/src/ArbitrageAnalyzer.sol\":319:27441  contract ArbitrageAnalyzer {... */\n      mload(0x40)\n      swap4\n      tag_278\n      dup6\n      tag_7\n      jump\t// in\n    tag_278:\n        /* \"contracts/src/ArbitrageAnalyzer.sol\":676:682  10_000 */\n      dup5\n      mstore\n        /* \"contracts/src/ArbitrageAnalyzer.sol\":319:27441  contract ArbitrageAnalyzer {... */\n      0x20\n        /* \"contracts/src/ArbitrageAnalyzer.sol\":16840:17061  SensitivityResult({... */\n      dup5\n      add\n        /* \"contracts/src/ArbitrageAnalyzer.sol\":676:682  10_000 */\n      mstore\n        /* \"contracts/src/ArbitrageAnalyzer.sol\":319:27441  contract ArbitrageAnalyzer {... */\n      0x40\n        /* \"contracts/src/ArbitrageAnalyzer.sol\":16840:17061  SensitivityResult({... */\n      dup4\n      add\n        /* \"contracts/src/ArbitrageAnalyzer.sol\":676:682  10_000 */\n      mstore\n        /* \"contracts/src/ArbitrageAnalyzer.sol\":319:27441  contract ArbitrageAnalyzer {... */\n      0x60\n        /* \"contracts/src/ArbitrageAnalyzer.sol\":16840:17061  SensitivityResult({... */\n      dup3\n      add\n        /* \"contracts/src/ArbitrageAnalyzer.sol\":676:682  10_000 */\n      mstore\n        /* \"contracts/src/ArbitrageAnalyzer.sol\":16825:17061  results[idx] = SensitivityResult({... */\n      tag_279\n      dup3\n      dup14\n      tag_24\n      jump\t// in\n    tag_279:\n      mstore\n      tag_102\n      dup2\n      dup13\n      tag_24\n      jump\t// in\n        /* \"contracts/src/ArbitrageAnalyzer.sol\":17082:17087  idx++ */\n    tag_273:\n        /* \"contracts/src/ArbitrageAnalyzer.sol\":15940:15943  j++ */\n      swap3\n      tag_11\n      jump\t// in\n    tag_272:\n        /* \"contracts/src/ArbitrageAnalyzer.sol\":15895:15908  uint256 j = 0 */\n      jump(tag_251)\n        /* \"contracts/src/ArbitrageAnalyzer.sol\":16687:16804  baseBorrowAmount > 0... */\n    tag_268:\n        /* \"contracts/src/ArbitrageAnalyzer.sol\":15940:15943  j++ */\n      tag_272\n        /* \"contracts/src/ArbitrageAnalyzer.sol\":16687:16804  baseBorrowAmount > 0... */\n      swap2\n        /* \"contracts/src/ArbitrageAnalyzer.sol\":17082:17087  idx++ */\n      tag_273\n        /* \"contracts/src/ArbitrageAnalyzer.sol\":16687:16804  baseBorrowAmount > 0... */\n      swap2\n        /* \"contracts/src/ArbitrageAnalyzer.sol\":319:27441  contract ArbitrageAnalyzer {... */\n      0x00\n        /* \"contracts/src/ArbitrageAnalyzer.sol\":16687:16804  baseBorrowAmount > 0... */\n      jump(tag_274)\n        /* \"contracts/src/ArbitrageAnalyzer.sol\":16559:16654  baseProfit > totalCosts... */\n    tag_264:\n      pop\n        /* \"contracts/src/ArbitrageAnalyzer.sol\":319:27441  contract ArbitrageAnalyzer {... */\n      0x00\n        /* \"contracts/src/ArbitrageAnalyzer.sol\":16559:16654  baseProfit > totalCosts... */\n      jump(tag_266)\n        /* \"contracts/src/ArbitrageAnalyzer.sol\":319:27441  contract ArbitrageAnalyzer {... */\n    tag_242:\n      0x20\n      swap1\n      tag_281\n      tag_18\n      jump\t// in\n    tag_281:\n      dup3\n      dup3\n      dup12\n      add\n      add\n      mstore\n      add\n      jump(tag_241)\n        /* \"contracts/src/ArbitrageAnalyzer.sol\":15513:15567  gasPrices.length == 0 || flashLoanPremiums.length == 0 */\n    tag_233:\n        /* \"contracts/src/ArbitrageAnalyzer.sol\":15538:15567  flashLoanPremiums.length == 0 */\n      pop\n      dup1\n      iszero\n        /* \"contracts/src/ArbitrageAnalyzer.sol\":15513:15567  gasPrices.length == 0 || flashLoanPremiums.length == 0 */\n      jump(tag_234)\n        /* \"contracts/src/ArbitrageAnalyzer.sol\":319:27441  contract ArbitrageAnalyzer {... */\n    tag_43:\n      jumpi(tag_63, callvalue)\n      jumpi(tag_63, slt(add(not(0x03), calldatasize), 0x0100))\n      calldataload(0xa4)\n      calldataload(0x04)\n      tag_286\n      tag_19\n      jump\t// in\n    tag_286:\n      pop\n        /* \"contracts/src/ArbitrageAnalyzer.sol\":9387:9404  borrowAmount == 0 */\n      dup1\n      iszero\n        /* \"contracts/src/ArbitrageAnalyzer.sol\":9383:9427  if (borrowAmount == 0) revert InvalidInput() */\n      tag_70\n      jumpi\n        /* \"contracts/src/ArbitrageAnalyzer.sol\":319:27441  contract ArbitrageAnalyzer {... */\n      calldataload(0x84)\n        /* \"contracts/src/ArbitrageAnalyzer.sol\":9442:9460  leg1AmountOut == 0 */\n      iszero\n        /* \"contracts/src/ArbitrageAnalyzer.sol\":9442:9482  leg1AmountOut == 0 || leg2AmountOut == 0 */\n      dup1\n      iszero\n      tag_289\n      jumpi\n        /* \"contracts/src/ArbitrageAnalyzer.sol\":319:27441  contract ArbitrageAnalyzer {... */\n    tag_290:\n        /* \"contracts/src/ArbitrageAnalyzer.sol\":9438:9505  if (leg1AmountOut == 0 || leg2AmountOut == 0) revert InvalidInput() */\n      tag_70\n      jumpi\n        /* \"contracts/src/ArbitrageAnalyzer.sol\":676:682  10_000 */\n      0x2710\n        /* \"contracts/src/ArbitrageAnalyzer.sol\":9570:9604  borrowAmount * flashLoanPremiumBps */\n      tag_293\n        /* \"contracts/src/ArbitrageAnalyzer.sol\":319:27441  contract ArbitrageAnalyzer {... */\n      calldataload(0x24)\n        /* \"contracts/src/ArbitrageAnalyzer.sol\":9570:9604  borrowAmount * flashLoanPremiumBps */\n      dup4\n      tag_16\n      jump\t// in\n    tag_293:\n        /* \"contracts/src/ArbitrageAnalyzer.sol\":775:779  1000 */\n      div\n        /* \"contracts/src/ArbitrageAnalyzer.sol\":9665:9692  gasPrice * gasUnitsEstimate */\n      tag_294\n        /* \"contracts/src/ArbitrageAnalyzer.sol\":319:27441  contract ArbitrageAnalyzer {... */\n      calldataload(0x64)\n      calldataload(0x44)\n        /* \"contracts/src/ArbitrageAnalyzer.sol\":9665:9692  gasPrice * gasUnitsEstimate */\n      tag_16\n      jump\t// in\n    tag_294:\n        /* \"contracts/src/ArbitrageAnalyzer.sol\":319:27441  contract ArbitrageAnalyzer {... */\n      swap1\n        /* \"contracts/src/ArbitrageAnalyzer.sol\":676:682  10_000 */\n      0x2710\n        /* \"contracts/src/ArbitrageAnalyzer.sol\":9725:9753  borrowAmount * builderTipBps */\n      tag_295\n        /* \"contracts/src/ArbitrageAnalyzer.sol\":319:27441  contract ArbitrageAnalyzer {... */\n      calldataload(0xc4)\n        /* \"contracts/src/ArbitrageAnalyzer.sol\":9725:9753  borrowAmount * builderTipBps */\n      dup6\n      tag_16\n      jump\t// in\n    tag_295:\n        /* \"contracts/src/ArbitrageAnalyzer.sol\":775:779  1000 */\n      div\n        /* \"contracts/src/ArbitrageAnalyzer.sol\":676:682  10_000 */\n      0x2710\n        /* \"contracts/src/ArbitrageAnalyzer.sol\":9807:9837  borrowAmount * safetyBufferBps */\n      tag_296\n        /* \"contracts/src/ArbitrageAnalyzer.sol\":319:27441  contract ArbitrageAnalyzer {... */\n      calldataload(0xe4)\n        /* \"contracts/src/ArbitrageAnalyzer.sol\":9807:9837  borrowAmount * safetyBufferBps */\n      dup7\n      tag_16\n      jump\t// in\n    tag_296:\n        /* \"contracts/src/ArbitrageAnalyzer.sol\":775:779  1000 */\n      div\n        /* \"contracts/src/ArbitrageAnalyzer.sol\":9903:9925  flashLoanFee + gasCost */\n      swap5\n        /* \"contracts/src/ArbitrageAnalyzer.sol\":9903:9953  flashLoanFee + gasCost + builderTip + safetyBuffer */\n      tag_297\n        /* \"contracts/src/ArbitrageAnalyzer.sol\":9903:9925  flashLoanFee + gasCost */\n      dup7\n        /* \"contracts/src/ArbitrageAnalyzer.sol\":9903:9938  flashLoanFee + gasCost + builderTip */\n      tag_261\n        /* \"contracts/src/ArbitrageAnalyzer.sol\":9903:9925  flashLoanFee + gasCost */\n      dup5\n      tag_261\n      dup9\n      dup9\n      tag_13\n      jump\t// in\n        /* \"contracts/src/ArbitrageAnalyzer.sol\":9903:9953  flashLoanFee + gasCost + builderTip + safetyBuffer */\n    tag_297:\n        /* \"contracts/src/ArbitrageAnalyzer.sol\":10017:10106  leg2AmountOut > borrowAmount... */\n      swap1\n        /* \"contracts/src/ArbitrageAnalyzer.sol\":10017:10045  leg2AmountOut > borrowAmount */\n      dup6\n      dup1\n      dup3\n      gt\n      iszero\n      tag_300\n      jumpi\n        /* \"contracts/src/ArbitrageAnalyzer.sol\":10061:10089  leg2AmountOut - borrowAmount */\n      tag_302\n      swap2\n      tag_17\n      jump\t// in\n    tag_302:\n        /* \"contracts/src/ArbitrageAnalyzer.sol\":10137:10161  grossProfit > totalCosts */\n      dup2\n      dup2\n      gt\n      iszero\n      tag_304\n      jumpi\n        /* \"contracts/src/ArbitrageAnalyzer.sol\":10177:10201  grossProfit - totalCosts */\n      tag_306\n      dup3\n      dup3\n      tag_17\n      jump\t// in\n    tag_306:\n        /* \"contracts/src/ArbitrageAnalyzer.sol\":10137:10218  grossProfit > totalCosts... */\n      swap2\n    tag_307:\n        /* \"contracts/src/ArbitrageAnalyzer.sol\":676:682  10_000 */\n      0x2710\n      dup4\n      mul\n      swap8\n      dup4\n      iszero\n      swap9\n      dup5\n      dup2\n      div\n      0x2710\n      eq\n      dup11\n      or\n      iszero\n      tag_94\n      jumpi\n        /* \"contracts/src/ArbitrageAnalyzer.sol\":10310:10354  (netProfit * BPS_DENOMINATOR) / borrowAmount */\n      dup9\n      tag_310\n      swap2\n      tag_14\n      jump\t// in\n    tag_310:\n        /* \"contracts/src/ArbitrageAnalyzer.sol\":319:27441  contract ArbitrageAnalyzer {... */\n      swap5\n      tag_311\n      tag_18\n      jump\t// in\n    tag_311:\n        /* \"contracts/src/ArbitrageAnalyzer.sol\":10474:10488  totalCosts > 0 */\n      swap8\n      dup4\n        /* \"contracts/src/ArbitrageAnalyzer.sol\":10470:10940  if (totalCosts > 0) {... */\n      tag_312\n      jumpi\n        /* \"contracts/src/ArbitrageAnalyzer.sol\":10137:10218  grossProfit > totalCosts... */\n    tag_313:\n        /* \"contracts/src/ArbitrageAnalyzer.sol\":319:27441  contract ArbitrageAnalyzer {... */\n      0x01c0\n        /* \"contracts/src/ArbitrageAnalyzer.sol\":10972:10985  netProfit > 0 */\n      swap11\n      iszero\n        /* \"contracts/src/ArbitrageAnalyzer.sol\":319:27441  contract ArbitrageAnalyzer {... */\n      swap8\n        /* \"contracts/src/ArbitrageAnalyzer.sol\":11003:11065  ProfitabilityCalculated(borrowAmount, netProfit, isProfitable) */\n      0xf8d4e3610cbf53d4af8faed23c01aaca89ea1a22b855e591360bbc55071c917b\n        /* \"contracts/src/ArbitrageAnalyzer.sol\":319:27441  contract ArbitrageAnalyzer {... */\n      0x60\n      mload(0x40)\n      dup14\n      dup2\n      mstore\n      dup10\n      0x20\n      dup3\n      add\n      mstore\n      dup12\n      0x40\n      dup3\n      add\n      mstore\n        /* \"contracts/src/ArbitrageAnalyzer.sol\":11003:11065  ProfitabilityCalculated(borrowAmount, netProfit, isProfitable) */\n      log1\n        /* \"contracts/src/ArbitrageAnalyzer.sol\":319:27441  contract ArbitrageAnalyzer {... */\n      mload(0x40)\n      swap11\n      tag_314\n      dup13\n      tag_6\n      jump\t// in\n    tag_314:\n        /* \"contracts/src/ArbitrageAnalyzer.sol\":676:682  10_000 */\n      dup12\n      mstore\n        /* \"contracts/src/ArbitrageAnalyzer.sol\":319:27441  contract ArbitrageAnalyzer {... */\n      0x20\n        /* \"contracts/src/ArbitrageAnalyzer.sol\":11098:11590  ProfitabilityBreakdown({... */\n      dup12\n      add\n        /* \"contracts/src/ArbitrageAnalyzer.sol\":676:682  10_000 */\n      mstore\n        /* \"contracts/src/ArbitrageAnalyzer.sol\":319:27441  contract ArbitrageAnalyzer {... */\n      0x40\n        /* \"contracts/src/ArbitrageAnalyzer.sol\":11098:11590  ProfitabilityBreakdown({... */\n      dup11\n      add\n        /* \"contracts/src/ArbitrageAnalyzer.sol\":676:682  10_000 */\n      mstore\n        /* \"contracts/src/ArbitrageAnalyzer.sol\":319:27441  contract ArbitrageAnalyzer {... */\n      0x60\n        /* \"contracts/src/ArbitrageAnalyzer.sol\":11098:11590  ProfitabilityBreakdown({... */\n      dup10\n      add\n        /* \"contracts/src/ArbitrageAnalyzer.sol\":676:682  10_000 */\n      mstore\n        /* \"contracts/src/ArbitrageAnalyzer.sol\":319:27441  contract ArbitrageAnalyzer {... */\n      0x80\n        /* \"contracts/src/ArbitrageAnalyzer.sol\":11098:11590  ProfitabilityBreakdown({... */\n      dup9\n      add\n        /* \"contracts/src/ArbitrageAnalyzer.sol\":676:682  10_000 */\n      mstore\n        /* \"contracts/src/ArbitrageAnalyzer.sol\":319:27441  contract ArbitrageAnalyzer {... */\n      0xa0\n        /* \"contracts/src/ArbitrageAnalyzer.sol\":11098:11590  ProfitabilityBreakdown({... */\n      dup8\n      add\n        /* \"contracts/src/ArbitrageAnalyzer.sol\":676:682  10_000 */\n      mstore\n        /* \"contracts/src/ArbitrageAnalyzer.sol\":319:27441  contract ArbitrageAnalyzer {... */\n      0xc0\n        /* \"contracts/src/ArbitrageAnalyzer.sol\":11098:11590  ProfitabilityBreakdown({... */\n      dup7\n      add\n        /* \"contracts/src/ArbitrageAnalyzer.sol\":676:682  10_000 */\n      mstore\n        /* \"contracts/src/ArbitrageAnalyzer.sol\":319:27441  contract ArbitrageAnalyzer {... */\n      0xe0\n        /* \"contracts/src/ArbitrageAnalyzer.sol\":11098:11590  ProfitabilityBreakdown({... */\n      dup6\n      add\n        /* \"contracts/src/ArbitrageAnalyzer.sol\":676:682  10_000 */\n      mstore\n        /* \"contracts/src/ArbitrageAnalyzer.sol\":319:27441  contract ArbitrageAnalyzer {... */\n      0x0100\n        /* \"contracts/src/ArbitrageAnalyzer.sol\":11098:11590  ProfitabilityBreakdown({... */\n      dup5\n      add\n        /* \"contracts/src/ArbitrageAnalyzer.sol\":676:682  10_000 */\n      mstore\n        /* \"contracts/src/ArbitrageAnalyzer.sol\":11098:11590  ProfitabilityBreakdown({... */\n      0x0120\n      dup4\n      add\n        /* \"contracts/src/ArbitrageAnalyzer.sol\":319:27441  contract ArbitrageAnalyzer {... */\n      mstore\n        /* \"contracts/src/ArbitrageAnalyzer.sol\":11098:11590  ProfitabilityBreakdown({... */\n      0x0140\n      dup3\n      add\n        /* \"contracts/src/ArbitrageAnalyzer.sol\":676:682  10_000 */\n      mstore\n        /* \"contracts/src/ArbitrageAnalyzer.sol\":319:27441  contract ArbitrageAnalyzer {... */\n      tag_202\n      mload(0x40)\n      dup1\n      swap3\n      tag_5\n      jump\t// in\n        /* \"contracts/src/ArbitrageAnalyzer.sol\":10470:10940  if (totalCosts > 0) {... */\n    tag_312:\n        /* \"contracts/src/ArbitrageAnalyzer.sol\":676:682  10_000 */\n      0x2710\n      dup9\n      mul\n      dup9\n      dup2\n      div\n      0x2710\n      eq\n      dup10\n      iszero\n      or\n      iszero\n      tag_94\n      jumpi\n        /* \"contracts/src/ArbitrageAnalyzer.sol\":10541:10603  (flashLoanFee *... */\n      dup5\n      tag_318\n      swap2\n      tag_14\n      jump\t// in\n    tag_318:\n        /* \"contracts/src/ArbitrageAnalyzer.sol\":676:682  10_000 */\n      dup10\n      mstore\n      0x2710\n      dup2\n      mul\n      dup2\n      dup2\n      div\n      0x2710\n      eq\n      dup3\n      iszero\n      or\n      iszero\n      tag_94\n      jumpi\n        /* \"contracts/src/ArbitrageAnalyzer.sol\":10649:10706  (gasCost * BPS_DENOMINATOR) /... */\n      dup5\n      tag_321\n      swap2\n      tag_14\n      jump\t// in\n    tag_321:\n        /* \"contracts/src/ArbitrageAnalyzer.sol\":319:27441  contract ArbitrageAnalyzer {... */\n      0x20\n        /* \"contracts/src/ArbitrageAnalyzer.sol\":10618:10646  costBreakdown.gasCostPercent */\n      dup11\n      add\n        /* \"contracts/src/ArbitrageAnalyzer.sol\":676:682  10_000 */\n      mstore\n      dup2\n      0x2710\n      dup2\n      mul\n      div\n      0x2710\n      eq\n      dup3\n      iszero\n      or\n      iszero\n      tag_94\n      jumpi\n        /* \"contracts/src/ArbitrageAnalyzer.sol\":10755:10815  (builderTip * BPS_DENOMINATOR) /... */\n      tag_324\n        /* \"contracts/src/ArbitrageAnalyzer.sol\":676:682  10_000 */\n      dup5\n      0x2710\n      dup5\n      mul\n        /* \"contracts/src/ArbitrageAnalyzer.sol\":10755:10815  (builderTip * BPS_DENOMINATOR) /... */\n      tag_14\n      jump\t// in\n    tag_324:\n        /* \"contracts/src/ArbitrageAnalyzer.sol\":319:27441  contract ArbitrageAnalyzer {... */\n      0x40\n        /* \"contracts/src/ArbitrageAnalyzer.sol\":10721:10752  costBreakdown.builderTipPercent */\n      dup11\n      add\n        /* \"contracts/src/ArbitrageAnalyzer.sol\":676:682  10_000 */\n      mstore\n      0x2710\n      dup4\n      mul\n      swap11\n      dup4\n      dup13\n      div\n      0x2710\n      eq\n      dup5\n      iszero\n      or\n      iszero\n      tag_94\n      jumpi\n        /* \"contracts/src/ArbitrageAnalyzer.sol\":10866:10928  (safetyBuffer *... */\n      tag_327\n      dup6\n        /* \"contracts/src/ArbitrageAnalyzer.sol\":319:27441  contract ArbitrageAnalyzer {... */\n      0x01c0\n        /* \"contracts/src/ArbitrageAnalyzer.sol\":10866:10928  (safetyBuffer *... */\n      swap14\n      tag_14\n      jump\t// in\n    tag_327:\n        /* \"contracts/src/ArbitrageAnalyzer.sol\":319:27441  contract ArbitrageAnalyzer {... */\n      0x60\n        /* \"contracts/src/ArbitrageAnalyzer.sol\":10830:10863  costBreakdown.safetyBufferPercent */\n      dup12\n      add\n        /* \"contracts/src/ArbitrageAnalyzer.sol\":676:682  10_000 */\n      mstore\n        /* \"contracts/src/ArbitrageAnalyzer.sol\":10470:10940  if (totalCosts > 0) {... */\n      swap11\n      pop\n      jump(tag_313)\n        /* \"contracts/src/ArbitrageAnalyzer.sol\":10137:10218  grossProfit > totalCosts... */\n    tag_304:\n        /* \"contracts/src/ArbitrageAnalyzer.sol\":319:27441  contract ArbitrageAnalyzer {... */\n      0x00\n        /* \"contracts/src/ArbitrageAnalyzer.sol\":10137:10218  grossProfit > totalCosts... */\n      swap2\n      jump(tag_307)\n        /* \"contracts/src/ArbitrageAnalyzer.sol\":10017:10106  leg2AmountOut > borrowAmount... */\n    tag_300:\n      pop\n      pop\n        /* \"contracts/src/ArbitrageAnalyzer.sol\":319:27441  contract ArbitrageAnalyzer {... */\n      0x00\n        /* \"contracts/src/ArbitrageAnalyzer.sol\":10017:10106  leg2AmountOut > borrowAmount... */\n      jump(tag_302)\n        /* \"contracts/src/ArbitrageAnalyzer.sol\":9442:9482  leg1AmountOut == 0 || leg2AmountOut == 0 */\n    tag_289:\n        /* \"contracts/src/ArbitrageAnalyzer.sol\":9464:9482  leg2AmountOut == 0 */\n      pop\n      dup2\n      iszero\n        /* \"contracts/src/ArbitrageAnalyzer.sol\":9442:9482  leg1AmountOut == 0 || leg2AmountOut == 0 */\n      jump(tag_290)\n        /* \"contracts/src/ArbitrageAnalyzer.sol\":319:27441  contract ArbitrageAnalyzer {... */\n    tag_41:\n      jumpi(tag_63, callvalue)\n      jumpi(tag_63, slt(add(not(0x03), calldatasize), 0x40))\n      sub(shl(0x40, 0x01), 0x01)\n      calldataload(0x04)\n      dup2\n      dup2\n      gt\n      tag_63\n      jumpi\n      tag_334\n      swap1\n      calldatasize\n      swap1\n      0x04\n      add\n      tag_1\n      jump\t// in\n    tag_334:\n      swap1\n      0x24\n      swap3\n      dup4\n      calldataload\n      swap1\n      dup2\n      gt\n      tag_63\n      jumpi\n      tag_337\n      swap1\n      calldatasize\n      swap1\n      0x04\n      add\n      tag_3\n      jump\t// in\n    tag_337:\n      swap4\n        /* \"contracts/src/ArbitrageAnalyzer.sol\":20369:20387  trades.length == 0 */\n      dup4\n      iszero\n        /* \"contracts/src/ArbitrageAnalyzer.sol\":20365:20414  if (trades.length == 0) revert InsufficientData() */\n      tag_66\n      jumpi\n        /* \"contracts/src/ArbitrageAnalyzer.sol\":20429:20462  trades.length != gasPrices.length */\n      dup5\n      dup5\n      sub\n        /* \"contracts/src/ArbitrageAnalyzer.sol\":20425:20492  if (trades.length != gasPrices.length) revert ArrayLengthMismatch() */\n      tag_340\n      jumpi\n        /* \"contracts/src/ArbitrageAnalyzer.sol\":319:27441  contract ArbitrageAnalyzer {... */\n      0x00\n        /* \"contracts/src/ArbitrageAnalyzer.sol\":20540:20569  uint256 totalProfitPerGas = 0 */\n      swap3\n        /* \"contracts/src/ArbitrageAnalyzer.sol\":319:27441  contract ArbitrageAnalyzer {... */\n      0x00\n        /* \"contracts/src/ArbitrageAnalyzer.sol\":20587:20600  uint256 i = 0 */\n      swap6\n        /* \"contracts/src/ArbitrageAnalyzer.sol\":319:27441  contract ArbitrageAnalyzer {... */\n      0x00\n        /* \"contracts/src/ArbitrageAnalyzer.sol\":20602:20619  i < trades.length */\n    tag_342:\n      dup7\n      dup2\n      lt\n      tag_343\n      jumpi\n        /* \"contracts/src/ArbitrageAnalyzer.sol\":20896:20924  totalGasCost / trades.length */\n      dup8\n        /* \"contracts/src/ArbitrageAnalyzer.sol\":20954:20987  totalProfitPerGas / trades.length */\n      tag_345\n        /* \"contracts/src/ArbitrageAnalyzer.sol\":20896:20924  totalGasCost / trades.length */\n      dup9\n      tag_346\n      dup2\n      dup11\n      tag_14\n      jump\t// in\n    tag_346:\n        /* \"contracts/src/ArbitrageAnalyzer.sol\":20954:20987  totalProfitPerGas / trades.length */\n      swap3\n      tag_14\n      jump\t// in\n    tag_345:\n        /* \"contracts/src/ArbitrageAnalyzer.sol\":21004:21032  profitPerGasUnit > PRECISION */\n      swap1\n        /* \"contracts/src/ArbitrageAnalyzer.sol\":726:730  1e18 */\n      0x0de0b6b3a7640000\n        /* \"contracts/src/ArbitrageAnalyzer.sol\":21004:21032  profitPerGasUnit > PRECISION */\n      dup3\n      gt\n        /* \"contracts/src/ArbitrageAnalyzer.sol\":726:730  1e18 */\n      iszero\n      tag_347\n      jumpi\n        /* \"contracts/src/ArbitrageAnalyzer.sol\":319:27441  contract ArbitrageAnalyzer {... */\n      tag_349\n      mload(0x40)\n      tag_350\n      dup2\n      tag_8\n      jump\t// in\n    tag_350:\n      0x2d\n      dup2\n      mstore\n      0x47617320636f73747320617265206a75737469666965642062792070726f6669\n      0x20\n      dup3\n      add\n      mstore\n      shl(0x98, 0x7473202d20434f4e54494e5545)\n      0x40\n      dup3\n      add\n      mstore\n        /* \"contracts/src/ArbitrageAnalyzer.sol\":21000:21371  if (profitPerGasUnit > PRECISION) {... */\n    tag_351:\n        /* \"contracts/src/ArbitrageAnalyzer.sol\":319:27441  contract ArbitrageAnalyzer {... */\n      mload(0x40)\n      swap4\n      dup5\n      swap4\n      dup5\n      mstore\n      0x20\n      dup5\n      add\n      mstore\n      0x60\n      0x40\n      dup5\n      add\n      mstore\n      0x60\n      dup4\n      add\n      swap1\n      tag_2\n      jump\t// in\n    tag_349:\n      sub\n      swap1\n      return\n        /* \"contracts/src/ArbitrageAnalyzer.sol\":21000:21371  if (profitPerGasUnit > PRECISION) {... */\n    tag_347:\n        /* \"contracts/src/ArbitrageAnalyzer.sol\":775:779  1000 */\n      0x06f05b59d3b20000\n        /* \"contracts/src/ArbitrageAnalyzer.sol\":21135:21169  profitPerGasUnit > (PRECISION / 2) */\n      dup3\n      gt\n        /* \"contracts/src/ArbitrageAnalyzer.sol\":775:779  1000 */\n      iszero\n      tag_352\n      jumpi\n        /* \"contracts/src/ArbitrageAnalyzer.sol\":319:27441  contract ArbitrageAnalyzer {... */\n      tag_349\n      mload(0x40)\n      tag_354\n      dup2\n      tag_8\n      jump\t// in\n    tag_354:\n      0x38\n      dup2\n      mstore\n      0x47617320636f73747320617265206d617267696e616c202d204f5054494d495a\n      0x20\n      dup3\n      add\n      mstore\n      0x45206f7220494e4352454153452054524144452053495a450000000000000000\n      0x40\n      dup3\n      add\n      mstore\n        /* \"contracts/src/ArbitrageAnalyzer.sol\":21000:21371  if (profitPerGasUnit > PRECISION) {... */\n      jump(tag_351)\n        /* \"contracts/src/ArbitrageAnalyzer.sol\":21131:21371  if (profitPerGasUnit > (PRECISION / 2)) {... */\n    tag_352:\n        /* \"contracts/src/ArbitrageAnalyzer.sol\":319:27441  contract ArbitrageAnalyzer {... */\n      tag_349\n      mload(0x40)\n      tag_356\n      dup2\n      tag_8\n      jump\t// in\n    tag_356:\n      0x2e\n      dup2\n      mstore\n      0x47617320636f737473206578636565642070726f66697473202d205245434f4e\n      0x20\n      dup3\n      add\n      mstore\n      shl(0x90, 0x5349444552205354524154454759)\n      0x40\n      dup3\n      add\n      mstore\n        /* \"contracts/src/ArbitrageAnalyzer.sol\":21000:21371  if (profitPerGasUnit > PRECISION) {... */\n      jump(tag_351)\n        /* \"contracts/src/ArbitrageAnalyzer.sol\":20621:20624  i++ */\n    tag_343:\n        /* \"contracts/src/ArbitrageAnalyzer.sol\":20706:20729  totalGasCost += gasCost */\n      tag_357\n        /* \"contracts/src/ArbitrageAnalyzer.sol\":20659:20691  gasPrices[i] * trades[i].gasUsed */\n      tag_358\n        /* \"contracts/src/ArbitrageAnalyzer.sol\":20659:20671  gasPrices[i] */\n      tag_359\n      dup4\n      dup6\n      dup10\n      tag_23\n      jump\t// in\n    tag_359:\n        /* \"contracts/src/ArbitrageAnalyzer.sol\":775:779  1000 */\n      calldataload\n        /* \"contracts/src/ArbitrageAnalyzer.sol\":319:27441  contract ArbitrageAnalyzer {... */\n      0x20\n        /* \"contracts/src/ArbitrageAnalyzer.sol\":20674:20683  trades[i] */\n      tag_360\n      dup6\n      dup13\n      dup10\n      tag_12\n      jump\t// in\n    tag_360:\n        /* \"contracts/src/ArbitrageAnalyzer.sol\":20674:20691  trades[i].gasUsed */\n      add\n        /* \"contracts/src/ArbitrageAnalyzer.sol\":775:779  1000 */\n      calldataload\n        /* \"contracts/src/ArbitrageAnalyzer.sol\":20659:20691  gasPrices[i] * trades[i].gasUsed */\n      swap1\n      tag_16\n      jump\t// in\n    tag_358:\n        /* \"contracts/src/ArbitrageAnalyzer.sol\":20706:20729  totalGasCost += gasCost */\n      dup1\n      swap8\n      tag_13\n      jump\t// in\n    tag_357:\n        /* \"contracts/src/ArbitrageAnalyzer.sol\":20750:20761  gasCost > 0 */\n      swap6\n      dup1\n        /* \"contracts/src/ArbitrageAnalyzer.sol\":20746:20859  if (gasCost > 0) {... */\n      tag_361\n      jumpi\n        /* \"contracts/src/ArbitrageAnalyzer.sol\":20621:20624  i++ */\n    tag_362:\n      pop\n      tag_363\n      swap1\n      tag_11\n      jump\t// in\n    tag_363:\n        /* \"contracts/src/ArbitrageAnalyzer.sol\":20587:20600  uint256 i = 0 */\n      jump(tag_342)\n        /* \"contracts/src/ArbitrageAnalyzer.sol\":20746:20859  if (gasCost > 0) {... */\n    tag_361:\n        /* \"contracts/src/ArbitrageAnalyzer.sol\":20804:20813  trades[i] */\n      tag_364\n      dup3\n      dup10\n      dup7\n      swap12\n      swap5\n      swap12\n      tag_12\n      jump\t// in\n    tag_364:\n        /* \"contracts/src/ArbitrageAnalyzer.sol\":775:779  1000 */\n      calldataload\n        /* \"contracts/src/ArbitrageAnalyzer.sol\":726:730  1e18 */\n      0x0de0b6b3a7640000\n        /* \"contracts/src/ArbitrageAnalyzer.sol\":676:682  10_000 */\n      swap1\n      dup2\n      dup2\n      mul\n      swap2\n      dup2\n      dup4\n      div\n      eq\n      swap1\n      iszero\n      or\n      iszero\n      tag_365\n      jumpi\n        /* \"contracts/src/ArbitrageAnalyzer.sol\":20803:20843  (trades[i].profit * PRECISION) / gasCost */\n      swap2\n      tag_367\n        /* \"contracts/src/ArbitrageAnalyzer.sol\":20782:20843  totalProfitPerGas += (trades[i].profit * PRECISION) / gasCost */\n      tag_368\n        /* \"contracts/src/ArbitrageAnalyzer.sol\":20803:20843  (trades[i].profit * PRECISION) / gasCost */\n      swap3\n        /* \"contracts/src/ArbitrageAnalyzer.sol\":20621:20624  i++ */\n      tag_363\n        /* \"contracts/src/ArbitrageAnalyzer.sol\":20803:20843  (trades[i].profit * PRECISION) / gasCost */\n      swap5\n      tag_14\n      jump\t// in\n    tag_367:\n        /* \"contracts/src/ArbitrageAnalyzer.sol\":20782:20843  totalProfitPerGas += (trades[i].profit * PRECISION) / gasCost */\n      swap1\n      tag_13\n      jump\t// in\n    tag_368:\n        /* \"contracts/src/ArbitrageAnalyzer.sol\":20746:20859  if (gasCost > 0) {... */\n      swap8\n      swap1\n      jump(tag_362)\n        /* \"contracts/src/ArbitrageAnalyzer.sol\":676:682  10_000 */\n    tag_365:\n        /* \"contracts/src/ArbitrageAnalyzer.sol\":319:27441  contract ArbitrageAnalyzer {... */\n      dup6\n      shl(0xe0, 0x4e487b71)\n      0x00\n        /* \"contracts/src/ArbitrageAnalyzer.sol\":775:779  1000 */\n      mstore\n      0x11\n        /* \"contracts/src/ArbitrageAnalyzer.sol\":319:27441  contract ArbitrageAnalyzer {... */\n      0x04\n        /* \"contracts/src/ArbitrageAnalyzer.sol\":775:779  1000 */\n      mstore\n        /* \"contracts/src/ArbitrageAnalyzer.sol\":319:27441  contract ArbitrageAnalyzer {... */\n      0x00\n        /* \"contracts/src/ArbitrageAnalyzer.sol\":775:779  1000 */\n      revert\n        /* \"contracts/src/ArbitrageAnalyzer.sol\":20425:20492  if (trades.length != gasPrices.length) revert ArrayLengthMismatch() */\n    tag_340:\n        /* \"contracts/src/ArbitrageAnalyzer.sol\":319:27441  contract ArbitrageAnalyzer {... */\n      mload(0x40)\n      shl(0xe1, 0x512509d3)\n        /* \"contracts/src/ArbitrageAnalyzer.sol\":20471:20492  ArrayLengthMismatch() */\n      dup2\n      mstore\n        /* \"contracts/src/ArbitrageAnalyzer.sol\":319:27441  contract ArbitrageAnalyzer {... */\n      0x04\n      swap1\n        /* \"contracts/src/ArbitrageAnalyzer.sol\":20471:20492  ArrayLengthMismatch() */\n      revert\n        /* \"contracts/src/ArbitrageAnalyzer.sol\":319:27441  contract ArbitrageAnalyzer {... */\n    tag_39:\n      jumpi(tag_63, callvalue)\n      add(not(0x03), calldatasize)\n      0x0120\n      dup2\n      slt\n      tag_63\n      jumpi\n      0x0100\n      sgt\n      tag_63\n      jumpi\n      sub(shl(0x40, 0x01), 0x01)\n      calldataload(0x0104)\n      dup2\n      dup2\n      gt\n      tag_63\n      jumpi\n      tag_377\n      swap1\n      calldatasize\n      swap1\n      0x04\n      add\n      tag_1\n      jump\t// in\n    tag_377:\n      swap2\n      swap1\n      swap3\n      0xc0\n      dup2\n      add\n      swap1\n      dup1\n      dup3\n      lt\n      dup4\n      dup4\n      gt\n      or\n      tag_157\n      jumpi\n      0xa0\n      swap2\n      0x40\n      mstore\n      0x00\n      dup2\n      mstore\n      0x00\n      0x20\n      dup3\n      add\n      mstore\n      0x00\n      0x40\n      dup3\n      add\n      mstore\n      0x60\n      swap2\n      dup2\n      0x00\n      dup5\n      dup1\n      swap5\n      add\n      mstore\n      0x00\n      0x80\n      dup3\n      add\n      mstore\n      add\n      mstore\n        /* \"contracts/src/ArbitrageAnalyzer.sol\":6732:6750  trades.length == 0 */\n      dup3\n      iszero\n        /* \"contracts/src/ArbitrageAnalyzer.sol\":6728:6777  if (trades.length == 0) revert InsufficientData() */\n      tag_66\n      jumpi\n        /* \"contracts/src/ArbitrageAnalyzer.sol\":319:27441  contract ArbitrageAnalyzer {... */\n      0x04\n        /* \"contracts/src/ArbitrageAnalyzer.sol\":775:779  1000 */\n      calldataload\n      swap1\n        /* \"contracts/src/ArbitrageAnalyzer.sol\":6891:6912  analysis.stdDeviation */\n      0x44\n        /* \"contracts/src/ArbitrageAnalyzer.sol\":775:779  1000 */\n      calldataload\n        /* \"contracts/src/ArbitrageAnalyzer.sol\":6869:6912  analysis.meanProfit > analysis.stdDeviation */\n      dup1\n      dup4\n      gt\n        /* \"contracts/src/ArbitrageAnalyzer.sol\":775:779  1000 */\n      iszero\n      tag_382\n      jumpi\n        /* \"contracts/src/ArbitrageAnalyzer.sol\":6996:7000  1e18 */\n      0x0de0b6b3a7640000\n        /* \"contracts/src/ArbitrageAnalyzer.sol\":6929:6992  (analysis.meanProfit - analysis.stdDeviation) * BPS_DENOMINATOR */\n      tag_384\n        /* \"contracts/src/ArbitrageAnalyzer.sol\":6930:6973  analysis.meanProfit - analysis.stdDeviation */\n      tag_385\n      dup4\n      dup7\n      tag_17\n      jump\t// in\n    tag_385:\n        /* \"contracts/src/ArbitrageAnalyzer.sol\":6929:6992  (analysis.meanProfit - analysis.stdDeviation) * BPS_DENOMINATOR */\n      tag_15\n      jump\t// in\n    tag_384:\n        /* \"contracts/src/ArbitrageAnalyzer.sol\":775:779  1000 */\n      div\n        /* \"contracts/src/ArbitrageAnalyzer.sol\":6869:7018  analysis.meanProfit > analysis.stdDeviation... */\n    tag_386:\n        /* \"contracts/src/ArbitrageAnalyzer.sol\":7059:7061  50 */\n      0x32\n        /* \"contracts/src/ArbitrageAnalyzer.sol\":7044:7061  minProfitBps < 50 */\n      dup2\n      lt\n        /* \"contracts/src/ArbitrageAnalyzer.sol\":7059:7061  50 */\n      iszero\n      tag_387\n      jumpi\n        /* \"contracts/src/ArbitrageAnalyzer.sol\":7044:7081  minProfitBps < 50 ? 50 : minProfitBps */\n      pop\n        /* \"contracts/src/ArbitrageAnalyzer.sol\":7059:7061  50 */\n      0x32\n        /* \"contracts/src/ArbitrageAnalyzer.sol\":7044:7081  minProfitBps < 50 ? 50 : minProfitBps */\n      swap5\n    tag_389:\n        /* \"contracts/src/ArbitrageAnalyzer.sol\":22118:22146  new uint256[](trades.length) */\n      tag_390\n      dup2\n      tag_25\n      jump\t// in\n    tag_390:\n        /* \"contracts/src/ArbitrageAnalyzer.sol\":319:27441  contract ArbitrageAnalyzer {... */\n      0x00\n        /* \"contracts/src/ArbitrageAnalyzer.sol\":22177:22194  i < trades.length */\n    tag_391:\n      dup3\n      dup2\n      lt\n      tag_392\n      jumpi\n        /* \"contracts/src/ArbitrageAnalyzer.sol\":319:27441  contract ArbitrageAnalyzer {... */\n      pop\n        /* \"contracts/src/ArbitrageAnalyzer.sol\":22278:22332  _quickSort(slippages, 0, int256(slippages.length) - 1) */\n      tag_394\n        /* \"contracts/src/ArbitrageAnalyzer.sol\":319:27441  contract ArbitrageAnalyzer {... */\n      dup2\n      0x00\n        /* \"contracts/src/ArbitrageAnalyzer.sol\":22303:22331  int256(slippages.length) - 1 */\n      tag_152\n        /* \"contracts/src/ArbitrageAnalyzer.sol\":7183:7268  _calculatePercentile(... */\n      tag_396\n        /* \"contracts/src/ArbitrageAnalyzer.sol\":319:27441  contract ArbitrageAnalyzer {... */\n      swap5\n      mload\n        /* \"contracts/src/ArbitrageAnalyzer.sol\":22303:22331  int256(slippages.length) - 1 */\n      tag_26\n      jump\t// in\n        /* \"contracts/src/ArbitrageAnalyzer.sol\":22278:22332  _quickSort(slippages, 0, int256(slippages.length) - 1) */\n    tag_394:\n        /* \"contracts/src/ArbitrageAnalyzer.sol\":7183:7268  _calculatePercentile(... */\n      tag_32\n      jump\t// in\n    tag_396:\n        /* \"contracts/src/ArbitrageAnalyzer.sol\":22575:22603  new uint256[](trades.length) */\n      swap7\n      tag_397\n      dup3\n      tag_25\n      jump\t// in\n    tag_397:\n        /* \"contracts/src/ArbitrageAnalyzer.sol\":22619:22632  uint256 i = 0 */\n      swap2\n        /* \"contracts/src/ArbitrageAnalyzer.sol\":319:27441  contract ArbitrageAnalyzer {... */\n      0x00\n        /* \"contracts/src/ArbitrageAnalyzer.sol\":22634:22651  i < trades.length */\n    tag_398:\n      dup2\n      dup2\n      lt\n      tag_399\n      jumpi\n        /* \"contracts/src/ArbitrageAnalyzer.sol\":319:27441  contract ArbitrageAnalyzer {... */\n      pop\n      pop\n      pop\n        /* \"contracts/src/ArbitrageAnalyzer.sol\":22736:22782  _quickSort(times, 0, int256(times.length) - 1) */\n      tag_401\n        /* \"contracts/src/ArbitrageAnalyzer.sol\":319:27441  contract ArbitrageAnalyzer {... */\n      dup2\n      0x00\n        /* \"contracts/src/ArbitrageAnalyzer.sol\":22757:22781  int256(times.length) - 1 */\n      tag_152\n        /* \"contracts/src/ArbitrageAnalyzer.sol\":7383:7473  _calculatePercentile(... */\n      tag_403\n        /* \"contracts/src/ArbitrageAnalyzer.sol\":319:27441  contract ArbitrageAnalyzer {... */\n      swap5\n      mload\n        /* \"contracts/src/ArbitrageAnalyzer.sol\":22757:22781  int256(times.length) - 1 */\n      tag_26\n      jump\t// in\n        /* \"contracts/src/ArbitrageAnalyzer.sol\":22736:22782  _quickSort(times, 0, int256(times.length) - 1) */\n    tag_401:\n        /* \"contracts/src/ArbitrageAnalyzer.sol\":7383:7473  _calculatePercentile(... */\n      tag_33\n      jump\t// in\n    tag_403:\n        /* \"contracts/src/ArbitrageAnalyzer.sol\":775:779  1000 */\n      swap3\n        /* \"contracts/src/ArbitrageAnalyzer.sol\":7476:7478  30 */\n      0x1e\n        /* \"contracts/src/ArbitrageAnalyzer.sol\":775:779  1000 */\n      dup5\n      add\n      dup1\n      swap5\n      gt\n      tag_94\n      jumpi\n        /* \"contracts/src/ArbitrageAnalyzer.sol\":7559:7582  analysis.averageGasUsed */\n      0xc4\n        /* \"contracts/src/ArbitrageAnalyzer.sol\":775:779  1000 */\n      calldataload\n        /* \"contracts/src/ArbitrageAnalyzer.sol\":676:682  10_000 */\n      swap2\n        /* \"contracts/src/ArbitrageAnalyzer.sol\":7585:7588  150 */\n      0x96\n        /* \"contracts/src/ArbitrageAnalyzer.sol\":676:682  10_000 */\n      dup4\n      mul\n      swap3\n      dup1\n      dup5\n      div\n        /* \"contracts/src/ArbitrageAnalyzer.sol\":7585:7588  150 */\n      0x96\n        /* \"contracts/src/ArbitrageAnalyzer.sol\":676:682  10_000 */\n      eq\n      swap1\n      iszero\n      or\n      iszero\n      tag_94\n      jumpi\n        /* \"contracts/src/ArbitrageAnalyzer.sol\":7712:7735  analysis.meanProfit > 0 */\n      dup2\n      iszero\n        /* \"contracts/src/ArbitrageAnalyzer.sol\":775:779  1000 */\n      tag_408\n      jumpi\n        /* \"contracts/src/ArbitrageAnalyzer.sol\":7751:7815  _calculateConfidence(analysis.meanProfit, analysis.stdDeviation) */\n      tag_410\n      swap2\n      tag_34\n      jump\t// in\n    tag_410:\n        /* \"contracts/src/ArbitrageAnalyzer.sol\":7712:7832  analysis.meanProfit > 0... */\n      swap2\n    tag_411:\n        /* \"contracts/src/ArbitrageAnalyzer.sol\":7871:7970  _generateReasoning(... */\n      tag_412\n        /* \"contracts/src/ArbitrageAnalyzer.sol\":7939:7959  analysis.successRate */\n      0xa4\n        /* \"contracts/src/ArbitrageAnalyzer.sol\":775:779  1000 */\n      calldataload\n        /* \"contracts/src/ArbitrageAnalyzer.sol\":7904:7924  analysis.totalTrades */\n      0xe4\n        /* \"contracts/src/ArbitrageAnalyzer.sol\":775:779  1000 */\n      calldataload\n        /* \"contracts/src/ArbitrageAnalyzer.sol\":7871:7970  _generateReasoning(... */\n      tag_35\n      jump\t// in\n    tag_412:\n        /* \"contracts/src/ArbitrageAnalyzer.sol\":319:27441  contract ArbitrageAnalyzer {... */\n      swap4\n        /* \"contracts/src/ArbitrageAnalyzer.sol\":7988:8051  ParametersRecommended(minProfitBps, maxSlippageBps, confidence) */\n      0x4682a24db80119847024aa747650b50f14fd55b9630f4a7615212e6206c94b9f\n        /* \"contracts/src/ArbitrageAnalyzer.sol\":319:27441  contract ArbitrageAnalyzer {... */\n      dup3\n      mload(0x40)\n      dup10\n      dup2\n      mstore\n      dup11\n      0x20\n      dup3\n      add\n      mstore\n      dup7\n      0x40\n      dup3\n      add\n      mstore\n        /* \"contracts/src/ArbitrageAnalyzer.sol\":7988:8051  ParametersRecommended(minProfitBps, maxSlippageBps, confidence) */\n      log1\n        /* \"contracts/src/ArbitrageAnalyzer.sol\":319:27441  contract ArbitrageAnalyzer {... */\n      mload(0x40)\n      swap7\n      0xc0\n      dup9\n      add\n      swap7\n      dup8\n      gt\n      dup9\n      dup9\n      lt\n      or\n      tag_157\n      jumpi\n      tag_349\n      swap7\n      0x40\n      mstore\n        /* \"contracts/src/ArbitrageAnalyzer.sol\":676:682  10_000 */\n      dup8\n      mstore\n        /* \"contracts/src/ArbitrageAnalyzer.sol\":319:27441  contract ArbitrageAnalyzer {... */\n      0x20\n        /* \"contracts/src/ArbitrageAnalyzer.sol\":8084:8402  ParameterRecommendation({... */\n      dup8\n      add\n        /* \"contracts/src/ArbitrageAnalyzer.sol\":676:682  10_000 */\n      swap8\n      dup9\n      mstore\n        /* \"contracts/src/ArbitrageAnalyzer.sol\":319:27441  contract ArbitrageAnalyzer {... */\n      0x40\n        /* \"contracts/src/ArbitrageAnalyzer.sol\":8084:8402  ParameterRecommendation({... */\n      dup8\n      add\n        /* \"contracts/src/ArbitrageAnalyzer.sol\":676:682  10_000 */\n      swap1\n      dup2\n      mstore\n        /* \"contracts/src/ArbitrageAnalyzer.sol\":7592:7595  100 */\n      0x64\n        /* \"contracts/src/ArbitrageAnalyzer.sol\":8084:8402  ParameterRecommendation({... */\n      dup3\n      dup9\n      add\n        /* \"contracts/src/ArbitrageAnalyzer.sol\":775:779  1000 */\n      swap4\n      div\n        /* \"contracts/src/ArbitrageAnalyzer.sol\":676:682  10_000 */\n      dup4\n      mstore\n        /* \"contracts/src/ArbitrageAnalyzer.sol\":319:27441  contract ArbitrageAnalyzer {... */\n      0x80\n        /* \"contracts/src/ArbitrageAnalyzer.sol\":8084:8402  ParameterRecommendation({... */\n      dup8\n      add\n        /* \"contracts/src/ArbitrageAnalyzer.sol\":676:682  10_000 */\n      swap4\n      dup5\n      mstore\n        /* \"contracts/src/ArbitrageAnalyzer.sol\":319:27441  contract ArbitrageAnalyzer {... */\n      0xa0\n        /* \"contracts/src/ArbitrageAnalyzer.sol\":8084:8402  ParameterRecommendation({... */\n      dup8\n      add\n        /* \"contracts/src/ArbitrageAnalyzer.sol\":676:682  10_000 */\n      swap5\n      dup6\n      mstore\n        /* \"contracts/src/ArbitrageAnalyzer.sol\":319:27441  contract ArbitrageAnalyzer {... */\n      mload(0x40)\n      swap8\n      dup9\n      swap8\n      0x20\n      dup10\n      mstore\n      mload\n      0x20\n      dup10\n      add\n      mstore\n      mload\n      0x40\n      dup9\n      add\n      mstore\n      mload\n      swap1\n      dup7\n      add\n      mstore\n      mload\n      0x80\n      dup6\n      add\n      mstore\n      mload\n      0xa0\n      dup5\n      add\n      mstore\n      mload\n      0xc0\n      dup1\n      dup5\n      add\n      mstore\n      0xe0\n      dup4\n      add\n      swap1\n      tag_2\n      jump\t// in\n        /* \"contracts/src/ArbitrageAnalyzer.sol\":7712:7832  analysis.meanProfit > 0... */\n    tag_408:\n      pop\n      pop\n        /* \"contracts/src/ArbitrageAnalyzer.sol\":319:27441  contract ArbitrageAnalyzer {... */\n      0x00\n        /* \"contracts/src/ArbitrageAnalyzer.sol\":7712:7832  analysis.meanProfit > 0... */\n      swap2\n      jump(tag_411)\n        /* \"contracts/src/ArbitrageAnalyzer.sol\":22653:22656  i++ */\n    tag_399:\n        /* \"contracts/src/ArbitrageAnalyzer.sol\":22684:22693  trades[i] */\n      dup1\n      dup7\n      tag_416\n        /* \"contracts/src/ArbitrageAnalyzer.sol\":22653:22656  i++ */\n      tag_417\n        /* \"contracts/src/ArbitrageAnalyzer.sol\":22684:22693  trades[i] */\n      swap4\n      dup6\n      dup8\n      tag_12\n      jump\t// in\n    tag_416:\n        /* \"contracts/src/ArbitrageAnalyzer.sol\":22684:22707  trades[i].executionTime */\n      add\n        /* \"contracts/src/ArbitrageAnalyzer.sol\":775:779  1000 */\n      calldataload\n        /* \"contracts/src/ArbitrageAnalyzer.sol\":22673:22707  times[i] = trades[i].executionTime */\n      tag_161\n      dup3\n      dup8\n      tag_24\n      jump\t// in\n        /* \"contracts/src/ArbitrageAnalyzer.sol\":22653:22656  i++ */\n    tag_417:\n        /* \"contracts/src/ArbitrageAnalyzer.sol\":22619:22632  uint256 i = 0 */\n      jump(tag_398)\n        /* \"contracts/src/ArbitrageAnalyzer.sol\":22196:22199  i++ */\n    tag_392:\n        /* \"contracts/src/ArbitrageAnalyzer.sol\":22231:22240  trades[i] */\n      dup1\n        /* \"contracts/src/ArbitrageAnalyzer.sol\":319:27441  contract ArbitrageAnalyzer {... */\n      0x40\n        /* \"contracts/src/ArbitrageAnalyzer.sol\":22231:22240  trades[i] */\n      tag_419\n        /* \"contracts/src/ArbitrageAnalyzer.sol\":22196:22199  i++ */\n      tag_420\n        /* \"contracts/src/ArbitrageAnalyzer.sol\":22231:22240  trades[i] */\n      swap4\n      dup7\n      dup14\n      tag_12\n      jump\t// in\n    tag_419:\n        /* \"contracts/src/ArbitrageAnalyzer.sol\":22231:22249  trades[i].slippage */\n      add\n        /* \"contracts/src/ArbitrageAnalyzer.sol\":775:779  1000 */\n      calldataload\n        /* \"contracts/src/ArbitrageAnalyzer.sol\":22216:22249  slippages[i] = trades[i].slippage */\n      tag_161\n      dup3\n      dup6\n      tag_24\n      jump\t// in\n        /* \"contracts/src/ArbitrageAnalyzer.sol\":22196:22199  i++ */\n    tag_420:\n        /* \"contracts/src/ArbitrageAnalyzer.sol\":22162:22175  uint256 i = 0 */\n      jump(tag_391)\n        /* \"contracts/src/ArbitrageAnalyzer.sol\":7044:7081  minProfitBps < 50 ? 50 : minProfitBps */\n    tag_387:\n      swap5\n      jump(tag_389)\n        /* \"contracts/src/ArbitrageAnalyzer.sol\":6869:7018  analysis.meanProfit > analysis.stdDeviation... */\n    tag_382:\n        /* \"contracts/src/ArbitrageAnalyzer.sol\":7016:7018  50 */\n      0x32\n        /* \"contracts/src/ArbitrageAnalyzer.sol\":6869:7018  analysis.meanProfit > analysis.stdDeviation... */\n      jump(tag_386)\n        /* \"contracts/src/ArbitrageAnalyzer.sol\":319:27441  contract ArbitrageAnalyzer {... */\n    tag_1:\n      swap2\n      dup2\n      0x1f\n      dup5\n      add\n      slt\n      iszero\n      tag_63\n      jumpi\n      dup3\n      calldataload\n      swap2\n      sub(shl(0x40, 0x01), 0x01)\n      dup4\n      gt\n      tag_63\n      jumpi\n      0x20\n      dup1\n      dup6\n      add\n      swap5\n      dup5\n      0x07\n      shl\n      add\n      add\n      gt\n      tag_63\n      jumpi\n      jump\t// out\n    tag_2:\n      swap2\n      swap1\n      dup3\n      mload\n      swap3\n      dup4\n      dup3\n      mstore\n      0x00\n    tag_428:\n      dup5\n      dup2\n      lt\n      tag_429\n      jumpi\n      pop\n      pop\n      dup3\n      0x00\n      0x20\n      dup1\n      swap5\n      swap6\n      dup5\n      add\n      add\n      mstore\n      0x1f\n      dup1\n      not\n      swap2\n      add\n      and\n      add\n      add\n      swap1\n      jump\t// out\n    tag_429:\n      0x20\n      dup2\n      dup4\n      add\n      dup2\n      add\n      mload\n      dup5\n      dup4\n      add\n      dup3\n      add\n      mstore\n      add\n      jump(tag_428)\n    tag_3:\n      swap2\n      dup2\n      0x1f\n      dup5\n      add\n      slt\n      iszero\n      tag_63\n      jumpi\n      dup3\n      calldataload\n      swap2\n      sub(shl(0x40, 0x01), 0x01)\n      dup4\n      gt\n      tag_63\n      jumpi\n      0x20\n      dup1\n      dup6\n      add\n      swap5\n      dup5\n      0x05\n      shl\n      add\n      add\n      gt\n      tag_63\n      jumpi\n      jump\t// out\n    tag_5:\n      swap1\n      tag_437\n      swap2\n      dup1\n      mload\n      dup3\n      mstore\n      0x20\n      dup2\n      add\n      mload\n      0x20\n      dup4\n      add\n      mstore\n      0x40\n      dup2\n      add\n      mload\n      0x40\n      dup4\n      add\n      mstore\n      0x60\n      dup2\n      add\n      mload\n      0x60\n      dup4\n      add\n      mstore\n      0x80\n      dup2\n      add\n      mload\n      0x80\n      dup4\n      add\n      mstore\n      0xa0\n      dup2\n      add\n      mload\n      0xa0\n      dup4\n      add\n      mstore\n      0xc0\n      dup2\n      add\n      mload\n      0xc0\n      dup4\n      add\n      mstore\n      0xe0\n      dup2\n      add\n      mload\n      0xe0\n      dup4\n      add\n      mstore\n      0x0100\n      dup1\n      dup3\n      add\n      mload\n      swap1\n      dup4\n      add\n      mstore\n      0x0120\n      dup1\n      dup3\n      add\n      mload\n      iszero\n      iszero\n      swap1\n      dup4\n      add\n      mstore\n      0x0140\n      dup1\n      swap2\n      add\n      mload\n      swap2\n      add\n      swap1\n      0x60\n      dup1\n      swap2\n      dup1\n      mload\n      dup5\n      mstore\n      0x20\n      dup2\n      add\n      mload\n      0x20\n      dup6\n      add\n      mstore\n      0x40\n      dup2\n      add\n      mload\n      0x40\n      dup6\n      add\n      mstore\n      add\n      mload\n      swap2\n      add\n      mstore\n      jump\n    tag_437:\n      jump\t// out\n    tag_6:\n      0x0160\n      dup2\n      add\n      swap1\n      dup2\n      lt\n      sub(shl(0x40, 0x01), 0x01)\n      dup3\n      gt\n      or\n      tag_157\n      jumpi\n      0x40\n      mstore\n      jump\t// out\n    tag_7:\n      0x80\n      dup2\n      add\n      swap1\n      dup2\n      lt\n      sub(shl(0x40, 0x01), 0x01)\n      dup3\n      gt\n      or\n      tag_157\n      jumpi\n      0x40\n      mstore\n      jump\t// out\n    tag_8:\n      0x60\n      dup2\n      add\n      swap1\n      dup2\n      lt\n      sub(shl(0x40, 0x01), 0x01)\n      dup3\n      gt\n      or\n      tag_157\n      jumpi\n      0x40\n      mstore\n      jump\t// out\n    tag_9:\n      0xa0\n      dup2\n      add\n      swap1\n      dup2\n      lt\n      sub(shl(0x40, 0x01), 0x01)\n      dup3\n      gt\n      or\n      tag_157\n      jumpi\n      0x40\n      mstore\n      jump\t// out\n    tag_10:\n      swap1\n      0x1f\n      dup1\n      not\n      swap2\n      add\n      and\n      dup2\n      add\n      swap1\n      dup2\n      lt\n      sub(shl(0x40, 0x01), 0x01)\n      dup3\n      gt\n      or\n      tag_157\n      jumpi\n      0x40\n      mstore\n      jump\t// out\n        /* \"contracts/src/ArbitrageAnalyzer.sol\":775:779  1000 */\n    tag_11:\n      not(0x00)\n      dup2\n      eq\n      tag_94\n      jumpi\n      0x01\n      add\n      swap1\n      jump\t// out\n    tag_12:\n      swap2\n      swap1\n      dup2\n      lt\n      iszero\n      tag_450\n      jumpi\n      0x07\n      shl\n      add\n      swap1\n      jump\t// out\n    tag_450:\n        /* \"contracts/src/ArbitrageAnalyzer.sol\":319:27441  contract ArbitrageAnalyzer {... */\n      shl(0xe0, 0x4e487b71)\n        /* \"contracts/src/ArbitrageAnalyzer.sol\":775:779  1000 */\n      0x00\n      mstore\n      mstore(0x04, 0x32)\n      revert(0x00, 0x24)\n    tag_13:\n      swap2\n      swap1\n      dup3\n      add\n      dup1\n      swap3\n      gt\n      tag_94\n      jumpi\n      jump\t// out\n    tag_14:\n      dup2\n      iszero\n      tag_454\n      jumpi\n      div\n      swap1\n      jump\t// out\n    tag_454:\n        /* \"contracts/src/ArbitrageAnalyzer.sol\":319:27441  contract ArbitrageAnalyzer {... */\n      shl(0xe0, 0x4e487b71)\n        /* \"contracts/src/ArbitrageAnalyzer.sol\":775:779  1000 */\n      0x00\n      mstore\n      mstore(0x04, 0x12)\n      revert(0x00, 0x24)\n        /* \"contracts/src/ArbitrageAnalyzer.sol\":676:682  10_000 */\n    tag_15:\n      swap1\n      0x2710\n      swap2\n      dup3\n      dup2\n      mul\n      swap3\n      dup2\n      dup5\n      div\n      eq\n      swap1\n      iszero\n      or\n      iszero\n      tag_94\n      jumpi\n      jump\t// out\n    tag_16:\n      dup2\n      dup2\n      mul\n      swap3\n      swap2\n      dup2\n      iszero\n      swap2\n      dup5\n      div\n      eq\n      or\n      iszero\n      tag_94\n      jumpi\n      jump\t// out\n        /* \"contracts/src/ArbitrageAnalyzer.sol\":319:27441  contract ArbitrageAnalyzer {... */\n    tag_17:\n      swap2\n      swap1\n      dup3\n      sub\n      swap2\n      dup3\n      gt\n      tag_94\n      jumpi\n      jump\t// out\n    tag_18:\n      mload(0x40)\n      swap1\n      tag_462\n      dup3\n      tag_7\n      jump\t// in\n    tag_462:\n      0x00\n      0x60\n      dup4\n      dup3\n      dup2\n      mstore\n      dup3\n      0x20\n      dup3\n      add\n      mstore\n      dup3\n      0x40\n      dup3\n      add\n      mstore\n      add\n      mstore\n      jump\t// out\n    tag_19:\n      mload(0x40)\n      swap1\n      tag_463\n      dup3\n      tag_6\n      jump\t// in\n    tag_463:\n      dup2\n      0x00\n      dup1\n      dup3\n      mstore\n      dup1\n      0x20\n      dup4\n      add\n      mstore\n      dup1\n      0x40\n      dup4\n      add\n      mstore\n      dup1\n      0x60\n      dup4\n      add\n      mstore\n      dup1\n      0x80\n      dup4\n      add\n      mstore\n      dup1\n      0xa0\n      dup4\n      add\n      mstore\n      dup1\n      0xc0\n      dup4\n      add\n      mstore\n      dup1\n      0xe0\n      dup4\n      add\n      mstore\n      dup1\n      0x0100\n      dup4\n      add\n      mstore\n      0x0120\n      dup3\n      add\n      mstore\n      0x0140\n      tag_464\n      tag_18\n      jump\t// in\n    tag_464:\n      swap2\n      add\n      mstore\n      jump\t// out\n        /* \"contracts/src/ArbitrageAnalyzer.sol\":726:730  1e18 */\n    tag_20:\n      dup1\n      swap2\n      sub\n      swap1\n      0x01c0\n      dup3\n      slt\n      tag_63\n      jumpi\n        /* \"contracts/src/ArbitrageAnalyzer.sol\":319:27441  contract ArbitrageAnalyzer {... */\n      mload(0x40)\n      swap2\n      tag_467\n      dup4\n      tag_6\n      jump\t// in\n    tag_467:\n        /* \"contracts/src/ArbitrageAnalyzer.sol\":726:730  1e18 */\n      dup2\n      mload\n      dup4\n      mstore\n      0x20\n      dup3\n      add\n      mload\n      0x20\n      dup5\n      add\n      mstore\n        /* \"contracts/src/ArbitrageAnalyzer.sol\":319:27441  contract ArbitrageAnalyzer {... */\n      0x40\n        /* \"contracts/src/ArbitrageAnalyzer.sol\":726:730  1e18 */\n      dup3\n      add\n      mload\n        /* \"contracts/src/ArbitrageAnalyzer.sol\":319:27441  contract ArbitrageAnalyzer {... */\n      0x40\n        /* \"contracts/src/ArbitrageAnalyzer.sol\":726:730  1e18 */\n      dup5\n      add\n      mstore\n      0x60\n      dup3\n      add\n      mload\n      0x60\n      dup5\n      add\n      mstore\n      0x80\n      dup3\n      add\n      mload\n      0x80\n      dup5\n      add\n      mstore\n      0xa0\n      dup3\n      add\n      mload\n      0xa0\n      dup5\n      add\n      mstore\n      0xc0\n      dup3\n      add\n      mload\n      0xc0\n      dup5\n      add\n      mstore\n      0xe0\n      dup3\n      add\n      mload\n      0xe0\n      dup5\n      add\n      mstore\n      0x0100\n      dup1\n      dup4\n      add\n      mload\n      swap1\n      dup5\n      add\n      mstore\n      0x0120\n      swap1\n      dup2\n      dup4\n      add\n      mload\n        /* \"contracts/src/ArbitrageAnalyzer.sol\":319:27441  contract ArbitrageAnalyzer {... */\n      dup1\n      iszero\n      iszero\n        /* \"contracts/src/ArbitrageAnalyzer.sol\":726:730  1e18 */\n      dup2\n      sub\n      tag_63\n      jumpi\n      0x80\n      swap3\n      dup6\n      add\n      mstore\n      not(0x013f)\n      add\n      slt\n      tag_63\n      jumpi\n        /* \"contracts/src/ArbitrageAnalyzer.sol\":319:27441  contract ArbitrageAnalyzer {... */\n      mload(0x40)\n      swap1\n      tag_472\n      dup3\n      tag_7\n      jump\t// in\n    tag_472:\n        /* \"contracts/src/ArbitrageAnalyzer.sol\":726:730  1e18 */\n      0x01a0\n      0x0140\n      swap2\n      dup3\n      dup2\n      add\n      mload\n      dup5\n      mstore\n      0x0160\n      dup2\n      add\n      mload\n      0x20\n      dup6\n      add\n      mstore\n      0x0180\n      dup2\n      add\n      mload\n        /* \"contracts/src/ArbitrageAnalyzer.sol\":319:27441  contract ArbitrageAnalyzer {... */\n      0x40\n        /* \"contracts/src/ArbitrageAnalyzer.sol\":726:730  1e18 */\n      dup6\n      add\n      mstore\n      add\n      mload\n      0x60\n      dup4\n      add\n      mstore\n      dup3\n      add\n      mstore\n      swap1\n      jump\t// out\n        /* \"contracts/src/ArbitrageAnalyzer.sol\":319:27441  contract ArbitrageAnalyzer {... */\n    tag_22:\n      sub(shl(0x40, 0x01), 0x01)\n      dup2\n      gt\n      tag_157\n      jumpi\n      0x05\n      shl\n      0x20\n      add\n      swap1\n      jump\t// out\n    tag_23:\n      swap2\n      swap1\n      dup2\n      lt\n      iszero\n      tag_450\n      jumpi\n      0x05\n      shl\n      add\n      swap1\n      jump\t// out\n    tag_24:\n      dup1\n      mload\n      dup3\n      lt\n      iszero\n      tag_450\n      jumpi\n      0x20\n      swap2\n      0x05\n      shl\n      add\n      add\n      swap1\n      jump\t// out\n    tag_25:\n      swap1\n      tag_479\n      dup3\n      tag_22\n      jump\t// in\n    tag_479:\n      tag_480\n      mload(0x40)\n      swap2\n      dup3\n      tag_10\n      jump\t// in\n    tag_480:\n      dup3\n      dup2\n      mstore\n      dup1\n      swap3\n      tag_481\n      not(0x1f)\n      swap2\n      tag_22\n      jump\t// in\n    tag_481:\n      add\n      swap1\n      0x20\n      calldatasize\n      swap2\n      add\n      calldatacopy\n      jump\t// out\n    tag_26:\n      swap1\n        /* \"contracts/src/ArbitrageAnalyzer.sol\":4674:4691  type(uint256).max */\n      not(0x00)\n        /* \"contracts/src/ArbitrageAnalyzer.sol\":319:27441  contract ArbitrageAnalyzer {... */\n      dup3\n      add\n      swap2\n      dup3\n      sgt\n        /* \"contracts/src/ArbitrageAnalyzer.sol\":21880:21881  1 */\n      0x01\n        /* \"contracts/src/ArbitrageAnalyzer.sol\":319:27441  contract ArbitrageAnalyzer {... */\n      and\n      tag_94\n      jumpi\n      jump\t// out\n    tag_27:\n      swap1\n        /* \"contracts/src/ArbitrageAnalyzer.sol\":23496:23497  1 */\n      0x01\n        /* \"contracts/src/ArbitrageAnalyzer.sol\":319:27441  contract ArbitrageAnalyzer {... */\n      dup3\n      add\n      swap2\n      0x00\n        /* \"contracts/src/ArbitrageAnalyzer.sol\":23496:23497  1 */\n      0x01\n        /* \"contracts/src/ArbitrageAnalyzer.sol\":319:27441  contract ArbitrageAnalyzer {... */\n      dup5\n      slt\n      swap2\n      slt\n      swap1\n      dup1\n      iszero\n      dup3\n      and\n      swap2\n      iszero\n      and\n      or\n      tag_94\n      jumpi\n      jump\t// out\n        /* \"contracts/src/ArbitrageAnalyzer.sol\":22858:23214  function _quickSort(... */\n    tag_28:\n      swap2\n        /* \"contracts/src/ArbitrageAnalyzer.sol\":23016:23028  left < right */\n      dup1\n      dup3\n      slt\n        /* \"contracts/src/ArbitrageAnalyzer.sol\":23012:23186  if (left < right) {... */\n      tag_486\n      jumpi\n        /* \"contracts/src/ArbitrageAnalyzer.sol\":23196:23206  return arr */\n      pop\n      pop\n        /* \"contracts/src/ArbitrageAnalyzer.sol\":22858:23214  function _quickSort(... */\n      swap1\n      jump\t// out\n        /* \"contracts/src/ArbitrageAnalyzer.sol\":23012:23186  if (left < right) {... */\n    tag_486:\n        /* \"contracts/src/ArbitrageAnalyzer.sol\":23448:23467  arr[uint256(right)] */\n      tag_488\n      dup2\n      dup5\n      tag_24\n      jump\t// in\n    tag_488:\n        /* \"contracts/src/ArbitrageAnalyzer.sol\":726:730  1e18 */\n      mload\n        /* \"contracts/src/ArbitrageAnalyzer.sol\":23489:23497  left - 1 */\n      tag_489\n      dup4\n      tag_26\n      jump\t// in\n    tag_489:\n        /* \"contracts/src/ArbitrageAnalyzer.sol\":23515:23530  int256 j = left */\n      swap1\n      dup4\n        /* \"contracts/src/ArbitrageAnalyzer.sol\":23532:23541  j < right */\n    tag_490:\n      dup4\n      dup2\n      slt\n      tag_491\n      jumpi\n        /* \"contracts/src/ArbitrageAnalyzer.sol\":23862:23881  arr[uint256(right)] */\n      pop\n      pop\n        /* \"contracts/src/ArbitrageAnalyzer.sol\":23944:23949  i + 1 */\n      tag_493\n        /* \"contracts/src/ArbitrageAnalyzer.sol\":23100:23129  _quickSort(arr, left, pi - 1) */\n      tag_494\n        /* \"contracts/src/ArbitrageAnalyzer.sol\":23862:23881  arr[uint256(right)] */\n      swap2\n      tag_495\n      dup5\n      dup8\n      tag_24\n      jump\t// in\n    tag_495:\n        /* \"contracts/src/ArbitrageAnalyzer.sol\":726:730  1e18 */\n      mload\n        /* \"contracts/src/ArbitrageAnalyzer.sol\":23802:23926  (arr[uint256(i + 1)], arr[uint256(right)]) = (... */\n      tag_496\n        /* \"contracts/src/ArbitrageAnalyzer.sol\":23896:23915  arr[uint256(i + 1)] */\n      tag_497\n        /* \"contracts/src/ArbitrageAnalyzer.sol\":23908:23913  i + 1 */\n      tag_498\n      dup5\n      tag_27\n      jump\t// in\n    tag_498:\n        /* \"contracts/src/ArbitrageAnalyzer.sol\":23896:23915  arr[uint256(i + 1)] */\n      dup10\n      tag_24\n      jump\t// in\n    tag_497:\n        /* \"contracts/src/ArbitrageAnalyzer.sol\":726:730  1e18 */\n      mload\n        /* \"contracts/src/ArbitrageAnalyzer.sol\":23815:23820  i + 1 */\n      tag_499\n      dup5\n      tag_27\n      jump\t// in\n    tag_499:\n        /* \"contracts/src/ArbitrageAnalyzer.sol\":23802:23926  (arr[uint256(i + 1)], arr[uint256(right)]) = (... */\n      swap1\n      tag_500\n      dup9\n      dup12\n      tag_24\n      jump\t// in\n    tag_500:\n        /* \"contracts/src/ArbitrageAnalyzer.sol\":676:682  10_000 */\n      mstore\n        /* \"contracts/src/ArbitrageAnalyzer.sol\":23802:23926  (arr[uint256(i + 1)], arr[uint256(right)]) = (... */\n      dup9\n      tag_24\n      jump\t// in\n    tag_496:\n        /* \"contracts/src/ArbitrageAnalyzer.sol\":676:682  10_000 */\n      mstore\n        /* \"contracts/src/ArbitrageAnalyzer.sol\":23944:23949  i + 1 */\n      tag_27\n      jump\t// in\n    tag_493:\n        /* \"contracts/src/ArbitrageAnalyzer.sol\":23122:23128  pi - 1 */\n      swap3\n      tag_501\n      dup5\n      tag_26\n      jump\t// in\n    tag_501:\n        /* \"contracts/src/ArbitrageAnalyzer.sol\":23100:23129  _quickSort(arr, left, pi - 1) */\n      swap1\n      dup6\n      tag_28\n      jump\t// in\n    tag_494:\n        /* \"contracts/src/ArbitrageAnalyzer.sol\":23144:23174  _quickSort(arr, pi + 1, right) */\n      tag_502\n        /* \"contracts/src/ArbitrageAnalyzer.sol\":23100:23129  _quickSort(arr, left, pi - 1) */\n      swap3\n        /* \"contracts/src/ArbitrageAnalyzer.sol\":23160:23166  pi + 1 */\n      tag_503\n        /* \"contracts/src/ArbitrageAnalyzer.sol\":23100:23129  _quickSort(arr, left, pi - 1) */\n      swap2\n      pop\n        /* \"contracts/src/ArbitrageAnalyzer.sol\":23160:23166  pi + 1 */\n      tag_27\n      jump\t// in\n    tag_503:\n        /* \"contracts/src/ArbitrageAnalyzer.sol\":23144:23174  _quickSort(arr, pi + 1, right) */\n      dup4\n      tag_28\n      jump\t// in\n    tag_502:\n      pop\n        /* \"contracts/src/ArbitrageAnalyzer.sol\":22858:23214  function _quickSort(... */\n      swap1\n      jump\t// out\n        /* \"contracts/src/ArbitrageAnalyzer.sol\":23543:23546  j++ */\n    tag_491:\n        /* \"contracts/src/ArbitrageAnalyzer.sol\":23567:23582  arr[uint256(j)] */\n      dup2\n      tag_504\n      dup3\n      dup9\n      tag_24\n      jump\t// in\n    tag_504:\n        /* \"contracts/src/ArbitrageAnalyzer.sol\":726:730  1e18 */\n      mload\n        /* \"contracts/src/ArbitrageAnalyzer.sol\":23567:23590  arr[uint256(j)] < pivot */\n      lt\n        /* \"contracts/src/ArbitrageAnalyzer.sol\":23563:23781  if (arr[uint256(j)] < pivot) {... */\n      tag_505\n      jumpi\n        /* \"contracts/src/ArbitrageAnalyzer.sol\":23543:23546  j++ */\n    tag_506:\n      tag_507\n      swap1\n      tag_29\n      jump\t// in\n    tag_507:\n        /* \"contracts/src/ArbitrageAnalyzer.sol\":23515:23530  int256 j = left */\n      jump(tag_490)\n        /* \"contracts/src/ArbitrageAnalyzer.sol\":23563:23781  if (arr[uint256(j)] < pivot) {... */\n    tag_505:\n        /* \"contracts/src/ArbitrageAnalyzer.sol\":23611:23614  i++ */\n      swap2\n      tag_508\n        /* \"contracts/src/ArbitrageAnalyzer.sol\":23543:23546  j++ */\n      tag_507\n        /* \"contracts/src/ArbitrageAnalyzer.sol\":23611:23614  i++ */\n      swap2\n      tag_29\n      jump\t// in\n    tag_508:\n        /* \"contracts/src/ArbitrageAnalyzer.sol\":23693:23708  arr[uint256(j)] */\n      swap3\n      tag_509\n      dup2\n      dup9\n      tag_24\n      jump\t// in\n    tag_509:\n        /* \"contracts/src/ArbitrageAnalyzer.sol\":726:730  1e18 */\n      mload\n        /* \"contracts/src/ArbitrageAnalyzer.sol\":23731:23746  arr[uint256(i)] */\n      tag_510\n      dup6\n      dup10\n      tag_24\n      jump\t// in\n    tag_510:\n        /* \"contracts/src/ArbitrageAnalyzer.sol\":726:730  1e18 */\n      mload\n        /* \"contracts/src/ArbitrageAnalyzer.sol\":23633:23765  (arr[uint256(i)], arr[uint256(j)]) = (... */\n      tag_511\n      dup4\n      dup11\n      tag_24\n      jump\t// in\n    tag_511:\n        /* \"contracts/src/ArbitrageAnalyzer.sol\":676:682  10_000 */\n      mstore\n        /* \"contracts/src/ArbitrageAnalyzer.sol\":23633:23765  (arr[uint256(i)], arr[uint256(j)]) = (... */\n      tag_512\n      dup6\n      dup10\n      tag_24\n      jump\t// in\n    tag_512:\n        /* \"contracts/src/ArbitrageAnalyzer.sol\":676:682  10_000 */\n      mstore\n        /* \"contracts/src/ArbitrageAnalyzer.sol\":23563:23781  if (arr[uint256(j)] < pivot) {... */\n      swap1\n      pop\n      jump(tag_506)\n        /* \"contracts/src/ArbitrageAnalyzer.sol\":319:27441  contract ArbitrageAnalyzer {... */\n    tag_29:\n      sub(shl(0xff, 0x01), 0x01)\n      dup2\n      eq\n      tag_94\n      jumpi\n      0x01\n      add\n      swap1\n      jump\t// out\n        /* \"contracts/src/ArbitrageAnalyzer.sol\":24034:24433  function _calculateMedian(uint256[] memory sorted)... */\n    tag_30:\n        /* \"contracts/src/ArbitrageAnalyzer.sol\":319:27441  contract ArbitrageAnalyzer {... */\n      dup1\n      mload\n        /* \"contracts/src/ArbitrageAnalyzer.sol\":24163:24181  sorted.length == 0 */\n      swap1\n      dup2\n      iszero\n        /* \"contracts/src/ArbitrageAnalyzer.sol\":24159:24191  if (sorted.length == 0) return 0 */\n      tag_515\n      jumpi\n        /* \"contracts/src/ArbitrageAnalyzer.sol\":319:27441  contract ArbitrageAnalyzer {... */\n      0x01\n      swap2\n      dup1\n      dup4\n      and\n        /* \"contracts/src/ArbitrageAnalyzer.sol\":24206:24228  sorted.length % 2 == 1 */\n      dup4\n      sub\n        /* \"contracts/src/ArbitrageAnalyzer.sol\":319:27441  contract ArbitrageAnalyzer {... */\n      tag_517\n      jumpi\n      pop\n      dup1\n      mload\n        /* \"contracts/src/ArbitrageAnalyzer.sol\":24252:24277  sorted[sorted.length / 2] */\n      tag_519\n      swap3\n        /* \"contracts/src/ArbitrageAnalyzer.sol\":775:779  1000 */\n      shr\n      swap1\n        /* \"contracts/src/ArbitrageAnalyzer.sol\":24252:24277  sorted[sorted.length / 2] */\n      tag_24\n      jump\t// in\n    tag_519:\n        /* \"contracts/src/ArbitrageAnalyzer.sol\":726:730  1e18 */\n      mload\n        /* \"contracts/src/ArbitrageAnalyzer.sol\":24245:24277  return sorted[sorted.length / 2] */\n      swap1\n      jump\t// out\n        /* \"contracts/src/ArbitrageAnalyzer.sol\":24202:24426  if (sorted.length % 2 == 1) {... */\n    tag_517:\n        /* \"contracts/src/ArbitrageAnalyzer.sol\":775:779  1000 */\n      dup3\n      shr\n        /* \"contracts/src/ArbitrageAnalyzer.sol\":4674:4691  type(uint256).max */\n      swap1\n      not(0x00)\n        /* \"contracts/src/ArbitrageAnalyzer.sol\":319:27441  contract ArbitrageAnalyzer {... */\n      dup3\n      add\n      swap2\n      dup3\n      gt\n      tag_94\n      jumpi\n        /* \"contracts/src/ArbitrageAnalyzer.sol\":24367:24392  sorted[sorted.length / 2] */\n      tag_522\n        /* \"contracts/src/ArbitrageAnalyzer.sol\":24335:24364  sorted[sorted.length / 2 - 1] */\n      tag_523\n        /* \"contracts/src/ArbitrageAnalyzer.sol\":24335:24392  sorted[sorted.length / 2 - 1] + sorted[sorted.length / 2] */\n      tag_524\n        /* \"contracts/src/ArbitrageAnalyzer.sol\":24335:24364  sorted[sorted.length / 2 - 1] */\n      swap4\n      dup4\n      tag_24\n      jump\t// in\n    tag_523:\n        /* \"contracts/src/ArbitrageAnalyzer.sol\":726:730  1e18 */\n      mload\n        /* \"contracts/src/ArbitrageAnalyzer.sol\":319:27441  contract ArbitrageAnalyzer {... */\n      swap2\n      dup1\n      mload\n        /* \"contracts/src/ArbitrageAnalyzer.sol\":775:779  1000 */\n      dup6\n      shr\n        /* \"contracts/src/ArbitrageAnalyzer.sol\":24367:24392  sorted[sorted.length / 2] */\n      swap1\n      tag_24\n      jump\t// in\n    tag_522:\n        /* \"contracts/src/ArbitrageAnalyzer.sol\":726:730  1e18 */\n      mload\n        /* \"contracts/src/ArbitrageAnalyzer.sol\":24335:24392  sorted[sorted.length / 2 - 1] + sorted[sorted.length / 2] */\n      swap1\n      tag_13\n      jump\t// in\n    tag_524:\n        /* \"contracts/src/ArbitrageAnalyzer.sol\":775:779  1000 */\n      swap1\n      shr\n        /* \"contracts/src/ArbitrageAnalyzer.sol\":24310:24414  return... */\n      swap1\n      jump\t// out\n        /* \"contracts/src/ArbitrageAnalyzer.sol\":24159:24191  if (sorted.length == 0) return 0 */\n    tag_515:\n        /* \"contracts/src/ArbitrageAnalyzer.sol\":24183:24191  return 0 */\n      pop\n      pop\n        /* \"contracts/src/ArbitrageAnalyzer.sol\":24180:24181  0 */\n      0x00\n        /* \"contracts/src/ArbitrageAnalyzer.sol\":24183:24191  return 0 */\n      swap1\n      jump\t// out\n        /* \"contracts/src/ArbitrageAnalyzer.sol\":24504:25090  function _calculateStdDeviation(TradeData[] calldata trades, uint256 mean)... */\n    tag_31:\n      swap2\n      swap1\n      swap2\n        /* \"contracts/src/ArbitrageAnalyzer.sol\":24657:24675  trades.length == 0 */\n      dup3\n      iszero\n        /* \"contracts/src/ArbitrageAnalyzer.sol\":24653:24685  if (trades.length == 0) return 0 */\n      tag_525\n      jumpi\n        /* \"contracts/src/ArbitrageAnalyzer.sol\":24698:24724  uint256 sumSquaredDiff = 0 */\n      swap1\n        /* \"contracts/src/ArbitrageAnalyzer.sol\":24674:24675  0 */\n      0x00\n        /* \"contracts/src/ArbitrageAnalyzer.sol\":24740:24753  uint256 i = 0 */\n      swap2\n      dup3\n        /* \"contracts/src/ArbitrageAnalyzer.sol\":24735:24988  for (uint256 i = 0; i < trades.length; i++) {... */\n      swap2\n        /* \"contracts/src/ArbitrageAnalyzer.sol\":24755:24772  i < trades.length */\n    tag_527:\n      dup5\n      dup4\n      lt\n      tag_528\n      jumpi\n        /* \"contracts/src/ArbitrageAnalyzer.sol\":25019:25049  sumSquaredDiff / trades.length */\n      pop\n      pop\n      pop\n        /* \"contracts/src/ArbitrageAnalyzer.sol\":25067:25082  _sqrt(variance) */\n      tag_530\n        /* \"contracts/src/ArbitrageAnalyzer.sol\":25019:25049  sumSquaredDiff / trades.length */\n      swap2\n      tag_531\n      swap2\n      tag_14\n      jump\t// in\n    tag_531:\n        /* \"contracts/src/ArbitrageAnalyzer.sol\":25067:25082  _sqrt(variance) */\n      tag_36\n      jump\t// in\n    tag_530:\n        /* \"contracts/src/ArbitrageAnalyzer.sol\":24504:25090  function _calculateStdDeviation(TradeData[] calldata trades, uint256 mean)... */\n      swap1\n      jump\t// out\n        /* \"contracts/src/ArbitrageAnalyzer.sol\":24774:24777  i++ */\n    tag_528:\n        /* \"contracts/src/ArbitrageAnalyzer.sol\":24809:24818  trades[i] */\n      swap1\n      swap2\n      swap3\n        /* \"contracts/src/ArbitrageAnalyzer.sol\":24933:24976  sumSquaredDiff += (diff * diff) / PRECISION */\n      tag_532\n        /* \"contracts/src/ArbitrageAnalyzer.sol\":24774:24777  i++ */\n      tag_533\n        /* \"contracts/src/ArbitrageAnalyzer.sol\":24809:24818  trades[i] */\n      swap2\n      dup4\n      tag_534\n      dup8\n      dup10\n      dup9\n      tag_12\n      jump\t// in\n    tag_534:\n        /* \"contracts/src/ArbitrageAnalyzer.sol\":775:779  1000 */\n      calldataload\n        /* \"contracts/src/ArbitrageAnalyzer.sol\":24809:24832  trades[i].profit > mean */\n      gt\n        /* \"contracts/src/ArbitrageAnalyzer.sol\":24809:24918  trades[i].profit > mean... */\n      iszero\n      tag_535\n      jumpi\n        /* \"contracts/src/ArbitrageAnalyzer.sol\":726:730  1e18 */\n      0x0de0b6b3a7640000\n        /* \"contracts/src/ArbitrageAnalyzer.sol\":24952:24963  diff * diff */\n      tag_537\n        /* \"contracts/src/ArbitrageAnalyzer.sol\":24852:24875  trades[i].profit - mean */\n      tag_538\n        /* \"contracts/src/ArbitrageAnalyzer.sol\":24852:24861  trades[i] */\n      dup7\n      tag_539\n      dup11\n      dup13\n      dup12\n      tag_12\n      jump\t// in\n    tag_539:\n        /* \"contracts/src/ArbitrageAnalyzer.sol\":775:779  1000 */\n      calldataload\n        /* \"contracts/src/ArbitrageAnalyzer.sol\":24852:24875  trades[i].profit - mean */\n      tag_17\n      jump\t// in\n    tag_538:\n        /* \"contracts/src/ArbitrageAnalyzer.sol\":24952:24963  diff * diff */\n      dup1\n      tag_16\n      jump\t// in\n    tag_537:\n        /* \"contracts/src/ArbitrageAnalyzer.sol\":775:779  1000 */\n      div\n        /* \"contracts/src/ArbitrageAnalyzer.sol\":24933:24976  sumSquaredDiff += (diff * diff) / PRECISION */\n      swap1\n      tag_13\n      jump\t// in\n    tag_532:\n        /* \"contracts/src/ArbitrageAnalyzer.sol\":24774:24777  i++ */\n      swap4\n      tag_11\n      jump\t// in\n    tag_533:\n        /* \"contracts/src/ArbitrageAnalyzer.sol\":24740:24753  uint256 i = 0 */\n      swap2\n      swap1\n      jump(tag_527)\n        /* \"contracts/src/ArbitrageAnalyzer.sol\":24809:24918  trades[i].profit > mean... */\n    tag_535:\n        /* \"contracts/src/ArbitrageAnalyzer.sol\":726:730  1e18 */\n      0x0de0b6b3a7640000\n        /* \"contracts/src/ArbitrageAnalyzer.sol\":24952:24963  diff * diff */\n      tag_537\n        /* \"contracts/src/ArbitrageAnalyzer.sol\":24895:24918  mean - trades[i].profit */\n      tag_541\n        /* \"contracts/src/ArbitrageAnalyzer.sol\":24902:24911  trades[i] */\n      tag_542\n      dup10\n      dup12\n      dup11\n      tag_12\n      jump\t// in\n    tag_542:\n        /* \"contracts/src/ArbitrageAnalyzer.sol\":775:779  1000 */\n      calldataload\n        /* \"contracts/src/ArbitrageAnalyzer.sol\":24895:24918  mean - trades[i].profit */\n      dup8\n      tag_17\n      jump\t// in\n    tag_541:\n        /* \"contracts/src/ArbitrageAnalyzer.sol\":24809:24918  trades[i].profit > mean... */\n      jump(tag_538)\n        /* \"contracts/src/ArbitrageAnalyzer.sol\":24653:24685  if (trades.length == 0) return 0 */\n    tag_525:\n        /* \"contracts/src/ArbitrageAnalyzer.sol\":24677:24685  return 0 */\n      pop\n      pop\n      pop\n        /* \"contracts/src/ArbitrageAnalyzer.sol\":24674:24675  0 */\n      0x00\n        /* \"contracts/src/ArbitrageAnalyzer.sol\":24677:24685  return 0 */\n      swap1\n      jump\t// out\n        /* \"contracts/src/ArbitrageAnalyzer.sol\":25171:25573  function _calculatePercentile(uint256[] memory sorted, uint256 percentile)... */\n    tag_32:\n        /* \"contracts/src/ArbitrageAnalyzer.sol\":319:27441  contract ArbitrageAnalyzer {... */\n      dup1\n      mload\n        /* \"contracts/src/ArbitrageAnalyzer.sol\":25324:25342  sorted.length == 0 */\n      dup1\n      iszero\n        /* \"contracts/src/ArbitrageAnalyzer.sol\":25320:25352  if (sorted.length == 0) return 0 */\n      tag_515\n      jumpi\n        /* \"contracts/src/ArbitrageAnalyzer.sol\":7255:7257  95 */\n      0x5f\n        /* \"contracts/src/ArbitrageAnalyzer.sol\":676:682  10_000 */\n      dup2\n      mul\n      swap1\n      dup2\n      div\n        /* \"contracts/src/ArbitrageAnalyzer.sol\":7255:7257  95 */\n      0x5f\n        /* \"contracts/src/ArbitrageAnalyzer.sol\":676:682  10_000 */\n      sub\n      tag_94\n      jumpi\n        /* \"contracts/src/ArbitrageAnalyzer.sol\":319:27441  contract ArbitrageAnalyzer {... */\n      dup2\n      mload\n        /* \"contracts/src/ArbitrageAnalyzer.sol\":25381:25384  100 */\n      0x64\n        /* \"contracts/src/ArbitrageAnalyzer.sol\":775:779  1000 */\n      swap1\n      swap2\n      div\n      swap1\n        /* \"contracts/src/ArbitrageAnalyzer.sol\":25499:25521  index >= sorted.length */\n      dup2\n      lt\n        /* \"contracts/src/ArbitrageAnalyzer.sol\":25499:25565  index >= sorted.length ? sorted[sorted.length - 1] : sorted[index] */\n      tag_547\n      jumpi\n      pop\n        /* \"contracts/src/ArbitrageAnalyzer.sol\":319:27441  contract ArbitrageAnalyzer {... */\n      dup1\n      mload\n      not(0x00)\n      dup2\n      add\n      swap1\n      dup2\n      gt\n      tag_94\n      jumpi\n        /* \"contracts/src/ArbitrageAnalyzer.sol\":25524:25549  sorted[sorted.length - 1] */\n      tag_519\n      swap2\n      tag_24\n      jump\t// in\n        /* \"contracts/src/ArbitrageAnalyzer.sol\":25499:25565  index >= sorted.length ? sorted[sorted.length - 1] : sorted[index] */\n    tag_547:\n        /* \"contracts/src/ArbitrageAnalyzer.sol\":25552:25565  sorted[index] */\n      tag_519\n      swap2\n      tag_24\n      jump\t// in\n        /* \"contracts/src/ArbitrageAnalyzer.sol\":25171:25573  function _calculatePercentile(uint256[] memory sorted, uint256 percentile)... */\n    tag_33:\n        /* \"contracts/src/ArbitrageAnalyzer.sol\":319:27441  contract ArbitrageAnalyzer {... */\n      dup1\n      mload\n        /* \"contracts/src/ArbitrageAnalyzer.sol\":25324:25342  sorted.length == 0 */\n      dup1\n      iszero\n        /* \"contracts/src/ArbitrageAnalyzer.sol\":25320:25352  if (sorted.length == 0) return 0 */\n      tag_515\n      jumpi\n        /* \"contracts/src/ArbitrageAnalyzer.sol\":7460:7462  99 */\n      0x63\n        /* \"contracts/src/ArbitrageAnalyzer.sol\":676:682  10_000 */\n      dup2\n      mul\n      swap1\n      dup2\n      div\n        /* \"contracts/src/ArbitrageAnalyzer.sol\":7460:7462  99 */\n      0x63\n        /* \"contracts/src/ArbitrageAnalyzer.sol\":676:682  10_000 */\n      sub\n      tag_94\n      jumpi\n        /* \"contracts/src/ArbitrageAnalyzer.sol\":319:27441  contract ArbitrageAnalyzer {... */\n      dup2\n      mload\n        /* \"contracts/src/ArbitrageAnalyzer.sol\":25381:25384  100 */\n      0x64\n        /* \"contracts/src/ArbitrageAnalyzer.sol\":775:779  1000 */\n      swap1\n      swap2\n      div\n      swap1\n        /* \"contracts/src/ArbitrageAnalyzer.sol\":25499:25521  index >= sorted.length */\n      dup2\n      lt\n        /* \"contracts/src/ArbitrageAnalyzer.sol\":25499:25565  index >= sorted.length ? sorted[sorted.length - 1] : sorted[index] */\n      tag_547\n      jumpi\n      pop\n        /* \"contracts/src/ArbitrageAnalyzer.sol\":319:27441  contract ArbitrageAnalyzer {... */\n      dup1\n      mload\n      not(0x00)\n      dup2\n      add\n      swap1\n      dup2\n      gt\n      tag_94\n      jumpi\n        /* \"contracts/src/ArbitrageAnalyzer.sol\":25524:25549  sorted[sorted.length - 1] */\n      tag_519\n      swap2\n      tag_24\n      jump\t// in\n        /* \"contracts/src/ArbitrageAnalyzer.sol\":25642:26224  function _calculateConfidence(uint256 mean, uint256 stdDev)... */\n    tag_34:\n      swap1\n        /* \"contracts/src/ArbitrageAnalyzer.sol\":25780:25791  stdDev == 0 */\n      dup1\n      iszero\n        /* \"contracts/src/ArbitrageAnalyzer.sol\":25776:25815  if (stdDev == 0) return BPS_DENOMINATOR */\n      tag_565\n      jumpi\n        /* \"contracts/src/ArbitrageAnalyzer.sol\":726:730  1e18 */\n      0x0de0b6b3a7640000\n        /* \"contracts/src/ArbitrageAnalyzer.sol\":676:682  10_000 */\n      swap2\n      dup3\n      dup3\n      mul\n      swap2\n      dup3\n      div\n      dup4\n      sub\n      tag_94\n      jumpi\n        /* \"contracts/src/ArbitrageAnalyzer.sol\":25927:25954  (stdDev * PRECISION) / mean */\n      tag_569\n      swap2\n      tag_14\n      jump\t// in\n    tag_569:\n        /* \"contracts/src/ArbitrageAnalyzer.sol\":26027:26042  cv >= PRECISION */\n      dup2\n      dup2\n      lt\n      iszero\n        /* \"contracts/src/ArbitrageAnalyzer.sol\":26023:26107  if (cv >= PRECISION) {... */\n      tag_515\n      jumpi\n        /* \"contracts/src/ArbitrageAnalyzer.sol\":775:779  1000 */\n      dup2\n      add\n      dup1\n      swap2\n      gt\n      tag_94\n      jumpi\n      dup1\n      iszero\n      tag_454\n      jumpi\n        /* \"contracts/src/ArbitrageAnalyzer.sol\":676:682  10_000 */\n      0x021e19e0c9bab2400000\n        /* \"contracts/src/ArbitrageAnalyzer.sol\":775:779  1000 */\n      div\n        /* \"contracts/src/ArbitrageAnalyzer.sol\":25642:26224  function _calculateConfidence(uint256 mean, uint256 stdDev)... */\n      swap1\n      jump\t// out\n        /* \"contracts/src/ArbitrageAnalyzer.sol\":25776:25815  if (stdDev == 0) return BPS_DENOMINATOR */\n    tag_565:\n        /* \"contracts/src/ArbitrageAnalyzer.sol\":25793:25815  return BPS_DENOMINATOR */\n      pop\n      pop\n        /* \"contracts/src/ArbitrageAnalyzer.sol\":676:682  10_000 */\n      0x2710\n        /* \"contracts/src/ArbitrageAnalyzer.sol\":25793:25815  return BPS_DENOMINATOR */\n      swap1\n      jump\t// out\n        /* \"contracts/src/ArbitrageAnalyzer.sol\":26292:27054  function _generateReasoning(... */\n    tag_35:\n        /* \"contracts/src/ArbitrageAnalyzer.sol\":26453:26455  10 */\n      0x0a\n      gt\n        /* \"contracts/src/ArbitrageAnalyzer.sol\":26435:26553  if (totalTrades < 10) {... */\n      tag_576\n      jumpi\n        /* \"contracts/src/ArbitrageAnalyzer.sol\":26584:26588  9000 */\n      0x2328\n        /* \"contracts/src/ArbitrageAnalyzer.sol\":26569:26588  successRate >= 9000 */\n      dup2\n      lt\n      iszero\n        /* \"contracts/src/ArbitrageAnalyzer.sol\":26565:26689  if (successRate >= 9000) {... */\n      tag_578\n      jumpi\n        /* \"contracts/src/ArbitrageAnalyzer.sol\":26720:26724  7500 */\n      0x1d4c\n        /* \"contracts/src/ArbitrageAnalyzer.sol\":26705:26724  successRate >= 7500 */\n      dup2\n      lt\n      iszero\n        /* \"contracts/src/ArbitrageAnalyzer.sol\":26701:26823  if (successRate >= 7500) {... */\n      tag_580\n      jumpi\n        /* \"contracts/src/ArbitrageAnalyzer.sol\":26854:26858  5000 */\n      0x1388\n      gt\n        /* \"contracts/src/ArbitrageAnalyzer.sol\":26839:26858  successRate >= 5000 */\n      iszero\n        /* \"contracts/src/ArbitrageAnalyzer.sol\":26835:26952  if (successRate >= 5000) {... */\n      tag_582\n      jumpi\n        /* \"contracts/src/ArbitrageAnalyzer.sol\":319:27441  contract ArbitrageAnalyzer {... */\n      mload(0x40)\n      tag_584\n      dup2\n      tag_7\n      jump\t// in\n    tag_584:\n      0x49\n      dup2\n      mstore\n      0x4c4f5720535543434553532052415445202d20436f6e7369646572206d6f7265\n      0x20\n      dup3\n      add\n      mstore\n      0x206167677265737369766520706172616d6574657273206f7220737472617465\n      0x40\n      dup3\n      add\n      mstore\n      shl(0xb8, 0x677920726576696577)\n      0x60\n      dup3\n      add\n      mstore\n        /* \"contracts/src/ArbitrageAnalyzer.sol\":26292:27054  function _generateReasoning(... */\n      swap1\n      jump\t// out\n        /* \"contracts/src/ArbitrageAnalyzer.sol\":26835:26952  if (successRate >= 5000) {... */\n    tag_582:\n        /* \"contracts/src/ArbitrageAnalyzer.sol\":319:27441  contract ArbitrageAnalyzer {... */\n      mload(0x40)\n      tag_585\n      dup2\n      tag_8\n      jump\t// in\n    tag_585:\n      0x38\n      dup2\n      mstore\n      0x4d4f44455241544520535543434553532052415445202d20506172616d657465\n      0x20\n      dup3\n      add\n      mstore\n      0x7273206d6179206e656564206f7074696d697a6174696f6e0000000000000000\n      0x40\n      dup3\n      add\n      mstore\n        /* \"contracts/src/ArbitrageAnalyzer.sol\":26875:26940  return \"MODERATE SUCCESS RATE - Parameters may need optimization\" */\n      swap1\n      jump\t// out\n        /* \"contracts/src/ArbitrageAnalyzer.sol\":26701:26823  if (successRate >= 7500) {... */\n    tag_580:\n        /* \"contracts/src/ArbitrageAnalyzer.sol\":319:27441  contract ArbitrageAnalyzer {... */\n      pop\n      mload(0x40)\n      tag_586\n      dup2\n      tag_8\n      jump\t// in\n    tag_586:\n      0x3d\n      dup2\n      mstore\n      0x474f4f4420535543434553532052415445202d20506172616d65746572732061\n      0x20\n      dup3\n      add\n      mstore\n      0x72652062616c616e63656420666f722070726f6669746162696c697479000000\n      0x40\n      dup3\n      add\n      mstore\n        /* \"contracts/src/ArbitrageAnalyzer.sol\":26741:26811  return \"GOOD SUCCESS RATE - Parameters are balanced for profitability\" */\n      swap1\n      jump\t// out\n        /* \"contracts/src/ArbitrageAnalyzer.sol\":26565:26689  if (successRate >= 9000) {... */\n    tag_578:\n        /* \"contracts/src/ArbitrageAnalyzer.sol\":319:27441  contract ArbitrageAnalyzer {... */\n      pop\n      mload(0x40)\n      tag_587\n      dup2\n      tag_8\n      jump\t// in\n    tag_587:\n      0x3f\n      dup2\n      mstore\n      0x4849474820535543434553532052415445202d20506172616d65746572732061\n      0x20\n      dup3\n      add\n      mstore\n      0x726520636f6e73657276617469766520616e642077656c6c2d74657374656400\n      0x40\n      dup3\n      add\n      mstore\n        /* \"contracts/src/ArbitrageAnalyzer.sol\":26605:26677  return \"HIGH SUCCESS RATE - Parameters are conservative and well-tested\" */\n      swap1\n      jump\t// out\n        /* \"contracts/src/ArbitrageAnalyzer.sol\":26435:26553  if (totalTrades < 10) {... */\n    tag_576:\n        /* \"contracts/src/ArbitrageAnalyzer.sol\":319:27441  contract ArbitrageAnalyzer {... */\n      pop\n      mload(0x40)\n      tag_588\n      dup2\n      tag_8\n      jump\t// in\n    tag_588:\n      0x3c\n      dup2\n      mstore\n      0x494e53554646494349454e542044415441202d205265636f6d6d656e64617469\n      0x20\n      dup3\n      add\n      mstore\n      0x6f6e73206261736564206f6e206c696d697465642073616d706c657300000000\n      0x40\n      dup3\n      add\n      mstore\n        /* \"contracts/src/ArbitrageAnalyzer.sol\":26472:26541  return \"INSUFFICIENT DATA - Recommendations based on limited samples\" */\n      swap1\n      jump\t// out\n        /* \"contracts/src/ArbitrageAnalyzer.sol\":27138:27438  function _sqrt(uint256 x) private pure returns (uint256) {... */\n    tag_36:\n        /* \"contracts/src/ArbitrageAnalyzer.sol\":27210:27216  x == 0 */\n      dup1\n      iszero\n        /* \"contracts/src/ArbitrageAnalyzer.sol\":27206:27226  if (x == 0) return 0 */\n      tag_589\n      jumpi\n        /* \"contracts/src/ArbitrageAnalyzer.sol\":27246:27247  1 */\n      0x01\n        /* \"contracts/src/ArbitrageAnalyzer.sol\":27241:27247  x == 1 */\n      dup1\n      dup3\n      eq\n        /* \"contracts/src/ArbitrageAnalyzer.sol\":27237:27257  if (x == 1) return 1 */\n      tag_591\n      jumpi\n        /* \"contracts/src/ArbitrageAnalyzer.sol\":775:779  1000 */\n      dup1\n      dup3\n      add\n      dup1\n      dup4\n      gt\n      tag_94\n      jumpi\n      dup2\n      shr\n        /* \"contracts/src/ArbitrageAnalyzer.sol\":27304:27317  uint256 y = x */\n      swap1\n      dup3\n        /* \"contracts/src/ArbitrageAnalyzer.sol\":27337:27342  z < y */\n    tag_595:\n      dup4\n      dup4\n      lt\n      tag_596\n      jumpi\n        /* \"contracts/src/ArbitrageAnalyzer.sol\":27422:27430  return y */\n      pop\n      pop\n      pop\n        /* \"contracts/src/ArbitrageAnalyzer.sol\":27138:27438  function _sqrt(uint256 x) private pure returns (uint256) {... */\n      swap1\n      jump\t// out\n        /* \"contracts/src/ArbitrageAnalyzer.sol\":27330:27410  while (z < y) {... */\n    tag_596:\n        /* \"contracts/src/ArbitrageAnalyzer.sol\":27359:27364  y = z */\n      swap1\n      swap2\n      swap3\n      pop\n        /* \"contracts/src/ArbitrageAnalyzer.sol\":27384:27393  x / z + z */\n      tag_598\n        /* \"contracts/src/ArbitrageAnalyzer.sol\":27359:27364  y = z */\n      dup4\n        /* \"contracts/src/ArbitrageAnalyzer.sol\":27384:27389  x / z */\n      tag_261\n      dup2\n      dup5\n      tag_14\n      jump\t// in\n        /* \"contracts/src/ArbitrageAnalyzer.sol\":27384:27393  x / z + z */\n    tag_598:\n        /* \"contracts/src/ArbitrageAnalyzer.sol\":775:779  1000 */\n      dup3\n      shr\n      swap2\n      swap1\n        /* \"contracts/src/ArbitrageAnalyzer.sol\":27330:27410  while (z < y) {... */\n      jump(tag_595)\n        /* \"contracts/src/ArbitrageAnalyzer.sol\":27237:27257  if (x == 1) return 1 */\n    tag_591:\n        /* \"contracts/src/ArbitrageAnalyzer.sol\":27249:27257  return 1 */\n      swap1\n      pop\n      swap1\n      jump\t// out\n        /* \"contracts/src/ArbitrageAnalyzer.sol\":27206:27226  if (x == 0) return 0 */\n    tag_589:\n        /* \"contracts/src/ArbitrageAnalyzer.sol\":27218:27226  return 0 */\n      pop\n        /* \"contracts/src/ArbitrageAnalyzer.sol\":27215:27216  0 */\n      0x00\n        /* \"contracts/src/ArbitrageAnalyzer.sol\":27218:27226  return 0 */\n      swap1\n      jump\t// out\n\n    auxdata: 0xa2646970667358221220584549a349c6cdf1d65eba612b838c569684bfd794cd9c205d262ef03a0efc7664736f6c63430008140033\n}\n",
				"bytecode": {
					"linkReferences": {},
					"object": "6080806040523461001657611c5a908161001b8239f35b5f80fdfe6080806040526004361015610012575f80fd5b5f3560e01c9081630b54db8f1461103157508063248fc94014610db957806342598dca14610b9e5780635c5d15cd1461090f578063714c179a146106a7578063d22ae846146103f45763e91ca8b614610069575f80fd5b346103f05760603660031901126103f0576001600160401b036004358181116103f05761009a903690600401611289565b6024929192358281116103f0576100b59036906004016112f7565b9390926044359081116103f0576100d09036906004016112f7565b91909383156103de57851580156103d6575b6103c4576100f2838796976114bf565b936100fc85611629565b9561010a604051978861142a565b858752601f1961011987611629565b015f5b8181106103895750505f905f985f5b8281106101c9578a8a7fce02315fb96cbb0454e42d85a6b1d9cfe79538fc4b258c8e3b924b99bcd7a02a60408c815190815260209485820152a160405190828201838352815180915283604084019201935f5b82811061018b5784840385f35b85518051855280830151858401526040808201519086015260608082015190860152608090810151908501529481019460a09093019260010161017e565b5f9a999a5b8881106101e757506101df9061144b565b99989961012b565b935f805f5b8881106102c157508d8d83156102b75750506127109080828102048214811517156102a3578e926102218f938b90840261148a565b925b8311610299575b9361028e938782948f94610294988f8e610288988f8e61024d9161025495611640565b3596611640565b35604051946102628661140f565b855260208501526040840152606083015260808201526102828383611650565b52611650565b5061144b565b9461144b565b6101ce565b919d508d9161022a565b634e487b7160e01b5f52601160045260245ffd5b9190925f92610223565b6102cc818a8d611459565b351561037b576102dd818a8d611459565b3561271081818102048114821517156102a3578c918b91670de0b6b3a764000091020461030b888b8f611640565b35111580610357575b610329575b50506103249061144b565b6101ec565b9261034683610324949561034061034d959861144b565b97611459565b359061147d565b9190508a89610319565b508d6103738b604061036a878688611459565b0135928b611640565b351015610314565b8a895f61030b888b8f611640565b60209060409a999a5161039b8161140f565b5f8152825f818301525f60408301525f60608301525f6080830152828d0101520198979861011c565b60405163b4fa3fb360e01b8152600490fd5b5082156100e2565b604051637bfbc40b60e11b8152600490fd5b5f80fd5b346103f05760203660031901126103f0576004356001600160401b0381116103f057610424903690600401611289565b60405161010081018181106001600160401b038211176105b6575f9160e0916040528281528260208201528260408201528260608201528260808201528260a08201528260c0820152015280156103de576103e881116103c4575f90815f198180805b8581106105fa5750846104b06104aa826104a4816104b59661148a565b9961148a565b956114a8565b61148a565b916104bf85611664565b86865f5b8181106105d057506104eb6104e6845f6104e06104f19751611696565b916116c3565b6117d7565b9961183a565b90857fcfe57e905ab17a85e457e7deecc108449d49cdd26719290c306542b53b0ec366604080518a8152876020820152a25f1981036105ca57505f905b6040519761010089018981106001600160401b038211176105b6576101009960e0916040528981526020810192835260408101938452606081019485526080810195865260a0810196875260c08101978852019687526040519788525160208801525160408701525160608601525160808501525160a08401525160c08301525160e0820152f35b634e487b7160e01b5f52604160045260245ffd5b9061052e565b906105f29250816105e1918c611459565b356105ec8285611650565b5261144b565b8688916104c3565b959061060e6106249161034689898c611459565b91602061061c89898c611459565b01359061147d565b9561063081878a611459565b35610697575b8361064282888b611459565b3510610683575b8261065582888b611459565b351161066a575b6106659061144b565b610487565b915061066561067a83878a611459565b3592905061065c565b9250610690838689611459565b3592610649565b936106a19061144b565b93610636565b346103f0576101203660031901126103f057600435602435906044356064359260843560a4359260c4359060e4359661010435916040516106e7816113f4565b5f81525f602082015260406106fa611503565b91015287158015610907575b6103c4578588116103c45780156103c45781156103c4575f95889493929190855b8181111561082b5750505090670de0b6b3a764000061074961079f93866114bf565b0498604051998a95869563212cc6e560e11b87526101c09a8b998360048a0194919260e0969399989794919961010087019a8752602087015260408601526060850152608084015260a083015260c08201520152565b03815f305af190811561082057610200946107ef935f936107f1575b5050604080516107ca816113f4565b8581526020810192835201918252604051938452516020840152516040830190611327565bf35b610811929350803d10610819575b610809818361142a565b81019061155c565b9085806107bb565b503d6107ff565b6040513d5f823e3d90fd5b90919293949550888b8883896108a48a670de0b6b3a764000061084e8c866114bf565b0495604051968795869563212cc6e560e11b87526101c09a8b998360048a0194919260e0969399989794919961010087019a8752602087015260408601526060850152608084015260a083015260c08201520152565b03815f305af19081156108205760e0925f926108ea575b505001518881116108de575b50826108d29161147d565b90899594939291610727565b909950965088826108c7565b6109009250803d1061081957610809818361142a565b8d806108bb565b508515610706565b346103f05760e03660031901126103f0576001600160401b036044358181116103f0576109409036906004016112f7565b916064359081116103f0576109599036906004016112f7565b83929192158015610b96575b6103c45761097381856114bf565b9261097d84611629565b9461098b604051968761142a565b848652601f1961099a86611629565b015f5b818110610b7f5750505f805b828110610a455786886040519182527f2218b4fcf560dd36c548fb0ac486b85c68763a82fff0cafe334e2f44be6f3e5060208093a160405190828201838352815180915283604084019201935f5b828110610a045784840385f35b90919282608082610a366001948a51606080918051845260208101516020850152604081015160408501520151910152565b019601910194929190946109f7565b5f5b858110610a5d5750610a589061144b565b6109a9565b91610ac9610a78608435610a7285888c611640565b356114bf565b610ac4612710610a95610a8c888c8c611640565b356024356114bf565b04610ac4612710610aaa60a4356024356114bf565b0491612710610abd60c4356024356114bf565b049461147d565b61147d565b80600435115f14610b7857610ae0906004356114d2565b60243515610b6a578061271081020461271014811517156102a357610b6591610b5f91610b13602435612710830261148a565b610b1e86898d611640565b3591610b2b888c8c611640565b3560405193610b39856113d9565b8452602084015260408301526060820152610b54828d611650565b52610288818c611650565b9261144b565b610a47565b610b6591610b5f915f610b13565b505f610ae0565b602090610b8a6114df565b82828b0101520161099d565b508015610965565b346103f0576101003660031901126103f05760a435600435610bbe611503565b5080156103c457608435158015610db1575b6103c457612710610be3602435836114bf565b04610bf26064356044356114bf565b90612710610c0260c435856114bf565b04612710610c1260e435866114bf565b0494610c2686610ac484610ac4888861147d565b908580821115610da957610c39916114d2565b81811115610da257610c4b82826114d2565b915b612710830297831598848104612710148a17156102a35788610c6e9161148a565b94610c776114df565b9783610d0b575b6101c09a15977ff8d4e3610cbf53d4af8faed23c01aaca89ea1a22b855e591360bbc55071c917b60606040518d81528960208201528b6040820152a16040519a610cc78c6113bd565b8b5260208b015260408a01526060890152608088015260a087015260c086015260e08501526101008401526101208301526101408201526107ef6040518092611327565b612710880288810461271014891517156102a35784610d299161148a565b8952612710810281810461271014821517156102a35784610d499161148a565b60208a01528161271081020461271014821517156102a357610d6f84612710840261148a565b60408a015261271083029a838c0461271014841517156102a357610d96856101c09d61148a565b60608b01529a50610c7e565b5f91610c4d565b50505f610c39565b508115610bd0565b346103f05760403660031901126103f0576001600160401b036004358181116103f057610dea903690600401611289565b9060249283359081116103f057610e059036906004016112f7565b9383156103de5784840361101f575f925f955f5b868110610f815787610e3588610e2f818a61148a565b9261148a565b90670de0b6b3a7640000821115610eb857610eb4604051610e55816113f4565b602d81527f47617320636f73747320617265206a75737469666965642062792070726f666960208201526c7473202d20434f4e54494e554560981b60408201525b604051938493845260208401526060604084015260608301906112b9565b0390f35b6706f05b59d3b20000821115610f2c57610eb4604051610ed7816113f4565b603881527f47617320636f73747320617265206d617267696e616c202d204f5054494d495a60208201527f45206f7220494e4352454153452054524144452053495a4500000000000000006040820152610e96565b610eb4604051610f3b816113f4565b602e81527f47617320636f737473206578636565642070726f66697473202d205245434f4e60208201526d534944455220535452415445475960901b6040820152610e96565b610faf610fa8610f92838589611640565b356020610fa0858c89611459565b0135906114bf565b809761147d565b9580610fc5575b50610fc09061144b565b610e19565b610fd38289869b949b611459565b35670de0b6b3a76400009081810291818304149015171561100c5791610fff61100592610fc09461148a565b9061147d565b9790610fb6565b85634e487b7160e01b5f5260116004525ffd5b60405163512509d360e11b8152600490fd5b346103f057366003190161012081126103f057610100136103f0576001600160401b03610104358181116103f05761106d903690600401611289565b91909260c0810190808210838311176105b65760a0916040525f81525f60208201525f6040820152606091815f84809401525f6080820152015282156103de57600435906044358083111561128257670de0b6b3a76400006110d76110d283866114d2565b6114a8565b045b603281101561127c57506032945b6110f081611664565b5f5b82811061125a575061110c815f6104e06111119451611696565b6118ed565b9661111b82611664565b915f5b8181106112395750505061113a815f6104e061113f9451611696565b611931565b92601e84018094116102a35760c435916096830292808404609614901517156102a3578115611230576111719161196c565b915b61118160a43560e4356119c0565b937f4682a24db80119847024aa747650b50f14fd55b9630f4a7615212e6206c94b9f826040518981528a6020820152866040820152a16040519660c08801968711888810176105b657610eb496604052875260208701978852604087019081526064828801930483526080870193845260a087019485526040519788976020895251602089015251604088015251908601525160808501525160a08401525160c08084015260e08301906112b9565b50505f91611173565b8086611249611255938587611459565b01356105ec8287611650565b61111e565b80604061126b61127793868d611459565b01356105ec8285611650565b6110f2565b946110e7565b60326110d9565b9181601f840112156103f0578235916001600160401b0383116103f0576020808501948460071b0101116103f057565b91908251928382525f5b8481106112e3575050825f602080949584010152601f8019910116010190565b6020818301810151848301820152016112c3565b9181601f840112156103f0578235916001600160401b0383116103f0576020808501948460051b0101116103f057565b906113bb91805182526020810151602083015260408101516040830152606081015160608301526080810151608083015260a081015160a083015260c081015160c083015260e081015160e083015261010080820151908301526101208082015115159083015261014080910151910190606080918051845260208101516020850152604081015160408501520151910152565b565b61016081019081106001600160401b038211176105b657604052565b608081019081106001600160401b038211176105b657604052565b606081019081106001600160401b038211176105b657604052565b60a081019081106001600160401b038211176105b657604052565b90601f801991011681019081106001600160401b038211176105b657604052565b5f1981146102a35760010190565b91908110156114695760071b0190565b634e487b7160e01b5f52603260045260245ffd5b919082018092116102a357565b8115611494570490565b634e487b7160e01b5f52601260045260245ffd5b90612710918281029281840414901517156102a357565b818102929181159184041417156102a357565b919082039182116102a357565b604051906114ec826113d9565b5f6060838281528260208201528260408201520152565b60405190611510826113bd565b815f8082528060208301528060408301528060608301528060808301528060a08301528060c08301528060e0830152806101008301526101208201526101406115576114df565b910152565b809103906101c082126103f05760405191611576836113bd565b815183526020820151602084015260408201516040840152606082015160608401526080820151608084015260a082015160a084015260c082015160c084015260e082015160e08401526101008083015190840152610120908183015180151581036103f05760809285015261013f1901126103f057604051906115f9826113d9565b6101a061014091828101518452610160810151602085015261018081015160408501520151606083015282015290565b6001600160401b0381116105b65760051b60200190565b91908110156114695760051b0190565b80518210156114695760209160051b010190565b9061166e82611629565b61167b604051918261142a565b828152809261168c601f1991611629565b0190602036910137565b905f1982019182136001166102a357565b9060018201915f6001841291129080158216911516176102a357565b918082126116d057505090565b6116da8184611650565b516116e483611696565b90835b83811261176257505061173961174a916117018487611650565b51611733611717611711846116a7565b89611650565b51611721846116a7565b9061172c888b611650565b5288611650565b526116a7565b9261174384611696565b90856116c3565b61175e9261175891506116a7565b836116c3565b5090565b8161176d8288611650565b5110611782575b61177d906117c3565b6116e7565b9161178f61177d916117c3565b9261179a8188611650565b516117a58589611650565b516117b0838a611650565b526117bb8589611650565b529050611774565b6001600160ff1b0381146102a35760010190565b80519081156118345760019180831683036117fe575080516117fa921c90611650565b5190565b821c905f1982019182116102a35761182861181c61182f9383611650565b51918051851c90611650565b519061147d565b901c90565b50505f90565b91909182156118e657905f9182915b84831061186857505050611865916118609161148a565b611bd4565b90565b9091926118b36118b9918361187e878988611459565b3511156118c057670de0b6b3a76400006118ac6118a6866118a08a8c8b611459565b356114d2565b806114bf565b049061147d565b9361144b565b9190611849565b670de0b6b3a76400006118ac6118e16118da898b8a611459565b35876114d2565b6118a6565b5050505f90565b8051801561183457605f8102908104605f036102a35781516064909104908110611928575080515f1981019081116102a3576117fa91611650565b6117fa91611650565b8051801561183457606381029081046063036102a35781516064909104908110611928575080515f1981019081116102a3576117fa91611650565b9080156119b857670de0b6b3a76400009182820291820483036102a3576119929161148a565b818110156118345781018091116102a35780156114945769021e19e0c9bab24000000490565b505061271090565b600a11611b7457612328811015611b1457611d4c811015611ab4576113881115611a55576040516119f0816113d9565b604981527f4c4f5720535543434553532052415445202d20436f6e7369646572206d6f726560208201527f206167677265737369766520706172616d6574657273206f722073747261746560408201526867792072657669657760b81b606082015290565b604051611a61816113f4565b603881527f4d4f44455241544520535543434553532052415445202d20506172616d65746560208201527f7273206d6179206e656564206f7074696d697a6174696f6e0000000000000000604082015290565b50604051611ac1816113f4565b603d81527f474f4f4420535543434553532052415445202d20506172616d6574657273206160208201527f72652062616c616e63656420666f722070726f6669746162696c697479000000604082015290565b50604051611b21816113f4565b603f81527f4849474820535543434553532052415445202d20506172616d6574657273206160208201527f726520636f6e73657276617469766520616e642077656c6c2d74657374656400604082015290565b50604051611b81816113f4565b603c81527f494e53554646494349454e542044415441202d205265636f6d6d656e6461746960208201527f6f6e73206261736564206f6e206c696d697465642073616d706c657300000000604082015290565b8015611c1f576001808214611c1a578082018083116102a357811c90825b838310611bff5750505090565b90919250611c1183610ac4818461148a565b821c9190611bf2565b905090565b505f9056fea2646970667358221220584549a349c6cdf1d65eba612b838c569684bfd794cd9c205d262ef03a0efc7664736f6c63430008140033",
					"opcodes": "PUSH1 0x80 DUP1 PUSH1 0x40 MSTORE CALLVALUE PUSH2 0x16 JUMPI PUSH2 0x1C5A SWAP1 DUP2 PUSH2 0x1B DUP3 CODECOPY RETURN JUMPDEST PUSH0 DUP1 REVERT INVALID PUSH1 0x80 DUP1 PUSH1 0x40 MSTORE PUSH1 0x4 CALLDATASIZE LT ISZERO PUSH2 0x12 JUMPI PUSH0 DUP1 REVERT JUMPDEST PUSH0 CALLDATALOAD PUSH1 0xE0 SHR SWAP1 DUP2 PUSH4 0xB54DB8F EQ PUSH2 0x1031 JUMPI POP DUP1 PUSH4 0x248FC940 EQ PUSH2 0xDB9 JUMPI DUP1 PUSH4 0x42598DCA EQ PUSH2 0xB9E JUMPI DUP1 PUSH4 0x5C5D15CD EQ PUSH2 0x90F JUMPI DUP1 PUSH4 0x714C179A EQ PUSH2 0x6A7 JUMPI DUP1 PUSH4 0xD22AE846 EQ PUSH2 0x3F4 JUMPI PUSH4 0xE91CA8B6 EQ PUSH2 0x69 JUMPI PUSH0 DUP1 REVERT JUMPDEST CALLVALUE PUSH2 0x3F0 JUMPI PUSH1 0x60 CALLDATASIZE PUSH1 0x3 NOT ADD SLT PUSH2 0x3F0 JUMPI PUSH1 0x1 PUSH1 0x1 PUSH1 0x40 SHL SUB PUSH1 0x4 CALLDATALOAD DUP2 DUP2 GT PUSH2 0x3F0 JUMPI PUSH2 0x9A SWAP1 CALLDATASIZE SWAP1 PUSH1 0x4 ADD PUSH2 0x1289 JUMP JUMPDEST PUSH1 0x24 SWAP3 SWAP2 SWAP3 CALLDATALOAD DUP3 DUP2 GT PUSH2 0x3F0 JUMPI PUSH2 0xB5 SWAP1 CALLDATASIZE SWAP1 PUSH1 0x4 ADD PUSH2 0x12F7 JUMP JUMPDEST SWAP4 SWAP1 SWAP3 PUSH1 0x44 CALLDATALOAD SWAP1 DUP2 GT PUSH2 0x3F0 JUMPI PUSH2 0xD0 SWAP1 CALLDATASIZE SWAP1 PUSH1 0x4 ADD PUSH2 0x12F7 JUMP JUMPDEST SWAP2 SWAP1 SWAP4 DUP4 ISZERO PUSH2 0x3DE JUMPI DUP6 ISZERO DUP1 ISZERO PUSH2 0x3D6 JUMPI JUMPDEST PUSH2 0x3C4 JUMPI PUSH2 0xF2 DUP4 DUP8 SWAP7 SWAP8 PUSH2 0x14BF JUMP JUMPDEST SWAP4 PUSH2 0xFC DUP6 PUSH2 0x1629 JUMP JUMPDEST SWAP6 PUSH2 0x10A PUSH1 0x40 MLOAD SWAP8 DUP9 PUSH2 0x142A JUMP JUMPDEST DUP6 DUP8 MSTORE PUSH1 0x1F NOT PUSH2 0x119 DUP8 PUSH2 0x1629 JUMP JUMPDEST ADD PUSH0 JUMPDEST DUP2 DUP2 LT PUSH2 0x389 JUMPI POP POP PUSH0 SWAP1 PUSH0 SWAP9 PUSH0 JUMPDEST DUP3 DUP2 LT PUSH2 0x1C9 JUMPI DUP11 DUP11 PUSH32 0xCE02315FB96CBB0454E42D85A6B1D9CFE79538FC4B258C8E3B924B99BCD7A02A PUSH1 0x40 DUP13 DUP2 MLOAD SWAP1 DUP2 MSTORE PUSH1 0x20 SWAP5 DUP6 DUP3 ADD MSTORE LOG1 PUSH1 0x40 MLOAD SWAP1 DUP3 DUP3 ADD DUP4 DUP4 MSTORE DUP2 MLOAD DUP1 SWAP2 MSTORE DUP4 PUSH1 0x40 DUP5 ADD SWAP3 ADD SWAP4 PUSH0 JUMPDEST DUP3 DUP2 LT PUSH2 0x18B JUMPI DUP5 DUP5 SUB DUP6 RETURN JUMPDEST DUP6 MLOAD DUP1 MLOAD DUP6 MSTORE DUP1 DUP4 ADD MLOAD DUP6 DUP5 ADD MSTORE PUSH1 0x40 DUP1 DUP3 ADD MLOAD SWAP1 DUP7 ADD MSTORE PUSH1 0x60 DUP1 DUP3 ADD MLOAD SWAP1 DUP7 ADD MSTORE PUSH1 0x80 SWAP1 DUP2 ADD MLOAD SWAP1 DUP6 ADD MSTORE SWAP5 DUP2 ADD SWAP5 PUSH1 0xA0 SWAP1 SWAP4 ADD SWAP3 PUSH1 0x1 ADD PUSH2 0x17E JUMP JUMPDEST PUSH0 SWAP11 SWAP10 SWAP11 JUMPDEST DUP9 DUP2 LT PUSH2 0x1E7 JUMPI POP PUSH2 0x1DF SWAP1 PUSH2 0x144B JUMP JUMPDEST SWAP10 SWAP9 SWAP10 PUSH2 0x12B JUMP JUMPDEST SWAP4 PUSH0 DUP1 PUSH0 JUMPDEST DUP9 DUP2 LT PUSH2 0x2C1 JUMPI POP DUP14 DUP14 DUP4 ISZERO PUSH2 0x2B7 JUMPI POP POP PUSH2 0x2710 SWAP1 DUP1 DUP3 DUP2 MUL DIV DUP3 EQ DUP2 ISZERO OR ISZERO PUSH2 0x2A3 JUMPI DUP15 SWAP3 PUSH2 0x221 DUP16 SWAP4 DUP12 SWAP1 DUP5 MUL PUSH2 0x148A JUMP JUMPDEST SWAP3 JUMPDEST DUP4 GT PUSH2 0x299 JUMPI JUMPDEST SWAP4 PUSH2 0x28E SWAP4 DUP8 DUP3 SWAP5 DUP16 SWAP5 PUSH2 0x294 SWAP9 DUP16 DUP15 PUSH2 0x288 SWAP9 DUP16 DUP15 PUSH2 0x24D SWAP2 PUSH2 0x254 SWAP6 PUSH2 0x1640 JUMP JUMPDEST CALLDATALOAD SWAP7 PUSH2 0x1640 JUMP JUMPDEST CALLDATALOAD PUSH1 0x40 MLOAD SWAP5 PUSH2 0x262 DUP7 PUSH2 0x140F JUMP JUMPDEST DUP6 MSTORE PUSH1 0x20 DUP6 ADD MSTORE PUSH1 0x40 DUP5 ADD MSTORE PUSH1 0x60 DUP4 ADD MSTORE PUSH1 0x80 DUP3 ADD MSTORE PUSH2 0x282 DUP4 DUP4 PUSH2 0x1650 JUMP JUMPDEST MSTORE PUSH2 0x1650 JUMP JUMPDEST POP PUSH2 0x144B JUMP JUMPDEST SWAP5 PUSH2 0x144B JUMP JUMPDEST PUSH2 0x1CE JUMP JUMPDEST SWAP2 SWAP14 POP DUP14 SWAP2 PUSH2 0x22A JUMP JUMPDEST PUSH4 0x4E487B71 PUSH1 0xE0 SHL PUSH0 MSTORE PUSH1 0x11 PUSH1 0x4 MSTORE PUSH1 0x24 PUSH0 REVERT JUMPDEST SWAP2 SWAP1 SWAP3 PUSH0 SWAP3 PUSH2 0x223 JUMP JUMPDEST PUSH2 0x2CC DUP2 DUP11 DUP14 PUSH2 0x1459 JUMP JUMPDEST CALLDATALOAD ISZERO PUSH2 0x37B JUMPI PUSH2 0x2DD DUP2 DUP11 DUP14 PUSH2 0x1459 JUMP JUMPDEST CALLDATALOAD PUSH2 0x2710 DUP2 DUP2 DUP2 MUL DIV DUP2 EQ DUP3 ISZERO OR ISZERO PUSH2 0x2A3 JUMPI DUP13 SWAP2 DUP12 SWAP2 PUSH8 0xDE0B6B3A7640000 SWAP2 MUL DIV PUSH2 0x30B DUP9 DUP12 DUP16 PUSH2 0x1640 JUMP JUMPDEST CALLDATALOAD GT ISZERO DUP1 PUSH2 0x357 JUMPI JUMPDEST PUSH2 0x329 JUMPI JUMPDEST POP POP PUSH2 0x324 SWAP1 PUSH2 0x144B JUMP JUMPDEST PUSH2 0x1EC JUMP JUMPDEST SWAP3 PUSH2 0x346 DUP4 PUSH2 0x324 SWAP5 SWAP6 PUSH2 0x340 PUSH2 0x34D SWAP6 SWAP9 PUSH2 0x144B JUMP JUMPDEST SWAP8 PUSH2 0x1459 JUMP JUMPDEST CALLDATALOAD SWAP1 PUSH2 0x147D JUMP JUMPDEST SWAP2 SWAP1 POP DUP11 DUP10 PUSH2 0x319 JUMP JUMPDEST POP DUP14 PUSH2 0x373 DUP12 PUSH1 0x40 PUSH2 0x36A DUP8 DUP7 DUP9 PUSH2 0x1459 JUMP JUMPDEST ADD CALLDATALOAD SWAP3 DUP12 PUSH2 0x1640 JUMP JUMPDEST CALLDATALOAD LT ISZERO PUSH2 0x314 JUMP JUMPDEST DUP11 DUP10 PUSH0 PUSH2 0x30B DUP9 DUP12 DUP16 PUSH2 0x1640 JUMP JUMPDEST PUSH1 0x20 SWAP1 PUSH1 0x40 SWAP11 SWAP10 SWAP11 MLOAD PUSH2 0x39B DUP2 PUSH2 0x140F JUMP JUMPDEST PUSH0 DUP2 MSTORE DUP3 PUSH0 DUP2 DUP4 ADD MSTORE PUSH0 PUSH1 0x40 DUP4 ADD MSTORE PUSH0 PUSH1 0x60 DUP4 ADD MSTORE PUSH0 PUSH1 0x80 DUP4 ADD MSTORE DUP3 DUP14 ADD ADD MSTORE ADD SWAP9 SWAP8 SWAP9 PUSH2 0x11C JUMP JUMPDEST PUSH1 0x40 MLOAD PUSH4 0xB4FA3FB3 PUSH1 0xE0 SHL DUP2 MSTORE PUSH1 0x4 SWAP1 REVERT JUMPDEST POP DUP3 ISZERO PUSH2 0xE2 JUMP JUMPDEST PUSH1 0x40 MLOAD PUSH4 0x7BFBC40B PUSH1 0xE1 SHL DUP2 MSTORE PUSH1 0x4 SWAP1 REVERT JUMPDEST PUSH0 DUP1 REVERT JUMPDEST CALLVALUE PUSH2 0x3F0 JUMPI PUSH1 0x20 CALLDATASIZE PUSH1 0x3 NOT ADD SLT PUSH2 0x3F0 JUMPI PUSH1 0x4 CALLDATALOAD PUSH1 0x1 PUSH1 0x1 PUSH1 0x40 SHL SUB DUP2 GT PUSH2 0x3F0 JUMPI PUSH2 0x424 SWAP1 CALLDATASIZE SWAP1 PUSH1 0x4 ADD PUSH2 0x1289 JUMP JUMPDEST PUSH1 0x40 MLOAD PUSH2 0x100 DUP2 ADD DUP2 DUP2 LT PUSH1 0x1 PUSH1 0x1 PUSH1 0x40 SHL SUB DUP3 GT OR PUSH2 0x5B6 JUMPI PUSH0 SWAP2 PUSH1 0xE0 SWAP2 PUSH1 0x40 MSTORE DUP3 DUP2 MSTORE DUP3 PUSH1 0x20 DUP3 ADD MSTORE DUP3 PUSH1 0x40 DUP3 ADD MSTORE DUP3 PUSH1 0x60 DUP3 ADD MSTORE DUP3 PUSH1 0x80 DUP3 ADD MSTORE DUP3 PUSH1 0xA0 DUP3 ADD MSTORE DUP3 PUSH1 0xC0 DUP3 ADD MSTORE ADD MSTORE DUP1 ISZERO PUSH2 0x3DE JUMPI PUSH2 0x3E8 DUP2 GT PUSH2 0x3C4 JUMPI PUSH0 SWAP1 DUP2 PUSH0 NOT DUP2 DUP1 DUP1 JUMPDEST DUP6 DUP2 LT PUSH2 0x5FA JUMPI POP DUP5 PUSH2 0x4B0 PUSH2 0x4AA DUP3 PUSH2 0x4A4 DUP2 PUSH2 0x4B5 SWAP7 PUSH2 0x148A JUMP JUMPDEST SWAP10 PUSH2 0x148A JUMP JUMPDEST SWAP6 PUSH2 0x14A8 JUMP JUMPDEST PUSH2 0x148A JUMP JUMPDEST SWAP2 PUSH2 0x4BF DUP6 PUSH2 0x1664 JUMP JUMPDEST DUP7 DUP7 PUSH0 JUMPDEST DUP2 DUP2 LT PUSH2 0x5D0 JUMPI POP PUSH2 0x4EB PUSH2 0x4E6 DUP5 PUSH0 PUSH2 0x4E0 PUSH2 0x4F1 SWAP8 MLOAD PUSH2 0x1696 JUMP JUMPDEST SWAP2 PUSH2 0x16C3 JUMP JUMPDEST PUSH2 0x17D7 JUMP JUMPDEST SWAP10 PUSH2 0x183A JUMP JUMPDEST SWAP1 DUP6 PUSH32 0xCFE57E905AB17A85E457E7DEECC108449D49CDD26719290C306542B53B0EC366 PUSH1 0x40 DUP1 MLOAD DUP11 DUP2 MSTORE DUP8 PUSH1 0x20 DUP3 ADD MSTORE LOG2 PUSH0 NOT DUP2 SUB PUSH2 0x5CA JUMPI POP PUSH0 SWAP1 JUMPDEST PUSH1 0x40 MLOAD SWAP8 PUSH2 0x100 DUP10 ADD DUP10 DUP2 LT PUSH1 0x1 PUSH1 0x1 PUSH1 0x40 SHL SUB DUP3 GT OR PUSH2 0x5B6 JUMPI PUSH2 0x100 SWAP10 PUSH1 0xE0 SWAP2 PUSH1 0x40 MSTORE DUP10 DUP2 MSTORE PUSH1 0x20 DUP2 ADD SWAP3 DUP4 MSTORE PUSH1 0x40 DUP2 ADD SWAP4 DUP5 MSTORE PUSH1 0x60 DUP2 ADD SWAP5 DUP6 MSTORE PUSH1 0x80 DUP2 ADD SWAP6 DUP7 MSTORE PUSH1 0xA0 DUP2 ADD SWAP7 DUP8 MSTORE PUSH1 0xC0 DUP2 ADD SWAP8 DUP9 MSTORE ADD SWAP7 DUP8 MSTORE PUSH1 0x40 MLOAD SWAP8 DUP9 MSTORE MLOAD PUSH1 0x20 DUP9 ADD MSTORE MLOAD PUSH1 0x40 DUP8 ADD MSTORE MLOAD PUSH1 0x60 DUP7 ADD MSTORE MLOAD PUSH1 0x80 DUP6 ADD MSTORE MLOAD PUSH1 0xA0 DUP5 ADD MSTORE MLOAD PUSH1 0xC0 DUP4 ADD MSTORE MLOAD PUSH1 0xE0 DUP3 ADD MSTORE RETURN JUMPDEST PUSH4 0x4E487B71 PUSH1 0xE0 SHL PUSH0 MSTORE PUSH1 0x41 PUSH1 0x4 MSTORE PUSH1 0x24 PUSH0 REVERT JUMPDEST SWAP1 PUSH2 0x52E JUMP JUMPDEST SWAP1 PUSH2 0x5F2 SWAP3 POP DUP2 PUSH2 0x5E1 SWAP2 DUP13 PUSH2 0x1459 JUMP JUMPDEST CALLDATALOAD PUSH2 0x5EC DUP3 DUP6 PUSH2 0x1650 JUMP JUMPDEST MSTORE PUSH2 0x144B JUMP JUMPDEST DUP7 DUP9 SWAP2 PUSH2 0x4C3 JUMP JUMPDEST SWAP6 SWAP1 PUSH2 0x60E PUSH2 0x624 SWAP2 PUSH2 0x346 DUP10 DUP10 DUP13 PUSH2 0x1459 JUMP JUMPDEST SWAP2 PUSH1 0x20 PUSH2 0x61C DUP10 DUP10 DUP13 PUSH2 0x1459 JUMP JUMPDEST ADD CALLDATALOAD SWAP1 PUSH2 0x147D JUMP JUMPDEST SWAP6 PUSH2 0x630 DUP2 DUP8 DUP11 PUSH2 0x1459 JUMP JUMPDEST CALLDATALOAD PUSH2 0x697 JUMPI JUMPDEST DUP4 PUSH2 0x642 DUP3 DUP9 DUP12 PUSH2 0x1459 JUMP JUMPDEST CALLDATALOAD LT PUSH2 0x683 JUMPI JUMPDEST DUP3 PUSH2 0x655 DUP3 DUP9 DUP12 PUSH2 0x1459 JUMP JUMPDEST CALLDATALOAD GT PUSH2 0x66A JUMPI JUMPDEST PUSH2 0x665 SWAP1 PUSH2 0x144B JUMP JUMPDEST PUSH2 0x487 JUMP JUMPDEST SWAP2 POP PUSH2 0x665 PUSH2 0x67A DUP4 DUP8 DUP11 PUSH2 0x1459 JUMP JUMPDEST CALLDATALOAD SWAP3 SWAP1 POP PUSH2 0x65C JUMP JUMPDEST SWAP3 POP PUSH2 0x690 DUP4 DUP7 DUP10 PUSH2 0x1459 JUMP JUMPDEST CALLDATALOAD SWAP3 PUSH2 0x649 JUMP JUMPDEST SWAP4 PUSH2 0x6A1 SWAP1 PUSH2 0x144B JUMP JUMPDEST SWAP4 PUSH2 0x636 JUMP JUMPDEST CALLVALUE PUSH2 0x3F0 JUMPI PUSH2 0x120 CALLDATASIZE PUSH1 0x3 NOT ADD SLT PUSH2 0x3F0 JUMPI PUSH1 0x4 CALLDATALOAD PUSH1 0x24 CALLDATALOAD SWAP1 PUSH1 0x44 CALLDATALOAD PUSH1 0x64 CALLDATALOAD SWAP3 PUSH1 0x84 CALLDATALOAD PUSH1 0xA4 CALLDATALOAD SWAP3 PUSH1 0xC4 CALLDATALOAD SWAP1 PUSH1 0xE4 CALLDATALOAD SWAP7 PUSH2 0x104 CALLDATALOAD SWAP2 PUSH1 0x40 MLOAD PUSH2 0x6E7 DUP2 PUSH2 0x13F4 JUMP JUMPDEST PUSH0 DUP2 MSTORE PUSH0 PUSH1 0x20 DUP3 ADD MSTORE PUSH1 0x40 PUSH2 0x6FA PUSH2 0x1503 JUMP JUMPDEST SWAP2 ADD MSTORE DUP8 ISZERO DUP1 ISZERO PUSH2 0x907 JUMPI JUMPDEST PUSH2 0x3C4 JUMPI DUP6 DUP9 GT PUSH2 0x3C4 JUMPI DUP1 ISZERO PUSH2 0x3C4 JUMPI DUP2 ISZERO PUSH2 0x3C4 JUMPI PUSH0 SWAP6 DUP9 SWAP5 SWAP4 SWAP3 SWAP2 SWAP1 DUP6 JUMPDEST DUP2 DUP2 GT ISZERO PUSH2 0x82B JUMPI POP POP POP SWAP1 PUSH8 0xDE0B6B3A7640000 PUSH2 0x749 PUSH2 0x79F SWAP4 DUP7 PUSH2 0x14BF JUMP JUMPDEST DIV SWAP9 PUSH1 0x40 MLOAD SWAP10 DUP11 SWAP6 DUP7 SWAP6 PUSH4 0x212CC6E5 PUSH1 0xE1 SHL DUP8 MSTORE PUSH2 0x1C0 SWAP11 DUP12 SWAP10 DUP4 PUSH1 0x4 DUP11 ADD SWAP5 SWAP2 SWAP3 PUSH1 0xE0 SWAP7 SWAP4 SWAP10 SWAP9 SWAP8 SWAP5 SWAP2 SWAP10 PUSH2 0x100 DUP8 ADD SWAP11 DUP8 MSTORE PUSH1 0x20 DUP8 ADD MSTORE PUSH1 0x40 DUP7 ADD MSTORE PUSH1 0x60 DUP6 ADD MSTORE PUSH1 0x80 DUP5 ADD MSTORE PUSH1 0xA0 DUP4 ADD MSTORE PUSH1 0xC0 DUP3 ADD MSTORE ADD MSTORE JUMP JUMPDEST SUB DUP2 PUSH0 ADDRESS GAS CALL SWAP1 DUP2 ISZERO PUSH2 0x820 JUMPI PUSH2 0x200 SWAP5 PUSH2 0x7EF SWAP4 PUSH0 SWAP4 PUSH2 0x7F1 JUMPI JUMPDEST POP POP PUSH1 0x40 DUP1 MLOAD PUSH2 0x7CA DUP2 PUSH2 0x13F4 JUMP JUMPDEST DUP6 DUP2 MSTORE PUSH1 0x20 DUP2 ADD SWAP3 DUP4 MSTORE ADD SWAP2 DUP3 MSTORE PUSH1 0x40 MLOAD SWAP4 DUP5 MSTORE MLOAD PUSH1 0x20 DUP5 ADD MSTORE MLOAD PUSH1 0x40 DUP4 ADD SWAP1 PUSH2 0x1327 JUMP JUMPDEST RETURN JUMPDEST PUSH2 0x811 SWAP3 SWAP4 POP DUP1 RETURNDATASIZE LT PUSH2 0x819 JUMPI JUMPDEST PUSH2 0x809 DUP2 DUP4 PUSH2 0x142A JUMP JUMPDEST DUP2 ADD SWAP1 PUSH2 0x155C JUMP JUMPDEST SWAP1 DUP6 DUP1 PUSH2 0x7BB JUMP JUMPDEST POP RETURNDATASIZE PUSH2 0x7FF JUMP JUMPDEST PUSH1 0x40 MLOAD RETURNDATASIZE PUSH0 DUP3 RETURNDATACOPY RETURNDATASIZE SWAP1 REVERT JUMPDEST SWAP1 SWAP2 SWAP3 SWAP4 SWAP5 SWAP6 POP DUP9 DUP12 DUP9 DUP4 DUP10 PUSH2 0x8A4 DUP11 PUSH8 0xDE0B6B3A7640000 PUSH2 0x84E DUP13 DUP7 PUSH2 0x14BF JUMP JUMPDEST DIV SWAP6 PUSH1 0x40 MLOAD SWAP7 DUP8 SWAP6 DUP7 SWAP6 PUSH4 0x212CC6E5 PUSH1 0xE1 SHL DUP8 MSTORE PUSH2 0x1C0 SWAP11 DUP12 SWAP10 DUP4 PUSH1 0x4 DUP11 ADD SWAP5 SWAP2 SWAP3 PUSH1 0xE0 SWAP7 SWAP4 SWAP10 SWAP9 SWAP8 SWAP5 SWAP2 SWAP10 PUSH2 0x100 DUP8 ADD SWAP11 DUP8 MSTORE PUSH1 0x20 DUP8 ADD MSTORE PUSH1 0x40 DUP7 ADD MSTORE PUSH1 0x60 DUP6 ADD MSTORE PUSH1 0x80 DUP5 ADD MSTORE PUSH1 0xA0 DUP4 ADD MSTORE PUSH1 0xC0 DUP3 ADD MSTORE ADD MSTORE JUMP JUMPDEST SUB DUP2 PUSH0 ADDRESS GAS CALL SWAP1 DUP2 ISZERO PUSH2 0x820 JUMPI PUSH1 0xE0 SWAP3 PUSH0 SWAP3 PUSH2 0x8EA JUMPI JUMPDEST POP POP ADD MLOAD DUP9 DUP2 GT PUSH2 0x8DE JUMPI JUMPDEST POP DUP3 PUSH2 0x8D2 SWAP2 PUSH2 0x147D JUMP JUMPDEST SWAP1 DUP10 SWAP6 SWAP5 SWAP4 SWAP3 SWAP2 PUSH2 0x727 JUMP JUMPDEST SWAP1 SWAP10 POP SWAP7 POP DUP9 DUP3 PUSH2 0x8C7 JUMP JUMPDEST PUSH2 0x900 SWAP3 POP DUP1 RETURNDATASIZE LT PUSH2 0x819 JUMPI PUSH2 0x809 DUP2 DUP4 PUSH2 0x142A JUMP JUMPDEST DUP14 DUP1 PUSH2 0x8BB JUMP JUMPDEST POP DUP6 ISZERO PUSH2 0x706 JUMP JUMPDEST CALLVALUE PUSH2 0x3F0 JUMPI PUSH1 0xE0 CALLDATASIZE PUSH1 0x3 NOT ADD SLT PUSH2 0x3F0 JUMPI PUSH1 0x1 PUSH1 0x1 PUSH1 0x40 SHL SUB PUSH1 0x44 CALLDATALOAD DUP2 DUP2 GT PUSH2 0x3F0 JUMPI PUSH2 0x940 SWAP1 CALLDATASIZE SWAP1 PUSH1 0x4 ADD PUSH2 0x12F7 JUMP JUMPDEST SWAP2 PUSH1 0x64 CALLDATALOAD SWAP1 DUP2 GT PUSH2 0x3F0 JUMPI PUSH2 0x959 SWAP1 CALLDATASIZE SWAP1 PUSH1 0x4 ADD PUSH2 0x12F7 JUMP JUMPDEST DUP4 SWAP3 SWAP2 SWAP3 ISZERO DUP1 ISZERO PUSH2 0xB96 JUMPI JUMPDEST PUSH2 0x3C4 JUMPI PUSH2 0x973 DUP2 DUP6 PUSH2 0x14BF JUMP JUMPDEST SWAP3 PUSH2 0x97D DUP5 PUSH2 0x1629 JUMP JUMPDEST SWAP5 PUSH2 0x98B PUSH1 0x40 MLOAD SWAP7 DUP8 PUSH2 0x142A JUMP JUMPDEST DUP5 DUP7 MSTORE PUSH1 0x1F NOT PUSH2 0x99A DUP7 PUSH2 0x1629 JUMP JUMPDEST ADD PUSH0 JUMPDEST DUP2 DUP2 LT PUSH2 0xB7F JUMPI POP POP PUSH0 DUP1 JUMPDEST DUP3 DUP2 LT PUSH2 0xA45 JUMPI DUP7 DUP9 PUSH1 0x40 MLOAD SWAP2 DUP3 MSTORE PUSH32 0x2218B4FCF560DD36C548FB0AC486B85C68763A82FFF0CAFE334E2F44BE6F3E50 PUSH1 0x20 DUP1 SWAP4 LOG1 PUSH1 0x40 MLOAD SWAP1 DUP3 DUP3 ADD DUP4 DUP4 MSTORE DUP2 MLOAD DUP1 SWAP2 MSTORE DUP4 PUSH1 0x40 DUP5 ADD SWAP3 ADD SWAP4 PUSH0 JUMPDEST DUP3 DUP2 LT PUSH2 0xA04 JUMPI DUP5 DUP5 SUB DUP6 RETURN JUMPDEST SWAP1 SWAP2 SWAP3 DUP3 PUSH1 0x80 DUP3 PUSH2 0xA36 PUSH1 0x1 SWAP5 DUP11 MLOAD PUSH1 0x60 DUP1 SWAP2 DUP1 MLOAD DUP5 MSTORE PUSH1 0x20 DUP2 ADD MLOAD PUSH1 0x20 DUP6 ADD MSTORE PUSH1 0x40 DUP2 ADD MLOAD PUSH1 0x40 DUP6 ADD MSTORE ADD MLOAD SWAP2 ADD MSTORE JUMP JUMPDEST ADD SWAP7 ADD SWAP2 ADD SWAP5 SWAP3 SWAP2 SWAP1 SWAP5 PUSH2 0x9F7 JUMP JUMPDEST PUSH0 JUMPDEST DUP6 DUP2 LT PUSH2 0xA5D JUMPI POP PUSH2 0xA58 SWAP1 PUSH2 0x144B JUMP JUMPDEST PUSH2 0x9A9 JUMP JUMPDEST SWAP2 PUSH2 0xAC9 PUSH2 0xA78 PUSH1 0x84 CALLDATALOAD PUSH2 0xA72 DUP6 DUP9 DUP13 PUSH2 0x1640 JUMP JUMPDEST CALLDATALOAD PUSH2 0x14BF JUMP JUMPDEST PUSH2 0xAC4 PUSH2 0x2710 PUSH2 0xA95 PUSH2 0xA8C DUP9 DUP13 DUP13 PUSH2 0x1640 JUMP JUMPDEST CALLDATALOAD PUSH1 0x24 CALLDATALOAD PUSH2 0x14BF JUMP JUMPDEST DIV PUSH2 0xAC4 PUSH2 0x2710 PUSH2 0xAAA PUSH1 0xA4 CALLDATALOAD PUSH1 0x24 CALLDATALOAD PUSH2 0x14BF JUMP JUMPDEST DIV SWAP2 PUSH2 0x2710 PUSH2 0xABD PUSH1 0xC4 CALLDATALOAD PUSH1 0x24 CALLDATALOAD PUSH2 0x14BF JUMP JUMPDEST DIV SWAP5 PUSH2 0x147D JUMP JUMPDEST PUSH2 0x147D JUMP JUMPDEST DUP1 PUSH1 0x4 CALLDATALOAD GT PUSH0 EQ PUSH2 0xB78 JUMPI PUSH2 0xAE0 SWAP1 PUSH1 0x4 CALLDATALOAD PUSH2 0x14D2 JUMP JUMPDEST PUSH1 0x24 CALLDATALOAD ISZERO PUSH2 0xB6A JUMPI DUP1 PUSH2 0x2710 DUP2 MUL DIV PUSH2 0x2710 EQ DUP2 ISZERO OR ISZERO PUSH2 0x2A3 JUMPI PUSH2 0xB65 SWAP2 PUSH2 0xB5F SWAP2 PUSH2 0xB13 PUSH1 0x24 CALLDATALOAD PUSH2 0x2710 DUP4 MUL PUSH2 0x148A JUMP JUMPDEST PUSH2 0xB1E DUP7 DUP10 DUP14 PUSH2 0x1640 JUMP JUMPDEST CALLDATALOAD SWAP2 PUSH2 0xB2B DUP9 DUP13 DUP13 PUSH2 0x1640 JUMP JUMPDEST CALLDATALOAD PUSH1 0x40 MLOAD SWAP4 PUSH2 0xB39 DUP6 PUSH2 0x13D9 JUMP JUMPDEST DUP5 MSTORE PUSH1 0x20 DUP5 ADD MSTORE PUSH1 0x40 DUP4 ADD MSTORE PUSH1 0x60 DUP3 ADD MSTORE PUSH2 0xB54 DUP3 DUP14 PUSH2 0x1650 JUMP JUMPDEST MSTORE PUSH2 0x288 DUP2 DUP13 PUSH2 0x1650 JUMP JUMPDEST SWAP3 PUSH2 0x144B JUMP JUMPDEST PUSH2 0xA47 JUMP JUMPDEST PUSH2 0xB65 SWAP2 PUSH2 0xB5F SWAP2 PUSH0 PUSH2 0xB13 JUMP JUMPDEST POP PUSH0 PUSH2 0xAE0 JUMP JUMPDEST PUSH1 0x20 SWAP1 PUSH2 0xB8A PUSH2 0x14DF JUMP JUMPDEST DUP3 DUP3 DUP12 ADD ADD MSTORE ADD PUSH2 0x99D JUMP JUMPDEST POP DUP1 ISZERO PUSH2 0x965 JUMP JUMPDEST CALLVALUE PUSH2 0x3F0 JUMPI PUSH2 0x100 CALLDATASIZE PUSH1 0x3 NOT ADD SLT PUSH2 0x3F0 JUMPI PUSH1 0xA4 CALLDATALOAD PUSH1 0x4 CALLDATALOAD PUSH2 0xBBE PUSH2 0x1503 JUMP JUMPDEST POP DUP1 ISZERO PUSH2 0x3C4 JUMPI PUSH1 0x84 CALLDATALOAD ISZERO DUP1 ISZERO PUSH2 0xDB1 JUMPI JUMPDEST PUSH2 0x3C4 JUMPI PUSH2 0x2710 PUSH2 0xBE3 PUSH1 0x24 CALLDATALOAD DUP4 PUSH2 0x14BF JUMP JUMPDEST DIV PUSH2 0xBF2 PUSH1 0x64 CALLDATALOAD PUSH1 0x44 CALLDATALOAD PUSH2 0x14BF JUMP JUMPDEST SWAP1 PUSH2 0x2710 PUSH2 0xC02 PUSH1 0xC4 CALLDATALOAD DUP6 PUSH2 0x14BF JUMP JUMPDEST DIV PUSH2 0x2710 PUSH2 0xC12 PUSH1 0xE4 CALLDATALOAD DUP7 PUSH2 0x14BF JUMP JUMPDEST DIV SWAP5 PUSH2 0xC26 DUP7 PUSH2 0xAC4 DUP5 PUSH2 0xAC4 DUP9 DUP9 PUSH2 0x147D JUMP JUMPDEST SWAP1 DUP6 DUP1 DUP3 GT ISZERO PUSH2 0xDA9 JUMPI PUSH2 0xC39 SWAP2 PUSH2 0x14D2 JUMP JUMPDEST DUP2 DUP2 GT ISZERO PUSH2 0xDA2 JUMPI PUSH2 0xC4B DUP3 DUP3 PUSH2 0x14D2 JUMP JUMPDEST SWAP2 JUMPDEST PUSH2 0x2710 DUP4 MUL SWAP8 DUP4 ISZERO SWAP9 DUP5 DUP2 DIV PUSH2 0x2710 EQ DUP11 OR ISZERO PUSH2 0x2A3 JUMPI DUP9 PUSH2 0xC6E SWAP2 PUSH2 0x148A JUMP JUMPDEST SWAP5 PUSH2 0xC77 PUSH2 0x14DF JUMP JUMPDEST SWAP8 DUP4 PUSH2 0xD0B JUMPI JUMPDEST PUSH2 0x1C0 SWAP11 ISZERO SWAP8 PUSH32 0xF8D4E3610CBF53D4AF8FAED23C01AACA89EA1A22B855E591360BBC55071C917B PUSH1 0x60 PUSH1 0x40 MLOAD DUP14 DUP2 MSTORE DUP10 PUSH1 0x20 DUP3 ADD MSTORE DUP12 PUSH1 0x40 DUP3 ADD MSTORE LOG1 PUSH1 0x40 MLOAD SWAP11 PUSH2 0xCC7 DUP13 PUSH2 0x13BD JUMP JUMPDEST DUP12 MSTORE PUSH1 0x20 DUP12 ADD MSTORE PUSH1 0x40 DUP11 ADD MSTORE PUSH1 0x60 DUP10 ADD MSTORE PUSH1 0x80 DUP9 ADD MSTORE PUSH1 0xA0 DUP8 ADD MSTORE PUSH1 0xC0 DUP7 ADD MSTORE PUSH1 0xE0 DUP6 ADD MSTORE PUSH2 0x100 DUP5 ADD MSTORE PUSH2 0x120 DUP4 ADD MSTORE PUSH2 0x140 DUP3 ADD MSTORE PUSH2 0x7EF PUSH1 0x40 MLOAD DUP1 SWAP3 PUSH2 0x1327 JUMP JUMPDEST PUSH2 0x2710 DUP9 MUL DUP9 DUP2 DIV PUSH2 0x2710 EQ DUP10 ISZERO OR ISZERO PUSH2 0x2A3 JUMPI DUP5 PUSH2 0xD29 SWAP2 PUSH2 0x148A JUMP JUMPDEST DUP10 MSTORE PUSH2 0x2710 DUP2 MUL DUP2 DUP2 DIV PUSH2 0x2710 EQ DUP3 ISZERO OR ISZERO PUSH2 0x2A3 JUMPI DUP5 PUSH2 0xD49 SWAP2 PUSH2 0x148A JUMP JUMPDEST PUSH1 0x20 DUP11 ADD MSTORE DUP2 PUSH2 0x2710 DUP2 MUL DIV PUSH2 0x2710 EQ DUP3 ISZERO OR ISZERO PUSH2 0x2A3 JUMPI PUSH2 0xD6F DUP5 PUSH2 0x2710 DUP5 MUL PUSH2 0x148A JUMP JUMPDEST PUSH1 0x40 DUP11 ADD MSTORE PUSH2 0x2710 DUP4 MUL SWAP11 DUP4 DUP13 DIV PUSH2 0x2710 EQ DUP5 ISZERO OR ISZERO PUSH2 0x2A3 JUMPI PUSH2 0xD96 DUP6 PUSH2 0x1C0 SWAP14 PUSH2 0x148A JUMP JUMPDEST PUSH1 0x60 DUP12 ADD MSTORE SWAP11 POP PUSH2 0xC7E JUMP JUMPDEST PUSH0 SWAP2 PUSH2 0xC4D JUMP JUMPDEST POP POP PUSH0 PUSH2 0xC39 JUMP JUMPDEST POP DUP2 ISZERO PUSH2 0xBD0 JUMP JUMPDEST CALLVALUE PUSH2 0x3F0 JUMPI PUSH1 0x40 CALLDATASIZE PUSH1 0x3 NOT ADD SLT PUSH2 0x3F0 JUMPI PUSH1 0x1 PUSH1 0x1 PUSH1 0x40 SHL SUB PUSH1 0x4 CALLDATALOAD DUP2 DUP2 GT PUSH2 0x3F0 JUMPI PUSH2 0xDEA SWAP1 CALLDATASIZE SWAP1 PUSH1 0x4 ADD PUSH2 0x1289 JUMP JUMPDEST SWAP1 PUSH1 0x24 SWAP3 DUP4 CALLDATALOAD SWAP1 DUP2 GT PUSH2 0x3F0 JUMPI PUSH2 0xE05 SWAP1 CALLDATASIZE SWAP1 PUSH1 0x4 ADD PUSH2 0x12F7 JUMP JUMPDEST SWAP4 DUP4 ISZERO PUSH2 0x3DE JUMPI DUP5 DUP5 SUB PUSH2 0x101F JUMPI PUSH0 SWAP3 PUSH0 SWAP6 PUSH0 JUMPDEST DUP7 DUP2 LT PUSH2 0xF81 JUMPI DUP8 PUSH2 0xE35 DUP9 PUSH2 0xE2F DUP2 DUP11 PUSH2 0x148A JUMP JUMPDEST SWAP3 PUSH2 0x148A JUMP JUMPDEST SWAP1 PUSH8 0xDE0B6B3A7640000 DUP3 GT ISZERO PUSH2 0xEB8 JUMPI PUSH2 0xEB4 PUSH1 0x40 MLOAD PUSH2 0xE55 DUP2 PUSH2 0x13F4 JUMP JUMPDEST PUSH1 0x2D DUP2 MSTORE PUSH32 0x47617320636F73747320617265206A75737469666965642062792070726F6669 PUSH1 0x20 DUP3 ADD MSTORE PUSH13 0x7473202D20434F4E54494E5545 PUSH1 0x98 SHL PUSH1 0x40 DUP3 ADD MSTORE JUMPDEST PUSH1 0x40 MLOAD SWAP4 DUP5 SWAP4 DUP5 MSTORE PUSH1 0x20 DUP5 ADD MSTORE PUSH1 0x60 PUSH1 0x40 DUP5 ADD MSTORE PUSH1 0x60 DUP4 ADD SWAP1 PUSH2 0x12B9 JUMP JUMPDEST SUB SWAP1 RETURN JUMPDEST PUSH8 0x6F05B59D3B20000 DUP3 GT ISZERO PUSH2 0xF2C JUMPI PUSH2 0xEB4 PUSH1 0x40 MLOAD PUSH2 0xED7 DUP2 PUSH2 0x13F4 JUMP JUMPDEST PUSH1 0x38 DUP2 MSTORE PUSH32 0x47617320636F73747320617265206D617267696E616C202D204F5054494D495A PUSH1 0x20 DUP3 ADD MSTORE PUSH32 0x45206F7220494E4352454153452054524144452053495A450000000000000000 PUSH1 0x40 DUP3 ADD MSTORE PUSH2 0xE96 JUMP JUMPDEST PUSH2 0xEB4 PUSH1 0x40 MLOAD PUSH2 0xF3B DUP2 PUSH2 0x13F4 JUMP JUMPDEST PUSH1 0x2E DUP2 MSTORE PUSH32 0x47617320636F737473206578636565642070726F66697473202D205245434F4E PUSH1 0x20 DUP3 ADD MSTORE PUSH14 0x5349444552205354524154454759 PUSH1 0x90 SHL PUSH1 0x40 DUP3 ADD MSTORE PUSH2 0xE96 JUMP JUMPDEST PUSH2 0xFAF PUSH2 0xFA8 PUSH2 0xF92 DUP4 DUP6 DUP10 PUSH2 0x1640 JUMP JUMPDEST CALLDATALOAD PUSH1 0x20 PUSH2 0xFA0 DUP6 DUP13 DUP10 PUSH2 0x1459 JUMP JUMPDEST ADD CALLDATALOAD SWAP1 PUSH2 0x14BF JUMP JUMPDEST DUP1 SWAP8 PUSH2 0x147D JUMP JUMPDEST SWAP6 DUP1 PUSH2 0xFC5 JUMPI JUMPDEST POP PUSH2 0xFC0 SWAP1 PUSH2 0x144B JUMP JUMPDEST PUSH2 0xE19 JUMP JUMPDEST PUSH2 0xFD3 DUP3 DUP10 DUP7 SWAP12 SWAP5 SWAP12 PUSH2 0x1459 JUMP JUMPDEST CALLDATALOAD PUSH8 0xDE0B6B3A7640000 SWAP1 DUP2 DUP2 MUL SWAP2 DUP2 DUP4 DIV EQ SWAP1 ISZERO OR ISZERO PUSH2 0x100C JUMPI SWAP2 PUSH2 0xFFF PUSH2 0x1005 SWAP3 PUSH2 0xFC0 SWAP5 PUSH2 0x148A JUMP JUMPDEST SWAP1 PUSH2 0x147D JUMP JUMPDEST SWAP8 SWAP1 PUSH2 0xFB6 JUMP JUMPDEST DUP6 PUSH4 0x4E487B71 PUSH1 0xE0 SHL PUSH0 MSTORE PUSH1 0x11 PUSH1 0x4 MSTORE PUSH0 REVERT JUMPDEST PUSH1 0x40 MLOAD PUSH4 0x512509D3 PUSH1 0xE1 SHL DUP2 MSTORE PUSH1 0x4 SWAP1 REVERT JUMPDEST CALLVALUE PUSH2 0x3F0 JUMPI CALLDATASIZE PUSH1 0x3 NOT ADD PUSH2 0x120 DUP2 SLT PUSH2 0x3F0 JUMPI PUSH2 0x100 SGT PUSH2 0x3F0 JUMPI PUSH1 0x1 PUSH1 0x1 PUSH1 0x40 SHL SUB PUSH2 0x104 CALLDATALOAD DUP2 DUP2 GT PUSH2 0x3F0 JUMPI PUSH2 0x106D SWAP1 CALLDATASIZE SWAP1 PUSH1 0x4 ADD PUSH2 0x1289 JUMP JUMPDEST SWAP2 SWAP1 SWAP3 PUSH1 0xC0 DUP2 ADD SWAP1 DUP1 DUP3 LT DUP4 DUP4 GT OR PUSH2 0x5B6 JUMPI PUSH1 0xA0 SWAP2 PUSH1 0x40 MSTORE PUSH0 DUP2 MSTORE PUSH0 PUSH1 0x20 DUP3 ADD MSTORE PUSH0 PUSH1 0x40 DUP3 ADD MSTORE PUSH1 0x60 SWAP2 DUP2 PUSH0 DUP5 DUP1 SWAP5 ADD MSTORE PUSH0 PUSH1 0x80 DUP3 ADD MSTORE ADD MSTORE DUP3 ISZERO PUSH2 0x3DE JUMPI PUSH1 0x4 CALLDATALOAD SWAP1 PUSH1 0x44 CALLDATALOAD DUP1 DUP4 GT ISZERO PUSH2 0x1282 JUMPI PUSH8 0xDE0B6B3A7640000 PUSH2 0x10D7 PUSH2 0x10D2 DUP4 DUP7 PUSH2 0x14D2 JUMP JUMPDEST PUSH2 0x14A8 JUMP JUMPDEST DIV JUMPDEST PUSH1 0x32 DUP2 LT ISZERO PUSH2 0x127C JUMPI POP PUSH1 0x32 SWAP5 JUMPDEST PUSH2 0x10F0 DUP2 PUSH2 0x1664 JUMP JUMPDEST PUSH0 JUMPDEST DUP3 DUP2 LT PUSH2 0x125A JUMPI POP PUSH2 0x110C DUP2 PUSH0 PUSH2 0x4E0 PUSH2 0x1111 SWAP5 MLOAD PUSH2 0x1696 JUMP JUMPDEST PUSH2 0x18ED JUMP JUMPDEST SWAP7 PUSH2 0x111B DUP3 PUSH2 0x1664 JUMP JUMPDEST SWAP2 PUSH0 JUMPDEST DUP2 DUP2 LT PUSH2 0x1239 JUMPI POP POP POP PUSH2 0x113A DUP2 PUSH0 PUSH2 0x4E0 PUSH2 0x113F SWAP5 MLOAD PUSH2 0x1696 JUMP JUMPDEST PUSH2 0x1931 JUMP JUMPDEST SWAP3 PUSH1 0x1E DUP5 ADD DUP1 SWAP5 GT PUSH2 0x2A3 JUMPI PUSH1 0xC4 CALLDATALOAD SWAP2 PUSH1 0x96 DUP4 MUL SWAP3 DUP1 DUP5 DIV PUSH1 0x96 EQ SWAP1 ISZERO OR ISZERO PUSH2 0x2A3 JUMPI DUP2 ISZERO PUSH2 0x1230 JUMPI PUSH2 0x1171 SWAP2 PUSH2 0x196C JUMP JUMPDEST SWAP2 JUMPDEST PUSH2 0x1181 PUSH1 0xA4 CALLDATALOAD PUSH1 0xE4 CALLDATALOAD PUSH2 0x19C0 JUMP JUMPDEST SWAP4 PUSH32 0x4682A24DB80119847024AA747650B50F14FD55B9630F4A7615212E6206C94B9F DUP3 PUSH1 0x40 MLOAD DUP10 DUP2 MSTORE DUP11 PUSH1 0x20 DUP3 ADD MSTORE DUP7 PUSH1 0x40 DUP3 ADD MSTORE LOG1 PUSH1 0x40 MLOAD SWAP7 PUSH1 0xC0 DUP9 ADD SWAP7 DUP8 GT DUP9 DUP9 LT OR PUSH2 0x5B6 JUMPI PUSH2 0xEB4 SWAP7 PUSH1 0x40 MSTORE DUP8 MSTORE PUSH1 0x20 DUP8 ADD SWAP8 DUP9 MSTORE PUSH1 0x40 DUP8 ADD SWAP1 DUP2 MSTORE PUSH1 0x64 DUP3 DUP9 ADD SWAP4 DIV DUP4 MSTORE PUSH1 0x80 DUP8 ADD SWAP4 DUP5 MSTORE PUSH1 0xA0 DUP8 ADD SWAP5 DUP6 MSTORE PUSH1 0x40 MLOAD SWAP8 DUP9 SWAP8 PUSH1 0x20 DUP10 MSTORE MLOAD PUSH1 0x20 DUP10 ADD MSTORE MLOAD PUSH1 0x40 DUP9 ADD MSTORE MLOAD SWAP1 DUP7 ADD MSTORE MLOAD PUSH1 0x80 DUP6 ADD MSTORE MLOAD PUSH1 0xA0 DUP5 ADD MSTORE MLOAD PUSH1 0xC0 DUP1 DUP5 ADD MSTORE PUSH1 0xE0 DUP4 ADD SWAP1 PUSH2 0x12B9 JUMP JUMPDEST POP POP PUSH0 SWAP2 PUSH2 0x1173 JUMP JUMPDEST DUP1 DUP7 PUSH2 0x1249 PUSH2 0x1255 SWAP4 DUP6 DUP8 PUSH2 0x1459 JUMP JUMPDEST ADD CALLDATALOAD PUSH2 0x5EC DUP3 DUP8 PUSH2 0x1650 JUMP JUMPDEST PUSH2 0x111E JUMP JUMPDEST DUP1 PUSH1 0x40 PUSH2 0x126B PUSH2 0x1277 SWAP4 DUP7 DUP14 PUSH2 0x1459 JUMP JUMPDEST ADD CALLDATALOAD PUSH2 0x5EC DUP3 DUP6 PUSH2 0x1650 JUMP JUMPDEST PUSH2 0x10F2 JUMP JUMPDEST SWAP5 PUSH2 0x10E7 JUMP JUMPDEST PUSH1 0x32 PUSH2 0x10D9 JUMP JUMPDEST SWAP2 DUP2 PUSH1 0x1F DUP5 ADD SLT ISZERO PUSH2 0x3F0 JUMPI DUP3 CALLDATALOAD SWAP2 PUSH1 0x1 PUSH1 0x1 PUSH1 0x40 SHL SUB DUP4 GT PUSH2 0x3F0 JUMPI PUSH1 0x20 DUP1 DUP6 ADD SWAP5 DUP5 PUSH1 0x7 SHL ADD ADD GT PUSH2 0x3F0 JUMPI JUMP JUMPDEST SWAP2 SWAP1 DUP3 MLOAD SWAP3 DUP4 DUP3 MSTORE PUSH0 JUMPDEST DUP5 DUP2 LT PUSH2 0x12E3 JUMPI POP POP DUP3 PUSH0 PUSH1 0x20 DUP1 SWAP5 SWAP6 DUP5 ADD ADD MSTORE PUSH1 0x1F DUP1 NOT SWAP2 ADD AND ADD ADD SWAP1 JUMP JUMPDEST PUSH1 0x20 DUP2 DUP4 ADD DUP2 ADD MLOAD DUP5 DUP4 ADD DUP3 ADD MSTORE ADD PUSH2 0x12C3 JUMP JUMPDEST SWAP2 DUP2 PUSH1 0x1F DUP5 ADD SLT ISZERO PUSH2 0x3F0 JUMPI DUP3 CALLDATALOAD SWAP2 PUSH1 0x1 PUSH1 0x1 PUSH1 0x40 SHL SUB DUP4 GT PUSH2 0x3F0 JUMPI PUSH1 0x20 DUP1 DUP6 ADD SWAP5 DUP5 PUSH1 0x5 SHL ADD ADD GT PUSH2 0x3F0 JUMPI JUMP JUMPDEST SWAP1 PUSH2 0x13BB SWAP2 DUP1 MLOAD DUP3 MSTORE PUSH1 0x20 DUP2 ADD MLOAD PUSH1 0x20 DUP4 ADD MSTORE PUSH1 0x40 DUP2 ADD MLOAD PUSH1 0x40 DUP4 ADD MSTORE PUSH1 0x60 DUP2 ADD MLOAD PUSH1 0x60 DUP4 ADD MSTORE PUSH1 0x80 DUP2 ADD MLOAD PUSH1 0x80 DUP4 ADD MSTORE PUSH1 0xA0 DUP2 ADD MLOAD PUSH1 0xA0 DUP4 ADD MSTORE PUSH1 0xC0 DUP2 ADD MLOAD PUSH1 0xC0 DUP4 ADD MSTORE PUSH1 0xE0 DUP2 ADD MLOAD PUSH1 0xE0 DUP4 ADD MSTORE PUSH2 0x100 DUP1 DUP3 ADD MLOAD SWAP1 DUP4 ADD MSTORE PUSH2 0x120 DUP1 DUP3 ADD MLOAD ISZERO ISZERO SWAP1 DUP4 ADD MSTORE PUSH2 0x140 DUP1 SWAP2 ADD MLOAD SWAP2 ADD SWAP1 PUSH1 0x60 DUP1 SWAP2 DUP1 MLOAD DUP5 MSTORE PUSH1 0x20 DUP2 ADD MLOAD PUSH1 0x20 DUP6 ADD MSTORE PUSH1 0x40 DUP2 ADD MLOAD PUSH1 0x40 DUP6 ADD MSTORE ADD MLOAD SWAP2 ADD MSTORE JUMP JUMPDEST JUMP JUMPDEST PUSH2 0x160 DUP2 ADD SWAP1 DUP2 LT PUSH1 0x1 PUSH1 0x1 PUSH1 0x40 SHL SUB DUP3 GT OR PUSH2 0x5B6 JUMPI PUSH1 0x40 MSTORE JUMP JUMPDEST PUSH1 0x80 DUP2 ADD SWAP1 DUP2 LT PUSH1 0x1 PUSH1 0x1 PUSH1 0x40 SHL SUB DUP3 GT OR PUSH2 0x5B6 JUMPI PUSH1 0x40 MSTORE JUMP JUMPDEST PUSH1 0x60 DUP2 ADD SWAP1 DUP2 LT PUSH1 0x1 PUSH1 0x1 PUSH1 0x40 SHL SUB DUP3 GT OR PUSH2 0x5B6 JUMPI PUSH1 0x40 MSTORE JUMP JUMPDEST PUSH1 0xA0 DUP2 ADD SWAP1 DUP2 LT PUSH1 0x1 PUSH1 0x1 PUSH1 0x40 SHL SUB DUP3 GT OR PUSH2 0x5B6 JUMPI PUSH1 0x40 MSTORE JUMP JUMPDEST SWAP1 PUSH1 0x1F DUP1 NOT SWAP2 ADD AND DUP2 ADD SWAP1 DUP2 LT PUSH1 0x1 PUSH1 0x1 PUSH1 0x40 SHL SUB DUP3 GT OR PUSH2 0x5B6 JUMPI PUSH1 0x40 MSTORE JUMP JUMPDEST PUSH0 NOT DUP2 EQ PUSH2 0x2A3 JUMPI PUSH1 0x1 ADD SWAP1 JUMP JUMPDEST SWAP2 SWAP1 DUP2 LT ISZERO PUSH2 0x1469 JUMPI PUSH1 0x7 SHL ADD SWAP1 JUMP JUMPDEST PUSH4 0x4E487B71 PUSH1 0xE0 SHL PUSH0 MSTORE PUSH1 0x32 PUSH1 0x4 MSTORE PUSH1 0x24 PUSH0 REVERT JUMPDEST SWAP2 SWAP1 DUP3 ADD DUP1 SWAP3 GT PUSH2 0x2A3 JUMPI JUMP JUMPDEST DUP2 ISZERO PUSH2 0x1494 JUMPI DIV SWAP1 JUMP JUMPDEST PUSH4 0x4E487B71 PUSH1 0xE0 SHL PUSH0 MSTORE PUSH1 0x12 PUSH1 0x4 MSTORE PUSH1 0x24 PUSH0 REVERT JUMPDEST SWAP1 PUSH2 0x2710 SWAP2 DUP3 DUP2 MUL SWAP3 DUP2 DUP5 DIV EQ SWAP1 ISZERO OR ISZERO PUSH2 0x2A3 JUMPI JUMP JUMPDEST DUP2 DUP2 MUL SWAP3 SWAP2 DUP2 ISZERO SWAP2 DUP5 DIV EQ OR ISZERO PUSH2 0x2A3 JUMPI JUMP JUMPDEST SWAP2 SWAP1 DUP3 SUB SWAP2 DUP3 GT PUSH2 0x2A3 JUMPI JUMP JUMPDEST PUSH1 0x40 MLOAD SWAP1 PUSH2 0x14EC DUP3 PUSH2 0x13D9 JUMP JUMPDEST PUSH0 PUSH1 0x60 DUP4 DUP3 DUP2 MSTORE DUP3 PUSH1 0x20 DUP3 ADD MSTORE DUP3 PUSH1 0x40 DUP3 ADD MSTORE ADD MSTORE JUMP JUMPDEST PUSH1 0x40 MLOAD SWAP1 PUSH2 0x1510 DUP3 PUSH2 0x13BD JUMP JUMPDEST DUP2 PUSH0 DUP1 DUP3 MSTORE DUP1 PUSH1 0x20 DUP4 ADD MSTORE DUP1 PUSH1 0x40 DUP4 ADD MSTORE DUP1 PUSH1 0x60 DUP4 ADD MSTORE DUP1 PUSH1 0x80 DUP4 ADD MSTORE DUP1 PUSH1 0xA0 DUP4 ADD MSTORE DUP1 PUSH1 0xC0 DUP4 ADD MSTORE DUP1 PUSH1 0xE0 DUP4 ADD MSTORE DUP1 PUSH2 0x100 DUP4 ADD MSTORE PUSH2 0x120 DUP3 ADD MSTORE PUSH2 0x140 PUSH2 0x1557 PUSH2 0x14DF JUMP JUMPDEST SWAP2 ADD MSTORE JUMP JUMPDEST DUP1 SWAP2 SUB SWAP1 PUSH2 0x1C0 DUP3 SLT PUSH2 0x3F0 JUMPI PUSH1 0x40 MLOAD SWAP2 PUSH2 0x1576 DUP4 PUSH2 0x13BD JUMP JUMPDEST DUP2 MLOAD DUP4 MSTORE PUSH1 0x20 DUP3 ADD MLOAD PUSH1 0x20 DUP5 ADD MSTORE PUSH1 0x40 DUP3 ADD MLOAD PUSH1 0x40 DUP5 ADD MSTORE PUSH1 0x60 DUP3 ADD MLOAD PUSH1 0x60 DUP5 ADD MSTORE PUSH1 0x80 DUP3 ADD MLOAD PUSH1 0x80 DUP5 ADD MSTORE PUSH1 0xA0 DUP3 ADD MLOAD PUSH1 0xA0 DUP5 ADD MSTORE PUSH1 0xC0 DUP3 ADD MLOAD PUSH1 0xC0 DUP5 ADD MSTORE PUSH1 0xE0 DUP3 ADD MLOAD PUSH1 0xE0 DUP5 ADD MSTORE PUSH2 0x100 DUP1 DUP4 ADD MLOAD SWAP1 DUP5 ADD MSTORE PUSH2 0x120 SWAP1 DUP2 DUP4 ADD MLOAD DUP1 ISZERO ISZERO DUP2 SUB PUSH2 0x3F0 JUMPI PUSH1 0x80 SWAP3 DUP6 ADD MSTORE PUSH2 0x13F NOT ADD SLT PUSH2 0x3F0 JUMPI PUSH1 0x40 MLOAD SWAP1 PUSH2 0x15F9 DUP3 PUSH2 0x13D9 JUMP JUMPDEST PUSH2 0x1A0 PUSH2 0x140 SWAP2 DUP3 DUP2 ADD MLOAD DUP5 MSTORE PUSH2 0x160 DUP2 ADD MLOAD PUSH1 0x20 DUP6 ADD MSTORE PUSH2 0x180 DUP2 ADD MLOAD PUSH1 0x40 DUP6 ADD MSTORE ADD MLOAD PUSH1 0x60 DUP4 ADD MSTORE DUP3 ADD MSTORE SWAP1 JUMP JUMPDEST PUSH1 0x1 PUSH1 0x1 PUSH1 0x40 SHL SUB DUP2 GT PUSH2 0x5B6 JUMPI PUSH1 0x5 SHL PUSH1 0x20 ADD SWAP1 JUMP JUMPDEST SWAP2 SWAP1 DUP2 LT ISZERO PUSH2 0x1469 JUMPI PUSH1 0x5 SHL ADD SWAP1 JUMP JUMPDEST DUP1 MLOAD DUP3 LT ISZERO PUSH2 0x1469 JUMPI PUSH1 0x20 SWAP2 PUSH1 0x5 SHL ADD ADD SWAP1 JUMP JUMPDEST SWAP1 PUSH2 0x166E DUP3 PUSH2 0x1629 JUMP JUMPDEST PUSH2 0x167B PUSH1 0x40 MLOAD SWAP2 DUP3 PUSH2 0x142A JUMP JUMPDEST DUP3 DUP2 MSTORE DUP1 SWAP3 PUSH2 0x168C PUSH1 0x1F NOT SWAP2 PUSH2 0x1629 JUMP JUMPDEST ADD SWAP1 PUSH1 0x20 CALLDATASIZE SWAP2 ADD CALLDATACOPY JUMP JUMPDEST SWAP1 PUSH0 NOT DUP3 ADD SWAP2 DUP3 SGT PUSH1 0x1 AND PUSH2 0x2A3 JUMPI JUMP JUMPDEST SWAP1 PUSH1 0x1 DUP3 ADD SWAP2 PUSH0 PUSH1 0x1 DUP5 SLT SWAP2 SLT SWAP1 DUP1 ISZERO DUP3 AND SWAP2 ISZERO AND OR PUSH2 0x2A3 JUMPI JUMP JUMPDEST SWAP2 DUP1 DUP3 SLT PUSH2 0x16D0 JUMPI POP POP SWAP1 JUMP JUMPDEST PUSH2 0x16DA DUP2 DUP5 PUSH2 0x1650 JUMP JUMPDEST MLOAD PUSH2 0x16E4 DUP4 PUSH2 0x1696 JUMP JUMPDEST SWAP1 DUP4 JUMPDEST DUP4 DUP2 SLT PUSH2 0x1762 JUMPI POP POP PUSH2 0x1739 PUSH2 0x174A SWAP2 PUSH2 0x1701 DUP5 DUP8 PUSH2 0x1650 JUMP JUMPDEST MLOAD PUSH2 0x1733 PUSH2 0x1717 PUSH2 0x1711 DUP5 PUSH2 0x16A7 JUMP JUMPDEST DUP10 PUSH2 0x1650 JUMP JUMPDEST MLOAD PUSH2 0x1721 DUP5 PUSH2 0x16A7 JUMP JUMPDEST SWAP1 PUSH2 0x172C DUP9 DUP12 PUSH2 0x1650 JUMP JUMPDEST MSTORE DUP9 PUSH2 0x1650 JUMP JUMPDEST MSTORE PUSH2 0x16A7 JUMP JUMPDEST SWAP3 PUSH2 0x1743 DUP5 PUSH2 0x1696 JUMP JUMPDEST SWAP1 DUP6 PUSH2 0x16C3 JUMP JUMPDEST PUSH2 0x175E SWAP3 PUSH2 0x1758 SWAP2 POP PUSH2 0x16A7 JUMP JUMPDEST DUP4 PUSH2 0x16C3 JUMP JUMPDEST POP SWAP1 JUMP JUMPDEST DUP2 PUSH2 0x176D DUP3 DUP9 PUSH2 0x1650 JUMP JUMPDEST MLOAD LT PUSH2 0x1782 JUMPI JUMPDEST PUSH2 0x177D SWAP1 PUSH2 0x17C3 JUMP JUMPDEST PUSH2 0x16E7 JUMP JUMPDEST SWAP2 PUSH2 0x178F PUSH2 0x177D SWAP2 PUSH2 0x17C3 JUMP JUMPDEST SWAP3 PUSH2 0x179A DUP2 DUP9 PUSH2 0x1650 JUMP JUMPDEST MLOAD PUSH2 0x17A5 DUP6 DUP10 PUSH2 0x1650 JUMP JUMPDEST MLOAD PUSH2 0x17B0 DUP4 DUP11 PUSH2 0x1650 JUMP JUMPDEST MSTORE PUSH2 0x17BB DUP6 DUP10 PUSH2 0x1650 JUMP JUMPDEST MSTORE SWAP1 POP PUSH2 0x1774 JUMP JUMPDEST PUSH1 0x1 PUSH1 0x1 PUSH1 0xFF SHL SUB DUP2 EQ PUSH2 0x2A3 JUMPI PUSH1 0x1 ADD SWAP1 JUMP JUMPDEST DUP1 MLOAD SWAP1 DUP2 ISZERO PUSH2 0x1834 JUMPI PUSH1 0x1 SWAP2 DUP1 DUP4 AND DUP4 SUB PUSH2 0x17FE JUMPI POP DUP1 MLOAD PUSH2 0x17FA SWAP3 SHR SWAP1 PUSH2 0x1650 JUMP JUMPDEST MLOAD SWAP1 JUMP JUMPDEST DUP3 SHR SWAP1 PUSH0 NOT DUP3 ADD SWAP2 DUP3 GT PUSH2 0x2A3 JUMPI PUSH2 0x1828 PUSH2 0x181C PUSH2 0x182F SWAP4 DUP4 PUSH2 0x1650 JUMP JUMPDEST MLOAD SWAP2 DUP1 MLOAD DUP6 SHR SWAP1 PUSH2 0x1650 JUMP JUMPDEST MLOAD SWAP1 PUSH2 0x147D JUMP JUMPDEST SWAP1 SHR SWAP1 JUMP JUMPDEST POP POP PUSH0 SWAP1 JUMP JUMPDEST SWAP2 SWAP1 SWAP2 DUP3 ISZERO PUSH2 0x18E6 JUMPI SWAP1 PUSH0 SWAP2 DUP3 SWAP2 JUMPDEST DUP5 DUP4 LT PUSH2 0x1868 JUMPI POP POP POP PUSH2 0x1865 SWAP2 PUSH2 0x1860 SWAP2 PUSH2 0x148A JUMP JUMPDEST PUSH2 0x1BD4 JUMP JUMPDEST SWAP1 JUMP JUMPDEST SWAP1 SWAP2 SWAP3 PUSH2 0x18B3 PUSH2 0x18B9 SWAP2 DUP4 PUSH2 0x187E DUP8 DUP10 DUP9 PUSH2 0x1459 JUMP JUMPDEST CALLDATALOAD GT ISZERO PUSH2 0x18C0 JUMPI PUSH8 0xDE0B6B3A7640000 PUSH2 0x18AC PUSH2 0x18A6 DUP7 PUSH2 0x18A0 DUP11 DUP13 DUP12 PUSH2 0x1459 JUMP JUMPDEST CALLDATALOAD PUSH2 0x14D2 JUMP JUMPDEST DUP1 PUSH2 0x14BF JUMP JUMPDEST DIV SWAP1 PUSH2 0x147D JUMP JUMPDEST SWAP4 PUSH2 0x144B JUMP JUMPDEST SWAP2 SWAP1 PUSH2 0x1849 JUMP JUMPDEST PUSH8 0xDE0B6B3A7640000 PUSH2 0x18AC PUSH2 0x18E1 PUSH2 0x18DA DUP10 DUP12 DUP11 PUSH2 0x1459 JUMP JUMPDEST CALLDATALOAD DUP8 PUSH2 0x14D2 JUMP JUMPDEST PUSH2 0x18A6 JUMP JUMPDEST POP POP POP PUSH0 SWAP1 JUMP JUMPDEST DUP1 MLOAD DUP1 ISZERO PUSH2 0x1834 JUMPI PUSH1 0x5F DUP2 MUL SWAP1 DUP2 DIV PUSH1 0x5F SUB PUSH2 0x2A3 JUMPI DUP2 MLOAD PUSH1 0x64 SWAP1 SWAP2 DIV SWAP1 DUP2 LT PUSH2 0x1928 JUMPI POP DUP1 MLOAD PUSH0 NOT DUP2 ADD SWAP1 DUP2 GT PUSH2 0x2A3 JUMPI PUSH2 0x17FA SWAP2 PUSH2 0x1650 JUMP JUMPDEST PUSH2 0x17FA SWAP2 PUSH2 0x1650 JUMP JUMPDEST DUP1 MLOAD DUP1 ISZERO PUSH2 0x1834 JUMPI PUSH1 0x63 DUP2 MUL SWAP1 DUP2 DIV PUSH1 0x63 SUB PUSH2 0x2A3 JUMPI DUP2 MLOAD PUSH1 0x64 SWAP1 SWAP2 DIV SWAP1 DUP2 LT PUSH2 0x1928 JUMPI POP DUP1 MLOAD PUSH0 NOT DUP2 ADD SWAP1 DUP2 GT PUSH2 0x2A3 JUMPI PUSH2 0x17FA SWAP2 PUSH2 0x1650 JUMP JUMPDEST SWAP1 DUP1 ISZERO PUSH2 0x19B8 JUMPI PUSH8 0xDE0B6B3A7640000 SWAP2 DUP3 DUP3 MUL SWAP2 DUP3 DIV DUP4 SUB PUSH2 0x2A3 JUMPI PUSH2 0x1992 SWAP2 PUSH2 0x148A JUMP JUMPDEST DUP2 DUP2 LT ISZERO PUSH2 0x1834 JUMPI DUP2 ADD DUP1 SWAP2 GT PUSH2 0x2A3 JUMPI DUP1 ISZERO PUSH2 0x1494 JUMPI PUSH10 0x21E19E0C9BAB2400000 DIV SWAP1 JUMP JUMPDEST POP POP PUSH2 0x2710 SWAP1 JUMP JUMPDEST PUSH1 0xA GT PUSH2 0x1B74 JUMPI PUSH2 0x2328 DUP2 LT ISZERO PUSH2 0x1B14 JUMPI PUSH2 0x1D4C DUP2 LT ISZERO PUSH2 0x1AB4 JUMPI PUSH2 0x1388 GT ISZERO PUSH2 0x1A55 JUMPI PUSH1 0x40 MLOAD PUSH2 0x19F0 DUP2 PUSH2 0x13D9 JUMP JUMPDEST PUSH1 0x49 DUP2 MSTORE PUSH32 0x4C4F5720535543434553532052415445202D20436F6E7369646572206D6F7265 PUSH1 0x20 DUP3 ADD MSTORE PUSH32 0x206167677265737369766520706172616D6574657273206F7220737472617465 PUSH1 0x40 DUP3 ADD MSTORE PUSH9 0x677920726576696577 PUSH1 0xB8 SHL PUSH1 0x60 DUP3 ADD MSTORE SWAP1 JUMP JUMPDEST PUSH1 0x40 MLOAD PUSH2 0x1A61 DUP2 PUSH2 0x13F4 JUMP JUMPDEST PUSH1 0x38 DUP2 MSTORE PUSH32 0x4D4F44455241544520535543434553532052415445202D20506172616D657465 PUSH1 0x20 DUP3 ADD MSTORE PUSH32 0x7273206D6179206E656564206F7074696D697A6174696F6E0000000000000000 PUSH1 0x40 DUP3 ADD MSTORE SWAP1 JUMP JUMPDEST POP PUSH1 0x40 MLOAD PUSH2 0x1AC1 DUP2 PUSH2 0x13F4 JUMP JUMPDEST PUSH1 0x3D DUP2 MSTORE PUSH32 0x474F4F4420535543434553532052415445202D20506172616D65746572732061 PUSH1 0x20 DUP3 ADD MSTORE PUSH32 0x72652062616C616E63656420666F722070726F6669746162696C697479000000 PUSH1 0x40 DUP3 ADD MSTORE SWAP1 JUMP JUMPDEST POP PUSH1 0x40 MLOAD PUSH2 0x1B21 DUP2 PUSH2 0x13F4 JUMP JUMPDEST PUSH1 0x3F DUP2 MSTORE PUSH32 0x4849474820535543434553532052415445202D20506172616D65746572732061 PUSH1 0x20 DUP3 ADD MSTORE PUSH32 0x726520636F6E73657276617469766520616E642077656C6C2D74657374656400 PUSH1 0x40 DUP3 ADD MSTORE SWAP1 JUMP JUMPDEST POP PUSH1 0x40 MLOAD PUSH2 0x1B81 DUP2 PUSH2 0x13F4 JUMP JUMPDEST PUSH1 0x3C DUP2 MSTORE PUSH32 0x494E53554646494349454E542044415441202D205265636F6D6D656E64617469 PUSH1 0x20 DUP3 ADD MSTORE PUSH32 0x6F6E73206261736564206F6E206C696D697465642073616D706C657300000000 PUSH1 0x40 DUP3 ADD MSTORE SWAP1 JUMP JUMPDEST DUP1 ISZERO PUSH2 0x1C1F JUMPI PUSH1 0x1 DUP1 DUP3 EQ PUSH2 0x1C1A JUMPI DUP1 DUP3 ADD DUP1 DUP4 GT PUSH2 0x2A3 JUMPI DUP2 SHR SWAP1 DUP3 JUMPDEST DUP4 DUP4 LT PUSH2 0x1BFF JUMPI POP POP POP SWAP1 JUMP JUMPDEST SWAP1 SWAP2 SWAP3 POP PUSH2 0x1C11 DUP4 PUSH2 0xAC4 DUP2 DUP5 PUSH2 0x148A JUMP JUMPDEST DUP3 SHR SWAP2 SWAP1 PUSH2 0x1BF2 JUMP JUMPDEST SWAP1 POP SWAP1 JUMP JUMPDEST POP PUSH0 SWAP1 JUMP INVALID LOG2 PUSH5 0x6970667358 0x22 SLT KECCAK256 PC GASLIMIT 0x49 LOG3 0x49 0xC6 0xCD CALL 0xD6 0x5E 0xBA PUSH2 0x2B83 DUP13 JUMP SWAP7 DUP5 0xBF 0xD7 SWAP5 0xCD SWAP13 KECCAK256 0x5D 0x26 0x2E CREATE GASPRICE 0xE 0xFC PUSH23 0x64736F6C63430008140033000000000000000000000000 "
				},
				"gasEstimates": {
					"creation": {
						"codeDepositCost": "1451600",
						"executionCost": "1523",
						"totalCost": "1453123"
					},
					"external": {
						"analyzeGasEfficiency((uint256,uint256,uint256,uint256)[],uint256[])": "infinite",
						"analyzeHistoricalTrades((uint256,uint256,uint256,uint256)[])": "infinite",
						"backtestParameters((uint256,uint256,uint256,uint256)[],uint256[],uint256[])": "infinite",
						"calculateProfitability(uint256,uint256,uint256,uint256,uint256,uint256,uint256,uint256)": "infinite",
						"findOptimalBorrowAmount(uint256,uint256,uint256,uint256,uint256,uint256,uint256,uint256,uint256)": "infinite",
						"generateParameterRecommendations((uint256,uint256,uint256,uint256,uint256,uint256,uint256,uint256),(uint256,uint256,uint256,uint256)[])": "infinite",
						"sensitivityAnalysis(uint256,uint256,uint256[],uint256[],uint256,uint256,uint256)": "infinite"
					},
					"internal": {
						"_calculateConfidence(uint256,uint256)": "231",
						"_calculateMedian(uint256[] memory)": "infinite",
						"_calculatePercentile(uint256[] memory,uint256)": "infinite",
						"_calculateStdDeviation(struct ArbitrageAnalyzer.TradeData calldata[] calldata,uint256)": "infinite",
						"_generateReasoning(uint256,uint256)": "infinite",
						"_partition(uint256[] memory,int256,int256)": "infinite",
						"_quickSort(uint256[] memory,int256,int256)": "infinite",
						"_sortExecutionTimes(struct ArbitrageAnalyzer.TradeData calldata[] calldata)": "infinite",
						"_sortProfits(struct ArbitrageAnalyzer.TradeData calldata[] calldata)": "infinite",
						"_sortSlippages(struct ArbitrageAnalyzer.TradeData calldata[] calldata)": "infinite",
						"_sqrt(uint256)": "infinite"
					}
				},
				"methodIdentifiers": {
					"analyzeGasEfficiency((uint256,uint256,uint256,uint256)[],uint256[])": "248fc940",
					"analyzeHistoricalTrades((uint256,uint256,uint256,uint256)[])": "d22ae846",
					"backtestParameters((uint256,uint256,uint256,uint256)[],uint256[],uint256[])": "e91ca8b6",
					"calculateProfitability(uint256,uint256,uint256,uint256,uint256,uint256,uint256,uint256)": "42598dca",
					"findOptimalBorrowAmount(uint256,uint256,uint256,uint256,uint256,uint256,uint256,uint256,uint256)": "714c179a",
					"generateParameterRecommendations((uint256,uint256,uint256,uint256,uint256,uint256,uint256,uint256),(uint256,uint256,uint256,uint256)[])": "0b54db8f",
					"sensitivityAnalysis(uint256,uint256,uint256[],uint256[],uint256,uint256,uint256)": "5c5d15cd"
				}
			},
			"storageLayout": {
				"storage": [],
				"types": null
			},
			"userdoc": {
				"kind": "user",
				"methods": {
					"analyzeGasEfficiency((uint256,uint256,uint256,uint256)[],uint256[])": {
						"notice": "Analyze gas efficiency of trades"
					},
					"analyzeHistoricalTrades((uint256,uint256,uint256,uint256)[])": {
						"notice": "Analyze historical trade data and generate statistics"
					},
					"backtestParameters((uint256,uint256,uint256,uint256)[],uint256[],uint256[])": {
						"notice": "Backtest parameter combinations against historical trades"
					},
					"calculateProfitability(uint256,uint256,uint256,uint256,uint256,uint256,uint256,uint256)": {
						"notice": "Calculate detailed profitability for a specific trade scenario"
					},
					"findOptimalBorrowAmount(uint256,uint256,uint256,uint256,uint256,uint256,uint256,uint256,uint256)": {
						"notice": "Find optimal borrow amount for maximum profit"
					},
					"generateParameterRecommendations((uint256,uint256,uint256,uint256,uint256,uint256,uint256,uint256),(uint256,uint256,uint256,uint256)[])": {
						"notice": "Generate parameter recommendations based on analysis"
					},
					"sensitivityAnalysis(uint256,uint256,uint256[],uint256[],uint256,uint256,uint256)": {
						"notice": "Perform sensitivity analysis on parameter variations"
					}
				},
				"notice": "Pure analysis contract for identifying optimal arbitrage parameters",
				"version": 1
			}
		}
	}
}