{
	"data": {
		"bytecode": {
			"linkReferences": {},
			"object": "60803461007357601f6115fe38819003918201601f19168301916001600160401b038311848410176100775780849260209460405283398101031261007357516001600160a01b03811690819003610073575f80546001600160a01b031916919091179055604051611572908161008c8239f35b5f80fd5b634e487b7160e01b5f52604160045260245ffdfe6080604081815260049081361015610015575f80fd5b5f9283803560e01c9182631a28037f14610c5457505080632b8aa5781461081f5780633bd36982146105c95780635aa8b895146105a1578063c259d79f1461040a578063e3cc49771461015f5763ec13c33714610070575f80fd5b3461015b57606036600319011261015b57610089610fb4565b508260018060a01b0381541682519363212cc6e560e11b855280359085015260096024850152640ba43b740060448501526207a1206064850152602435608485015260443560a4850152600a60c4850152603260e485015283610104816101c09788945af192831561014f57819361010c575b505061010a90518092610da5565bf35b90919250833d8511610148575b6101238183610f6e565b8101918482840312610145575061010a9161013d91611100565b91905f6100fc565b80fd5b503d610119565b509051903d90823e3d90fd5b8280fd5b50903461015b576003199183833601126104065761017b611294565b9381519060a08083019567ffffffffffffffff96848110888211176103f35785528584526080966020948836878301376101b4816111ad565b603290526101c1816111ce565b606490526101ce816111de565b609690526101db816111ee565b60c890528487519a6101ec8c610f35565b60038c5260609b8c368a830137610202816111ad565b60c8905261020f816111ce565b61012c905261021d816111de565b61019090528c838c600160a01b60019003825416938d51998a968795869463748e545b60e11b8652850152606484016102559161100d565b9860249982858203018b86015261026b91611261565b9083820301604484015261027e91611261565b03925af19788156103e95785986102f5575b505050509491909280519582870193838852865180955283838901970195925b8584106102bd5788880389f35b86518051895280860151898701528082015189830152808b01518b8a01528201518883015296820196958401956001909301926102b0565b9091929397503d8086863e61030a8186610f6e565b84019386818603126103e1578051908482116103e557019284601f850112156103e15783519261033984611195565b956103468a519788610f6e565b848752888b8189019602870101958187116103dd578901945b8686106103775750505050505050935f808080610290565b8b868303126103dd578a518c8101818110868211176103cb57918f918f8f94938f8f9581528b518452858c015186850152808c015190840152808b015190830152808a01519082015281520195019461035f565b634e487b7160e01b8b5260418752848bfd5b8880fd5b8580fd5b8680fd5b87513d87823e3d90fd5b634e487b7160e01b845260418752602484fd5b8380fd5b5091903461059d5760031992828436011261015b57610427611294565b9081519061043482611195565b9161044182519384610f6e565b808352610450601f1991611195565b01926020933685850137855b81518110156104b35783518110156104a057640ba43b7400858260051b860101525f19811461048d5760010161045c565b634e487b7160e01b875260118652602487fd5b634e487b7160e01b875260328652602487fd5b508192869496926104ec966104fb8a60018060a01b038754169484519a8b978896879662923f2560e61b8852870152604486019061100d565b91848303016024850152611261565b03915afa918215610592578093818094610535575b50508160609161053194935196879687528601528401526060830190610ea7565b0390f35b93509350503d8083853e6105498185610f6e565b830160608482031261015b578351928585015194838101519167ffffffffffffffff83116101455750606092610531959492610585920161106b565b9294929381939250610510565b9051903d90823e3d90fd5b5080fd5b83823461059d578160031936011261059d57905490516001600160a01b039091168152602090f35b5082903461059d5760031992828436011261015b57826106d5948351906105ef82610f19565b6005825267016345785d8a00008360209560a036888701376404a817c800610616866111ad565b526409502f9000610626866111ce565b52640df8475800610636866111de565b526412a05f2000610646866111ee565b5264174876e800610656866111fe565b526106e488519461066686610f35565b600386526060368a880137600561067c876111ad565b526009610688876111ce565b52600f610694876111de565b5260018060a01b03845416958a519c8d9889978896635c5d15cd60e01b8852870152678ac7230489e80000602487015260e0604487015260e4860190611261565b91848303016064850152611261565b6207a1206084830152600a60a4830152603260c483015203925af1938415610813578394610775575b509192908051928080850192818652845180945285019301945b8281106107345784840385f35b909192826080826107666001948a51606080918051845260208101516020850152604081015160408501520151910152565b01960191019492919094610727565b9093503d8084833e6107878183610f6e565b81019084818303126104065780519067ffffffffffffffff821161080f570181601f820112156104065780516107bc81611195565b926107c985519485610f6e565b818452868085019260071b840101928184116103e5578701915b878484106107f7575050505050928461070d565b60809161080484866110c4565b8152019201916107e3565b8480fd5b505051903d90823e3d90fd5b50913461014557806003193601126101455782519261083d84610efc565b81845260208281860152828286015260609383858701528360808701528360e060a09782898201528260c082015201528486845161087a81610f19565b868152868582015286868201528683820152866080820152015261089c610fb4565b506108a5611294565b84548451636915742360e11b81528084018590529661010093909290916001600160a01b03919085908a908416818b816108e2602482018861100d565b03925af1988915610c4a578899610bb4575b5091818861093c9896948b610929836101209b9997815416928b519d8e9586948593630b54db8f60e01b85528b850190610e3b565b6101049e8f84015261012483019061100d565b03925af1978815610baa57908992918399610aff575b5090678ac7230489e800009183541690895198858b01998a51908a5195869463212cc6e560e11b86528501526024840152640ba43b7400604484015260648301526791b77e5e5d9a000060848301526795e14ec77638000060a4830152600a60c4830152603260e4830152816101c09586945af1988915610af4578099610a7d575b505050926105319592610a7195927f941f7c5c6393d9f0e89a8f8e6378efb3a3f5990c5342d9d89dd380ae7e83f701610a2a9b968b51888d015188519087519283528683015286820152a182519a8b809b610e3b565b6102e080918b01528451908a0152830151610300890152820151610320880152516103408701526080810151610360870152015160c06103808601526103a0850190610ea7565b91610120840190610da5565b9091809399503d8411610aed575b610a958184610f6e565b82019282840312610145575092610a7195927f941f7c5c6393d9f0e89a8f8e6378efb3a3f5990c5342d9d89dd380ae7e83f701610adb610a2a9c97946105319a97611100565b9993969b5082959850819497506109d4565b503d610a8b565b8651903d90823e3d90fd5b91925097503d808a833e610b138183610f6e565b81018582820312610ba657815167ffffffffffffffff92838211610b9e57019160c083830312610ba257875192610b4984610f19565b80518452878101518885015288810151898501528581015186850152608081015160808501528d810151918211610b9e578b9492678ac7230489e800009492610b92920161106b565b8d820152989091610952565b8b80fd5b8a80fd5b8980fd5b86513d8b823e3d90fd5b9098508481813d8311610c43575b610bcc8183610f6e565b81010312610c3f5791610120959391888b60e08a989661093c9b5192610bf184610efc565b81518452898201518a8501528a8201518b850152878201518885015260808201516080850152808201519084015260c081015160c0840152015160e08201529a9294969850509193956108f4565b8780fd5b503d610bc2565b87513d8a823e3d90fd5b9093915034610da05783600319360112610da057610c7181610ecc565b83815283602082015282610c83610fb4565b91015260018060a01b038354168251916338a60bcd60e11b8352670de0b6b3a764000080918401526802b5e3af16b188000060248401526044830152670e92596fd6290000606483015260096084830152640ba43b740060a48301526207a12060c4830152600a60e4830152603261010483015281610124816102009788945af1928315610d95578093610d35575b5050808061010a9251938051855260208101516020860152015190830190610da5565b90919250833d8511610d8e575b610d4c8184610f6e565b8201908483830312610145575090610d8261010a9284805193610d6e85610ecc565b805185526020810151602086015201611100565b8382015291905f610d12565b503d610d42565b8251903d90823e3d90fd5b505050fd5b90610e3991805182526020810151602083015260408101516040830152606081015160608301526080810151608083015260a081015160a083015260c081015160c083015260e081015160e083015261010080820151908301526101208082015115159083015261014080910151910190606080918051845260208101516020850152604081015160408501520151910152565b565b60e08091805184526020810151602085015260408101516040850152606081015160608501526080810151608085015260a081015160a085015260c081015160c08501520151910152565b5f5b838110610e975750505f910152565b8181015183820152602001610e88565b90602091610ec081518092818552858086019101610e86565b601f01601f1916010190565b6060810190811067ffffffffffffffff821117610ee857604052565b634e487b7160e01b5f52604160045260245ffd5b610100810190811067ffffffffffffffff821117610ee857604052565b60c0810190811067ffffffffffffffff821117610ee857604052565b6080810190811067ffffffffffffffff821117610ee857604052565b610160810190811067ffffffffffffffff821117610ee857604052565b90601f8019910116810190811067ffffffffffffffff821117610ee857604052565b60405190610f9d82610f35565b5f6060838281528260208201528260408201520152565b60405190610fc182610f51565b815f8082528060208301528060408301528060608301528060808301528060a08301528060c08301528060e083015280610100830152610120820152610140611008610f90565b910152565b9081518082526020808093019301915f5b82811061102c575050505090565b909192938260808261105f6001948951606080918051845260208101516020850152604081015160408501520151910152565b0195019392910161101e565b81601f820112156110c057805167ffffffffffffffff8111610ee8576040519261109f601f8301601f191660200185610f6e565b818452602082840101116110c0576110bd9160208085019101610e86565b90565b5f80fd5b91908260809103126110c0576040516110dc81610f35565b60608082948051845260208101516020850152604081015160408501520151910152565b9190916101c0818403126110c0576040519061111b82610f51565b8193815183526020820151602084015260408201516040840152606082015160608401526080820151608084015260a082015160a084015260c082015160c084015260e082015160e08401526101008083015190840152610120908183015180151581036110c057611008928501526101408093016110c4565b67ffffffffffffffff8111610ee85760051b60200190565b8051156111ba5760200190565b634e487b7160e01b5f52603260045260245ffd5b8051600110156111ba5760400190565b8051600210156111ba5760600190565b8051600310156111ba5760800190565b8051600410156111ba5760a00190565b8051600510156111ba5760c00190565b8051600610156111ba5760e00190565b8051600710156111ba576101000190565b8051600810156111ba576101200190565b8051600910156111ba576101400190565b9081518082526020808093019301915f5b828110611280575050505090565b835185529381019392810192600101611272565b60408051906112a282610f51565b600a82525f5b61014081106115255750603a81516112bf81610f35565b66b1a2bc2ec5000081526101366020936206ddd08584015260fa81840152606092602d848201526112ef876111ad565b526112f9866111ad565b50805161130581610f35565b67011c37937e080000815262075300868201526101188282015260348482015261132e876111ce565b52611338866111ce565b50805161134481610f35565b666a94d74f4300008152620668a08682015260c88282015260268482015261136b876111de565b52611375866111de565b50805161138181610f35565b6701aa535d3d0c000081526207c8308682015261014082820152603c848201526113aa876111ee565b526113b4866111ee565b5080516113c081610f35565b66470de4df820000815262061a8086820152609682820152601e848201526113e7876111fe565b526113f1866111fe565b5080516113fd81610f35565b66f8b0a10e470000815262072bf08682015261010e828201526030848201526114258761120e565b5261142f8661120e565b50805161143b81610f35565b668e1bc9bf04000081526206b6c08682015260f082820152602a848201526114628761121e565b5261146c8661121e565b50805161147881610f35565b67013fbe85edc90000815262077a1086820152610122828201526037848201526114a18761122e565b526114ab8661122e565b5080516114b781610f35565b66d529ae9e8600008152620704e086820152610104828201526032848201526114df8761123f565b526114e98661123f565b506207a1208151956114fa87610f35565b670186cc6acd4b0000875286015284015282015261151782611250565b5261152181611250565b5090565b602090611530610f90565b828286010152016112a856fea26469706673582212203841a9bea5b1961adfe3426d2f7571154d945b1fb001c73b325d7e049b2e680964736f6c63430008140033",
			"opcodes": "PUSH1 0x80 CALLVALUE PUSH2 0x73 JUMPI PUSH1 0x1F PUSH2 0x15FE CODESIZE DUP2 SWAP1 SUB SWAP2 DUP3 ADD PUSH1 0x1F NOT AND DUP4 ADD SWAP2 PUSH1 0x1 PUSH1 0x1 PUSH1 0x40 SHL SUB DUP4 GT DUP5 DUP5 LT OR PUSH2 0x77 JUMPI DUP1 DUP5 SWAP3 PUSH1 0x20 SWAP5 PUSH1 0x40 MSTORE DUP4 CODECOPY DUP2 ADD SUB SLT PUSH2 0x73 JUMPI MLOAD PUSH1 0x1 PUSH1 0x1 PUSH1 0xA0 SHL SUB DUP2 AND SWAP1 DUP2 SWAP1 SUB PUSH2 0x73 JUMPI PUSH0 DUP1 SLOAD PUSH1 0x1 PUSH1 0x1 PUSH1 0xA0 SHL SUB NOT AND SWAP2 SWAP1 SWAP2 OR SWAP1 SSTORE PUSH1 0x40 MLOAD PUSH2 0x1572 SWAP1 DUP2 PUSH2 0x8C DUP3 CODECOPY RETURN JUMPDEST PUSH0 DUP1 REVERT JUMPDEST PUSH4 0x4E487B71 PUSH1 0xE0 SHL PUSH0 MSTORE PUSH1 0x41 PUSH1 0x4 MSTORE PUSH1 0x24 PUSH0 REVERT INVALID PUSH1 0x80 PUSH1 0x40 DUP2 DUP2 MSTORE PUSH1 0x4 SWAP1 DUP2 CALLDATASIZE LT ISZERO PUSH2 0x15 JUMPI PUSH0 DUP1 REVERT JUMPDEST PUSH0 SWAP3 DUP4 DUP1 CALLDATALOAD PUSH1 0xE0 SHR SWAP2 DUP3 PUSH4 0x1A28037F EQ PUSH2 0xC54 JUMPI POP POP DUP1 PUSH4 0x2B8AA578 EQ PUSH2 0x81F JUMPI DUP1 PUSH4 0x3BD36982 EQ PUSH2 0x5C9 JUMPI DUP1 PUSH4 0x5AA8B895 EQ PUSH2 0x5A1 JUMPI DUP1 PUSH4 0xC259D79F EQ PUSH2 0x40A JUMPI DUP1 PUSH4 0xE3CC4977 EQ PUSH2 0x15F JUMPI PUSH4 0xEC13C337 EQ PUSH2 0x70 JUMPI PUSH0 DUP1 REVERT JUMPDEST CALLVALUE PUSH2 0x15B JUMPI PUSH1 0x60 CALLDATASIZE PUSH1 0x3 NOT ADD SLT PUSH2 0x15B JUMPI PUSH2 0x89 PUSH2 0xFB4 JUMP JUMPDEST POP DUP3 PUSH1 0x1 DUP1 PUSH1 0xA0 SHL SUB DUP2 SLOAD AND DUP3 MLOAD SWAP4 PUSH4 0x212CC6E5 PUSH1 0xE1 SHL DUP6 MSTORE DUP1 CALLDATALOAD SWAP1 DUP6 ADD MSTORE PUSH1 0x9 PUSH1 0x24 DUP6 ADD MSTORE PUSH5 0xBA43B7400 PUSH1 0x44 DUP6 ADD MSTORE PUSH3 0x7A120 PUSH1 0x64 DUP6 ADD MSTORE PUSH1 0x24 CALLDATALOAD PUSH1 0x84 DUP6 ADD MSTORE PUSH1 0x44 CALLDATALOAD PUSH1 0xA4 DUP6 ADD MSTORE PUSH1 0xA PUSH1 0xC4 DUP6 ADD MSTORE PUSH1 0x32 PUSH1 0xE4 DUP6 ADD MSTORE DUP4 PUSH2 0x104 DUP2 PUSH2 0x1C0 SWAP8 DUP9 SWAP5 GAS CALL SWAP3 DUP4 ISZERO PUSH2 0x14F JUMPI DUP2 SWAP4 PUSH2 0x10C JUMPI JUMPDEST POP POP PUSH2 0x10A SWAP1 MLOAD DUP1 SWAP3 PUSH2 0xDA5 JUMP JUMPDEST RETURN JUMPDEST SWAP1 SWAP2 SWAP3 POP DUP4 RETURNDATASIZE DUP6 GT PUSH2 0x148 JUMPI JUMPDEST PUSH2 0x123 DUP2 DUP4 PUSH2 0xF6E JUMP JUMPDEST DUP2 ADD SWAP2 DUP5 DUP3 DUP5 SUB SLT PUSH2 0x145 JUMPI POP PUSH2 0x10A SWAP2 PUSH2 0x13D SWAP2 PUSH2 0x1100 JUMP JUMPDEST SWAP2 SWAP1 PUSH0 PUSH2 0xFC JUMP JUMPDEST DUP1 REVERT JUMPDEST POP RETURNDATASIZE PUSH2 0x119 JUMP JUMPDEST POP SWAP1 MLOAD SWAP1 RETURNDATASIZE SWAP1 DUP3 RETURNDATACOPY RETURNDATASIZE SWAP1 REVERT JUMPDEST DUP3 DUP1 REVERT JUMPDEST POP SWAP1 CALLVALUE PUSH2 0x15B JUMPI PUSH1 0x3 NOT SWAP2 DUP4 DUP4 CALLDATASIZE ADD SLT PUSH2 0x406 JUMPI PUSH2 0x17B PUSH2 0x1294 JUMP JUMPDEST SWAP4 DUP2 MLOAD SWAP1 PUSH1 0xA0 DUP1 DUP4 ADD SWAP6 PUSH8 0xFFFFFFFFFFFFFFFF SWAP7 DUP5 DUP2 LT DUP9 DUP3 GT OR PUSH2 0x3F3 JUMPI DUP6 MSTORE DUP6 DUP5 MSTORE PUSH1 0x80 SWAP7 PUSH1 0x20 SWAP5 DUP9 CALLDATASIZE DUP8 DUP4 ADD CALLDATACOPY PUSH2 0x1B4 DUP2 PUSH2 0x11AD JUMP JUMPDEST PUSH1 0x32 SWAP1 MSTORE PUSH2 0x1C1 DUP2 PUSH2 0x11CE JUMP JUMPDEST PUSH1 0x64 SWAP1 MSTORE PUSH2 0x1CE DUP2 PUSH2 0x11DE JUMP JUMPDEST PUSH1 0x96 SWAP1 MSTORE PUSH2 0x1DB DUP2 PUSH2 0x11EE JUMP JUMPDEST PUSH1 0xC8 SWAP1 MSTORE DUP5 DUP8 MLOAD SWAP11 PUSH2 0x1EC DUP13 PUSH2 0xF35 JUMP JUMPDEST PUSH1 0x3 DUP13 MSTORE PUSH1 0x60 SWAP12 DUP13 CALLDATASIZE DUP11 DUP4 ADD CALLDATACOPY PUSH2 0x202 DUP2 PUSH2 0x11AD JUMP JUMPDEST PUSH1 0xC8 SWAP1 MSTORE PUSH2 0x20F DUP2 PUSH2 0x11CE JUMP JUMPDEST PUSH2 0x12C SWAP1 MSTORE PUSH2 0x21D DUP2 PUSH2 0x11DE JUMP JUMPDEST PUSH2 0x190 SWAP1 MSTORE DUP13 DUP4 DUP13 PUSH1 0x1 PUSH1 0xA0 SHL PUSH1 0x1 SWAP1 SUB DUP3 SLOAD AND SWAP4 DUP14 MLOAD SWAP10 DUP11 SWAP7 DUP8 SWAP6 DUP7 SWAP5 PUSH4 0x748E545B PUSH1 0xE1 SHL DUP7 MSTORE DUP6 ADD MSTORE PUSH1 0x64 DUP5 ADD PUSH2 0x255 SWAP2 PUSH2 0x100D JUMP JUMPDEST SWAP9 PUSH1 0x24 SWAP10 DUP3 DUP6 DUP3 SUB ADD DUP12 DUP7 ADD MSTORE PUSH2 0x26B SWAP2 PUSH2 0x1261 JUMP JUMPDEST SWAP1 DUP4 DUP3 SUB ADD PUSH1 0x44 DUP5 ADD MSTORE PUSH2 0x27E SWAP2 PUSH2 0x1261 JUMP JUMPDEST SUB SWAP3 GAS CALL SWAP8 DUP9 ISZERO PUSH2 0x3E9 JUMPI DUP6 SWAP9 PUSH2 0x2F5 JUMPI JUMPDEST POP POP POP POP SWAP5 SWAP2 SWAP1 SWAP3 DUP1 MLOAD SWAP6 DUP3 DUP8 ADD SWAP4 DUP4 DUP9 MSTORE DUP7 MLOAD DUP1 SWAP6 MSTORE DUP4 DUP4 DUP10 ADD SWAP8 ADD SWAP6 SWAP3 JUMPDEST DUP6 DUP5 LT PUSH2 0x2BD JUMPI DUP9 DUP9 SUB DUP10 RETURN JUMPDEST DUP7 MLOAD DUP1 MLOAD DUP10 MSTORE DUP1 DUP7 ADD MLOAD DUP10 DUP8 ADD MSTORE DUP1 DUP3 ADD MLOAD DUP10 DUP4 ADD MSTORE DUP1 DUP12 ADD MLOAD DUP12 DUP11 ADD MSTORE DUP3 ADD MLOAD DUP9 DUP4 ADD MSTORE SWAP7 DUP3 ADD SWAP7 SWAP6 DUP5 ADD SWAP6 PUSH1 0x1 SWAP1 SWAP4 ADD SWAP3 PUSH2 0x2B0 JUMP JUMPDEST SWAP1 SWAP2 SWAP3 SWAP4 SWAP8 POP RETURNDATASIZE DUP1 DUP7 DUP7 RETURNDATACOPY PUSH2 0x30A DUP2 DUP7 PUSH2 0xF6E JUMP JUMPDEST DUP5 ADD SWAP4 DUP7 DUP2 DUP7 SUB SLT PUSH2 0x3E1 JUMPI DUP1 MLOAD SWAP1 DUP5 DUP3 GT PUSH2 0x3E5 JUMPI ADD SWAP3 DUP5 PUSH1 0x1F DUP6 ADD SLT ISZERO PUSH2 0x3E1 JUMPI DUP4 MLOAD SWAP3 PUSH2 0x339 DUP5 PUSH2 0x1195 JUMP JUMPDEST SWAP6 PUSH2 0x346 DUP11 MLOAD SWAP8 DUP9 PUSH2 0xF6E JUMP JUMPDEST DUP5 DUP8 MSTORE DUP9 DUP12 DUP2 DUP10 ADD SWAP7 MUL DUP8 ADD ADD SWAP6 DUP2 DUP8 GT PUSH2 0x3DD JUMPI DUP10 ADD SWAP5 JUMPDEST DUP7 DUP7 LT PUSH2 0x377 JUMPI POP POP POP POP POP POP POP SWAP4 PUSH0 DUP1 DUP1 DUP1 PUSH2 0x290 JUMP JUMPDEST DUP12 DUP7 DUP4 SUB SLT PUSH2 0x3DD JUMPI DUP11 MLOAD DUP13 DUP2 ADD DUP2 DUP2 LT DUP7 DUP3 GT OR PUSH2 0x3CB JUMPI SWAP2 DUP16 SWAP2 DUP16 DUP16 SWAP5 SWAP4 DUP16 DUP16 SWAP6 DUP2 MSTORE DUP12 MLOAD DUP5 MSTORE DUP6 DUP13 ADD MLOAD DUP7 DUP6 ADD MSTORE DUP1 DUP13 ADD MLOAD SWAP1 DUP5 ADD MSTORE DUP1 DUP12 ADD MLOAD SWAP1 DUP4 ADD MSTORE DUP1 DUP11 ADD MLOAD SWAP1 DUP3 ADD MSTORE DUP2 MSTORE ADD SWAP6 ADD SWAP5 PUSH2 0x35F JUMP JUMPDEST PUSH4 0x4E487B71 PUSH1 0xE0 SHL DUP12 MSTORE PUSH1 0x41 DUP8 MSTORE DUP5 DUP12 REVERT JUMPDEST DUP9 DUP1 REVERT JUMPDEST DUP6 DUP1 REVERT JUMPDEST DUP7 DUP1 REVERT JUMPDEST DUP8 MLOAD RETURNDATASIZE DUP8 DUP3 RETURNDATACOPY RETURNDATASIZE SWAP1 REVERT JUMPDEST PUSH4 0x4E487B71 PUSH1 0xE0 SHL DUP5 MSTORE PUSH1 0x41 DUP8 MSTORE PUSH1 0x24 DUP5 REVERT JUMPDEST DUP4 DUP1 REVERT JUMPDEST POP SWAP2 SWAP1 CALLVALUE PUSH2 0x59D JUMPI PUSH1 0x3 NOT SWAP3 DUP3 DUP5 CALLDATASIZE ADD SLT PUSH2 0x15B JUMPI PUSH2 0x427 PUSH2 0x1294 JUMP JUMPDEST SWAP1 DUP2 MLOAD SWAP1 PUSH2 0x434 DUP3 PUSH2 0x1195 JUMP JUMPDEST SWAP2 PUSH2 0x441 DUP3 MLOAD SWAP4 DUP5 PUSH2 0xF6E JUMP JUMPDEST DUP1 DUP4 MSTORE PUSH2 0x450 PUSH1 0x1F NOT SWAP2 PUSH2 0x1195 JUMP JUMPDEST ADD SWAP3 PUSH1 0x20 SWAP4 CALLDATASIZE DUP6 DUP6 ADD CALLDATACOPY DUP6 JUMPDEST DUP2 MLOAD DUP2 LT ISZERO PUSH2 0x4B3 JUMPI DUP4 MLOAD DUP2 LT ISZERO PUSH2 0x4A0 JUMPI PUSH5 0xBA43B7400 DUP6 DUP3 PUSH1 0x5 SHL DUP7 ADD ADD MSTORE PUSH0 NOT DUP2 EQ PUSH2 0x48D JUMPI PUSH1 0x1 ADD PUSH2 0x45C JUMP JUMPDEST PUSH4 0x4E487B71 PUSH1 0xE0 SHL DUP8 MSTORE PUSH1 0x11 DUP7 MSTORE PUSH1 0x24 DUP8 REVERT JUMPDEST PUSH4 0x4E487B71 PUSH1 0xE0 SHL DUP8 MSTORE PUSH1 0x32 DUP7 MSTORE PUSH1 0x24 DUP8 REVERT JUMPDEST POP DUP2 SWAP3 DUP7 SWAP5 SWAP7 SWAP3 PUSH2 0x4EC SWAP7 PUSH2 0x4FB DUP11 PUSH1 0x1 DUP1 PUSH1 0xA0 SHL SUB DUP8 SLOAD AND SWAP5 DUP5 MLOAD SWAP11 DUP12 SWAP8 DUP9 SWAP7 DUP8 SWAP7 PUSH3 0x923F25 PUSH1 0xE6 SHL DUP9 MSTORE DUP8 ADD MSTORE PUSH1 0x44 DUP7 ADD SWAP1 PUSH2 0x100D JUMP JUMPDEST SWAP2 DUP5 DUP4 SUB ADD PUSH1 0x24 DUP6 ADD MSTORE PUSH2 0x1261 JUMP JUMPDEST SUB SWAP2 GAS STATICCALL SWAP2 DUP3 ISZERO PUSH2 0x592 JUMPI DUP1 SWAP4 DUP2 DUP1 SWAP5 PUSH2 0x535 JUMPI JUMPDEST POP POP DUP2 PUSH1 0x60 SWAP2 PUSH2 0x531 SWAP5 SWAP4 MLOAD SWAP7 DUP8 SWAP7 DUP8 MSTORE DUP7 ADD MSTORE DUP5 ADD MSTORE PUSH1 0x60 DUP4 ADD SWAP1 PUSH2 0xEA7 JUMP JUMPDEST SUB SWAP1 RETURN JUMPDEST SWAP4 POP SWAP4 POP POP RETURNDATASIZE DUP1 DUP4 DUP6 RETURNDATACOPY PUSH2 0x549 DUP2 DUP6 PUSH2 0xF6E JUMP JUMPDEST DUP4 ADD PUSH1 0x60 DUP5 DUP3 SUB SLT PUSH2 0x15B JUMPI DUP4 MLOAD SWAP3 DUP6 DUP6 ADD MLOAD SWAP5 DUP4 DUP2 ADD MLOAD SWAP2 PUSH8 0xFFFFFFFFFFFFFFFF DUP4 GT PUSH2 0x145 JUMPI POP PUSH1 0x60 SWAP3 PUSH2 0x531 SWAP6 SWAP5 SWAP3 PUSH2 0x585 SWAP3 ADD PUSH2 0x106B JUMP JUMPDEST SWAP3 SWAP5 SWAP3 SWAP4 DUP2 SWAP4 SWAP3 POP PUSH2 0x510 JUMP JUMPDEST SWAP1 MLOAD SWAP1 RETURNDATASIZE SWAP1 DUP3 RETURNDATACOPY RETURNDATASIZE SWAP1 REVERT JUMPDEST POP DUP1 REVERT JUMPDEST DUP4 DUP3 CALLVALUE PUSH2 0x59D JUMPI DUP2 PUSH1 0x3 NOT CALLDATASIZE ADD SLT PUSH2 0x59D JUMPI SWAP1 SLOAD SWAP1 MLOAD PUSH1 0x1 PUSH1 0x1 PUSH1 0xA0 SHL SUB SWAP1 SWAP2 AND DUP2 MSTORE PUSH1 0x20 SWAP1 RETURN JUMPDEST POP DUP3 SWAP1 CALLVALUE PUSH2 0x59D JUMPI PUSH1 0x3 NOT SWAP3 DUP3 DUP5 CALLDATASIZE ADD SLT PUSH2 0x15B JUMPI DUP3 PUSH2 0x6D5 SWAP5 DUP4 MLOAD SWAP1 PUSH2 0x5EF DUP3 PUSH2 0xF19 JUMP JUMPDEST PUSH1 0x5 DUP3 MSTORE PUSH8 0x16345785D8A0000 DUP4 PUSH1 0x20 SWAP6 PUSH1 0xA0 CALLDATASIZE DUP9 DUP8 ADD CALLDATACOPY PUSH5 0x4A817C800 PUSH2 0x616 DUP7 PUSH2 0x11AD JUMP JUMPDEST MSTORE PUSH5 0x9502F9000 PUSH2 0x626 DUP7 PUSH2 0x11CE JUMP JUMPDEST MSTORE PUSH5 0xDF8475800 PUSH2 0x636 DUP7 PUSH2 0x11DE JUMP JUMPDEST MSTORE PUSH5 0x12A05F2000 PUSH2 0x646 DUP7 PUSH2 0x11EE JUMP JUMPDEST MSTORE PUSH5 0x174876E800 PUSH2 0x656 DUP7 PUSH2 0x11FE JUMP JUMPDEST MSTORE PUSH2 0x6E4 DUP9 MLOAD SWAP5 PUSH2 0x666 DUP7 PUSH2 0xF35 JUMP JUMPDEST PUSH1 0x3 DUP7 MSTORE PUSH1 0x60 CALLDATASIZE DUP11 DUP9 ADD CALLDATACOPY PUSH1 0x5 PUSH2 0x67C DUP8 PUSH2 0x11AD JUMP JUMPDEST MSTORE PUSH1 0x9 PUSH2 0x688 DUP8 PUSH2 0x11CE JUMP JUMPDEST MSTORE PUSH1 0xF PUSH2 0x694 DUP8 PUSH2 0x11DE JUMP JUMPDEST MSTORE PUSH1 0x1 DUP1 PUSH1 0xA0 SHL SUB DUP5 SLOAD AND SWAP6 DUP11 MLOAD SWAP13 DUP14 SWAP9 DUP10 SWAP8 DUP9 SWAP7 PUSH4 0x5C5D15CD PUSH1 0xE0 SHL DUP9 MSTORE DUP8 ADD MSTORE PUSH8 0x8AC7230489E80000 PUSH1 0x24 DUP8 ADD MSTORE PUSH1 0xE0 PUSH1 0x44 DUP8 ADD MSTORE PUSH1 0xE4 DUP7 ADD SWAP1 PUSH2 0x1261 JUMP JUMPDEST SWAP2 DUP5 DUP4 SUB ADD PUSH1 0x64 DUP6 ADD MSTORE PUSH2 0x1261 JUMP JUMPDEST PUSH3 0x7A120 PUSH1 0x84 DUP4 ADD MSTORE PUSH1 0xA PUSH1 0xA4 DUP4 ADD MSTORE PUSH1 0x32 PUSH1 0xC4 DUP4 ADD MSTORE SUB SWAP3 GAS CALL SWAP4 DUP5 ISZERO PUSH2 0x813 JUMPI DUP4 SWAP5 PUSH2 0x775 JUMPI JUMPDEST POP SWAP2 SWAP3 SWAP1 DUP1 MLOAD SWAP3 DUP1 DUP1 DUP6 ADD SWAP3 DUP2 DUP7 MSTORE DUP5 MLOAD DUP1 SWAP5 MSTORE DUP6 ADD SWAP4 ADD SWAP5 JUMPDEST DUP3 DUP2 LT PUSH2 0x734 JUMPI DUP5 DUP5 SUB DUP6 RETURN JUMPDEST SWAP1 SWAP2 SWAP3 DUP3 PUSH1 0x80 DUP3 PUSH2 0x766 PUSH1 0x1 SWAP5 DUP11 MLOAD PUSH1 0x60 DUP1 SWAP2 DUP1 MLOAD DUP5 MSTORE PUSH1 0x20 DUP2 ADD MLOAD PUSH1 0x20 DUP6 ADD MSTORE PUSH1 0x40 DUP2 ADD MLOAD PUSH1 0x40 DUP6 ADD MSTORE ADD MLOAD SWAP2 ADD MSTORE JUMP JUMPDEST ADD SWAP7 ADD SWAP2 ADD SWAP5 SWAP3 SWAP2 SWAP1 SWAP5 PUSH2 0x727 JUMP JUMPDEST SWAP1 SWAP4 POP RETURNDATASIZE DUP1 DUP5 DUP4 RETURNDATACOPY PUSH2 0x787 DUP2 DUP4 PUSH2 0xF6E JUMP JUMPDEST DUP2 ADD SWAP1 DUP5 DUP2 DUP4 SUB SLT PUSH2 0x406 JUMPI DUP1 MLOAD SWAP1 PUSH8 0xFFFFFFFFFFFFFFFF DUP3 GT PUSH2 0x80F JUMPI ADD DUP2 PUSH1 0x1F DUP3 ADD SLT ISZERO PUSH2 0x406 JUMPI DUP1 MLOAD PUSH2 0x7BC DUP2 PUSH2 0x1195 JUMP JUMPDEST SWAP3 PUSH2 0x7C9 DUP6 MLOAD SWAP5 DUP6 PUSH2 0xF6E JUMP JUMPDEST DUP2 DUP5 MSTORE DUP7 DUP1 DUP6 ADD SWAP3 PUSH1 0x7 SHL DUP5 ADD ADD SWAP3 DUP2 DUP5 GT PUSH2 0x3E5 JUMPI DUP8 ADD SWAP2 JUMPDEST DUP8 DUP5 DUP5 LT PUSH2 0x7F7 JUMPI POP POP POP POP POP SWAP3 DUP5 PUSH2 0x70D JUMP JUMPDEST PUSH1 0x80 SWAP2 PUSH2 0x804 DUP5 DUP7 PUSH2 0x10C4 JUMP JUMPDEST DUP2 MSTORE ADD SWAP3 ADD SWAP2 PUSH2 0x7E3 JUMP JUMPDEST DUP5 DUP1 REVERT JUMPDEST POP POP MLOAD SWAP1 RETURNDATASIZE SWAP1 DUP3 RETURNDATACOPY RETURNDATASIZE SWAP1 REVERT JUMPDEST POP SWAP2 CALLVALUE PUSH2 0x145 JUMPI DUP1 PUSH1 0x3 NOT CALLDATASIZE ADD SLT PUSH2 0x145 JUMPI DUP3 MLOAD SWAP3 PUSH2 0x83D DUP5 PUSH2 0xEFC JUMP JUMPDEST DUP2 DUP5 MSTORE PUSH1 0x20 DUP3 DUP2 DUP7 ADD MSTORE DUP3 DUP3 DUP7 ADD MSTORE PUSH1 0x60 SWAP4 DUP4 DUP6 DUP8 ADD MSTORE DUP4 PUSH1 0x80 DUP8 ADD MSTORE DUP4 PUSH1 0xE0 PUSH1 0xA0 SWAP8 DUP3 DUP10 DUP3 ADD MSTORE DUP3 PUSH1 0xC0 DUP3 ADD MSTORE ADD MSTORE DUP5 DUP7 DUP5 MLOAD PUSH2 0x87A DUP2 PUSH2 0xF19 JUMP JUMPDEST DUP7 DUP2 MSTORE DUP7 DUP6 DUP3 ADD MSTORE DUP7 DUP7 DUP3 ADD MSTORE DUP7 DUP4 DUP3 ADD MSTORE DUP7 PUSH1 0x80 DUP3 ADD MSTORE ADD MSTORE PUSH2 0x89C PUSH2 0xFB4 JUMP JUMPDEST POP PUSH2 0x8A5 PUSH2 0x1294 JUMP JUMPDEST DUP5 SLOAD DUP5 MLOAD PUSH4 0x69157423 PUSH1 0xE1 SHL DUP2 MSTORE DUP1 DUP5 ADD DUP6 SWAP1 MSTORE SWAP7 PUSH2 0x100 SWAP4 SWAP1 SWAP3 SWAP1 SWAP2 PUSH1 0x1 PUSH1 0x1 PUSH1 0xA0 SHL SUB SWAP2 SWAP1 DUP6 SWAP1 DUP11 SWAP1 DUP5 AND DUP2 DUP12 DUP2 PUSH2 0x8E2 PUSH1 0x24 DUP3 ADD DUP9 PUSH2 0x100D JUMP JUMPDEST SUB SWAP3 GAS CALL SWAP9 DUP10 ISZERO PUSH2 0xC4A JUMPI DUP9 SWAP10 PUSH2 0xBB4 JUMPI JUMPDEST POP SWAP2 DUP2 DUP9 PUSH2 0x93C SWAP9 SWAP7 SWAP5 DUP12 PUSH2 0x929 DUP4 PUSH2 0x120 SWAP12 SWAP10 SWAP8 DUP2 SLOAD AND SWAP3 DUP12 MLOAD SWAP14 DUP15 SWAP6 DUP7 SWAP5 DUP6 SWAP4 PUSH4 0xB54DB8F PUSH1 0xE0 SHL DUP6 MSTORE DUP12 DUP6 ADD SWAP1 PUSH2 0xE3B JUMP JUMPDEST PUSH2 0x104 SWAP15 DUP16 DUP5 ADD MSTORE PUSH2 0x124 DUP4 ADD SWAP1 PUSH2 0x100D JUMP JUMPDEST SUB SWAP3 GAS CALL SWAP8 DUP9 ISZERO PUSH2 0xBAA JUMPI SWAP1 DUP10 SWAP3 SWAP2 DUP4 SWAP10 PUSH2 0xAFF JUMPI JUMPDEST POP SWAP1 PUSH8 0x8AC7230489E80000 SWAP2 DUP4 SLOAD AND SWAP1 DUP10 MLOAD SWAP9 DUP6 DUP12 ADD SWAP10 DUP11 MLOAD SWAP1 DUP11 MLOAD SWAP6 DUP7 SWAP5 PUSH4 0x212CC6E5 PUSH1 0xE1 SHL DUP7 MSTORE DUP6 ADD MSTORE PUSH1 0x24 DUP5 ADD MSTORE PUSH5 0xBA43B7400 PUSH1 0x44 DUP5 ADD MSTORE PUSH1 0x64 DUP4 ADD MSTORE PUSH8 0x91B77E5E5D9A0000 PUSH1 0x84 DUP4 ADD MSTORE PUSH8 0x95E14EC776380000 PUSH1 0xA4 DUP4 ADD MSTORE PUSH1 0xA PUSH1 0xC4 DUP4 ADD MSTORE PUSH1 0x32 PUSH1 0xE4 DUP4 ADD MSTORE DUP2 PUSH2 0x1C0 SWAP6 DUP7 SWAP5 GAS CALL SWAP9 DUP10 ISZERO PUSH2 0xAF4 JUMPI DUP1 SWAP10 PUSH2 0xA7D JUMPI JUMPDEST POP POP POP SWAP3 PUSH2 0x531 SWAP6 SWAP3 PUSH2 0xA71 SWAP6 SWAP3 PUSH32 0x941F7C5C6393D9F0E89A8F8E6378EFB3A3F5990C5342D9D89DD380AE7E83F701 PUSH2 0xA2A SWAP12 SWAP7 DUP12 MLOAD DUP9 DUP14 ADD MLOAD DUP9 MLOAD SWAP1 DUP8 MLOAD SWAP3 DUP4 MSTORE DUP7 DUP4 ADD MSTORE DUP7 DUP3 ADD MSTORE LOG1 DUP3 MLOAD SWAP11 DUP12 DUP1 SWAP12 PUSH2 0xE3B JUMP JUMPDEST PUSH2 0x2E0 DUP1 SWAP2 DUP12 ADD MSTORE DUP5 MLOAD SWAP1 DUP11 ADD MSTORE DUP4 ADD MLOAD PUSH2 0x300 DUP10 ADD MSTORE DUP3 ADD MLOAD PUSH2 0x320 DUP9 ADD MSTORE MLOAD PUSH2 0x340 DUP8 ADD MSTORE PUSH1 0x80 DUP2 ADD MLOAD PUSH2 0x360 DUP8 ADD MSTORE ADD MLOAD PUSH1 0xC0 PUSH2 0x380 DUP7 ADD MSTORE PUSH2 0x3A0 DUP6 ADD SWAP1 PUSH2 0xEA7 JUMP JUMPDEST SWAP2 PUSH2 0x120 DUP5 ADD SWAP1 PUSH2 0xDA5 JUMP JUMPDEST SWAP1 SWAP2 DUP1 SWAP4 SWAP10 POP RETURNDATASIZE DUP5 GT PUSH2 0xAED JUMPI JUMPDEST PUSH2 0xA95 DUP2 DUP5 PUSH2 0xF6E JUMP JUMPDEST DUP3 ADD SWAP3 DUP3 DUP5 SUB SLT PUSH2 0x145 JUMPI POP SWAP3 PUSH2 0xA71 SWAP6 SWAP3 PUSH32 0x941F7C5C6393D9F0E89A8F8E6378EFB3A3F5990C5342D9D89DD380AE7E83F701 PUSH2 0xADB PUSH2 0xA2A SWAP13 SWAP8 SWAP5 PUSH2 0x531 SWAP11 SWAP8 PUSH2 0x1100 JUMP JUMPDEST SWAP10 SWAP4 SWAP7 SWAP12 POP DUP3 SWAP6 SWAP9 POP DUP2 SWAP5 SWAP8 POP PUSH2 0x9D4 JUMP JUMPDEST POP RETURNDATASIZE PUSH2 0xA8B JUMP JUMPDEST DUP7 MLOAD SWAP1 RETURNDATASIZE SWAP1 DUP3 RETURNDATACOPY RETURNDATASIZE SWAP1 REVERT JUMPDEST SWAP2 SWAP3 POP SWAP8 POP RETURNDATASIZE DUP1 DUP11 DUP4 RETURNDATACOPY PUSH2 0xB13 DUP2 DUP4 PUSH2 0xF6E JUMP JUMPDEST DUP2 ADD DUP6 DUP3 DUP3 SUB SLT PUSH2 0xBA6 JUMPI DUP2 MLOAD PUSH8 0xFFFFFFFFFFFFFFFF SWAP3 DUP4 DUP3 GT PUSH2 0xB9E JUMPI ADD SWAP2 PUSH1 0xC0 DUP4 DUP4 SUB SLT PUSH2 0xBA2 JUMPI DUP8 MLOAD SWAP3 PUSH2 0xB49 DUP5 PUSH2 0xF19 JUMP JUMPDEST DUP1 MLOAD DUP5 MSTORE DUP8 DUP2 ADD MLOAD DUP9 DUP6 ADD MSTORE DUP9 DUP2 ADD MLOAD DUP10 DUP6 ADD MSTORE DUP6 DUP2 ADD MLOAD DUP7 DUP6 ADD MSTORE PUSH1 0x80 DUP2 ADD MLOAD PUSH1 0x80 DUP6 ADD MSTORE DUP14 DUP2 ADD MLOAD SWAP2 DUP3 GT PUSH2 0xB9E JUMPI DUP12 SWAP5 SWAP3 PUSH8 0x8AC7230489E80000 SWAP5 SWAP3 PUSH2 0xB92 SWAP3 ADD PUSH2 0x106B JUMP JUMPDEST DUP14 DUP3 ADD MSTORE SWAP9 SWAP1 SWAP2 PUSH2 0x952 JUMP JUMPDEST DUP12 DUP1 REVERT JUMPDEST DUP11 DUP1 REVERT JUMPDEST DUP10 DUP1 REVERT JUMPDEST DUP7 MLOAD RETURNDATASIZE DUP12 DUP3 RETURNDATACOPY RETURNDATASIZE SWAP1 REVERT JUMPDEST SWAP1 SWAP9 POP DUP5 DUP2 DUP2 RETURNDATASIZE DUP4 GT PUSH2 0xC43 JUMPI JUMPDEST PUSH2 0xBCC DUP2 DUP4 PUSH2 0xF6E JUMP JUMPDEST DUP2 ADD SUB SLT PUSH2 0xC3F JUMPI SWAP2 PUSH2 0x120 SWAP6 SWAP4 SWAP2 DUP9 DUP12 PUSH1 0xE0 DUP11 SWAP9 SWAP7 PUSH2 0x93C SWAP12 MLOAD SWAP3 PUSH2 0xBF1 DUP5 PUSH2 0xEFC JUMP JUMPDEST DUP2 MLOAD DUP5 MSTORE DUP10 DUP3 ADD MLOAD DUP11 DUP6 ADD MSTORE DUP11 DUP3 ADD MLOAD DUP12 DUP6 ADD MSTORE DUP8 DUP3 ADD MLOAD DUP9 DUP6 ADD MSTORE PUSH1 0x80 DUP3 ADD MLOAD PUSH1 0x80 DUP6 ADD MSTORE DUP1 DUP3 ADD MLOAD SWAP1 DUP5 ADD MSTORE PUSH1 0xC0 DUP2 ADD MLOAD PUSH1 0xC0 DUP5 ADD MSTORE ADD MLOAD PUSH1 0xE0 DUP3 ADD MSTORE SWAP11 SWAP3 SWAP5 SWAP7 SWAP9 POP POP SWAP2 SWAP4 SWAP6 PUSH2 0x8F4 JUMP JUMPDEST DUP8 DUP1 REVERT JUMPDEST POP RETURNDATASIZE PUSH2 0xBC2 JUMP JUMPDEST DUP8 MLOAD RETURNDATASIZE DUP11 DUP3 RETURNDATACOPY RETURNDATASIZE SWAP1 REVERT JUMPDEST SWAP1 SWAP4 SWAP2 POP CALLVALUE PUSH2 0xDA0 JUMPI DUP4 PUSH1 0x3 NOT CALLDATASIZE ADD SLT PUSH2 0xDA0 JUMPI PUSH2 0xC71 DUP2 PUSH2 0xECC JUMP JUMPDEST DUP4 DUP2 MSTORE DUP4 PUSH1 0x20 DUP3 ADD MSTORE DUP3 PUSH2 0xC83 PUSH2 0xFB4 JUMP JUMPDEST SWAP2 ADD MSTORE PUSH1 0x1 DUP1 PUSH1 0xA0 SHL SUB DUP4 SLOAD AND DUP3 MLOAD SWAP2 PUSH4 0x38A60BCD PUSH1 0xE1 SHL DUP4 MSTORE PUSH8 0xDE0B6B3A7640000 DUP1 SWAP2 DUP5 ADD MSTORE PUSH9 0x2B5E3AF16B1880000 PUSH1 0x24 DUP5 ADD MSTORE PUSH1 0x44 DUP4 ADD MSTORE PUSH8 0xE92596FD6290000 PUSH1 0x64 DUP4 ADD MSTORE PUSH1 0x9 PUSH1 0x84 DUP4 ADD MSTORE PUSH5 0xBA43B7400 PUSH1 0xA4 DUP4 ADD MSTORE PUSH3 0x7A120 PUSH1 0xC4 DUP4 ADD MSTORE PUSH1 0xA PUSH1 0xE4 DUP4 ADD MSTORE PUSH1 0x32 PUSH2 0x104 DUP4 ADD MSTORE DUP2 PUSH2 0x124 DUP2 PUSH2 0x200 SWAP8 DUP9 SWAP5 GAS CALL SWAP3 DUP4 ISZERO PUSH2 0xD95 JUMPI DUP1 SWAP4 PUSH2 0xD35 JUMPI JUMPDEST POP POP DUP1 DUP1 PUSH2 0x10A SWAP3 MLOAD SWAP4 DUP1 MLOAD DUP6 MSTORE PUSH1 0x20 DUP2 ADD MLOAD PUSH1 0x20 DUP7 ADD MSTORE ADD MLOAD SWAP1 DUP4 ADD SWAP1 PUSH2 0xDA5 JUMP JUMPDEST SWAP1 SWAP2 SWAP3 POP DUP4 RETURNDATASIZE DUP6 GT PUSH2 0xD8E JUMPI JUMPDEST PUSH2 0xD4C DUP2 DUP5 PUSH2 0xF6E JUMP JUMPDEST DUP3 ADD SWAP1 DUP5 DUP4 DUP4 SUB SLT PUSH2 0x145 JUMPI POP SWAP1 PUSH2 0xD82 PUSH2 0x10A SWAP3 DUP5 DUP1 MLOAD SWAP4 PUSH2 0xD6E DUP6 PUSH2 0xECC JUMP JUMPDEST DUP1 MLOAD DUP6 MSTORE PUSH1 0x20 DUP2 ADD MLOAD PUSH1 0x20 DUP7 ADD MSTORE ADD PUSH2 0x1100 JUMP JUMPDEST DUP4 DUP3 ADD MSTORE SWAP2 SWAP1 PUSH0 PUSH2 0xD12 JUMP JUMPDEST POP RETURNDATASIZE PUSH2 0xD42 JUMP JUMPDEST DUP3 MLOAD SWAP1 RETURNDATASIZE SWAP1 DUP3 RETURNDATACOPY RETURNDATASIZE SWAP1 REVERT JUMPDEST POP POP POP REVERT JUMPDEST SWAP1 PUSH2 0xE39 SWAP2 DUP1 MLOAD DUP3 MSTORE PUSH1 0x20 DUP2 ADD MLOAD PUSH1 0x20 DUP4 ADD MSTORE PUSH1 0x40 DUP2 ADD MLOAD PUSH1 0x40 DUP4 ADD MSTORE PUSH1 0x60 DUP2 ADD MLOAD PUSH1 0x60 DUP4 ADD MSTORE PUSH1 0x80 DUP2 ADD MLOAD PUSH1 0x80 DUP4 ADD MSTORE PUSH1 0xA0 DUP2 ADD MLOAD PUSH1 0xA0 DUP4 ADD MSTORE PUSH1 0xC0 DUP2 ADD MLOAD PUSH1 0xC0 DUP4 ADD MSTORE PUSH1 0xE0 DUP2 ADD MLOAD PUSH1 0xE0 DUP4 ADD MSTORE PUSH2 0x100 DUP1 DUP3 ADD MLOAD SWAP1 DUP4 ADD MSTORE PUSH2 0x120 DUP1 DUP3 ADD MLOAD ISZERO ISZERO SWAP1 DUP4 ADD MSTORE PUSH2 0x140 DUP1 SWAP2 ADD MLOAD SWAP2 ADD SWAP1 PUSH1 0x60 DUP1 SWAP2 DUP1 MLOAD DUP5 MSTORE PUSH1 0x20 DUP2 ADD MLOAD PUSH1 0x20 DUP6 ADD MSTORE PUSH1 0x40 DUP2 ADD MLOAD PUSH1 0x40 DUP6 ADD MSTORE ADD MLOAD SWAP2 ADD MSTORE JUMP JUMPDEST JUMP JUMPDEST PUSH1 0xE0 DUP1 SWAP2 DUP1 MLOAD DUP5 MSTORE PUSH1 0x20 DUP2 ADD MLOAD PUSH1 0x20 DUP6 ADD MSTORE PUSH1 0x40 DUP2 ADD MLOAD PUSH1 0x40 DUP6 ADD MSTORE PUSH1 0x60 DUP2 ADD MLOAD PUSH1 0x60 DUP6 ADD MSTORE PUSH1 0x80 DUP2 ADD MLOAD PUSH1 0x80 DUP6 ADD MSTORE PUSH1 0xA0 DUP2 ADD MLOAD PUSH1 0xA0 DUP6 ADD MSTORE PUSH1 0xC0 DUP2 ADD MLOAD PUSH1 0xC0 DUP6 ADD MSTORE ADD MLOAD SWAP2 ADD MSTORE JUMP JUMPDEST PUSH0 JUMPDEST DUP4 DUP2 LT PUSH2 0xE97 JUMPI POP POP PUSH0 SWAP2 ADD MSTORE JUMP JUMPDEST DUP2 DUP2 ADD MLOAD DUP4 DUP3 ADD MSTORE PUSH1 0x20 ADD PUSH2 0xE88 JUMP JUMPDEST SWAP1 PUSH1 0x20 SWAP2 PUSH2 0xEC0 DUP2 MLOAD DUP1 SWAP3 DUP2 DUP6 MSTORE DUP6 DUP1 DUP7 ADD SWAP2 ADD PUSH2 0xE86 JUMP JUMPDEST PUSH1 0x1F ADD PUSH1 0x1F NOT AND ADD ADD SWAP1 JUMP JUMPDEST PUSH1 0x60 DUP2 ADD SWAP1 DUP2 LT PUSH8 0xFFFFFFFFFFFFFFFF DUP3 GT OR PUSH2 0xEE8 JUMPI PUSH1 0x40 MSTORE JUMP JUMPDEST PUSH4 0x4E487B71 PUSH1 0xE0 SHL PUSH0 MSTORE PUSH1 0x41 PUSH1 0x4 MSTORE PUSH1 0x24 PUSH0 REVERT JUMPDEST PUSH2 0x100 DUP2 ADD SWAP1 DUP2 LT PUSH8 0xFFFFFFFFFFFFFFFF DUP3 GT OR PUSH2 0xEE8 JUMPI PUSH1 0x40 MSTORE JUMP JUMPDEST PUSH1 0xC0 DUP2 ADD SWAP1 DUP2 LT PUSH8 0xFFFFFFFFFFFFFFFF DUP3 GT OR PUSH2 0xEE8 JUMPI PUSH1 0x40 MSTORE JUMP JUMPDEST PUSH1 0x80 DUP2 ADD SWAP1 DUP2 LT PUSH8 0xFFFFFFFFFFFFFFFF DUP3 GT OR PUSH2 0xEE8 JUMPI PUSH1 0x40 MSTORE JUMP JUMPDEST PUSH2 0x160 DUP2 ADD SWAP1 DUP2 LT PUSH8 0xFFFFFFFFFFFFFFFF DUP3 GT OR PUSH2 0xEE8 JUMPI PUSH1 0x40 MSTORE JUMP JUMPDEST SWAP1 PUSH1 0x1F DUP1 NOT SWAP2 ADD AND DUP2 ADD SWAP1 DUP2 LT PUSH8 0xFFFFFFFFFFFFFFFF DUP3 GT OR PUSH2 0xEE8 JUMPI PUSH1 0x40 MSTORE JUMP JUMPDEST PUSH1 0x40 MLOAD SWAP1 PUSH2 0xF9D DUP3 PUSH2 0xF35 JUMP JUMPDEST PUSH0 PUSH1 0x60 DUP4 DUP3 DUP2 MSTORE DUP3 PUSH1 0x20 DUP3 ADD MSTORE DUP3 PUSH1 0x40 DUP3 ADD MSTORE ADD MSTORE JUMP JUMPDEST PUSH1 0x40 MLOAD SWAP1 PUSH2 0xFC1 DUP3 PUSH2 0xF51 JUMP JUMPDEST DUP2 PUSH0 DUP1 DUP3 MSTORE DUP1 PUSH1 0x20 DUP4 ADD MSTORE DUP1 PUSH1 0x40 DUP4 ADD MSTORE DUP1 PUSH1 0x60 DUP4 ADD MSTORE DUP1 PUSH1 0x80 DUP4 ADD MSTORE DUP1 PUSH1 0xA0 DUP4 ADD MSTORE DUP1 PUSH1 0xC0 DUP4 ADD MSTORE DUP1 PUSH1 0xE0 DUP4 ADD MSTORE DUP1 PUSH2 0x100 DUP4 ADD MSTORE PUSH2 0x120 DUP3 ADD MSTORE PUSH2 0x140 PUSH2 0x1008 PUSH2 0xF90 JUMP JUMPDEST SWAP2 ADD MSTORE JUMP JUMPDEST SWAP1 DUP2 MLOAD DUP1 DUP3 MSTORE PUSH1 0x20 DUP1 DUP1 SWAP4 ADD SWAP4 ADD SWAP2 PUSH0 JUMPDEST DUP3 DUP2 LT PUSH2 0x102C JUMPI POP POP POP POP SWAP1 JUMP JUMPDEST SWAP1 SWAP2 SWAP3 SWAP4 DUP3 PUSH1 0x80 DUP3 PUSH2 0x105F PUSH1 0x1 SWAP5 DUP10 MLOAD PUSH1 0x60 DUP1 SWAP2 DUP1 MLOAD DUP5 MSTORE PUSH1 0x20 DUP2 ADD MLOAD PUSH1 0x20 DUP6 ADD MSTORE PUSH1 0x40 DUP2 ADD MLOAD PUSH1 0x40 DUP6 ADD MSTORE ADD MLOAD SWAP2 ADD MSTORE JUMP JUMPDEST ADD SWAP6 ADD SWAP4 SWAP3 SWAP2 ADD PUSH2 0x101E JUMP JUMPDEST DUP2 PUSH1 0x1F DUP3 ADD SLT ISZERO PUSH2 0x10C0 JUMPI DUP1 MLOAD PUSH8 0xFFFFFFFFFFFFFFFF DUP2 GT PUSH2 0xEE8 JUMPI PUSH1 0x40 MLOAD SWAP3 PUSH2 0x109F PUSH1 0x1F DUP4 ADD PUSH1 0x1F NOT AND PUSH1 0x20 ADD DUP6 PUSH2 0xF6E JUMP JUMPDEST DUP2 DUP5 MSTORE PUSH1 0x20 DUP3 DUP5 ADD ADD GT PUSH2 0x10C0 JUMPI PUSH2 0x10BD SWAP2 PUSH1 0x20 DUP1 DUP6 ADD SWAP2 ADD PUSH2 0xE86 JUMP JUMPDEST SWAP1 JUMP JUMPDEST PUSH0 DUP1 REVERT JUMPDEST SWAP2 SWAP1 DUP3 PUSH1 0x80 SWAP2 SUB SLT PUSH2 0x10C0 JUMPI PUSH1 0x40 MLOAD PUSH2 0x10DC DUP2 PUSH2 0xF35 JUMP JUMPDEST PUSH1 0x60 DUP1 DUP3 SWAP5 DUP1 MLOAD DUP5 MSTORE PUSH1 0x20 DUP2 ADD MLOAD PUSH1 0x20 DUP6 ADD MSTORE PUSH1 0x40 DUP2 ADD MLOAD PUSH1 0x40 DUP6 ADD MSTORE ADD MLOAD SWAP2 ADD MSTORE JUMP JUMPDEST SWAP2 SWAP1 SWAP2 PUSH2 0x1C0 DUP2 DUP5 SUB SLT PUSH2 0x10C0 JUMPI PUSH1 0x40 MLOAD SWAP1 PUSH2 0x111B DUP3 PUSH2 0xF51 JUMP JUMPDEST DUP2 SWAP4 DUP2 MLOAD DUP4 MSTORE PUSH1 0x20 DUP3 ADD MLOAD PUSH1 0x20 DUP5 ADD MSTORE PUSH1 0x40 DUP3 ADD MLOAD PUSH1 0x40 DUP5 ADD MSTORE PUSH1 0x60 DUP3 ADD MLOAD PUSH1 0x60 DUP5 ADD MSTORE PUSH1 0x80 DUP3 ADD MLOAD PUSH1 0x80 DUP5 ADD MSTORE PUSH1 0xA0 DUP3 ADD MLOAD PUSH1 0xA0 DUP5 ADD MSTORE PUSH1 0xC0 DUP3 ADD MLOAD PUSH1 0xC0 DUP5 ADD MSTORE PUSH1 0xE0 DUP3 ADD MLOAD PUSH1 0xE0 DUP5 ADD MSTORE PUSH2 0x100 DUP1 DUP4 ADD MLOAD SWAP1 DUP5 ADD MSTORE PUSH2 0x120 SWAP1 DUP2 DUP4 ADD MLOAD DUP1 ISZERO ISZERO DUP2 SUB PUSH2 0x10C0 JUMPI PUSH2 0x1008 SWAP3 DUP6 ADD MSTORE PUSH2 0x140 DUP1 SWAP4 ADD PUSH2 0x10C4 JUMP JUMPDEST PUSH8 0xFFFFFFFFFFFFFFFF DUP2 GT PUSH2 0xEE8 JUMPI PUSH1 0x5 SHL PUSH1 0x20 ADD SWAP1 JUMP JUMPDEST DUP1 MLOAD ISZERO PUSH2 0x11BA JUMPI PUSH1 0x20 ADD SWAP1 JUMP JUMPDEST PUSH4 0x4E487B71 PUSH1 0xE0 SHL PUSH0 MSTORE PUSH1 0x32 PUSH1 0x4 MSTORE PUSH1 0x24 PUSH0 REVERT JUMPDEST DUP1 MLOAD PUSH1 0x1 LT ISZERO PUSH2 0x11BA JUMPI PUSH1 0x40 ADD SWAP1 JUMP JUMPDEST DUP1 MLOAD PUSH1 0x2 LT ISZERO PUSH2 0x11BA JUMPI PUSH1 0x60 ADD SWAP1 JUMP JUMPDEST DUP1 MLOAD PUSH1 0x3 LT ISZERO PUSH2 0x11BA JUMPI PUSH1 0x80 ADD SWAP1 JUMP JUMPDEST DUP1 MLOAD PUSH1 0x4 LT ISZERO PUSH2 0x11BA JUMPI PUSH1 0xA0 ADD SWAP1 JUMP JUMPDEST DUP1 MLOAD PUSH1 0x5 LT ISZERO PUSH2 0x11BA JUMPI PUSH1 0xC0 ADD SWAP1 JUMP JUMPDEST DUP1 MLOAD PUSH1 0x6 LT ISZERO PUSH2 0x11BA JUMPI PUSH1 0xE0 ADD SWAP1 JUMP JUMPDEST DUP1 MLOAD PUSH1 0x7 LT ISZERO PUSH2 0x11BA JUMPI PUSH2 0x100 ADD SWAP1 JUMP JUMPDEST DUP1 MLOAD PUSH1 0x8 LT ISZERO PUSH2 0x11BA JUMPI PUSH2 0x120 ADD SWAP1 JUMP JUMPDEST DUP1 MLOAD PUSH1 0x9 LT ISZERO PUSH2 0x11BA JUMPI PUSH2 0x140 ADD SWAP1 JUMP JUMPDEST SWAP1 DUP2 MLOAD DUP1 DUP3 MSTORE PUSH1 0x20 DUP1 DUP1 SWAP4 ADD SWAP4 ADD SWAP2 PUSH0 JUMPDEST DUP3 DUP2 LT PUSH2 0x1280 JUMPI POP POP POP POP SWAP1 JUMP JUMPDEST DUP4 MLOAD DUP6 MSTORE SWAP4 DUP2 ADD SWAP4 SWAP3 DUP2 ADD SWAP3 PUSH1 0x1 ADD PUSH2 0x1272 JUMP JUMPDEST PUSH1 0x40 DUP1 MLOAD SWAP1 PUSH2 0x12A2 DUP3 PUSH2 0xF51 JUMP JUMPDEST PUSH1 0xA DUP3 MSTORE PUSH0 JUMPDEST PUSH2 0x140 DUP2 LT PUSH2 0x1525 JUMPI POP PUSH1 0x3A DUP2 MLOAD PUSH2 0x12BF DUP2 PUSH2 0xF35 JUMP JUMPDEST PUSH7 0xB1A2BC2EC50000 DUP2 MSTORE PUSH2 0x136 PUSH1 0x20 SWAP4 PUSH3 0x6DDD0 DUP6 DUP5 ADD MSTORE PUSH1 0xFA DUP2 DUP5 ADD MSTORE PUSH1 0x60 SWAP3 PUSH1 0x2D DUP5 DUP3 ADD MSTORE PUSH2 0x12EF DUP8 PUSH2 0x11AD JUMP JUMPDEST MSTORE PUSH2 0x12F9 DUP7 PUSH2 0x11AD JUMP JUMPDEST POP DUP1 MLOAD PUSH2 0x1305 DUP2 PUSH2 0xF35 JUMP JUMPDEST PUSH8 0x11C37937E080000 DUP2 MSTORE PUSH3 0x75300 DUP7 DUP3 ADD MSTORE PUSH2 0x118 DUP3 DUP3 ADD MSTORE PUSH1 0x34 DUP5 DUP3 ADD MSTORE PUSH2 0x132E DUP8 PUSH2 0x11CE JUMP JUMPDEST MSTORE PUSH2 0x1338 DUP7 PUSH2 0x11CE JUMP JUMPDEST POP DUP1 MLOAD PUSH2 0x1344 DUP2 PUSH2 0xF35 JUMP JUMPDEST PUSH7 0x6A94D74F430000 DUP2 MSTORE PUSH3 0x668A0 DUP7 DUP3 ADD MSTORE PUSH1 0xC8 DUP3 DUP3 ADD MSTORE PUSH1 0x26 DUP5 DUP3 ADD MSTORE PUSH2 0x136B DUP8 PUSH2 0x11DE JUMP JUMPDEST MSTORE PUSH2 0x1375 DUP7 PUSH2 0x11DE JUMP JUMPDEST POP DUP1 MLOAD PUSH2 0x1381 DUP2 PUSH2 0xF35 JUMP JUMPDEST PUSH8 0x1AA535D3D0C0000 DUP2 MSTORE PUSH3 0x7C830 DUP7 DUP3 ADD MSTORE PUSH2 0x140 DUP3 DUP3 ADD MSTORE PUSH1 0x3C DUP5 DUP3 ADD MSTORE PUSH2 0x13AA DUP8 PUSH2 0x11EE JUMP JUMPDEST MSTORE PUSH2 0x13B4 DUP7 PUSH2 0x11EE JUMP JUMPDEST POP DUP1 MLOAD PUSH2 0x13C0 DUP2 PUSH2 0xF35 JUMP JUMPDEST PUSH7 0x470DE4DF820000 DUP2 MSTORE PUSH3 0x61A80 DUP7 DUP3 ADD MSTORE PUSH1 0x96 DUP3 DUP3 ADD MSTORE PUSH1 0x1E DUP5 DUP3 ADD MSTORE PUSH2 0x13E7 DUP8 PUSH2 0x11FE JUMP JUMPDEST MSTORE PUSH2 0x13F1 DUP7 PUSH2 0x11FE JUMP JUMPDEST POP DUP1 MLOAD PUSH2 0x13FD DUP2 PUSH2 0xF35 JUMP JUMPDEST PUSH7 0xF8B0A10E470000 DUP2 MSTORE PUSH3 0x72BF0 DUP7 DUP3 ADD MSTORE PUSH2 0x10E DUP3 DUP3 ADD MSTORE PUSH1 0x30 DUP5 DUP3 ADD MSTORE PUSH2 0x1425 DUP8 PUSH2 0x120E JUMP JUMPDEST MSTORE PUSH2 0x142F DUP7 PUSH2 0x120E JUMP JUMPDEST POP DUP1 MLOAD PUSH2 0x143B DUP2 PUSH2 0xF35 JUMP JUMPDEST PUSH7 0x8E1BC9BF040000 DUP2 MSTORE PUSH3 0x6B6C0 DUP7 DUP3 ADD MSTORE PUSH1 0xF0 DUP3 DUP3 ADD MSTORE PUSH1 0x2A DUP5 DUP3 ADD MSTORE PUSH2 0x1462 DUP8 PUSH2 0x121E JUMP JUMPDEST MSTORE PUSH2 0x146C DUP7 PUSH2 0x121E JUMP JUMPDEST POP DUP1 MLOAD PUSH2 0x1478 DUP2 PUSH2 0xF35 JUMP JUMPDEST PUSH8 0x13FBE85EDC90000 DUP2 MSTORE PUSH3 0x77A10 DUP7 DUP3 ADD MSTORE PUSH2 0x122 DUP3 DUP3 ADD MSTORE PUSH1 0x37 DUP5 DUP3 ADD MSTORE PUSH2 0x14A1 DUP8 PUSH2 0x122E JUMP JUMPDEST MSTORE PUSH2 0x14AB DUP7 PUSH2 0x122E JUMP JUMPDEST POP DUP1 MLOAD PUSH2 0x14B7 DUP2 PUSH2 0xF35 JUMP JUMPDEST PUSH7 0xD529AE9E860000 DUP2 MSTORE PUSH3 0x704E0 DUP7 DUP3 ADD MSTORE PUSH2 0x104 DUP3 DUP3 ADD MSTORE PUSH1 0x32 DUP5 DUP3 ADD MSTORE PUSH2 0x14DF DUP8 PUSH2 0x123F JUMP JUMPDEST MSTORE PUSH2 0x14E9 DUP7 PUSH2 0x123F JUMP JUMPDEST POP PUSH3 0x7A120 DUP2 MLOAD SWAP6 PUSH2 0x14FA DUP8 PUSH2 0xF35 JUMP JUMPDEST PUSH8 0x186CC6ACD4B0000 DUP8 MSTORE DUP7 ADD MSTORE DUP5 ADD MSTORE DUP3 ADD MSTORE PUSH2 0x1517 DUP3 PUSH2 0x1250 JUMP JUMPDEST MSTORE PUSH2 0x1521 DUP2 PUSH2 0x1250 JUMP JUMPDEST POP SWAP1 JUMP JUMPDEST PUSH1 0x20 SWAP1 PUSH2 0x1530 PUSH2 0xF90 JUMP JUMPDEST DUP3 DUP3 DUP7 ADD ADD MSTORE ADD PUSH2 0x12A8 JUMP INVALID LOG2 PUSH5 0x6970667358 0x22 SLT KECCAK256 CODESIZE COINBASE 0xA9 0xBE 0xA5 0xB1 SWAP7 BYTE 0xDF 0xE3 TIMESTAMP PUSH14 0x2F7571154D945B1FB001C73B325D PUSH31 0x49B2E680964736F6C63430008140033000000000000000000000000000000 "
		},
		"gasEstimates": {
			"creation": {
				"codeDepositCost": "1098000",
				"executionCost": "infinite",
				"totalCost": "infinite"
			},
			"external": {
				"analyzeGasUsage()": "infinite",
				"analyzer()": "2373",
				"findOptimalAmount()": "infinite",
				"getDetailedProfitabilityBreakdown(uint256,uint256,uint256)": "infinite",
				"runBacktest()": "infinite",
				"runCompleteAnalysis()": "infinite",
				"runSensitivityAnalysis()": "infinite"
			},
			"internal": {
				"_createSampleTrades()": "infinite"
			}
		},
		"methodIdentifiers": {
			"analyzeGasUsage()": "c259d79f",
			"analyzer()": "5aa8b895",
			"findOptimalAmount()": "1a28037f",
			"getDetailedProfitabilityBreakdown(uint256,uint256,uint256)": "ec13c337",
			"runBacktest()": "e3cc4977",
			"runCompleteAnalysis()": "2b8aa578",
			"runSensitivityAnalysis()": "3bd36982"
		}
	},
	"abi": [
		{
			"inputs": [
				{
					"internalType": "address",
					"name": "_analyzer",
					"type": "address"
				}
			],
			"stateMutability": "nonpayable",
			"type": "constructor"
		},
		{
			"anonymous": false,
			"inputs": [
				{
					"indexed": false,
					"internalType": "uint256",
					"name": "meanProfit",
					"type": "uint256"
				},
				{
					"indexed": false,
					"internalType": "uint256",
					"name": "successRate",
					"type": "uint256"
				},
				{
					"indexed": false,
					"internalType": "uint256",
					"name": "recommendedMinProfitBps",
					"type": "uint256"
				}
			],
			"name": "AnalysisComplete",
			"type": "event"
		},
		{
			"inputs": [],
			"name": "analyzeGasUsage",
			"outputs": [
				{
					"internalType": "uint256",
					"name": "meanGasCost",
					"type": "uint256"
				},
				{
					"internalType": "uint256",
					"name": "profitPerGasUnit",
					"type": "uint256"
				},
				{
					"internalType": "string",
					"name": "recommendation",
					"type": "string"
				}
			],
			"stateMutability": "view",
			"type": "function"
		},
		{
			"inputs": [],
			"name": "analyzer",
			"outputs": [
				{
					"internalType": "contract ArbitrageAnalyzer",
					"name": "",
					"type": "address"
				}
			],
			"stateMutability": "view",
			"type": "function"
		},
		{
			"inputs": [],
			"name": "findOptimalAmount",
			"outputs": [
				{
					"components": [
						{
							"internalType": "uint256",
							"name": "optimalAmount",
							"type": "uint256"
						},
						{
							"internalType": "uint256",
							"name": "maxProfit",
							"type": "uint256"
						},
						{
							"components": [
								{
									"internalType": "uint256",
									"name": "borrowAmount",
									"type": "uint256"
								},
								{
									"internalType": "uint256",
									"name": "flashLoanFee",
									"type": "uint256"
								},
								{
									"internalType": "uint256",
									"name": "gasCost",
									"type": "uint256"
								},
								{
									"internalType": "uint256",
									"name": "builderTip",
									"type": "uint256"
								},
								{
									"internalType": "uint256",
									"name": "safetyBuffer",
									"type": "uint256"
								},
								{
									"internalType": "uint256",
									"name": "totalCosts",
									"type": "uint256"
								},
								{
									"internalType": "uint256",
									"name": "grossProfit",
									"type": "uint256"
								},
								{
									"internalType": "uint256",
									"name": "netProfit",
									"type": "uint256"
								},
								{
									"internalType": "uint256",
									"name": "roi",
									"type": "uint256"
								},
								{
									"internalType": "bool",
									"name": "isProfitable",
									"type": "bool"
								},
								{
									"components": [
										{
											"internalType": "uint256",
											"name": "flashLoanFeePercent",
											"type": "uint256"
										},
										{
											"internalType": "uint256",
											"name": "gasCostPercent",
											"type": "uint256"
										},
										{
											"internalType": "uint256",
											"name": "builderTipPercent",
											"type": "uint256"
										},
										{
											"internalType": "uint256",
											"name": "safetyBufferPercent",
											"type": "uint256"
										}
									],
									"internalType": "struct ArbitrageAnalyzer.CostPercentages",
									"name": "costBreakdown",
									"type": "tuple"
								}
							],
							"internalType": "struct ArbitrageAnalyzer.ProfitabilityBreakdown",
							"name": "profitability",
							"type": "tuple"
						}
					],
					"internalType": "struct ArbitrageAnalyzer.OptimalBorrowResult",
					"name": "",
					"type": "tuple"
				}
			],
			"stateMutability": "nonpayable",
			"type": "function"
		},
		{
			"inputs": [
				{
					"internalType": "uint256",
					"name": "borrowAmount",
					"type": "uint256"
				},
				{
					"internalType": "uint256",
					"name": "expectedLeg1Out",
					"type": "uint256"
				},
				{
					"internalType": "uint256",
					"name": "expectedLeg2Out",
					"type": "uint256"
				}
			],
			"name": "getDetailedProfitabilityBreakdown",
			"outputs": [
				{
					"components": [
						{
							"internalType": "uint256",
							"name": "borrowAmount",
							"type": "uint256"
						},
						{
							"internalType": "uint256",
							"name": "flashLoanFee",
							"type": "uint256"
						},
						{
							"internalType": "uint256",
							"name": "gasCost",
							"type": "uint256"
						},
						{
							"internalType": "uint256",
							"name": "builderTip",
							"type": "uint256"
						},
						{
							"internalType": "uint256",
							"name": "safetyBuffer",
							"type": "uint256"
						},
						{
							"internalType": "uint256",
							"name": "totalCosts",
							"type": "uint256"
						},
						{
							"internalType": "uint256",
							"name": "grossProfit",
							"type": "uint256"
						},
						{
							"internalType": "uint256",
							"name": "netProfit",
							"type": "uint256"
						},
						{
							"internalType": "uint256",
							"name": "roi",
							"type": "uint256"
						},
						{
							"internalType": "bool",
							"name": "isProfitable",
							"type": "bool"
						},
						{
							"components": [
								{
									"internalType": "uint256",
									"name": "flashLoanFeePercent",
									"type": "uint256"
								},
								{
									"internalType": "uint256",
									"name": "gasCostPercent",
									"type": "uint256"
								},
								{
									"internalType": "uint256",
									"name": "builderTipPercent",
									"type": "uint256"
								},
								{
									"internalType": "uint256",
									"name": "safetyBufferPercent",
									"type": "uint256"
								}
							],
							"internalType": "struct ArbitrageAnalyzer.CostPercentages",
							"name": "costBreakdown",
							"type": "tuple"
						}
					],
					"internalType": "struct ArbitrageAnalyzer.ProfitabilityBreakdown",
					"name": "",
					"type": "tuple"
				}
			],
			"stateMutability": "nonpayable",
			"type": "function"
		},
		{
			"inputs": [],
			"name": "runBacktest",
			"outputs": [
				{
					"components": [
						{
							"internalType": "uint256",
							"name": "minProfitBps",
							"type": "uint256"
						},
						{
							"internalType": "uint256",
							"name": "maxSlippageBps",
							"type": "uint256"
						},
						{
							"internalType": "uint256",
							"name": "successCount",
							"type": "uint256"
						},
						{
							"internalType": "uint256",
							"name": "totalProfit",
							"type": "uint256"
						},
						{
							"internalType": "uint256",
							"name": "roi",
							"type": "uint256"
						}
					],
					"internalType": "struct ArbitrageAnalyzer.BacktestResult[]",
					"name": "",
					"type": "tuple[]"
				}
			],
			"stateMutability": "nonpayable",
			"type": "function"
		},
		{
			"inputs": [],
			"name": "runCompleteAnalysis",
			"outputs": [
				{
					"components": [
						{
							"internalType": "uint256",
							"name": "meanProfit",
							"type": "uint256"
						},
						{
							"internalType": "uint256",
							"name": "medianProfit",
							"type": "uint256"
						},
						{
							"internalType": "uint256",
							"name": "stdDeviation",
							"type": "uint256"
						},
						{
							"internalType": "uint256",
							"name": "minProfit",
							"type": "uint256"
						},
						{
							"internalType": "uint256",
							"name": "maxProfit",
							"type": "uint256"
						},
						{
							"internalType": "uint256",
							"name": "successRate",
							"type": "uint256"
						},
						{
							"internalType": "uint256",
							"name": "averageGasUsed",
							"type": "uint256"
						},
						{
							"internalType": "uint256",
							"name": "totalTrades",
							"type": "uint256"
						}
					],
					"internalType": "struct ArbitrageAnalyzer.StatisticalAnalysis",
					"name": "",
					"type": "tuple"
				},
				{
					"components": [
						{
							"internalType": "uint256",
							"name": "minProfitBps",
							"type": "uint256"
						},
						{
							"internalType": "uint256",
							"name": "maxSlippageBps",
							"type": "uint256"
						},
						{
							"internalType": "uint256",
							"name": "deadlineSeconds",
							"type": "uint256"
						},
						{
							"internalType": "uint256",
							"name": "gasUnitsEstimate",
							"type": "uint256"
						},
						{
							"internalType": "uint256",
							"name": "confidence",
							"type": "uint256"
						},
						{
							"internalType": "string",
							"name": "reasoning",
							"type": "string"
						}
					],
					"internalType": "struct ArbitrageAnalyzer.ParameterRecommendation",
					"name": "",
					"type": "tuple"
				},
				{
					"components": [
						{
							"internalType": "uint256",
							"name": "borrowAmount",
							"type": "uint256"
						},
						{
							"internalType": "uint256",
							"name": "flashLoanFee",
							"type": "uint256"
						},
						{
							"internalType": "uint256",
							"name": "gasCost",
							"type": "uint256"
						},
						{
							"internalType": "uint256",
							"name": "builderTip",
							"type": "uint256"
						},
						{
							"internalType": "uint256",
							"name": "safetyBuffer",
							"type": "uint256"
						},
						{
							"internalType": "uint256",
							"name": "totalCosts",
							"type": "uint256"
						},
						{
							"internalType": "uint256",
							"name": "grossProfit",
							"type": "uint256"
						},
						{
							"internalType": "uint256",
							"name": "netProfit",
							"type": "uint256"
						},
						{
							"internalType": "uint256",
							"name": "roi",
							"type": "uint256"
						},
						{
							"internalType": "bool",
							"name": "isProfitable",
							"type": "bool"
						},
						{
							"components": [
								{
									"internalType": "uint256",
									"name": "flashLoanFeePercent",
									"type": "uint256"
								},
								{
									"internalType": "uint256",
									"name": "gasCostPercent",
									"type": "uint256"
								},
								{
									"internalType": "uint256",
									"name": "builderTipPercent",
									"type": "uint256"
								},
								{
									"internalType": "uint256",
									"name": "safetyBufferPercent",
									"type": "uint256"
								}
							],
							"internalType": "struct ArbitrageAnalyzer.CostPercentages",
							"name": "costBreakdown",
							"type": "tuple"
						}
					],
					"internalType": "struct ArbitrageAnalyzer.ProfitabilityBreakdown",
					"name": "",
					"type": "tuple"
				}
			],
			"stateMutability": "nonpayable",
			"type": "function"
		},
		{
			"inputs": [],
			"name": "runSensitivityAnalysis",
			"outputs": [
				{
					"components": [
						{
							"internalType": "uint256",
							"name": "gasPrice",
							"type": "uint256"
						},
						{
							"internalType": "uint256",
							"name": "flashLoanPremiumBps",
							"type": "uint256"
						},
						{
							"internalType": "uint256",
							"name": "netProfit",
							"type": "uint256"
						},
						{
							"internalType": "uint256",
							"name": "roi",
							"type": "uint256"
						}
					],
					"internalType": "struct ArbitrageAnalyzer.SensitivityResult[]",
					"name": "",
					"type": "tuple[]"
				}
			],
			"stateMutability": "nonpayable",
			"type": "function"
		}
	]
}