{
	"data": {
		"bytecode": {
			"linkReferences": {},
			"object": "608060408181523461024b5760015f928184553315610235575080546001600160a01b03198082163390811784556001600160a01b039373cf714f4c2932ff5148651ff8a3a91af69cf9ade39390919085167f8be0079c531659141344cd1fd0a4f28419497f9722a3daafe3b4186f6b6457e08880a36064600c5561012c80600d55605a600e556207a120600f556010556103206011556104b0601255610bb862ffffff196013541617601355600a60145560326015556009601655640ba43b740060175569021e19e0c9bab240000060185585601955611388601b556201010163ffffffff19601c541617601c5573794a61358d6845594f94dc1db02a252b5b4814ad82601f541617601f5573a97684ead0e402dc232d5a977953df7ecbab3cdb82600a541617600a5573c02aaa39b223fe8d0a0e5c4f27ead9083c756cc282600b541617600b558580526020906006825285872073e592427a0aece92de3edee1f18e0157c05861564908185825416179055600783528688207361ffe014ba17989e8a2d3bccda57b7a7fcd78f748582541617905587526008825260088688209260ff1993838582541617905582895260068152878920730d9e1ce17f2641f24ae57b168b3c7a5ba3df403990818782541617905560078252888a2086815416905589525285872091825416179055601a541617601a557ffcfcedfafa92882def30b16e239a0c0512fd0cb251876b2709be862356873e8981600a541691600b541692519380a36148809081620002508239f35b631e4fbdf760e01b815260048101849052602490fd5b5f80fdfe60c0604052600436101561001a575b3615610018575f80fd5b005b5f8060a052803560e01c908163033051c6146136635781630542975c1461106b5781630816c847146136435781630aef023f1461329d5781630dba22af1461361e5781630ea62cb5146132de5781630f874a131461329d5781630fee470a1461300857816316c38b3c14612f9c5781631b11d0ff14612b5a5781631c31f71014612adb578163219a982214612a8e5781632c49c9a314612a69578163312a634d1461297a578163322520571461104b578163383aeeae1461295a57816338af3eed1461292f5781633d59b5f1146128a35781633fc8cef31461287857816342d554971461280c5781634e791437146127ec5781635688b8ef146127cc57816356d8940f146127ac5781635b6cca8014611a8d5781635c975abb146119d45781635cdcd8bb146127225781635fbaa51d146126fa57816368aad1721461266d57816368c4ac261461262c5781636ae26c99146126045781636ee101751461256d5781636ff1c9bc146124a5578163715018a614612444578163726f16d8146123e157816372f94365146123c157816375151b63146123995781637535d24614611e9257816376e112861461230d578163785b32f4146122db578163785c7cf6146122ad57816379a73bbe14611f875781637ae8518314611f2557816384845fd414611ebd57816386a06ff014611e925781638a611d5514611e725781638da5cb5b14611e475781638ee573ac14611e085781638f3ed68314611d8657816390f73d3c14611ce85781639693c4a414611b6e57816396f62ac71461062957816397ad7e2a14611b4e5781639b0afe6d14611aca5781639dcb511a14611a8d578163a1836954146119fc578163b187bd26146119d4578163b2bcccda14611942578163b3eeb6211461113c578163b76e053b146110d3578163b7e1019114611096578163baf79c391461106b578163bf539cb41461104b578163c4aa73951461102b578163c54cdad81461100b578163cc6a292414610fad578163cceb6c4214610f5d578163d83ea79014610f3d578163db05852f14610dfb578163dbda280814610ddb578163dde6befd14610dbb578163de3ae757146108ec578163deb928ee14610834578163e086e5ec1461079b578163e0925d6c14610665578163e095b46514610629578163e292e876146105d5578163eeacafc31461052d578163f2fde38b1461049e57508063f984f70a14610434578063fa66358a146103c95763fe173b970361000e57346103c35760a051806003193601126103c0576020601754604051908152f35b80fd5b60a05180fd5b346103c35760203660031901126103c3576004356103e56146d0565b50601e548110156104225760a05152601d60205261041e61040a604060a0512061405d565b604051918291602083526020830190613a75565b0390f35b604051638f676f4960e01b8152600490fd5b346103c35760203660031901126103c3577fb2a19cf961f334d257a8d5f75afd9309a15b64c0bae806bffc30227902ac67b5602061047061385a565b610478613af4565b1515601c5462ff00008260101b169062ff0000191617601c55604051908152a160a05180f35b346103c35760203660031901126103c3576104b761382e565b906104c0613af4565b6001600160a01b03918216918215610513577f8be0079c531659141344cd1fd0a4f28419497f9722a3daafe3b4186f6b6457e090600154846001600160601b0360a01b821617600155169180a360a05180f35b604051631e4fbdf760e01b815260a0516004820152602490fd5b346103c35760203660031901126103c35760043562ffffff81168091036103c357610556613af4565b6101f4811415806105c9575b806105bd575b6105ab576020817f56387f26ac2f92610e692325d1db5ce5e79d284dff494caa737c3923a67642e59262ffffff196013541617601355604051908152a160a05180f35b6040516358d620b360e01b8152600490fd5b50612710811415610568565b50610bb8811415610562565b346103c35760203660031901126103c35760043560028110156103c3576001600160a01b039061060490613901565b5416801561061757602090604051908152f35b604051632a4251f760e21b8152600490fd5b346103c35760203660031901126103c35760043560028110156103c3576020906001600160a01b039061065b90613918565b5416604051908152f35b346103c35761067336613878565b92919061067e613af4565b8382036107895760a0515b8281106106965760a05180f35b6001600160a01b0390816106b36106ae83878961462e565b61463e565b161561077757816106c86106ae83898761462e565b161561076557610760916106e06106ae83898761462e565b816106ef6106ae85898b61462e565b1660a05152600360205281604060a0512091166001600160601b0360a01b8254161790556107216106ae83878961462e565b7fd2d8394cf7549a5ddbc2ba3dd7b2de8d53c891472d1f2907008ed6a10045fdae826107516106ae868c8a61462e565b169260a05192169180a3613b86565b610689565b6040516301f86e1760e41b8152600490fd5b60405163c1ab6dc160e01b8152600490fd5b60405163512509d360e11b8152600490fd5b346103c35760a051806003193601126103c0576107b6613af4565b4780156108225760a0518080808460018060a01b03600154165af16107d961480c565b50156108105760207f043f607a14d3b4f0a11a0b2e192bbfcd894298ba5abf22553be6081406db28aa91604051908152a160a05180f35b60405163b12d13eb60e01b8152600490fd5b604051636165515360e11b8152600490fd5b346103c3576108423661392f565b61084a613af4565b6001600160a01b031680156108da5761086282613901565b80546001600160a01b0319168217905560a0805182905260086020525160408120805460ff1916600117905560028310156108c3575060a051917f1e7261f9f5e3815ca6ac940d15b46ff8fe93774a027ccfb4d5ad34da3234f0328380a380f35b634e487b7160e01b9052602160045260a051602490fd5b60405163466d7fef60e01b8152600490fd5b346103c35760803660031901126103c3576004356001600160401b0381116103c35761091c9036906004016137fa565b906080526024356001600160401b0381116103c35761093f9036906004016137fa565b6044929192356001600160401b0381116103c3576109619036906004016137fa565b9390916064356001600160401b0381116103c3576109839036906004016137fa565b91909261098e613af4565b818614801590610db1575b8015610da7575b6107895760a0515b8681106109b55760a05180f35b60059060805181831b81013590601e19813603018212156103c35701916001600160401b038335116103c3578235901b360360208301136103c3576109fb81858561462e565b35610a07828b8a61462e565b3560028110156103c357610a1c83888a61462e565b3560028110156103c35760028535108015610d9c575b610d8a57843515610d7257610a496020860161463e565b85355f19810111610d24576001600160a01b03610a726106ae88355f1981019060208b0161462e565b166001600160a01b0390911603610d60576001600160a01b03610a9483613901565b541615610617576001600160a01b03610aac82613901565b5416156106175760a0515b85358110610c2e5750601e9283549060405190610ad38261398e565b828252610ae536893560208b01613a17565b926020830193845260408301918252610b02606084019687614051565b610b10608084019586614051565b60a05152601d60205260a05160408120925183556001830193518051916001600160401b038311610c175750602090610b498387614652565b019360a0515260a0519360208520855b838110610bfa5750505050906003915160028201550192519060028210156108c35750610b869083614699565b516002811015610be257610bdd94610ba3602092610bd6946146b1565b7f43afc9e063beaea4354ec60d8bc6c76e9ba2376ca51443fc69a6efd689a7282a845492839260405190358152a2613b86565b9055613b86565b6109a8565b634e487b7160e01b60a051526021600452602460a051fd5b82516001600160a01b031681830155602090920191600101610b59565b634e487b7160e01b9052604160045260a051602490fd5b6001600160a01b03610c486106ae83893560208b0161462e565b1615610d4e57610c80610c636106ae83893560208b0161462e565b6001600160a01b03165f9081526002602052604090205460ff1690565b15610d3c576001808201808311610d2457815b610ca8575b5050610ca390613b86565b610ab7565b87355f19810111610d245787355f1901811015610d1f57610cd16106ae848a3560208c0161462e565b6001600160a01b03610ceb6106ae848c3560208e0161462e565b6001600160a01b03909216911614610d0d57610d078291613b86565b90610c93565b6040516313721e6160e11b8152600490fd5b610c98565b634e487b7160e01b60a051526011600452602460a051fd5b60405163350b944160e11b8152600490fd5b604051630f58058360e11b8152600490fd5b604051630b6e9e5760e21b8152600490fd5b634e487b7160e01b60a051526032600452602460a051fd5b6040516366b045ff60e11b8152600490fd5b506004853511610a32565b50828714156109a0565b5086821415610999565b346103c35760a051806003193601126103c0576020601954604051908152f35b346103c35760a051806003193601126103c0576020600f54604051908152f35b346103c35760403660031901126103c357600435601e548082101561042257610e2660243583613bc5565b90808211610f35575b50610e3a8282613b65565b91610e4483613a00565b92610e5260405194856139df565b808452610e61601f1991613a00565b0160a0515b818110610f1e575050805b828110610ed857604080516020808252865181830181905260a05193600582901b8401810192808a01929185015b828710610eac5785850386f35b909192938280610ec8600193603f198a82030186528851613a75565b9601920196019592919092610e9f565b80610f199160a05152601d602052610f13604060a05120610f02610efc8685613b65565b9161405d565b610f0c8289613b51565b5286613b51565b50613b86565b610e71565b602090610f296146d0565b82828801015201610e66565b905082610e2f565b346103c35760a051806003193601126103c0576020601254604051908152f35b346103c35760203660031901126103c3577f6caf0e5993e373a80d1b08933a3a855a50eee41ccefc3425f05585826346ce376020600435610f9c613af4565b80601955604051908152a160a05180f35b346103c35760203660031901126103c3576004356001600160a01b038116908190036103c357610fdb613af4565b8015610ffa576001600160601b0360a01b601f541617601f5560a05180f35b60405162820f3560e61b8152600490fd5b346103c35760a051806003193601126103c0576020600e54604051908152f35b346103c35760a051806003193601126103c0576020600d54604051908152f35b346103c35760a051806003193601126103c0576020601e54604051908152f35b346103c35760a051806003193601126103c057600a546040516001600160a01b039091168152602090f35b346103c35760203660031901126103c35760206001600160a01b03806110ba61382e565b1660a0515260048252604060a051205416604051908152f35b346103c35760203660031901126103c3576004356110ef613af4565b801561112a576020817f8a9aad99416bc5cf8e5e14f71aeb446c6c1cdcfb18998ac5c680c5f25ec3162992601855604051908152a160a05180f35b60405163162908e360e11b8152600490fd5b346103c35760803660031901126103c3576004356001600160401b0381116103c357366023820112156103c35761117d903690602481600401359101613a17565b6044359060028210156103c35760643560028110156103c3576040516111a28161395e565b60a051815260a051602082015260a051604082015260a051606082015260a051608082015260a05160a082015260a05160c082015260a05160e082015260a05161010082015261012060a051910152815160028110908115611937575b50610d8a576024351561112a5760185460243511611925576001600160a01b03908161122a84613b20565b511683515f198101908111610d2457611244849186613b51565b511603610d605760a0515b83518110156112aa57826112638286613b51565b511615610d4e57611297836112788387613b51565b51166001600160a01b03165f9081526002602052604090205460ff1690565b15610d3c576112a590613b86565b61124f565b508284836112b783613b20565b51169082515f198101908111610d24576112e192866112d96024359387613b51565b511690613bd2565b9182156119135781515f19810191908211610d245783856113056113119486613b51565b5116866112d986613b20565b928315611913578061132283613b20565b511682515f198101908111610d245761133c839185613b51565b51169160405161134b816139a9565b60a051815260a051602082015260a0516040820152606060a0519101528160a05152600360205280604060a05120541615611901578260a05152600360205280604060a05120541615611901578160049260a05152600360205260a051938083604087205416955260a083604082512054169560405195868092633fabe5a360e21b82525afa9384156118525760049560a0519182966118d8575b5060a09060405197888092633fabe5a360e21b82525afa9384156118525760a0519687956118ae575b5060a051808313908115916118a3575b506117fd5761142e8642613b65565b60105480911161189157806114438742613b65565b116118915760ff601c5460101c166116ef575b505061146b9261146591613ef5565b94613ef5565b670de0b6b3a764000090818502858104831486151715610d24578161148f91613ba7565b908083810204831481151715610d24576114f2956114e7936114b19202613ba7565b90604051946114bf866139a9565b818652602086019483865264ffffffffff809216604088015216606086015287602435613f80565b519051908585613f80565b51916002831080156116e5575b610d8a575f198301928311610d2457620186a09280840293840403610d245762061a80928301809311610d2457633b9aca00611550612710611545601654602435613b94565b049460175490613b94565b0492612710611563601454602435613b94565b0493612710611576601554602435613b94565b049461158f8661158a8361158a8688613bc5565b613bc5565b9560a05160243586115f146116df57506115ab60243586613b65565b915b60a0518884106116d957506115c28884613b65565b935b8415159586611694575b9161014099939187969593610120999897611687575b604051986115f18a61395e565b8b8a5260208a015260408901526060880152608087015260a086015260c085015260e08401526101008301521515828201526040519283526020810151602084015260408101516040840152606081015160608401526080810151608084015260a081015160a084015260c081015160c084015260e081015160e084015261010081015161010084015201511515610120820152f35b60195487101597506115e4565b94939196955097916127108402968488046127101485151715610d2457610140996116c56101209960243590613ba7565b600c541115979850919399509193946115ce565b936115c4565b916115ad565b50600483116114ff565b8460a05152600460205260a0519184816040852054169352604060a0512054169180151580611888575b611724575b50611456565b9060a060049260405193848092633fabe5a360e21b82525afa80156118525760049360a05193849261185f575b5060a09060405195868092633fabe5a360e21b82525afa9081156118525760a051948592611819575b5060a0518085139081159161180e575b506117fd5761179a839142613b65565b116117eb576117a99042613b65565b116117eb576117bb6117c29184613feb565b9188613feb565b6012548092116117d957116117d95789808061171e565b6040516316977b9560e01b8152600490fd5b6040516307abdc0f60e11b8152600490fd5b60405162fc7cad60e51b8152600490fd5b90508513158f61178a565b90945061183e915060a03d60a01161184b575b61183681836139df565b810190613eb2565b509592505093908e61177a565b503d61182c565b6040513d60a051823e3d90fd5b60a080955061187b9293503d861161184b5761183681836139df565b5095925050939190611751565b50821515611719565b604051631087e10960e01b8152600490fd5b90508713158b61141f565b9094506118cb91965060a03d60a01161184b5761183681836139df565b509792505095938a61140f565b6118f491965060a08093503d841161184b5761183681836139df565b50939250509195906113e6565b60405163fb94c4ed60e01b8152600490fd5b604051633892062760e11b8152600490fd5b60405163499e798560e01b8152600490fd5b6004915011846111ff565b346103c35760603660031901126103c357604435602435600435611964613af4565b801561112a576127108083116119c25783116119c2577fc4ba1d97bc3b0f4500ed11cd963f8e6d5f9f47ad9e7e42160e8167e607859c929260609282601055806011558160125560405192835260208301526040820152a160a05180f35b60405163c6cc5d7f60e01b8152600490fd5b346103c35760a051806003193601126103c057602060ff601c5460181c166040519015158152f35b346103c35760403660031901126103c357611a1561382e565b611a1d613869565b90611a26613af4565b6001600160a01b03169081156107775760207f4e64f955f4c1a97a6779d936a2fe8f59e1674f3e1a4c883736b9131969860a89918360a0515260028252611a7e81604060a051209060ff801983541691151516179055565b6040519015158152a260a05180f35b346103c35760203660031901126103c35760206001600160a01b0380611ab161382e565b1660a0515260038252604060a051205416604051908152f35b346103c357611ad83661392f565b611ae0613af4565b6001600160a01b03168015611b3c57611af882613918565b80546001600160a01b031916821790556002821015610be25760a051917f57192f60821083a491842d60a388a6427b0b757e252dca6e02933c473a93cee48380a380f35b60405163c3a9778760e01b8152600490fd5b346103c35760a051806003193601126103c0576020601b54604051908152f35b346103c35760203660031901126103c35760043590611b8b613af4565b601e549081831015610422575f1991808301908111610d2457808403611c63575b50601e54828101908111610d245760a05152601d60205260a051809160408220908282556001908183019081549181815582611c43575b505050508082600260039301550155601e54908115611c2c575001601e5560a051907fb951847f829979e971d5ce4c1f1b122a2e98f1d0c39e395aaebff750da9f86bf8280a280f35b634e487b7160e01b9052601160045260a051602490fd5b815260208120918201915b82811015611be3578181558695508301611c4e565b60a05152601d60205260a05183604082209152604060a0512090808203611c9f575b50508260a05152601d60205282604060a051205583611bac565b60ff600380611ce19484548155611cbc60018601600183016146fb565b60028501546002820155019201611cd68282541684614699565b5460081c16906146b1565b8380611c85565b346103c35760403660031901126103c357611d0161382e565b611d09613844565b90611d12613af4565b6001600160a01b03908116918215611d745716801561077757806001600160601b0360a01b8381600a541617600a55600b541617600b5560a051917ffcfcedfafa92882def30b16e239a0c0512fd0cb251876b2709be862356873e898380a380f35b604051633b136dc160e11b8152600490fd5b346103c35760403660031901126103c357611d9f61382e565b611da7613869565b90611db0613af4565b6001600160a01b03169081156108da5760207fcf2b36bf2aa8353623d06f58eab9577176d9214e588362c013a7eeb0586463f1918360a0515260088252611a7e81604060a051209060ff801983541691151516179055565b346103c35760203660031901126103c3576001600160a01b03611e2961382e565b1660a051526005602052602060ff604060a051205416604051908152f35b346103c35760a051806003193601126103c0576001546040516001600160a01b039091168152602090f35b346103c35760a051806003193601126103c0576020601154604051908152f35b346103c35760a051806003193601126103c057601f546040516001600160a01b039091168152602090f35b346103c35760203660031901126103c3577fea86e89cf5fba25d3b8f536e16c9354e32e76ba51d17e76899351a91f64f945d6020611ef961385a565b611f01613af4565b1515601c5461ff008260081b169061ff00191617601c55604051908152a160a05180f35b346103c35760203660031901126103c3577f16afae5b6ef5f079dc6a18d4ae705f5d2db0fc0831b74dee550d9fc0f80eb5dd6020611f6161385a565b611f69613af4565b151560ff19601c541660ff821617601c55604051908152a160a05180f35b346103c35760a03660031901126103c35760246001600160401b0381358181116103c357611fb99036906004016137fa565b606492919235600294858210156103c357608435868110156103c357611fdd613af4565b86841080156122a3575b610d8a57601e54956004359687101561042257841561228c576120098161463e565b905f1986018681119081612275576001600160a01b039384806120306106ae858d8961462e565b16911603610d60578361204288613901565b541615610617578361205386613901565b5416156106175760a0515b8881106121bf57505050612083604051916120788361398e565b898352873691613a17565b96602097888301908152604083019160443583526120a5606085019889614051565b6120b3608085019687614051565b8a60a05152601d8a5260a05191604083209451855560019283860191519081519384116121a957508b906120e78484614652565b019060a0515260a051958b872090875b8d858210612195575050505050505090600391518a820155019351908882101561217f57506121269084614699565b519586101561216957507f43afc9e063beaea4354ec60d8bc6c76e9ba2376ca51443fc69a6efd689a7282a939461215c916146b1565b604051908152a260a05180f35b60a08051634e487b7160e01b9052602160045251fd5b634e487b7160e01b9052602160045260a0518390fd5b9086918386511695019481850155016120f7565b634e487b7160e01b9052604160045260a0518990fd5b846121ce6106ae838c8861462e565b1615610d4e576121e5610c636106ae838c8861462e565b15610d3c57600180820180831161225e5784825b61220f575b50505061220a90613b86565b61205e565b61225e578a8787868410156122555761223b6106ae856122346106ae8a88889761462e565b958c61462e565b16911614610d0d5761224d8291613b86565b9085906121f9565b505050846121fe565b88634e487b7160e01b60a05152601160045260a051fd5b85634e487b7160e01b60a05152601160045260a051fd5b82634e487b7160e01b60a05152603260045260a051fd5b5060048411611fe7565b346103c35760203660031901126103c35760206122d06122cb61382e565b614770565b60ff60405191168152f35b346103c35760203660031901126103c35760043560028110156103c3576020906001600160a01b039061065b90613901565b346103c35760403660031901126103c35761232661382e565b61232e613844565b90612337613af4565b6001600160a01b03908116918215610777571680156107655760a080518390526003602052516040812080546001600160a01b03191683179055917fd2d8394cf7549a5ddbc2ba3dd7b2de8d53c891472d1f2907008ed6a10045fdae8380a380f35b346103c35760203660031901126103c35760206123b7610c6361382e565b6040519015158152f35b346103c35760a051806003193601126103c0576020601854604051908152f35b346103c35760203660031901126103c35760043560a05152601d6020526080604060a05120612442815491600360028201549101549060405193845260208401526124326040840160ff83166138e0565b60ff606084019160081c166138e0565bf35b346103c35760a051806003193601126103c05750612460613af4565b600180546001600160a01b031981169091556001600160a01b03167f8be0079c531659141344cd1fd0a4f28419497f9722a3daafe3b4186f6b6457e08280a360a05180f35b346103c3576020806003193601126103c3576124bf61382e565b906124c8613af4565b6001600160a01b03918216928315610777576040516370a0823160e01b81523060048201528281602481885afa9182156118525760a0519261253d575b505080156108225761215c817f23d6711a1d031134a36921253c75aa59e967d38e369ac625992824315e204f2094600154168661415b565b9091508282813d8311612566575b61255581836139df565b810103126103c05750518480612505565b503d61254b565b346103c35761257b366138c2565b9290612585613af4565b6127108083116119c2578084116119c25781116119c257831561112a577f48cd2c7b7b236a850d5216488fe784fb3b0f4647df68795df7b66bcfcbfbffde936125fb9183601455846015558060165581601755604051948594859094939260609260808301968352602083015260408201520152565b0390a160a05180f35b346103c35760a051806003193601126103c057602060ff601c5460081c166040519015158152f35b346103c35760203660031901126103c3576001600160a01b0361264d61382e565b1660a051526002602052602060ff604060a0512054166040519015158152f35b346103c35761267b366138c2565b9290612685613af4565b6127108083116119c25783116119c257801561112a57831561112a577f5d3c7b528485e17fe0314971648177a48225c729bb2270e5426ad03876eb0889936125fb9183600c5584600d5580600e5581600f55604051948594859094939260609260808301968352602083015260408201520152565b346103c35760a051806003193601126103c057602060ff601c5460101c166040519015158152f35b346103c35760403660031901126103c35761273b61382e565b6024359060ff82168092036103c357612752613af4565b6001600160a01b03169081156107775760207f30adbaf26412995f345016c0844d56d7a715a5bd3b66bcf2aaae58185d0ee0a8918360a0515260058252604060a051208160ff19825416179055604051908152a260a05180f35b346103c35760a051806003193601126103c0576020601654604051908152f35b346103c35760a051806003193601126103c0576020601554604051908152f35b346103c35760a051806003193601126103c0576020601454604051908152f35b346103c35760203660031901126103c357600435612828613af4565b6113888111612866576020817f3e92c8431d3aa0c589ff26250dd58a7a032b87a26ddb0e2a1dcb0c218dfa792892601b55604051908152a160a05180f35b6040516397dce8a760e01b8152600490fd5b346103c35760a051806003193601126103c057600b546040516001600160a01b039091168152602090f35b346103c35760403660031901126103c3576128bc61382e565b6128c4613844565b906128cd613af4565b6001600160a01b03908116918215610777571680156107655760a080518390526004602052516040812080546001600160a01b03191683179055917f0cfc624d946910f5098c5542f9fcfb7eb053a75ebd62a97a7bdae8ccb27d7d088380a380f35b346103c35760a051806003193601126103c057601a546040516001600160a01b039091168152602090f35b346103c35760a051806003193601126103c0576020600c54604051908152f35b346103c35761298836613878565b612993939293613af4565b8084036107895760a0515b8481106129ab5760a05180f35b6001600160a01b0390816129c36106ae83898961462e565b161561077757612a64917f4e64f955f4c1a97a6779d936a2fe8f59e1674f3e1a4c883736b9131969860a89612a016129fc84878961462e565b614763565b82612a106106ae868c8c61462e565b1660a05152612a3660209160028352604060a051209060ff801983541691151516179055565b612a446106ae858b8b61462e565b92612a536129fc86898b61462e565b9360405194151585521692a2613b86565b61299e565b346103c35760a051806003193601126103c057602062ffffff60135416604051908152f35b346103c35760203660031901126103c3576004356001600160a01b038116908190036103c357612abc613af4565b8015611d74576001600160601b0360a01b600a541617600a5560a05180f35b346103c35760203660031901126103c357612af461382e565b612afc613af4565b6001600160a01b03168015612b4857601a80546001600160a01b0319168217905560a051907feee59a71c694e68368a1cb0d135c448051bbfb12289e6c2223b0ceb100c2321d8280a280f35b604051631559b7d760e21b8152600490fd5b346103c35760a03660031901126103c357612b7361382e565b90602480356064359360018060a01b0390818616809603612f9857608435956001600160401b038088116103c357366023890112156103c35787600401359081116103c35787019036868301116103c357612bcc614107565b83601f54163303612f86573003612f745760ff601c5460181c16612f62578660409103126103c357604484870135960135948515958615036103c05750601e54861015610422578560a05152602095601d8752612c2d604060a0512061405d565b90878201600281515110612f50575a96612c49600e5442613bc5565b91516060850151916002831015612169576080860151916002831015612f3957600d5493815160028110908115612f2e575b50610d8a578a1561112a5789612c9083613b20565b5116908251915f199283810190811161227557612cbe928e8a938f612cb68c958a613b51565b5116906141fc565b928315612f06578251918201918211612f1857509089612cb681612ce9612cf1999897969585613b51565b511692613b20565b948515612f0657612d0460443582613bc5565b95868110612ef457612d1887604092613b65565b9301518310612ee2576127109182612d32600c5484613b94565b048410612ee2576019548410612ed057612daa98612d528b995a90613b65565b90612e85575b50505083601a54169182151580612e7c575b612e1f575b5050601f5460405163095ea7b360e01b81529084166001600160a01b0316600482015260248101949094525091938492839182906044820190565b039260a05191165af19081156118525760a05191612dea575b5015612dd857600160a0515560405160018152f35b6040516340b27c2160e11b8152600490fd5b90508181813d8311612e18575b612e0181836139df565b810103126103c357612e12906140fa565b82612dc3565b503d612df7565b601b54612e2b91613b94565b049081612e39575b80612d6f565b81612e469185851661415b565b7ffa37b5e8ddad169e37000eda5f29f2d1b34e92f95c9327fc7d39ba2e8b8d826f8584601a541692604051908152a28680612e33565b50801515612d6a565b60408051938452602084018690528301919091526060820152848416907f89a09201a027c60f41c5ba11894aa08a9f73b7b905d773646add4b4f4909bd8390608090a2888080612d58565b6040516366d786f960e01b8152600490fd5b6040516362ee2e6160e11b8152600490fd5b60405163bb2875c360e01b8152600490fd5b60405163081ceff360e41b8152600490fd5b60a08051634e487b7160e01b9052601160045251fd5b60049150118f612c7b565b5060a08051634e487b7160e01b9052602160045251fd5b604051635640cba960e01b8152600490fd5b60405163ab35696f60e01b8152600490fd5b6040516317fb43e560e31b8152600490fd5b604051635c427cd960e01b8152600490fd5b8480fd5b346103c35760203660031901126103c3577f9e3a5e37224532dea67b89face185703738a228a6e8a23dee546960180d3be646020612fd861385a565b612fe0613af4565b1515601c5463ff0000008260181b169063ff000000191617601c55604051908152a160a05180f35b346103c35760803660031901126103c3576001600160401b036004358181116103c3576130399036906004016137fa565b6002929160443590848210156103c35760643590858210156103c35761305d613af4565b8584108015613293575b610d8a578315610d725761307a8161463e565b905f1985018581119081610d24576001600160a01b039384806130a16106ae858c8961462e565b16911603610d6057836130b387613901565b54161561061757836130c486613901565b5416156106175760a0515b8781106131fb57505050601e546130f7604051926130ec8461398e565b828452873691613a17565b60209788840191825260408401926024358452613118606086019889614051565b613126608086019788614051565b60a05152601d895260a0519160408320945185556001928386019151908151938411610c1757508a906131598484614652565b019060a0515260a051958a872090875b8481106131e85750505050505090600391518882015501925190868210156108c357506131969083614699565b5193841015610be2576131df936131ac916146b1565b7f43afc9e063beaea4354ec60d8bc6c76e9ba2376ca51443fc69a6efd689a7282a601e54928392604051908152a2613b86565b601e5560a05180f35b8351821683820155928c01928501613169565b8461320a6106ae838b8861462e565b1615610d4e57613221610c636106ae838b8861462e565b15610d3c576001808201808311610d245784825b61324b575b50505061324690613b86565b6130cf565b610d24578987878684101561328a576132706106ae856122346106ae8a88889761462e565b16911614610d0d576132828291613b86565b908590613235565b5050508461323a565b5060048411613067565b346103c35760203660031901126103c3576001600160a01b036132be61382e565b1660a051526008602052602060ff604060a0512054166040519015158152f35b346103c35760803660031901126103c3576132f761382e565b602480359160443592606435918215158093036103c357613316614107565b61331e613af4565b601c549260ff8460181c16612f62576001600160a01b0391821695861561360c57831561112a57601854841161192557601e54811015610422578660a051526020946002865260ff604060a05120541615610d3c5760081c60ff1661345f575b867f4de4e5710a82e29aa0540f39a91f17d0091e7251ba18403d8034555fa03168ef604080518781528489820152a2604051948501526040840152604083526133c6836139c4565b601f5416803b156103c35761340994604051958694859485936310ac2ddf60e21b855230600486015288850152604484015260a0606484015260a483019061452d565b60a051608483015260a05194859103925af1801561185257613430575b60a0516001815580f35b6001600160401b03821161344957506040528080613426565b60a08051634e487b7160e01b9052604160045251fd5b8060a05152601d8552613476604060a0512061405d565b858101519060608101519060028210156135f5576080015160028110156135f55760405163b3eeb62160e01b815260806004820152928392916134df916134d5906134c5906084870190613d38565b938a8d87015260448601906138e0565b60648401906138e0565b81610140938492038160a051305af19182156118525760a05192613556575b5050610120810151156135445760406101007f2d8c7de9d14f5d83e30045e1c848465afdd57594f3e9fc21ca0c5ed3fc339f1d92015181519084825288820152a161337e565b604051632dd61d5b60e01b8152600490fd5b90809250813d83116135ee575b61356d81836139df565b810103126103c357604051906135828261395e565b80518252868101518783015260408101516040830152606081015160608301526080810151608083015260a081015160a083015260c081015160c083015260e081015160e083015261010080820151908301526135e36101208092016140fa565b9082015288806134fe565b503d613563565b88634e487b7160e01b60a05152602160045260a051fd5b604051636448d6e960e11b8152600490fd5b346103c35760a051806003193601126103c057602060ff601c54166040519015158152f35b346103c35760a051806003193601126103c0576020601054604051908152f35b346103c057602090816003193601126103c057600435906001600160401b0382116103c057506136979036906004016137fa565b906136a0613af4565b60a0515b82811061370b574784816136b9575b60a05180f35b60a0518080808560018060a01b03600154165af16136d561480c565b5015610810577f043f607a14d3b4f0a11a0b2e192bbfcd894298ba5abf22553be6081406db28aa91604051908152a180806136b3565b6024906001600160a01b0385816137266106ae85898961462e565b16604051948580926370a0823160e01b82523060048301525afa9081156118525760a051916137c9575b61376493508682613769575b505050613b86565b6136a4565b816137aa847f23d6711a1d031134a36921253c75aa59e967d38e369ac625992824315e204f209461379e6106ae898d8d61462e565b1683600154169061415b565b6137b86106ae868a8a61462e565b1692604051908152a285808661375c565b90508583813d83116137f3575b6137e081836139df565b810103126103c357613764925190613750565b503d6137d6565b9181601f8401121561382a578235916001600160401b03831161382a576020808501948460051b01011161382a57565b5f80fd5b600435906001600160a01b038216820361382a57565b602435906001600160a01b038216820361382a57565b60043590811515820361382a57565b60243590811515820361382a57565b604060031982011261382a576001600160401b039160043583811161382a57826138a4916004016137fa565b9390939260243591821161382a576138be916004016137fa565b9091565b608090600319011261382a5760043590602435906044359060643590565b9060028210156138ed5752565b634e487b7160e01b5f52602160045260245ffd5b60028110156138ed575f52600660205260405f2090565b60028110156138ed575f52600760205260405f2090565b604090600319011261382a57600435600281101561382a57906024356001600160a01b038116810361382a5790565b61014081019081106001600160401b0382111761397a57604052565b634e487b7160e01b5f52604160045260245ffd5b60a081019081106001600160401b0382111761397a57604052565b608081019081106001600160401b0382111761397a57604052565b606081019081106001600160401b0382111761397a57604052565b90601f801991011681019081106001600160401b0382111761397a57604052565b6001600160401b03811161397a5760051b60200190565b9291613a2282613a00565b91613a3060405193846139df565b829481845260208094019160051b810192831161382a57905b828210613a565750505050565b81356001600160a01b038116810361382a578152908301908301613a49565b9060a0810191805182526020808201519360a08285015284518091528160c085019501915f5b828110613ad7575050505090608080836040613ad49501516040850152613aca606082015160608601906138e0565b01519101906138e0565b90565b83516001600160a01b031687529581019592810192600101613a9b565b6001546001600160a01b03163303613b0857565b60405163118cdaa760e01b8152336004820152602490fd5b805115613b2d5760200190565b634e487b7160e01b5f52603260045260245ffd5b805160011015613b2d5760400190565b8051821015613b2d5760209160051b010190565b91908203918211613b7257565b634e487b7160e01b5f52601160045260245ffd5b5f198114613b725760010190565b81810292918115918404141715613b7257565b8115613bb1570490565b634e487b7160e01b5f52601260045260245ffd5b91908201809211613b7257565b9260028110156138ed57613be957613ad492613bf2565b613ad492613d74565b5f80805260076020527f6d5257204ebe7d88fd91ae87941cb2dd9d8062b64ae5a2bd2d28ec40b9fbf6df549093916001600160a01b03918216908115610617578560a49260209562ffffff6013541686604051998a98899763f7729d4360e01b8952166004880152166024860152604485015260648401528160848401525af1829181613c88575b50613c83575090565b905090565b9091506020813d8211613cb7575b81613ca3602093836139df565b81010312613cb35751905f613c7a565b8280fd5b3d9150613c96565b602090818184031261382a578051906001600160401b03821161382a57019180601f8401121561382a578251613cf481613a00565b93613d0260405195866139df565b818552838086019260051b82010192831161382a578301905b828210613d29575050505090565b81518152908301908301613d1b565b9081518082526020808093019301915f5b828110613d57575050505090565b83516001600160a01b031685529381019392810192600101613d49565b60015f90815260066020527f3e5fec24aa4dc4e5aee2e025e51e1392c72a2500577559fae9665c6d52bd6a315490949391926001600160a01b03918216926040929091908415613e8a57918391889593613e2197955195613dd4876139c4565b600287528436602089013781613de988613b20565b91169052613df686613b41565b9116905281519586948593849363d06ca61f60e01b8552600485015260248401526044830190613d38565b03915afa839181613e66575b50613e355750565b80515f19810191908211613e5257613e4e929350613b51565b5190565b634e487b7160e01b84526011600452602484fd5b613e839192503d8086833e613e7b81836139df565b810190613cbf565b905f613e2d565b8351632a4251f760e21b8152600490fd5b519069ffffffffffffffffffff8216820361382a57565b908160a091031261382a57613ec681613e9b565b91602082015191604081015191613ad4608060608401519301613e9b565b60ff16604d8111613b7257600a0a90565b6001600160a01b039091165f9081526005602052604081205460ff168015613f78575b60ff1660128110613f5857601119019060ff8211613f44575090613f3e613ad492613ee4565b90613ba7565b634e487b7160e01b81526011600452602490fd5b6012039060ff8211613f44575090613f72613ad492613ee4565b90613b94565b506012613f18565b90811561112a57801561112a57670de0b6b3a7640000918282029182048303613b7257613fac91613ba7565b91818102918183041490151715613b7257613fcf92613fca91613ba7565b613feb565b60115410613fd957565b6040516369e2517960e11b8152600490fd5b80158015614049575b6117fd578181119182156140395761400c8183613b65565b925b1561403257505b61271091828102928184041490151715613b7257613ad491613ba7565b9050614015565b6140438282613b65565b9261400e565b508115613ff4565b60028210156138ed5752565b9060405161406a8161398e565b80928054825260018082016040519081928154908184526020809401925f52835f20915f5b8181106140de57505050506140dc94938360ff936140b360809660039503836139df565b8601526002810154604086015201546140d182821660608601614051565b60081c169101614051565b565b83546001600160a01b031685529385019392820192820161408f565b5190811515820361382a57565b60025f54146141165760025f55565b60405162461bcd60e51b815260206004820152601f60248201527f5265656e7472616e637947756172643a207265656e7472616e742063616c6c006044820152606490fd5b60405163a9059cbb60e01b60208201526001600160a01b039290921660248301526044808301939093529181526140dc916141976064836139df565b905f602091828151910182855af1156141f1575f513d6141e857506001600160a01b0381163b155b6141c65750565b604051635274afe760e01b81526001600160a01b039091166004820152602490fd5b600114156141bf565b6040513d5f823e3d90fd5b9294939491909160028110156138ed576143b0575f928380526020926006845260018060a01b039260409784898820541693841561439f578488526008875260ff8a892054161561438e57614254838688841661456b565b601354938a51946001600160601b0319809360601b168987015262ffffff60e81b9060e81b16603486015260601b166037840152602b8352614295836139c4565b61271090810381811161437a57928288926142b68998979661430b96613b94565b048b51926142c38461398e565b8352878301913083528c84019b8c5260608401908152608084019182528c519b8c988997889663c04b8d5960e01b88528c60048901525160a0602489015260c488019061452d565b94511660448601525160648501525160848401525160a483015203925af193841561436f5750819361433e575b50505090565b9091809350813d8311614368575b61435681836139df565b810103126103c05750515f8080614338565b503d61434c565b51913d9150823e3d90fd5b634e487b7160e01b88526011600452602488fd5b8951635bb5845760e11b8152600490fd5b8951632a4251f760e21b8152600490fd5b60015f90815260066020527f3e5fec24aa4dc4e5aee2e025e51e1392c72a2500577559fae9665c6d52bd6a31549096956040956001600160a01b039592861694909392851561451c57858a52600860205260ff888b2054161561450b5786169561441b84878961456b565b875196614427886139c4565b60028852883660208a013761443b88613b20565b5261444587613b41565b911690526127109081038181116144f7578261449b96949261446b8b9795938894613b94565b04928851978896879586946338ed173960e01b86526004860152602485015260a0604485015260a4840190613d38565b90306064840152608483015203925af19182156144ee575083916144d4575b5080515f19810191908211613e5257613e4e929350613b51565b6144e891503d8085833e613e7b81836139df565b5f6144ba565b513d85823e3d90fd5b634e487b7160e01b89526011600452602489fd5b8751635bb5845760e11b8152600490fd5b8751632a4251f760e21b8152600490fd5b91908251928382525f5b848110614557575050825f602080949584010152601f8019910116010190565b602081830181015184830182015201614537565b60405163095ea7b360e01b60208083018281526001600160a01b038616602485015260448085019790975295835290949193915f906145ab6064876139df565b85519082865af15f513d82614609575b5050156145c9575b50505050565b614600936141979160405191602083015260018060a01b031660248201525f6044820152604481526145fa816139a9565b82614197565b5f8080806145c3565b90915061462657506001600160a01b0382163b15155b5f806145bb565b60011461461f565b9190811015613b2d5760051b0190565b356001600160a01b038116810361382a5790565b68010000000000000000821161397a5780549180825582811061467457505050565b5f9182526020822092830192015b82811061468e57505050565b818155600101614682565b9060028110156138ed5760ff80198354169116179055565b9060028110156138ed5761ff0082549160081b169061ff001916179055565b604051906146dd8261398e565b5f608083828152606060208201528260408201528260608201520152565b81811461475f578154916001600160401b03831161397a5761471d8383614652565b5f5260205f20905f5260205f208154915f925b84841061473e575050505050565b600191820180546001600160a01b0390921684860155939091019290614730565b5050565b35801515810361382a5790565b6001600160a01b03165f8181526005602052604081205460ff1691821561479657505090565b60405163313ce56760e01b8152919250602090829060049082905afa908290826147c7575b5050613ad45750601290565b909192506020813d8211614804575b816147e3602093836139df565b8101031261480057519060ff821682036103c05750905f806147bb565b5080fd5b3d91506147d6565b3d15614845573d906001600160401b03821161397a576040519161483a601f8201601f1916602001846139df565b82523d5f602084013e565b60609056fea2646970667358221220d627883aca167e7bf480c6a89386ced33eece14753595586be3668ff461eb23a64736f6c63430008140033",
			"opcodes": "PUSH1 0x80 PUSH1 0x40 DUP2 DUP2 MSTORE CALLVALUE PUSH2 0x24B JUMPI PUSH1 0x1 PUSH0 SWAP3 DUP2 DUP5 SSTORE CALLER ISZERO PUSH2 0x235 JUMPI POP DUP1 SLOAD PUSH1 0x1 PUSH1 0x1 PUSH1 0xA0 SHL SUB NOT DUP1 DUP3 AND CALLER SWAP1 DUP2 OR DUP5 SSTORE PUSH1 0x1 PUSH1 0x1 PUSH1 0xA0 SHL SUB SWAP4 PUSH20 0xCF714F4C2932FF5148651FF8A3A91AF69CF9ADE3 SWAP4 SWAP1 SWAP2 SWAP1 DUP6 AND PUSH32 0x8BE0079C531659141344CD1FD0A4F28419497F9722A3DAAFE3B4186F6B6457E0 DUP9 DUP1 LOG3 PUSH1 0x64 PUSH1 0xC SSTORE PUSH2 0x12C DUP1 PUSH1 0xD SSTORE PUSH1 0x5A PUSH1 0xE SSTORE PUSH3 0x7A120 PUSH1 0xF SSTORE PUSH1 0x10 SSTORE PUSH2 0x320 PUSH1 0x11 SSTORE PUSH2 0x4B0 PUSH1 0x12 SSTORE PUSH2 0xBB8 PUSH3 0xFFFFFF NOT PUSH1 0x13 SLOAD AND OR PUSH1 0x13 SSTORE PUSH1 0xA PUSH1 0x14 SSTORE PUSH1 0x32 PUSH1 0x15 SSTORE PUSH1 0x9 PUSH1 0x16 SSTORE PUSH5 0xBA43B7400 PUSH1 0x17 SSTORE PUSH10 0x21E19E0C9BAB2400000 PUSH1 0x18 SSTORE DUP6 PUSH1 0x19 SSTORE PUSH2 0x1388 PUSH1 0x1B SSTORE PUSH3 0x10101 PUSH4 0xFFFFFFFF NOT PUSH1 0x1C SLOAD AND OR PUSH1 0x1C SSTORE PUSH20 0x794A61358D6845594F94DC1DB02A252B5B4814AD DUP3 PUSH1 0x1F SLOAD AND OR PUSH1 0x1F SSTORE PUSH20 0xA97684EAD0E402DC232D5A977953DF7ECBAB3CDB DUP3 PUSH1 0xA SLOAD AND OR PUSH1 0xA SSTORE PUSH20 0xC02AAA39B223FE8D0A0E5C4F27EAD9083C756CC2 DUP3 PUSH1 0xB SLOAD AND OR PUSH1 0xB SSTORE DUP6 DUP1 MSTORE PUSH1 0x20 SWAP1 PUSH1 0x6 DUP3 MSTORE DUP6 DUP8 KECCAK256 PUSH20 0xE592427A0AECE92DE3EDEE1F18E0157C05861564 SWAP1 DUP2 DUP6 DUP3 SLOAD AND OR SWAP1 SSTORE PUSH1 0x7 DUP4 MSTORE DUP7 DUP9 KECCAK256 PUSH20 0x61FFE014BA17989E8A2D3BCCDA57B7A7FCD78F74 DUP6 DUP3 SLOAD AND OR SWAP1 SSTORE DUP8 MSTORE PUSH1 0x8 DUP3 MSTORE PUSH1 0x8 DUP7 DUP9 KECCAK256 SWAP3 PUSH1 0xFF NOT SWAP4 DUP4 DUP6 DUP3 SLOAD AND OR SWAP1 SSTORE DUP3 DUP10 MSTORE PUSH1 0x6 DUP2 MSTORE DUP8 DUP10 KECCAK256 PUSH20 0xD9E1CE17F2641F24AE57B168B3C7A5BA3DF4039 SWAP1 DUP2 DUP8 DUP3 SLOAD AND OR SWAP1 SSTORE PUSH1 0x7 DUP3 MSTORE DUP9 DUP11 KECCAK256 DUP7 DUP2 SLOAD AND SWAP1 SSTORE DUP10 MSTORE MSTORE DUP6 DUP8 KECCAK256 SWAP2 DUP3 SLOAD AND OR SWAP1 SSTORE PUSH1 0x1A SLOAD AND OR PUSH1 0x1A SSTORE PUSH32 0xFCFCEDFAFA92882DEF30B16E239A0C0512FD0CB251876B2709BE862356873E89 DUP2 PUSH1 0xA SLOAD AND SWAP2 PUSH1 0xB SLOAD AND SWAP3 MLOAD SWAP4 DUP1 LOG3 PUSH2 0x4880 SWAP1 DUP2 PUSH3 0x250 DUP3 CODECOPY RETURN JUMPDEST PUSH4 0x1E4FBDF7 PUSH1 0xE0 SHL DUP2 MSTORE PUSH1 0x4 DUP2 ADD DUP5 SWAP1 MSTORE PUSH1 0x24 SWAP1 REVERT JUMPDEST PUSH0 DUP1 REVERT INVALID PUSH1 0xC0 PUSH1 0x40 MSTORE PUSH1 0x4 CALLDATASIZE LT ISZERO PUSH2 0x1A JUMPI JUMPDEST CALLDATASIZE ISZERO PUSH2 0x18 JUMPI PUSH0 DUP1 REVERT JUMPDEST STOP JUMPDEST PUSH0 DUP1 PUSH1 0xA0 MSTORE DUP1 CALLDATALOAD PUSH1 0xE0 SHR SWAP1 DUP2 PUSH4 0x33051C6 EQ PUSH2 0x3663 JUMPI DUP2 PUSH4 0x542975C EQ PUSH2 0x106B JUMPI DUP2 PUSH4 0x816C847 EQ PUSH2 0x3643 JUMPI DUP2 PUSH4 0xAEF023F EQ PUSH2 0x329D JUMPI DUP2 PUSH4 0xDBA22AF EQ PUSH2 0x361E JUMPI DUP2 PUSH4 0xEA62CB5 EQ PUSH2 0x32DE JUMPI DUP2 PUSH4 0xF874A13 EQ PUSH2 0x329D JUMPI DUP2 PUSH4 0xFEE470A EQ PUSH2 0x3008 JUMPI DUP2 PUSH4 0x16C38B3C EQ PUSH2 0x2F9C JUMPI DUP2 PUSH4 0x1B11D0FF EQ PUSH2 0x2B5A JUMPI DUP2 PUSH4 0x1C31F710 EQ PUSH2 0x2ADB JUMPI DUP2 PUSH4 0x219A9822 EQ PUSH2 0x2A8E JUMPI DUP2 PUSH4 0x2C49C9A3 EQ PUSH2 0x2A69 JUMPI DUP2 PUSH4 0x312A634D EQ PUSH2 0x297A JUMPI DUP2 PUSH4 0x32252057 EQ PUSH2 0x104B JUMPI DUP2 PUSH4 0x383AEEAE EQ PUSH2 0x295A JUMPI DUP2 PUSH4 0x38AF3EED EQ PUSH2 0x292F JUMPI DUP2 PUSH4 0x3D59B5F1 EQ PUSH2 0x28A3 JUMPI DUP2 PUSH4 0x3FC8CEF3 EQ PUSH2 0x2878 JUMPI DUP2 PUSH4 0x42D55497 EQ PUSH2 0x280C JUMPI DUP2 PUSH4 0x4E791437 EQ PUSH2 0x27EC JUMPI DUP2 PUSH4 0x5688B8EF EQ PUSH2 0x27CC JUMPI DUP2 PUSH4 0x56D8940F EQ PUSH2 0x27AC JUMPI DUP2 PUSH4 0x5B6CCA80 EQ PUSH2 0x1A8D JUMPI DUP2 PUSH4 0x5C975ABB EQ PUSH2 0x19D4 JUMPI DUP2 PUSH4 0x5CDCD8BB EQ PUSH2 0x2722 JUMPI DUP2 PUSH4 0x5FBAA51D EQ PUSH2 0x26FA JUMPI DUP2 PUSH4 0x68AAD172 EQ PUSH2 0x266D JUMPI DUP2 PUSH4 0x68C4AC26 EQ PUSH2 0x262C JUMPI DUP2 PUSH4 0x6AE26C99 EQ PUSH2 0x2604 JUMPI DUP2 PUSH4 0x6EE10175 EQ PUSH2 0x256D JUMPI DUP2 PUSH4 0x6FF1C9BC EQ PUSH2 0x24A5 JUMPI DUP2 PUSH4 0x715018A6 EQ PUSH2 0x2444 JUMPI DUP2 PUSH4 0x726F16D8 EQ PUSH2 0x23E1 JUMPI DUP2 PUSH4 0x72F94365 EQ PUSH2 0x23C1 JUMPI DUP2 PUSH4 0x75151B63 EQ PUSH2 0x2399 JUMPI DUP2 PUSH4 0x7535D246 EQ PUSH2 0x1E92 JUMPI DUP2 PUSH4 0x76E11286 EQ PUSH2 0x230D JUMPI DUP2 PUSH4 0x785B32F4 EQ PUSH2 0x22DB JUMPI DUP2 PUSH4 0x785C7CF6 EQ PUSH2 0x22AD JUMPI DUP2 PUSH4 0x79A73BBE EQ PUSH2 0x1F87 JUMPI DUP2 PUSH4 0x7AE85183 EQ PUSH2 0x1F25 JUMPI DUP2 PUSH4 0x84845FD4 EQ PUSH2 0x1EBD JUMPI DUP2 PUSH4 0x86A06FF0 EQ PUSH2 0x1E92 JUMPI DUP2 PUSH4 0x8A611D55 EQ PUSH2 0x1E72 JUMPI DUP2 PUSH4 0x8DA5CB5B EQ PUSH2 0x1E47 JUMPI DUP2 PUSH4 0x8EE573AC EQ PUSH2 0x1E08 JUMPI DUP2 PUSH4 0x8F3ED683 EQ PUSH2 0x1D86 JUMPI DUP2 PUSH4 0x90F73D3C EQ PUSH2 0x1CE8 JUMPI DUP2 PUSH4 0x9693C4A4 EQ PUSH2 0x1B6E JUMPI DUP2 PUSH4 0x96F62AC7 EQ PUSH2 0x629 JUMPI DUP2 PUSH4 0x97AD7E2A EQ PUSH2 0x1B4E JUMPI DUP2 PUSH4 0x9B0AFE6D EQ PUSH2 0x1ACA JUMPI DUP2 PUSH4 0x9DCB511A EQ PUSH2 0x1A8D JUMPI DUP2 PUSH4 0xA1836954 EQ PUSH2 0x19FC JUMPI DUP2 PUSH4 0xB187BD26 EQ PUSH2 0x19D4 JUMPI DUP2 PUSH4 0xB2BCCCDA EQ PUSH2 0x1942 JUMPI DUP2 PUSH4 0xB3EEB621 EQ PUSH2 0x113C JUMPI DUP2 PUSH4 0xB76E053B EQ PUSH2 0x10D3 JUMPI DUP2 PUSH4 0xB7E10191 EQ PUSH2 0x1096 JUMPI DUP2 PUSH4 0xBAF79C39 EQ PUSH2 0x106B JUMPI DUP2 PUSH4 0xBF539CB4 EQ PUSH2 0x104B JUMPI DUP2 PUSH4 0xC4AA7395 EQ PUSH2 0x102B JUMPI DUP2 PUSH4 0xC54CDAD8 EQ PUSH2 0x100B JUMPI DUP2 PUSH4 0xCC6A2924 EQ PUSH2 0xFAD JUMPI DUP2 PUSH4 0xCCEB6C42 EQ PUSH2 0xF5D JUMPI DUP2 PUSH4 0xD83EA790 EQ PUSH2 0xF3D JUMPI DUP2 PUSH4 0xDB05852F EQ PUSH2 0xDFB JUMPI DUP2 PUSH4 0xDBDA2808 EQ PUSH2 0xDDB JUMPI DUP2 PUSH4 0xDDE6BEFD EQ PUSH2 0xDBB JUMPI DUP2 PUSH4 0xDE3AE757 EQ PUSH2 0x8EC JUMPI DUP2 PUSH4 0xDEB928EE EQ PUSH2 0x834 JUMPI DUP2 PUSH4 0xE086E5EC EQ PUSH2 0x79B JUMPI DUP2 PUSH4 0xE0925D6C EQ PUSH2 0x665 JUMPI DUP2 PUSH4 0xE095B465 EQ PUSH2 0x629 JUMPI DUP2 PUSH4 0xE292E876 EQ PUSH2 0x5D5 JUMPI DUP2 PUSH4 0xEEACAFC3 EQ PUSH2 0x52D JUMPI DUP2 PUSH4 0xF2FDE38B EQ PUSH2 0x49E JUMPI POP DUP1 PUSH4 0xF984F70A EQ PUSH2 0x434 JUMPI DUP1 PUSH4 0xFA66358A EQ PUSH2 0x3C9 JUMPI PUSH4 0xFE173B97 SUB PUSH2 0xE JUMPI CALLVALUE PUSH2 0x3C3 JUMPI PUSH1 0xA0 MLOAD DUP1 PUSH1 0x3 NOT CALLDATASIZE ADD SLT PUSH2 0x3C0 JUMPI PUSH1 0x20 PUSH1 0x17 SLOAD PUSH1 0x40 MLOAD SWAP1 DUP2 MSTORE RETURN JUMPDEST DUP1 REVERT JUMPDEST PUSH1 0xA0 MLOAD DUP1 REVERT JUMPDEST CALLVALUE PUSH2 0x3C3 JUMPI PUSH1 0x20 CALLDATASIZE PUSH1 0x3 NOT ADD SLT PUSH2 0x3C3 JUMPI PUSH1 0x4 CALLDATALOAD PUSH2 0x3E5 PUSH2 0x46D0 JUMP JUMPDEST POP PUSH1 0x1E SLOAD DUP2 LT ISZERO PUSH2 0x422 JUMPI PUSH1 0xA0 MLOAD MSTORE PUSH1 0x1D PUSH1 0x20 MSTORE PUSH2 0x41E PUSH2 0x40A PUSH1 0x40 PUSH1 0xA0 MLOAD KECCAK256 PUSH2 0x405D JUMP JUMPDEST PUSH1 0x40 MLOAD SWAP2 DUP3 SWAP2 PUSH1 0x20 DUP4 MSTORE PUSH1 0x20 DUP4 ADD SWAP1 PUSH2 0x3A75 JUMP JUMPDEST SUB SWAP1 RETURN JUMPDEST PUSH1 0x40 MLOAD PUSH4 0x8F676F49 PUSH1 0xE0 SHL DUP2 MSTORE PUSH1 0x4 SWAP1 REVERT JUMPDEST CALLVALUE PUSH2 0x3C3 JUMPI PUSH1 0x20 CALLDATASIZE PUSH1 0x3 NOT ADD SLT PUSH2 0x3C3 JUMPI PUSH32 0xB2A19CF961F334D257A8D5F75AFD9309A15B64C0BAE806BFFC30227902AC67B5 PUSH1 0x20 PUSH2 0x470 PUSH2 0x385A JUMP JUMPDEST PUSH2 0x478 PUSH2 0x3AF4 JUMP JUMPDEST ISZERO ISZERO PUSH1 0x1C SLOAD PUSH3 0xFF0000 DUP3 PUSH1 0x10 SHL AND SWAP1 PUSH3 0xFF0000 NOT AND OR PUSH1 0x1C SSTORE PUSH1 0x40 MLOAD SWAP1 DUP2 MSTORE LOG1 PUSH1 0xA0 MLOAD DUP1 RETURN JUMPDEST CALLVALUE PUSH2 0x3C3 JUMPI PUSH1 0x20 CALLDATASIZE PUSH1 0x3 NOT ADD SLT PUSH2 0x3C3 JUMPI PUSH2 0x4B7 PUSH2 0x382E JUMP JUMPDEST SWAP1 PUSH2 0x4C0 PUSH2 0x3AF4 JUMP JUMPDEST PUSH1 0x1 PUSH1 0x1 PUSH1 0xA0 SHL SUB SWAP2 DUP3 AND SWAP2 DUP3 ISZERO PUSH2 0x513 JUMPI PUSH32 0x8BE0079C531659141344CD1FD0A4F28419497F9722A3DAAFE3B4186F6B6457E0 SWAP1 PUSH1 0x1 SLOAD DUP5 PUSH1 0x1 PUSH1 0x1 PUSH1 0x60 SHL SUB PUSH1 0xA0 SHL DUP3 AND OR PUSH1 0x1 SSTORE AND SWAP2 DUP1 LOG3 PUSH1 0xA0 MLOAD DUP1 RETURN JUMPDEST PUSH1 0x40 MLOAD PUSH4 0x1E4FBDF7 PUSH1 0xE0 SHL DUP2 MSTORE PUSH1 0xA0 MLOAD PUSH1 0x4 DUP3 ADD MSTORE PUSH1 0x24 SWAP1 REVERT JUMPDEST CALLVALUE PUSH2 0x3C3 JUMPI PUSH1 0x20 CALLDATASIZE PUSH1 0x3 NOT ADD SLT PUSH2 0x3C3 JUMPI PUSH1 0x4 CALLDATALOAD PUSH3 0xFFFFFF DUP2 AND DUP1 SWAP2 SUB PUSH2 0x3C3 JUMPI PUSH2 0x556 PUSH2 0x3AF4 JUMP JUMPDEST PUSH2 0x1F4 DUP2 EQ ISZERO DUP1 PUSH2 0x5C9 JUMPI JUMPDEST DUP1 PUSH2 0x5BD JUMPI JUMPDEST PUSH2 0x5AB JUMPI PUSH1 0x20 DUP2 PUSH32 0x56387F26AC2F92610E692325D1DB5CE5E79D284DFF494CAA737C3923A67642E5 SWAP3 PUSH3 0xFFFFFF NOT PUSH1 0x13 SLOAD AND OR PUSH1 0x13 SSTORE PUSH1 0x40 MLOAD SWAP1 DUP2 MSTORE LOG1 PUSH1 0xA0 MLOAD DUP1 RETURN JUMPDEST PUSH1 0x40 MLOAD PUSH4 0x58D620B3 PUSH1 0xE0 SHL DUP2 MSTORE PUSH1 0x4 SWAP1 REVERT JUMPDEST POP PUSH2 0x2710 DUP2 EQ ISZERO PUSH2 0x568 JUMP JUMPDEST POP PUSH2 0xBB8 DUP2 EQ ISZERO PUSH2 0x562 JUMP JUMPDEST CALLVALUE PUSH2 0x3C3 JUMPI PUSH1 0x20 CALLDATASIZE PUSH1 0x3 NOT ADD SLT PUSH2 0x3C3 JUMPI PUSH1 0x4 CALLDATALOAD PUSH1 0x2 DUP2 LT ISZERO PUSH2 0x3C3 JUMPI PUSH1 0x1 PUSH1 0x1 PUSH1 0xA0 SHL SUB SWAP1 PUSH2 0x604 SWAP1 PUSH2 0x3901 JUMP JUMPDEST SLOAD AND DUP1 ISZERO PUSH2 0x617 JUMPI PUSH1 0x20 SWAP1 PUSH1 0x40 MLOAD SWAP1 DUP2 MSTORE RETURN JUMPDEST PUSH1 0x40 MLOAD PUSH4 0x2A4251F7 PUSH1 0xE2 SHL DUP2 MSTORE PUSH1 0x4 SWAP1 REVERT JUMPDEST CALLVALUE PUSH2 0x3C3 JUMPI PUSH1 0x20 CALLDATASIZE PUSH1 0x3 NOT ADD SLT PUSH2 0x3C3 JUMPI PUSH1 0x4 CALLDATALOAD PUSH1 0x2 DUP2 LT ISZERO PUSH2 0x3C3 JUMPI PUSH1 0x20 SWAP1 PUSH1 0x1 PUSH1 0x1 PUSH1 0xA0 SHL SUB SWAP1 PUSH2 0x65B SWAP1 PUSH2 0x3918 JUMP JUMPDEST SLOAD AND PUSH1 0x40 MLOAD SWAP1 DUP2 MSTORE RETURN JUMPDEST CALLVALUE PUSH2 0x3C3 JUMPI PUSH2 0x673 CALLDATASIZE PUSH2 0x3878 JUMP JUMPDEST SWAP3 SWAP2 SWAP1 PUSH2 0x67E PUSH2 0x3AF4 JUMP JUMPDEST DUP4 DUP3 SUB PUSH2 0x789 JUMPI PUSH1 0xA0 MLOAD JUMPDEST DUP3 DUP2 LT PUSH2 0x696 JUMPI PUSH1 0xA0 MLOAD DUP1 RETURN JUMPDEST PUSH1 0x1 PUSH1 0x1 PUSH1 0xA0 SHL SUB SWAP1 DUP2 PUSH2 0x6B3 PUSH2 0x6AE DUP4 DUP8 DUP10 PUSH2 0x462E JUMP JUMPDEST PUSH2 0x463E JUMP JUMPDEST AND ISZERO PUSH2 0x777 JUMPI DUP2 PUSH2 0x6C8 PUSH2 0x6AE DUP4 DUP10 DUP8 PUSH2 0x462E JUMP JUMPDEST AND ISZERO PUSH2 0x765 JUMPI PUSH2 0x760 SWAP2 PUSH2 0x6E0 PUSH2 0x6AE DUP4 DUP10 DUP8 PUSH2 0x462E JUMP JUMPDEST DUP2 PUSH2 0x6EF PUSH2 0x6AE DUP6 DUP10 DUP12 PUSH2 0x462E JUMP JUMPDEST AND PUSH1 0xA0 MLOAD MSTORE PUSH1 0x3 PUSH1 0x20 MSTORE DUP2 PUSH1 0x40 PUSH1 0xA0 MLOAD KECCAK256 SWAP2 AND PUSH1 0x1 PUSH1 0x1 PUSH1 0x60 SHL SUB PUSH1 0xA0 SHL DUP3 SLOAD AND OR SWAP1 SSTORE PUSH2 0x721 PUSH2 0x6AE DUP4 DUP8 DUP10 PUSH2 0x462E JUMP JUMPDEST PUSH32 0xD2D8394CF7549A5DDBC2BA3DD7B2DE8D53C891472D1F2907008ED6A10045FDAE DUP3 PUSH2 0x751 PUSH2 0x6AE DUP7 DUP13 DUP11 PUSH2 0x462E JUMP JUMPDEST AND SWAP3 PUSH1 0xA0 MLOAD SWAP3 AND SWAP2 DUP1 LOG3 PUSH2 0x3B86 JUMP JUMPDEST PUSH2 0x689 JUMP JUMPDEST PUSH1 0x40 MLOAD PUSH4 0x1F86E17 PUSH1 0xE4 SHL DUP2 MSTORE PUSH1 0x4 SWAP1 REVERT JUMPDEST PUSH1 0x40 MLOAD PUSH4 0xC1AB6DC1 PUSH1 0xE0 SHL DUP2 MSTORE PUSH1 0x4 SWAP1 REVERT JUMPDEST PUSH1 0x40 MLOAD PUSH4 0x512509D3 PUSH1 0xE1 SHL DUP2 MSTORE PUSH1 0x4 SWAP1 REVERT JUMPDEST CALLVALUE PUSH2 0x3C3 JUMPI PUSH1 0xA0 MLOAD DUP1 PUSH1 0x3 NOT CALLDATASIZE ADD SLT PUSH2 0x3C0 JUMPI PUSH2 0x7B6 PUSH2 0x3AF4 JUMP JUMPDEST SELFBALANCE DUP1 ISZERO PUSH2 0x822 JUMPI PUSH1 0xA0 MLOAD DUP1 DUP1 DUP1 DUP5 PUSH1 0x1 DUP1 PUSH1 0xA0 SHL SUB PUSH1 0x1 SLOAD AND GAS CALL PUSH2 0x7D9 PUSH2 0x480C JUMP JUMPDEST POP ISZERO PUSH2 0x810 JUMPI PUSH1 0x20 PUSH32 0x43F607A14D3B4F0A11A0B2E192BBFCD894298BA5ABF22553BE6081406DB28AA SWAP2 PUSH1 0x40 MLOAD SWAP1 DUP2 MSTORE LOG1 PUSH1 0xA0 MLOAD DUP1 RETURN JUMPDEST PUSH1 0x40 MLOAD PUSH4 0xB12D13EB PUSH1 0xE0 SHL DUP2 MSTORE PUSH1 0x4 SWAP1 REVERT JUMPDEST PUSH1 0x40 MLOAD PUSH4 0x61655153 PUSH1 0xE1 SHL DUP2 MSTORE PUSH1 0x4 SWAP1 REVERT JUMPDEST CALLVALUE PUSH2 0x3C3 JUMPI PUSH2 0x842 CALLDATASIZE PUSH2 0x392F JUMP JUMPDEST PUSH2 0x84A PUSH2 0x3AF4 JUMP JUMPDEST PUSH1 0x1 PUSH1 0x1 PUSH1 0xA0 SHL SUB AND DUP1 ISZERO PUSH2 0x8DA JUMPI PUSH2 0x862 DUP3 PUSH2 0x3901 JUMP JUMPDEST DUP1 SLOAD PUSH1 0x1 PUSH1 0x1 PUSH1 0xA0 SHL SUB NOT AND DUP3 OR SWAP1 SSTORE PUSH1 0xA0 DUP1 MLOAD DUP3 SWAP1 MSTORE PUSH1 0x8 PUSH1 0x20 MSTORE MLOAD PUSH1 0x40 DUP2 KECCAK256 DUP1 SLOAD PUSH1 0xFF NOT AND PUSH1 0x1 OR SWAP1 SSTORE PUSH1 0x2 DUP4 LT ISZERO PUSH2 0x8C3 JUMPI POP PUSH1 0xA0 MLOAD SWAP2 PUSH32 0x1E7261F9F5E3815CA6AC940D15B46FF8FE93774A027CCFB4D5AD34DA3234F032 DUP4 DUP1 LOG3 DUP1 RETURN JUMPDEST PUSH4 0x4E487B71 PUSH1 0xE0 SHL SWAP1 MSTORE PUSH1 0x21 PUSH1 0x4 MSTORE PUSH1 0xA0 MLOAD PUSH1 0x24 SWAP1 REVERT JUMPDEST PUSH1 0x40 MLOAD PUSH4 0x466D7FEF PUSH1 0xE0 SHL DUP2 MSTORE PUSH1 0x4 SWAP1 REVERT JUMPDEST CALLVALUE PUSH2 0x3C3 JUMPI PUSH1 0x80 CALLDATASIZE PUSH1 0x3 NOT ADD SLT PUSH2 0x3C3 JUMPI PUSH1 0x4 CALLDATALOAD PUSH1 0x1 PUSH1 0x1 PUSH1 0x40 SHL SUB DUP2 GT PUSH2 0x3C3 JUMPI PUSH2 0x91C SWAP1 CALLDATASIZE SWAP1 PUSH1 0x4 ADD PUSH2 0x37FA JUMP JUMPDEST SWAP1 PUSH1 0x80 MSTORE PUSH1 0x24 CALLDATALOAD PUSH1 0x1 PUSH1 0x1 PUSH1 0x40 SHL SUB DUP2 GT PUSH2 0x3C3 JUMPI PUSH2 0x93F SWAP1 CALLDATASIZE SWAP1 PUSH1 0x4 ADD PUSH2 0x37FA JUMP JUMPDEST PUSH1 0x44 SWAP3 SWAP2 SWAP3 CALLDATALOAD PUSH1 0x1 PUSH1 0x1 PUSH1 0x40 SHL SUB DUP2 GT PUSH2 0x3C3 JUMPI PUSH2 0x961 SWAP1 CALLDATASIZE SWAP1 PUSH1 0x4 ADD PUSH2 0x37FA JUMP JUMPDEST SWAP4 SWAP1 SWAP2 PUSH1 0x64 CALLDATALOAD PUSH1 0x1 PUSH1 0x1 PUSH1 0x40 SHL SUB DUP2 GT PUSH2 0x3C3 JUMPI PUSH2 0x983 SWAP1 CALLDATASIZE SWAP1 PUSH1 0x4 ADD PUSH2 0x37FA JUMP JUMPDEST SWAP2 SWAP1 SWAP3 PUSH2 0x98E PUSH2 0x3AF4 JUMP JUMPDEST DUP2 DUP7 EQ DUP1 ISZERO SWAP1 PUSH2 0xDB1 JUMPI JUMPDEST DUP1 ISZERO PUSH2 0xDA7 JUMPI JUMPDEST PUSH2 0x789 JUMPI PUSH1 0xA0 MLOAD JUMPDEST DUP7 DUP2 LT PUSH2 0x9B5 JUMPI PUSH1 0xA0 MLOAD DUP1 RETURN JUMPDEST PUSH1 0x5 SWAP1 PUSH1 0x80 MLOAD DUP2 DUP4 SHL DUP2 ADD CALLDATALOAD SWAP1 PUSH1 0x1E NOT DUP2 CALLDATASIZE SUB ADD DUP3 SLT ISZERO PUSH2 0x3C3 JUMPI ADD SWAP2 PUSH1 0x1 PUSH1 0x1 PUSH1 0x40 SHL SUB DUP4 CALLDATALOAD GT PUSH2 0x3C3 JUMPI DUP3 CALLDATALOAD SWAP1 SHL CALLDATASIZE SUB PUSH1 0x20 DUP4 ADD SGT PUSH2 0x3C3 JUMPI PUSH2 0x9FB DUP2 DUP6 DUP6 PUSH2 0x462E JUMP JUMPDEST CALLDATALOAD PUSH2 0xA07 DUP3 DUP12 DUP11 PUSH2 0x462E JUMP JUMPDEST CALLDATALOAD PUSH1 0x2 DUP2 LT ISZERO PUSH2 0x3C3 JUMPI PUSH2 0xA1C DUP4 DUP9 DUP11 PUSH2 0x462E JUMP JUMPDEST CALLDATALOAD PUSH1 0x2 DUP2 LT ISZERO PUSH2 0x3C3 JUMPI PUSH1 0x2 DUP6 CALLDATALOAD LT DUP1 ISZERO PUSH2 0xD9C JUMPI JUMPDEST PUSH2 0xD8A JUMPI DUP5 CALLDATALOAD ISZERO PUSH2 0xD72 JUMPI PUSH2 0xA49 PUSH1 0x20 DUP7 ADD PUSH2 0x463E JUMP JUMPDEST DUP6 CALLDATALOAD PUSH0 NOT DUP2 ADD GT PUSH2 0xD24 JUMPI PUSH1 0x1 PUSH1 0x1 PUSH1 0xA0 SHL SUB PUSH2 0xA72 PUSH2 0x6AE DUP9 CALLDATALOAD PUSH0 NOT DUP2 ADD SWAP1 PUSH1 0x20 DUP12 ADD PUSH2 0x462E JUMP JUMPDEST AND PUSH1 0x1 PUSH1 0x1 PUSH1 0xA0 SHL SUB SWAP1 SWAP2 AND SUB PUSH2 0xD60 JUMPI PUSH1 0x1 PUSH1 0x1 PUSH1 0xA0 SHL SUB PUSH2 0xA94 DUP4 PUSH2 0x3901 JUMP JUMPDEST SLOAD AND ISZERO PUSH2 0x617 JUMPI PUSH1 0x1 PUSH1 0x1 PUSH1 0xA0 SHL SUB PUSH2 0xAAC DUP3 PUSH2 0x3901 JUMP JUMPDEST SLOAD AND ISZERO PUSH2 0x617 JUMPI PUSH1 0xA0 MLOAD JUMPDEST DUP6 CALLDATALOAD DUP2 LT PUSH2 0xC2E JUMPI POP PUSH1 0x1E SWAP3 DUP4 SLOAD SWAP1 PUSH1 0x40 MLOAD SWAP1 PUSH2 0xAD3 DUP3 PUSH2 0x398E JUMP JUMPDEST DUP3 DUP3 MSTORE PUSH2 0xAE5 CALLDATASIZE DUP10 CALLDATALOAD PUSH1 0x20 DUP12 ADD PUSH2 0x3A17 JUMP JUMPDEST SWAP3 PUSH1 0x20 DUP4 ADD SWAP4 DUP5 MSTORE PUSH1 0x40 DUP4 ADD SWAP2 DUP3 MSTORE PUSH2 0xB02 PUSH1 0x60 DUP5 ADD SWAP7 DUP8 PUSH2 0x4051 JUMP JUMPDEST PUSH2 0xB10 PUSH1 0x80 DUP5 ADD SWAP6 DUP7 PUSH2 0x4051 JUMP JUMPDEST PUSH1 0xA0 MLOAD MSTORE PUSH1 0x1D PUSH1 0x20 MSTORE PUSH1 0xA0 MLOAD PUSH1 0x40 DUP2 KECCAK256 SWAP3 MLOAD DUP4 SSTORE PUSH1 0x1 DUP4 ADD SWAP4 MLOAD DUP1 MLOAD SWAP2 PUSH1 0x1 PUSH1 0x1 PUSH1 0x40 SHL SUB DUP4 GT PUSH2 0xC17 JUMPI POP PUSH1 0x20 SWAP1 PUSH2 0xB49 DUP4 DUP8 PUSH2 0x4652 JUMP JUMPDEST ADD SWAP4 PUSH1 0xA0 MLOAD MSTORE PUSH1 0xA0 MLOAD SWAP4 PUSH1 0x20 DUP6 KECCAK256 DUP6 JUMPDEST DUP4 DUP2 LT PUSH2 0xBFA JUMPI POP POP POP POP SWAP1 PUSH1 0x3 SWAP2 MLOAD PUSH1 0x2 DUP3 ADD SSTORE ADD SWAP3 MLOAD SWAP1 PUSH1 0x2 DUP3 LT ISZERO PUSH2 0x8C3 JUMPI POP PUSH2 0xB86 SWAP1 DUP4 PUSH2 0x4699 JUMP JUMPDEST MLOAD PUSH1 0x2 DUP2 LT ISZERO PUSH2 0xBE2 JUMPI PUSH2 0xBDD SWAP5 PUSH2 0xBA3 PUSH1 0x20 SWAP3 PUSH2 0xBD6 SWAP5 PUSH2 0x46B1 JUMP JUMPDEST PUSH32 0x43AFC9E063BEAEA4354EC60D8BC6C76E9BA2376CA51443FC69A6EFD689A7282A DUP5 SLOAD SWAP3 DUP4 SWAP3 PUSH1 0x40 MLOAD SWAP1 CALLDATALOAD DUP2 MSTORE LOG2 PUSH2 0x3B86 JUMP JUMPDEST SWAP1 SSTORE PUSH2 0x3B86 JUMP JUMPDEST PUSH2 0x9A8 JUMP JUMPDEST PUSH4 0x4E487B71 PUSH1 0xE0 SHL PUSH1 0xA0 MLOAD MSTORE PUSH1 0x21 PUSH1 0x4 MSTORE PUSH1 0x24 PUSH1 0xA0 MLOAD REVERT JUMPDEST DUP3 MLOAD PUSH1 0x1 PUSH1 0x1 PUSH1 0xA0 SHL SUB AND DUP2 DUP4 ADD SSTORE PUSH1 0x20 SWAP1 SWAP3 ADD SWAP2 PUSH1 0x1 ADD PUSH2 0xB59 JUMP JUMPDEST PUSH4 0x4E487B71 PUSH1 0xE0 SHL SWAP1 MSTORE PUSH1 0x41 PUSH1 0x4 MSTORE PUSH1 0xA0 MLOAD PUSH1 0x24 SWAP1 REVERT JUMPDEST PUSH1 0x1 PUSH1 0x1 PUSH1 0xA0 SHL SUB PUSH2 0xC48 PUSH2 0x6AE DUP4 DUP10 CALLDATALOAD PUSH1 0x20 DUP12 ADD PUSH2 0x462E JUMP JUMPDEST AND ISZERO PUSH2 0xD4E JUMPI PUSH2 0xC80 PUSH2 0xC63 PUSH2 0x6AE DUP4 DUP10 CALLDATALOAD PUSH1 0x20 DUP12 ADD PUSH2 0x462E JUMP JUMPDEST PUSH1 0x1 PUSH1 0x1 PUSH1 0xA0 SHL SUB AND PUSH0 SWAP1 DUP2 MSTORE PUSH1 0x2 PUSH1 0x20 MSTORE PUSH1 0x40 SWAP1 KECCAK256 SLOAD PUSH1 0xFF AND SWAP1 JUMP JUMPDEST ISZERO PUSH2 0xD3C JUMPI PUSH1 0x1 DUP1 DUP3 ADD DUP1 DUP4 GT PUSH2 0xD24 JUMPI DUP2 JUMPDEST PUSH2 0xCA8 JUMPI JUMPDEST POP POP PUSH2 0xCA3 SWAP1 PUSH2 0x3B86 JUMP JUMPDEST PUSH2 0xAB7 JUMP JUMPDEST DUP8 CALLDATALOAD PUSH0 NOT DUP2 ADD GT PUSH2 0xD24 JUMPI DUP8 CALLDATALOAD PUSH0 NOT ADD DUP2 LT ISZERO PUSH2 0xD1F JUMPI PUSH2 0xCD1 PUSH2 0x6AE DUP5 DUP11 CALLDATALOAD PUSH1 0x20 DUP13 ADD PUSH2 0x462E JUMP JUMPDEST PUSH1 0x1 PUSH1 0x1 PUSH1 0xA0 SHL SUB PUSH2 0xCEB PUSH2 0x6AE DUP5 DUP13 CALLDATALOAD PUSH1 0x20 DUP15 ADD PUSH2 0x462E JUMP JUMPDEST PUSH1 0x1 PUSH1 0x1 PUSH1 0xA0 SHL SUB SWAP1 SWAP3 AND SWAP2 AND EQ PUSH2 0xD0D JUMPI PUSH2 0xD07 DUP3 SWAP2 PUSH2 0x3B86 JUMP JUMPDEST SWAP1 PUSH2 0xC93 JUMP JUMPDEST PUSH1 0x40 MLOAD PUSH4 0x13721E61 PUSH1 0xE1 SHL DUP2 MSTORE PUSH1 0x4 SWAP1 REVERT JUMPDEST PUSH2 0xC98 JUMP JUMPDEST PUSH4 0x4E487B71 PUSH1 0xE0 SHL PUSH1 0xA0 MLOAD MSTORE PUSH1 0x11 PUSH1 0x4 MSTORE PUSH1 0x24 PUSH1 0xA0 MLOAD REVERT JUMPDEST PUSH1 0x40 MLOAD PUSH4 0x350B9441 PUSH1 0xE1 SHL DUP2 MSTORE PUSH1 0x4 SWAP1 REVERT JUMPDEST PUSH1 0x40 MLOAD PUSH4 0xF580583 PUSH1 0xE1 SHL DUP2 MSTORE PUSH1 0x4 SWAP1 REVERT JUMPDEST PUSH1 0x40 MLOAD PUSH4 0xB6E9E57 PUSH1 0xE2 SHL DUP2 MSTORE PUSH1 0x4 SWAP1 REVERT JUMPDEST PUSH4 0x4E487B71 PUSH1 0xE0 SHL PUSH1 0xA0 MLOAD MSTORE PUSH1 0x32 PUSH1 0x4 MSTORE PUSH1 0x24 PUSH1 0xA0 MLOAD REVERT JUMPDEST PUSH1 0x40 MLOAD PUSH4 0x66B045FF PUSH1 0xE1 SHL DUP2 MSTORE PUSH1 0x4 SWAP1 REVERT JUMPDEST POP PUSH1 0x4 DUP6 CALLDATALOAD GT PUSH2 0xA32 JUMP JUMPDEST POP DUP3 DUP8 EQ ISZERO PUSH2 0x9A0 JUMP JUMPDEST POP DUP7 DUP3 EQ ISZERO PUSH2 0x999 JUMP JUMPDEST CALLVALUE PUSH2 0x3C3 JUMPI PUSH1 0xA0 MLOAD DUP1 PUSH1 0x3 NOT CALLDATASIZE ADD SLT PUSH2 0x3C0 JUMPI PUSH1 0x20 PUSH1 0x19 SLOAD PUSH1 0x40 MLOAD SWAP1 DUP2 MSTORE RETURN JUMPDEST CALLVALUE PUSH2 0x3C3 JUMPI PUSH1 0xA0 MLOAD DUP1 PUSH1 0x3 NOT CALLDATASIZE ADD SLT PUSH2 0x3C0 JUMPI PUSH1 0x20 PUSH1 0xF SLOAD PUSH1 0x40 MLOAD SWAP1 DUP2 MSTORE RETURN JUMPDEST CALLVALUE PUSH2 0x3C3 JUMPI PUSH1 0x40 CALLDATASIZE PUSH1 0x3 NOT ADD SLT PUSH2 0x3C3 JUMPI PUSH1 0x4 CALLDATALOAD PUSH1 0x1E SLOAD DUP1 DUP3 LT ISZERO PUSH2 0x422 JUMPI PUSH2 0xE26 PUSH1 0x24 CALLDATALOAD DUP4 PUSH2 0x3BC5 JUMP JUMPDEST SWAP1 DUP1 DUP3 GT PUSH2 0xF35 JUMPI JUMPDEST POP PUSH2 0xE3A DUP3 DUP3 PUSH2 0x3B65 JUMP JUMPDEST SWAP2 PUSH2 0xE44 DUP4 PUSH2 0x3A00 JUMP JUMPDEST SWAP3 PUSH2 0xE52 PUSH1 0x40 MLOAD SWAP5 DUP6 PUSH2 0x39DF JUMP JUMPDEST DUP1 DUP5 MSTORE PUSH2 0xE61 PUSH1 0x1F NOT SWAP2 PUSH2 0x3A00 JUMP JUMPDEST ADD PUSH1 0xA0 MLOAD JUMPDEST DUP2 DUP2 LT PUSH2 0xF1E JUMPI POP POP DUP1 JUMPDEST DUP3 DUP2 LT PUSH2 0xED8 JUMPI PUSH1 0x40 DUP1 MLOAD PUSH1 0x20 DUP1 DUP3 MSTORE DUP7 MLOAD DUP2 DUP4 ADD DUP2 SWAP1 MSTORE PUSH1 0xA0 MLOAD SWAP4 PUSH1 0x5 DUP3 SWAP1 SHL DUP5 ADD DUP2 ADD SWAP3 DUP1 DUP11 ADD SWAP3 SWAP2 DUP6 ADD JUMPDEST DUP3 DUP8 LT PUSH2 0xEAC JUMPI DUP6 DUP6 SUB DUP7 RETURN JUMPDEST SWAP1 SWAP2 SWAP3 SWAP4 DUP3 DUP1 PUSH2 0xEC8 PUSH1 0x1 SWAP4 PUSH1 0x3F NOT DUP11 DUP3 SUB ADD DUP7 MSTORE DUP9 MLOAD PUSH2 0x3A75 JUMP JUMPDEST SWAP7 ADD SWAP3 ADD SWAP7 ADD SWAP6 SWAP3 SWAP2 SWAP1 SWAP3 PUSH2 0xE9F JUMP JUMPDEST DUP1 PUSH2 0xF19 SWAP2 PUSH1 0xA0 MLOAD MSTORE PUSH1 0x1D PUSH1 0x20 MSTORE PUSH2 0xF13 PUSH1 0x40 PUSH1 0xA0 MLOAD KECCAK256 PUSH2 0xF02 PUSH2 0xEFC DUP7 DUP6 PUSH2 0x3B65 JUMP JUMPDEST SWAP2 PUSH2 0x405D JUMP JUMPDEST PUSH2 0xF0C DUP3 DUP10 PUSH2 0x3B51 JUMP JUMPDEST MSTORE DUP7 PUSH2 0x3B51 JUMP JUMPDEST POP PUSH2 0x3B86 JUMP JUMPDEST PUSH2 0xE71 JUMP JUMPDEST PUSH1 0x20 SWAP1 PUSH2 0xF29 PUSH2 0x46D0 JUMP JUMPDEST DUP3 DUP3 DUP9 ADD ADD MSTORE ADD PUSH2 0xE66 JUMP JUMPDEST SWAP1 POP DUP3 PUSH2 0xE2F JUMP JUMPDEST CALLVALUE PUSH2 0x3C3 JUMPI PUSH1 0xA0 MLOAD DUP1 PUSH1 0x3 NOT CALLDATASIZE ADD SLT PUSH2 0x3C0 JUMPI PUSH1 0x20 PUSH1 0x12 SLOAD PUSH1 0x40 MLOAD SWAP1 DUP2 MSTORE RETURN JUMPDEST CALLVALUE PUSH2 0x3C3 JUMPI PUSH1 0x20 CALLDATASIZE PUSH1 0x3 NOT ADD SLT PUSH2 0x3C3 JUMPI PUSH32 0x6CAF0E5993E373A80D1B08933A3A855A50EEE41CCEFC3425F05585826346CE37 PUSH1 0x20 PUSH1 0x4 CALLDATALOAD PUSH2 0xF9C PUSH2 0x3AF4 JUMP JUMPDEST DUP1 PUSH1 0x19 SSTORE PUSH1 0x40 MLOAD SWAP1 DUP2 MSTORE LOG1 PUSH1 0xA0 MLOAD DUP1 RETURN JUMPDEST CALLVALUE PUSH2 0x3C3 JUMPI PUSH1 0x20 CALLDATASIZE PUSH1 0x3 NOT ADD SLT PUSH2 0x3C3 JUMPI PUSH1 0x4 CALLDATALOAD PUSH1 0x1 PUSH1 0x1 PUSH1 0xA0 SHL SUB DUP2 AND SWAP1 DUP2 SWAP1 SUB PUSH2 0x3C3 JUMPI PUSH2 0xFDB PUSH2 0x3AF4 JUMP JUMPDEST DUP1 ISZERO PUSH2 0xFFA JUMPI PUSH1 0x1 PUSH1 0x1 PUSH1 0x60 SHL SUB PUSH1 0xA0 SHL PUSH1 0x1F SLOAD AND OR PUSH1 0x1F SSTORE PUSH1 0xA0 MLOAD DUP1 RETURN JUMPDEST PUSH1 0x40 MLOAD PUSH3 0x820F35 PUSH1 0xE6 SHL DUP2 MSTORE PUSH1 0x4 SWAP1 REVERT JUMPDEST CALLVALUE PUSH2 0x3C3 JUMPI PUSH1 0xA0 MLOAD DUP1 PUSH1 0x3 NOT CALLDATASIZE ADD SLT PUSH2 0x3C0 JUMPI PUSH1 0x20 PUSH1 0xE SLOAD PUSH1 0x40 MLOAD SWAP1 DUP2 MSTORE RETURN JUMPDEST CALLVALUE PUSH2 0x3C3 JUMPI PUSH1 0xA0 MLOAD DUP1 PUSH1 0x3 NOT CALLDATASIZE ADD SLT PUSH2 0x3C0 JUMPI PUSH1 0x20 PUSH1 0xD SLOAD PUSH1 0x40 MLOAD SWAP1 DUP2 MSTORE RETURN JUMPDEST CALLVALUE PUSH2 0x3C3 JUMPI PUSH1 0xA0 MLOAD DUP1 PUSH1 0x3 NOT CALLDATASIZE ADD SLT PUSH2 0x3C0 JUMPI PUSH1 0x20 PUSH1 0x1E SLOAD PUSH1 0x40 MLOAD SWAP1 DUP2 MSTORE RETURN JUMPDEST CALLVALUE PUSH2 0x3C3 JUMPI PUSH1 0xA0 MLOAD DUP1 PUSH1 0x3 NOT CALLDATASIZE ADD SLT PUSH2 0x3C0 JUMPI PUSH1 0xA SLOAD PUSH1 0x40 MLOAD PUSH1 0x1 PUSH1 0x1 PUSH1 0xA0 SHL SUB SWAP1 SWAP2 AND DUP2 MSTORE PUSH1 0x20 SWAP1 RETURN JUMPDEST CALLVALUE PUSH2 0x3C3 JUMPI PUSH1 0x20 CALLDATASIZE PUSH1 0x3 NOT ADD SLT PUSH2 0x3C3 JUMPI PUSH1 0x20 PUSH1 0x1 PUSH1 0x1 PUSH1 0xA0 SHL SUB DUP1 PUSH2 0x10BA PUSH2 0x382E JUMP JUMPDEST AND PUSH1 0xA0 MLOAD MSTORE PUSH1 0x4 DUP3 MSTORE PUSH1 0x40 PUSH1 0xA0 MLOAD KECCAK256 SLOAD AND PUSH1 0x40 MLOAD SWAP1 DUP2 MSTORE RETURN JUMPDEST CALLVALUE PUSH2 0x3C3 JUMPI PUSH1 0x20 CALLDATASIZE PUSH1 0x3 NOT ADD SLT PUSH2 0x3C3 JUMPI PUSH1 0x4 CALLDATALOAD PUSH2 0x10EF PUSH2 0x3AF4 JUMP JUMPDEST DUP1 ISZERO PUSH2 0x112A JUMPI PUSH1 0x20 DUP2 PUSH32 0x8A9AAD99416BC5CF8E5E14F71AEB446C6C1CDCFB18998AC5C680C5F25EC31629 SWAP3 PUSH1 0x18 SSTORE PUSH1 0x40 MLOAD SWAP1 DUP2 MSTORE LOG1 PUSH1 0xA0 MLOAD DUP1 RETURN JUMPDEST PUSH1 0x40 MLOAD PUSH4 0x162908E3 PUSH1 0xE1 SHL DUP2 MSTORE PUSH1 0x4 SWAP1 REVERT JUMPDEST CALLVALUE PUSH2 0x3C3 JUMPI PUSH1 0x80 CALLDATASIZE PUSH1 0x3 NOT ADD SLT PUSH2 0x3C3 JUMPI PUSH1 0x4 CALLDATALOAD PUSH1 0x1 PUSH1 0x1 PUSH1 0x40 SHL SUB DUP2 GT PUSH2 0x3C3 JUMPI CALLDATASIZE PUSH1 0x23 DUP3 ADD SLT ISZERO PUSH2 0x3C3 JUMPI PUSH2 0x117D SWAP1 CALLDATASIZE SWAP1 PUSH1 0x24 DUP2 PUSH1 0x4 ADD CALLDATALOAD SWAP2 ADD PUSH2 0x3A17 JUMP JUMPDEST PUSH1 0x44 CALLDATALOAD SWAP1 PUSH1 0x2 DUP3 LT ISZERO PUSH2 0x3C3 JUMPI PUSH1 0x64 CALLDATALOAD PUSH1 0x2 DUP2 LT ISZERO PUSH2 0x3C3 JUMPI PUSH1 0x40 MLOAD PUSH2 0x11A2 DUP2 PUSH2 0x395E JUMP JUMPDEST PUSH1 0xA0 MLOAD DUP2 MSTORE PUSH1 0xA0 MLOAD PUSH1 0x20 DUP3 ADD MSTORE PUSH1 0xA0 MLOAD PUSH1 0x40 DUP3 ADD MSTORE PUSH1 0xA0 MLOAD PUSH1 0x60 DUP3 ADD MSTORE PUSH1 0xA0 MLOAD PUSH1 0x80 DUP3 ADD MSTORE PUSH1 0xA0 MLOAD PUSH1 0xA0 DUP3 ADD MSTORE PUSH1 0xA0 MLOAD PUSH1 0xC0 DUP3 ADD MSTORE PUSH1 0xA0 MLOAD PUSH1 0xE0 DUP3 ADD MSTORE PUSH1 0xA0 MLOAD PUSH2 0x100 DUP3 ADD MSTORE PUSH2 0x120 PUSH1 0xA0 MLOAD SWAP2 ADD MSTORE DUP2 MLOAD PUSH1 0x2 DUP2 LT SWAP1 DUP2 ISZERO PUSH2 0x1937 JUMPI JUMPDEST POP PUSH2 0xD8A JUMPI PUSH1 0x24 CALLDATALOAD ISZERO PUSH2 0x112A JUMPI PUSH1 0x18 SLOAD PUSH1 0x24 CALLDATALOAD GT PUSH2 0x1925 JUMPI PUSH1 0x1 PUSH1 0x1 PUSH1 0xA0 SHL SUB SWAP1 DUP2 PUSH2 0x122A DUP5 PUSH2 0x3B20 JUMP JUMPDEST MLOAD AND DUP4 MLOAD PUSH0 NOT DUP2 ADD SWAP1 DUP2 GT PUSH2 0xD24 JUMPI PUSH2 0x1244 DUP5 SWAP2 DUP7 PUSH2 0x3B51 JUMP JUMPDEST MLOAD AND SUB PUSH2 0xD60 JUMPI PUSH1 0xA0 MLOAD JUMPDEST DUP4 MLOAD DUP2 LT ISZERO PUSH2 0x12AA JUMPI DUP3 PUSH2 0x1263 DUP3 DUP7 PUSH2 0x3B51 JUMP JUMPDEST MLOAD AND ISZERO PUSH2 0xD4E JUMPI PUSH2 0x1297 DUP4 PUSH2 0x1278 DUP4 DUP8 PUSH2 0x3B51 JUMP JUMPDEST MLOAD AND PUSH1 0x1 PUSH1 0x1 PUSH1 0xA0 SHL SUB AND PUSH0 SWAP1 DUP2 MSTORE PUSH1 0x2 PUSH1 0x20 MSTORE PUSH1 0x40 SWAP1 KECCAK256 SLOAD PUSH1 0xFF AND SWAP1 JUMP JUMPDEST ISZERO PUSH2 0xD3C JUMPI PUSH2 0x12A5 SWAP1 PUSH2 0x3B86 JUMP JUMPDEST PUSH2 0x124F JUMP JUMPDEST POP DUP3 DUP5 DUP4 PUSH2 0x12B7 DUP4 PUSH2 0x3B20 JUMP JUMPDEST MLOAD AND SWAP1 DUP3 MLOAD PUSH0 NOT DUP2 ADD SWAP1 DUP2 GT PUSH2 0xD24 JUMPI PUSH2 0x12E1 SWAP3 DUP7 PUSH2 0x12D9 PUSH1 0x24 CALLDATALOAD SWAP4 DUP8 PUSH2 0x3B51 JUMP JUMPDEST MLOAD AND SWAP1 PUSH2 0x3BD2 JUMP JUMPDEST SWAP2 DUP3 ISZERO PUSH2 0x1913 JUMPI DUP2 MLOAD PUSH0 NOT DUP2 ADD SWAP2 SWAP1 DUP3 GT PUSH2 0xD24 JUMPI DUP4 DUP6 PUSH2 0x1305 PUSH2 0x1311 SWAP5 DUP7 PUSH2 0x3B51 JUMP JUMPDEST MLOAD AND DUP7 PUSH2 0x12D9 DUP7 PUSH2 0x3B20 JUMP JUMPDEST SWAP3 DUP4 ISZERO PUSH2 0x1913 JUMPI DUP1 PUSH2 0x1322 DUP4 PUSH2 0x3B20 JUMP JUMPDEST MLOAD AND DUP3 MLOAD PUSH0 NOT DUP2 ADD SWAP1 DUP2 GT PUSH2 0xD24 JUMPI PUSH2 0x133C DUP4 SWAP2 DUP6 PUSH2 0x3B51 JUMP JUMPDEST MLOAD AND SWAP2 PUSH1 0x40 MLOAD PUSH2 0x134B DUP2 PUSH2 0x39A9 JUMP JUMPDEST PUSH1 0xA0 MLOAD DUP2 MSTORE PUSH1 0xA0 MLOAD PUSH1 0x20 DUP3 ADD MSTORE PUSH1 0xA0 MLOAD PUSH1 0x40 DUP3 ADD MSTORE PUSH1 0x60 PUSH1 0xA0 MLOAD SWAP2 ADD MSTORE DUP2 PUSH1 0xA0 MLOAD MSTORE PUSH1 0x3 PUSH1 0x20 MSTORE DUP1 PUSH1 0x40 PUSH1 0xA0 MLOAD KECCAK256 SLOAD AND ISZERO PUSH2 0x1901 JUMPI DUP3 PUSH1 0xA0 MLOAD MSTORE PUSH1 0x3 PUSH1 0x20 MSTORE DUP1 PUSH1 0x40 PUSH1 0xA0 MLOAD KECCAK256 SLOAD AND ISZERO PUSH2 0x1901 JUMPI DUP2 PUSH1 0x4 SWAP3 PUSH1 0xA0 MLOAD MSTORE PUSH1 0x3 PUSH1 0x20 MSTORE PUSH1 0xA0 MLOAD SWAP4 DUP1 DUP4 PUSH1 0x40 DUP8 KECCAK256 SLOAD AND SWAP6 MSTORE PUSH1 0xA0 DUP4 PUSH1 0x40 DUP3 MLOAD KECCAK256 SLOAD AND SWAP6 PUSH1 0x40 MLOAD SWAP6 DUP7 DUP1 SWAP3 PUSH4 0x3FABE5A3 PUSH1 0xE2 SHL DUP3 MSTORE GAS STATICCALL SWAP4 DUP5 ISZERO PUSH2 0x1852 JUMPI PUSH1 0x4 SWAP6 PUSH1 0xA0 MLOAD SWAP2 DUP3 SWAP7 PUSH2 0x18D8 JUMPI JUMPDEST POP PUSH1 0xA0 SWAP1 PUSH1 0x40 MLOAD SWAP8 DUP9 DUP1 SWAP3 PUSH4 0x3FABE5A3 PUSH1 0xE2 SHL DUP3 MSTORE GAS STATICCALL SWAP4 DUP5 ISZERO PUSH2 0x1852 JUMPI PUSH1 0xA0 MLOAD SWAP7 DUP8 SWAP6 PUSH2 0x18AE JUMPI JUMPDEST POP PUSH1 0xA0 MLOAD DUP1 DUP4 SGT SWAP1 DUP2 ISZERO SWAP2 PUSH2 0x18A3 JUMPI JUMPDEST POP PUSH2 0x17FD JUMPI PUSH2 0x142E DUP7 TIMESTAMP PUSH2 0x3B65 JUMP JUMPDEST PUSH1 0x10 SLOAD DUP1 SWAP2 GT PUSH2 0x1891 JUMPI DUP1 PUSH2 0x1443 DUP8 TIMESTAMP PUSH2 0x3B65 JUMP JUMPDEST GT PUSH2 0x1891 JUMPI PUSH1 0xFF PUSH1 0x1C SLOAD PUSH1 0x10 SHR AND PUSH2 0x16EF JUMPI JUMPDEST POP POP PUSH2 0x146B SWAP3 PUSH2 0x1465 SWAP2 PUSH2 0x3EF5 JUMP JUMPDEST SWAP5 PUSH2 0x3EF5 JUMP JUMPDEST PUSH8 0xDE0B6B3A7640000 SWAP1 DUP2 DUP6 MUL DUP6 DUP2 DIV DUP4 EQ DUP7 ISZERO OR ISZERO PUSH2 0xD24 JUMPI DUP2 PUSH2 0x148F SWAP2 PUSH2 0x3BA7 JUMP JUMPDEST SWAP1 DUP1 DUP4 DUP2 MUL DIV DUP4 EQ DUP2 ISZERO OR ISZERO PUSH2 0xD24 JUMPI PUSH2 0x14F2 SWAP6 PUSH2 0x14E7 SWAP4 PUSH2 0x14B1 SWAP3 MUL PUSH2 0x3BA7 JUMP JUMPDEST SWAP1 PUSH1 0x40 MLOAD SWAP5 PUSH2 0x14BF DUP7 PUSH2 0x39A9 JUMP JUMPDEST DUP2 DUP7 MSTORE PUSH1 0x20 DUP7 ADD SWAP5 DUP4 DUP7 MSTORE PUSH5 0xFFFFFFFFFF DUP1 SWAP3 AND PUSH1 0x40 DUP9 ADD MSTORE AND PUSH1 0x60 DUP7 ADD MSTORE DUP8 PUSH1 0x24 CALLDATALOAD PUSH2 0x3F80 JUMP JUMPDEST MLOAD SWAP1 MLOAD SWAP1 DUP6 DUP6 PUSH2 0x3F80 JUMP JUMPDEST MLOAD SWAP2 PUSH1 0x2 DUP4 LT DUP1 ISZERO PUSH2 0x16E5 JUMPI JUMPDEST PUSH2 0xD8A JUMPI PUSH0 NOT DUP4 ADD SWAP3 DUP4 GT PUSH2 0xD24 JUMPI PUSH3 0x186A0 SWAP3 DUP1 DUP5 MUL SWAP4 DUP5 DIV SUB PUSH2 0xD24 JUMPI PUSH3 0x61A80 SWAP3 DUP4 ADD DUP1 SWAP4 GT PUSH2 0xD24 JUMPI PUSH4 0x3B9ACA00 PUSH2 0x1550 PUSH2 0x2710 PUSH2 0x1545 PUSH1 0x16 SLOAD PUSH1 0x24 CALLDATALOAD PUSH2 0x3B94 JUMP JUMPDEST DIV SWAP5 PUSH1 0x17 SLOAD SWAP1 PUSH2 0x3B94 JUMP JUMPDEST DIV SWAP3 PUSH2 0x2710 PUSH2 0x1563 PUSH1 0x14 SLOAD PUSH1 0x24 CALLDATALOAD PUSH2 0x3B94 JUMP JUMPDEST DIV SWAP4 PUSH2 0x2710 PUSH2 0x1576 PUSH1 0x15 SLOAD PUSH1 0x24 CALLDATALOAD PUSH2 0x3B94 JUMP JUMPDEST DIV SWAP5 PUSH2 0x158F DUP7 PUSH2 0x158A DUP4 PUSH2 0x158A DUP7 DUP9 PUSH2 0x3BC5 JUMP JUMPDEST PUSH2 0x3BC5 JUMP JUMPDEST SWAP6 PUSH1 0xA0 MLOAD PUSH1 0x24 CALLDATALOAD DUP7 GT PUSH0 EQ PUSH2 0x16DF JUMPI POP PUSH2 0x15AB PUSH1 0x24 CALLDATALOAD DUP7 PUSH2 0x3B65 JUMP JUMPDEST SWAP2 JUMPDEST PUSH1 0xA0 MLOAD DUP9 DUP5 LT PUSH2 0x16D9 JUMPI POP PUSH2 0x15C2 DUP9 DUP5 PUSH2 0x3B65 JUMP JUMPDEST SWAP4 JUMPDEST DUP5 ISZERO ISZERO SWAP6 DUP7 PUSH2 0x1694 JUMPI JUMPDEST SWAP2 PUSH2 0x140 SWAP10 SWAP4 SWAP2 DUP8 SWAP7 SWAP6 SWAP4 PUSH2 0x120 SWAP10 SWAP9 SWAP8 PUSH2 0x1687 JUMPI JUMPDEST PUSH1 0x40 MLOAD SWAP9 PUSH2 0x15F1 DUP11 PUSH2 0x395E JUMP JUMPDEST DUP12 DUP11 MSTORE PUSH1 0x20 DUP11 ADD MSTORE PUSH1 0x40 DUP10 ADD MSTORE PUSH1 0x60 DUP9 ADD MSTORE PUSH1 0x80 DUP8 ADD MSTORE PUSH1 0xA0 DUP7 ADD MSTORE PUSH1 0xC0 DUP6 ADD MSTORE PUSH1 0xE0 DUP5 ADD MSTORE PUSH2 0x100 DUP4 ADD MSTORE ISZERO ISZERO DUP3 DUP3 ADD MSTORE PUSH1 0x40 MLOAD SWAP3 DUP4 MSTORE PUSH1 0x20 DUP2 ADD MLOAD PUSH1 0x20 DUP5 ADD MSTORE PUSH1 0x40 DUP2 ADD MLOAD PUSH1 0x40 DUP5 ADD MSTORE PUSH1 0x60 DUP2 ADD MLOAD PUSH1 0x60 DUP5 ADD MSTORE PUSH1 0x80 DUP2 ADD MLOAD PUSH1 0x80 DUP5 ADD MSTORE PUSH1 0xA0 DUP2 ADD MLOAD PUSH1 0xA0 DUP5 ADD MSTORE PUSH1 0xC0 DUP2 ADD MLOAD PUSH1 0xC0 DUP5 ADD MSTORE PUSH1 0xE0 DUP2 ADD MLOAD PUSH1 0xE0 DUP5 ADD MSTORE PUSH2 0x100 DUP2 ADD MLOAD PUSH2 0x100 DUP5 ADD MSTORE ADD MLOAD ISZERO ISZERO PUSH2 0x120 DUP3 ADD MSTORE RETURN JUMPDEST PUSH1 0x19 SLOAD DUP8 LT ISZERO SWAP8 POP PUSH2 0x15E4 JUMP JUMPDEST SWAP5 SWAP4 SWAP2 SWAP7 SWAP6 POP SWAP8 SWAP2 PUSH2 0x2710 DUP5 MUL SWAP7 DUP5 DUP9 DIV PUSH2 0x2710 EQ DUP6 ISZERO OR ISZERO PUSH2 0xD24 JUMPI PUSH2 0x140 SWAP10 PUSH2 0x16C5 PUSH2 0x120 SWAP10 PUSH1 0x24 CALLDATALOAD SWAP1 PUSH2 0x3BA7 JUMP JUMPDEST PUSH1 0xC SLOAD GT ISZERO SWAP8 SWAP9 POP SWAP2 SWAP4 SWAP10 POP SWAP2 SWAP4 SWAP5 PUSH2 0x15CE JUMP JUMPDEST SWAP4 PUSH2 0x15C4 JUMP JUMPDEST SWAP2 PUSH2 0x15AD JUMP JUMPDEST POP PUSH1 0x4 DUP4 GT PUSH2 0x14FF JUMP JUMPDEST DUP5 PUSH1 0xA0 MLOAD MSTORE PUSH1 0x4 PUSH1 0x20 MSTORE PUSH1 0xA0 MLOAD SWAP2 DUP5 DUP2 PUSH1 0x40 DUP6 KECCAK256 SLOAD AND SWAP4 MSTORE PUSH1 0x40 PUSH1 0xA0 MLOAD KECCAK256 SLOAD AND SWAP2 DUP1 ISZERO ISZERO DUP1 PUSH2 0x1888 JUMPI JUMPDEST PUSH2 0x1724 JUMPI JUMPDEST POP PUSH2 0x1456 JUMP JUMPDEST SWAP1 PUSH1 0xA0 PUSH1 0x4 SWAP3 PUSH1 0x40 MLOAD SWAP4 DUP5 DUP1 SWAP3 PUSH4 0x3FABE5A3 PUSH1 0xE2 SHL DUP3 MSTORE GAS STATICCALL DUP1 ISZERO PUSH2 0x1852 JUMPI PUSH1 0x4 SWAP4 PUSH1 0xA0 MLOAD SWAP4 DUP5 SWAP3 PUSH2 0x185F JUMPI JUMPDEST POP PUSH1 0xA0 SWAP1 PUSH1 0x40 MLOAD SWAP6 DUP7 DUP1 SWAP3 PUSH4 0x3FABE5A3 PUSH1 0xE2 SHL DUP3 MSTORE GAS STATICCALL SWAP1 DUP2 ISZERO PUSH2 0x1852 JUMPI PUSH1 0xA0 MLOAD SWAP5 DUP6 SWAP3 PUSH2 0x1819 JUMPI JUMPDEST POP PUSH1 0xA0 MLOAD DUP1 DUP6 SGT SWAP1 DUP2 ISZERO SWAP2 PUSH2 0x180E JUMPI JUMPDEST POP PUSH2 0x17FD JUMPI PUSH2 0x179A DUP4 SWAP2 TIMESTAMP PUSH2 0x3B65 JUMP JUMPDEST GT PUSH2 0x17EB JUMPI PUSH2 0x17A9 SWAP1 TIMESTAMP PUSH2 0x3B65 JUMP JUMPDEST GT PUSH2 0x17EB JUMPI PUSH2 0x17BB PUSH2 0x17C2 SWAP2 DUP5 PUSH2 0x3FEB JUMP JUMPDEST SWAP2 DUP9 PUSH2 0x3FEB JUMP JUMPDEST PUSH1 0x12 SLOAD DUP1 SWAP3 GT PUSH2 0x17D9 JUMPI GT PUSH2 0x17D9 JUMPI DUP10 DUP1 DUP1 PUSH2 0x171E JUMP JUMPDEST PUSH1 0x40 MLOAD PUSH4 0x16977B95 PUSH1 0xE0 SHL DUP2 MSTORE PUSH1 0x4 SWAP1 REVERT JUMPDEST PUSH1 0x40 MLOAD PUSH4 0x7ABDC0F PUSH1 0xE1 SHL DUP2 MSTORE PUSH1 0x4 SWAP1 REVERT JUMPDEST PUSH1 0x40 MLOAD PUSH3 0xFC7CAD PUSH1 0xE5 SHL DUP2 MSTORE PUSH1 0x4 SWAP1 REVERT JUMPDEST SWAP1 POP DUP6 SGT ISZERO DUP16 PUSH2 0x178A JUMP JUMPDEST SWAP1 SWAP5 POP PUSH2 0x183E SWAP2 POP PUSH1 0xA0 RETURNDATASIZE PUSH1 0xA0 GT PUSH2 0x184B JUMPI JUMPDEST PUSH2 0x1836 DUP2 DUP4 PUSH2 0x39DF JUMP JUMPDEST DUP2 ADD SWAP1 PUSH2 0x3EB2 JUMP JUMPDEST POP SWAP6 SWAP3 POP POP SWAP4 SWAP1 DUP15 PUSH2 0x177A JUMP JUMPDEST POP RETURNDATASIZE PUSH2 0x182C JUMP JUMPDEST PUSH1 0x40 MLOAD RETURNDATASIZE PUSH1 0xA0 MLOAD DUP3 RETURNDATACOPY RETURNDATASIZE SWAP1 REVERT JUMPDEST PUSH1 0xA0 DUP1 SWAP6 POP PUSH2 0x187B SWAP3 SWAP4 POP RETURNDATASIZE DUP7 GT PUSH2 0x184B JUMPI PUSH2 0x1836 DUP2 DUP4 PUSH2 0x39DF JUMP JUMPDEST POP SWAP6 SWAP3 POP POP SWAP4 SWAP2 SWAP1 PUSH2 0x1751 JUMP JUMPDEST POP DUP3 ISZERO ISZERO PUSH2 0x1719 JUMP JUMPDEST PUSH1 0x40 MLOAD PUSH4 0x1087E109 PUSH1 0xE0 SHL DUP2 MSTORE PUSH1 0x4 SWAP1 REVERT JUMPDEST SWAP1 POP DUP8 SGT ISZERO DUP12 PUSH2 0x141F JUMP JUMPDEST SWAP1 SWAP5 POP PUSH2 0x18CB SWAP2 SWAP7 POP PUSH1 0xA0 RETURNDATASIZE PUSH1 0xA0 GT PUSH2 0x184B JUMPI PUSH2 0x1836 DUP2 DUP4 PUSH2 0x39DF JUMP JUMPDEST POP SWAP8 SWAP3 POP POP SWAP6 SWAP4 DUP11 PUSH2 0x140F JUMP JUMPDEST PUSH2 0x18F4 SWAP2 SWAP7 POP PUSH1 0xA0 DUP1 SWAP4 POP RETURNDATASIZE DUP5 GT PUSH2 0x184B JUMPI PUSH2 0x1836 DUP2 DUP4 PUSH2 0x39DF JUMP JUMPDEST POP SWAP4 SWAP3 POP POP SWAP2 SWAP6 SWAP1 PUSH2 0x13E6 JUMP JUMPDEST PUSH1 0x40 MLOAD PUSH4 0xFB94C4ED PUSH1 0xE0 SHL DUP2 MSTORE PUSH1 0x4 SWAP1 REVERT JUMPDEST PUSH1 0x40 MLOAD PUSH4 0x38920627 PUSH1 0xE1 SHL DUP2 MSTORE PUSH1 0x4 SWAP1 REVERT JUMPDEST PUSH1 0x40 MLOAD PUSH4 0x499E7985 PUSH1 0xE0 SHL DUP2 MSTORE PUSH1 0x4 SWAP1 REVERT JUMPDEST PUSH1 0x4 SWAP2 POP GT DUP5 PUSH2 0x11FF JUMP JUMPDEST CALLVALUE PUSH2 0x3C3 JUMPI PUSH1 0x60 CALLDATASIZE PUSH1 0x3 NOT ADD SLT PUSH2 0x3C3 JUMPI PUSH1 0x44 CALLDATALOAD PUSH1 0x24 CALLDATALOAD PUSH1 0x4 CALLDATALOAD PUSH2 0x1964 PUSH2 0x3AF4 JUMP JUMPDEST DUP1 ISZERO PUSH2 0x112A JUMPI PUSH2 0x2710 DUP1 DUP4 GT PUSH2 0x19C2 JUMPI DUP4 GT PUSH2 0x19C2 JUMPI PUSH32 0xC4BA1D97BC3B0F4500ED11CD963F8E6D5F9F47AD9E7E42160E8167E607859C92 SWAP3 PUSH1 0x60 SWAP3 DUP3 PUSH1 0x10 SSTORE DUP1 PUSH1 0x11 SSTORE DUP2 PUSH1 0x12 SSTORE PUSH1 0x40 MLOAD SWAP3 DUP4 MSTORE PUSH1 0x20 DUP4 ADD MSTORE PUSH1 0x40 DUP3 ADD MSTORE LOG1 PUSH1 0xA0 MLOAD DUP1 RETURN JUMPDEST PUSH1 0x40 MLOAD PUSH4 0xC6CC5D7F PUSH1 0xE0 SHL DUP2 MSTORE PUSH1 0x4 SWAP1 REVERT JUMPDEST CALLVALUE PUSH2 0x3C3 JUMPI PUSH1 0xA0 MLOAD DUP1 PUSH1 0x3 NOT CALLDATASIZE ADD SLT PUSH2 0x3C0 JUMPI PUSH1 0x20 PUSH1 0xFF PUSH1 0x1C SLOAD PUSH1 0x18 SHR AND PUSH1 0x40 MLOAD SWAP1 ISZERO ISZERO DUP2 MSTORE RETURN JUMPDEST CALLVALUE PUSH2 0x3C3 JUMPI PUSH1 0x40 CALLDATASIZE PUSH1 0x3 NOT ADD SLT PUSH2 0x3C3 JUMPI PUSH2 0x1A15 PUSH2 0x382E JUMP JUMPDEST PUSH2 0x1A1D PUSH2 0x3869 JUMP JUMPDEST SWAP1 PUSH2 0x1A26 PUSH2 0x3AF4 JUMP JUMPDEST PUSH1 0x1 PUSH1 0x1 PUSH1 0xA0 SHL SUB AND SWAP1 DUP2 ISZERO PUSH2 0x777 JUMPI PUSH1 0x20 PUSH32 0x4E64F955F4C1A97A6779D936A2FE8F59E1674F3E1A4C883736B9131969860A89 SWAP2 DUP4 PUSH1 0xA0 MLOAD MSTORE PUSH1 0x2 DUP3 MSTORE PUSH2 0x1A7E DUP2 PUSH1 0x40 PUSH1 0xA0 MLOAD KECCAK256 SWAP1 PUSH1 0xFF DUP1 NOT DUP4 SLOAD AND SWAP2 ISZERO ISZERO AND OR SWAP1 SSTORE JUMP JUMPDEST PUSH1 0x40 MLOAD SWAP1 ISZERO ISZERO DUP2 MSTORE LOG2 PUSH1 0xA0 MLOAD DUP1 RETURN JUMPDEST CALLVALUE PUSH2 0x3C3 JUMPI PUSH1 0x20 CALLDATASIZE PUSH1 0x3 NOT ADD SLT PUSH2 0x3C3 JUMPI PUSH1 0x20 PUSH1 0x1 PUSH1 0x1 PUSH1 0xA0 SHL SUB DUP1 PUSH2 0x1AB1 PUSH2 0x382E JUMP JUMPDEST AND PUSH1 0xA0 MLOAD MSTORE PUSH1 0x3 DUP3 MSTORE PUSH1 0x40 PUSH1 0xA0 MLOAD KECCAK256 SLOAD AND PUSH1 0x40 MLOAD SWAP1 DUP2 MSTORE RETURN JUMPDEST CALLVALUE PUSH2 0x3C3 JUMPI PUSH2 0x1AD8 CALLDATASIZE PUSH2 0x392F JUMP JUMPDEST PUSH2 0x1AE0 PUSH2 0x3AF4 JUMP JUMPDEST PUSH1 0x1 PUSH1 0x1 PUSH1 0xA0 SHL SUB AND DUP1 ISZERO PUSH2 0x1B3C JUMPI PUSH2 0x1AF8 DUP3 PUSH2 0x3918 JUMP JUMPDEST DUP1 SLOAD PUSH1 0x1 PUSH1 0x1 PUSH1 0xA0 SHL SUB NOT AND DUP3 OR SWAP1 SSTORE PUSH1 0x2 DUP3 LT ISZERO PUSH2 0xBE2 JUMPI PUSH1 0xA0 MLOAD SWAP2 PUSH32 0x57192F60821083A491842D60A388A6427B0B757E252DCA6E02933C473A93CEE4 DUP4 DUP1 LOG3 DUP1 RETURN JUMPDEST PUSH1 0x40 MLOAD PUSH4 0xC3A97787 PUSH1 0xE0 SHL DUP2 MSTORE PUSH1 0x4 SWAP1 REVERT JUMPDEST CALLVALUE PUSH2 0x3C3 JUMPI PUSH1 0xA0 MLOAD DUP1 PUSH1 0x3 NOT CALLDATASIZE ADD SLT PUSH2 0x3C0 JUMPI PUSH1 0x20 PUSH1 0x1B SLOAD PUSH1 0x40 MLOAD SWAP1 DUP2 MSTORE RETURN JUMPDEST CALLVALUE PUSH2 0x3C3 JUMPI PUSH1 0x20 CALLDATASIZE PUSH1 0x3 NOT ADD SLT PUSH2 0x3C3 JUMPI PUSH1 0x4 CALLDATALOAD SWAP1 PUSH2 0x1B8B PUSH2 0x3AF4 JUMP JUMPDEST PUSH1 0x1E SLOAD SWAP1 DUP2 DUP4 LT ISZERO PUSH2 0x422 JUMPI PUSH0 NOT SWAP2 DUP1 DUP4 ADD SWAP1 DUP2 GT PUSH2 0xD24 JUMPI DUP1 DUP5 SUB PUSH2 0x1C63 JUMPI JUMPDEST POP PUSH1 0x1E SLOAD DUP3 DUP2 ADD SWAP1 DUP2 GT PUSH2 0xD24 JUMPI PUSH1 0xA0 MLOAD MSTORE PUSH1 0x1D PUSH1 0x20 MSTORE PUSH1 0xA0 MLOAD DUP1 SWAP2 PUSH1 0x40 DUP3 KECCAK256 SWAP1 DUP3 DUP3 SSTORE PUSH1 0x1 SWAP1 DUP2 DUP4 ADD SWAP1 DUP2 SLOAD SWAP2 DUP2 DUP2 SSTORE DUP3 PUSH2 0x1C43 JUMPI JUMPDEST POP POP POP POP DUP1 DUP3 PUSH1 0x2 PUSH1 0x3 SWAP4 ADD SSTORE ADD SSTORE PUSH1 0x1E SLOAD SWAP1 DUP2 ISZERO PUSH2 0x1C2C JUMPI POP ADD PUSH1 0x1E SSTORE PUSH1 0xA0 MLOAD SWAP1 PUSH32 0xB951847F829979E971D5CE4C1F1B122A2E98F1D0C39E395AAEBFF750DA9F86BF DUP3 DUP1 LOG2 DUP1 RETURN JUMPDEST PUSH4 0x4E487B71 PUSH1 0xE0 SHL SWAP1 MSTORE PUSH1 0x11 PUSH1 0x4 MSTORE PUSH1 0xA0 MLOAD PUSH1 0x24 SWAP1 REVERT JUMPDEST DUP2 MSTORE PUSH1 0x20 DUP2 KECCAK256 SWAP2 DUP3 ADD SWAP2 JUMPDEST DUP3 DUP2 LT ISZERO PUSH2 0x1BE3 JUMPI DUP2 DUP2 SSTORE DUP7 SWAP6 POP DUP4 ADD PUSH2 0x1C4E JUMP JUMPDEST PUSH1 0xA0 MLOAD MSTORE PUSH1 0x1D PUSH1 0x20 MSTORE PUSH1 0xA0 MLOAD DUP4 PUSH1 0x40 DUP3 KECCAK256 SWAP2 MSTORE PUSH1 0x40 PUSH1 0xA0 MLOAD KECCAK256 SWAP1 DUP1 DUP3 SUB PUSH2 0x1C9F JUMPI JUMPDEST POP POP DUP3 PUSH1 0xA0 MLOAD MSTORE PUSH1 0x1D PUSH1 0x20 MSTORE DUP3 PUSH1 0x40 PUSH1 0xA0 MLOAD KECCAK256 SSTORE DUP4 PUSH2 0x1BAC JUMP JUMPDEST PUSH1 0xFF PUSH1 0x3 DUP1 PUSH2 0x1CE1 SWAP5 DUP5 SLOAD DUP2 SSTORE PUSH2 0x1CBC PUSH1 0x1 DUP7 ADD PUSH1 0x1 DUP4 ADD PUSH2 0x46FB JUMP JUMPDEST PUSH1 0x2 DUP6 ADD SLOAD PUSH1 0x2 DUP3 ADD SSTORE ADD SWAP3 ADD PUSH2 0x1CD6 DUP3 DUP3 SLOAD AND DUP5 PUSH2 0x4699 JUMP JUMPDEST SLOAD PUSH1 0x8 SHR AND SWAP1 PUSH2 0x46B1 JUMP JUMPDEST DUP4 DUP1 PUSH2 0x1C85 JUMP JUMPDEST CALLVALUE PUSH2 0x3C3 JUMPI PUSH1 0x40 CALLDATASIZE PUSH1 0x3 NOT ADD SLT PUSH2 0x3C3 JUMPI PUSH2 0x1D01 PUSH2 0x382E JUMP JUMPDEST PUSH2 0x1D09 PUSH2 0x3844 JUMP JUMPDEST SWAP1 PUSH2 0x1D12 PUSH2 0x3AF4 JUMP JUMPDEST PUSH1 0x1 PUSH1 0x1 PUSH1 0xA0 SHL SUB SWAP1 DUP2 AND SWAP2 DUP3 ISZERO PUSH2 0x1D74 JUMPI AND DUP1 ISZERO PUSH2 0x777 JUMPI DUP1 PUSH1 0x1 PUSH1 0x1 PUSH1 0x60 SHL SUB PUSH1 0xA0 SHL DUP4 DUP2 PUSH1 0xA SLOAD AND OR PUSH1 0xA SSTORE PUSH1 0xB SLOAD AND OR PUSH1 0xB SSTORE PUSH1 0xA0 MLOAD SWAP2 PUSH32 0xFCFCEDFAFA92882DEF30B16E239A0C0512FD0CB251876B2709BE862356873E89 DUP4 DUP1 LOG3 DUP1 RETURN JUMPDEST PUSH1 0x40 MLOAD PUSH4 0x3B136DC1 PUSH1 0xE1 SHL DUP2 MSTORE PUSH1 0x4 SWAP1 REVERT JUMPDEST CALLVALUE PUSH2 0x3C3 JUMPI PUSH1 0x40 CALLDATASIZE PUSH1 0x3 NOT ADD SLT PUSH2 0x3C3 JUMPI PUSH2 0x1D9F PUSH2 0x382E JUMP JUMPDEST PUSH2 0x1DA7 PUSH2 0x3869 JUMP JUMPDEST SWAP1 PUSH2 0x1DB0 PUSH2 0x3AF4 JUMP JUMPDEST PUSH1 0x1 PUSH1 0x1 PUSH1 0xA0 SHL SUB AND SWAP1 DUP2 ISZERO PUSH2 0x8DA JUMPI PUSH1 0x20 PUSH32 0xCF2B36BF2AA8353623D06F58EAB9577176D9214E588362C013A7EEB0586463F1 SWAP2 DUP4 PUSH1 0xA0 MLOAD MSTORE PUSH1 0x8 DUP3 MSTORE PUSH2 0x1A7E DUP2 PUSH1 0x40 PUSH1 0xA0 MLOAD KECCAK256 SWAP1 PUSH1 0xFF DUP1 NOT DUP4 SLOAD AND SWAP2 ISZERO ISZERO AND OR SWAP1 SSTORE JUMP JUMPDEST CALLVALUE PUSH2 0x3C3 JUMPI PUSH1 0x20 CALLDATASIZE PUSH1 0x3 NOT ADD SLT PUSH2 0x3C3 JUMPI PUSH1 0x1 PUSH1 0x1 PUSH1 0xA0 SHL SUB PUSH2 0x1E29 PUSH2 0x382E JUMP JUMPDEST AND PUSH1 0xA0 MLOAD MSTORE PUSH1 0x5 PUSH1 0x20 MSTORE PUSH1 0x20 PUSH1 0xFF PUSH1 0x40 PUSH1 0xA0 MLOAD KECCAK256 SLOAD AND PUSH1 0x40 MLOAD SWAP1 DUP2 MSTORE RETURN JUMPDEST CALLVALUE PUSH2 0x3C3 JUMPI PUSH1 0xA0 MLOAD DUP1 PUSH1 0x3 NOT CALLDATASIZE ADD SLT PUSH2 0x3C0 JUMPI PUSH1 0x1 SLOAD PUSH1 0x40 MLOAD PUSH1 0x1 PUSH1 0x1 PUSH1 0xA0 SHL SUB SWAP1 SWAP2 AND DUP2 MSTORE PUSH1 0x20 SWAP1 RETURN JUMPDEST CALLVALUE PUSH2 0x3C3 JUMPI PUSH1 0xA0 MLOAD DUP1 PUSH1 0x3 NOT CALLDATASIZE ADD SLT PUSH2 0x3C0 JUMPI PUSH1 0x20 PUSH1 0x11 SLOAD PUSH1 0x40 MLOAD SWAP1 DUP2 MSTORE RETURN JUMPDEST CALLVALUE PUSH2 0x3C3 JUMPI PUSH1 0xA0 MLOAD DUP1 PUSH1 0x3 NOT CALLDATASIZE ADD SLT PUSH2 0x3C0 JUMPI PUSH1 0x1F SLOAD PUSH1 0x40 MLOAD PUSH1 0x1 PUSH1 0x1 PUSH1 0xA0 SHL SUB SWAP1 SWAP2 AND DUP2 MSTORE PUSH1 0x20 SWAP1 RETURN JUMPDEST CALLVALUE PUSH2 0x3C3 JUMPI PUSH1 0x20 CALLDATASIZE PUSH1 0x3 NOT ADD SLT PUSH2 0x3C3 JUMPI PUSH32 0xEA86E89CF5FBA25D3B8F536E16C9354E32E76BA51D17E76899351A91F64F945D PUSH1 0x20 PUSH2 0x1EF9 PUSH2 0x385A JUMP JUMPDEST PUSH2 0x1F01 PUSH2 0x3AF4 JUMP JUMPDEST ISZERO ISZERO PUSH1 0x1C SLOAD PUSH2 0xFF00 DUP3 PUSH1 0x8 SHL AND SWAP1 PUSH2 0xFF00 NOT AND OR PUSH1 0x1C SSTORE PUSH1 0x40 MLOAD SWAP1 DUP2 MSTORE LOG1 PUSH1 0xA0 MLOAD DUP1 RETURN JUMPDEST CALLVALUE PUSH2 0x3C3 JUMPI PUSH1 0x20 CALLDATASIZE PUSH1 0x3 NOT ADD SLT PUSH2 0x3C3 JUMPI PUSH32 0x16AFAE5B6EF5F079DC6A18D4AE705F5D2DB0FC0831B74DEE550D9FC0F80EB5DD PUSH1 0x20 PUSH2 0x1F61 PUSH2 0x385A JUMP JUMPDEST PUSH2 0x1F69 PUSH2 0x3AF4 JUMP JUMPDEST ISZERO ISZERO PUSH1 0xFF NOT PUSH1 0x1C SLOAD AND PUSH1 0xFF DUP3 AND OR PUSH1 0x1C SSTORE PUSH1 0x40 MLOAD SWAP1 DUP2 MSTORE LOG1 PUSH1 0xA0 MLOAD DUP1 RETURN JUMPDEST CALLVALUE PUSH2 0x3C3 JUMPI PUSH1 0xA0 CALLDATASIZE PUSH1 0x3 NOT ADD SLT PUSH2 0x3C3 JUMPI PUSH1 0x24 PUSH1 0x1 PUSH1 0x1 PUSH1 0x40 SHL SUB DUP2 CALLDATALOAD DUP2 DUP2 GT PUSH2 0x3C3 JUMPI PUSH2 0x1FB9 SWAP1 CALLDATASIZE SWAP1 PUSH1 0x4 ADD PUSH2 0x37FA JUMP JUMPDEST PUSH1 0x64 SWAP3 SWAP2 SWAP3 CALLDATALOAD PUSH1 0x2 SWAP5 DUP6 DUP3 LT ISZERO PUSH2 0x3C3 JUMPI PUSH1 0x84 CALLDATALOAD DUP7 DUP2 LT ISZERO PUSH2 0x3C3 JUMPI PUSH2 0x1FDD PUSH2 0x3AF4 JUMP JUMPDEST DUP7 DUP5 LT DUP1 ISZERO PUSH2 0x22A3 JUMPI JUMPDEST PUSH2 0xD8A JUMPI PUSH1 0x1E SLOAD SWAP6 PUSH1 0x4 CALLDATALOAD SWAP7 DUP8 LT ISZERO PUSH2 0x422 JUMPI DUP5 ISZERO PUSH2 0x228C JUMPI PUSH2 0x2009 DUP2 PUSH2 0x463E JUMP JUMPDEST SWAP1 PUSH0 NOT DUP7 ADD DUP7 DUP2 GT SWAP1 DUP2 PUSH2 0x2275 JUMPI PUSH1 0x1 PUSH1 0x1 PUSH1 0xA0 SHL SUB SWAP4 DUP5 DUP1 PUSH2 0x2030 PUSH2 0x6AE DUP6 DUP14 DUP10 PUSH2 0x462E JUMP JUMPDEST AND SWAP2 AND SUB PUSH2 0xD60 JUMPI DUP4 PUSH2 0x2042 DUP9 PUSH2 0x3901 JUMP JUMPDEST SLOAD AND ISZERO PUSH2 0x617 JUMPI DUP4 PUSH2 0x2053 DUP7 PUSH2 0x3901 JUMP JUMPDEST SLOAD AND ISZERO PUSH2 0x617 JUMPI PUSH1 0xA0 MLOAD JUMPDEST DUP9 DUP2 LT PUSH2 0x21BF JUMPI POP POP POP PUSH2 0x2083 PUSH1 0x40 MLOAD SWAP2 PUSH2 0x2078 DUP4 PUSH2 0x398E JUMP JUMPDEST DUP10 DUP4 MSTORE DUP8 CALLDATASIZE SWAP2 PUSH2 0x3A17 JUMP JUMPDEST SWAP7 PUSH1 0x20 SWAP8 DUP9 DUP4 ADD SWAP1 DUP2 MSTORE PUSH1 0x40 DUP4 ADD SWAP2 PUSH1 0x44 CALLDATALOAD DUP4 MSTORE PUSH2 0x20A5 PUSH1 0x60 DUP6 ADD SWAP9 DUP10 PUSH2 0x4051 JUMP JUMPDEST PUSH2 0x20B3 PUSH1 0x80 DUP6 ADD SWAP7 DUP8 PUSH2 0x4051 JUMP JUMPDEST DUP11 PUSH1 0xA0 MLOAD MSTORE PUSH1 0x1D DUP11 MSTORE PUSH1 0xA0 MLOAD SWAP2 PUSH1 0x40 DUP4 KECCAK256 SWAP5 MLOAD DUP6 SSTORE PUSH1 0x1 SWAP3 DUP4 DUP7 ADD SWAP2 MLOAD SWAP1 DUP2 MLOAD SWAP4 DUP5 GT PUSH2 0x21A9 JUMPI POP DUP12 SWAP1 PUSH2 0x20E7 DUP5 DUP5 PUSH2 0x4652 JUMP JUMPDEST ADD SWAP1 PUSH1 0xA0 MLOAD MSTORE PUSH1 0xA0 MLOAD SWAP6 DUP12 DUP8 KECCAK256 SWAP1 DUP8 JUMPDEST DUP14 DUP6 DUP3 LT PUSH2 0x2195 JUMPI POP POP POP POP POP POP POP SWAP1 PUSH1 0x3 SWAP2 MLOAD DUP11 DUP3 ADD SSTORE ADD SWAP4 MLOAD SWAP1 DUP9 DUP3 LT ISZERO PUSH2 0x217F JUMPI POP PUSH2 0x2126 SWAP1 DUP5 PUSH2 0x4699 JUMP JUMPDEST MLOAD SWAP6 DUP7 LT ISZERO PUSH2 0x2169 JUMPI POP PUSH32 0x43AFC9E063BEAEA4354EC60D8BC6C76E9BA2376CA51443FC69A6EFD689A7282A SWAP4 SWAP5 PUSH2 0x215C SWAP2 PUSH2 0x46B1 JUMP JUMPDEST PUSH1 0x40 MLOAD SWAP1 DUP2 MSTORE LOG2 PUSH1 0xA0 MLOAD DUP1 RETURN JUMPDEST PUSH1 0xA0 DUP1 MLOAD PUSH4 0x4E487B71 PUSH1 0xE0 SHL SWAP1 MSTORE PUSH1 0x21 PUSH1 0x4 MSTORE MLOAD REVERT JUMPDEST PUSH4 0x4E487B71 PUSH1 0xE0 SHL SWAP1 MSTORE PUSH1 0x21 PUSH1 0x4 MSTORE PUSH1 0xA0 MLOAD DUP4 SWAP1 REVERT JUMPDEST SWAP1 DUP7 SWAP2 DUP4 DUP7 MLOAD AND SWAP6 ADD SWAP5 DUP2 DUP6 ADD SSTORE ADD PUSH2 0x20F7 JUMP JUMPDEST PUSH4 0x4E487B71 PUSH1 0xE0 SHL SWAP1 MSTORE PUSH1 0x41 PUSH1 0x4 MSTORE PUSH1 0xA0 MLOAD DUP10 SWAP1 REVERT JUMPDEST DUP5 PUSH2 0x21CE PUSH2 0x6AE DUP4 DUP13 DUP9 PUSH2 0x462E JUMP JUMPDEST AND ISZERO PUSH2 0xD4E JUMPI PUSH2 0x21E5 PUSH2 0xC63 PUSH2 0x6AE DUP4 DUP13 DUP9 PUSH2 0x462E JUMP JUMPDEST ISZERO PUSH2 0xD3C JUMPI PUSH1 0x1 DUP1 DUP3 ADD DUP1 DUP4 GT PUSH2 0x225E JUMPI DUP5 DUP3 JUMPDEST PUSH2 0x220F JUMPI JUMPDEST POP POP POP PUSH2 0x220A SWAP1 PUSH2 0x3B86 JUMP JUMPDEST PUSH2 0x205E JUMP JUMPDEST PUSH2 0x225E JUMPI DUP11 DUP8 DUP8 DUP7 DUP5 LT ISZERO PUSH2 0x2255 JUMPI PUSH2 0x223B PUSH2 0x6AE DUP6 PUSH2 0x2234 PUSH2 0x6AE DUP11 DUP9 DUP9 SWAP8 PUSH2 0x462E JUMP JUMPDEST SWAP6 DUP13 PUSH2 0x462E JUMP JUMPDEST AND SWAP2 AND EQ PUSH2 0xD0D JUMPI PUSH2 0x224D DUP3 SWAP2 PUSH2 0x3B86 JUMP JUMPDEST SWAP1 DUP6 SWAP1 PUSH2 0x21F9 JUMP JUMPDEST POP POP POP DUP5 PUSH2 0x21FE JUMP JUMPDEST DUP9 PUSH4 0x4E487B71 PUSH1 0xE0 SHL PUSH1 0xA0 MLOAD MSTORE PUSH1 0x11 PUSH1 0x4 MSTORE PUSH1 0xA0 MLOAD REVERT JUMPDEST DUP6 PUSH4 0x4E487B71 PUSH1 0xE0 SHL PUSH1 0xA0 MLOAD MSTORE PUSH1 0x11 PUSH1 0x4 MSTORE PUSH1 0xA0 MLOAD REVERT JUMPDEST DUP3 PUSH4 0x4E487B71 PUSH1 0xE0 SHL PUSH1 0xA0 MLOAD MSTORE PUSH1 0x32 PUSH1 0x4 MSTORE PUSH1 0xA0 MLOAD REVERT JUMPDEST POP PUSH1 0x4 DUP5 GT PUSH2 0x1FE7 JUMP JUMPDEST CALLVALUE PUSH2 0x3C3 JUMPI PUSH1 0x20 CALLDATASIZE PUSH1 0x3 NOT ADD SLT PUSH2 0x3C3 JUMPI PUSH1 0x20 PUSH2 0x22D0 PUSH2 0x22CB PUSH2 0x382E JUMP JUMPDEST PUSH2 0x4770 JUMP JUMPDEST PUSH1 0xFF PUSH1 0x40 MLOAD SWAP2 AND DUP2 MSTORE RETURN JUMPDEST CALLVALUE PUSH2 0x3C3 JUMPI PUSH1 0x20 CALLDATASIZE PUSH1 0x3 NOT ADD SLT PUSH2 0x3C3 JUMPI PUSH1 0x4 CALLDATALOAD PUSH1 0x2 DUP2 LT ISZERO PUSH2 0x3C3 JUMPI PUSH1 0x20 SWAP1 PUSH1 0x1 PUSH1 0x1 PUSH1 0xA0 SHL SUB SWAP1 PUSH2 0x65B SWAP1 PUSH2 0x3901 JUMP JUMPDEST CALLVALUE PUSH2 0x3C3 JUMPI PUSH1 0x40 CALLDATASIZE PUSH1 0x3 NOT ADD SLT PUSH2 0x3C3 JUMPI PUSH2 0x2326 PUSH2 0x382E JUMP JUMPDEST PUSH2 0x232E PUSH2 0x3844 JUMP JUMPDEST SWAP1 PUSH2 0x2337 PUSH2 0x3AF4 JUMP JUMPDEST PUSH1 0x1 PUSH1 0x1 PUSH1 0xA0 SHL SUB SWAP1 DUP2 AND SWAP2 DUP3 ISZERO PUSH2 0x777 JUMPI AND DUP1 ISZERO PUSH2 0x765 JUMPI PUSH1 0xA0 DUP1 MLOAD DUP4 SWAP1 MSTORE PUSH1 0x3 PUSH1 0x20 MSTORE MLOAD PUSH1 0x40 DUP2 KECCAK256 DUP1 SLOAD PUSH1 0x1 PUSH1 0x1 PUSH1 0xA0 SHL SUB NOT AND DUP4 OR SWAP1 SSTORE SWAP2 PUSH32 0xD2D8394CF7549A5DDBC2BA3DD7B2DE8D53C891472D1F2907008ED6A10045FDAE DUP4 DUP1 LOG3 DUP1 RETURN JUMPDEST CALLVALUE PUSH2 0x3C3 JUMPI PUSH1 0x20 CALLDATASIZE PUSH1 0x3 NOT ADD SLT PUSH2 0x3C3 JUMPI PUSH1 0x20 PUSH2 0x23B7 PUSH2 0xC63 PUSH2 0x382E JUMP JUMPDEST PUSH1 0x40 MLOAD SWAP1 ISZERO ISZERO DUP2 MSTORE RETURN JUMPDEST CALLVALUE PUSH2 0x3C3 JUMPI PUSH1 0xA0 MLOAD DUP1 PUSH1 0x3 NOT CALLDATASIZE ADD SLT PUSH2 0x3C0 JUMPI PUSH1 0x20 PUSH1 0x18 SLOAD PUSH1 0x40 MLOAD SWAP1 DUP2 MSTORE RETURN JUMPDEST CALLVALUE PUSH2 0x3C3 JUMPI PUSH1 0x20 CALLDATASIZE PUSH1 0x3 NOT ADD SLT PUSH2 0x3C3 JUMPI PUSH1 0x4 CALLDATALOAD PUSH1 0xA0 MLOAD MSTORE PUSH1 0x1D PUSH1 0x20 MSTORE PUSH1 0x80 PUSH1 0x40 PUSH1 0xA0 MLOAD KECCAK256 PUSH2 0x2442 DUP2 SLOAD SWAP2 PUSH1 0x3 PUSH1 0x2 DUP3 ADD SLOAD SWAP2 ADD SLOAD SWAP1 PUSH1 0x40 MLOAD SWAP4 DUP5 MSTORE PUSH1 0x20 DUP5 ADD MSTORE PUSH2 0x2432 PUSH1 0x40 DUP5 ADD PUSH1 0xFF DUP4 AND PUSH2 0x38E0 JUMP JUMPDEST PUSH1 0xFF PUSH1 0x60 DUP5 ADD SWAP2 PUSH1 0x8 SHR AND PUSH2 0x38E0 JUMP JUMPDEST RETURN JUMPDEST CALLVALUE PUSH2 0x3C3 JUMPI PUSH1 0xA0 MLOAD DUP1 PUSH1 0x3 NOT CALLDATASIZE ADD SLT PUSH2 0x3C0 JUMPI POP PUSH2 0x2460 PUSH2 0x3AF4 JUMP JUMPDEST PUSH1 0x1 DUP1 SLOAD PUSH1 0x1 PUSH1 0x1 PUSH1 0xA0 SHL SUB NOT DUP2 AND SWAP1 SWAP2 SSTORE PUSH1 0x1 PUSH1 0x1 PUSH1 0xA0 SHL SUB AND PUSH32 0x8BE0079C531659141344CD1FD0A4F28419497F9722A3DAAFE3B4186F6B6457E0 DUP3 DUP1 LOG3 PUSH1 0xA0 MLOAD DUP1 RETURN JUMPDEST CALLVALUE PUSH2 0x3C3 JUMPI PUSH1 0x20 DUP1 PUSH1 0x3 NOT CALLDATASIZE ADD SLT PUSH2 0x3C3 JUMPI PUSH2 0x24BF PUSH2 0x382E JUMP JUMPDEST SWAP1 PUSH2 0x24C8 PUSH2 0x3AF4 JUMP JUMPDEST PUSH1 0x1 PUSH1 0x1 PUSH1 0xA0 SHL SUB SWAP2 DUP3 AND SWAP3 DUP4 ISZERO PUSH2 0x777 JUMPI PUSH1 0x40 MLOAD PUSH4 0x70A08231 PUSH1 0xE0 SHL DUP2 MSTORE ADDRESS PUSH1 0x4 DUP3 ADD MSTORE DUP3 DUP2 PUSH1 0x24 DUP2 DUP9 GAS STATICCALL SWAP2 DUP3 ISZERO PUSH2 0x1852 JUMPI PUSH1 0xA0 MLOAD SWAP3 PUSH2 0x253D JUMPI JUMPDEST POP POP DUP1 ISZERO PUSH2 0x822 JUMPI PUSH2 0x215C DUP2 PUSH32 0x23D6711A1D031134A36921253C75AA59E967D38E369AC625992824315E204F20 SWAP5 PUSH1 0x1 SLOAD AND DUP7 PUSH2 0x415B JUMP JUMPDEST SWAP1 SWAP2 POP DUP3 DUP3 DUP2 RETURNDATASIZE DUP4 GT PUSH2 0x2566 JUMPI JUMPDEST PUSH2 0x2555 DUP2 DUP4 PUSH2 0x39DF JUMP JUMPDEST DUP2 ADD SUB SLT PUSH2 0x3C0 JUMPI POP MLOAD DUP5 DUP1 PUSH2 0x2505 JUMP JUMPDEST POP RETURNDATASIZE PUSH2 0x254B JUMP JUMPDEST CALLVALUE PUSH2 0x3C3 JUMPI PUSH2 0x257B CALLDATASIZE PUSH2 0x38C2 JUMP JUMPDEST SWAP3 SWAP1 PUSH2 0x2585 PUSH2 0x3AF4 JUMP JUMPDEST PUSH2 0x2710 DUP1 DUP4 GT PUSH2 0x19C2 JUMPI DUP1 DUP5 GT PUSH2 0x19C2 JUMPI DUP2 GT PUSH2 0x19C2 JUMPI DUP4 ISZERO PUSH2 0x112A JUMPI PUSH32 0x48CD2C7B7B236A850D5216488FE784FB3B0F4647DF68795DF7B66BCFCBFBFFDE SWAP4 PUSH2 0x25FB SWAP2 DUP4 PUSH1 0x14 SSTORE DUP5 PUSH1 0x15 SSTORE DUP1 PUSH1 0x16 SSTORE DUP2 PUSH1 0x17 SSTORE PUSH1 0x40 MLOAD SWAP5 DUP6 SWAP5 DUP6 SWAP1 SWAP5 SWAP4 SWAP3 PUSH1 0x60 SWAP3 PUSH1 0x80 DUP4 ADD SWAP7 DUP4 MSTORE PUSH1 0x20 DUP4 ADD MSTORE PUSH1 0x40 DUP3 ADD MSTORE ADD MSTORE JUMP JUMPDEST SUB SWAP1 LOG1 PUSH1 0xA0 MLOAD DUP1 RETURN JUMPDEST CALLVALUE PUSH2 0x3C3 JUMPI PUSH1 0xA0 MLOAD DUP1 PUSH1 0x3 NOT CALLDATASIZE ADD SLT PUSH2 0x3C0 JUMPI PUSH1 0x20 PUSH1 0xFF PUSH1 0x1C SLOAD PUSH1 0x8 SHR AND PUSH1 0x40 MLOAD SWAP1 ISZERO ISZERO DUP2 MSTORE RETURN JUMPDEST CALLVALUE PUSH2 0x3C3 JUMPI PUSH1 0x20 CALLDATASIZE PUSH1 0x3 NOT ADD SLT PUSH2 0x3C3 JUMPI PUSH1 0x1 PUSH1 0x1 PUSH1 0xA0 SHL SUB PUSH2 0x264D PUSH2 0x382E JUMP JUMPDEST AND PUSH1 0xA0 MLOAD MSTORE PUSH1 0x2 PUSH1 0x20 MSTORE PUSH1 0x20 PUSH1 0xFF PUSH1 0x40 PUSH1 0xA0 MLOAD KECCAK256 SLOAD AND PUSH1 0x40 MLOAD SWAP1 ISZERO ISZERO DUP2 MSTORE RETURN JUMPDEST CALLVALUE PUSH2 0x3C3 JUMPI PUSH2 0x267B CALLDATASIZE PUSH2 0x38C2 JUMP JUMPDEST SWAP3 SWAP1 PUSH2 0x2685 PUSH2 0x3AF4 JUMP JUMPDEST PUSH2 0x2710 DUP1 DUP4 GT PUSH2 0x19C2 JUMPI DUP4 GT PUSH2 0x19C2 JUMPI DUP1 ISZERO PUSH2 0x112A JUMPI DUP4 ISZERO PUSH2 0x112A JUMPI PUSH32 0x5D3C7B528485E17FE0314971648177A48225C729BB2270E5426AD03876EB0889 SWAP4 PUSH2 0x25FB SWAP2 DUP4 PUSH1 0xC SSTORE DUP5 PUSH1 0xD SSTORE DUP1 PUSH1 0xE SSTORE DUP2 PUSH1 0xF SSTORE PUSH1 0x40 MLOAD SWAP5 DUP6 SWAP5 DUP6 SWAP1 SWAP5 SWAP4 SWAP3 PUSH1 0x60 SWAP3 PUSH1 0x80 DUP4 ADD SWAP7 DUP4 MSTORE PUSH1 0x20 DUP4 ADD MSTORE PUSH1 0x40 DUP3 ADD MSTORE ADD MSTORE JUMP JUMPDEST CALLVALUE PUSH2 0x3C3 JUMPI PUSH1 0xA0 MLOAD DUP1 PUSH1 0x3 NOT CALLDATASIZE ADD SLT PUSH2 0x3C0 JUMPI PUSH1 0x20 PUSH1 0xFF PUSH1 0x1C SLOAD PUSH1 0x10 SHR AND PUSH1 0x40 MLOAD SWAP1 ISZERO ISZERO DUP2 MSTORE RETURN JUMPDEST CALLVALUE PUSH2 0x3C3 JUMPI PUSH1 0x40 CALLDATASIZE PUSH1 0x3 NOT ADD SLT PUSH2 0x3C3 JUMPI PUSH2 0x273B PUSH2 0x382E JUMP JUMPDEST PUSH1 0x24 CALLDATALOAD SWAP1 PUSH1 0xFF DUP3 AND DUP1 SWAP3 SUB PUSH2 0x3C3 JUMPI PUSH2 0x2752 PUSH2 0x3AF4 JUMP JUMPDEST PUSH1 0x1 PUSH1 0x1 PUSH1 0xA0 SHL SUB AND SWAP1 DUP2 ISZERO PUSH2 0x777 JUMPI PUSH1 0x20 PUSH32 0x30ADBAF26412995F345016C0844D56D7A715A5BD3B66BCF2AAAE58185D0EE0A8 SWAP2 DUP4 PUSH1 0xA0 MLOAD MSTORE PUSH1 0x5 DUP3 MSTORE PUSH1 0x40 PUSH1 0xA0 MLOAD KECCAK256 DUP2 PUSH1 0xFF NOT DUP3 SLOAD AND OR SWAP1 SSTORE PUSH1 0x40 MLOAD SWAP1 DUP2 MSTORE LOG2 PUSH1 0xA0 MLOAD DUP1 RETURN JUMPDEST CALLVALUE PUSH2 0x3C3 JUMPI PUSH1 0xA0 MLOAD DUP1 PUSH1 0x3 NOT CALLDATASIZE ADD SLT PUSH2 0x3C0 JUMPI PUSH1 0x20 PUSH1 0x16 SLOAD PUSH1 0x40 MLOAD SWAP1 DUP2 MSTORE RETURN JUMPDEST CALLVALUE PUSH2 0x3C3 JUMPI PUSH1 0xA0 MLOAD DUP1 PUSH1 0x3 NOT CALLDATASIZE ADD SLT PUSH2 0x3C0 JUMPI PUSH1 0x20 PUSH1 0x15 SLOAD PUSH1 0x40 MLOAD SWAP1 DUP2 MSTORE RETURN JUMPDEST CALLVALUE PUSH2 0x3C3 JUMPI PUSH1 0xA0 MLOAD DUP1 PUSH1 0x3 NOT CALLDATASIZE ADD SLT PUSH2 0x3C0 JUMPI PUSH1 0x20 PUSH1 0x14 SLOAD PUSH1 0x40 MLOAD SWAP1 DUP2 MSTORE RETURN JUMPDEST CALLVALUE PUSH2 0x3C3 JUMPI PUSH1 0x20 CALLDATASIZE PUSH1 0x3 NOT ADD SLT PUSH2 0x3C3 JUMPI PUSH1 0x4 CALLDATALOAD PUSH2 0x2828 PUSH2 0x3AF4 JUMP JUMPDEST PUSH2 0x1388 DUP2 GT PUSH2 0x2866 JUMPI PUSH1 0x20 DUP2 PUSH32 0x3E92C8431D3AA0C589FF26250DD58A7A032B87A26DDB0E2A1DCB0C218DFA7928 SWAP3 PUSH1 0x1B SSTORE PUSH1 0x40 MLOAD SWAP1 DUP2 MSTORE LOG1 PUSH1 0xA0 MLOAD DUP1 RETURN JUMPDEST PUSH1 0x40 MLOAD PUSH4 0x97DCE8A7 PUSH1 0xE0 SHL DUP2 MSTORE PUSH1 0x4 SWAP1 REVERT JUMPDEST CALLVALUE PUSH2 0x3C3 JUMPI PUSH1 0xA0 MLOAD DUP1 PUSH1 0x3 NOT CALLDATASIZE ADD SLT PUSH2 0x3C0 JUMPI PUSH1 0xB SLOAD PUSH1 0x40 MLOAD PUSH1 0x1 PUSH1 0x1 PUSH1 0xA0 SHL SUB SWAP1 SWAP2 AND DUP2 MSTORE PUSH1 0x20 SWAP1 RETURN JUMPDEST CALLVALUE PUSH2 0x3C3 JUMPI PUSH1 0x40 CALLDATASIZE PUSH1 0x3 NOT ADD SLT PUSH2 0x3C3 JUMPI PUSH2 0x28BC PUSH2 0x382E JUMP JUMPDEST PUSH2 0x28C4 PUSH2 0x3844 JUMP JUMPDEST SWAP1 PUSH2 0x28CD PUSH2 0x3AF4 JUMP JUMPDEST PUSH1 0x1 PUSH1 0x1 PUSH1 0xA0 SHL SUB SWAP1 DUP2 AND SWAP2 DUP3 ISZERO PUSH2 0x777 JUMPI AND DUP1 ISZERO PUSH2 0x765 JUMPI PUSH1 0xA0 DUP1 MLOAD DUP4 SWAP1 MSTORE PUSH1 0x4 PUSH1 0x20 MSTORE MLOAD PUSH1 0x40 DUP2 KECCAK256 DUP1 SLOAD PUSH1 0x1 PUSH1 0x1 PUSH1 0xA0 SHL SUB NOT AND DUP4 OR SWAP1 SSTORE SWAP2 PUSH32 0xCFC624D946910F5098C5542F9FCFB7EB053A75EBD62A97A7BDAE8CCB27D7D08 DUP4 DUP1 LOG3 DUP1 RETURN JUMPDEST CALLVALUE PUSH2 0x3C3 JUMPI PUSH1 0xA0 MLOAD DUP1 PUSH1 0x3 NOT CALLDATASIZE ADD SLT PUSH2 0x3C0 JUMPI PUSH1 0x1A SLOAD PUSH1 0x40 MLOAD PUSH1 0x1 PUSH1 0x1 PUSH1 0xA0 SHL SUB SWAP1 SWAP2 AND DUP2 MSTORE PUSH1 0x20 SWAP1 RETURN JUMPDEST CALLVALUE PUSH2 0x3C3 JUMPI PUSH1 0xA0 MLOAD DUP1 PUSH1 0x3 NOT CALLDATASIZE ADD SLT PUSH2 0x3C0 JUMPI PUSH1 0x20 PUSH1 0xC SLOAD PUSH1 0x40 MLOAD SWAP1 DUP2 MSTORE RETURN JUMPDEST CALLVALUE PUSH2 0x3C3 JUMPI PUSH2 0x2988 CALLDATASIZE PUSH2 0x3878 JUMP JUMPDEST PUSH2 0x2993 SWAP4 SWAP3 SWAP4 PUSH2 0x3AF4 JUMP JUMPDEST DUP1 DUP5 SUB PUSH2 0x789 JUMPI PUSH1 0xA0 MLOAD JUMPDEST DUP5 DUP2 LT PUSH2 0x29AB JUMPI PUSH1 0xA0 MLOAD DUP1 RETURN JUMPDEST PUSH1 0x1 PUSH1 0x1 PUSH1 0xA0 SHL SUB SWAP1 DUP2 PUSH2 0x29C3 PUSH2 0x6AE DUP4 DUP10 DUP10 PUSH2 0x462E JUMP JUMPDEST AND ISZERO PUSH2 0x777 JUMPI PUSH2 0x2A64 SWAP2 PUSH32 0x4E64F955F4C1A97A6779D936A2FE8F59E1674F3E1A4C883736B9131969860A89 PUSH2 0x2A01 PUSH2 0x29FC DUP5 DUP8 DUP10 PUSH2 0x462E JUMP JUMPDEST PUSH2 0x4763 JUMP JUMPDEST DUP3 PUSH2 0x2A10 PUSH2 0x6AE DUP7 DUP13 DUP13 PUSH2 0x462E JUMP JUMPDEST AND PUSH1 0xA0 MLOAD MSTORE PUSH2 0x2A36 PUSH1 0x20 SWAP2 PUSH1 0x2 DUP4 MSTORE PUSH1 0x40 PUSH1 0xA0 MLOAD KECCAK256 SWAP1 PUSH1 0xFF DUP1 NOT DUP4 SLOAD AND SWAP2 ISZERO ISZERO AND OR SWAP1 SSTORE JUMP JUMPDEST PUSH2 0x2A44 PUSH2 0x6AE DUP6 DUP12 DUP12 PUSH2 0x462E JUMP JUMPDEST SWAP3 PUSH2 0x2A53 PUSH2 0x29FC DUP7 DUP10 DUP12 PUSH2 0x462E JUMP JUMPDEST SWAP4 PUSH1 0x40 MLOAD SWAP5 ISZERO ISZERO DUP6 MSTORE AND SWAP3 LOG2 PUSH2 0x3B86 JUMP JUMPDEST PUSH2 0x299E JUMP JUMPDEST CALLVALUE PUSH2 0x3C3 JUMPI PUSH1 0xA0 MLOAD DUP1 PUSH1 0x3 NOT CALLDATASIZE ADD SLT PUSH2 0x3C0 JUMPI PUSH1 0x20 PUSH3 0xFFFFFF PUSH1 0x13 SLOAD AND PUSH1 0x40 MLOAD SWAP1 DUP2 MSTORE RETURN JUMPDEST CALLVALUE PUSH2 0x3C3 JUMPI PUSH1 0x20 CALLDATASIZE PUSH1 0x3 NOT ADD SLT PUSH2 0x3C3 JUMPI PUSH1 0x4 CALLDATALOAD PUSH1 0x1 PUSH1 0x1 PUSH1 0xA0 SHL SUB DUP2 AND SWAP1 DUP2 SWAP1 SUB PUSH2 0x3C3 JUMPI PUSH2 0x2ABC PUSH2 0x3AF4 JUMP JUMPDEST DUP1 ISZERO PUSH2 0x1D74 JUMPI PUSH1 0x1 PUSH1 0x1 PUSH1 0x60 SHL SUB PUSH1 0xA0 SHL PUSH1 0xA SLOAD AND OR PUSH1 0xA SSTORE PUSH1 0xA0 MLOAD DUP1 RETURN JUMPDEST CALLVALUE PUSH2 0x3C3 JUMPI PUSH1 0x20 CALLDATASIZE PUSH1 0x3 NOT ADD SLT PUSH2 0x3C3 JUMPI PUSH2 0x2AF4 PUSH2 0x382E JUMP JUMPDEST PUSH2 0x2AFC PUSH2 0x3AF4 JUMP JUMPDEST PUSH1 0x1 PUSH1 0x1 PUSH1 0xA0 SHL SUB AND DUP1 ISZERO PUSH2 0x2B48 JUMPI PUSH1 0x1A DUP1 SLOAD PUSH1 0x1 PUSH1 0x1 PUSH1 0xA0 SHL SUB NOT AND DUP3 OR SWAP1 SSTORE PUSH1 0xA0 MLOAD SWAP1 PUSH32 0xEEE59A71C694E68368A1CB0D135C448051BBFB12289E6C2223B0CEB100C2321D DUP3 DUP1 LOG2 DUP1 RETURN JUMPDEST PUSH1 0x40 MLOAD PUSH4 0x1559B7D7 PUSH1 0xE2 SHL DUP2 MSTORE PUSH1 0x4 SWAP1 REVERT JUMPDEST CALLVALUE PUSH2 0x3C3 JUMPI PUSH1 0xA0 CALLDATASIZE PUSH1 0x3 NOT ADD SLT PUSH2 0x3C3 JUMPI PUSH2 0x2B73 PUSH2 0x382E JUMP JUMPDEST SWAP1 PUSH1 0x24 DUP1 CALLDATALOAD PUSH1 0x64 CALLDATALOAD SWAP4 PUSH1 0x1 DUP1 PUSH1 0xA0 SHL SUB SWAP1 DUP2 DUP7 AND DUP1 SWAP7 SUB PUSH2 0x2F98 JUMPI PUSH1 0x84 CALLDATALOAD SWAP6 PUSH1 0x1 PUSH1 0x1 PUSH1 0x40 SHL SUB DUP1 DUP9 GT PUSH2 0x3C3 JUMPI CALLDATASIZE PUSH1 0x23 DUP10 ADD SLT ISZERO PUSH2 0x3C3 JUMPI DUP8 PUSH1 0x4 ADD CALLDATALOAD SWAP1 DUP2 GT PUSH2 0x3C3 JUMPI DUP8 ADD SWAP1 CALLDATASIZE DUP7 DUP4 ADD GT PUSH2 0x3C3 JUMPI PUSH2 0x2BCC PUSH2 0x4107 JUMP JUMPDEST DUP4 PUSH1 0x1F SLOAD AND CALLER SUB PUSH2 0x2F86 JUMPI ADDRESS SUB PUSH2 0x2F74 JUMPI PUSH1 0xFF PUSH1 0x1C SLOAD PUSH1 0x18 SHR AND PUSH2 0x2F62 JUMPI DUP7 PUSH1 0x40 SWAP2 SUB SLT PUSH2 0x3C3 JUMPI PUSH1 0x44 DUP5 DUP8 ADD CALLDATALOAD SWAP7 ADD CALLDATALOAD SWAP5 DUP6 ISZERO SWAP6 DUP7 ISZERO SUB PUSH2 0x3C0 JUMPI POP PUSH1 0x1E SLOAD DUP7 LT ISZERO PUSH2 0x422 JUMPI DUP6 PUSH1 0xA0 MLOAD MSTORE PUSH1 0x20 SWAP6 PUSH1 0x1D DUP8 MSTORE PUSH2 0x2C2D PUSH1 0x40 PUSH1 0xA0 MLOAD KECCAK256 PUSH2 0x405D JUMP JUMPDEST SWAP1 DUP8 DUP3 ADD PUSH1 0x2 DUP2 MLOAD MLOAD LT PUSH2 0x2F50 JUMPI GAS SWAP7 PUSH2 0x2C49 PUSH1 0xE SLOAD TIMESTAMP PUSH2 0x3BC5 JUMP JUMPDEST SWAP2 MLOAD PUSH1 0x60 DUP6 ADD MLOAD SWAP2 PUSH1 0x2 DUP4 LT ISZERO PUSH2 0x2169 JUMPI PUSH1 0x80 DUP7 ADD MLOAD SWAP2 PUSH1 0x2 DUP4 LT ISZERO PUSH2 0x2F39 JUMPI PUSH1 0xD SLOAD SWAP4 DUP2 MLOAD PUSH1 0x2 DUP2 LT SWAP1 DUP2 ISZERO PUSH2 0x2F2E JUMPI JUMPDEST POP PUSH2 0xD8A JUMPI DUP11 ISZERO PUSH2 0x112A JUMPI DUP10 PUSH2 0x2C90 DUP4 PUSH2 0x3B20 JUMP JUMPDEST MLOAD AND SWAP1 DUP3 MLOAD SWAP2 PUSH0 NOT SWAP3 DUP4 DUP2 ADD SWAP1 DUP2 GT PUSH2 0x2275 JUMPI PUSH2 0x2CBE SWAP3 DUP15 DUP11 SWAP4 DUP16 PUSH2 0x2CB6 DUP13 SWAP6 DUP11 PUSH2 0x3B51 JUMP JUMPDEST MLOAD AND SWAP1 PUSH2 0x41FC JUMP JUMPDEST SWAP3 DUP4 ISZERO PUSH2 0x2F06 JUMPI DUP3 MLOAD SWAP2 DUP3 ADD SWAP2 DUP3 GT PUSH2 0x2F18 JUMPI POP SWAP1 DUP10 PUSH2 0x2CB6 DUP2 PUSH2 0x2CE9 PUSH2 0x2CF1 SWAP10 SWAP9 SWAP8 SWAP7 SWAP6 DUP6 PUSH2 0x3B51 JUMP JUMPDEST MLOAD AND SWAP3 PUSH2 0x3B20 JUMP JUMPDEST SWAP5 DUP6 ISZERO PUSH2 0x2F06 JUMPI PUSH2 0x2D04 PUSH1 0x44 CALLDATALOAD DUP3 PUSH2 0x3BC5 JUMP JUMPDEST SWAP6 DUP7 DUP2 LT PUSH2 0x2EF4 JUMPI PUSH2 0x2D18 DUP8 PUSH1 0x40 SWAP3 PUSH2 0x3B65 JUMP JUMPDEST SWAP4 ADD MLOAD DUP4 LT PUSH2 0x2EE2 JUMPI PUSH2 0x2710 SWAP2 DUP3 PUSH2 0x2D32 PUSH1 0xC SLOAD DUP5 PUSH2 0x3B94 JUMP JUMPDEST DIV DUP5 LT PUSH2 0x2EE2 JUMPI PUSH1 0x19 SLOAD DUP5 LT PUSH2 0x2ED0 JUMPI PUSH2 0x2DAA SWAP9 PUSH2 0x2D52 DUP12 SWAP10 GAS SWAP1 PUSH2 0x3B65 JUMP JUMPDEST SWAP1 PUSH2 0x2E85 JUMPI JUMPDEST POP POP POP DUP4 PUSH1 0x1A SLOAD AND SWAP2 DUP3 ISZERO ISZERO DUP1 PUSH2 0x2E7C JUMPI JUMPDEST PUSH2 0x2E1F JUMPI JUMPDEST POP POP PUSH1 0x1F SLOAD PUSH1 0x40 MLOAD PUSH4 0x95EA7B3 PUSH1 0xE0 SHL DUP2 MSTORE SWAP1 DUP5 AND PUSH1 0x1 PUSH1 0x1 PUSH1 0xA0 SHL SUB AND PUSH1 0x4 DUP3 ADD MSTORE PUSH1 0x24 DUP2 ADD SWAP5 SWAP1 SWAP5 MSTORE POP SWAP2 SWAP4 DUP5 SWAP3 DUP4 SWAP2 DUP3 SWAP1 PUSH1 0x44 DUP3 ADD SWAP1 JUMP JUMPDEST SUB SWAP3 PUSH1 0xA0 MLOAD SWAP2 AND GAS CALL SWAP1 DUP2 ISZERO PUSH2 0x1852 JUMPI PUSH1 0xA0 MLOAD SWAP2 PUSH2 0x2DEA JUMPI JUMPDEST POP ISZERO PUSH2 0x2DD8 JUMPI PUSH1 0x1 PUSH1 0xA0 MLOAD SSTORE PUSH1 0x40 MLOAD PUSH1 0x1 DUP2 MSTORE RETURN JUMPDEST PUSH1 0x40 MLOAD PUSH4 0x40B27C21 PUSH1 0xE1 SHL DUP2 MSTORE PUSH1 0x4 SWAP1 REVERT JUMPDEST SWAP1 POP DUP2 DUP2 DUP2 RETURNDATASIZE DUP4 GT PUSH2 0x2E18 JUMPI JUMPDEST PUSH2 0x2E01 DUP2 DUP4 PUSH2 0x39DF JUMP JUMPDEST DUP2 ADD SUB SLT PUSH2 0x3C3 JUMPI PUSH2 0x2E12 SWAP1 PUSH2 0x40FA JUMP JUMPDEST DUP3 PUSH2 0x2DC3 JUMP JUMPDEST POP RETURNDATASIZE PUSH2 0x2DF7 JUMP JUMPDEST PUSH1 0x1B SLOAD PUSH2 0x2E2B SWAP2 PUSH2 0x3B94 JUMP JUMPDEST DIV SWAP1 DUP2 PUSH2 0x2E39 JUMPI JUMPDEST DUP1 PUSH2 0x2D6F JUMP JUMPDEST DUP2 PUSH2 0x2E46 SWAP2 DUP6 DUP6 AND PUSH2 0x415B JUMP JUMPDEST PUSH32 0xFA37B5E8DDAD169E37000EDA5F29F2D1B34E92F95C9327FC7D39BA2E8B8D826F DUP6 DUP5 PUSH1 0x1A SLOAD AND SWAP3 PUSH1 0x40 MLOAD SWAP1 DUP2 MSTORE LOG2 DUP7 DUP1 PUSH2 0x2E33 JUMP JUMPDEST POP DUP1 ISZERO ISZERO PUSH2 0x2D6A JUMP JUMPDEST PUSH1 0x40 DUP1 MLOAD SWAP4 DUP5 MSTORE PUSH1 0x20 DUP5 ADD DUP7 SWAP1 MSTORE DUP4 ADD SWAP2 SWAP1 SWAP2 MSTORE PUSH1 0x60 DUP3 ADD MSTORE DUP5 DUP5 AND SWAP1 PUSH32 0x89A09201A027C60F41C5BA11894AA08A9F73B7B905D773646ADD4B4F4909BD83 SWAP1 PUSH1 0x80 SWAP1 LOG2 DUP9 DUP1 DUP1 PUSH2 0x2D58 JUMP JUMPDEST PUSH1 0x40 MLOAD PUSH4 0x66D786F9 PUSH1 0xE0 SHL DUP2 MSTORE PUSH1 0x4 SWAP1 REVERT JUMPDEST PUSH1 0x40 MLOAD PUSH4 0x62EE2E61 PUSH1 0xE1 SHL DUP2 MSTORE PUSH1 0x4 SWAP1 REVERT JUMPDEST PUSH1 0x40 MLOAD PUSH4 0xBB2875C3 PUSH1 0xE0 SHL DUP2 MSTORE PUSH1 0x4 SWAP1 REVERT JUMPDEST PUSH1 0x40 MLOAD PUSH4 0x81CEFF3 PUSH1 0xE4 SHL DUP2 MSTORE PUSH1 0x4 SWAP1 REVERT JUMPDEST PUSH1 0xA0 DUP1 MLOAD PUSH4 0x4E487B71 PUSH1 0xE0 SHL SWAP1 MSTORE PUSH1 0x11 PUSH1 0x4 MSTORE MLOAD REVERT JUMPDEST PUSH1 0x4 SWAP2 POP GT DUP16 PUSH2 0x2C7B JUMP JUMPDEST POP PUSH1 0xA0 DUP1 MLOAD PUSH4 0x4E487B71 PUSH1 0xE0 SHL SWAP1 MSTORE PUSH1 0x21 PUSH1 0x4 MSTORE MLOAD REVERT JUMPDEST PUSH1 0x40 MLOAD PUSH4 0x5640CBA9 PUSH1 0xE0 SHL DUP2 MSTORE PUSH1 0x4 SWAP1 REVERT JUMPDEST PUSH1 0x40 MLOAD PUSH4 0xAB35696F PUSH1 0xE0 SHL DUP2 MSTORE PUSH1 0x4 SWAP1 REVERT JUMPDEST PUSH1 0x40 MLOAD PUSH4 0x17FB43E5 PUSH1 0xE3 SHL DUP2 MSTORE PUSH1 0x4 SWAP1 REVERT JUMPDEST PUSH1 0x40 MLOAD PUSH4 0x5C427CD9 PUSH1 0xE0 SHL DUP2 MSTORE PUSH1 0x4 SWAP1 REVERT JUMPDEST DUP5 DUP1 REVERT JUMPDEST CALLVALUE PUSH2 0x3C3 JUMPI PUSH1 0x20 CALLDATASIZE PUSH1 0x3 NOT ADD SLT PUSH2 0x3C3 JUMPI PUSH32 0x9E3A5E37224532DEA67B89FACE185703738A228A6E8A23DEE546960180D3BE64 PUSH1 0x20 PUSH2 0x2FD8 PUSH2 0x385A JUMP JUMPDEST PUSH2 0x2FE0 PUSH2 0x3AF4 JUMP JUMPDEST ISZERO ISZERO PUSH1 0x1C SLOAD PUSH4 0xFF000000 DUP3 PUSH1 0x18 SHL AND SWAP1 PUSH4 0xFF000000 NOT AND OR PUSH1 0x1C SSTORE PUSH1 0x40 MLOAD SWAP1 DUP2 MSTORE LOG1 PUSH1 0xA0 MLOAD DUP1 RETURN JUMPDEST CALLVALUE PUSH2 0x3C3 JUMPI PUSH1 0x80 CALLDATASIZE PUSH1 0x3 NOT ADD SLT PUSH2 0x3C3 JUMPI PUSH1 0x1 PUSH1 0x1 PUSH1 0x40 SHL SUB PUSH1 0x4 CALLDATALOAD DUP2 DUP2 GT PUSH2 0x3C3 JUMPI PUSH2 0x3039 SWAP1 CALLDATASIZE SWAP1 PUSH1 0x4 ADD PUSH2 0x37FA JUMP JUMPDEST PUSH1 0x2 SWAP3 SWAP2 PUSH1 0x44 CALLDATALOAD SWAP1 DUP5 DUP3 LT ISZERO PUSH2 0x3C3 JUMPI PUSH1 0x64 CALLDATALOAD SWAP1 DUP6 DUP3 LT ISZERO PUSH2 0x3C3 JUMPI PUSH2 0x305D PUSH2 0x3AF4 JUMP JUMPDEST DUP6 DUP5 LT DUP1 ISZERO PUSH2 0x3293 JUMPI JUMPDEST PUSH2 0xD8A JUMPI DUP4 ISZERO PUSH2 0xD72 JUMPI PUSH2 0x307A DUP2 PUSH2 0x463E JUMP JUMPDEST SWAP1 PUSH0 NOT DUP6 ADD DUP6 DUP2 GT SWAP1 DUP2 PUSH2 0xD24 JUMPI PUSH1 0x1 PUSH1 0x1 PUSH1 0xA0 SHL SUB SWAP4 DUP5 DUP1 PUSH2 0x30A1 PUSH2 0x6AE DUP6 DUP13 DUP10 PUSH2 0x462E JUMP JUMPDEST AND SWAP2 AND SUB PUSH2 0xD60 JUMPI DUP4 PUSH2 0x30B3 DUP8 PUSH2 0x3901 JUMP JUMPDEST SLOAD AND ISZERO PUSH2 0x617 JUMPI DUP4 PUSH2 0x30C4 DUP7 PUSH2 0x3901 JUMP JUMPDEST SLOAD AND ISZERO PUSH2 0x617 JUMPI PUSH1 0xA0 MLOAD JUMPDEST DUP8 DUP2 LT PUSH2 0x31FB JUMPI POP POP POP PUSH1 0x1E SLOAD PUSH2 0x30F7 PUSH1 0x40 MLOAD SWAP3 PUSH2 0x30EC DUP5 PUSH2 0x398E JUMP JUMPDEST DUP3 DUP5 MSTORE DUP8 CALLDATASIZE SWAP2 PUSH2 0x3A17 JUMP JUMPDEST PUSH1 0x20 SWAP8 DUP9 DUP5 ADD SWAP2 DUP3 MSTORE PUSH1 0x40 DUP5 ADD SWAP3 PUSH1 0x24 CALLDATALOAD DUP5 MSTORE PUSH2 0x3118 PUSH1 0x60 DUP7 ADD SWAP9 DUP10 PUSH2 0x4051 JUMP JUMPDEST PUSH2 0x3126 PUSH1 0x80 DUP7 ADD SWAP8 DUP9 PUSH2 0x4051 JUMP JUMPDEST PUSH1 0xA0 MLOAD MSTORE PUSH1 0x1D DUP10 MSTORE PUSH1 0xA0 MLOAD SWAP2 PUSH1 0x40 DUP4 KECCAK256 SWAP5 MLOAD DUP6 SSTORE PUSH1 0x1 SWAP3 DUP4 DUP7 ADD SWAP2 MLOAD SWAP1 DUP2 MLOAD SWAP4 DUP5 GT PUSH2 0xC17 JUMPI POP DUP11 SWAP1 PUSH2 0x3159 DUP5 DUP5 PUSH2 0x4652 JUMP JUMPDEST ADD SWAP1 PUSH1 0xA0 MLOAD MSTORE PUSH1 0xA0 MLOAD SWAP6 DUP11 DUP8 KECCAK256 SWAP1 DUP8 JUMPDEST DUP5 DUP2 LT PUSH2 0x31E8 JUMPI POP POP POP POP POP POP SWAP1 PUSH1 0x3 SWAP2 MLOAD DUP9 DUP3 ADD SSTORE ADD SWAP3 MLOAD SWAP1 DUP7 DUP3 LT ISZERO PUSH2 0x8C3 JUMPI POP PUSH2 0x3196 SWAP1 DUP4 PUSH2 0x4699 JUMP JUMPDEST MLOAD SWAP4 DUP5 LT ISZERO PUSH2 0xBE2 JUMPI PUSH2 0x31DF SWAP4 PUSH2 0x31AC SWAP2 PUSH2 0x46B1 JUMP JUMPDEST PUSH32 0x43AFC9E063BEAEA4354EC60D8BC6C76E9BA2376CA51443FC69A6EFD689A7282A PUSH1 0x1E SLOAD SWAP3 DUP4 SWAP3 PUSH1 0x40 MLOAD SWAP1 DUP2 MSTORE LOG2 PUSH2 0x3B86 JUMP JUMPDEST PUSH1 0x1E SSTORE PUSH1 0xA0 MLOAD DUP1 RETURN JUMPDEST DUP4 MLOAD DUP3 AND DUP4 DUP3 ADD SSTORE SWAP3 DUP13 ADD SWAP3 DUP6 ADD PUSH2 0x3169 JUMP JUMPDEST DUP5 PUSH2 0x320A PUSH2 0x6AE DUP4 DUP12 DUP9 PUSH2 0x462E JUMP JUMPDEST AND ISZERO PUSH2 0xD4E JUMPI PUSH2 0x3221 PUSH2 0xC63 PUSH2 0x6AE DUP4 DUP12 DUP9 PUSH2 0x462E JUMP JUMPDEST ISZERO PUSH2 0xD3C JUMPI PUSH1 0x1 DUP1 DUP3 ADD DUP1 DUP4 GT PUSH2 0xD24 JUMPI DUP5 DUP3 JUMPDEST PUSH2 0x324B JUMPI JUMPDEST POP POP POP PUSH2 0x3246 SWAP1 PUSH2 0x3B86 JUMP JUMPDEST PUSH2 0x30CF JUMP JUMPDEST PUSH2 0xD24 JUMPI DUP10 DUP8 DUP8 DUP7 DUP5 LT ISZERO PUSH2 0x328A JUMPI PUSH2 0x3270 PUSH2 0x6AE DUP6 PUSH2 0x2234 PUSH2 0x6AE DUP11 DUP9 DUP9 SWAP8 PUSH2 0x462E JUMP JUMPDEST AND SWAP2 AND EQ PUSH2 0xD0D JUMPI PUSH2 0x3282 DUP3 SWAP2 PUSH2 0x3B86 JUMP JUMPDEST SWAP1 DUP6 SWAP1 PUSH2 0x3235 JUMP JUMPDEST POP POP POP DUP5 PUSH2 0x323A JUMP JUMPDEST POP PUSH1 0x4 DUP5 GT PUSH2 0x3067 JUMP JUMPDEST CALLVALUE PUSH2 0x3C3 JUMPI PUSH1 0x20 CALLDATASIZE PUSH1 0x3 NOT ADD SLT PUSH2 0x3C3 JUMPI PUSH1 0x1 PUSH1 0x1 PUSH1 0xA0 SHL SUB PUSH2 0x32BE PUSH2 0x382E JUMP JUMPDEST AND PUSH1 0xA0 MLOAD MSTORE PUSH1 0x8 PUSH1 0x20 MSTORE PUSH1 0x20 PUSH1 0xFF PUSH1 0x40 PUSH1 0xA0 MLOAD KECCAK256 SLOAD AND PUSH1 0x40 MLOAD SWAP1 ISZERO ISZERO DUP2 MSTORE RETURN JUMPDEST CALLVALUE PUSH2 0x3C3 JUMPI PUSH1 0x80 CALLDATASIZE PUSH1 0x3 NOT ADD SLT PUSH2 0x3C3 JUMPI PUSH2 0x32F7 PUSH2 0x382E JUMP JUMPDEST PUSH1 0x24 DUP1 CALLDATALOAD SWAP2 PUSH1 0x44 CALLDATALOAD SWAP3 PUSH1 0x64 CALLDATALOAD SWAP2 DUP3 ISZERO ISZERO DUP1 SWAP4 SUB PUSH2 0x3C3 JUMPI PUSH2 0x3316 PUSH2 0x4107 JUMP JUMPDEST PUSH2 0x331E PUSH2 0x3AF4 JUMP JUMPDEST PUSH1 0x1C SLOAD SWAP3 PUSH1 0xFF DUP5 PUSH1 0x18 SHR AND PUSH2 0x2F62 JUMPI PUSH1 0x1 PUSH1 0x1 PUSH1 0xA0 SHL SUB SWAP2 DUP3 AND SWAP6 DUP7 ISZERO PUSH2 0x360C JUMPI DUP4 ISZERO PUSH2 0x112A JUMPI PUSH1 0x18 SLOAD DUP5 GT PUSH2 0x1925 JUMPI PUSH1 0x1E SLOAD DUP2 LT ISZERO PUSH2 0x422 JUMPI DUP7 PUSH1 0xA0 MLOAD MSTORE PUSH1 0x20 SWAP5 PUSH1 0x2 DUP7 MSTORE PUSH1 0xFF PUSH1 0x40 PUSH1 0xA0 MLOAD KECCAK256 SLOAD AND ISZERO PUSH2 0xD3C JUMPI PUSH1 0x8 SHR PUSH1 0xFF AND PUSH2 0x345F JUMPI JUMPDEST DUP7 PUSH32 0x4DE4E5710A82E29AA0540F39A91F17D0091E7251BA18403D8034555FA03168EF PUSH1 0x40 DUP1 MLOAD DUP8 DUP2 MSTORE DUP5 DUP10 DUP3 ADD MSTORE LOG2 PUSH1 0x40 MLOAD SWAP5 DUP6 ADD MSTORE PUSH1 0x40 DUP5 ADD MSTORE PUSH1 0x40 DUP4 MSTORE PUSH2 0x33C6 DUP4 PUSH2 0x39C4 JUMP JUMPDEST PUSH1 0x1F SLOAD AND DUP1 EXTCODESIZE ISZERO PUSH2 0x3C3 JUMPI PUSH2 0x3409 SWAP5 PUSH1 0x40 MLOAD SWAP6 DUP7 SWAP5 DUP6 SWAP5 DUP6 SWAP4 PUSH4 0x10AC2DDF PUSH1 0xE2 SHL DUP6 MSTORE ADDRESS PUSH1 0x4 DUP7 ADD MSTORE DUP9 DUP6 ADD MSTORE PUSH1 0x44 DUP5 ADD MSTORE PUSH1 0xA0 PUSH1 0x64 DUP5 ADD MSTORE PUSH1 0xA4 DUP4 ADD SWAP1 PUSH2 0x452D JUMP JUMPDEST PUSH1 0xA0 MLOAD PUSH1 0x84 DUP4 ADD MSTORE PUSH1 0xA0 MLOAD SWAP5 DUP6 SWAP2 SUB SWAP3 GAS CALL DUP1 ISZERO PUSH2 0x1852 JUMPI PUSH2 0x3430 JUMPI JUMPDEST PUSH1 0xA0 MLOAD PUSH1 0x1 DUP2 SSTORE DUP1 RETURN JUMPDEST PUSH1 0x1 PUSH1 0x1 PUSH1 0x40 SHL SUB DUP3 GT PUSH2 0x3449 JUMPI POP PUSH1 0x40 MSTORE DUP1 DUP1 PUSH2 0x3426 JUMP JUMPDEST PUSH1 0xA0 DUP1 MLOAD PUSH4 0x4E487B71 PUSH1 0xE0 SHL SWAP1 MSTORE PUSH1 0x41 PUSH1 0x4 MSTORE MLOAD REVERT JUMPDEST DUP1 PUSH1 0xA0 MLOAD MSTORE PUSH1 0x1D DUP6 MSTORE PUSH2 0x3476 PUSH1 0x40 PUSH1 0xA0 MLOAD KECCAK256 PUSH2 0x405D JUMP JUMPDEST DUP6 DUP2 ADD MLOAD SWAP1 PUSH1 0x60 DUP2 ADD MLOAD SWAP1 PUSH1 0x2 DUP3 LT ISZERO PUSH2 0x35F5 JUMPI PUSH1 0x80 ADD MLOAD PUSH1 0x2 DUP2 LT ISZERO PUSH2 0x35F5 JUMPI PUSH1 0x40 MLOAD PUSH4 0xB3EEB621 PUSH1 0xE0 SHL DUP2 MSTORE PUSH1 0x80 PUSH1 0x4 DUP3 ADD MSTORE SWAP3 DUP4 SWAP3 SWAP2 PUSH2 0x34DF SWAP2 PUSH2 0x34D5 SWAP1 PUSH2 0x34C5 SWAP1 PUSH1 0x84 DUP8 ADD SWAP1 PUSH2 0x3D38 JUMP JUMPDEST SWAP4 DUP11 DUP14 DUP8 ADD MSTORE PUSH1 0x44 DUP7 ADD SWAP1 PUSH2 0x38E0 JUMP JUMPDEST PUSH1 0x64 DUP5 ADD SWAP1 PUSH2 0x38E0 JUMP JUMPDEST DUP2 PUSH2 0x140 SWAP4 DUP5 SWAP3 SUB DUP2 PUSH1 0xA0 MLOAD ADDRESS GAS CALL SWAP2 DUP3 ISZERO PUSH2 0x1852 JUMPI PUSH1 0xA0 MLOAD SWAP3 PUSH2 0x3556 JUMPI JUMPDEST POP POP PUSH2 0x120 DUP2 ADD MLOAD ISZERO PUSH2 0x3544 JUMPI PUSH1 0x40 PUSH2 0x100 PUSH32 0x2D8C7DE9D14F5D83E30045E1C848465AFDD57594F3E9FC21CA0C5ED3FC339F1D SWAP3 ADD MLOAD DUP2 MLOAD SWAP1 DUP5 DUP3 MSTORE DUP9 DUP3 ADD MSTORE LOG1 PUSH2 0x337E JUMP JUMPDEST PUSH1 0x40 MLOAD PUSH4 0x2DD61D5B PUSH1 0xE0 SHL DUP2 MSTORE PUSH1 0x4 SWAP1 REVERT JUMPDEST SWAP1 DUP1 SWAP3 POP DUP2 RETURNDATASIZE DUP4 GT PUSH2 0x35EE JUMPI JUMPDEST PUSH2 0x356D DUP2 DUP4 PUSH2 0x39DF JUMP JUMPDEST DUP2 ADD SUB SLT PUSH2 0x3C3 JUMPI PUSH1 0x40 MLOAD SWAP1 PUSH2 0x3582 DUP3 PUSH2 0x395E JUMP JUMPDEST DUP1 MLOAD DUP3 MSTORE DUP7 DUP2 ADD MLOAD DUP8 DUP4 ADD MSTORE PUSH1 0x40 DUP2 ADD MLOAD PUSH1 0x40 DUP4 ADD MSTORE PUSH1 0x60 DUP2 ADD MLOAD PUSH1 0x60 DUP4 ADD MSTORE PUSH1 0x80 DUP2 ADD MLOAD PUSH1 0x80 DUP4 ADD MSTORE PUSH1 0xA0 DUP2 ADD MLOAD PUSH1 0xA0 DUP4 ADD MSTORE PUSH1 0xC0 DUP2 ADD MLOAD PUSH1 0xC0 DUP4 ADD MSTORE PUSH1 0xE0 DUP2 ADD MLOAD PUSH1 0xE0 DUP4 ADD MSTORE PUSH2 0x100 DUP1 DUP3 ADD MLOAD SWAP1 DUP4 ADD MSTORE PUSH2 0x35E3 PUSH2 0x120 DUP1 SWAP3 ADD PUSH2 0x40FA JUMP JUMPDEST SWAP1 DUP3 ADD MSTORE DUP9 DUP1 PUSH2 0x34FE JUMP JUMPDEST POP RETURNDATASIZE PUSH2 0x3563 JUMP JUMPDEST DUP9 PUSH4 0x4E487B71 PUSH1 0xE0 SHL PUSH1 0xA0 MLOAD MSTORE PUSH1 0x21 PUSH1 0x4 MSTORE PUSH1 0xA0 MLOAD REVERT JUMPDEST PUSH1 0x40 MLOAD PUSH4 0x6448D6E9 PUSH1 0xE1 SHL DUP2 MSTORE PUSH1 0x4 SWAP1 REVERT JUMPDEST CALLVALUE PUSH2 0x3C3 JUMPI PUSH1 0xA0 MLOAD DUP1 PUSH1 0x3 NOT CALLDATASIZE ADD SLT PUSH2 0x3C0 JUMPI PUSH1 0x20 PUSH1 0xFF PUSH1 0x1C SLOAD AND PUSH1 0x40 MLOAD SWAP1 ISZERO ISZERO DUP2 MSTORE RETURN JUMPDEST CALLVALUE PUSH2 0x3C3 JUMPI PUSH1 0xA0 MLOAD DUP1 PUSH1 0x3 NOT CALLDATASIZE ADD SLT PUSH2 0x3C0 JUMPI PUSH1 0x20 PUSH1 0x10 SLOAD PUSH1 0x40 MLOAD SWAP1 DUP2 MSTORE RETURN JUMPDEST CALLVALUE PUSH2 0x3C0 JUMPI PUSH1 0x20 SWAP1 DUP2 PUSH1 0x3 NOT CALLDATASIZE ADD SLT PUSH2 0x3C0 JUMPI PUSH1 0x4 CALLDATALOAD SWAP1 PUSH1 0x1 PUSH1 0x1 PUSH1 0x40 SHL SUB DUP3 GT PUSH2 0x3C0 JUMPI POP PUSH2 0x3697 SWAP1 CALLDATASIZE SWAP1 PUSH1 0x4 ADD PUSH2 0x37FA JUMP JUMPDEST SWAP1 PUSH2 0x36A0 PUSH2 0x3AF4 JUMP JUMPDEST PUSH1 0xA0 MLOAD JUMPDEST DUP3 DUP2 LT PUSH2 0x370B JUMPI SELFBALANCE DUP5 DUP2 PUSH2 0x36B9 JUMPI JUMPDEST PUSH1 0xA0 MLOAD DUP1 RETURN JUMPDEST PUSH1 0xA0 MLOAD DUP1 DUP1 DUP1 DUP6 PUSH1 0x1 DUP1 PUSH1 0xA0 SHL SUB PUSH1 0x1 SLOAD AND GAS CALL PUSH2 0x36D5 PUSH2 0x480C JUMP JUMPDEST POP ISZERO PUSH2 0x810 JUMPI PUSH32 0x43F607A14D3B4F0A11A0B2E192BBFCD894298BA5ABF22553BE6081406DB28AA SWAP2 PUSH1 0x40 MLOAD SWAP1 DUP2 MSTORE LOG1 DUP1 DUP1 PUSH2 0x36B3 JUMP JUMPDEST PUSH1 0x24 SWAP1 PUSH1 0x1 PUSH1 0x1 PUSH1 0xA0 SHL SUB DUP6 DUP2 PUSH2 0x3726 PUSH2 0x6AE DUP6 DUP10 DUP10 PUSH2 0x462E JUMP JUMPDEST AND PUSH1 0x40 MLOAD SWAP5 DUP6 DUP1 SWAP3 PUSH4 0x70A08231 PUSH1 0xE0 SHL DUP3 MSTORE ADDRESS PUSH1 0x4 DUP4 ADD MSTORE GAS STATICCALL SWAP1 DUP2 ISZERO PUSH2 0x1852 JUMPI PUSH1 0xA0 MLOAD SWAP2 PUSH2 0x37C9 JUMPI JUMPDEST PUSH2 0x3764 SWAP4 POP DUP7 DUP3 PUSH2 0x3769 JUMPI JUMPDEST POP POP POP PUSH2 0x3B86 JUMP JUMPDEST PUSH2 0x36A4 JUMP JUMPDEST DUP2 PUSH2 0x37AA DUP5 PUSH32 0x23D6711A1D031134A36921253C75AA59E967D38E369AC625992824315E204F20 SWAP5 PUSH2 0x379E PUSH2 0x6AE DUP10 DUP14 DUP14 PUSH2 0x462E JUMP JUMPDEST AND DUP4 PUSH1 0x1 SLOAD AND SWAP1 PUSH2 0x415B JUMP JUMPDEST PUSH2 0x37B8 PUSH2 0x6AE DUP7 DUP11 DUP11 PUSH2 0x462E JUMP JUMPDEST AND SWAP3 PUSH1 0x40 MLOAD SWAP1 DUP2 MSTORE LOG2 DUP6 DUP1 DUP7 PUSH2 0x375C JUMP JUMPDEST SWAP1 POP DUP6 DUP4 DUP2 RETURNDATASIZE DUP4 GT PUSH2 0x37F3 JUMPI JUMPDEST PUSH2 0x37E0 DUP2 DUP4 PUSH2 0x39DF JUMP JUMPDEST DUP2 ADD SUB SLT PUSH2 0x3C3 JUMPI PUSH2 0x3764 SWAP3 MLOAD SWAP1 PUSH2 0x3750 JUMP JUMPDEST POP RETURNDATASIZE PUSH2 0x37D6 JUMP JUMPDEST SWAP2 DUP2 PUSH1 0x1F DUP5 ADD SLT ISZERO PUSH2 0x382A JUMPI DUP3 CALLDATALOAD SWAP2 PUSH1 0x1 PUSH1 0x1 PUSH1 0x40 SHL SUB DUP4 GT PUSH2 0x382A JUMPI PUSH1 0x20 DUP1 DUP6 ADD SWAP5 DUP5 PUSH1 0x5 SHL ADD ADD GT PUSH2 0x382A JUMPI JUMP JUMPDEST PUSH0 DUP1 REVERT JUMPDEST PUSH1 0x4 CALLDATALOAD SWAP1 PUSH1 0x1 PUSH1 0x1 PUSH1 0xA0 SHL SUB DUP3 AND DUP3 SUB PUSH2 0x382A JUMPI JUMP JUMPDEST PUSH1 0x24 CALLDATALOAD SWAP1 PUSH1 0x1 PUSH1 0x1 PUSH1 0xA0 SHL SUB DUP3 AND DUP3 SUB PUSH2 0x382A JUMPI JUMP JUMPDEST PUSH1 0x4 CALLDATALOAD SWAP1 DUP2 ISZERO ISZERO DUP3 SUB PUSH2 0x382A JUMPI JUMP JUMPDEST PUSH1 0x24 CALLDATALOAD SWAP1 DUP2 ISZERO ISZERO DUP3 SUB PUSH2 0x382A JUMPI JUMP JUMPDEST PUSH1 0x40 PUSH1 0x3 NOT DUP3 ADD SLT PUSH2 0x382A JUMPI PUSH1 0x1 PUSH1 0x1 PUSH1 0x40 SHL SUB SWAP2 PUSH1 0x4 CALLDATALOAD DUP4 DUP2 GT PUSH2 0x382A JUMPI DUP3 PUSH2 0x38A4 SWAP2 PUSH1 0x4 ADD PUSH2 0x37FA JUMP JUMPDEST SWAP4 SWAP1 SWAP4 SWAP3 PUSH1 0x24 CALLDATALOAD SWAP2 DUP3 GT PUSH2 0x382A JUMPI PUSH2 0x38BE SWAP2 PUSH1 0x4 ADD PUSH2 0x37FA JUMP JUMPDEST SWAP1 SWAP2 JUMP JUMPDEST PUSH1 0x80 SWAP1 PUSH1 0x3 NOT ADD SLT PUSH2 0x382A JUMPI PUSH1 0x4 CALLDATALOAD SWAP1 PUSH1 0x24 CALLDATALOAD SWAP1 PUSH1 0x44 CALLDATALOAD SWAP1 PUSH1 0x64 CALLDATALOAD SWAP1 JUMP JUMPDEST SWAP1 PUSH1 0x2 DUP3 LT ISZERO PUSH2 0x38ED JUMPI MSTORE JUMP JUMPDEST PUSH4 0x4E487B71 PUSH1 0xE0 SHL PUSH0 MSTORE PUSH1 0x21 PUSH1 0x4 MSTORE PUSH1 0x24 PUSH0 REVERT JUMPDEST PUSH1 0x2 DUP2 LT ISZERO PUSH2 0x38ED JUMPI PUSH0 MSTORE PUSH1 0x6 PUSH1 0x20 MSTORE PUSH1 0x40 PUSH0 KECCAK256 SWAP1 JUMP JUMPDEST PUSH1 0x2 DUP2 LT ISZERO PUSH2 0x38ED JUMPI PUSH0 MSTORE PUSH1 0x7 PUSH1 0x20 MSTORE PUSH1 0x40 PUSH0 KECCAK256 SWAP1 JUMP JUMPDEST PUSH1 0x40 SWAP1 PUSH1 0x3 NOT ADD SLT PUSH2 0x382A JUMPI PUSH1 0x4 CALLDATALOAD PUSH1 0x2 DUP2 LT ISZERO PUSH2 0x382A JUMPI SWAP1 PUSH1 0x24 CALLDATALOAD PUSH1 0x1 PUSH1 0x1 PUSH1 0xA0 SHL SUB DUP2 AND DUP2 SUB PUSH2 0x382A JUMPI SWAP1 JUMP JUMPDEST PUSH2 0x140 DUP2 ADD SWAP1 DUP2 LT PUSH1 0x1 PUSH1 0x1 PUSH1 0x40 SHL SUB DUP3 GT OR PUSH2 0x397A JUMPI PUSH1 0x40 MSTORE JUMP JUMPDEST PUSH4 0x4E487B71 PUSH1 0xE0 SHL PUSH0 MSTORE PUSH1 0x41 PUSH1 0x4 MSTORE PUSH1 0x24 PUSH0 REVERT JUMPDEST PUSH1 0xA0 DUP2 ADD SWAP1 DUP2 LT PUSH1 0x1 PUSH1 0x1 PUSH1 0x40 SHL SUB DUP3 GT OR PUSH2 0x397A JUMPI PUSH1 0x40 MSTORE JUMP JUMPDEST PUSH1 0x80 DUP2 ADD SWAP1 DUP2 LT PUSH1 0x1 PUSH1 0x1 PUSH1 0x40 SHL SUB DUP3 GT OR PUSH2 0x397A JUMPI PUSH1 0x40 MSTORE JUMP JUMPDEST PUSH1 0x60 DUP2 ADD SWAP1 DUP2 LT PUSH1 0x1 PUSH1 0x1 PUSH1 0x40 SHL SUB DUP3 GT OR PUSH2 0x397A JUMPI PUSH1 0x40 MSTORE JUMP JUMPDEST SWAP1 PUSH1 0x1F DUP1 NOT SWAP2 ADD AND DUP2 ADD SWAP1 DUP2 LT PUSH1 0x1 PUSH1 0x1 PUSH1 0x40 SHL SUB DUP3 GT OR PUSH2 0x397A JUMPI PUSH1 0x40 MSTORE JUMP JUMPDEST PUSH1 0x1 PUSH1 0x1 PUSH1 0x40 SHL SUB DUP2 GT PUSH2 0x397A JUMPI PUSH1 0x5 SHL PUSH1 0x20 ADD SWAP1 JUMP JUMPDEST SWAP3 SWAP2 PUSH2 0x3A22 DUP3 PUSH2 0x3A00 JUMP JUMPDEST SWAP2 PUSH2 0x3A30 PUSH1 0x40 MLOAD SWAP4 DUP5 PUSH2 0x39DF JUMP JUMPDEST DUP3 SWAP5 DUP2 DUP5 MSTORE PUSH1 0x20 DUP1 SWAP5 ADD SWAP2 PUSH1 0x5 SHL DUP2 ADD SWAP3 DUP4 GT PUSH2 0x382A JUMPI SWAP1 JUMPDEST DUP3 DUP3 LT PUSH2 0x3A56 JUMPI POP POP POP POP JUMP JUMPDEST DUP2 CALLDATALOAD PUSH1 0x1 PUSH1 0x1 PUSH1 0xA0 SHL SUB DUP2 AND DUP2 SUB PUSH2 0x382A JUMPI DUP2 MSTORE SWAP1 DUP4 ADD SWAP1 DUP4 ADD PUSH2 0x3A49 JUMP JUMPDEST SWAP1 PUSH1 0xA0 DUP2 ADD SWAP2 DUP1 MLOAD DUP3 MSTORE PUSH1 0x20 DUP1 DUP3 ADD MLOAD SWAP4 PUSH1 0xA0 DUP3 DUP6 ADD MSTORE DUP5 MLOAD DUP1 SWAP2 MSTORE DUP2 PUSH1 0xC0 DUP6 ADD SWAP6 ADD SWAP2 PUSH0 JUMPDEST DUP3 DUP2 LT PUSH2 0x3AD7 JUMPI POP POP POP POP SWAP1 PUSH1 0x80 DUP1 DUP4 PUSH1 0x40 PUSH2 0x3AD4 SWAP6 ADD MLOAD PUSH1 0x40 DUP6 ADD MSTORE PUSH2 0x3ACA PUSH1 0x60 DUP3 ADD MLOAD PUSH1 0x60 DUP7 ADD SWAP1 PUSH2 0x38E0 JUMP JUMPDEST ADD MLOAD SWAP2 ADD SWAP1 PUSH2 0x38E0 JUMP JUMPDEST SWAP1 JUMP JUMPDEST DUP4 MLOAD PUSH1 0x1 PUSH1 0x1 PUSH1 0xA0 SHL SUB AND DUP8 MSTORE SWAP6 DUP2 ADD SWAP6 SWAP3 DUP2 ADD SWAP3 PUSH1 0x1 ADD PUSH2 0x3A9B JUMP JUMPDEST PUSH1 0x1 SLOAD PUSH1 0x1 PUSH1 0x1 PUSH1 0xA0 SHL SUB AND CALLER SUB PUSH2 0x3B08 JUMPI JUMP JUMPDEST PUSH1 0x40 MLOAD PUSH4 0x118CDAA7 PUSH1 0xE0 SHL DUP2 MSTORE CALLER PUSH1 0x4 DUP3 ADD MSTORE PUSH1 0x24 SWAP1 REVERT JUMPDEST DUP1 MLOAD ISZERO PUSH2 0x3B2D JUMPI PUSH1 0x20 ADD SWAP1 JUMP JUMPDEST PUSH4 0x4E487B71 PUSH1 0xE0 SHL PUSH0 MSTORE PUSH1 0x32 PUSH1 0x4 MSTORE PUSH1 0x24 PUSH0 REVERT JUMPDEST DUP1 MLOAD PUSH1 0x1 LT ISZERO PUSH2 0x3B2D JUMPI PUSH1 0x40 ADD SWAP1 JUMP JUMPDEST DUP1 MLOAD DUP3 LT ISZERO PUSH2 0x3B2D JUMPI PUSH1 0x20 SWAP2 PUSH1 0x5 SHL ADD ADD SWAP1 JUMP JUMPDEST SWAP2 SWAP1 DUP3 SUB SWAP2 DUP3 GT PUSH2 0x3B72 JUMPI JUMP JUMPDEST PUSH4 0x4E487B71 PUSH1 0xE0 SHL PUSH0 MSTORE PUSH1 0x11 PUSH1 0x4 MSTORE PUSH1 0x24 PUSH0 REVERT JUMPDEST PUSH0 NOT DUP2 EQ PUSH2 0x3B72 JUMPI PUSH1 0x1 ADD SWAP1 JUMP JUMPDEST DUP2 DUP2 MUL SWAP3 SWAP2 DUP2 ISZERO SWAP2 DUP5 DIV EQ OR ISZERO PUSH2 0x3B72 JUMPI JUMP JUMPDEST DUP2 ISZERO PUSH2 0x3BB1 JUMPI DIV SWAP1 JUMP JUMPDEST PUSH4 0x4E487B71 PUSH1 0xE0 SHL PUSH0 MSTORE PUSH1 0x12 PUSH1 0x4 MSTORE PUSH1 0x24 PUSH0 REVERT JUMPDEST SWAP2 SWAP1 DUP3 ADD DUP1 SWAP3 GT PUSH2 0x3B72 JUMPI JUMP JUMPDEST SWAP3 PUSH1 0x2 DUP2 LT ISZERO PUSH2 0x38ED JUMPI PUSH2 0x3BE9 JUMPI PUSH2 0x3AD4 SWAP3 PUSH2 0x3BF2 JUMP JUMPDEST PUSH2 0x3AD4 SWAP3 PUSH2 0x3D74 JUMP JUMPDEST PUSH0 DUP1 DUP1 MSTORE PUSH1 0x7 PUSH1 0x20 MSTORE PUSH32 0x6D5257204EBE7D88FD91AE87941CB2DD9D8062B64AE5A2BD2D28EC40B9FBF6DF SLOAD SWAP1 SWAP4 SWAP2 PUSH1 0x1 PUSH1 0x1 PUSH1 0xA0 SHL SUB SWAP2 DUP3 AND SWAP1 DUP2 ISZERO PUSH2 0x617 JUMPI DUP6 PUSH1 0xA4 SWAP3 PUSH1 0x20 SWAP6 PUSH3 0xFFFFFF PUSH1 0x13 SLOAD AND DUP7 PUSH1 0x40 MLOAD SWAP10 DUP11 SWAP9 DUP10 SWAP8 PUSH4 0xF7729D43 PUSH1 0xE0 SHL DUP10 MSTORE AND PUSH1 0x4 DUP9 ADD MSTORE AND PUSH1 0x24 DUP7 ADD MSTORE PUSH1 0x44 DUP6 ADD MSTORE PUSH1 0x64 DUP5 ADD MSTORE DUP2 PUSH1 0x84 DUP5 ADD MSTORE GAS CALL DUP3 SWAP2 DUP2 PUSH2 0x3C88 JUMPI JUMPDEST POP PUSH2 0x3C83 JUMPI POP SWAP1 JUMP JUMPDEST SWAP1 POP SWAP1 JUMP JUMPDEST SWAP1 SWAP2 POP PUSH1 0x20 DUP2 RETURNDATASIZE DUP3 GT PUSH2 0x3CB7 JUMPI JUMPDEST DUP2 PUSH2 0x3CA3 PUSH1 0x20 SWAP4 DUP4 PUSH2 0x39DF JUMP JUMPDEST DUP2 ADD SUB SLT PUSH2 0x3CB3 JUMPI MLOAD SWAP1 PUSH0 PUSH2 0x3C7A JUMP JUMPDEST DUP3 DUP1 REVERT JUMPDEST RETURNDATASIZE SWAP2 POP PUSH2 0x3C96 JUMP JUMPDEST PUSH1 0x20 SWAP1 DUP2 DUP2 DUP5 SUB SLT PUSH2 0x382A JUMPI DUP1 MLOAD SWAP1 PUSH1 0x1 PUSH1 0x1 PUSH1 0x40 SHL SUB DUP3 GT PUSH2 0x382A JUMPI ADD SWAP2 DUP1 PUSH1 0x1F DUP5 ADD SLT ISZERO PUSH2 0x382A JUMPI DUP3 MLOAD PUSH2 0x3CF4 DUP2 PUSH2 0x3A00 JUMP JUMPDEST SWAP4 PUSH2 0x3D02 PUSH1 0x40 MLOAD SWAP6 DUP7 PUSH2 0x39DF JUMP JUMPDEST DUP2 DUP6 MSTORE DUP4 DUP1 DUP7 ADD SWAP3 PUSH1 0x5 SHL DUP3 ADD ADD SWAP3 DUP4 GT PUSH2 0x382A JUMPI DUP4 ADD SWAP1 JUMPDEST DUP3 DUP3 LT PUSH2 0x3D29 JUMPI POP POP POP POP SWAP1 JUMP JUMPDEST DUP2 MLOAD DUP2 MSTORE SWAP1 DUP4 ADD SWAP1 DUP4 ADD PUSH2 0x3D1B JUMP JUMPDEST SWAP1 DUP2 MLOAD DUP1 DUP3 MSTORE PUSH1 0x20 DUP1 DUP1 SWAP4 ADD SWAP4 ADD SWAP2 PUSH0 JUMPDEST DUP3 DUP2 LT PUSH2 0x3D57 JUMPI POP POP POP POP SWAP1 JUMP JUMPDEST DUP4 MLOAD PUSH1 0x1 PUSH1 0x1 PUSH1 0xA0 SHL SUB AND DUP6 MSTORE SWAP4 DUP2 ADD SWAP4 SWAP3 DUP2 ADD SWAP3 PUSH1 0x1 ADD PUSH2 0x3D49 JUMP JUMPDEST PUSH1 0x1 PUSH0 SWAP1 DUP2 MSTORE PUSH1 0x6 PUSH1 0x20 MSTORE PUSH32 0x3E5FEC24AA4DC4E5AEE2E025E51E1392C72A2500577559FAE9665C6D52BD6A31 SLOAD SWAP1 SWAP5 SWAP4 SWAP2 SWAP3 PUSH1 0x1 PUSH1 0x1 PUSH1 0xA0 SHL SUB SWAP2 DUP3 AND SWAP3 PUSH1 0x40 SWAP3 SWAP1 SWAP2 SWAP1 DUP5 ISZERO PUSH2 0x3E8A JUMPI SWAP2 DUP4 SWAP2 DUP9 SWAP6 SWAP4 PUSH2 0x3E21 SWAP8 SWAP6 MLOAD SWAP6 PUSH2 0x3DD4 DUP8 PUSH2 0x39C4 JUMP JUMPDEST PUSH1 0x2 DUP8 MSTORE DUP5 CALLDATASIZE PUSH1 0x20 DUP10 ADD CALLDATACOPY DUP2 PUSH2 0x3DE9 DUP9 PUSH2 0x3B20 JUMP JUMPDEST SWAP2 AND SWAP1 MSTORE PUSH2 0x3DF6 DUP7 PUSH2 0x3B41 JUMP JUMPDEST SWAP2 AND SWAP1 MSTORE DUP2 MLOAD SWAP6 DUP7 SWAP5 DUP6 SWAP4 DUP5 SWAP4 PUSH4 0xD06CA61F PUSH1 0xE0 SHL DUP6 MSTORE PUSH1 0x4 DUP6 ADD MSTORE PUSH1 0x24 DUP5 ADD MSTORE PUSH1 0x44 DUP4 ADD SWAP1 PUSH2 0x3D38 JUMP JUMPDEST SUB SWAP2 GAS STATICCALL DUP4 SWAP2 DUP2 PUSH2 0x3E66 JUMPI JUMPDEST POP PUSH2 0x3E35 JUMPI POP JUMP JUMPDEST DUP1 MLOAD PUSH0 NOT DUP2 ADD SWAP2 SWAP1 DUP3 GT PUSH2 0x3E52 JUMPI PUSH2 0x3E4E SWAP3 SWAP4 POP PUSH2 0x3B51 JUMP JUMPDEST MLOAD SWAP1 JUMP JUMPDEST PUSH4 0x4E487B71 PUSH1 0xE0 SHL DUP5 MSTORE PUSH1 0x11 PUSH1 0x4 MSTORE PUSH1 0x24 DUP5 REVERT JUMPDEST PUSH2 0x3E83 SWAP2 SWAP3 POP RETURNDATASIZE DUP1 DUP7 DUP4 RETURNDATACOPY PUSH2 0x3E7B DUP2 DUP4 PUSH2 0x39DF JUMP JUMPDEST DUP2 ADD SWAP1 PUSH2 0x3CBF JUMP JUMPDEST SWAP1 PUSH0 PUSH2 0x3E2D JUMP JUMPDEST DUP4 MLOAD PUSH4 0x2A4251F7 PUSH1 0xE2 SHL DUP2 MSTORE PUSH1 0x4 SWAP1 REVERT JUMPDEST MLOAD SWAP1 PUSH10 0xFFFFFFFFFFFFFFFFFFFF DUP3 AND DUP3 SUB PUSH2 0x382A JUMPI JUMP JUMPDEST SWAP1 DUP2 PUSH1 0xA0 SWAP2 SUB SLT PUSH2 0x382A JUMPI PUSH2 0x3EC6 DUP2 PUSH2 0x3E9B JUMP JUMPDEST SWAP2 PUSH1 0x20 DUP3 ADD MLOAD SWAP2 PUSH1 0x40 DUP2 ADD MLOAD SWAP2 PUSH2 0x3AD4 PUSH1 0x80 PUSH1 0x60 DUP5 ADD MLOAD SWAP4 ADD PUSH2 0x3E9B JUMP JUMPDEST PUSH1 0xFF AND PUSH1 0x4D DUP2 GT PUSH2 0x3B72 JUMPI PUSH1 0xA EXP SWAP1 JUMP JUMPDEST PUSH1 0x1 PUSH1 0x1 PUSH1 0xA0 SHL SUB SWAP1 SWAP2 AND PUSH0 SWAP1 DUP2 MSTORE PUSH1 0x5 PUSH1 0x20 MSTORE PUSH1 0x40 DUP2 KECCAK256 SLOAD PUSH1 0xFF AND DUP1 ISZERO PUSH2 0x3F78 JUMPI JUMPDEST PUSH1 0xFF AND PUSH1 0x12 DUP2 LT PUSH2 0x3F58 JUMPI PUSH1 0x11 NOT ADD SWAP1 PUSH1 0xFF DUP3 GT PUSH2 0x3F44 JUMPI POP SWAP1 PUSH2 0x3F3E PUSH2 0x3AD4 SWAP3 PUSH2 0x3EE4 JUMP JUMPDEST SWAP1 PUSH2 0x3BA7 JUMP JUMPDEST PUSH4 0x4E487B71 PUSH1 0xE0 SHL DUP2 MSTORE PUSH1 0x11 PUSH1 0x4 MSTORE PUSH1 0x24 SWAP1 REVERT JUMPDEST PUSH1 0x12 SUB SWAP1 PUSH1 0xFF DUP3 GT PUSH2 0x3F44 JUMPI POP SWAP1 PUSH2 0x3F72 PUSH2 0x3AD4 SWAP3 PUSH2 0x3EE4 JUMP JUMPDEST SWAP1 PUSH2 0x3B94 JUMP JUMPDEST POP PUSH1 0x12 PUSH2 0x3F18 JUMP JUMPDEST SWAP1 DUP2 ISZERO PUSH2 0x112A JUMPI DUP1 ISZERO PUSH2 0x112A JUMPI PUSH8 0xDE0B6B3A7640000 SWAP2 DUP3 DUP3 MUL SWAP2 DUP3 DIV DUP4 SUB PUSH2 0x3B72 JUMPI PUSH2 0x3FAC SWAP2 PUSH2 0x3BA7 JUMP JUMPDEST SWAP2 DUP2 DUP2 MUL SWAP2 DUP2 DUP4 DIV EQ SWAP1 ISZERO OR ISZERO PUSH2 0x3B72 JUMPI PUSH2 0x3FCF SWAP3 PUSH2 0x3FCA SWAP2 PUSH2 0x3BA7 JUMP JUMPDEST PUSH2 0x3FEB JUMP JUMPDEST PUSH1 0x11 SLOAD LT PUSH2 0x3FD9 JUMPI JUMP JUMPDEST PUSH1 0x40 MLOAD PUSH4 0x69E25179 PUSH1 0xE1 SHL DUP2 MSTORE PUSH1 0x4 SWAP1 REVERT JUMPDEST DUP1 ISZERO DUP1 ISZERO PUSH2 0x4049 JUMPI JUMPDEST PUSH2 0x17FD JUMPI DUP2 DUP2 GT SWAP2 DUP3 ISZERO PUSH2 0x4039 JUMPI PUSH2 0x400C DUP2 DUP4 PUSH2 0x3B65 JUMP JUMPDEST SWAP3 JUMPDEST ISZERO PUSH2 0x4032 JUMPI POP JUMPDEST PUSH2 0x2710 SWAP2 DUP3 DUP2 MUL SWAP3 DUP2 DUP5 DIV EQ SWAP1 ISZERO OR ISZERO PUSH2 0x3B72 JUMPI PUSH2 0x3AD4 SWAP2 PUSH2 0x3BA7 JUMP JUMPDEST SWAP1 POP PUSH2 0x4015 JUMP JUMPDEST PUSH2 0x4043 DUP3 DUP3 PUSH2 0x3B65 JUMP JUMPDEST SWAP3 PUSH2 0x400E JUMP JUMPDEST POP DUP2 ISZERO PUSH2 0x3FF4 JUMP JUMPDEST PUSH1 0x2 DUP3 LT ISZERO PUSH2 0x38ED JUMPI MSTORE JUMP JUMPDEST SWAP1 PUSH1 0x40 MLOAD PUSH2 0x406A DUP2 PUSH2 0x398E JUMP JUMPDEST DUP1 SWAP3 DUP1 SLOAD DUP3 MSTORE PUSH1 0x1 DUP1 DUP3 ADD PUSH1 0x40 MLOAD SWAP1 DUP2 SWAP3 DUP2 SLOAD SWAP1 DUP2 DUP5 MSTORE PUSH1 0x20 DUP1 SWAP5 ADD SWAP3 PUSH0 MSTORE DUP4 PUSH0 KECCAK256 SWAP2 PUSH0 JUMPDEST DUP2 DUP2 LT PUSH2 0x40DE JUMPI POP POP POP POP PUSH2 0x40DC SWAP5 SWAP4 DUP4 PUSH1 0xFF SWAP4 PUSH2 0x40B3 PUSH1 0x80 SWAP7 PUSH1 0x3 SWAP6 SUB DUP4 PUSH2 0x39DF JUMP JUMPDEST DUP7 ADD MSTORE PUSH1 0x2 DUP2 ADD SLOAD PUSH1 0x40 DUP7 ADD MSTORE ADD SLOAD PUSH2 0x40D1 DUP3 DUP3 AND PUSH1 0x60 DUP7 ADD PUSH2 0x4051 JUMP JUMPDEST PUSH1 0x8 SHR AND SWAP2 ADD PUSH2 0x4051 JUMP JUMPDEST JUMP JUMPDEST DUP4 SLOAD PUSH1 0x1 PUSH1 0x1 PUSH1 0xA0 SHL SUB AND DUP6 MSTORE SWAP4 DUP6 ADD SWAP4 SWAP3 DUP3 ADD SWAP3 DUP3 ADD PUSH2 0x408F JUMP JUMPDEST MLOAD SWAP1 DUP2 ISZERO ISZERO DUP3 SUB PUSH2 0x382A JUMPI JUMP JUMPDEST PUSH1 0x2 PUSH0 SLOAD EQ PUSH2 0x4116 JUMPI PUSH1 0x2 PUSH0 SSTORE JUMP JUMPDEST PUSH1 0x40 MLOAD PUSH3 0x461BCD PUSH1 0xE5 SHL DUP2 MSTORE PUSH1 0x20 PUSH1 0x4 DUP3 ADD MSTORE PUSH1 0x1F PUSH1 0x24 DUP3 ADD MSTORE PUSH32 0x5265656E7472616E637947756172643A207265656E7472616E742063616C6C00 PUSH1 0x44 DUP3 ADD MSTORE PUSH1 0x64 SWAP1 REVERT JUMPDEST PUSH1 0x40 MLOAD PUSH4 0xA9059CBB PUSH1 0xE0 SHL PUSH1 0x20 DUP3 ADD MSTORE PUSH1 0x1 PUSH1 0x1 PUSH1 0xA0 SHL SUB SWAP3 SWAP1 SWAP3 AND PUSH1 0x24 DUP4 ADD MSTORE PUSH1 0x44 DUP1 DUP4 ADD SWAP4 SWAP1 SWAP4 MSTORE SWAP2 DUP2 MSTORE PUSH2 0x40DC SWAP2 PUSH2 0x4197 PUSH1 0x64 DUP4 PUSH2 0x39DF JUMP JUMPDEST SWAP1 PUSH0 PUSH1 0x20 SWAP2 DUP3 DUP2 MLOAD SWAP2 ADD DUP3 DUP6 GAS CALL ISZERO PUSH2 0x41F1 JUMPI PUSH0 MLOAD RETURNDATASIZE PUSH2 0x41E8 JUMPI POP PUSH1 0x1 PUSH1 0x1 PUSH1 0xA0 SHL SUB DUP2 AND EXTCODESIZE ISZERO JUMPDEST PUSH2 0x41C6 JUMPI POP JUMP JUMPDEST PUSH1 0x40 MLOAD PUSH4 0x5274AFE7 PUSH1 0xE0 SHL DUP2 MSTORE PUSH1 0x1 PUSH1 0x1 PUSH1 0xA0 SHL SUB SWAP1 SWAP2 AND PUSH1 0x4 DUP3 ADD MSTORE PUSH1 0x24 SWAP1 REVERT JUMPDEST PUSH1 0x1 EQ ISZERO PUSH2 0x41BF JUMP JUMPDEST PUSH1 0x40 MLOAD RETURNDATASIZE PUSH0 DUP3 RETURNDATACOPY RETURNDATASIZE SWAP1 REVERT JUMPDEST SWAP3 SWAP5 SWAP4 SWAP5 SWAP2 SWAP1 SWAP2 PUSH1 0x2 DUP2 LT ISZERO PUSH2 0x38ED JUMPI PUSH2 0x43B0 JUMPI PUSH0 SWAP3 DUP4 DUP1 MSTORE PUSH1 0x20 SWAP3 PUSH1 0x6 DUP5 MSTORE PUSH1 0x1 DUP1 PUSH1 0xA0 SHL SUB SWAP3 PUSH1 0x40 SWAP8 DUP5 DUP10 DUP9 KECCAK256 SLOAD AND SWAP4 DUP5 ISZERO PUSH2 0x439F JUMPI DUP5 DUP9 MSTORE PUSH1 0x8 DUP8 MSTORE PUSH1 0xFF DUP11 DUP10 KECCAK256 SLOAD AND ISZERO PUSH2 0x438E JUMPI PUSH2 0x4254 DUP4 DUP7 DUP9 DUP5 AND PUSH2 0x456B JUMP JUMPDEST PUSH1 0x13 SLOAD SWAP4 DUP11 MLOAD SWAP5 PUSH1 0x1 PUSH1 0x1 PUSH1 0x60 SHL SUB NOT DUP1 SWAP4 PUSH1 0x60 SHL AND DUP10 DUP8 ADD MSTORE PUSH3 0xFFFFFF PUSH1 0xE8 SHL SWAP1 PUSH1 0xE8 SHL AND PUSH1 0x34 DUP7 ADD MSTORE PUSH1 0x60 SHL AND PUSH1 0x37 DUP5 ADD MSTORE PUSH1 0x2B DUP4 MSTORE PUSH2 0x4295 DUP4 PUSH2 0x39C4 JUMP JUMPDEST PUSH2 0x2710 SWAP1 DUP2 SUB DUP2 DUP2 GT PUSH2 0x437A JUMPI SWAP3 DUP3 DUP9 SWAP3 PUSH2 0x42B6 DUP10 SWAP9 SWAP8 SWAP7 PUSH2 0x430B SWAP7 PUSH2 0x3B94 JUMP JUMPDEST DIV DUP12 MLOAD SWAP3 PUSH2 0x42C3 DUP5 PUSH2 0x398E JUMP JUMPDEST DUP4 MSTORE DUP8 DUP4 ADD SWAP2 ADDRESS DUP4 MSTORE DUP13 DUP5 ADD SWAP12 DUP13 MSTORE PUSH1 0x60 DUP5 ADD SWAP1 DUP2 MSTORE PUSH1 0x80 DUP5 ADD SWAP2 DUP3 MSTORE DUP13 MLOAD SWAP12 DUP13 SWAP9 DUP10 SWAP8 DUP9 SWAP7 PUSH4 0xC04B8D59 PUSH1 0xE0 SHL DUP9 MSTORE DUP13 PUSH1 0x4 DUP10 ADD MSTORE MLOAD PUSH1 0xA0 PUSH1 0x24 DUP10 ADD MSTORE PUSH1 0xC4 DUP9 ADD SWAP1 PUSH2 0x452D JUMP JUMPDEST SWAP5 MLOAD AND PUSH1 0x44 DUP7 ADD MSTORE MLOAD PUSH1 0x64 DUP6 ADD MSTORE MLOAD PUSH1 0x84 DUP5 ADD MSTORE MLOAD PUSH1 0xA4 DUP4 ADD MSTORE SUB SWAP3 GAS CALL SWAP4 DUP5 ISZERO PUSH2 0x436F JUMPI POP DUP2 SWAP4 PUSH2 0x433E JUMPI JUMPDEST POP POP POP SWAP1 JUMP JUMPDEST SWAP1 SWAP2 DUP1 SWAP4 POP DUP2 RETURNDATASIZE DUP4 GT PUSH2 0x4368 JUMPI JUMPDEST PUSH2 0x4356 DUP2 DUP4 PUSH2 0x39DF JUMP JUMPDEST DUP2 ADD SUB SLT PUSH2 0x3C0 JUMPI POP MLOAD PUSH0 DUP1 DUP1 PUSH2 0x4338 JUMP JUMPDEST POP RETURNDATASIZE PUSH2 0x434C JUMP JUMPDEST MLOAD SWAP2 RETURNDATASIZE SWAP2 POP DUP3 RETURNDATACOPY RETURNDATASIZE SWAP1 REVERT JUMPDEST PUSH4 0x4E487B71 PUSH1 0xE0 SHL DUP9 MSTORE PUSH1 0x11 PUSH1 0x4 MSTORE PUSH1 0x24 DUP9 REVERT JUMPDEST DUP10 MLOAD PUSH4 0x5BB58457 PUSH1 0xE1 SHL DUP2 MSTORE PUSH1 0x4 SWAP1 REVERT JUMPDEST DUP10 MLOAD PUSH4 0x2A4251F7 PUSH1 0xE2 SHL DUP2 MSTORE PUSH1 0x4 SWAP1 REVERT JUMPDEST PUSH1 0x1 PUSH0 SWAP1 DUP2 MSTORE PUSH1 0x6 PUSH1 0x20 MSTORE PUSH32 0x3E5FEC24AA4DC4E5AEE2E025E51E1392C72A2500577559FAE9665C6D52BD6A31 SLOAD SWAP1 SWAP7 SWAP6 PUSH1 0x40 SWAP6 PUSH1 0x1 PUSH1 0x1 PUSH1 0xA0 SHL SUB SWAP6 SWAP3 DUP7 AND SWAP5 SWAP1 SWAP4 SWAP3 DUP6 ISZERO PUSH2 0x451C JUMPI DUP6 DUP11 MSTORE PUSH1 0x8 PUSH1 0x20 MSTORE PUSH1 0xFF DUP9 DUP12 KECCAK256 SLOAD AND ISZERO PUSH2 0x450B JUMPI DUP7 AND SWAP6 PUSH2 0x441B DUP5 DUP8 DUP10 PUSH2 0x456B JUMP JUMPDEST DUP8 MLOAD SWAP7 PUSH2 0x4427 DUP9 PUSH2 0x39C4 JUMP JUMPDEST PUSH1 0x2 DUP9 MSTORE DUP9 CALLDATASIZE PUSH1 0x20 DUP11 ADD CALLDATACOPY PUSH2 0x443B DUP9 PUSH2 0x3B20 JUMP JUMPDEST MSTORE PUSH2 0x4445 DUP8 PUSH2 0x3B41 JUMP JUMPDEST SWAP2 AND SWAP1 MSTORE PUSH2 0x2710 SWAP1 DUP2 SUB DUP2 DUP2 GT PUSH2 0x44F7 JUMPI DUP3 PUSH2 0x449B SWAP7 SWAP5 SWAP3 PUSH2 0x446B DUP12 SWAP8 SWAP6 SWAP4 DUP9 SWAP5 PUSH2 0x3B94 JUMP JUMPDEST DIV SWAP3 DUP9 MLOAD SWAP8 DUP9 SWAP7 DUP8 SWAP6 DUP7 SWAP5 PUSH4 0x38ED1739 PUSH1 0xE0 SHL DUP7 MSTORE PUSH1 0x4 DUP7 ADD MSTORE PUSH1 0x24 DUP6 ADD MSTORE PUSH1 0xA0 PUSH1 0x44 DUP6 ADD MSTORE PUSH1 0xA4 DUP5 ADD SWAP1 PUSH2 0x3D38 JUMP JUMPDEST SWAP1 ADDRESS PUSH1 0x64 DUP5 ADD MSTORE PUSH1 0x84 DUP4 ADD MSTORE SUB SWAP3 GAS CALL SWAP2 DUP3 ISZERO PUSH2 0x44EE JUMPI POP DUP4 SWAP2 PUSH2 0x44D4 JUMPI JUMPDEST POP DUP1 MLOAD PUSH0 NOT DUP2 ADD SWAP2 SWAP1 DUP3 GT PUSH2 0x3E52 JUMPI PUSH2 0x3E4E SWAP3 SWAP4 POP PUSH2 0x3B51 JUMP JUMPDEST PUSH2 0x44E8 SWAP2 POP RETURNDATASIZE DUP1 DUP6 DUP4 RETURNDATACOPY PUSH2 0x3E7B DUP2 DUP4 PUSH2 0x39DF JUMP JUMPDEST PUSH0 PUSH2 0x44BA JUMP JUMPDEST MLOAD RETURNDATASIZE DUP6 DUP3 RETURNDATACOPY RETURNDATASIZE SWAP1 REVERT JUMPDEST PUSH4 0x4E487B71 PUSH1 0xE0 SHL DUP10 MSTORE PUSH1 0x11 PUSH1 0x4 MSTORE PUSH1 0x24 DUP10 REVERT JUMPDEST DUP8 MLOAD PUSH4 0x5BB58457 PUSH1 0xE1 SHL DUP2 MSTORE PUSH1 0x4 SWAP1 REVERT JUMPDEST DUP8 MLOAD PUSH4 0x2A4251F7 PUSH1 0xE2 SHL DUP2 MSTORE PUSH1 0x4 SWAP1 REVERT JUMPDEST SWAP2 SWAP1 DUP3 MLOAD SWAP3 DUP4 DUP3 MSTORE PUSH0 JUMPDEST DUP5 DUP2 LT PUSH2 0x4557 JUMPI POP POP DUP3 PUSH0 PUSH1 0x20 DUP1 SWAP5 SWAP6 DUP5 ADD ADD MSTORE PUSH1 0x1F DUP1 NOT SWAP2 ADD AND ADD ADD SWAP1 JUMP JUMPDEST PUSH1 0x20 DUP2 DUP4 ADD DUP2 ADD MLOAD DUP5 DUP4 ADD DUP3 ADD MSTORE ADD PUSH2 0x4537 JUMP JUMPDEST PUSH1 0x40 MLOAD PUSH4 0x95EA7B3 PUSH1 0xE0 SHL PUSH1 0x20 DUP1 DUP4 ADD DUP3 DUP2 MSTORE PUSH1 0x1 PUSH1 0x1 PUSH1 0xA0 SHL SUB DUP7 AND PUSH1 0x24 DUP6 ADD MSTORE PUSH1 0x44 DUP1 DUP6 ADD SWAP8 SWAP1 SWAP8 MSTORE SWAP6 DUP4 MSTORE SWAP1 SWAP5 SWAP2 SWAP4 SWAP2 PUSH0 SWAP1 PUSH2 0x45AB PUSH1 0x64 DUP8 PUSH2 0x39DF JUMP JUMPDEST DUP6 MLOAD SWAP1 DUP3 DUP7 GAS CALL PUSH0 MLOAD RETURNDATASIZE DUP3 PUSH2 0x4609 JUMPI JUMPDEST POP POP ISZERO PUSH2 0x45C9 JUMPI JUMPDEST POP POP POP POP JUMP JUMPDEST PUSH2 0x4600 SWAP4 PUSH2 0x4197 SWAP2 PUSH1 0x40 MLOAD SWAP2 PUSH1 0x20 DUP4 ADD MSTORE PUSH1 0x1 DUP1 PUSH1 0xA0 SHL SUB AND PUSH1 0x24 DUP3 ADD MSTORE PUSH0 PUSH1 0x44 DUP3 ADD MSTORE PUSH1 0x44 DUP2 MSTORE PUSH2 0x45FA DUP2 PUSH2 0x39A9 JUMP JUMPDEST DUP3 PUSH2 0x4197 JUMP JUMPDEST PUSH0 DUP1 DUP1 DUP1 PUSH2 0x45C3 JUMP JUMPDEST SWAP1 SWAP2 POP PUSH2 0x4626 JUMPI POP PUSH1 0x1 PUSH1 0x1 PUSH1 0xA0 SHL SUB DUP3 AND EXTCODESIZE ISZERO ISZERO JUMPDEST PUSH0 DUP1 PUSH2 0x45BB JUMP JUMPDEST PUSH1 0x1 EQ PUSH2 0x461F JUMP JUMPDEST SWAP2 SWAP1 DUP2 LT ISZERO PUSH2 0x3B2D JUMPI PUSH1 0x5 SHL ADD SWAP1 JUMP JUMPDEST CALLDATALOAD PUSH1 0x1 PUSH1 0x1 PUSH1 0xA0 SHL SUB DUP2 AND DUP2 SUB PUSH2 0x382A JUMPI SWAP1 JUMP JUMPDEST PUSH9 0x10000000000000000 DUP3 GT PUSH2 0x397A JUMPI DUP1 SLOAD SWAP2 DUP1 DUP3 SSTORE DUP3 DUP2 LT PUSH2 0x4674 JUMPI POP POP POP JUMP JUMPDEST PUSH0 SWAP2 DUP3 MSTORE PUSH1 0x20 DUP3 KECCAK256 SWAP3 DUP4 ADD SWAP3 ADD JUMPDEST DUP3 DUP2 LT PUSH2 0x468E JUMPI POP POP POP JUMP JUMPDEST DUP2 DUP2 SSTORE PUSH1 0x1 ADD PUSH2 0x4682 JUMP JUMPDEST SWAP1 PUSH1 0x2 DUP2 LT ISZERO PUSH2 0x38ED JUMPI PUSH1 0xFF DUP1 NOT DUP4 SLOAD AND SWAP2 AND OR SWAP1 SSTORE JUMP JUMPDEST SWAP1 PUSH1 0x2 DUP2 LT ISZERO PUSH2 0x38ED JUMPI PUSH2 0xFF00 DUP3 SLOAD SWAP2 PUSH1 0x8 SHL AND SWAP1 PUSH2 0xFF00 NOT AND OR SWAP1 SSTORE JUMP JUMPDEST PUSH1 0x40 MLOAD SWAP1 PUSH2 0x46DD DUP3 PUSH2 0x398E JUMP JUMPDEST PUSH0 PUSH1 0x80 DUP4 DUP3 DUP2 MSTORE PUSH1 0x60 PUSH1 0x20 DUP3 ADD MSTORE DUP3 PUSH1 0x40 DUP3 ADD MSTORE DUP3 PUSH1 0x60 DUP3 ADD MSTORE ADD MSTORE JUMP JUMPDEST DUP2 DUP2 EQ PUSH2 0x475F JUMPI DUP2 SLOAD SWAP2 PUSH1 0x1 PUSH1 0x1 PUSH1 0x40 SHL SUB DUP4 GT PUSH2 0x397A JUMPI PUSH2 0x471D DUP4 DUP4 PUSH2 0x4652 JUMP JUMPDEST PUSH0 MSTORE PUSH1 0x20 PUSH0 KECCAK256 SWAP1 PUSH0 MSTORE PUSH1 0x20 PUSH0 KECCAK256 DUP2 SLOAD SWAP2 PUSH0 SWAP3 JUMPDEST DUP5 DUP5 LT PUSH2 0x473E JUMPI POP POP POP POP POP JUMP JUMPDEST PUSH1 0x1 SWAP2 DUP3 ADD DUP1 SLOAD PUSH1 0x1 PUSH1 0x1 PUSH1 0xA0 SHL SUB SWAP1 SWAP3 AND DUP5 DUP7 ADD SSTORE SWAP4 SWAP1 SWAP2 ADD SWAP3 SWAP1 PUSH2 0x4730 JUMP JUMPDEST POP POP JUMP JUMPDEST CALLDATALOAD DUP1 ISZERO ISZERO DUP2 SUB PUSH2 0x382A JUMPI SWAP1 JUMP JUMPDEST PUSH1 0x1 PUSH1 0x1 PUSH1 0xA0 SHL SUB AND PUSH0 DUP2 DUP2 MSTORE PUSH1 0x5 PUSH1 0x20 MSTORE PUSH1 0x40 DUP2 KECCAK256 SLOAD PUSH1 0xFF AND SWAP2 DUP3 ISZERO PUSH2 0x4796 JUMPI POP POP SWAP1 JUMP JUMPDEST PUSH1 0x40 MLOAD PUSH4 0x313CE567 PUSH1 0xE0 SHL DUP2 MSTORE SWAP2 SWAP3 POP PUSH1 0x20 SWAP1 DUP3 SWAP1 PUSH1 0x4 SWAP1 DUP3 SWAP1 GAS STATICCALL SWAP1 DUP3 SWAP1 DUP3 PUSH2 0x47C7 JUMPI JUMPDEST POP POP PUSH2 0x3AD4 JUMPI POP PUSH1 0x12 SWAP1 JUMP JUMPDEST SWAP1 SWAP2 SWAP3 POP PUSH1 0x20 DUP2 RETURNDATASIZE DUP3 GT PUSH2 0x4804 JUMPI JUMPDEST DUP2 PUSH2 0x47E3 PUSH1 0x20 SWAP4 DUP4 PUSH2 0x39DF JUMP JUMPDEST DUP2 ADD SUB SLT PUSH2 0x4800 JUMPI MLOAD SWAP1 PUSH1 0xFF DUP3 AND DUP3 SUB PUSH2 0x3C0 JUMPI POP SWAP1 PUSH0 DUP1 PUSH2 0x47BB JUMP JUMPDEST POP DUP1 REVERT JUMPDEST RETURNDATASIZE SWAP2 POP PUSH2 0x47D6 JUMP JUMPDEST RETURNDATASIZE ISZERO PUSH2 0x4845 JUMPI RETURNDATASIZE SWAP1 PUSH1 0x1 PUSH1 0x1 PUSH1 0x40 SHL SUB DUP3 GT PUSH2 0x397A JUMPI PUSH1 0x40 MLOAD SWAP2 PUSH2 0x483A PUSH1 0x1F DUP3 ADD PUSH1 0x1F NOT AND PUSH1 0x20 ADD DUP5 PUSH2 0x39DF JUMP JUMPDEST DUP3 MSTORE RETURNDATASIZE PUSH0 PUSH1 0x20 DUP5 ADD RETURNDATACOPY JUMP JUMPDEST PUSH1 0x60 SWAP1 JUMP INVALID LOG2 PUSH5 0x6970667358 0x22 SLT KECCAK256 0xD6 0x27 DUP9 GASPRICE 0xCA AND PUSH31 0x7BF480C6A89386CED33EECE14753595586BE3668FF461EB23A64736F6C6343 STOP ADDMOD EQ STOP CALLER "
		},
		"gasEstimates": {
			"creation": {
				"codeDepositCost": "3712000",
				"executionCost": "641255",
				"totalCost": "4353255"
			},
			"external": {
				"ADDRESSES_PROVIDER()": "2322",
				"POOL()": "3092",
				"aaveV3AddressesProvider()": "3620",
				"aaveV3Pool()": "3246",
				"addRoute(address[],uint256,uint8,uint8)": "infinite",
				"addRoutesBatch(address[][],uint256[],uint8[],uint8[])": "infinite",
				"autoUnwrapWETH()": "2376",
				"beneficiary()": "2652",
				"beneficiaryShareBps()": "3398",
				"builderTipBps()": "2716",
				"calculateProfitability(address[],uint256,uint8,uint8)": "infinite",
				"deadlineSeconds()": "3662",
				"defaultUniV3Fee()": "2546",
				"deleteRoute(uint256)": "infinite",
				"dexQuoters(uint8)": "4066",
				"dexRouters(uint8)": "3274",
				"emergencyCleanup(address[])": "infinite",
				"emergencyWithdraw(address)": "infinite",
				"enforceProfitabilityCheck()": "2932",
				"enforceSecondaryOracle()": "2866",
				"executeOperation(address,uint256,uint256,address,bytes)": "infinite",
				"flashLoanPremiumBps()": "2760",
				"gasPrice()": "4034",
				"gasUnitsEstimate()": "3772",
				"getAllRoutes(uint256,uint256)": "infinite",
				"getDEXQuoter(uint8)": "3538",
				"getDEXRouter(uint8)": "4114",
				"getPriceFeed(address)": "2939",
				"getRoute(uint256)": "infinite",
				"getRouteCount()": "2584",
				"getTokenDecimals(address)": "infinite",
				"initiateArbitrage(address,uint256,uint256,bool)": "infinite",
				"isPaused()": "3504",
				"isRouterWhitelisted(address)": "2505",
				"isTokenSupported(address)": "3223",
				"maxLoanAmount()": "3024",
				"maxPriceFeedAge()": "2320",
				"maxSlippageBps()": "3640",
				"minProfitAbsolute()": "3794",
				"minProfitBps()": "2606",
				"oracleDeviationBps()": "3244",
				"owner()": "3290",
				"paused()": "2822",
				"priceFeeds(address)": "3599",
				"renounceOwnership()": "28793",
				"routeCount()": "3618",
				"routes(uint256)": "infinite",
				"safetyBufferBps()": "2738",
				"secondaryOracleDeviationBps()": "3728",
				"secondaryPriceFeeds(address)": "3731",
				"setAutoUnwrapWETH(bool)": "28544",
				"setBeneficiary(address)": "28021",
				"setBeneficiaryShare(uint256)": "25903",
				"setDEXQuoter(uint8,address)": "29495",
				"setDEXRouter(uint8,address)": "54214",
				"setDefaultUniV3Fee(uint24)": "29392",
				"setEnforceProfitabilityCheck(bool)": "28575",
				"setEnforceSecondaryOracle(bool)": "29369",
				"setMaxLoanAmount(uint256)": "26758",
				"setMinProfitAbsolute(uint256)": "26890",
				"setPaused(bool)": "27827",
				"setPriceFeed(address,address)": "29166",
				"setPriceFeedsBatch(address[],address[])": "infinite",
				"setProtocolAddresses(address,address)": "53557",
				"setSecondaryPriceFeed(address,address)": "28726",
				"setTokenDecimals(address,uint8)": "28722",
				"setTokenSupported(address,bool)": "29420",
				"setTokensSupportedBatch(address[],bool[])": "infinite",
				"supportedTokens(address)": "3055",
				"tokenDecimals(address)": "3445",
				"transferOwnership(address)": "29888",
				"updateAaveV3Pool(address)": "28030",
				"updateAddressesProvider(address)": "26864",
				"updateOracleParams(uint256,uint256,uint256)": "71527",
				"updateProfitabilityParams(uint256,uint256,uint256,uint256)": "93453",
				"updateRiskParams(uint256,uint256,uint256,uint256)": "93384",
				"updateRoute(uint256,address[],uint256,uint8,uint8)": "infinite",
				"weth()": "2696",
				"whitelistRouter(address,bool)": "29266",
				"whitelistedRouters(address)": "2571",
				"withdrawETH()": "infinite"
			},
			"internal": {
				"_addRouteInternal(address[] calldata,uint256,enum ArbExecutor.DEXType,enum ArbExecutor.DEXType)": "infinite",
				"_calculateBps(uint256,uint256)": "infinite",
				"_calculateDeviation(uint256,uint256)": "infinite",
				"_calculateDynamicGasEstimate(uint256)": "infinite",
				"_calculateDynamicSlippage(uint256,uint256)": "infinite",
				"_distributeProfitToBeneficiary(address,uint256)": "infinite",
				"_executeArbitrage(address[] memory,uint256,enum ArbExecutor.DEXType,enum ArbExecutor.DEXType,uint256,uint256)": "infinite",
				"_executeDexSwap(address,address,uint256,enum ArbExecutor.DEXType,uint256,uint256)": "infinite",
				"_executeSushiswapSwap(address,address,uint256,uint256,uint256)": "infinite",
				"_executeUniswapV3Swap(address,address,uint256,uint256,uint256)": "infinite",
				"_getOraclePricesAndValidate(address,address)": "infinite",
				"_getQuote(address,address,uint256,enum ArbExecutor.DEXType)": "infinite",
				"_getSushiswapQuote(address,address,uint256)": "infinite",
				"_getUniswapV3Quote(address,address,uint256)": "infinite",
				"_normalizePrice(uint256,address)": "2445",
				"_validatePriceDeviationWithCache(uint256,uint256,uint256,uint256)": "infinite",
				"_validateSecondaryOracle(address,address,int256,int256)": "infinite"
			}
		},
		"methodIdentifiers": {
			"ADDRESSES_PROVIDER()": "0542975c",
			"POOL()": "7535d246",
			"aaveV3AddressesProvider()": "baf79c39",
			"aaveV3Pool()": "86a06ff0",
			"addRoute(address[],uint256,uint8,uint8)": "0fee470a",
			"addRoutesBatch(address[][],uint256[],uint8[],uint8[])": "de3ae757",
			"autoUnwrapWETH()": "0dba22af",
			"beneficiary()": "38af3eed",
			"beneficiaryShareBps()": "97ad7e2a",
			"builderTipBps()": "4e791437",
			"calculateProfitability(address[],uint256,uint8,uint8)": "b3eeb621",
			"deadlineSeconds()": "c54cdad8",
			"defaultUniV3Fee()": "2c49c9a3",
			"deleteRoute(uint256)": "9693c4a4",
			"dexQuoters(uint8)": "e095b465",
			"dexRouters(uint8)": "785b32f4",
			"emergencyCleanup(address[])": "033051c6",
			"emergencyWithdraw(address)": "6ff1c9bc",
			"enforceProfitabilityCheck()": "6ae26c99",
			"enforceSecondaryOracle()": "5fbaa51d",
			"executeOperation(address,uint256,uint256,address,bytes)": "1b11d0ff",
			"flashLoanPremiumBps()": "56d8940f",
			"gasPrice()": "fe173b97",
			"gasUnitsEstimate()": "dbda2808",
			"getAllRoutes(uint256,uint256)": "db05852f",
			"getDEXQuoter(uint8)": "96f62ac7",
			"getDEXRouter(uint8)": "e292e876",
			"getPriceFeed(address)": "5b6cca80",
			"getRoute(uint256)": "fa66358a",
			"getRouteCount()": "32252057",
			"getTokenDecimals(address)": "785c7cf6",
			"initiateArbitrage(address,uint256,uint256,bool)": "0ea62cb5",
			"isPaused()": "b187bd26",
			"isRouterWhitelisted(address)": "0aef023f",
			"isTokenSupported(address)": "75151b63",
			"maxLoanAmount()": "72f94365",
			"maxPriceFeedAge()": "0816c847",
			"maxSlippageBps()": "c4aa7395",
			"minProfitAbsolute()": "dde6befd",
			"minProfitBps()": "383aeeae",
			"oracleDeviationBps()": "8a611d55",
			"owner()": "8da5cb5b",
			"paused()": "5c975abb",
			"priceFeeds(address)": "9dcb511a",
			"renounceOwnership()": "715018a6",
			"routeCount()": "bf539cb4",
			"routes(uint256)": "726f16d8",
			"safetyBufferBps()": "5688b8ef",
			"secondaryOracleDeviationBps()": "d83ea790",
			"secondaryPriceFeeds(address)": "b7e10191",
			"setAutoUnwrapWETH(bool)": "7ae85183",
			"setBeneficiary(address)": "1c31f710",
			"setBeneficiaryShare(uint256)": "42d55497",
			"setDEXQuoter(uint8,address)": "9b0afe6d",
			"setDEXRouter(uint8,address)": "deb928ee",
			"setDefaultUniV3Fee(uint24)": "eeacafc3",
			"setEnforceProfitabilityCheck(bool)": "84845fd4",
			"setEnforceSecondaryOracle(bool)": "f984f70a",
			"setMaxLoanAmount(uint256)": "b76e053b",
			"setMinProfitAbsolute(uint256)": "cceb6c42",
			"setPaused(bool)": "16c38b3c",
			"setPriceFeed(address,address)": "76e11286",
			"setPriceFeedsBatch(address[],address[])": "e0925d6c",
			"setProtocolAddresses(address,address)": "90f73d3c",
			"setSecondaryPriceFeed(address,address)": "3d59b5f1",
			"setTokenDecimals(address,uint8)": "5cdcd8bb",
			"setTokenSupported(address,bool)": "a1836954",
			"setTokensSupportedBatch(address[],bool[])": "312a634d",
			"supportedTokens(address)": "68c4ac26",
			"tokenDecimals(address)": "8ee573ac",
			"transferOwnership(address)": "f2fde38b",
			"updateAaveV3Pool(address)": "cc6a2924",
			"updateAddressesProvider(address)": "219a9822",
			"updateOracleParams(uint256,uint256,uint256)": "b2bcccda",
			"updateProfitabilityParams(uint256,uint256,uint256,uint256)": "6ee10175",
			"updateRiskParams(uint256,uint256,uint256,uint256)": "68aad172",
			"updateRoute(uint256,address[],uint256,uint8,uint8)": "79a73bbe",
			"weth()": "3fc8cef3",
			"whitelistRouter(address,bool)": "8f3ed683",
			"whitelistedRouters(address)": "0f874a13",
			"withdrawETH()": "e086e5ec"
		}
	},
	"abi": [
		{
			"inputs": [],
			"stateMutability": "nonpayable",
			"type": "constructor"
		},
		{
			"inputs": [],
			"name": "ApprovalFailed",
			"type": "error"
		},
		{
			"inputs": [],
			"name": "ArrayLengthMismatch",
			"type": "error"
		},
		{
			"inputs": [],
			"name": "BeneficiaryShareExceedsMax",
			"type": "error"
		},
		{
			"inputs": [],
			"name": "CircularPathRequired",
			"type": "error"
		},
		{
			"inputs": [],
			"name": "ContractPaused",
			"type": "error"
		},
		{
			"inputs": [],
			"name": "DEXNotConfigured",
			"type": "error"
		},
		{
			"inputs": [],
			"name": "DuplicateTokenInPath",
			"type": "error"
		},
		{
			"inputs": [],
			"name": "ETHTransferFailed",
			"type": "error"
		},
		{
			"inputs": [],
			"name": "ExceedsMaxLoan",
			"type": "error"
		},
		{
			"inputs": [],
			"name": "InsufficientLiquidityForRoute",
			"type": "error"
		},
		{
			"inputs": [],
			"name": "InsufficientOutput",
			"type": "error"
		},
		{
			"inputs": [],
			"name": "InvalidAmount",
			"type": "error"
		},
		{
			"inputs": [],
			"name": "InvalidAsset",
			"type": "error"
		},
		{
			"inputs": [],
			"name": "InvalidBeneficiary",
			"type": "error"
		},
		{
			"inputs": [],
			"name": "InvalidBps",
			"type": "error"
		},
		{
			"inputs": [],
			"name": "InvalidFee",
			"type": "error"
		},
		{
			"inputs": [],
			"name": "InvalidFeed",
			"type": "error"
		},
		{
			"inputs": [],
			"name": "InvalidInitiator",
			"type": "error"
		},
		{
			"inputs": [],
			"name": "InvalidOraclePrice",
			"type": "error"
		},
		{
			"inputs": [],
			"name": "InvalidPathLength",
			"type": "error"
		},
		{
			"inputs": [],
			"name": "InvalidPool",
			"type": "error"
		},
		{
			"inputs": [],
			"name": "InvalidProvider",
			"type": "error"
		},
		{
			"inputs": [],
			"name": "InvalidQuoter",
			"type": "error"
		},
		{
			"inputs": [],
			"name": "InvalidRouteId",
			"type": "error"
		},
		{
			"inputs": [],
			"name": "InvalidRoutePath",
			"type": "error"
		},
		{
			"inputs": [],
			"name": "InvalidRouter",
			"type": "error"
		},
		{
			"inputs": [],
			"name": "InvalidToken",
			"type": "error"
		},
		{
			"inputs": [],
			"name": "InvalidTokenAddress",
			"type": "error"
		},
		{
			"inputs": [],
			"name": "NoBalance",
			"type": "error"
		},
		{
			"inputs": [],
			"name": "NoPriceFeed",
			"type": "error"
		},
		{
			"inputs": [
				{
					"internalType": "address",
					"name": "owner",
					"type": "address"
				}
			],
			"name": "OwnableInvalidOwner",
			"type": "error"
		},
		{
			"inputs": [
				{
					"internalType": "address",
					"name": "account",
					"type": "address"
				}
			],
			"name": "OwnableUnauthorizedAccount",
			"type": "error"
		},
		{
			"inputs": [],
			"name": "PriceDeviationTooHigh",
			"type": "error"
		},
		{
			"inputs": [],
			"name": "ProfitBelowAbsoluteMinimum",
			"type": "error"
		},
		{
			"inputs": [],
			"name": "ProfitBelowMinimum",
			"type": "error"
		},
		{
			"inputs": [],
			"name": "QuoteFailed",
			"type": "error"
		},
		{
			"inputs": [],
			"name": "RouterNotWhitelisted",
			"type": "error"
		},
		{
			"inputs": [
				{
					"internalType": "address",
					"name": "token",
					"type": "address"
				}
			],
			"name": "SafeERC20FailedOperation",
			"type": "error"
		},
		{
			"inputs": [],
			"name": "SecondaryPriceDeviationTooHigh",
			"type": "error"
		},
		{
			"inputs": [],
			"name": "StalePriceFeed",
			"type": "error"
		},
		{
			"inputs": [],
			"name": "StaleSecondaryFeed",
			"type": "error"
		},
		{
			"inputs": [],
			"name": "SwapFailed",
			"type": "error"
		},
		{
			"inputs": [],
			"name": "TradNotProfitable",
			"type": "error"
		},
		{
			"inputs": [],
			"name": "UnauthorizedCaller",
			"type": "error"
		},
		{
			"inputs": [],
			"name": "UnsupportedToken",
			"type": "error"
		},
		{
			"anonymous": false,
			"inputs": [
				{
					"indexed": true,
					"internalType": "address",
					"name": "asset",
					"type": "address"
				},
				{
					"indexed": false,
					"internalType": "uint256",
					"name": "amount",
					"type": "uint256"
				},
				{
					"indexed": false,
					"internalType": "uint256",
					"name": "routeId",
					"type": "uint256"
				}
			],
			"name": "ArbitrageInitiated",
			"type": "event"
		},
		{
			"anonymous": false,
			"inputs": [
				{
					"indexed": true,
					"internalType": "address",
					"name": "asset",
					"type": "address"
				},
				{
					"indexed": false,
					"internalType": "uint256",
					"name": "amount",
					"type": "uint256"
				},
				{
					"indexed": false,
					"internalType": "uint256",
					"name": "profit",
					"type": "uint256"
				},
				{
					"indexed": false,
					"internalType": "uint256",
					"name": "routeId",
					"type": "uint256"
				},
				{
					"indexed": false,
					"internalType": "uint256",
					"name": "gasUsed",
					"type": "uint256"
				}
			],
			"name": "ArbitrageSuccess",
			"type": "event"
		},
		{
			"anonymous": false,
			"inputs": [
				{
					"indexed": false,
					"internalType": "bool",
					"name": "enabled",
					"type": "bool"
				}
			],
			"name": "AutoUnwrapWETHUpdated",
			"type": "event"
		},
		{
			"anonymous": false,
			"inputs": [
				{
					"indexed": false,
					"internalType": "uint256",
					"name": "beneficiaryShareBps",
					"type": "uint256"
				}
			],
			"name": "BeneficiaryShareUpdated",
			"type": "event"
		},
		{
			"anonymous": false,
			"inputs": [
				{
					"indexed": true,
					"internalType": "address",
					"name": "beneficiary",
					"type": "address"
				}
			],
			"name": "BeneficiaryUpdated",
			"type": "event"
		},
		{
			"anonymous": false,
			"inputs": [
				{
					"indexed": true,
					"internalType": "enum ArbExecutor.DEXType",
					"name": "dexType",
					"type": "uint8"
				},
				{
					"indexed": true,
					"internalType": "address",
					"name": "quoter",
					"type": "address"
				}
			],
			"name": "DEXQuoterSet",
			"type": "event"
		},
		{
			"anonymous": false,
			"inputs": [
				{
					"indexed": true,
					"internalType": "enum ArbExecutor.DEXType",
					"name": "dexType",
					"type": "uint8"
				},
				{
					"indexed": true,
					"internalType": "address",
					"name": "router",
					"type": "address"
				}
			],
			"name": "DEXRouterSet",
			"type": "event"
		},
		{
			"anonymous": false,
			"inputs": [
				{
					"indexed": false,
					"internalType": "uint256",
					"name": "amount",
					"type": "uint256"
				}
			],
			"name": "ETHWithdrawn",
			"type": "event"
		},
		{
			"anonymous": false,
			"inputs": [
				{
					"indexed": true,
					"internalType": "address",
					"name": "token",
					"type": "address"
				},
				{
					"indexed": false,
					"internalType": "uint256",
					"name": "amount",
					"type": "uint256"
				}
			],
			"name": "EmergencyWithdrawal",
			"type": "event"
		},
		{
			"anonymous": false,
			"inputs": [
				{
					"indexed": false,
					"internalType": "bool",
					"name": "enabled",
					"type": "bool"
				}
			],
			"name": "EnforceProfitabilityCheckUpdated",
			"type": "event"
		},
		{
			"anonymous": false,
			"inputs": [
				{
					"indexed": false,
					"internalType": "bool",
					"name": "enabled",
					"type": "bool"
				}
			],
			"name": "EnforceSecondaryOracleUpdated",
			"type": "event"
		},
		{
			"anonymous": false,
			"inputs": [
				{
					"indexed": false,
					"internalType": "uint256",
					"name": "maxLoanAmount",
					"type": "uint256"
				}
			],
			"name": "MaxLoanAmountUpdated",
			"type": "event"
		},
		{
			"anonymous": false,
			"inputs": [
				{
					"indexed": false,
					"internalType": "uint256",
					"name": "minProfitAbsolute",
					"type": "uint256"
				}
			],
			"name": "MinProfitAbsoluteUpdated",
			"type": "event"
		},
		{
			"anonymous": false,
			"inputs": [
				{
					"indexed": false,
					"internalType": "uint256",
					"name": "maxPriceFeedAge",
					"type": "uint256"
				},
				{
					"indexed": false,
					"internalType": "uint256",
					"name": "oracleDeviationBps",
					"type": "uint256"
				},
				{
					"indexed": false,
					"internalType": "uint256",
					"name": "secondaryOracleDeviationBps",
					"type": "uint256"
				}
			],
			"name": "OracleParamsUpdated",
			"type": "event"
		},
		{
			"anonymous": false,
			"inputs": [
				{
					"indexed": true,
					"internalType": "address",
					"name": "previousOwner",
					"type": "address"
				},
				{
					"indexed": true,
					"internalType": "address",
					"name": "newOwner",
					"type": "address"
				}
			],
			"name": "OwnershipTransferred",
			"type": "event"
		},
		{
			"anonymous": false,
			"inputs": [
				{
					"indexed": false,
					"internalType": "bool",
					"name": "paused",
					"type": "bool"
				}
			],
			"name": "PausedStateChanged",
			"type": "event"
		},
		{
			"anonymous": false,
			"inputs": [
				{
					"indexed": true,
					"internalType": "address",
					"name": "token",
					"type": "address"
				},
				{
					"indexed": false,
					"internalType": "uint256",
					"name": "price",
					"type": "uint256"
				}
			],
			"name": "PriceCacheUpdated",
			"type": "event"
		},
		{
			"anonymous": false,
			"inputs": [
				{
					"indexed": true,
					"internalType": "address",
					"name": "token",
					"type": "address"
				},
				{
					"indexed": true,
					"internalType": "address",
					"name": "feed",
					"type": "address"
				}
			],
			"name": "PriceFeedSet",
			"type": "event"
		},
		{
			"anonymous": false,
			"inputs": [
				{
					"indexed": true,
					"internalType": "address",
					"name": "beneficiary",
					"type": "address"
				},
				{
					"indexed": false,
					"internalType": "uint256",
					"name": "amount",
					"type": "uint256"
				}
			],
			"name": "ProfitDistributed",
			"type": "event"
		},
		{
			"anonymous": false,
			"inputs": [
				{
					"indexed": false,
					"internalType": "uint256",
					"name": "routeId",
					"type": "uint256"
				},
				{
					"indexed": false,
					"internalType": "string",
					"name": "reason",
					"type": "string"
				}
			],
			"name": "ProfitabilityCheckFailed",
			"type": "event"
		},
		{
			"anonymous": false,
			"inputs": [
				{
					"indexed": false,
					"internalType": "uint256",
					"name": "routeId",
					"type": "uint256"
				},
				{
					"indexed": false,
					"internalType": "uint256",
					"name": "expectedNetProfit",
					"type": "uint256"
				}
			],
			"name": "ProfitabilityCheckPassed",
			"type": "event"
		},
		{
			"anonymous": false,
			"inputs": [
				{
					"indexed": false,
					"internalType": "uint256",
					"name": "builderTipBps",
					"type": "uint256"
				},
				{
					"indexed": false,
					"internalType": "uint256",
					"name": "safetyBufferBps",
					"type": "uint256"
				},
				{
					"indexed": false,
					"internalType": "uint256",
					"name": "flashLoanPremiumBps",
					"type": "uint256"
				},
				{
					"indexed": false,
					"internalType": "uint256",
					"name": "gasPrice",
					"type": "uint256"
				}
			],
			"name": "ProfitabilityParamsUpdated",
			"type": "event"
		},
		{
			"anonymous": false,
			"inputs": [
				{
					"indexed": true,
					"internalType": "address",
					"name": "aaveV3Provider",
					"type": "address"
				},
				{
					"indexed": true,
					"internalType": "address",
					"name": "weth",
					"type": "address"
				}
			],
			"name": "ProtocolAddressesSet",
			"type": "event"
		},
		{
			"anonymous": false,
			"inputs": [
				{
					"indexed": false,
					"internalType": "uint256",
					"name": "minProfitBps",
					"type": "uint256"
				},
				{
					"indexed": false,
					"internalType": "uint256",
					"name": "maxSlippageBps",
					"type": "uint256"
				},
				{
					"indexed": false,
					"internalType": "uint256",
					"name": "deadlineSeconds",
					"type": "uint256"
				},
				{
					"indexed": false,
					"internalType": "uint256",
					"name": "gasUnitsEstimate",
					"type": "uint256"
				}
			],
			"name": "RiskParamsUpdated",
			"type": "event"
		},
		{
			"anonymous": false,
			"inputs": [
				{
					"indexed": true,
					"internalType": "uint256",
					"name": "routeId",
					"type": "uint256"
				}
			],
			"name": "RouteDeleted",
			"type": "event"
		},
		{
			"anonymous": false,
			"inputs": [
				{
					"indexed": true,
					"internalType": "address",
					"name": "router",
					"type": "address"
				},
				{
					"indexed": false,
					"internalType": "bool",
					"name": "whitelisted",
					"type": "bool"
				}
			],
			"name": "RouterWhitelisted",
			"type": "event"
		},
		{
			"anonymous": false,
			"inputs": [
				{
					"indexed": true,
					"internalType": "uint256",
					"name": "routeId",
					"type": "uint256"
				},
				{
					"indexed": false,
					"internalType": "uint256",
					"name": "pathLength",
					"type": "uint256"
				}
			],
			"name": "RoutesUpdated",
			"type": "event"
		},
		{
			"anonymous": false,
			"inputs": [
				{
					"indexed": true,
					"internalType": "address",
					"name": "token",
					"type": "address"
				},
				{
					"indexed": true,
					"internalType": "address",
					"name": "feed",
					"type": "address"
				}
			],
			"name": "SecondaryPriceFeedSet",
			"type": "event"
		},
		{
			"anonymous": false,
			"inputs": [
				{
					"indexed": true,
					"internalType": "address",
					"name": "token",
					"type": "address"
				},
				{
					"indexed": false,
					"internalType": "uint8",
					"name": "decimals",
					"type": "uint8"
				}
			],
			"name": "TokenDecimalsSet",
			"type": "event"
		},
		{
			"anonymous": false,
			"inputs": [
				{
					"indexed": true,
					"internalType": "address",
					"name": "token",
					"type": "address"
				},
				{
					"indexed": false,
					"internalType": "bool",
					"name": "supported",
					"type": "bool"
				}
			],
			"name": "TokenSupportChanged",
			"type": "event"
		},
		{
			"anonymous": false,
			"inputs": [
				{
					"indexed": false,
					"internalType": "uint24",
					"name": "fee",
					"type": "uint24"
				}
			],
			"name": "UniV3FeeUpdated",
			"type": "event"
		},
		{
			"inputs": [],
			"name": "ADDRESSES_PROVIDER",
			"outputs": [
				{
					"internalType": "contract IPoolAddressesProvider",
					"name": "",
					"type": "address"
				}
			],
			"stateMutability": "view",
			"type": "function"
		},
		{
			"inputs": [],
			"name": "POOL",
			"outputs": [
				{
					"internalType": "contract IPool",
					"name": "",
					"type": "address"
				}
			],
			"stateMutability": "view",
			"type": "function"
		},
		{
			"inputs": [],
			"name": "aaveV3AddressesProvider",
			"outputs": [
				{
					"internalType": "address",
					"name": "",
					"type": "address"
				}
			],
			"stateMutability": "view",
			"type": "function"
		},
		{
			"inputs": [],
			"name": "aaveV3Pool",
			"outputs": [
				{
					"internalType": "contract IPool",
					"name": "",
					"type": "address"
				}
			],
			"stateMutability": "view",
			"type": "function"
		},
		{
			"inputs": [
				{
					"internalType": "address[]",
					"name": "path",
					"type": "address[]"
				},
				{
					"internalType": "uint256",
					"name": "minProfit",
					"type": "uint256"
				},
				{
					"internalType": "enum ArbExecutor.DEXType",
					"name": "dexA",
					"type": "uint8"
				},
				{
					"internalType": "enum ArbExecutor.DEXType",
					"name": "dexB",
					"type": "uint8"
				}
			],
			"name": "addRoute",
			"outputs": [],
			"stateMutability": "nonpayable",
			"type": "function"
		},
		{
			"inputs": [
				{
					"internalType": "address[][]",
					"name": "paths",
					"type": "address[][]"
				},
				{
					"internalType": "uint256[]",
					"name": "minProfits",
					"type": "uint256[]"
				},
				{
					"internalType": "enum ArbExecutor.DEXType[]",
					"name": "dexAs",
					"type": "uint8[]"
				},
				{
					"internalType": "enum ArbExecutor.DEXType[]",
					"name": "dexBs",
					"type": "uint8[]"
				}
			],
			"name": "addRoutesBatch",
			"outputs": [],
			"stateMutability": "nonpayable",
			"type": "function"
		},
		{
			"inputs": [],
			"name": "autoUnwrapWETH",
			"outputs": [
				{
					"internalType": "bool",
					"name": "",
					"type": "bool"
				}
			],
			"stateMutability": "view",
			"type": "function"
		},
		{
			"inputs": [],
			"name": "beneficiary",
			"outputs": [
				{
					"internalType": "address",
					"name": "",
					"type": "address"
				}
			],
			"stateMutability": "view",
			"type": "function"
		},
		{
			"inputs": [],
			"name": "beneficiaryShareBps",
			"outputs": [
				{
					"internalType": "uint256",
					"name": "",
					"type": "uint256"
				}
			],
			"stateMutability": "view",
			"type": "function"
		},
		{
			"inputs": [],
			"name": "builderTipBps",
			"outputs": [
				{
					"internalType": "uint256",
					"name": "",
					"type": "uint256"
				}
			],
			"stateMutability": "view",
			"type": "function"
		},
		{
			"inputs": [
				{
					"internalType": "address[]",
					"name": "path",
					"type": "address[]"
				},
				{
					"internalType": "uint256",
					"name": "borrowAmount",
					"type": "uint256"
				},
				{
					"internalType": "enum ArbExecutor.DEXType",
					"name": "dexA",
					"type": "uint8"
				},
				{
					"internalType": "enum ArbExecutor.DEXType",
					"name": "dexB",
					"type": "uint8"
				}
			],
			"name": "calculateProfitability",
			"outputs": [
				{
					"components": [
						{
							"internalType": "uint256",
							"name": "leg1AmountOut",
							"type": "uint256"
						},
						{
							"internalType": "uint256",
							"name": "leg2AmountOut",
							"type": "uint256"
						},
						{
							"internalType": "uint256",
							"name": "flashLoanPremium",
							"type": "uint256"
						},
						{
							"internalType": "uint256",
							"name": "gasCostEstimate",
							"type": "uint256"
						},
						{
							"internalType": "uint256",
							"name": "builderTip",
							"type": "uint256"
						},
						{
							"internalType": "uint256",
							"name": "safetyBuffer",
							"type": "uint256"
						},
						{
							"internalType": "uint256",
							"name": "expectedGrossProfit",
							"type": "uint256"
						},
						{
							"internalType": "uint256",
							"name": "totalCosts",
							"type": "uint256"
						},
						{
							"internalType": "uint256",
							"name": "expectedNetProfit",
							"type": "uint256"
						},
						{
							"internalType": "bool",
							"name": "isProfitable",
							"type": "bool"
						}
					],
					"internalType": "struct ArbExecutor.ProfitabilityQuote",
					"name": "",
					"type": "tuple"
				}
			],
			"stateMutability": "nonpayable",
			"type": "function"
		},
		{
			"inputs": [],
			"name": "deadlineSeconds",
			"outputs": [
				{
					"internalType": "uint256",
					"name": "",
					"type": "uint256"
				}
			],
			"stateMutability": "view",
			"type": "function"
		},
		{
			"inputs": [],
			"name": "defaultUniV3Fee",
			"outputs": [
				{
					"internalType": "uint24",
					"name": "",
					"type": "uint24"
				}
			],
			"stateMutability": "view",
			"type": "function"
		},
		{
			"inputs": [
				{
					"internalType": "uint256",
					"name": "routeId",
					"type": "uint256"
				}
			],
			"name": "deleteRoute",
			"outputs": [],
			"stateMutability": "nonpayable",
			"type": "function"
		},
		{
			"inputs": [
				{
					"internalType": "enum ArbExecutor.DEXType",
					"name": "",
					"type": "uint8"
				}
			],
			"name": "dexQuoters",
			"outputs": [
				{
					"internalType": "address",
					"name": "",
					"type": "address"
				}
			],
			"stateMutability": "view",
			"type": "function"
		},
		{
			"inputs": [
				{
					"internalType": "enum ArbExecutor.DEXType",
					"name": "",
					"type": "uint8"
				}
			],
			"name": "dexRouters",
			"outputs": [
				{
					"internalType": "address",
					"name": "",
					"type": "address"
				}
			],
			"stateMutability": "view",
			"type": "function"
		},
		{
			"inputs": [
				{
					"internalType": "address[]",
					"name": "tokens",
					"type": "address[]"
				}
			],
			"name": "emergencyCleanup",
			"outputs": [],
			"stateMutability": "nonpayable",
			"type": "function"
		},
		{
			"inputs": [
				{
					"internalType": "address",
					"name": "token",
					"type": "address"
				}
			],
			"name": "emergencyWithdraw",
			"outputs": [],
			"stateMutability": "nonpayable",
			"type": "function"
		},
		{
			"inputs": [],
			"name": "enforceProfitabilityCheck",
			"outputs": [
				{
					"internalType": "bool",
					"name": "",
					"type": "bool"
				}
			],
			"stateMutability": "view",
			"type": "function"
		},
		{
			"inputs": [],
			"name": "enforceSecondaryOracle",
			"outputs": [
				{
					"internalType": "bool",
					"name": "",
					"type": "bool"
				}
			],
			"stateMutability": "view",
			"type": "function"
		},
		{
			"inputs": [
				{
					"internalType": "address",
					"name": "asset",
					"type": "address"
				},
				{
					"internalType": "uint256",
					"name": "amount",
					"type": "uint256"
				},
				{
					"internalType": "uint256",
					"name": "premium",
					"type": "uint256"
				},
				{
					"internalType": "address",
					"name": "initiator",
					"type": "address"
				},
				{
					"internalType": "bytes",
					"name": "params",
					"type": "bytes"
				}
			],
			"name": "executeOperation",
			"outputs": [
				{
					"internalType": "bool",
					"name": "",
					"type": "bool"
				}
			],
			"stateMutability": "nonpayable",
			"type": "function"
		},
		{
			"inputs": [],
			"name": "flashLoanPremiumBps",
			"outputs": [
				{
					"internalType": "uint256",
					"name": "",
					"type": "uint256"
				}
			],
			"stateMutability": "view",
			"type": "function"
		},
		{
			"inputs": [],
			"name": "gasPrice",
			"outputs": [
				{
					"internalType": "uint256",
					"name": "",
					"type": "uint256"
				}
			],
			"stateMutability": "view",
			"type": "function"
		},
		{
			"inputs": [],
			"name": "gasUnitsEstimate",
			"outputs": [
				{
					"internalType": "uint256",
					"name": "",
					"type": "uint256"
				}
			],
			"stateMutability": "view",
			"type": "function"
		},
		{
			"inputs": [
				{
					"internalType": "uint256",
					"name": "offset",
					"type": "uint256"
				},
				{
					"internalType": "uint256",
					"name": "limit",
					"type": "uint256"
				}
			],
			"name": "getAllRoutes",
			"outputs": [
				{
					"components": [
						{
							"internalType": "uint256",
							"name": "routeId",
							"type": "uint256"
						},
						{
							"internalType": "address[]",
							"name": "path",
							"type": "address[]"
						},
						{
							"internalType": "uint256",
							"name": "minProfit",
							"type": "uint256"
						},
						{
							"internalType": "enum ArbExecutor.DEXType",
							"name": "dexA",
							"type": "uint8"
						},
						{
							"internalType": "enum ArbExecutor.DEXType",
							"name": "dexB",
							"type": "uint8"
						}
					],
					"internalType": "struct ArbExecutor.ArbitrageRoute[]",
					"name": "",
					"type": "tuple[]"
				}
			],
			"stateMutability": "view",
			"type": "function"
		},
		{
			"inputs": [
				{
					"internalType": "enum ArbExecutor.DEXType",
					"name": "dexType",
					"type": "uint8"
				}
			],
			"name": "getDEXQuoter",
			"outputs": [
				{
					"internalType": "address",
					"name": "",
					"type": "address"
				}
			],
			"stateMutability": "view",
			"type": "function"
		},
		{
			"inputs": [
				{
					"internalType": "enum ArbExecutor.DEXType",
					"name": "dexType",
					"type": "uint8"
				}
			],
			"name": "getDEXRouter",
			"outputs": [
				{
					"internalType": "address",
					"name": "",
					"type": "address"
				}
			],
			"stateMutability": "view",
			"type": "function"
		},
		{
			"inputs": [
				{
					"internalType": "address",
					"name": "token",
					"type": "address"
				}
			],
			"name": "getPriceFeed",
			"outputs": [
				{
					"internalType": "address",
					"name": "",
					"type": "address"
				}
			],
			"stateMutability": "view",
			"type": "function"
		},
		{
			"inputs": [
				{
					"internalType": "uint256",
					"name": "routeId",
					"type": "uint256"
				}
			],
			"name": "getRoute",
			"outputs": [
				{
					"components": [
						{
							"internalType": "uint256",
							"name": "routeId",
							"type": "uint256"
						},
						{
							"internalType": "address[]",
							"name": "path",
							"type": "address[]"
						},
						{
							"internalType": "uint256",
							"name": "minProfit",
							"type": "uint256"
						},
						{
							"internalType": "enum ArbExecutor.DEXType",
							"name": "dexA",
							"type": "uint8"
						},
						{
							"internalType": "enum ArbExecutor.DEXType",
							"name": "dexB",
							"type": "uint8"
						}
					],
					"internalType": "struct ArbExecutor.ArbitrageRoute",
					"name": "",
					"type": "tuple"
				}
			],
			"stateMutability": "view",
			"type": "function"
		},
		{
			"inputs": [],
			"name": "getRouteCount",
			"outputs": [
				{
					"internalType": "uint256",
					"name": "",
					"type": "uint256"
				}
			],
			"stateMutability": "view",
			"type": "function"
		},
		{
			"inputs": [
				{
					"internalType": "address",
					"name": "token",
					"type": "address"
				}
			],
			"name": "getTokenDecimals",
			"outputs": [
				{
					"internalType": "uint8",
					"name": "",
					"type": "uint8"
				}
			],
			"stateMutability": "view",
			"type": "function"
		},
		{
			"inputs": [
				{
					"internalType": "address",
					"name": "asset",
					"type": "address"
				},
				{
					"internalType": "uint256",
					"name": "amount",
					"type": "uint256"
				},
				{
					"internalType": "uint256",
					"name": "routeId",
					"type": "uint256"
				},
				{
					"internalType": "bool",
					"name": "quietEvents",
					"type": "bool"
				}
			],
			"name": "initiateArbitrage",
			"outputs": [],
			"stateMutability": "nonpayable",
			"type": "function"
		},
		{
			"inputs": [],
			"name": "isPaused",
			"outputs": [
				{
					"internalType": "bool",
					"name": "",
					"type": "bool"
				}
			],
			"stateMutability": "view",
			"type": "function"
		},
		{
			"inputs": [
				{
					"internalType": "address",
					"name": "router",
					"type": "address"
				}
			],
			"name": "isRouterWhitelisted",
			"outputs": [
				{
					"internalType": "bool",
					"name": "",
					"type": "bool"
				}
			],
			"stateMutability": "view",
			"type": "function"
		},
		{
			"inputs": [
				{
					"internalType": "address",
					"name": "token",
					"type": "address"
				}
			],
			"name": "isTokenSupported",
			"outputs": [
				{
					"internalType": "bool",
					"name": "",
					"type": "bool"
				}
			],
			"stateMutability": "view",
			"type": "function"
		},
		{
			"inputs": [],
			"name": "maxLoanAmount",
			"outputs": [
				{
					"internalType": "uint256",
					"name": "",
					"type": "uint256"
				}
			],
			"stateMutability": "view",
			"type": "function"
		},
		{
			"inputs": [],
			"name": "maxPriceFeedAge",
			"outputs": [
				{
					"internalType": "uint256",
					"name": "",
					"type": "uint256"
				}
			],
			"stateMutability": "view",
			"type": "function"
		},
		{
			"inputs": [],
			"name": "maxSlippageBps",
			"outputs": [
				{
					"internalType": "uint256",
					"name": "",
					"type": "uint256"
				}
			],
			"stateMutability": "view",
			"type": "function"
		},
		{
			"inputs": [],
			"name": "minProfitAbsolute",
			"outputs": [
				{
					"internalType": "uint256",
					"name": "",
					"type": "uint256"
				}
			],
			"stateMutability": "view",
			"type": "function"
		},
		{
			"inputs": [],
			"name": "minProfitBps",
			"outputs": [
				{
					"internalType": "uint256",
					"name": "",
					"type": "uint256"
				}
			],
			"stateMutability": "view",
			"type": "function"
		},
		{
			"inputs": [],
			"name": "oracleDeviationBps",
			"outputs": [
				{
					"internalType": "uint256",
					"name": "",
					"type": "uint256"
				}
			],
			"stateMutability": "view",
			"type": "function"
		},
		{
			"inputs": [],
			"name": "owner",
			"outputs": [
				{
					"internalType": "address",
					"name": "",
					"type": "address"
				}
			],
			"stateMutability": "view",
			"type": "function"
		},
		{
			"inputs": [],
			"name": "paused",
			"outputs": [
				{
					"internalType": "bool",
					"name": "",
					"type": "bool"
				}
			],
			"stateMutability": "view",
			"type": "function"
		},
		{
			"inputs": [
				{
					"internalType": "address",
					"name": "",
					"type": "address"
				}
			],
			"name": "priceFeeds",
			"outputs": [
				{
					"internalType": "address",
					"name": "",
					"type": "address"
				}
			],
			"stateMutability": "view",
			"type": "function"
		},
		{
			"inputs": [],
			"name": "renounceOwnership",
			"outputs": [],
			"stateMutability": "nonpayable",
			"type": "function"
		},
		{
			"inputs": [],
			"name": "routeCount",
			"outputs": [
				{
					"internalType": "uint256",
					"name": "",
					"type": "uint256"
				}
			],
			"stateMutability": "view",
			"type": "function"
		},
		{
			"inputs": [
				{
					"internalType": "uint256",
					"name": "",
					"type": "uint256"
				}
			],
			"name": "routes",
			"outputs": [
				{
					"internalType": "uint256",
					"name": "routeId",
					"type": "uint256"
				},
				{
					"internalType": "uint256",
					"name": "minProfit",
					"type": "uint256"
				},
				{
					"internalType": "enum ArbExecutor.DEXType",
					"name": "dexA",
					"type": "uint8"
				},
				{
					"internalType": "enum ArbExecutor.DEXType",
					"name": "dexB",
					"type": "uint8"
				}
			],
			"stateMutability": "view",
			"type": "function"
		},
		{
			"inputs": [],
			"name": "safetyBufferBps",
			"outputs": [
				{
					"internalType": "uint256",
					"name": "",
					"type": "uint256"
				}
			],
			"stateMutability": "view",
			"type": "function"
		},
		{
			"inputs": [],
			"name": "secondaryOracleDeviationBps",
			"outputs": [
				{
					"internalType": "uint256",
					"name": "",
					"type": "uint256"
				}
			],
			"stateMutability": "view",
			"type": "function"
		},
		{
			"inputs": [
				{
					"internalType": "address",
					"name": "",
					"type": "address"
				}
			],
			"name": "secondaryPriceFeeds",
			"outputs": [
				{
					"internalType": "address",
					"name": "",
					"type": "address"
				}
			],
			"stateMutability": "view",
			"type": "function"
		},
		{
			"inputs": [
				{
					"internalType": "bool",
					"name": "enabled",
					"type": "bool"
				}
			],
			"name": "setAutoUnwrapWETH",
			"outputs": [],
			"stateMutability": "nonpayable",
			"type": "function"
		},
		{
			"inputs": [
				{
					"internalType": "address",
					"name": "_beneficiary",
					"type": "address"
				}
			],
			"name": "setBeneficiary",
			"outputs": [],
			"stateMutability": "nonpayable",
			"type": "function"
		},
		{
			"inputs": [
				{
					"internalType": "uint256",
					"name": "_beneficiaryShareBps",
					"type": "uint256"
				}
			],
			"name": "setBeneficiaryShare",
			"outputs": [],
			"stateMutability": "nonpayable",
			"type": "function"
		},
		{
			"inputs": [
				{
					"internalType": "enum ArbExecutor.DEXType",
					"name": "dexType",
					"type": "uint8"
				},
				{
					"internalType": "address",
					"name": "quoter",
					"type": "address"
				}
			],
			"name": "setDEXQuoter",
			"outputs": [],
			"stateMutability": "nonpayable",
			"type": "function"
		},
		{
			"inputs": [
				{
					"internalType": "enum ArbExecutor.DEXType",
					"name": "dexType",
					"type": "uint8"
				},
				{
					"internalType": "address",
					"name": "router",
					"type": "address"
				}
			],
			"name": "setDEXRouter",
			"outputs": [],
			"stateMutability": "nonpayable",
			"type": "function"
		},
		{
			"inputs": [
				{
					"internalType": "uint24",
					"name": "fee",
					"type": "uint24"
				}
			],
			"name": "setDefaultUniV3Fee",
			"outputs": [],
			"stateMutability": "nonpayable",
			"type": "function"
		},
		{
			"inputs": [
				{
					"internalType": "bool",
					"name": "enabled",
					"type": "bool"
				}
			],
			"name": "setEnforceProfitabilityCheck",
			"outputs": [],
			"stateMutability": "nonpayable",
			"type": "function"
		},
		{
			"inputs": [
				{
					"internalType": "bool",
					"name": "enabled",
					"type": "bool"
				}
			],
			"name": "setEnforceSecondaryOracle",
			"outputs": [],
			"stateMutability": "nonpayable",
			"type": "function"
		},
		{
			"inputs": [
				{
					"internalType": "uint256",
					"name": "_maxLoanAmount",
					"type": "uint256"
				}
			],
			"name": "setMaxLoanAmount",
			"outputs": [],
			"stateMutability": "nonpayable",
			"type": "function"
		},
		{
			"inputs": [
				{
					"internalType": "uint256",
					"name": "_minProfitAbsolute",
					"type": "uint256"
				}
			],
			"name": "setMinProfitAbsolute",
			"outputs": [],
			"stateMutability": "nonpayable",
			"type": "function"
		},
		{
			"inputs": [
				{
					"internalType": "bool",
					"name": "_paused",
					"type": "bool"
				}
			],
			"name": "setPaused",
			"outputs": [],
			"stateMutability": "nonpayable",
			"type": "function"
		},
		{
			"inputs": [
				{
					"internalType": "address",
					"name": "token",
					"type": "address"
				},
				{
					"internalType": "address",
					"name": "feed",
					"type": "address"
				}
			],
			"name": "setPriceFeed",
			"outputs": [],
			"stateMutability": "nonpayable",
			"type": "function"
		},
		{
			"inputs": [
				{
					"internalType": "address[]",
					"name": "tokens",
					"type": "address[]"
				},
				{
					"internalType": "address[]",
					"name": "feeds",
					"type": "address[]"
				}
			],
			"name": "setPriceFeedsBatch",
			"outputs": [],
			"stateMutability": "nonpayable",
			"type": "function"
		},
		{
			"inputs": [
				{
					"internalType": "address",
					"name": "_aaveV3Provider",
					"type": "address"
				},
				{
					"internalType": "address",
					"name": "_weth",
					"type": "address"
				}
			],
			"name": "setProtocolAddresses",
			"outputs": [],
			"stateMutability": "nonpayable",
			"type": "function"
		},
		{
			"inputs": [
				{
					"internalType": "address",
					"name": "token",
					"type": "address"
				},
				{
					"internalType": "address",
					"name": "feed",
					"type": "address"
				}
			],
			"name": "setSecondaryPriceFeed",
			"outputs": [],
			"stateMutability": "nonpayable",
			"type": "function"
		},
		{
			"inputs": [
				{
					"internalType": "address",
					"name": "token",
					"type": "address"
				},
				{
					"internalType": "uint8",
					"name": "decimals",
					"type": "uint8"
				}
			],
			"name": "setTokenDecimals",
			"outputs": [],
			"stateMutability": "nonpayable",
			"type": "function"
		},
		{
			"inputs": [
				{
					"internalType": "address",
					"name": "token",
					"type": "address"
				},
				{
					"internalType": "bool",
					"name": "supported",
					"type": "bool"
				}
			],
			"name": "setTokenSupported",
			"outputs": [],
			"stateMutability": "nonpayable",
			"type": "function"
		},
		{
			"inputs": [
				{
					"internalType": "address[]",
					"name": "tokens",
					"type": "address[]"
				},
				{
					"internalType": "bool[]",
					"name": "supported",
					"type": "bool[]"
				}
			],
			"name": "setTokensSupportedBatch",
			"outputs": [],
			"stateMutability": "nonpayable",
			"type": "function"
		},
		{
			"inputs": [
				{
					"internalType": "address",
					"name": "",
					"type": "address"
				}
			],
			"name": "supportedTokens",
			"outputs": [
				{
					"internalType": "bool",
					"name": "",
					"type": "bool"
				}
			],
			"stateMutability": "view",
			"type": "function"
		},
		{
			"inputs": [
				{
					"internalType": "address",
					"name": "",
					"type": "address"
				}
			],
			"name": "tokenDecimals",
			"outputs": [
				{
					"internalType": "uint8",
					"name": "",
					"type": "uint8"
				}
			],
			"stateMutability": "view",
			"type": "function"
		},
		{
			"inputs": [
				{
					"internalType": "address",
					"name": "newOwner",
					"type": "address"
				}
			],
			"name": "transferOwnership",
			"outputs": [],
			"stateMutability": "nonpayable",
			"type": "function"
		},
		{
			"inputs": [
				{
					"internalType": "contract IPool",
					"name": "_newPool",
					"type": "address"
				}
			],
			"name": "updateAaveV3Pool",
			"outputs": [],
			"stateMutability": "nonpayable",
			"type": "function"
		},
		{
			"inputs": [
				{
					"internalType": "contract IPoolAddressesProvider",
					"name": "_newProvider",
					"type": "address"
				}
			],
			"name": "updateAddressesProvider",
			"outputs": [],
			"stateMutability": "nonpayable",
			"type": "function"
		},
		{
			"inputs": [
				{
					"internalType": "uint256",
					"name": "_maxPriceFeedAge",
					"type": "uint256"
				},
				{
					"internalType": "uint256",
					"name": "_oracleDeviationBps",
					"type": "uint256"
				},
				{
					"internalType": "uint256",
					"name": "_secondaryOracleDeviationBps",
					"type": "uint256"
				}
			],
			"name": "updateOracleParams",
			"outputs": [],
			"stateMutability": "nonpayable",
			"type": "function"
		},
		{
			"inputs": [
				{
					"internalType": "uint256",
					"name": "_builderTipBps",
					"type": "uint256"
				},
				{
					"internalType": "uint256",
					"name": "_safetyBufferBps",
					"type": "uint256"
				},
				{
					"internalType": "uint256",
					"name": "_flashLoanPremiumBps",
					"type": "uint256"
				},
				{
					"internalType": "uint256",
					"name": "_gasPrice",
					"type": "uint256"
				}
			],
			"name": "updateProfitabilityParams",
			"outputs": [],
			"stateMutability": "nonpayable",
			"type": "function"
		},
		{
			"inputs": [
				{
					"internalType": "uint256",
					"name": "_minProfitBps",
					"type": "uint256"
				},
				{
					"internalType": "uint256",
					"name": "_maxSlippageBps",
					"type": "uint256"
				},
				{
					"internalType": "uint256",
					"name": "_deadlineSeconds",
					"type": "uint256"
				},
				{
					"internalType": "uint256",
					"name": "_gasUnitsEstimate",
					"type": "uint256"
				}
			],
			"name": "updateRiskParams",
			"outputs": [],
			"stateMutability": "nonpayable",
			"type": "function"
		},
		{
			"inputs": [
				{
					"internalType": "uint256",
					"name": "routeId",
					"type": "uint256"
				},
				{
					"internalType": "address[]",
					"name": "path",
					"type": "address[]"
				},
				{
					"internalType": "uint256",
					"name": "minProfit",
					"type": "uint256"
				},
				{
					"internalType": "enum ArbExecutor.DEXType",
					"name": "dexA",
					"type": "uint8"
				},
				{
					"internalType": "enum ArbExecutor.DEXType",
					"name": "dexB",
					"type": "uint8"
				}
			],
			"name": "updateRoute",
			"outputs": [],
			"stateMutability": "nonpayable",
			"type": "function"
		},
		{
			"inputs": [],
			"name": "weth",
			"outputs": [
				{
					"internalType": "address",
					"name": "",
					"type": "address"
				}
			],
			"stateMutability": "view",
			"type": "function"
		},
		{
			"inputs": [
				{
					"internalType": "address",
					"name": "router",
					"type": "address"
				},
				{
					"internalType": "bool",
					"name": "whitelisted",
					"type": "bool"
				}
			],
			"name": "whitelistRouter",
			"outputs": [],
			"stateMutability": "nonpayable",
			"type": "function"
		},
		{
			"inputs": [
				{
					"internalType": "address",
					"name": "",
					"type": "address"
				}
			],
			"name": "whitelistedRouters",
			"outputs": [
				{
					"internalType": "bool",
					"name": "",
					"type": "bool"
				}
			],
			"stateMutability": "view",
			"type": "function"
		},
		{
			"inputs": [],
			"name": "withdrawETH",
			"outputs": [],
			"stateMutability": "nonpayable",
			"type": "function"
		},
		{
			"stateMutability": "payable",
			"type": "receive"
		}
	]
}