{
	"data": {
		"bytecode": {
			"linkReferences": {},
			"object": "60808060405234610016576137ac908161001b8239f35b5f80fdfe604060808152600480361015610013575f80fd5b5f91823560e01c8063056e735f1461135557806306aed44014610fc05780630a9254e414610f42578063340ebd9414610e875780633815454f14610cfa57806350c84d1514610bfe57806361f4005b14610b3b578063631f9d7c14610a9e578063982b759e1461070b57838163a34d52aa1461059157508063c3040e881461030b578063d74d83721461018a5763e5ea2826146100ae575f80fd5b3461018657826003193601126101865761010e8382516100cd816115c5565b6003815260603660208301378351906100e5826115f4565b82825260018060a01b0383541690838651809681958294635c5d15cd60e01b84528b8401611aa6565b03925af19081610164575b50610122578280f35b5162461bcd60e51b81529150819061016090820160609060208152600f60208201526e115e1c1958dd1959081c995d995c9d608a1b60408201520190565b0390fd5b61017f903d8087833e610177818361160f565b8101906119ee565b505f610119565b8280fd5b50346101865782600319360112610186578254815163212cc6e560e11b8152678ac7230489e80000848201526009602482015264174876e8006044820152620f42406064820152678c2a687ce77200006084820152678b78c5c0b8ad000060a4820152600a60c4820152603260e48201526101c0918290829061010490829089906001600160a01b03165af19182156103015785926102c5575b50506101208101516102785760e0015161023c578280f35b906020606492519162461bcd60e51b8352820152601660248201527520b9b9b2b93a34b7b722b93937b91d1030901e9e903160511b6044820152fd5b815162461bcd60e51b8152602081850152602160248201527f417373657274696f6e4572726f723a20636f6e646974696f6e206973207472756044820152606560f81b6064820152608490fd5b809192503d82116102fa575b6102db818461160f565b820190828203126102f6576102ef916118f9565b5f80610224565b8480fd5b503d6102d1565b83513d87823e3d90fd5b50346101865760031990838236011261058d578051610329816115c5565b60038152845b60608681831015610368575083516020929161034a826115c5565b8882528884918183850152818885015283015282850101520161032f565b91505061049b9183519461037b866115c5565b66b1a2bc2ec5000086526020956206ddd08782015260fa86820152602d60608201526103a6836116a6565b526103b0826116a6565b5084516103bc816115c5565b67011c37937e0800008152620753008782015261011886820152603460608201526103e6836116c7565b526103f0826116c7565b5084516103fc816115c5565b666a94d74f4300008152620668a08782015260c88682015260266060820152610424836116d7565b5261042e826116d7565b5084876104aa825193610440856115c5565b600385526060368b870137640ba43b74008061045b876116a6565b5280610466876116c7565b52610470866116d7565b5260018060a01b038754169484519889978896879662923f2560e61b88528701526044860190611796565b91848303016024850152611a73565b03915afa908115610583578586918793610528575b50906104cd6104d2926117e9565b6117e9565b51156104dc578380f35b5162461bcd60e51b815291820152602260248201527f417373657274696f6e4572726f723a20636f6e646974696f6e2069732066616c604482015261736560f01b606482015260849150fd5b925050503d8086833e61053b818361160f565b810160608282031261057f578151848301519284810151906001600160401b03821161057b576104d2936104cd92610573920161184f565b9392506104bf565b8880fd5b8580fd5b82513d87823e3d90fd5b8380fd5b808484346107075782600319360112610707578254815163212cc6e560e11b8152678ac7230489e800008482015260096024820152640ba43b740060448201526207a12060648201526791b77e5e5d9a000060848201526795e14ec77638000060a4820152600a60c4820152603260e48201526101c0949091859183916101049183916001600160a01b03165af19384156105835785946106cd575b505061063c60208401516117e9565b610648818401516117e9565b61065560a08401516117e9565b6101208301511561067f578361067c6101008561067560e08201516117e9565b01516117e9565b80f35b906020608492519162461bcd60e51b8352820152602260248201527f417373657274696f6e4572726f723a20636f6e646974696f6e2069732066616c604482015261736560f01b6064820152fd5b80919294503d8211610700575b6106e4818461160f565b820190828203126102f6576106f8916118f9565b91848061062d565b503d6106da565b5050fd5b503461018657600319838136011261058d57610725611647565b91805192610732846115c5565b66b1a2bc2ec5000084526020926206ddd08486015260fa83860152606094602d8682015261075f836116a6565b52610769826116a6565b508251610775816115c5565b67011c37937e080000815262075300858201526101188482015260348682015261079e836116c7565b526107a8826116c7565b5082516107b4816115c5565b666a94d74f4300008152620668a08582015260c8848201526026868201526107db836116d7565b526107e5826116d7565b5082516107f1816115c5565b6701aa535d3d0c000081526207c8308582015261014084820152603c8682015261081a836116e7565b52610824826116e7565b508251610830816115c5565b66470de4df820000815262061a8085820152609684820152601e86820152610857836116f7565b52610861826116f7565b5082519461086e866115c5565b600386528036868801376064610883876116a6565b5260c861088f876116c7565b5261012c928361089e886116d7565b5284516001600160401b039483820186811183821017610a8b578752600282528a92919087368a8401376108d1826116a6565b60fa90526108de826116c7565b5283838b600160a01b60019003825416938a519889968795869463748e545b60e11b86528501526064840161091291611796565b9d60249e8f83868303019086015261092991611a73565b9083820301604484015261093c91611a73565b03925af1918215610a81578892610996575b505060069150510361095e578480f35b5162461bcd60e51b8152928301526016908201527520b9b9b2b93a34b7b722b93937b91d1030901e9e903160511b6044820152606490fd5b9091503d8089833e6109a8818361160f565b810190858183031261057b57805190848211610a7d57019080601f8301121561057b578151926109d784611630565b946109e48751968761160f565b848652878601928860a080970286010194818611610a79578901935b858510610a1857505050505050506006905f8061094e565b8685830312610a7957885187810181811085821117610a66578a5285518152858b0151818c0152858a01518a8201528486015185820152608080870151908201528152938601938901610a00565b50634e487b7160e01b8e5260418d528b8efd5b8c80fd5b8980fd5b84513d8a823e3d90fd5b634e487b7160e01b8c5260418b5260248cfd5b50346101865782600319360112610186578051610aba816115f4565b83815283548251636915742360e11b81526020858201529161010091829184916001600160a01b031690829089908290610af8906024830190611796565b03925af19182610b0d575b5050610122578280f35b81610b2c92903d10610b34575b610b24818361160f565b81019061171b565b505f80610b03565b503d610b1a565b50346101865782600319360112610186578254815163212cc6e560e11b815283810185905260096024820152640ba43b740060448201526207a1206064820152678ac7230489e8000060848201526791b77e5e5d9a000060a4820152600a60c4820152603260e48201526101c0918290829061010490829089906001600160a01b03165af19182610bd0575050610122578280f35b803d8211610bf7575b610be3818461160f565b8201908282031261057f57610b2c916118f9565b503d610bd9565b5034610186578260031936011261018657825481516338a60bcd60e11b8152670de0b6b3a7640000848201819052678ac7230489e8000060248301526044820152670e92596fd6290000606482015260096084820152640ba43b740060a48201526207a12060c4820152600a60e48201526032610104820152610200918290829061012490829089906001600160a01b03165af191821561030157918391610120938792610ccd575b5050610cb381516117e9565b610cc060208201516117e9565b015101511561067f578280f35b610cec9250803d10610cf3575b610ce4818361160f565b8101906119a4565b5f80610ca7565b503d610cda565b50919034610e835781600319360112610e8357610dbd90835193610d1d856115c5565b6003855283602095606036888301376406fc23ac00610d3b826116a6565b52640ba43b7400610d4b826116c7565b5264174876e800610d5b826116d7565b52825190610d68826115c5565b60038252606036898401376005610d7e836116a6565b526009610d8a836116c7565b52600f610d96836116d7565b5260018060a01b0383541690838551809881958294635c5d15cd60e01b84528a8401611aa6565b03925af1928315610e79578493610e5d575b506009835103610e22575050815b8151811015610e1e5780610dfe610df7610e199385611707565b51516117e9565b610e1485610e0c8386611707565b5101516117e9565b61182d565b610ddd565b8280f35b5162461bcd60e51b8152908101849052601660248201527520b9b9b2b93a34b7b722b93937b91d1030901e9e903160511b6044820152606490fd5b610e729193503d8086833e610177818361160f565b915f610dcf565b81513d86823e3d90fd5b5080fd5b5034610186578260031936011261018657825481516338a60bcd60e11b8152678ac7230489e8000084820152670de0b6b3a7640000602482018190526044820152670e92596fd6290000606482015260096084820152640ba43b740060a48201526207a12060c4820152600a60e4820152603261010482015290610200908190839061012490829089906001600160a01b03165af19182610f2c575050610122578280f35b81610b2c92903d10610cf357610ce4818361160f565b50829034610e835781600319360112610e83578051611c75808201908282106001600160401b03831117610fad57908291611b028339039083f0908115610fa2575081546001600160a01b0319166001600160a01b039190911617815580f35b51913d9150823e3d90fd5b634e487b7160e01b855260418652602485fd5b503461018657826003193601126101865780516001600160401b0392610160820184811183821017611342578352600a808352855b61014081106113155750855b81811061121357505060018060a01b0393858581541693855196636915742360e11b8852876020968787830152610100918291818781611044602482018a611796565b03925af1908115611209576110d499859182936111e7575b505060e091928154169289519a8b9584879593630b54db8f87951b855280518c8601528c81015160248601528d8101516044860152606081015160648601526080810151608486015260a081015160a486015260c081015160c4860152015160e4840152610120610104840152610124830190611796565b03925af19485156111dd57869561111c575b8661067c60808861110f896111078a6110ff85516117e9565b8401516117e9565b8201516117e9565b61067560608201516117e9565b919450923d8087843e61112f818461160f565b82019183818403126111c2578051908582116111d957019360c0858403126111c25781519560c0870190878210838311176111c6575082528451865283850151848701528185015182870152606085015160608701526080850151608087015260a08501519081116111c25761067c956111b361110f94611107936080980161184f565b60a082015295508194506110e6565b8680fd5b634e487b7160e01b895260419052602488fd5b8780fd5b84513d88823e3d90fd5b60e09350908161120292903d10610b3457610b24818361160f565b915f61105c565b88513d86823e3d90fd5b662386f26fc1000080820290821590838304148117156113025766b1a2bc2ec500009182018092116113025761271080840290848204148217156112ef576206ddd09081018091116112ef578484029084820486148317156112dc5760fa9182018092116112dc57600592838602938685041417156112dc57602d9283018093116112dc57906112d7949392918951936112ac856115c5565b845260208401528883015260608201526112c68287611707565b526112d18186611707565b5061182d565b611001565b634e487b7160e01b8b526011875260248bfd5b634e487b7160e01b8a526011865260248afd5b634e487b7160e01b895260118552602489fd5b6020908551611323816115c5565b8881528289818301528988830152896060830152828701015201610ff5565b634e487b7160e01b865260418252602486fd5b503461018657826003193601126101865761136e611647565b906114de815161137d816115c5565b66b1a2bc2ec5000081526020936206ddd08583015260fa84830152606091602d838201526113aa826116a6565b526113b4816116a6565b5083516113c0816115c5565b67011c37937e08000081526207530086820152610118858201526034838201526113e9826116c7565b526113f3816116c7565b5083516113ff816115c5565b666a94d74f4300008152620668a08682015260c885820152602683820152611426826116d7565b52611430816116d7565b50835161143c816115c5565b6701aa535d3d0c000081526207c8308682015261014085820152603c83820152611465826116e7565b5261146f816116e7565b50835161147b816115c5565b66470de4df820000815262061a8086820152609685820152601e838201526114a2826116f7565b526114ac816116f7565b5060018060a01b038754169084518092636915742360e11b82528789830152818a816101009889966024830190611796565b03925af19283156115bb57879361159c575b50506114fc82516117e9565b61150960a08301516117e9565b600560e0830151036115605760808201519101511015611527578380f35b5162461bcd60e51b815291820152601560248201527420b9b9b2b93a34b7b722b93937b91d1030901f103160591b604482015260649150fd5b50505162461bcd60e51b815291820152601660248201527520b9b9b2b93a34b7b722b93937b91d1030901e9e903160511b604482015260649150fd5b6115b3929350803d10610b3457610b24818361160f565b905f806114f0565b84513d89823e3d90fd5b608081019081106001600160401b038211176115e057604052565b634e487b7160e01b5f52604160045260245ffd5b602081019081106001600160401b038211176115e057604052565b90601f801991011681019081106001600160401b038211176115e057604052565b6001600160401b0381116115e05760051b60200190565b60409081519160c083018381106001600160401b038211176115e057815260058352825f5b60a0811061167957505050565b6020908351611687816115c5565b5f8152825f818301525f868301525f606083015282850101520161166c565b8051156116b35760200190565b634e487b7160e01b5f52603260045260245ffd5b8051600110156116b35760400190565b8051600210156116b35760600190565b8051600310156116b35760800190565b8051600410156116b35760a00190565b80518210156116b35760209160051b010190565b8091610100928391031261179257604051918201908282106001600160401b038311176115e05760e091604052805183526020810151602084015260408101516040840152606081015160608401526080810151608084015260a081015160a084015260c081015160c0840152015160e082015290565b5f80fd5b9081518082526020808093019301915f5b8281106117b5575050505090565b83518051865280830151868401526040808201519087015260609081015190860152608090940193928101926001016117a7565b156117f057565b60405162461bcd60e51b815260206004820152601560248201527420b9b9b2b93a34b7b722b93937b91d1030901f103160591b6044820152606490fd5b5f19811461183b5760010190565b634e487b7160e01b5f52601160045260245ffd5b919080601f84011215611792578251906001600160401b0382116115e05760405191602091611887601f8301601f191684018561160f565b818452828287010111611792575f5b8181106118aa5750825f9394955001015290565b8581018301518482018401528201611896565b9190826080910312611792576040516118d5816115c5565b60608082948051845260208101516020850152604081015160408501520151910152565b9190916101c081840312611792576040519061016082018281106001600160401b038211176115e0576040528193815183526020820151602084015260408201516040840152606082015160608401526080820151608084015260a082015160a084015260c082015160c084015260e082015160e08401526101008083015190840152610120908183015180151581036117925761199f928501526101408093016118bd565b910152565b610200818303126117925760405191606083018381106001600160401b038211176115e0576119e69260409182528051855260208101516020860152016118f9565b604082015290565b6020908181840312611792578051906001600160401b03821161179257019082601f83011215611792578151611a2381611630565b93611a31604051958661160f565b818552828086019260071b85010193818511611792578301915b848310611a5a57505050505090565b83608091611a6884866118bd565b815201920191611a4b565b9081518082526020808093019301915f5b828110611a92575050505090565b835185529381019392810192600101611a84565b9291611aec60c091611ade60329467016345785d8a00008852678ac7230489e80000602089015260e0604089015260e0880190611a73565b908682036060880152611a73565b936207a1206080820152600a60a0820152015256fe6080806040523461001657611c5a908161001b8239f35b5f80fdfe6080806040526004361015610012575f80fd5b5f3560e01c9081630b54db8f1461103157508063248fc94014610db957806342598dca14610b9e5780635c5d15cd1461090f578063714c179a146106a7578063d22ae846146103f45763e91ca8b614610069575f80fd5b346103f05760603660031901126103f0576001600160401b036004358181116103f05761009a903690600401611289565b6024929192358281116103f0576100b59036906004016112f7565b9390926044359081116103f0576100d09036906004016112f7565b91909383156103de57851580156103d6575b6103c4576100f2838796976114bf565b936100fc85611629565b9561010a604051978861142a565b858752601f1961011987611629565b015f5b8181106103895750505f905f985f5b8281106101c9578a8a7fce02315fb96cbb0454e42d85a6b1d9cfe79538fc4b258c8e3b924b99bcd7a02a60408c815190815260209485820152a160405190828201838352815180915283604084019201935f5b82811061018b5784840385f35b85518051855280830151858401526040808201519086015260608082015190860152608090810151908501529481019460a09093019260010161017e565b5f9a999a5b8881106101e757506101df9061144b565b99989961012b565b935f805f5b8881106102c157508d8d83156102b75750506127109080828102048214811517156102a3578e926102218f938b90840261148a565b925b8311610299575b9361028e938782948f94610294988f8e610288988f8e61024d9161025495611640565b3596611640565b35604051946102628661140f565b855260208501526040840152606083015260808201526102828383611650565b52611650565b5061144b565b9461144b565b6101ce565b919d508d9161022a565b634e487b7160e01b5f52601160045260245ffd5b9190925f92610223565b6102cc818a8d611459565b351561037b576102dd818a8d611459565b3561271081818102048114821517156102a3578c918b91670de0b6b3a764000091020461030b888b8f611640565b35111580610357575b610329575b50506103249061144b565b6101ec565b9261034683610324949561034061034d959861144b565b97611459565b359061147d565b9190508a89610319565b508d6103738b604061036a878688611459565b0135928b611640565b351015610314565b8a895f61030b888b8f611640565b60209060409a999a5161039b8161140f565b5f8152825f818301525f60408301525f60608301525f6080830152828d0101520198979861011c565b60405163b4fa3fb360e01b8152600490fd5b5082156100e2565b604051637bfbc40b60e11b8152600490fd5b5f80fd5b346103f05760203660031901126103f0576004356001600160401b0381116103f057610424903690600401611289565b60405161010081018181106001600160401b038211176105b6575f9160e0916040528281528260208201528260408201528260608201528260808201528260a08201528260c0820152015280156103de576103e881116103c4575f90815f198180805b8581106105fa5750846104b06104aa826104a4816104b59661148a565b9961148a565b956114a8565b61148a565b916104bf85611664565b86865f5b8181106105d057506104eb6104e6845f6104e06104f19751611696565b916116c3565b6117d7565b9961183a565b90857fcfe57e905ab17a85e457e7deecc108449d49cdd26719290c306542b53b0ec366604080518a8152876020820152a25f1981036105ca57505f905b6040519761010089018981106001600160401b038211176105b6576101009960e0916040528981526020810192835260408101938452606081019485526080810195865260a0810196875260c08101978852019687526040519788525160208801525160408701525160608601525160808501525160a08401525160c08301525160e0820152f35b634e487b7160e01b5f52604160045260245ffd5b9061052e565b906105f29250816105e1918c611459565b356105ec8285611650565b5261144b565b8688916104c3565b959061060e6106249161034689898c611459565b91602061061c89898c611459565b01359061147d565b9561063081878a611459565b35610697575b8361064282888b611459565b3510610683575b8261065582888b611459565b351161066a575b6106659061144b565b610487565b915061066561067a83878a611459565b3592905061065c565b9250610690838689611459565b3592610649565b936106a19061144b565b93610636565b346103f0576101203660031901126103f057600435602435906044356064359260843560a4359260c4359060e4359661010435916040516106e7816113f4565b5f81525f602082015260406106fa611503565b91015287158015610907575b6103c4578588116103c45780156103c45781156103c4575f95889493929190855b8181111561082b5750505090670de0b6b3a764000061074961079f93866114bf565b0498604051998a95869563212cc6e560e11b87526101c09a8b998360048a0194919260e0969399989794919961010087019a8752602087015260408601526060850152608084015260a083015260c08201520152565b03815f305af190811561082057610200946107ef935f936107f1575b5050604080516107ca816113f4565b8581526020810192835201918252604051938452516020840152516040830190611327565bf35b610811929350803d10610819575b610809818361142a565b81019061155c565b9085806107bb565b503d6107ff565b6040513d5f823e3d90fd5b90919293949550888b8883896108a48a670de0b6b3a764000061084e8c866114bf565b0495604051968795869563212cc6e560e11b87526101c09a8b998360048a0194919260e0969399989794919961010087019a8752602087015260408601526060850152608084015260a083015260c08201520152565b03815f305af19081156108205760e0925f926108ea575b505001518881116108de575b50826108d29161147d565b90899594939291610727565b909950965088826108c7565b6109009250803d1061081957610809818361142a565b8d806108bb565b508515610706565b346103f05760e03660031901126103f0576001600160401b036044358181116103f0576109409036906004016112f7565b916064359081116103f0576109599036906004016112f7565b83929192158015610b96575b6103c45761097381856114bf565b9261097d84611629565b9461098b604051968761142a565b848652601f1961099a86611629565b015f5b818110610b7f5750505f805b828110610a455786886040519182527f2218b4fcf560dd36c548fb0ac486b85c68763a82fff0cafe334e2f44be6f3e5060208093a160405190828201838352815180915283604084019201935f5b828110610a045784840385f35b90919282608082610a366001948a51606080918051845260208101516020850152604081015160408501520151910152565b019601910194929190946109f7565b5f5b858110610a5d5750610a589061144b565b6109a9565b91610ac9610a78608435610a7285888c611640565b356114bf565b610ac4612710610a95610a8c888c8c611640565b356024356114bf565b04610ac4612710610aaa60a4356024356114bf565b0491612710610abd60c4356024356114bf565b049461147d565b61147d565b80600435115f14610b7857610ae0906004356114d2565b60243515610b6a578061271081020461271014811517156102a357610b6591610b5f91610b13602435612710830261148a565b610b1e86898d611640565b3591610b2b888c8c611640565b3560405193610b39856113d9565b8452602084015260408301526060820152610b54828d611650565b52610288818c611650565b9261144b565b610a47565b610b6591610b5f915f610b13565b505f610ae0565b602090610b8a6114df565b82828b0101520161099d565b508015610965565b346103f0576101003660031901126103f05760a435600435610bbe611503565b5080156103c457608435158015610db1575b6103c457612710610be3602435836114bf565b04610bf26064356044356114bf565b90612710610c0260c435856114bf565b04612710610c1260e435866114bf565b0494610c2686610ac484610ac4888861147d565b908580821115610da957610c39916114d2565b81811115610da257610c4b82826114d2565b915b612710830297831598848104612710148a17156102a35788610c6e9161148a565b94610c776114df565b9783610d0b575b6101c09a15977ff8d4e3610cbf53d4af8faed23c01aaca89ea1a22b855e591360bbc55071c917b60606040518d81528960208201528b6040820152a16040519a610cc78c6113bd565b8b5260208b015260408a01526060890152608088015260a087015260c086015260e08501526101008401526101208301526101408201526107ef6040518092611327565b612710880288810461271014891517156102a35784610d299161148a565b8952612710810281810461271014821517156102a35784610d499161148a565b60208a01528161271081020461271014821517156102a357610d6f84612710840261148a565b60408a015261271083029a838c0461271014841517156102a357610d96856101c09d61148a565b60608b01529a50610c7e565b5f91610c4d565b50505f610c39565b508115610bd0565b346103f05760403660031901126103f0576001600160401b036004358181116103f057610dea903690600401611289565b9060249283359081116103f057610e059036906004016112f7565b9383156103de5784840361101f575f925f955f5b868110610f815787610e3588610e2f818a61148a565b9261148a565b90670de0b6b3a7640000821115610eb857610eb4604051610e55816113f4565b602d81527f47617320636f73747320617265206a75737469666965642062792070726f666960208201526c7473202d20434f4e54494e554560981b60408201525b604051938493845260208401526060604084015260608301906112b9565b0390f35b6706f05b59d3b20000821115610f2c57610eb4604051610ed7816113f4565b603881527f47617320636f73747320617265206d617267696e616c202d204f5054494d495a60208201527f45206f7220494e4352454153452054524144452053495a4500000000000000006040820152610e96565b610eb4604051610f3b816113f4565b602e81527f47617320636f737473206578636565642070726f66697473202d205245434f4e60208201526d534944455220535452415445475960901b6040820152610e96565b610faf610fa8610f92838589611640565b356020610fa0858c89611459565b0135906114bf565b809761147d565b9580610fc5575b50610fc09061144b565b610e19565b610fd38289869b949b611459565b35670de0b6b3a76400009081810291818304149015171561100c5791610fff61100592610fc09461148a565b9061147d565b9790610fb6565b85634e487b7160e01b5f5260116004525ffd5b60405163512509d360e11b8152600490fd5b346103f057366003190161012081126103f057610100136103f0576001600160401b03610104358181116103f05761106d903690600401611289565b91909260c0810190808210838311176105b65760a0916040525f81525f60208201525f6040820152606091815f84809401525f6080820152015282156103de57600435906044358083111561128257670de0b6b3a76400006110d76110d283866114d2565b6114a8565b045b603281101561127c57506032945b6110f081611664565b5f5b82811061125a575061110c815f6104e06111119451611696565b6118ed565b9661111b82611664565b915f5b8181106112395750505061113a815f6104e061113f9451611696565b611931565b92601e84018094116102a35760c435916096830292808404609614901517156102a3578115611230576111719161196c565b915b61118160a43560e4356119c0565b937f4682a24db80119847024aa747650b50f14fd55b9630f4a7615212e6206c94b9f826040518981528a6020820152866040820152a16040519660c08801968711888810176105b657610eb496604052875260208701978852604087019081526064828801930483526080870193845260a087019485526040519788976020895251602089015251604088015251908601525160808501525160a08401525160c08084015260e08301906112b9565b50505f91611173565b8086611249611255938587611459565b01356105ec8287611650565b61111e565b80604061126b61127793868d611459565b01356105ec8285611650565b6110f2565b946110e7565b60326110d9565b9181601f840112156103f0578235916001600160401b0383116103f0576020808501948460071b0101116103f057565b91908251928382525f5b8481106112e3575050825f602080949584010152601f8019910116010190565b6020818301810151848301820152016112c3565b9181601f840112156103f0578235916001600160401b0383116103f0576020808501948460051b0101116103f057565b906113bb91805182526020810151602083015260408101516040830152606081015160608301526080810151608083015260a081015160a083015260c081015160c083015260e081015160e083015261010080820151908301526101208082015115159083015261014080910151910190606080918051845260208101516020850152604081015160408501520151910152565b565b61016081019081106001600160401b038211176105b657604052565b608081019081106001600160401b038211176105b657604052565b606081019081106001600160401b038211176105b657604052565b60a081019081106001600160401b038211176105b657604052565b90601f801991011681019081106001600160401b038211176105b657604052565b5f1981146102a35760010190565b91908110156114695760071b0190565b634e487b7160e01b5f52603260045260245ffd5b919082018092116102a357565b8115611494570490565b634e487b7160e01b5f52601260045260245ffd5b90612710918281029281840414901517156102a357565b818102929181159184041417156102a357565b919082039182116102a357565b604051906114ec826113d9565b5f6060838281528260208201528260408201520152565b60405190611510826113bd565b815f8082528060208301528060408301528060608301528060808301528060a08301528060c08301528060e0830152806101008301526101208201526101406115576114df565b910152565b809103906101c082126103f05760405191611576836113bd565b815183526020820151602084015260408201516040840152606082015160608401526080820151608084015260a082015160a084015260c082015160c084015260e082015160e08401526101008083015190840152610120908183015180151581036103f05760809285015261013f1901126103f057604051906115f9826113d9565b6101a061014091828101518452610160810151602085015261018081015160408501520151606083015282015290565b6001600160401b0381116105b65760051b60200190565b91908110156114695760051b0190565b80518210156114695760209160051b010190565b9061166e82611629565b61167b604051918261142a565b828152809261168c601f1991611629565b0190602036910137565b905f1982019182136001166102a357565b9060018201915f6001841291129080158216911516176102a357565b918082126116d057505090565b6116da8184611650565b516116e483611696565b90835b83811261176257505061173961174a916117018487611650565b51611733611717611711846116a7565b89611650565b51611721846116a7565b9061172c888b611650565b5288611650565b526116a7565b9261174384611696565b90856116c3565b61175e9261175891506116a7565b836116c3565b5090565b8161176d8288611650565b5110611782575b61177d906117c3565b6116e7565b9161178f61177d916117c3565b9261179a8188611650565b516117a58589611650565b516117b0838a611650565b526117bb8589611650565b529050611774565b6001600160ff1b0381146102a35760010190565b80519081156118345760019180831683036117fe575080516117fa921c90611650565b5190565b821c905f1982019182116102a35761182861181c61182f9383611650565b51918051851c90611650565b519061147d565b901c90565b50505f90565b91909182156118e657905f9182915b84831061186857505050611865916118609161148a565b611bd4565b90565b9091926118b36118b9918361187e878988611459565b3511156118c057670de0b6b3a76400006118ac6118a6866118a08a8c8b611459565b356114d2565b806114bf565b049061147d565b9361144b565b9190611849565b670de0b6b3a76400006118ac6118e16118da898b8a611459565b35876114d2565b6118a6565b5050505f90565b8051801561183457605f8102908104605f036102a35781516064909104908110611928575080515f1981019081116102a3576117fa91611650565b6117fa91611650565b8051801561183457606381029081046063036102a35781516064909104908110611928575080515f1981019081116102a3576117fa91611650565b9080156119b857670de0b6b3a76400009182820291820483036102a3576119929161148a565b818110156118345781018091116102a35780156114945769021e19e0c9bab24000000490565b505061271090565b600a11611b7457612328811015611b1457611d4c811015611ab4576113881115611a55576040516119f0816113d9565b604981527f4c4f5720535543434553532052415445202d20436f6e7369646572206d6f726560208201527f206167677265737369766520706172616d6574657273206f722073747261746560408201526867792072657669657760b81b606082015290565b604051611a61816113f4565b603881527f4d4f44455241544520535543434553532052415445202d20506172616d65746560208201527f7273206d6179206e656564206f7074696d697a6174696f6e0000000000000000604082015290565b50604051611ac1816113f4565b603d81527f474f4f4420535543434553532052415445202d20506172616d6574657273206160208201527f72652062616c616e63656420666f722070726f6669746162696c697479000000604082015290565b50604051611b21816113f4565b603f81527f4849474820535543434553532052415445202d20506172616d6574657273206160208201527f726520636f6e73657276617469766520616e642077656c6c2d74657374656400604082015290565b50604051611b81816113f4565b603c81527f494e53554646494349454e542044415441202d205265636f6d6d656e6461746960208201527f6f6e73206261736564206f6e206c696d697465642073616d706c657300000000604082015290565b8015611c1f576001808214611c1a578082018083116102a357811c90825b838310611bff5750505090565b90919250611c1183610ac4818461148a565b821c9190611bf2565b905090565b505f9056fea2646970667358221220584549a349c6cdf1d65eba612b838c569684bfd794cd9c205d262ef03a0efc7664736f6c63430008140033a26469706673582212200f17ba805881ef1f34b3772034c25441446e87358883cc27f6e2a817bb792c4764736f6c63430008140033",
			"opcodes": "PUSH1 0x80 DUP1 PUSH1 0x40 MSTORE CALLVALUE PUSH2 0x16 JUMPI PUSH2 0x37AC SWAP1 DUP2 PUSH2 0x1B DUP3 CODECOPY RETURN JUMPDEST PUSH0 DUP1 REVERT INVALID PUSH1 0x40 PUSH1 0x80 DUP2 MSTORE PUSH1 0x4 DUP1 CALLDATASIZE LT ISZERO PUSH2 0x13 JUMPI PUSH0 DUP1 REVERT JUMPDEST PUSH0 SWAP2 DUP3 CALLDATALOAD PUSH1 0xE0 SHR DUP1 PUSH4 0x56E735F EQ PUSH2 0x1355 JUMPI DUP1 PUSH4 0x6AED440 EQ PUSH2 0xFC0 JUMPI DUP1 PUSH4 0xA9254E4 EQ PUSH2 0xF42 JUMPI DUP1 PUSH4 0x340EBD94 EQ PUSH2 0xE87 JUMPI DUP1 PUSH4 0x3815454F EQ PUSH2 0xCFA JUMPI DUP1 PUSH4 0x50C84D15 EQ PUSH2 0xBFE JUMPI DUP1 PUSH4 0x61F4005B EQ PUSH2 0xB3B JUMPI DUP1 PUSH4 0x631F9D7C EQ PUSH2 0xA9E JUMPI DUP1 PUSH4 0x982B759E EQ PUSH2 0x70B JUMPI DUP4 DUP2 PUSH4 0xA34D52AA EQ PUSH2 0x591 JUMPI POP DUP1 PUSH4 0xC3040E88 EQ PUSH2 0x30B JUMPI DUP1 PUSH4 0xD74D8372 EQ PUSH2 0x18A JUMPI PUSH4 0xE5EA2826 EQ PUSH2 0xAE JUMPI PUSH0 DUP1 REVERT JUMPDEST CALLVALUE PUSH2 0x186 JUMPI DUP3 PUSH1 0x3 NOT CALLDATASIZE ADD SLT PUSH2 0x186 JUMPI PUSH2 0x10E DUP4 DUP3 MLOAD PUSH2 0xCD DUP2 PUSH2 0x15C5 JUMP JUMPDEST PUSH1 0x3 DUP2 MSTORE PUSH1 0x60 CALLDATASIZE PUSH1 0x20 DUP4 ADD CALLDATACOPY DUP4 MLOAD SWAP1 PUSH2 0xE5 DUP3 PUSH2 0x15F4 JUMP JUMPDEST DUP3 DUP3 MSTORE PUSH1 0x1 DUP1 PUSH1 0xA0 SHL SUB DUP4 SLOAD AND SWAP1 DUP4 DUP7 MLOAD DUP1 SWAP7 DUP2 SWAP6 DUP3 SWAP5 PUSH4 0x5C5D15CD PUSH1 0xE0 SHL DUP5 MSTORE DUP12 DUP5 ADD PUSH2 0x1AA6 JUMP JUMPDEST SUB SWAP3 GAS CALL SWAP1 DUP2 PUSH2 0x164 JUMPI JUMPDEST POP PUSH2 0x122 JUMPI DUP3 DUP1 RETURN JUMPDEST MLOAD PUSH3 0x461BCD PUSH1 0xE5 SHL DUP2 MSTORE SWAP2 POP DUP2 SWAP1 PUSH2 0x160 SWAP1 DUP3 ADD PUSH1 0x60 SWAP1 PUSH1 0x20 DUP2 MSTORE PUSH1 0xF PUSH1 0x20 DUP3 ADD MSTORE PUSH15 0x115E1C1958DD1959081C995D995C9D PUSH1 0x8A SHL PUSH1 0x40 DUP3 ADD MSTORE ADD SWAP1 JUMP JUMPDEST SUB SWAP1 REVERT JUMPDEST PUSH2 0x17F SWAP1 RETURNDATASIZE DUP1 DUP8 DUP4 RETURNDATACOPY PUSH2 0x177 DUP2 DUP4 PUSH2 0x160F JUMP JUMPDEST DUP2 ADD SWAP1 PUSH2 0x19EE JUMP JUMPDEST POP PUSH0 PUSH2 0x119 JUMP JUMPDEST DUP3 DUP1 REVERT JUMPDEST POP CALLVALUE PUSH2 0x186 JUMPI DUP3 PUSH1 0x3 NOT CALLDATASIZE ADD SLT PUSH2 0x186 JUMPI DUP3 SLOAD DUP2 MLOAD PUSH4 0x212CC6E5 PUSH1 0xE1 SHL DUP2 MSTORE PUSH8 0x8AC7230489E80000 DUP5 DUP3 ADD MSTORE PUSH1 0x9 PUSH1 0x24 DUP3 ADD MSTORE PUSH5 0x174876E800 PUSH1 0x44 DUP3 ADD MSTORE PUSH3 0xF4240 PUSH1 0x64 DUP3 ADD MSTORE PUSH8 0x8C2A687CE7720000 PUSH1 0x84 DUP3 ADD MSTORE PUSH8 0x8B78C5C0B8AD0000 PUSH1 0xA4 DUP3 ADD MSTORE PUSH1 0xA PUSH1 0xC4 DUP3 ADD MSTORE PUSH1 0x32 PUSH1 0xE4 DUP3 ADD MSTORE PUSH2 0x1C0 SWAP2 DUP3 SWAP1 DUP3 SWAP1 PUSH2 0x104 SWAP1 DUP3 SWAP1 DUP10 SWAP1 PUSH1 0x1 PUSH1 0x1 PUSH1 0xA0 SHL SUB AND GAS CALL SWAP2 DUP3 ISZERO PUSH2 0x301 JUMPI DUP6 SWAP3 PUSH2 0x2C5 JUMPI JUMPDEST POP POP PUSH2 0x120 DUP2 ADD MLOAD PUSH2 0x278 JUMPI PUSH1 0xE0 ADD MLOAD PUSH2 0x23C JUMPI DUP3 DUP1 RETURN JUMPDEST SWAP1 PUSH1 0x20 PUSH1 0x64 SWAP3 MLOAD SWAP2 PUSH3 0x461BCD PUSH1 0xE5 SHL DUP4 MSTORE DUP3 ADD MSTORE PUSH1 0x16 PUSH1 0x24 DUP3 ADD MSTORE PUSH22 0x20B9B9B2B93A34B7B722B93937B91D1030901E9E9031 PUSH1 0x51 SHL PUSH1 0x44 DUP3 ADD MSTORE REVERT JUMPDEST DUP2 MLOAD PUSH3 0x461BCD PUSH1 0xE5 SHL DUP2 MSTORE PUSH1 0x20 DUP2 DUP6 ADD MSTORE PUSH1 0x21 PUSH1 0x24 DUP3 ADD MSTORE PUSH32 0x417373657274696F6E4572726F723A20636F6E646974696F6E20697320747275 PUSH1 0x44 DUP3 ADD MSTORE PUSH1 0x65 PUSH1 0xF8 SHL PUSH1 0x64 DUP3 ADD MSTORE PUSH1 0x84 SWAP1 REVERT JUMPDEST DUP1 SWAP2 SWAP3 POP RETURNDATASIZE DUP3 GT PUSH2 0x2FA JUMPI JUMPDEST PUSH2 0x2DB DUP2 DUP5 PUSH2 0x160F JUMP JUMPDEST DUP3 ADD SWAP1 DUP3 DUP3 SUB SLT PUSH2 0x2F6 JUMPI PUSH2 0x2EF SWAP2 PUSH2 0x18F9 JUMP JUMPDEST PUSH0 DUP1 PUSH2 0x224 JUMP JUMPDEST DUP5 DUP1 REVERT JUMPDEST POP RETURNDATASIZE PUSH2 0x2D1 JUMP JUMPDEST DUP4 MLOAD RETURNDATASIZE DUP8 DUP3 RETURNDATACOPY RETURNDATASIZE SWAP1 REVERT JUMPDEST POP CALLVALUE PUSH2 0x186 JUMPI PUSH1 0x3 NOT SWAP1 DUP4 DUP3 CALLDATASIZE ADD SLT PUSH2 0x58D JUMPI DUP1 MLOAD PUSH2 0x329 DUP2 PUSH2 0x15C5 JUMP JUMPDEST PUSH1 0x3 DUP2 MSTORE DUP5 JUMPDEST PUSH1 0x60 DUP7 DUP2 DUP4 LT ISZERO PUSH2 0x368 JUMPI POP DUP4 MLOAD PUSH1 0x20 SWAP3 SWAP2 PUSH2 0x34A DUP3 PUSH2 0x15C5 JUMP JUMPDEST DUP9 DUP3 MSTORE DUP9 DUP5 SWAP2 DUP2 DUP4 DUP6 ADD MSTORE DUP2 DUP9 DUP6 ADD MSTORE DUP4 ADD MSTORE DUP3 DUP6 ADD ADD MSTORE ADD PUSH2 0x32F JUMP JUMPDEST SWAP2 POP POP PUSH2 0x49B SWAP2 DUP4 MLOAD SWAP5 PUSH2 0x37B DUP7 PUSH2 0x15C5 JUMP JUMPDEST PUSH7 0xB1A2BC2EC50000 DUP7 MSTORE PUSH1 0x20 SWAP6 PUSH3 0x6DDD0 DUP8 DUP3 ADD MSTORE PUSH1 0xFA DUP7 DUP3 ADD MSTORE PUSH1 0x2D PUSH1 0x60 DUP3 ADD MSTORE PUSH2 0x3A6 DUP4 PUSH2 0x16A6 JUMP JUMPDEST MSTORE PUSH2 0x3B0 DUP3 PUSH2 0x16A6 JUMP JUMPDEST POP DUP5 MLOAD PUSH2 0x3BC DUP2 PUSH2 0x15C5 JUMP JUMPDEST PUSH8 0x11C37937E080000 DUP2 MSTORE PUSH3 0x75300 DUP8 DUP3 ADD MSTORE PUSH2 0x118 DUP7 DUP3 ADD MSTORE PUSH1 0x34 PUSH1 0x60 DUP3 ADD MSTORE PUSH2 0x3E6 DUP4 PUSH2 0x16C7 JUMP JUMPDEST MSTORE PUSH2 0x3F0 DUP3 PUSH2 0x16C7 JUMP JUMPDEST POP DUP5 MLOAD PUSH2 0x3FC DUP2 PUSH2 0x15C5 JUMP JUMPDEST PUSH7 0x6A94D74F430000 DUP2 MSTORE PUSH3 0x668A0 DUP8 DUP3 ADD MSTORE PUSH1 0xC8 DUP7 DUP3 ADD MSTORE PUSH1 0x26 PUSH1 0x60 DUP3 ADD MSTORE PUSH2 0x424 DUP4 PUSH2 0x16D7 JUMP JUMPDEST MSTORE PUSH2 0x42E DUP3 PUSH2 0x16D7 JUMP JUMPDEST POP DUP5 DUP8 PUSH2 0x4AA DUP3 MLOAD SWAP4 PUSH2 0x440 DUP6 PUSH2 0x15C5 JUMP JUMPDEST PUSH1 0x3 DUP6 MSTORE PUSH1 0x60 CALLDATASIZE DUP12 DUP8 ADD CALLDATACOPY PUSH5 0xBA43B7400 DUP1 PUSH2 0x45B DUP8 PUSH2 0x16A6 JUMP JUMPDEST MSTORE DUP1 PUSH2 0x466 DUP8 PUSH2 0x16C7 JUMP JUMPDEST MSTORE PUSH2 0x470 DUP7 PUSH2 0x16D7 JUMP JUMPDEST MSTORE PUSH1 0x1 DUP1 PUSH1 0xA0 SHL SUB DUP8 SLOAD AND SWAP5 DUP5 MLOAD SWAP9 DUP10 SWAP8 DUP9 SWAP7 DUP8 SWAP7 PUSH3 0x923F25 PUSH1 0xE6 SHL DUP9 MSTORE DUP8 ADD MSTORE PUSH1 0x44 DUP7 ADD SWAP1 PUSH2 0x1796 JUMP JUMPDEST SWAP2 DUP5 DUP4 SUB ADD PUSH1 0x24 DUP6 ADD MSTORE PUSH2 0x1A73 JUMP JUMPDEST SUB SWAP2 GAS STATICCALL SWAP1 DUP2 ISZERO PUSH2 0x583 JUMPI DUP6 DUP7 SWAP2 DUP8 SWAP4 PUSH2 0x528 JUMPI JUMPDEST POP SWAP1 PUSH2 0x4CD PUSH2 0x4D2 SWAP3 PUSH2 0x17E9 JUMP JUMPDEST PUSH2 0x17E9 JUMP JUMPDEST MLOAD ISZERO PUSH2 0x4DC JUMPI DUP4 DUP1 RETURN JUMPDEST MLOAD PUSH3 0x461BCD PUSH1 0xE5 SHL DUP2 MSTORE SWAP2 DUP3 ADD MSTORE PUSH1 0x22 PUSH1 0x24 DUP3 ADD MSTORE PUSH32 0x417373657274696F6E4572726F723A20636F6E646974696F6E2069732066616C PUSH1 0x44 DUP3 ADD MSTORE PUSH2 0x7365 PUSH1 0xF0 SHL PUSH1 0x64 DUP3 ADD MSTORE PUSH1 0x84 SWAP2 POP REVERT JUMPDEST SWAP3 POP POP POP RETURNDATASIZE DUP1 DUP7 DUP4 RETURNDATACOPY PUSH2 0x53B DUP2 DUP4 PUSH2 0x160F JUMP JUMPDEST DUP2 ADD PUSH1 0x60 DUP3 DUP3 SUB SLT PUSH2 0x57F JUMPI DUP2 MLOAD DUP5 DUP4 ADD MLOAD SWAP3 DUP5 DUP2 ADD MLOAD SWAP1 PUSH1 0x1 PUSH1 0x1 PUSH1 0x40 SHL SUB DUP3 GT PUSH2 0x57B JUMPI PUSH2 0x4D2 SWAP4 PUSH2 0x4CD SWAP3 PUSH2 0x573 SWAP3 ADD PUSH2 0x184F JUMP JUMPDEST SWAP4 SWAP3 POP PUSH2 0x4BF JUMP JUMPDEST DUP9 DUP1 REVERT JUMPDEST DUP6 DUP1 REVERT JUMPDEST DUP3 MLOAD RETURNDATASIZE DUP8 DUP3 RETURNDATACOPY RETURNDATASIZE SWAP1 REVERT JUMPDEST DUP4 DUP1 REVERT JUMPDEST DUP1 DUP5 DUP5 CALLVALUE PUSH2 0x707 JUMPI DUP3 PUSH1 0x3 NOT CALLDATASIZE ADD SLT PUSH2 0x707 JUMPI DUP3 SLOAD DUP2 MLOAD PUSH4 0x212CC6E5 PUSH1 0xE1 SHL DUP2 MSTORE PUSH8 0x8AC7230489E80000 DUP5 DUP3 ADD MSTORE PUSH1 0x9 PUSH1 0x24 DUP3 ADD MSTORE PUSH5 0xBA43B7400 PUSH1 0x44 DUP3 ADD MSTORE PUSH3 0x7A120 PUSH1 0x64 DUP3 ADD MSTORE PUSH8 0x91B77E5E5D9A0000 PUSH1 0x84 DUP3 ADD MSTORE PUSH8 0x95E14EC776380000 PUSH1 0xA4 DUP3 ADD MSTORE PUSH1 0xA PUSH1 0xC4 DUP3 ADD MSTORE PUSH1 0x32 PUSH1 0xE4 DUP3 ADD MSTORE PUSH2 0x1C0 SWAP5 SWAP1 SWAP2 DUP6 SWAP2 DUP4 SWAP2 PUSH2 0x104 SWAP2 DUP4 SWAP2 PUSH1 0x1 PUSH1 0x1 PUSH1 0xA0 SHL SUB AND GAS CALL SWAP4 DUP5 ISZERO PUSH2 0x583 JUMPI DUP6 SWAP5 PUSH2 0x6CD JUMPI JUMPDEST POP POP PUSH2 0x63C PUSH1 0x20 DUP5 ADD MLOAD PUSH2 0x17E9 JUMP JUMPDEST PUSH2 0x648 DUP2 DUP5 ADD MLOAD PUSH2 0x17E9 JUMP JUMPDEST PUSH2 0x655 PUSH1 0xA0 DUP5 ADD MLOAD PUSH2 0x17E9 JUMP JUMPDEST PUSH2 0x120 DUP4 ADD MLOAD ISZERO PUSH2 0x67F JUMPI DUP4 PUSH2 0x67C PUSH2 0x100 DUP6 PUSH2 0x675 PUSH1 0xE0 DUP3 ADD MLOAD PUSH2 0x17E9 JUMP JUMPDEST ADD MLOAD PUSH2 0x17E9 JUMP JUMPDEST DUP1 RETURN JUMPDEST SWAP1 PUSH1 0x20 PUSH1 0x84 SWAP3 MLOAD SWAP2 PUSH3 0x461BCD PUSH1 0xE5 SHL DUP4 MSTORE DUP3 ADD MSTORE PUSH1 0x22 PUSH1 0x24 DUP3 ADD MSTORE PUSH32 0x417373657274696F6E4572726F723A20636F6E646974696F6E2069732066616C PUSH1 0x44 DUP3 ADD MSTORE PUSH2 0x7365 PUSH1 0xF0 SHL PUSH1 0x64 DUP3 ADD MSTORE REVERT JUMPDEST DUP1 SWAP2 SWAP3 SWAP5 POP RETURNDATASIZE DUP3 GT PUSH2 0x700 JUMPI JUMPDEST PUSH2 0x6E4 DUP2 DUP5 PUSH2 0x160F JUMP JUMPDEST DUP3 ADD SWAP1 DUP3 DUP3 SUB SLT PUSH2 0x2F6 JUMPI PUSH2 0x6F8 SWAP2 PUSH2 0x18F9 JUMP JUMPDEST SWAP2 DUP5 DUP1 PUSH2 0x62D JUMP JUMPDEST POP RETURNDATASIZE PUSH2 0x6DA JUMP JUMPDEST POP POP REVERT JUMPDEST POP CALLVALUE PUSH2 0x186 JUMPI PUSH1 0x3 NOT DUP4 DUP2 CALLDATASIZE ADD SLT PUSH2 0x58D JUMPI PUSH2 0x725 PUSH2 0x1647 JUMP JUMPDEST SWAP2 DUP1 MLOAD SWAP3 PUSH2 0x732 DUP5 PUSH2 0x15C5 JUMP JUMPDEST PUSH7 0xB1A2BC2EC50000 DUP5 MSTORE PUSH1 0x20 SWAP3 PUSH3 0x6DDD0 DUP5 DUP7 ADD MSTORE PUSH1 0xFA DUP4 DUP7 ADD MSTORE PUSH1 0x60 SWAP5 PUSH1 0x2D DUP7 DUP3 ADD MSTORE PUSH2 0x75F DUP4 PUSH2 0x16A6 JUMP JUMPDEST MSTORE PUSH2 0x769 DUP3 PUSH2 0x16A6 JUMP JUMPDEST POP DUP3 MLOAD PUSH2 0x775 DUP2 PUSH2 0x15C5 JUMP JUMPDEST PUSH8 0x11C37937E080000 DUP2 MSTORE PUSH3 0x75300 DUP6 DUP3 ADD MSTORE PUSH2 0x118 DUP5 DUP3 ADD MSTORE PUSH1 0x34 DUP7 DUP3 ADD MSTORE PUSH2 0x79E DUP4 PUSH2 0x16C7 JUMP JUMPDEST MSTORE PUSH2 0x7A8 DUP3 PUSH2 0x16C7 JUMP JUMPDEST POP DUP3 MLOAD PUSH2 0x7B4 DUP2 PUSH2 0x15C5 JUMP JUMPDEST PUSH7 0x6A94D74F430000 DUP2 MSTORE PUSH3 0x668A0 DUP6 DUP3 ADD MSTORE PUSH1 0xC8 DUP5 DUP3 ADD MSTORE PUSH1 0x26 DUP7 DUP3 ADD MSTORE PUSH2 0x7DB DUP4 PUSH2 0x16D7 JUMP JUMPDEST MSTORE PUSH2 0x7E5 DUP3 PUSH2 0x16D7 JUMP JUMPDEST POP DUP3 MLOAD PUSH2 0x7F1 DUP2 PUSH2 0x15C5 JUMP JUMPDEST PUSH8 0x1AA535D3D0C0000 DUP2 MSTORE PUSH3 0x7C830 DUP6 DUP3 ADD MSTORE PUSH2 0x140 DUP5 DUP3 ADD MSTORE PUSH1 0x3C DUP7 DUP3 ADD MSTORE PUSH2 0x81A DUP4 PUSH2 0x16E7 JUMP JUMPDEST MSTORE PUSH2 0x824 DUP3 PUSH2 0x16E7 JUMP JUMPDEST POP DUP3 MLOAD PUSH2 0x830 DUP2 PUSH2 0x15C5 JUMP JUMPDEST PUSH7 0x470DE4DF820000 DUP2 MSTORE PUSH3 0x61A80 DUP6 DUP3 ADD MSTORE PUSH1 0x96 DUP5 DUP3 ADD MSTORE PUSH1 0x1E DUP7 DUP3 ADD MSTORE PUSH2 0x857 DUP4 PUSH2 0x16F7 JUMP JUMPDEST MSTORE PUSH2 0x861 DUP3 PUSH2 0x16F7 JUMP JUMPDEST POP DUP3 MLOAD SWAP5 PUSH2 0x86E DUP7 PUSH2 0x15C5 JUMP JUMPDEST PUSH1 0x3 DUP7 MSTORE DUP1 CALLDATASIZE DUP7 DUP9 ADD CALLDATACOPY PUSH1 0x64 PUSH2 0x883 DUP8 PUSH2 0x16A6 JUMP JUMPDEST MSTORE PUSH1 0xC8 PUSH2 0x88F DUP8 PUSH2 0x16C7 JUMP JUMPDEST MSTORE PUSH2 0x12C SWAP3 DUP4 PUSH2 0x89E DUP9 PUSH2 0x16D7 JUMP JUMPDEST MSTORE DUP5 MLOAD PUSH1 0x1 PUSH1 0x1 PUSH1 0x40 SHL SUB SWAP5 DUP4 DUP3 ADD DUP7 DUP2 GT DUP4 DUP3 LT OR PUSH2 0xA8B JUMPI DUP8 MSTORE PUSH1 0x2 DUP3 MSTORE DUP11 SWAP3 SWAP2 SWAP1 DUP8 CALLDATASIZE DUP11 DUP5 ADD CALLDATACOPY PUSH2 0x8D1 DUP3 PUSH2 0x16A6 JUMP JUMPDEST PUSH1 0xFA SWAP1 MSTORE PUSH2 0x8DE DUP3 PUSH2 0x16C7 JUMP JUMPDEST MSTORE DUP4 DUP4 DUP12 PUSH1 0x1 PUSH1 0xA0 SHL PUSH1 0x1 SWAP1 SUB DUP3 SLOAD AND SWAP4 DUP11 MLOAD SWAP9 DUP10 SWAP7 DUP8 SWAP6 DUP7 SWAP5 PUSH4 0x748E545B PUSH1 0xE1 SHL DUP7 MSTORE DUP6 ADD MSTORE PUSH1 0x64 DUP5 ADD PUSH2 0x912 SWAP2 PUSH2 0x1796 JUMP JUMPDEST SWAP14 PUSH1 0x24 SWAP15 DUP16 DUP4 DUP7 DUP4 SUB ADD SWAP1 DUP7 ADD MSTORE PUSH2 0x929 SWAP2 PUSH2 0x1A73 JUMP JUMPDEST SWAP1 DUP4 DUP3 SUB ADD PUSH1 0x44 DUP5 ADD MSTORE PUSH2 0x93C SWAP2 PUSH2 0x1A73 JUMP JUMPDEST SUB SWAP3 GAS CALL SWAP2 DUP3 ISZERO PUSH2 0xA81 JUMPI DUP9 SWAP3 PUSH2 0x996 JUMPI JUMPDEST POP POP PUSH1 0x6 SWAP2 POP MLOAD SUB PUSH2 0x95E JUMPI DUP5 DUP1 RETURN JUMPDEST MLOAD PUSH3 0x461BCD PUSH1 0xE5 SHL DUP2 MSTORE SWAP3 DUP4 ADD MSTORE PUSH1 0x16 SWAP1 DUP3 ADD MSTORE PUSH22 0x20B9B9B2B93A34B7B722B93937B91D1030901E9E9031 PUSH1 0x51 SHL PUSH1 0x44 DUP3 ADD MSTORE PUSH1 0x64 SWAP1 REVERT JUMPDEST SWAP1 SWAP2 POP RETURNDATASIZE DUP1 DUP10 DUP4 RETURNDATACOPY PUSH2 0x9A8 DUP2 DUP4 PUSH2 0x160F JUMP JUMPDEST DUP2 ADD SWAP1 DUP6 DUP2 DUP4 SUB SLT PUSH2 0x57B JUMPI DUP1 MLOAD SWAP1 DUP5 DUP3 GT PUSH2 0xA7D JUMPI ADD SWAP1 DUP1 PUSH1 0x1F DUP4 ADD SLT ISZERO PUSH2 0x57B JUMPI DUP2 MLOAD SWAP3 PUSH2 0x9D7 DUP5 PUSH2 0x1630 JUMP JUMPDEST SWAP5 PUSH2 0x9E4 DUP8 MLOAD SWAP7 DUP8 PUSH2 0x160F JUMP JUMPDEST DUP5 DUP7 MSTORE DUP8 DUP7 ADD SWAP3 DUP9 PUSH1 0xA0 DUP1 SWAP8 MUL DUP7 ADD ADD SWAP5 DUP2 DUP7 GT PUSH2 0xA79 JUMPI DUP10 ADD SWAP4 JUMPDEST DUP6 DUP6 LT PUSH2 0xA18 JUMPI POP POP POP POP POP POP POP PUSH1 0x6 SWAP1 PUSH0 DUP1 PUSH2 0x94E JUMP JUMPDEST DUP7 DUP6 DUP4 SUB SLT PUSH2 0xA79 JUMPI DUP9 MLOAD DUP8 DUP2 ADD DUP2 DUP2 LT DUP6 DUP3 GT OR PUSH2 0xA66 JUMPI DUP11 MSTORE DUP6 MLOAD DUP2 MSTORE DUP6 DUP12 ADD MLOAD DUP2 DUP13 ADD MSTORE DUP6 DUP11 ADD MLOAD DUP11 DUP3 ADD MSTORE DUP5 DUP7 ADD MLOAD DUP6 DUP3 ADD MSTORE PUSH1 0x80 DUP1 DUP8 ADD MLOAD SWAP1 DUP3 ADD MSTORE DUP2 MSTORE SWAP4 DUP7 ADD SWAP4 DUP10 ADD PUSH2 0xA00 JUMP JUMPDEST POP PUSH4 0x4E487B71 PUSH1 0xE0 SHL DUP15 MSTORE PUSH1 0x41 DUP14 MSTORE DUP12 DUP15 REVERT JUMPDEST DUP13 DUP1 REVERT JUMPDEST DUP10 DUP1 REVERT JUMPDEST DUP5 MLOAD RETURNDATASIZE DUP11 DUP3 RETURNDATACOPY RETURNDATASIZE SWAP1 REVERT JUMPDEST PUSH4 0x4E487B71 PUSH1 0xE0 SHL DUP13 MSTORE PUSH1 0x41 DUP12 MSTORE PUSH1 0x24 DUP13 REVERT JUMPDEST POP CALLVALUE PUSH2 0x186 JUMPI DUP3 PUSH1 0x3 NOT CALLDATASIZE ADD SLT PUSH2 0x186 JUMPI DUP1 MLOAD PUSH2 0xABA DUP2 PUSH2 0x15F4 JUMP JUMPDEST DUP4 DUP2 MSTORE DUP4 SLOAD DUP3 MLOAD PUSH4 0x69157423 PUSH1 0xE1 SHL DUP2 MSTORE PUSH1 0x20 DUP6 DUP3 ADD MSTORE SWAP2 PUSH2 0x100 SWAP2 DUP3 SWAP2 DUP5 SWAP2 PUSH1 0x1 PUSH1 0x1 PUSH1 0xA0 SHL SUB AND SWAP1 DUP3 SWAP1 DUP10 SWAP1 DUP3 SWAP1 PUSH2 0xAF8 SWAP1 PUSH1 0x24 DUP4 ADD SWAP1 PUSH2 0x1796 JUMP JUMPDEST SUB SWAP3 GAS CALL SWAP2 DUP3 PUSH2 0xB0D JUMPI JUMPDEST POP POP PUSH2 0x122 JUMPI DUP3 DUP1 RETURN JUMPDEST DUP2 PUSH2 0xB2C SWAP3 SWAP1 RETURNDATASIZE LT PUSH2 0xB34 JUMPI JUMPDEST PUSH2 0xB24 DUP2 DUP4 PUSH2 0x160F JUMP JUMPDEST DUP2 ADD SWAP1 PUSH2 0x171B JUMP JUMPDEST POP PUSH0 DUP1 PUSH2 0xB03 JUMP JUMPDEST POP RETURNDATASIZE PUSH2 0xB1A JUMP JUMPDEST POP CALLVALUE PUSH2 0x186 JUMPI DUP3 PUSH1 0x3 NOT CALLDATASIZE ADD SLT PUSH2 0x186 JUMPI DUP3 SLOAD DUP2 MLOAD PUSH4 0x212CC6E5 PUSH1 0xE1 SHL DUP2 MSTORE DUP4 DUP2 ADD DUP6 SWAP1 MSTORE PUSH1 0x9 PUSH1 0x24 DUP3 ADD MSTORE PUSH5 0xBA43B7400 PUSH1 0x44 DUP3 ADD MSTORE PUSH3 0x7A120 PUSH1 0x64 DUP3 ADD MSTORE PUSH8 0x8AC7230489E80000 PUSH1 0x84 DUP3 ADD MSTORE PUSH8 0x91B77E5E5D9A0000 PUSH1 0xA4 DUP3 ADD MSTORE PUSH1 0xA PUSH1 0xC4 DUP3 ADD MSTORE PUSH1 0x32 PUSH1 0xE4 DUP3 ADD MSTORE PUSH2 0x1C0 SWAP2 DUP3 SWAP1 DUP3 SWAP1 PUSH2 0x104 SWAP1 DUP3 SWAP1 DUP10 SWAP1 PUSH1 0x1 PUSH1 0x1 PUSH1 0xA0 SHL SUB AND GAS CALL SWAP2 DUP3 PUSH2 0xBD0 JUMPI POP POP PUSH2 0x122 JUMPI DUP3 DUP1 RETURN JUMPDEST DUP1 RETURNDATASIZE DUP3 GT PUSH2 0xBF7 JUMPI JUMPDEST PUSH2 0xBE3 DUP2 DUP5 PUSH2 0x160F JUMP JUMPDEST DUP3 ADD SWAP1 DUP3 DUP3 SUB SLT PUSH2 0x57F JUMPI PUSH2 0xB2C SWAP2 PUSH2 0x18F9 JUMP JUMPDEST POP RETURNDATASIZE PUSH2 0xBD9 JUMP JUMPDEST POP CALLVALUE PUSH2 0x186 JUMPI DUP3 PUSH1 0x3 NOT CALLDATASIZE ADD SLT PUSH2 0x186 JUMPI DUP3 SLOAD DUP2 MLOAD PUSH4 0x38A60BCD PUSH1 0xE1 SHL DUP2 MSTORE PUSH8 0xDE0B6B3A7640000 DUP5 DUP3 ADD DUP2 SWAP1 MSTORE PUSH8 0x8AC7230489E80000 PUSH1 0x24 DUP4 ADD MSTORE PUSH1 0x44 DUP3 ADD MSTORE PUSH8 0xE92596FD6290000 PUSH1 0x64 DUP3 ADD MSTORE PUSH1 0x9 PUSH1 0x84 DUP3 ADD MSTORE PUSH5 0xBA43B7400 PUSH1 0xA4 DUP3 ADD MSTORE PUSH3 0x7A120 PUSH1 0xC4 DUP3 ADD MSTORE PUSH1 0xA PUSH1 0xE4 DUP3 ADD MSTORE PUSH1 0x32 PUSH2 0x104 DUP3 ADD MSTORE PUSH2 0x200 SWAP2 DUP3 SWAP1 DUP3 SWAP1 PUSH2 0x124 SWAP1 DUP3 SWAP1 DUP10 SWAP1 PUSH1 0x1 PUSH1 0x1 PUSH1 0xA0 SHL SUB AND GAS CALL SWAP2 DUP3 ISZERO PUSH2 0x301 JUMPI SWAP2 DUP4 SWAP2 PUSH2 0x120 SWAP4 DUP8 SWAP3 PUSH2 0xCCD JUMPI JUMPDEST POP POP PUSH2 0xCB3 DUP2 MLOAD PUSH2 0x17E9 JUMP JUMPDEST PUSH2 0xCC0 PUSH1 0x20 DUP3 ADD MLOAD PUSH2 0x17E9 JUMP JUMPDEST ADD MLOAD ADD MLOAD ISZERO PUSH2 0x67F JUMPI DUP3 DUP1 RETURN JUMPDEST PUSH2 0xCEC SWAP3 POP DUP1 RETURNDATASIZE LT PUSH2 0xCF3 JUMPI JUMPDEST PUSH2 0xCE4 DUP2 DUP4 PUSH2 0x160F JUMP JUMPDEST DUP2 ADD SWAP1 PUSH2 0x19A4 JUMP JUMPDEST PUSH0 DUP1 PUSH2 0xCA7 JUMP JUMPDEST POP RETURNDATASIZE PUSH2 0xCDA JUMP JUMPDEST POP SWAP2 SWAP1 CALLVALUE PUSH2 0xE83 JUMPI DUP2 PUSH1 0x3 NOT CALLDATASIZE ADD SLT PUSH2 0xE83 JUMPI PUSH2 0xDBD SWAP1 DUP4 MLOAD SWAP4 PUSH2 0xD1D DUP6 PUSH2 0x15C5 JUMP JUMPDEST PUSH1 0x3 DUP6 MSTORE DUP4 PUSH1 0x20 SWAP6 PUSH1 0x60 CALLDATASIZE DUP9 DUP4 ADD CALLDATACOPY PUSH5 0x6FC23AC00 PUSH2 0xD3B DUP3 PUSH2 0x16A6 JUMP JUMPDEST MSTORE PUSH5 0xBA43B7400 PUSH2 0xD4B DUP3 PUSH2 0x16C7 JUMP JUMPDEST MSTORE PUSH5 0x174876E800 PUSH2 0xD5B DUP3 PUSH2 0x16D7 JUMP JUMPDEST MSTORE DUP3 MLOAD SWAP1 PUSH2 0xD68 DUP3 PUSH2 0x15C5 JUMP JUMPDEST PUSH1 0x3 DUP3 MSTORE PUSH1 0x60 CALLDATASIZE DUP10 DUP5 ADD CALLDATACOPY PUSH1 0x5 PUSH2 0xD7E DUP4 PUSH2 0x16A6 JUMP JUMPDEST MSTORE PUSH1 0x9 PUSH2 0xD8A DUP4 PUSH2 0x16C7 JUMP JUMPDEST MSTORE PUSH1 0xF PUSH2 0xD96 DUP4 PUSH2 0x16D7 JUMP JUMPDEST MSTORE PUSH1 0x1 DUP1 PUSH1 0xA0 SHL SUB DUP4 SLOAD AND SWAP1 DUP4 DUP6 MLOAD DUP1 SWAP9 DUP2 SWAP6 DUP3 SWAP5 PUSH4 0x5C5D15CD PUSH1 0xE0 SHL DUP5 MSTORE DUP11 DUP5 ADD PUSH2 0x1AA6 JUMP JUMPDEST SUB SWAP3 GAS CALL SWAP3 DUP4 ISZERO PUSH2 0xE79 JUMPI DUP5 SWAP4 PUSH2 0xE5D JUMPI JUMPDEST POP PUSH1 0x9 DUP4 MLOAD SUB PUSH2 0xE22 JUMPI POP POP DUP2 JUMPDEST DUP2 MLOAD DUP2 LT ISZERO PUSH2 0xE1E JUMPI DUP1 PUSH2 0xDFE PUSH2 0xDF7 PUSH2 0xE19 SWAP4 DUP6 PUSH2 0x1707 JUMP JUMPDEST MLOAD MLOAD PUSH2 0x17E9 JUMP JUMPDEST PUSH2 0xE14 DUP6 PUSH2 0xE0C DUP4 DUP7 PUSH2 0x1707 JUMP JUMPDEST MLOAD ADD MLOAD PUSH2 0x17E9 JUMP JUMPDEST PUSH2 0x182D JUMP JUMPDEST PUSH2 0xDDD JUMP JUMPDEST DUP3 DUP1 RETURN JUMPDEST MLOAD PUSH3 0x461BCD PUSH1 0xE5 SHL DUP2 MSTORE SWAP1 DUP2 ADD DUP5 SWAP1 MSTORE PUSH1 0x16 PUSH1 0x24 DUP3 ADD MSTORE PUSH22 0x20B9B9B2B93A34B7B722B93937B91D1030901E9E9031 PUSH1 0x51 SHL PUSH1 0x44 DUP3 ADD MSTORE PUSH1 0x64 SWAP1 REVERT JUMPDEST PUSH2 0xE72 SWAP2 SWAP4 POP RETURNDATASIZE DUP1 DUP7 DUP4 RETURNDATACOPY PUSH2 0x177 DUP2 DUP4 PUSH2 0x160F JUMP JUMPDEST SWAP2 PUSH0 PUSH2 0xDCF JUMP JUMPDEST DUP2 MLOAD RETURNDATASIZE DUP7 DUP3 RETURNDATACOPY RETURNDATASIZE SWAP1 REVERT JUMPDEST POP DUP1 REVERT JUMPDEST POP CALLVALUE PUSH2 0x186 JUMPI DUP3 PUSH1 0x3 NOT CALLDATASIZE ADD SLT PUSH2 0x186 JUMPI DUP3 SLOAD DUP2 MLOAD PUSH4 0x38A60BCD PUSH1 0xE1 SHL DUP2 MSTORE PUSH8 0x8AC7230489E80000 DUP5 DUP3 ADD MSTORE PUSH8 0xDE0B6B3A7640000 PUSH1 0x24 DUP3 ADD DUP2 SWAP1 MSTORE PUSH1 0x44 DUP3 ADD MSTORE PUSH8 0xE92596FD6290000 PUSH1 0x64 DUP3 ADD MSTORE PUSH1 0x9 PUSH1 0x84 DUP3 ADD MSTORE PUSH5 0xBA43B7400 PUSH1 0xA4 DUP3 ADD MSTORE PUSH3 0x7A120 PUSH1 0xC4 DUP3 ADD MSTORE PUSH1 0xA PUSH1 0xE4 DUP3 ADD MSTORE PUSH1 0x32 PUSH2 0x104 DUP3 ADD MSTORE SWAP1 PUSH2 0x200 SWAP1 DUP2 SWAP1 DUP4 SWAP1 PUSH2 0x124 SWAP1 DUP3 SWAP1 DUP10 SWAP1 PUSH1 0x1 PUSH1 0x1 PUSH1 0xA0 SHL SUB AND GAS CALL SWAP2 DUP3 PUSH2 0xF2C JUMPI POP POP PUSH2 0x122 JUMPI DUP3 DUP1 RETURN JUMPDEST DUP2 PUSH2 0xB2C SWAP3 SWAP1 RETURNDATASIZE LT PUSH2 0xCF3 JUMPI PUSH2 0xCE4 DUP2 DUP4 PUSH2 0x160F JUMP JUMPDEST POP DUP3 SWAP1 CALLVALUE PUSH2 0xE83 JUMPI DUP2 PUSH1 0x3 NOT CALLDATASIZE ADD SLT PUSH2 0xE83 JUMPI DUP1 MLOAD PUSH2 0x1C75 DUP1 DUP3 ADD SWAP1 DUP3 DUP3 LT PUSH1 0x1 PUSH1 0x1 PUSH1 0x40 SHL SUB DUP4 GT OR PUSH2 0xFAD JUMPI SWAP1 DUP3 SWAP2 PUSH2 0x1B02 DUP4 CODECOPY SUB SWAP1 DUP4 CREATE SWAP1 DUP2 ISZERO PUSH2 0xFA2 JUMPI POP DUP2 SLOAD PUSH1 0x1 PUSH1 0x1 PUSH1 0xA0 SHL SUB NOT AND PUSH1 0x1 PUSH1 0x1 PUSH1 0xA0 SHL SUB SWAP2 SWAP1 SWAP2 AND OR DUP2 SSTORE DUP1 RETURN JUMPDEST MLOAD SWAP2 RETURNDATASIZE SWAP2 POP DUP3 RETURNDATACOPY RETURNDATASIZE SWAP1 REVERT JUMPDEST PUSH4 0x4E487B71 PUSH1 0xE0 SHL DUP6 MSTORE PUSH1 0x41 DUP7 MSTORE PUSH1 0x24 DUP6 REVERT JUMPDEST POP CALLVALUE PUSH2 0x186 JUMPI DUP3 PUSH1 0x3 NOT CALLDATASIZE ADD SLT PUSH2 0x186 JUMPI DUP1 MLOAD PUSH1 0x1 PUSH1 0x1 PUSH1 0x40 SHL SUB SWAP3 PUSH2 0x160 DUP3 ADD DUP5 DUP2 GT DUP4 DUP3 LT OR PUSH2 0x1342 JUMPI DUP4 MSTORE PUSH1 0xA DUP1 DUP4 MSTORE DUP6 JUMPDEST PUSH2 0x140 DUP2 LT PUSH2 0x1315 JUMPI POP DUP6 JUMPDEST DUP2 DUP2 LT PUSH2 0x1213 JUMPI POP POP PUSH1 0x1 DUP1 PUSH1 0xA0 SHL SUB SWAP4 DUP6 DUP6 DUP2 SLOAD AND SWAP4 DUP6 MLOAD SWAP7 PUSH4 0x69157423 PUSH1 0xE1 SHL DUP9 MSTORE DUP8 PUSH1 0x20 SWAP7 DUP8 DUP8 DUP4 ADD MSTORE PUSH2 0x100 SWAP2 DUP3 SWAP2 DUP2 DUP8 DUP2 PUSH2 0x1044 PUSH1 0x24 DUP3 ADD DUP11 PUSH2 0x1796 JUMP JUMPDEST SUB SWAP3 GAS CALL SWAP1 DUP2 ISZERO PUSH2 0x1209 JUMPI PUSH2 0x10D4 SWAP10 DUP6 SWAP2 DUP3 SWAP4 PUSH2 0x11E7 JUMPI JUMPDEST POP POP PUSH1 0xE0 SWAP2 SWAP3 DUP2 SLOAD AND SWAP3 DUP10 MLOAD SWAP11 DUP12 SWAP6 DUP5 DUP8 SWAP6 SWAP4 PUSH4 0xB54DB8F DUP8 SWAP6 SHL DUP6 MSTORE DUP1 MLOAD DUP13 DUP7 ADD MSTORE DUP13 DUP2 ADD MLOAD PUSH1 0x24 DUP7 ADD MSTORE DUP14 DUP2 ADD MLOAD PUSH1 0x44 DUP7 ADD MSTORE PUSH1 0x60 DUP2 ADD MLOAD PUSH1 0x64 DUP7 ADD MSTORE PUSH1 0x80 DUP2 ADD MLOAD PUSH1 0x84 DUP7 ADD MSTORE PUSH1 0xA0 DUP2 ADD MLOAD PUSH1 0xA4 DUP7 ADD MSTORE PUSH1 0xC0 DUP2 ADD MLOAD PUSH1 0xC4 DUP7 ADD MSTORE ADD MLOAD PUSH1 0xE4 DUP5 ADD MSTORE PUSH2 0x120 PUSH2 0x104 DUP5 ADD MSTORE PUSH2 0x124 DUP4 ADD SWAP1 PUSH2 0x1796 JUMP JUMPDEST SUB SWAP3 GAS CALL SWAP5 DUP6 ISZERO PUSH2 0x11DD JUMPI DUP7 SWAP6 PUSH2 0x111C JUMPI JUMPDEST DUP7 PUSH2 0x67C PUSH1 0x80 DUP9 PUSH2 0x110F DUP10 PUSH2 0x1107 DUP11 PUSH2 0x10FF DUP6 MLOAD PUSH2 0x17E9 JUMP JUMPDEST DUP5 ADD MLOAD PUSH2 0x17E9 JUMP JUMPDEST DUP3 ADD MLOAD PUSH2 0x17E9 JUMP JUMPDEST PUSH2 0x675 PUSH1 0x60 DUP3 ADD MLOAD PUSH2 0x17E9 JUMP JUMPDEST SWAP2 SWAP5 POP SWAP3 RETURNDATASIZE DUP1 DUP8 DUP5 RETURNDATACOPY PUSH2 0x112F DUP2 DUP5 PUSH2 0x160F JUMP JUMPDEST DUP3 ADD SWAP2 DUP4 DUP2 DUP5 SUB SLT PUSH2 0x11C2 JUMPI DUP1 MLOAD SWAP1 DUP6 DUP3 GT PUSH2 0x11D9 JUMPI ADD SWAP4 PUSH1 0xC0 DUP6 DUP5 SUB SLT PUSH2 0x11C2 JUMPI DUP2 MLOAD SWAP6 PUSH1 0xC0 DUP8 ADD SWAP1 DUP8 DUP3 LT DUP4 DUP4 GT OR PUSH2 0x11C6 JUMPI POP DUP3 MSTORE DUP5 MLOAD DUP7 MSTORE DUP4 DUP6 ADD MLOAD DUP5 DUP8 ADD MSTORE DUP2 DUP6 ADD MLOAD DUP3 DUP8 ADD MSTORE PUSH1 0x60 DUP6 ADD MLOAD PUSH1 0x60 DUP8 ADD MSTORE PUSH1 0x80 DUP6 ADD MLOAD PUSH1 0x80 DUP8 ADD MSTORE PUSH1 0xA0 DUP6 ADD MLOAD SWAP1 DUP2 GT PUSH2 0x11C2 JUMPI PUSH2 0x67C SWAP6 PUSH2 0x11B3 PUSH2 0x110F SWAP5 PUSH2 0x1107 SWAP4 PUSH1 0x80 SWAP9 ADD PUSH2 0x184F JUMP JUMPDEST PUSH1 0xA0 DUP3 ADD MSTORE SWAP6 POP DUP2 SWAP5 POP PUSH2 0x10E6 JUMP JUMPDEST DUP7 DUP1 REVERT JUMPDEST PUSH4 0x4E487B71 PUSH1 0xE0 SHL DUP10 MSTORE PUSH1 0x41 SWAP1 MSTORE PUSH1 0x24 DUP9 REVERT JUMPDEST DUP8 DUP1 REVERT JUMPDEST DUP5 MLOAD RETURNDATASIZE DUP9 DUP3 RETURNDATACOPY RETURNDATASIZE SWAP1 REVERT JUMPDEST PUSH1 0xE0 SWAP4 POP SWAP1 DUP2 PUSH2 0x1202 SWAP3 SWAP1 RETURNDATASIZE LT PUSH2 0xB34 JUMPI PUSH2 0xB24 DUP2 DUP4 PUSH2 0x160F JUMP JUMPDEST SWAP2 PUSH0 PUSH2 0x105C JUMP JUMPDEST DUP9 MLOAD RETURNDATASIZE DUP7 DUP3 RETURNDATACOPY RETURNDATASIZE SWAP1 REVERT JUMPDEST PUSH7 0x2386F26FC10000 DUP1 DUP3 MUL SWAP1 DUP3 ISZERO SWAP1 DUP4 DUP4 DIV EQ DUP2 OR ISZERO PUSH2 0x1302 JUMPI PUSH7 0xB1A2BC2EC50000 SWAP2 DUP3 ADD DUP1 SWAP3 GT PUSH2 0x1302 JUMPI PUSH2 0x2710 DUP1 DUP5 MUL SWAP1 DUP5 DUP3 DIV EQ DUP3 OR ISZERO PUSH2 0x12EF JUMPI PUSH3 0x6DDD0 SWAP1 DUP2 ADD DUP1 SWAP2 GT PUSH2 0x12EF JUMPI DUP5 DUP5 MUL SWAP1 DUP5 DUP3 DIV DUP7 EQ DUP4 OR ISZERO PUSH2 0x12DC JUMPI PUSH1 0xFA SWAP2 DUP3 ADD DUP1 SWAP3 GT PUSH2 0x12DC JUMPI PUSH1 0x5 SWAP3 DUP4 DUP7 MUL SWAP4 DUP7 DUP6 DIV EQ OR ISZERO PUSH2 0x12DC JUMPI PUSH1 0x2D SWAP3 DUP4 ADD DUP1 SWAP4 GT PUSH2 0x12DC JUMPI SWAP1 PUSH2 0x12D7 SWAP5 SWAP4 SWAP3 SWAP2 DUP10 MLOAD SWAP4 PUSH2 0x12AC DUP6 PUSH2 0x15C5 JUMP JUMPDEST DUP5 MSTORE PUSH1 0x20 DUP5 ADD MSTORE DUP9 DUP4 ADD MSTORE PUSH1 0x60 DUP3 ADD MSTORE PUSH2 0x12C6 DUP3 DUP8 PUSH2 0x1707 JUMP JUMPDEST MSTORE PUSH2 0x12D1 DUP2 DUP7 PUSH2 0x1707 JUMP JUMPDEST POP PUSH2 0x182D JUMP JUMPDEST PUSH2 0x1001 JUMP JUMPDEST PUSH4 0x4E487B71 PUSH1 0xE0 SHL DUP12 MSTORE PUSH1 0x11 DUP8 MSTORE PUSH1 0x24 DUP12 REVERT JUMPDEST PUSH4 0x4E487B71 PUSH1 0xE0 SHL DUP11 MSTORE PUSH1 0x11 DUP7 MSTORE PUSH1 0x24 DUP11 REVERT JUMPDEST PUSH4 0x4E487B71 PUSH1 0xE0 SHL DUP10 MSTORE PUSH1 0x11 DUP6 MSTORE PUSH1 0x24 DUP10 REVERT JUMPDEST PUSH1 0x20 SWAP1 DUP6 MLOAD PUSH2 0x1323 DUP2 PUSH2 0x15C5 JUMP JUMPDEST DUP9 DUP2 MSTORE DUP3 DUP10 DUP2 DUP4 ADD MSTORE DUP10 DUP9 DUP4 ADD MSTORE DUP10 PUSH1 0x60 DUP4 ADD MSTORE DUP3 DUP8 ADD ADD MSTORE ADD PUSH2 0xFF5 JUMP JUMPDEST PUSH4 0x4E487B71 PUSH1 0xE0 SHL DUP7 MSTORE PUSH1 0x41 DUP3 MSTORE PUSH1 0x24 DUP7 REVERT JUMPDEST POP CALLVALUE PUSH2 0x186 JUMPI DUP3 PUSH1 0x3 NOT CALLDATASIZE ADD SLT PUSH2 0x186 JUMPI PUSH2 0x136E PUSH2 0x1647 JUMP JUMPDEST SWAP1 PUSH2 0x14DE DUP2 MLOAD PUSH2 0x137D DUP2 PUSH2 0x15C5 JUMP JUMPDEST PUSH7 0xB1A2BC2EC50000 DUP2 MSTORE PUSH1 0x20 SWAP4 PUSH3 0x6DDD0 DUP6 DUP4 ADD MSTORE PUSH1 0xFA DUP5 DUP4 ADD MSTORE PUSH1 0x60 SWAP2 PUSH1 0x2D DUP4 DUP3 ADD MSTORE PUSH2 0x13AA DUP3 PUSH2 0x16A6 JUMP JUMPDEST MSTORE PUSH2 0x13B4 DUP2 PUSH2 0x16A6 JUMP JUMPDEST POP DUP4 MLOAD PUSH2 0x13C0 DUP2 PUSH2 0x15C5 JUMP JUMPDEST PUSH8 0x11C37937E080000 DUP2 MSTORE PUSH3 0x75300 DUP7 DUP3 ADD MSTORE PUSH2 0x118 DUP6 DUP3 ADD MSTORE PUSH1 0x34 DUP4 DUP3 ADD MSTORE PUSH2 0x13E9 DUP3 PUSH2 0x16C7 JUMP JUMPDEST MSTORE PUSH2 0x13F3 DUP2 PUSH2 0x16C7 JUMP JUMPDEST POP DUP4 MLOAD PUSH2 0x13FF DUP2 PUSH2 0x15C5 JUMP JUMPDEST PUSH7 0x6A94D74F430000 DUP2 MSTORE PUSH3 0x668A0 DUP7 DUP3 ADD MSTORE PUSH1 0xC8 DUP6 DUP3 ADD MSTORE PUSH1 0x26 DUP4 DUP3 ADD MSTORE PUSH2 0x1426 DUP3 PUSH2 0x16D7 JUMP JUMPDEST MSTORE PUSH2 0x1430 DUP2 PUSH2 0x16D7 JUMP JUMPDEST POP DUP4 MLOAD PUSH2 0x143C DUP2 PUSH2 0x15C5 JUMP JUMPDEST PUSH8 0x1AA535D3D0C0000 DUP2 MSTORE PUSH3 0x7C830 DUP7 DUP3 ADD MSTORE PUSH2 0x140 DUP6 DUP3 ADD MSTORE PUSH1 0x3C DUP4 DUP3 ADD MSTORE PUSH2 0x1465 DUP3 PUSH2 0x16E7 JUMP JUMPDEST MSTORE PUSH2 0x146F DUP2 PUSH2 0x16E7 JUMP JUMPDEST POP DUP4 MLOAD PUSH2 0x147B DUP2 PUSH2 0x15C5 JUMP JUMPDEST PUSH7 0x470DE4DF820000 DUP2 MSTORE PUSH3 0x61A80 DUP7 DUP3 ADD MSTORE PUSH1 0x96 DUP6 DUP3 ADD MSTORE PUSH1 0x1E DUP4 DUP3 ADD MSTORE PUSH2 0x14A2 DUP3 PUSH2 0x16F7 JUMP JUMPDEST MSTORE PUSH2 0x14AC DUP2 PUSH2 0x16F7 JUMP JUMPDEST POP PUSH1 0x1 DUP1 PUSH1 0xA0 SHL SUB DUP8 SLOAD AND SWAP1 DUP5 MLOAD DUP1 SWAP3 PUSH4 0x69157423 PUSH1 0xE1 SHL DUP3 MSTORE DUP8 DUP10 DUP4 ADD MSTORE DUP2 DUP11 DUP2 PUSH2 0x100 SWAP9 DUP10 SWAP7 PUSH1 0x24 DUP4 ADD SWAP1 PUSH2 0x1796 JUMP JUMPDEST SUB SWAP3 GAS CALL SWAP3 DUP4 ISZERO PUSH2 0x15BB JUMPI DUP8 SWAP4 PUSH2 0x159C JUMPI JUMPDEST POP POP PUSH2 0x14FC DUP3 MLOAD PUSH2 0x17E9 JUMP JUMPDEST PUSH2 0x1509 PUSH1 0xA0 DUP4 ADD MLOAD PUSH2 0x17E9 JUMP JUMPDEST PUSH1 0x5 PUSH1 0xE0 DUP4 ADD MLOAD SUB PUSH2 0x1560 JUMPI PUSH1 0x80 DUP3 ADD MLOAD SWAP2 ADD MLOAD LT ISZERO PUSH2 0x1527 JUMPI DUP4 DUP1 RETURN JUMPDEST MLOAD PUSH3 0x461BCD PUSH1 0xE5 SHL DUP2 MSTORE SWAP2 DUP3 ADD MSTORE PUSH1 0x15 PUSH1 0x24 DUP3 ADD MSTORE PUSH21 0x20B9B9B2B93A34B7B722B93937B91D1030901F1031 PUSH1 0x59 SHL PUSH1 0x44 DUP3 ADD MSTORE PUSH1 0x64 SWAP2 POP REVERT JUMPDEST POP POP MLOAD PUSH3 0x461BCD PUSH1 0xE5 SHL DUP2 MSTORE SWAP2 DUP3 ADD MSTORE PUSH1 0x16 PUSH1 0x24 DUP3 ADD MSTORE PUSH22 0x20B9B9B2B93A34B7B722B93937B91D1030901E9E9031 PUSH1 0x51 SHL PUSH1 0x44 DUP3 ADD MSTORE PUSH1 0x64 SWAP2 POP REVERT JUMPDEST PUSH2 0x15B3 SWAP3 SWAP4 POP DUP1 RETURNDATASIZE LT PUSH2 0xB34 JUMPI PUSH2 0xB24 DUP2 DUP4 PUSH2 0x160F JUMP JUMPDEST SWAP1 PUSH0 DUP1 PUSH2 0x14F0 JUMP JUMPDEST DUP5 MLOAD RETURNDATASIZE DUP10 DUP3 RETURNDATACOPY RETURNDATASIZE SWAP1 REVERT JUMPDEST PUSH1 0x80 DUP2 ADD SWAP1 DUP2 LT PUSH1 0x1 PUSH1 0x1 PUSH1 0x40 SHL SUB DUP3 GT OR PUSH2 0x15E0 JUMPI PUSH1 0x40 MSTORE JUMP JUMPDEST PUSH4 0x4E487B71 PUSH1 0xE0 SHL PUSH0 MSTORE PUSH1 0x41 PUSH1 0x4 MSTORE PUSH1 0x24 PUSH0 REVERT JUMPDEST PUSH1 0x20 DUP2 ADD SWAP1 DUP2 LT PUSH1 0x1 PUSH1 0x1 PUSH1 0x40 SHL SUB DUP3 GT OR PUSH2 0x15E0 JUMPI PUSH1 0x40 MSTORE JUMP JUMPDEST SWAP1 PUSH1 0x1F DUP1 NOT SWAP2 ADD AND DUP2 ADD SWAP1 DUP2 LT PUSH1 0x1 PUSH1 0x1 PUSH1 0x40 SHL SUB DUP3 GT OR PUSH2 0x15E0 JUMPI PUSH1 0x40 MSTORE JUMP JUMPDEST PUSH1 0x1 PUSH1 0x1 PUSH1 0x40 SHL SUB DUP2 GT PUSH2 0x15E0 JUMPI PUSH1 0x5 SHL PUSH1 0x20 ADD SWAP1 JUMP JUMPDEST PUSH1 0x40 SWAP1 DUP2 MLOAD SWAP2 PUSH1 0xC0 DUP4 ADD DUP4 DUP2 LT PUSH1 0x1 PUSH1 0x1 PUSH1 0x40 SHL SUB DUP3 GT OR PUSH2 0x15E0 JUMPI DUP2 MSTORE PUSH1 0x5 DUP4 MSTORE DUP3 PUSH0 JUMPDEST PUSH1 0xA0 DUP2 LT PUSH2 0x1679 JUMPI POP POP POP JUMP JUMPDEST PUSH1 0x20 SWAP1 DUP4 MLOAD PUSH2 0x1687 DUP2 PUSH2 0x15C5 JUMP JUMPDEST PUSH0 DUP2 MSTORE DUP3 PUSH0 DUP2 DUP4 ADD MSTORE PUSH0 DUP7 DUP4 ADD MSTORE PUSH0 PUSH1 0x60 DUP4 ADD MSTORE DUP3 DUP6 ADD ADD MSTORE ADD PUSH2 0x166C JUMP JUMPDEST DUP1 MLOAD ISZERO PUSH2 0x16B3 JUMPI PUSH1 0x20 ADD SWAP1 JUMP JUMPDEST PUSH4 0x4E487B71 PUSH1 0xE0 SHL PUSH0 MSTORE PUSH1 0x32 PUSH1 0x4 MSTORE PUSH1 0x24 PUSH0 REVERT JUMPDEST DUP1 MLOAD PUSH1 0x1 LT ISZERO PUSH2 0x16B3 JUMPI PUSH1 0x40 ADD SWAP1 JUMP JUMPDEST DUP1 MLOAD PUSH1 0x2 LT ISZERO PUSH2 0x16B3 JUMPI PUSH1 0x60 ADD SWAP1 JUMP JUMPDEST DUP1 MLOAD PUSH1 0x3 LT ISZERO PUSH2 0x16B3 JUMPI PUSH1 0x80 ADD SWAP1 JUMP JUMPDEST DUP1 MLOAD PUSH1 0x4 LT ISZERO PUSH2 0x16B3 JUMPI PUSH1 0xA0 ADD SWAP1 JUMP JUMPDEST DUP1 MLOAD DUP3 LT ISZERO PUSH2 0x16B3 JUMPI PUSH1 0x20 SWAP2 PUSH1 0x5 SHL ADD ADD SWAP1 JUMP JUMPDEST DUP1 SWAP2 PUSH2 0x100 SWAP3 DUP4 SWAP2 SUB SLT PUSH2 0x1792 JUMPI PUSH1 0x40 MLOAD SWAP2 DUP3 ADD SWAP1 DUP3 DUP3 LT PUSH1 0x1 PUSH1 0x1 PUSH1 0x40 SHL SUB DUP4 GT OR PUSH2 0x15E0 JUMPI PUSH1 0xE0 SWAP2 PUSH1 0x40 MSTORE DUP1 MLOAD DUP4 MSTORE PUSH1 0x20 DUP2 ADD MLOAD PUSH1 0x20 DUP5 ADD MSTORE PUSH1 0x40 DUP2 ADD MLOAD PUSH1 0x40 DUP5 ADD MSTORE PUSH1 0x60 DUP2 ADD MLOAD PUSH1 0x60 DUP5 ADD MSTORE PUSH1 0x80 DUP2 ADD MLOAD PUSH1 0x80 DUP5 ADD MSTORE PUSH1 0xA0 DUP2 ADD MLOAD PUSH1 0xA0 DUP5 ADD MSTORE PUSH1 0xC0 DUP2 ADD MLOAD PUSH1 0xC0 DUP5 ADD MSTORE ADD MLOAD PUSH1 0xE0 DUP3 ADD MSTORE SWAP1 JUMP JUMPDEST PUSH0 DUP1 REVERT JUMPDEST SWAP1 DUP2 MLOAD DUP1 DUP3 MSTORE PUSH1 0x20 DUP1 DUP1 SWAP4 ADD SWAP4 ADD SWAP2 PUSH0 JUMPDEST DUP3 DUP2 LT PUSH2 0x17B5 JUMPI POP POP POP POP SWAP1 JUMP JUMPDEST DUP4 MLOAD DUP1 MLOAD DUP7 MSTORE DUP1 DUP4 ADD MLOAD DUP7 DUP5 ADD MSTORE PUSH1 0x40 DUP1 DUP3 ADD MLOAD SWAP1 DUP8 ADD MSTORE PUSH1 0x60 SWAP1 DUP2 ADD MLOAD SWAP1 DUP7 ADD MSTORE PUSH1 0x80 SWAP1 SWAP5 ADD SWAP4 SWAP3 DUP2 ADD SWAP3 PUSH1 0x1 ADD PUSH2 0x17A7 JUMP JUMPDEST ISZERO PUSH2 0x17F0 JUMPI JUMP JUMPDEST PUSH1 0x40 MLOAD PUSH3 0x461BCD PUSH1 0xE5 SHL DUP2 MSTORE PUSH1 0x20 PUSH1 0x4 DUP3 ADD MSTORE PUSH1 0x15 PUSH1 0x24 DUP3 ADD MSTORE PUSH21 0x20B9B9B2B93A34B7B722B93937B91D1030901F1031 PUSH1 0x59 SHL PUSH1 0x44 DUP3 ADD MSTORE PUSH1 0x64 SWAP1 REVERT JUMPDEST PUSH0 NOT DUP2 EQ PUSH2 0x183B JUMPI PUSH1 0x1 ADD SWAP1 JUMP JUMPDEST PUSH4 0x4E487B71 PUSH1 0xE0 SHL PUSH0 MSTORE PUSH1 0x11 PUSH1 0x4 MSTORE PUSH1 0x24 PUSH0 REVERT JUMPDEST SWAP2 SWAP1 DUP1 PUSH1 0x1F DUP5 ADD SLT ISZERO PUSH2 0x1792 JUMPI DUP3 MLOAD SWAP1 PUSH1 0x1 PUSH1 0x1 PUSH1 0x40 SHL SUB DUP3 GT PUSH2 0x15E0 JUMPI PUSH1 0x40 MLOAD SWAP2 PUSH1 0x20 SWAP2 PUSH2 0x1887 PUSH1 0x1F DUP4 ADD PUSH1 0x1F NOT AND DUP5 ADD DUP6 PUSH2 0x160F JUMP JUMPDEST DUP2 DUP5 MSTORE DUP3 DUP3 DUP8 ADD ADD GT PUSH2 0x1792 JUMPI PUSH0 JUMPDEST DUP2 DUP2 LT PUSH2 0x18AA JUMPI POP DUP3 PUSH0 SWAP4 SWAP5 SWAP6 POP ADD ADD MSTORE SWAP1 JUMP JUMPDEST DUP6 DUP2 ADD DUP4 ADD MLOAD DUP5 DUP3 ADD DUP5 ADD MSTORE DUP3 ADD PUSH2 0x1896 JUMP JUMPDEST SWAP2 SWAP1 DUP3 PUSH1 0x80 SWAP2 SUB SLT PUSH2 0x1792 JUMPI PUSH1 0x40 MLOAD PUSH2 0x18D5 DUP2 PUSH2 0x15C5 JUMP JUMPDEST PUSH1 0x60 DUP1 DUP3 SWAP5 DUP1 MLOAD DUP5 MSTORE PUSH1 0x20 DUP2 ADD MLOAD PUSH1 0x20 DUP6 ADD MSTORE PUSH1 0x40 DUP2 ADD MLOAD PUSH1 0x40 DUP6 ADD MSTORE ADD MLOAD SWAP2 ADD MSTORE JUMP JUMPDEST SWAP2 SWAP1 SWAP2 PUSH2 0x1C0 DUP2 DUP5 SUB SLT PUSH2 0x1792 JUMPI PUSH1 0x40 MLOAD SWAP1 PUSH2 0x160 DUP3 ADD DUP3 DUP2 LT PUSH1 0x1 PUSH1 0x1 PUSH1 0x40 SHL SUB DUP3 GT OR PUSH2 0x15E0 JUMPI PUSH1 0x40 MSTORE DUP2 SWAP4 DUP2 MLOAD DUP4 MSTORE PUSH1 0x20 DUP3 ADD MLOAD PUSH1 0x20 DUP5 ADD MSTORE PUSH1 0x40 DUP3 ADD MLOAD PUSH1 0x40 DUP5 ADD MSTORE PUSH1 0x60 DUP3 ADD MLOAD PUSH1 0x60 DUP5 ADD MSTORE PUSH1 0x80 DUP3 ADD MLOAD PUSH1 0x80 DUP5 ADD MSTORE PUSH1 0xA0 DUP3 ADD MLOAD PUSH1 0xA0 DUP5 ADD MSTORE PUSH1 0xC0 DUP3 ADD MLOAD PUSH1 0xC0 DUP5 ADD MSTORE PUSH1 0xE0 DUP3 ADD MLOAD PUSH1 0xE0 DUP5 ADD MSTORE PUSH2 0x100 DUP1 DUP4 ADD MLOAD SWAP1 DUP5 ADD MSTORE PUSH2 0x120 SWAP1 DUP2 DUP4 ADD MLOAD DUP1 ISZERO ISZERO DUP2 SUB PUSH2 0x1792 JUMPI PUSH2 0x199F SWAP3 DUP6 ADD MSTORE PUSH2 0x140 DUP1 SWAP4 ADD PUSH2 0x18BD JUMP JUMPDEST SWAP2 ADD MSTORE JUMP JUMPDEST PUSH2 0x200 DUP2 DUP4 SUB SLT PUSH2 0x1792 JUMPI PUSH1 0x40 MLOAD SWAP2 PUSH1 0x60 DUP4 ADD DUP4 DUP2 LT PUSH1 0x1 PUSH1 0x1 PUSH1 0x40 SHL SUB DUP3 GT OR PUSH2 0x15E0 JUMPI PUSH2 0x19E6 SWAP3 PUSH1 0x40 SWAP2 DUP3 MSTORE DUP1 MLOAD DUP6 MSTORE PUSH1 0x20 DUP2 ADD MLOAD PUSH1 0x20 DUP7 ADD MSTORE ADD PUSH2 0x18F9 JUMP JUMPDEST PUSH1 0x40 DUP3 ADD MSTORE SWAP1 JUMP JUMPDEST PUSH1 0x20 SWAP1 DUP2 DUP2 DUP5 SUB SLT PUSH2 0x1792 JUMPI DUP1 MLOAD SWAP1 PUSH1 0x1 PUSH1 0x1 PUSH1 0x40 SHL SUB DUP3 GT PUSH2 0x1792 JUMPI ADD SWAP1 DUP3 PUSH1 0x1F DUP4 ADD SLT ISZERO PUSH2 0x1792 JUMPI DUP2 MLOAD PUSH2 0x1A23 DUP2 PUSH2 0x1630 JUMP JUMPDEST SWAP4 PUSH2 0x1A31 PUSH1 0x40 MLOAD SWAP6 DUP7 PUSH2 0x160F JUMP JUMPDEST DUP2 DUP6 MSTORE DUP3 DUP1 DUP7 ADD SWAP3 PUSH1 0x7 SHL DUP6 ADD ADD SWAP4 DUP2 DUP6 GT PUSH2 0x1792 JUMPI DUP4 ADD SWAP2 JUMPDEST DUP5 DUP4 LT PUSH2 0x1A5A JUMPI POP POP POP POP POP SWAP1 JUMP JUMPDEST DUP4 PUSH1 0x80 SWAP2 PUSH2 0x1A68 DUP5 DUP7 PUSH2 0x18BD JUMP JUMPDEST DUP2 MSTORE ADD SWAP3 ADD SWAP2 PUSH2 0x1A4B JUMP JUMPDEST SWAP1 DUP2 MLOAD DUP1 DUP3 MSTORE PUSH1 0x20 DUP1 DUP1 SWAP4 ADD SWAP4 ADD SWAP2 PUSH0 JUMPDEST DUP3 DUP2 LT PUSH2 0x1A92 JUMPI POP POP POP POP SWAP1 JUMP JUMPDEST DUP4 MLOAD DUP6 MSTORE SWAP4 DUP2 ADD SWAP4 SWAP3 DUP2 ADD SWAP3 PUSH1 0x1 ADD PUSH2 0x1A84 JUMP JUMPDEST SWAP3 SWAP2 PUSH2 0x1AEC PUSH1 0xC0 SWAP2 PUSH2 0x1ADE PUSH1 0x32 SWAP5 PUSH8 0x16345785D8A0000 DUP9 MSTORE PUSH8 0x8AC7230489E80000 PUSH1 0x20 DUP10 ADD MSTORE PUSH1 0xE0 PUSH1 0x40 DUP10 ADD MSTORE PUSH1 0xE0 DUP9 ADD SWAP1 PUSH2 0x1A73 JUMP JUMPDEST SWAP1 DUP7 DUP3 SUB PUSH1 0x60 DUP9 ADD MSTORE PUSH2 0x1A73 JUMP JUMPDEST SWAP4 PUSH3 0x7A120 PUSH1 0x80 DUP3 ADD MSTORE PUSH1 0xA PUSH1 0xA0 DUP3 ADD MSTORE ADD MSTORE JUMP INVALID PUSH1 0x80 DUP1 PUSH1 0x40 MSTORE CALLVALUE PUSH2 0x16 JUMPI PUSH2 0x1C5A SWAP1 DUP2 PUSH2 0x1B DUP3 CODECOPY RETURN JUMPDEST PUSH0 DUP1 REVERT INVALID PUSH1 0x80 DUP1 PUSH1 0x40 MSTORE PUSH1 0x4 CALLDATASIZE LT ISZERO PUSH2 0x12 JUMPI PUSH0 DUP1 REVERT JUMPDEST PUSH0 CALLDATALOAD PUSH1 0xE0 SHR SWAP1 DUP2 PUSH4 0xB54DB8F EQ PUSH2 0x1031 JUMPI POP DUP1 PUSH4 0x248FC940 EQ PUSH2 0xDB9 JUMPI DUP1 PUSH4 0x42598DCA EQ PUSH2 0xB9E JUMPI DUP1 PUSH4 0x5C5D15CD EQ PUSH2 0x90F JUMPI DUP1 PUSH4 0x714C179A EQ PUSH2 0x6A7 JUMPI DUP1 PUSH4 0xD22AE846 EQ PUSH2 0x3F4 JUMPI PUSH4 0xE91CA8B6 EQ PUSH2 0x69 JUMPI PUSH0 DUP1 REVERT JUMPDEST CALLVALUE PUSH2 0x3F0 JUMPI PUSH1 0x60 CALLDATASIZE PUSH1 0x3 NOT ADD SLT PUSH2 0x3F0 JUMPI PUSH1 0x1 PUSH1 0x1 PUSH1 0x40 SHL SUB PUSH1 0x4 CALLDATALOAD DUP2 DUP2 GT PUSH2 0x3F0 JUMPI PUSH2 0x9A SWAP1 CALLDATASIZE SWAP1 PUSH1 0x4 ADD PUSH2 0x1289 JUMP JUMPDEST PUSH1 0x24 SWAP3 SWAP2 SWAP3 CALLDATALOAD DUP3 DUP2 GT PUSH2 0x3F0 JUMPI PUSH2 0xB5 SWAP1 CALLDATASIZE SWAP1 PUSH1 0x4 ADD PUSH2 0x12F7 JUMP JUMPDEST SWAP4 SWAP1 SWAP3 PUSH1 0x44 CALLDATALOAD SWAP1 DUP2 GT PUSH2 0x3F0 JUMPI PUSH2 0xD0 SWAP1 CALLDATASIZE SWAP1 PUSH1 0x4 ADD PUSH2 0x12F7 JUMP JUMPDEST SWAP2 SWAP1 SWAP4 DUP4 ISZERO PUSH2 0x3DE JUMPI DUP6 ISZERO DUP1 ISZERO PUSH2 0x3D6 JUMPI JUMPDEST PUSH2 0x3C4 JUMPI PUSH2 0xF2 DUP4 DUP8 SWAP7 SWAP8 PUSH2 0x14BF JUMP JUMPDEST SWAP4 PUSH2 0xFC DUP6 PUSH2 0x1629 JUMP JUMPDEST SWAP6 PUSH2 0x10A PUSH1 0x40 MLOAD SWAP8 DUP9 PUSH2 0x142A JUMP JUMPDEST DUP6 DUP8 MSTORE PUSH1 0x1F NOT PUSH2 0x119 DUP8 PUSH2 0x1629 JUMP JUMPDEST ADD PUSH0 JUMPDEST DUP2 DUP2 LT PUSH2 0x389 JUMPI POP POP PUSH0 SWAP1 PUSH0 SWAP9 PUSH0 JUMPDEST DUP3 DUP2 LT PUSH2 0x1C9 JUMPI DUP11 DUP11 PUSH32 0xCE02315FB96CBB0454E42D85A6B1D9CFE79538FC4B258C8E3B924B99BCD7A02A PUSH1 0x40 DUP13 DUP2 MLOAD SWAP1 DUP2 MSTORE PUSH1 0x20 SWAP5 DUP6 DUP3 ADD MSTORE LOG1 PUSH1 0x40 MLOAD SWAP1 DUP3 DUP3 ADD DUP4 DUP4 MSTORE DUP2 MLOAD DUP1 SWAP2 MSTORE DUP4 PUSH1 0x40 DUP5 ADD SWAP3 ADD SWAP4 PUSH0 JUMPDEST DUP3 DUP2 LT PUSH2 0x18B JUMPI DUP5 DUP5 SUB DUP6 RETURN JUMPDEST DUP6 MLOAD DUP1 MLOAD DUP6 MSTORE DUP1 DUP4 ADD MLOAD DUP6 DUP5 ADD MSTORE PUSH1 0x40 DUP1 DUP3 ADD MLOAD SWAP1 DUP7 ADD MSTORE PUSH1 0x60 DUP1 DUP3 ADD MLOAD SWAP1 DUP7 ADD MSTORE PUSH1 0x80 SWAP1 DUP2 ADD MLOAD SWAP1 DUP6 ADD MSTORE SWAP5 DUP2 ADD SWAP5 PUSH1 0xA0 SWAP1 SWAP4 ADD SWAP3 PUSH1 0x1 ADD PUSH2 0x17E JUMP JUMPDEST PUSH0 SWAP11 SWAP10 SWAP11 JUMPDEST DUP9 DUP2 LT PUSH2 0x1E7 JUMPI POP PUSH2 0x1DF SWAP1 PUSH2 0x144B JUMP JUMPDEST SWAP10 SWAP9 SWAP10 PUSH2 0x12B JUMP JUMPDEST SWAP4 PUSH0 DUP1 PUSH0 JUMPDEST DUP9 DUP2 LT PUSH2 0x2C1 JUMPI POP DUP14 DUP14 DUP4 ISZERO PUSH2 0x2B7 JUMPI POP POP PUSH2 0x2710 SWAP1 DUP1 DUP3 DUP2 MUL DIV DUP3 EQ DUP2 ISZERO OR ISZERO PUSH2 0x2A3 JUMPI DUP15 SWAP3 PUSH2 0x221 DUP16 SWAP4 DUP12 SWAP1 DUP5 MUL PUSH2 0x148A JUMP JUMPDEST SWAP3 JUMPDEST DUP4 GT PUSH2 0x299 JUMPI JUMPDEST SWAP4 PUSH2 0x28E SWAP4 DUP8 DUP3 SWAP5 DUP16 SWAP5 PUSH2 0x294 SWAP9 DUP16 DUP15 PUSH2 0x288 SWAP9 DUP16 DUP15 PUSH2 0x24D SWAP2 PUSH2 0x254 SWAP6 PUSH2 0x1640 JUMP JUMPDEST CALLDATALOAD SWAP7 PUSH2 0x1640 JUMP JUMPDEST CALLDATALOAD PUSH1 0x40 MLOAD SWAP5 PUSH2 0x262 DUP7 PUSH2 0x140F JUMP JUMPDEST DUP6 MSTORE PUSH1 0x20 DUP6 ADD MSTORE PUSH1 0x40 DUP5 ADD MSTORE PUSH1 0x60 DUP4 ADD MSTORE PUSH1 0x80 DUP3 ADD MSTORE PUSH2 0x282 DUP4 DUP4 PUSH2 0x1650 JUMP JUMPDEST MSTORE PUSH2 0x1650 JUMP JUMPDEST POP PUSH2 0x144B JUMP JUMPDEST SWAP5 PUSH2 0x144B JUMP JUMPDEST PUSH2 0x1CE JUMP JUMPDEST SWAP2 SWAP14 POP DUP14 SWAP2 PUSH2 0x22A JUMP JUMPDEST PUSH4 0x4E487B71 PUSH1 0xE0 SHL PUSH0 MSTORE PUSH1 0x11 PUSH1 0x4 MSTORE PUSH1 0x24 PUSH0 REVERT JUMPDEST SWAP2 SWAP1 SWAP3 PUSH0 SWAP3 PUSH2 0x223 JUMP JUMPDEST PUSH2 0x2CC DUP2 DUP11 DUP14 PUSH2 0x1459 JUMP JUMPDEST CALLDATALOAD ISZERO PUSH2 0x37B JUMPI PUSH2 0x2DD DUP2 DUP11 DUP14 PUSH2 0x1459 JUMP JUMPDEST CALLDATALOAD PUSH2 0x2710 DUP2 DUP2 DUP2 MUL DIV DUP2 EQ DUP3 ISZERO OR ISZERO PUSH2 0x2A3 JUMPI DUP13 SWAP2 DUP12 SWAP2 PUSH8 0xDE0B6B3A7640000 SWAP2 MUL DIV PUSH2 0x30B DUP9 DUP12 DUP16 PUSH2 0x1640 JUMP JUMPDEST CALLDATALOAD GT ISZERO DUP1 PUSH2 0x357 JUMPI JUMPDEST PUSH2 0x329 JUMPI JUMPDEST POP POP PUSH2 0x324 SWAP1 PUSH2 0x144B JUMP JUMPDEST PUSH2 0x1EC JUMP JUMPDEST SWAP3 PUSH2 0x346 DUP4 PUSH2 0x324 SWAP5 SWAP6 PUSH2 0x340 PUSH2 0x34D SWAP6 SWAP9 PUSH2 0x144B JUMP JUMPDEST SWAP8 PUSH2 0x1459 JUMP JUMPDEST CALLDATALOAD SWAP1 PUSH2 0x147D JUMP JUMPDEST SWAP2 SWAP1 POP DUP11 DUP10 PUSH2 0x319 JUMP JUMPDEST POP DUP14 PUSH2 0x373 DUP12 PUSH1 0x40 PUSH2 0x36A DUP8 DUP7 DUP9 PUSH2 0x1459 JUMP JUMPDEST ADD CALLDATALOAD SWAP3 DUP12 PUSH2 0x1640 JUMP JUMPDEST CALLDATALOAD LT ISZERO PUSH2 0x314 JUMP JUMPDEST DUP11 DUP10 PUSH0 PUSH2 0x30B DUP9 DUP12 DUP16 PUSH2 0x1640 JUMP JUMPDEST PUSH1 0x20 SWAP1 PUSH1 0x40 SWAP11 SWAP10 SWAP11 MLOAD PUSH2 0x39B DUP2 PUSH2 0x140F JUMP JUMPDEST PUSH0 DUP2 MSTORE DUP3 PUSH0 DUP2 DUP4 ADD MSTORE PUSH0 PUSH1 0x40 DUP4 ADD MSTORE PUSH0 PUSH1 0x60 DUP4 ADD MSTORE PUSH0 PUSH1 0x80 DUP4 ADD MSTORE DUP3 DUP14 ADD ADD MSTORE ADD SWAP9 SWAP8 SWAP9 PUSH2 0x11C JUMP JUMPDEST PUSH1 0x40 MLOAD PUSH4 0xB4FA3FB3 PUSH1 0xE0 SHL DUP2 MSTORE PUSH1 0x4 SWAP1 REVERT JUMPDEST POP DUP3 ISZERO PUSH2 0xE2 JUMP JUMPDEST PUSH1 0x40 MLOAD PUSH4 0x7BFBC40B PUSH1 0xE1 SHL DUP2 MSTORE PUSH1 0x4 SWAP1 REVERT JUMPDEST PUSH0 DUP1 REVERT JUMPDEST CALLVALUE PUSH2 0x3F0 JUMPI PUSH1 0x20 CALLDATASIZE PUSH1 0x3 NOT ADD SLT PUSH2 0x3F0 JUMPI PUSH1 0x4 CALLDATALOAD PUSH1 0x1 PUSH1 0x1 PUSH1 0x40 SHL SUB DUP2 GT PUSH2 0x3F0 JUMPI PUSH2 0x424 SWAP1 CALLDATASIZE SWAP1 PUSH1 0x4 ADD PUSH2 0x1289 JUMP JUMPDEST PUSH1 0x40 MLOAD PUSH2 0x100 DUP2 ADD DUP2 DUP2 LT PUSH1 0x1 PUSH1 0x1 PUSH1 0x40 SHL SUB DUP3 GT OR PUSH2 0x5B6 JUMPI PUSH0 SWAP2 PUSH1 0xE0 SWAP2 PUSH1 0x40 MSTORE DUP3 DUP2 MSTORE DUP3 PUSH1 0x20 DUP3 ADD MSTORE DUP3 PUSH1 0x40 DUP3 ADD MSTORE DUP3 PUSH1 0x60 DUP3 ADD MSTORE DUP3 PUSH1 0x80 DUP3 ADD MSTORE DUP3 PUSH1 0xA0 DUP3 ADD MSTORE DUP3 PUSH1 0xC0 DUP3 ADD MSTORE ADD MSTORE DUP1 ISZERO PUSH2 0x3DE JUMPI PUSH2 0x3E8 DUP2 GT PUSH2 0x3C4 JUMPI PUSH0 SWAP1 DUP2 PUSH0 NOT DUP2 DUP1 DUP1 JUMPDEST DUP6 DUP2 LT PUSH2 0x5FA JUMPI POP DUP5 PUSH2 0x4B0 PUSH2 0x4AA DUP3 PUSH2 0x4A4 DUP2 PUSH2 0x4B5 SWAP7 PUSH2 0x148A JUMP JUMPDEST SWAP10 PUSH2 0x148A JUMP JUMPDEST SWAP6 PUSH2 0x14A8 JUMP JUMPDEST PUSH2 0x148A JUMP JUMPDEST SWAP2 PUSH2 0x4BF DUP6 PUSH2 0x1664 JUMP JUMPDEST DUP7 DUP7 PUSH0 JUMPDEST DUP2 DUP2 LT PUSH2 0x5D0 JUMPI POP PUSH2 0x4EB PUSH2 0x4E6 DUP5 PUSH0 PUSH2 0x4E0 PUSH2 0x4F1 SWAP8 MLOAD PUSH2 0x1696 JUMP JUMPDEST SWAP2 PUSH2 0x16C3 JUMP JUMPDEST PUSH2 0x17D7 JUMP JUMPDEST SWAP10 PUSH2 0x183A JUMP JUMPDEST SWAP1 DUP6 PUSH32 0xCFE57E905AB17A85E457E7DEECC108449D49CDD26719290C306542B53B0EC366 PUSH1 0x40 DUP1 MLOAD DUP11 DUP2 MSTORE DUP8 PUSH1 0x20 DUP3 ADD MSTORE LOG2 PUSH0 NOT DUP2 SUB PUSH2 0x5CA JUMPI POP PUSH0 SWAP1 JUMPDEST PUSH1 0x40 MLOAD SWAP8 PUSH2 0x100 DUP10 ADD DUP10 DUP2 LT PUSH1 0x1 PUSH1 0x1 PUSH1 0x40 SHL SUB DUP3 GT OR PUSH2 0x5B6 JUMPI PUSH2 0x100 SWAP10 PUSH1 0xE0 SWAP2 PUSH1 0x40 MSTORE DUP10 DUP2 MSTORE PUSH1 0x20 DUP2 ADD SWAP3 DUP4 MSTORE PUSH1 0x40 DUP2 ADD SWAP4 DUP5 MSTORE PUSH1 0x60 DUP2 ADD SWAP5 DUP6 MSTORE PUSH1 0x80 DUP2 ADD SWAP6 DUP7 MSTORE PUSH1 0xA0 DUP2 ADD SWAP7 DUP8 MSTORE PUSH1 0xC0 DUP2 ADD SWAP8 DUP9 MSTORE ADD SWAP7 DUP8 MSTORE PUSH1 0x40 MLOAD SWAP8 DUP9 MSTORE MLOAD PUSH1 0x20 DUP9 ADD MSTORE MLOAD PUSH1 0x40 DUP8 ADD MSTORE MLOAD PUSH1 0x60 DUP7 ADD MSTORE MLOAD PUSH1 0x80 DUP6 ADD MSTORE MLOAD PUSH1 0xA0 DUP5 ADD MSTORE MLOAD PUSH1 0xC0 DUP4 ADD MSTORE MLOAD PUSH1 0xE0 DUP3 ADD MSTORE RETURN JUMPDEST PUSH4 0x4E487B71 PUSH1 0xE0 SHL PUSH0 MSTORE PUSH1 0x41 PUSH1 0x4 MSTORE PUSH1 0x24 PUSH0 REVERT JUMPDEST SWAP1 PUSH2 0x52E JUMP JUMPDEST SWAP1 PUSH2 0x5F2 SWAP3 POP DUP2 PUSH2 0x5E1 SWAP2 DUP13 PUSH2 0x1459 JUMP JUMPDEST CALLDATALOAD PUSH2 0x5EC DUP3 DUP6 PUSH2 0x1650 JUMP JUMPDEST MSTORE PUSH2 0x144B JUMP JUMPDEST DUP7 DUP9 SWAP2 PUSH2 0x4C3 JUMP JUMPDEST SWAP6 SWAP1 PUSH2 0x60E PUSH2 0x624 SWAP2 PUSH2 0x346 DUP10 DUP10 DUP13 PUSH2 0x1459 JUMP JUMPDEST SWAP2 PUSH1 0x20 PUSH2 0x61C DUP10 DUP10 DUP13 PUSH2 0x1459 JUMP JUMPDEST ADD CALLDATALOAD SWAP1 PUSH2 0x147D JUMP JUMPDEST SWAP6 PUSH2 0x630 DUP2 DUP8 DUP11 PUSH2 0x1459 JUMP JUMPDEST CALLDATALOAD PUSH2 0x697 JUMPI JUMPDEST DUP4 PUSH2 0x642 DUP3 DUP9 DUP12 PUSH2 0x1459 JUMP JUMPDEST CALLDATALOAD LT PUSH2 0x683 JUMPI JUMPDEST DUP3 PUSH2 0x655 DUP3 DUP9 DUP12 PUSH2 0x1459 JUMP JUMPDEST CALLDATALOAD GT PUSH2 0x66A JUMPI JUMPDEST PUSH2 0x665 SWAP1 PUSH2 0x144B JUMP JUMPDEST PUSH2 0x487 JUMP JUMPDEST SWAP2 POP PUSH2 0x665 PUSH2 0x67A DUP4 DUP8 DUP11 PUSH2 0x1459 JUMP JUMPDEST CALLDATALOAD SWAP3 SWAP1 POP PUSH2 0x65C JUMP JUMPDEST SWAP3 POP PUSH2 0x690 DUP4 DUP7 DUP10 PUSH2 0x1459 JUMP JUMPDEST CALLDATALOAD SWAP3 PUSH2 0x649 JUMP JUMPDEST SWAP4 PUSH2 0x6A1 SWAP1 PUSH2 0x144B JUMP JUMPDEST SWAP4 PUSH2 0x636 JUMP JUMPDEST CALLVALUE PUSH2 0x3F0 JUMPI PUSH2 0x120 CALLDATASIZE PUSH1 0x3 NOT ADD SLT PUSH2 0x3F0 JUMPI PUSH1 0x4 CALLDATALOAD PUSH1 0x24 CALLDATALOAD SWAP1 PUSH1 0x44 CALLDATALOAD PUSH1 0x64 CALLDATALOAD SWAP3 PUSH1 0x84 CALLDATALOAD PUSH1 0xA4 CALLDATALOAD SWAP3 PUSH1 0xC4 CALLDATALOAD SWAP1 PUSH1 0xE4 CALLDATALOAD SWAP7 PUSH2 0x104 CALLDATALOAD SWAP2 PUSH1 0x40 MLOAD PUSH2 0x6E7 DUP2 PUSH2 0x13F4 JUMP JUMPDEST PUSH0 DUP2 MSTORE PUSH0 PUSH1 0x20 DUP3 ADD MSTORE PUSH1 0x40 PUSH2 0x6FA PUSH2 0x1503 JUMP JUMPDEST SWAP2 ADD MSTORE DUP8 ISZERO DUP1 ISZERO PUSH2 0x907 JUMPI JUMPDEST PUSH2 0x3C4 JUMPI DUP6 DUP9 GT PUSH2 0x3C4 JUMPI DUP1 ISZERO PUSH2 0x3C4 JUMPI DUP2 ISZERO PUSH2 0x3C4 JUMPI PUSH0 SWAP6 DUP9 SWAP5 SWAP4 SWAP3 SWAP2 SWAP1 DUP6 JUMPDEST DUP2 DUP2 GT ISZERO PUSH2 0x82B JUMPI POP POP POP SWAP1 PUSH8 0xDE0B6B3A7640000 PUSH2 0x749 PUSH2 0x79F SWAP4 DUP7 PUSH2 0x14BF JUMP JUMPDEST DIV SWAP9 PUSH1 0x40 MLOAD SWAP10 DUP11 SWAP6 DUP7 SWAP6 PUSH4 0x212CC6E5 PUSH1 0xE1 SHL DUP8 MSTORE PUSH2 0x1C0 SWAP11 DUP12 SWAP10 DUP4 PUSH1 0x4 DUP11 ADD SWAP5 SWAP2 SWAP3 PUSH1 0xE0 SWAP7 SWAP4 SWAP10 SWAP9 SWAP8 SWAP5 SWAP2 SWAP10 PUSH2 0x100 DUP8 ADD SWAP11 DUP8 MSTORE PUSH1 0x20 DUP8 ADD MSTORE PUSH1 0x40 DUP7 ADD MSTORE PUSH1 0x60 DUP6 ADD MSTORE PUSH1 0x80 DUP5 ADD MSTORE PUSH1 0xA0 DUP4 ADD MSTORE PUSH1 0xC0 DUP3 ADD MSTORE ADD MSTORE JUMP JUMPDEST SUB DUP2 PUSH0 ADDRESS GAS CALL SWAP1 DUP2 ISZERO PUSH2 0x820 JUMPI PUSH2 0x200 SWAP5 PUSH2 0x7EF SWAP4 PUSH0 SWAP4 PUSH2 0x7F1 JUMPI JUMPDEST POP POP PUSH1 0x40 DUP1 MLOAD PUSH2 0x7CA DUP2 PUSH2 0x13F4 JUMP JUMPDEST DUP6 DUP2 MSTORE PUSH1 0x20 DUP2 ADD SWAP3 DUP4 MSTORE ADD SWAP2 DUP3 MSTORE PUSH1 0x40 MLOAD SWAP4 DUP5 MSTORE MLOAD PUSH1 0x20 DUP5 ADD MSTORE MLOAD PUSH1 0x40 DUP4 ADD SWAP1 PUSH2 0x1327 JUMP JUMPDEST RETURN JUMPDEST PUSH2 0x811 SWAP3 SWAP4 POP DUP1 RETURNDATASIZE LT PUSH2 0x819 JUMPI JUMPDEST PUSH2 0x809 DUP2 DUP4 PUSH2 0x142A JUMP JUMPDEST DUP2 ADD SWAP1 PUSH2 0x155C JUMP JUMPDEST SWAP1 DUP6 DUP1 PUSH2 0x7BB JUMP JUMPDEST POP RETURNDATASIZE PUSH2 0x7FF JUMP JUMPDEST PUSH1 0x40 MLOAD RETURNDATASIZE PUSH0 DUP3 RETURNDATACOPY RETURNDATASIZE SWAP1 REVERT JUMPDEST SWAP1 SWAP2 SWAP3 SWAP4 SWAP5 SWAP6 POP DUP9 DUP12 DUP9 DUP4 DUP10 PUSH2 0x8A4 DUP11 PUSH8 0xDE0B6B3A7640000 PUSH2 0x84E DUP13 DUP7 PUSH2 0x14BF JUMP JUMPDEST DIV SWAP6 PUSH1 0x40 MLOAD SWAP7 DUP8 SWAP6 DUP7 SWAP6 PUSH4 0x212CC6E5 PUSH1 0xE1 SHL DUP8 MSTORE PUSH2 0x1C0 SWAP11 DUP12 SWAP10 DUP4 PUSH1 0x4 DUP11 ADD SWAP5 SWAP2 SWAP3 PUSH1 0xE0 SWAP7 SWAP4 SWAP10 SWAP9 SWAP8 SWAP5 SWAP2 SWAP10 PUSH2 0x100 DUP8 ADD SWAP11 DUP8 MSTORE PUSH1 0x20 DUP8 ADD MSTORE PUSH1 0x40 DUP7 ADD MSTORE PUSH1 0x60 DUP6 ADD MSTORE PUSH1 0x80 DUP5 ADD MSTORE PUSH1 0xA0 DUP4 ADD MSTORE PUSH1 0xC0 DUP3 ADD MSTORE ADD MSTORE JUMP JUMPDEST SUB DUP2 PUSH0 ADDRESS GAS CALL SWAP1 DUP2 ISZERO PUSH2 0x820 JUMPI PUSH1 0xE0 SWAP3 PUSH0 SWAP3 PUSH2 0x8EA JUMPI JUMPDEST POP POP ADD MLOAD DUP9 DUP2 GT PUSH2 0x8DE JUMPI JUMPDEST POP DUP3 PUSH2 0x8D2 SWAP2 PUSH2 0x147D JUMP JUMPDEST SWAP1 DUP10 SWAP6 SWAP5 SWAP4 SWAP3 SWAP2 PUSH2 0x727 JUMP JUMPDEST SWAP1 SWAP10 POP SWAP7 POP DUP9 DUP3 PUSH2 0x8C7 JUMP JUMPDEST PUSH2 0x900 SWAP3 POP DUP1 RETURNDATASIZE LT PUSH2 0x819 JUMPI PUSH2 0x809 DUP2 DUP4 PUSH2 0x142A JUMP JUMPDEST DUP14 DUP1 PUSH2 0x8BB JUMP JUMPDEST POP DUP6 ISZERO PUSH2 0x706 JUMP JUMPDEST CALLVALUE PUSH2 0x3F0 JUMPI PUSH1 0xE0 CALLDATASIZE PUSH1 0x3 NOT ADD SLT PUSH2 0x3F0 JUMPI PUSH1 0x1 PUSH1 0x1 PUSH1 0x40 SHL SUB PUSH1 0x44 CALLDATALOAD DUP2 DUP2 GT PUSH2 0x3F0 JUMPI PUSH2 0x940 SWAP1 CALLDATASIZE SWAP1 PUSH1 0x4 ADD PUSH2 0x12F7 JUMP JUMPDEST SWAP2 PUSH1 0x64 CALLDATALOAD SWAP1 DUP2 GT PUSH2 0x3F0 JUMPI PUSH2 0x959 SWAP1 CALLDATASIZE SWAP1 PUSH1 0x4 ADD PUSH2 0x12F7 JUMP JUMPDEST DUP4 SWAP3 SWAP2 SWAP3 ISZERO DUP1 ISZERO PUSH2 0xB96 JUMPI JUMPDEST PUSH2 0x3C4 JUMPI PUSH2 0x973 DUP2 DUP6 PUSH2 0x14BF JUMP JUMPDEST SWAP3 PUSH2 0x97D DUP5 PUSH2 0x1629 JUMP JUMPDEST SWAP5 PUSH2 0x98B PUSH1 0x40 MLOAD SWAP7 DUP8 PUSH2 0x142A JUMP JUMPDEST DUP5 DUP7 MSTORE PUSH1 0x1F NOT PUSH2 0x99A DUP7 PUSH2 0x1629 JUMP JUMPDEST ADD PUSH0 JUMPDEST DUP2 DUP2 LT PUSH2 0xB7F JUMPI POP POP PUSH0 DUP1 JUMPDEST DUP3 DUP2 LT PUSH2 0xA45 JUMPI DUP7 DUP9 PUSH1 0x40 MLOAD SWAP2 DUP3 MSTORE PUSH32 0x2218B4FCF560DD36C548FB0AC486B85C68763A82FFF0CAFE334E2F44BE6F3E50 PUSH1 0x20 DUP1 SWAP4 LOG1 PUSH1 0x40 MLOAD SWAP1 DUP3 DUP3 ADD DUP4 DUP4 MSTORE DUP2 MLOAD DUP1 SWAP2 MSTORE DUP4 PUSH1 0x40 DUP5 ADD SWAP3 ADD SWAP4 PUSH0 JUMPDEST DUP3 DUP2 LT PUSH2 0xA04 JUMPI DUP5 DUP5 SUB DUP6 RETURN JUMPDEST SWAP1 SWAP2 SWAP3 DUP3 PUSH1 0x80 DUP3 PUSH2 0xA36 PUSH1 0x1 SWAP5 DUP11 MLOAD PUSH1 0x60 DUP1 SWAP2 DUP1 MLOAD DUP5 MSTORE PUSH1 0x20 DUP2 ADD MLOAD PUSH1 0x20 DUP6 ADD MSTORE PUSH1 0x40 DUP2 ADD MLOAD PUSH1 0x40 DUP6 ADD MSTORE ADD MLOAD SWAP2 ADD MSTORE JUMP JUMPDEST ADD SWAP7 ADD SWAP2 ADD SWAP5 SWAP3 SWAP2 SWAP1 SWAP5 PUSH2 0x9F7 JUMP JUMPDEST PUSH0 JUMPDEST DUP6 DUP2 LT PUSH2 0xA5D JUMPI POP PUSH2 0xA58 SWAP1 PUSH2 0x144B JUMP JUMPDEST PUSH2 0x9A9 JUMP JUMPDEST SWAP2 PUSH2 0xAC9 PUSH2 0xA78 PUSH1 0x84 CALLDATALOAD PUSH2 0xA72 DUP6 DUP9 DUP13 PUSH2 0x1640 JUMP JUMPDEST CALLDATALOAD PUSH2 0x14BF JUMP JUMPDEST PUSH2 0xAC4 PUSH2 0x2710 PUSH2 0xA95 PUSH2 0xA8C DUP9 DUP13 DUP13 PUSH2 0x1640 JUMP JUMPDEST CALLDATALOAD PUSH1 0x24 CALLDATALOAD PUSH2 0x14BF JUMP JUMPDEST DIV PUSH2 0xAC4 PUSH2 0x2710 PUSH2 0xAAA PUSH1 0xA4 CALLDATALOAD PUSH1 0x24 CALLDATALOAD PUSH2 0x14BF JUMP JUMPDEST DIV SWAP2 PUSH2 0x2710 PUSH2 0xABD PUSH1 0xC4 CALLDATALOAD PUSH1 0x24 CALLDATALOAD PUSH2 0x14BF JUMP JUMPDEST DIV SWAP5 PUSH2 0x147D JUMP JUMPDEST PUSH2 0x147D JUMP JUMPDEST DUP1 PUSH1 0x4 CALLDATALOAD GT PUSH0 EQ PUSH2 0xB78 JUMPI PUSH2 0xAE0 SWAP1 PUSH1 0x4 CALLDATALOAD PUSH2 0x14D2 JUMP JUMPDEST PUSH1 0x24 CALLDATALOAD ISZERO PUSH2 0xB6A JUMPI DUP1 PUSH2 0x2710 DUP2 MUL DIV PUSH2 0x2710 EQ DUP2 ISZERO OR ISZERO PUSH2 0x2A3 JUMPI PUSH2 0xB65 SWAP2 PUSH2 0xB5F SWAP2 PUSH2 0xB13 PUSH1 0x24 CALLDATALOAD PUSH2 0x2710 DUP4 MUL PUSH2 0x148A JUMP JUMPDEST PUSH2 0xB1E DUP7 DUP10 DUP14 PUSH2 0x1640 JUMP JUMPDEST CALLDATALOAD SWAP2 PUSH2 0xB2B DUP9 DUP13 DUP13 PUSH2 0x1640 JUMP JUMPDEST CALLDATALOAD PUSH1 0x40 MLOAD SWAP4 PUSH2 0xB39 DUP6 PUSH2 0x13D9 JUMP JUMPDEST DUP5 MSTORE PUSH1 0x20 DUP5 ADD MSTORE PUSH1 0x40 DUP4 ADD MSTORE PUSH1 0x60 DUP3 ADD MSTORE PUSH2 0xB54 DUP3 DUP14 PUSH2 0x1650 JUMP JUMPDEST MSTORE PUSH2 0x288 DUP2 DUP13 PUSH2 0x1650 JUMP JUMPDEST SWAP3 PUSH2 0x144B JUMP JUMPDEST PUSH2 0xA47 JUMP JUMPDEST PUSH2 0xB65 SWAP2 PUSH2 0xB5F SWAP2 PUSH0 PUSH2 0xB13 JUMP JUMPDEST POP PUSH0 PUSH2 0xAE0 JUMP JUMPDEST PUSH1 0x20 SWAP1 PUSH2 0xB8A PUSH2 0x14DF JUMP JUMPDEST DUP3 DUP3 DUP12 ADD ADD MSTORE ADD PUSH2 0x99D JUMP JUMPDEST POP DUP1 ISZERO PUSH2 0x965 JUMP JUMPDEST CALLVALUE PUSH2 0x3F0 JUMPI PUSH2 0x100 CALLDATASIZE PUSH1 0x3 NOT ADD SLT PUSH2 0x3F0 JUMPI PUSH1 0xA4 CALLDATALOAD PUSH1 0x4 CALLDATALOAD PUSH2 0xBBE PUSH2 0x1503 JUMP JUMPDEST POP DUP1 ISZERO PUSH2 0x3C4 JUMPI PUSH1 0x84 CALLDATALOAD ISZERO DUP1 ISZERO PUSH2 0xDB1 JUMPI JUMPDEST PUSH2 0x3C4 JUMPI PUSH2 0x2710 PUSH2 0xBE3 PUSH1 0x24 CALLDATALOAD DUP4 PUSH2 0x14BF JUMP JUMPDEST DIV PUSH2 0xBF2 PUSH1 0x64 CALLDATALOAD PUSH1 0x44 CALLDATALOAD PUSH2 0x14BF JUMP JUMPDEST SWAP1 PUSH2 0x2710 PUSH2 0xC02 PUSH1 0xC4 CALLDATALOAD DUP6 PUSH2 0x14BF JUMP JUMPDEST DIV PUSH2 0x2710 PUSH2 0xC12 PUSH1 0xE4 CALLDATALOAD DUP7 PUSH2 0x14BF JUMP JUMPDEST DIV SWAP5 PUSH2 0xC26 DUP7 PUSH2 0xAC4 DUP5 PUSH2 0xAC4 DUP9 DUP9 PUSH2 0x147D JUMP JUMPDEST SWAP1 DUP6 DUP1 DUP3 GT ISZERO PUSH2 0xDA9 JUMPI PUSH2 0xC39 SWAP2 PUSH2 0x14D2 JUMP JUMPDEST DUP2 DUP2 GT ISZERO PUSH2 0xDA2 JUMPI PUSH2 0xC4B DUP3 DUP3 PUSH2 0x14D2 JUMP JUMPDEST SWAP2 JUMPDEST PUSH2 0x2710 DUP4 MUL SWAP8 DUP4 ISZERO SWAP9 DUP5 DUP2 DIV PUSH2 0x2710 EQ DUP11 OR ISZERO PUSH2 0x2A3 JUMPI DUP9 PUSH2 0xC6E SWAP2 PUSH2 0x148A JUMP JUMPDEST SWAP5 PUSH2 0xC77 PUSH2 0x14DF JUMP JUMPDEST SWAP8 DUP4 PUSH2 0xD0B JUMPI JUMPDEST PUSH2 0x1C0 SWAP11 ISZERO SWAP8 PUSH32 0xF8D4E3610CBF53D4AF8FAED23C01AACA89EA1A22B855E591360BBC55071C917B PUSH1 0x60 PUSH1 0x40 MLOAD DUP14 DUP2 MSTORE DUP10 PUSH1 0x20 DUP3 ADD MSTORE DUP12 PUSH1 0x40 DUP3 ADD MSTORE LOG1 PUSH1 0x40 MLOAD SWAP11 PUSH2 0xCC7 DUP13 PUSH2 0x13BD JUMP JUMPDEST DUP12 MSTORE PUSH1 0x20 DUP12 ADD MSTORE PUSH1 0x40 DUP11 ADD MSTORE PUSH1 0x60 DUP10 ADD MSTORE PUSH1 0x80 DUP9 ADD MSTORE PUSH1 0xA0 DUP8 ADD MSTORE PUSH1 0xC0 DUP7 ADD MSTORE PUSH1 0xE0 DUP6 ADD MSTORE PUSH2 0x100 DUP5 ADD MSTORE PUSH2 0x120 DUP4 ADD MSTORE PUSH2 0x140 DUP3 ADD MSTORE PUSH2 0x7EF PUSH1 0x40 MLOAD DUP1 SWAP3 PUSH2 0x1327 JUMP JUMPDEST PUSH2 0x2710 DUP9 MUL DUP9 DUP2 DIV PUSH2 0x2710 EQ DUP10 ISZERO OR ISZERO PUSH2 0x2A3 JUMPI DUP5 PUSH2 0xD29 SWAP2 PUSH2 0x148A JUMP JUMPDEST DUP10 MSTORE PUSH2 0x2710 DUP2 MUL DUP2 DUP2 DIV PUSH2 0x2710 EQ DUP3 ISZERO OR ISZERO PUSH2 0x2A3 JUMPI DUP5 PUSH2 0xD49 SWAP2 PUSH2 0x148A JUMP JUMPDEST PUSH1 0x20 DUP11 ADD MSTORE DUP2 PUSH2 0x2710 DUP2 MUL DIV PUSH2 0x2710 EQ DUP3 ISZERO OR ISZERO PUSH2 0x2A3 JUMPI PUSH2 0xD6F DUP5 PUSH2 0x2710 DUP5 MUL PUSH2 0x148A JUMP JUMPDEST PUSH1 0x40 DUP11 ADD MSTORE PUSH2 0x2710 DUP4 MUL SWAP11 DUP4 DUP13 DIV PUSH2 0x2710 EQ DUP5 ISZERO OR ISZERO PUSH2 0x2A3 JUMPI PUSH2 0xD96 DUP6 PUSH2 0x1C0 SWAP14 PUSH2 0x148A JUMP JUMPDEST PUSH1 0x60 DUP12 ADD MSTORE SWAP11 POP PUSH2 0xC7E JUMP JUMPDEST PUSH0 SWAP2 PUSH2 0xC4D JUMP JUMPDEST POP POP PUSH0 PUSH2 0xC39 JUMP JUMPDEST POP DUP2 ISZERO PUSH2 0xBD0 JUMP JUMPDEST CALLVALUE PUSH2 0x3F0 JUMPI PUSH1 0x40 CALLDATASIZE PUSH1 0x3 NOT ADD SLT PUSH2 0x3F0 JUMPI PUSH1 0x1 PUSH1 0x1 PUSH1 0x40 SHL SUB PUSH1 0x4 CALLDATALOAD DUP2 DUP2 GT PUSH2 0x3F0 JUMPI PUSH2 0xDEA SWAP1 CALLDATASIZE SWAP1 PUSH1 0x4 ADD PUSH2 0x1289 JUMP JUMPDEST SWAP1 PUSH1 0x24 SWAP3 DUP4 CALLDATALOAD SWAP1 DUP2 GT PUSH2 0x3F0 JUMPI PUSH2 0xE05 SWAP1 CALLDATASIZE SWAP1 PUSH1 0x4 ADD PUSH2 0x12F7 JUMP JUMPDEST SWAP4 DUP4 ISZERO PUSH2 0x3DE JUMPI DUP5 DUP5 SUB PUSH2 0x101F JUMPI PUSH0 SWAP3 PUSH0 SWAP6 PUSH0 JUMPDEST DUP7 DUP2 LT PUSH2 0xF81 JUMPI DUP8 PUSH2 0xE35 DUP9 PUSH2 0xE2F DUP2 DUP11 PUSH2 0x148A JUMP JUMPDEST SWAP3 PUSH2 0x148A JUMP JUMPDEST SWAP1 PUSH8 0xDE0B6B3A7640000 DUP3 GT ISZERO PUSH2 0xEB8 JUMPI PUSH2 0xEB4 PUSH1 0x40 MLOAD PUSH2 0xE55 DUP2 PUSH2 0x13F4 JUMP JUMPDEST PUSH1 0x2D DUP2 MSTORE PUSH32 0x47617320636F73747320617265206A75737469666965642062792070726F6669 PUSH1 0x20 DUP3 ADD MSTORE PUSH13 0x7473202D20434F4E54494E5545 PUSH1 0x98 SHL PUSH1 0x40 DUP3 ADD MSTORE JUMPDEST PUSH1 0x40 MLOAD SWAP4 DUP5 SWAP4 DUP5 MSTORE PUSH1 0x20 DUP5 ADD MSTORE PUSH1 0x60 PUSH1 0x40 DUP5 ADD MSTORE PUSH1 0x60 DUP4 ADD SWAP1 PUSH2 0x12B9 JUMP JUMPDEST SUB SWAP1 RETURN JUMPDEST PUSH8 0x6F05B59D3B20000 DUP3 GT ISZERO PUSH2 0xF2C JUMPI PUSH2 0xEB4 PUSH1 0x40 MLOAD PUSH2 0xED7 DUP2 PUSH2 0x13F4 JUMP JUMPDEST PUSH1 0x38 DUP2 MSTORE PUSH32 0x47617320636F73747320617265206D617267696E616C202D204F5054494D495A PUSH1 0x20 DUP3 ADD MSTORE PUSH32 0x45206F7220494E4352454153452054524144452053495A450000000000000000 PUSH1 0x40 DUP3 ADD MSTORE PUSH2 0xE96 JUMP JUMPDEST PUSH2 0xEB4 PUSH1 0x40 MLOAD PUSH2 0xF3B DUP2 PUSH2 0x13F4 JUMP JUMPDEST PUSH1 0x2E DUP2 MSTORE PUSH32 0x47617320636F737473206578636565642070726F66697473202D205245434F4E PUSH1 0x20 DUP3 ADD MSTORE PUSH14 0x5349444552205354524154454759 PUSH1 0x90 SHL PUSH1 0x40 DUP3 ADD MSTORE PUSH2 0xE96 JUMP JUMPDEST PUSH2 0xFAF PUSH2 0xFA8 PUSH2 0xF92 DUP4 DUP6 DUP10 PUSH2 0x1640 JUMP JUMPDEST CALLDATALOAD PUSH1 0x20 PUSH2 0xFA0 DUP6 DUP13 DUP10 PUSH2 0x1459 JUMP JUMPDEST ADD CALLDATALOAD SWAP1 PUSH2 0x14BF JUMP JUMPDEST DUP1 SWAP8 PUSH2 0x147D JUMP JUMPDEST SWAP6 DUP1 PUSH2 0xFC5 JUMPI JUMPDEST POP PUSH2 0xFC0 SWAP1 PUSH2 0x144B JUMP JUMPDEST PUSH2 0xE19 JUMP JUMPDEST PUSH2 0xFD3 DUP3 DUP10 DUP7 SWAP12 SWAP5 SWAP12 PUSH2 0x1459 JUMP JUMPDEST CALLDATALOAD PUSH8 0xDE0B6B3A7640000 SWAP1 DUP2 DUP2 MUL SWAP2 DUP2 DUP4 DIV EQ SWAP1 ISZERO OR ISZERO PUSH2 0x100C JUMPI SWAP2 PUSH2 0xFFF PUSH2 0x1005 SWAP3 PUSH2 0xFC0 SWAP5 PUSH2 0x148A JUMP JUMPDEST SWAP1 PUSH2 0x147D JUMP JUMPDEST SWAP8 SWAP1 PUSH2 0xFB6 JUMP JUMPDEST DUP6 PUSH4 0x4E487B71 PUSH1 0xE0 SHL PUSH0 MSTORE PUSH1 0x11 PUSH1 0x4 MSTORE PUSH0 REVERT JUMPDEST PUSH1 0x40 MLOAD PUSH4 0x512509D3 PUSH1 0xE1 SHL DUP2 MSTORE PUSH1 0x4 SWAP1 REVERT JUMPDEST CALLVALUE PUSH2 0x3F0 JUMPI CALLDATASIZE PUSH1 0x3 NOT ADD PUSH2 0x120 DUP2 SLT PUSH2 0x3F0 JUMPI PUSH2 0x100 SGT PUSH2 0x3F0 JUMPI PUSH1 0x1 PUSH1 0x1 PUSH1 0x40 SHL SUB PUSH2 0x104 CALLDATALOAD DUP2 DUP2 GT PUSH2 0x3F0 JUMPI PUSH2 0x106D SWAP1 CALLDATASIZE SWAP1 PUSH1 0x4 ADD PUSH2 0x1289 JUMP JUMPDEST SWAP2 SWAP1 SWAP3 PUSH1 0xC0 DUP2 ADD SWAP1 DUP1 DUP3 LT DUP4 DUP4 GT OR PUSH2 0x5B6 JUMPI PUSH1 0xA0 SWAP2 PUSH1 0x40 MSTORE PUSH0 DUP2 MSTORE PUSH0 PUSH1 0x20 DUP3 ADD MSTORE PUSH0 PUSH1 0x40 DUP3 ADD MSTORE PUSH1 0x60 SWAP2 DUP2 PUSH0 DUP5 DUP1 SWAP5 ADD MSTORE PUSH0 PUSH1 0x80 DUP3 ADD MSTORE ADD MSTORE DUP3 ISZERO PUSH2 0x3DE JUMPI PUSH1 0x4 CALLDATALOAD SWAP1 PUSH1 0x44 CALLDATALOAD DUP1 DUP4 GT ISZERO PUSH2 0x1282 JUMPI PUSH8 0xDE0B6B3A7640000 PUSH2 0x10D7 PUSH2 0x10D2 DUP4 DUP7 PUSH2 0x14D2 JUMP JUMPDEST PUSH2 0x14A8 JUMP JUMPDEST DIV JUMPDEST PUSH1 0x32 DUP2 LT ISZERO PUSH2 0x127C JUMPI POP PUSH1 0x32 SWAP5 JUMPDEST PUSH2 0x10F0 DUP2 PUSH2 0x1664 JUMP JUMPDEST PUSH0 JUMPDEST DUP3 DUP2 LT PUSH2 0x125A JUMPI POP PUSH2 0x110C DUP2 PUSH0 PUSH2 0x4E0 PUSH2 0x1111 SWAP5 MLOAD PUSH2 0x1696 JUMP JUMPDEST PUSH2 0x18ED JUMP JUMPDEST SWAP7 PUSH2 0x111B DUP3 PUSH2 0x1664 JUMP JUMPDEST SWAP2 PUSH0 JUMPDEST DUP2 DUP2 LT PUSH2 0x1239 JUMPI POP POP POP PUSH2 0x113A DUP2 PUSH0 PUSH2 0x4E0 PUSH2 0x113F SWAP5 MLOAD PUSH2 0x1696 JUMP JUMPDEST PUSH2 0x1931 JUMP JUMPDEST SWAP3 PUSH1 0x1E DUP5 ADD DUP1 SWAP5 GT PUSH2 0x2A3 JUMPI PUSH1 0xC4 CALLDATALOAD SWAP2 PUSH1 0x96 DUP4 MUL SWAP3 DUP1 DUP5 DIV PUSH1 0x96 EQ SWAP1 ISZERO OR ISZERO PUSH2 0x2A3 JUMPI DUP2 ISZERO PUSH2 0x1230 JUMPI PUSH2 0x1171 SWAP2 PUSH2 0x196C JUMP JUMPDEST SWAP2 JUMPDEST PUSH2 0x1181 PUSH1 0xA4 CALLDATALOAD PUSH1 0xE4 CALLDATALOAD PUSH2 0x19C0 JUMP JUMPDEST SWAP4 PUSH32 0x4682A24DB80119847024AA747650B50F14FD55B9630F4A7615212E6206C94B9F DUP3 PUSH1 0x40 MLOAD DUP10 DUP2 MSTORE DUP11 PUSH1 0x20 DUP3 ADD MSTORE DUP7 PUSH1 0x40 DUP3 ADD MSTORE LOG1 PUSH1 0x40 MLOAD SWAP7 PUSH1 0xC0 DUP9 ADD SWAP7 DUP8 GT DUP9 DUP9 LT OR PUSH2 0x5B6 JUMPI PUSH2 0xEB4 SWAP7 PUSH1 0x40 MSTORE DUP8 MSTORE PUSH1 0x20 DUP8 ADD SWAP8 DUP9 MSTORE PUSH1 0x40 DUP8 ADD SWAP1 DUP2 MSTORE PUSH1 0x64 DUP3 DUP9 ADD SWAP4 DIV DUP4 MSTORE PUSH1 0x80 DUP8 ADD SWAP4 DUP5 MSTORE PUSH1 0xA0 DUP8 ADD SWAP5 DUP6 MSTORE PUSH1 0x40 MLOAD SWAP8 DUP9 SWAP8 PUSH1 0x20 DUP10 MSTORE MLOAD PUSH1 0x20 DUP10 ADD MSTORE MLOAD PUSH1 0x40 DUP9 ADD MSTORE MLOAD SWAP1 DUP7 ADD MSTORE MLOAD PUSH1 0x80 DUP6 ADD MSTORE MLOAD PUSH1 0xA0 DUP5 ADD MSTORE MLOAD PUSH1 0xC0 DUP1 DUP5 ADD MSTORE PUSH1 0xE0 DUP4 ADD SWAP1 PUSH2 0x12B9 JUMP JUMPDEST POP POP PUSH0 SWAP2 PUSH2 0x1173 JUMP JUMPDEST DUP1 DUP7 PUSH2 0x1249 PUSH2 0x1255 SWAP4 DUP6 DUP8 PUSH2 0x1459 JUMP JUMPDEST ADD CALLDATALOAD PUSH2 0x5EC DUP3 DUP8 PUSH2 0x1650 JUMP JUMPDEST PUSH2 0x111E JUMP JUMPDEST DUP1 PUSH1 0x40 PUSH2 0x126B PUSH2 0x1277 SWAP4 DUP7 DUP14 PUSH2 0x1459 JUMP JUMPDEST ADD CALLDATALOAD PUSH2 0x5EC DUP3 DUP6 PUSH2 0x1650 JUMP JUMPDEST PUSH2 0x10F2 JUMP JUMPDEST SWAP5 PUSH2 0x10E7 JUMP JUMPDEST PUSH1 0x32 PUSH2 0x10D9 JUMP JUMPDEST SWAP2 DUP2 PUSH1 0x1F DUP5 ADD SLT ISZERO PUSH2 0x3F0 JUMPI DUP3 CALLDATALOAD SWAP2 PUSH1 0x1 PUSH1 0x1 PUSH1 0x40 SHL SUB DUP4 GT PUSH2 0x3F0 JUMPI PUSH1 0x20 DUP1 DUP6 ADD SWAP5 DUP5 PUSH1 0x7 SHL ADD ADD GT PUSH2 0x3F0 JUMPI JUMP JUMPDEST SWAP2 SWAP1 DUP3 MLOAD SWAP3 DUP4 DUP3 MSTORE PUSH0 JUMPDEST DUP5 DUP2 LT PUSH2 0x12E3 JUMPI POP POP DUP3 PUSH0 PUSH1 0x20 DUP1 SWAP5 SWAP6 DUP5 ADD ADD MSTORE PUSH1 0x1F DUP1 NOT SWAP2 ADD AND ADD ADD SWAP1 JUMP JUMPDEST PUSH1 0x20 DUP2 DUP4 ADD DUP2 ADD MLOAD DUP5 DUP4 ADD DUP3 ADD MSTORE ADD PUSH2 0x12C3 JUMP JUMPDEST SWAP2 DUP2 PUSH1 0x1F DUP5 ADD SLT ISZERO PUSH2 0x3F0 JUMPI DUP3 CALLDATALOAD SWAP2 PUSH1 0x1 PUSH1 0x1 PUSH1 0x40 SHL SUB DUP4 GT PUSH2 0x3F0 JUMPI PUSH1 0x20 DUP1 DUP6 ADD SWAP5 DUP5 PUSH1 0x5 SHL ADD ADD GT PUSH2 0x3F0 JUMPI JUMP JUMPDEST SWAP1 PUSH2 0x13BB SWAP2 DUP1 MLOAD DUP3 MSTORE PUSH1 0x20 DUP2 ADD MLOAD PUSH1 0x20 DUP4 ADD MSTORE PUSH1 0x40 DUP2 ADD MLOAD PUSH1 0x40 DUP4 ADD MSTORE PUSH1 0x60 DUP2 ADD MLOAD PUSH1 0x60 DUP4 ADD MSTORE PUSH1 0x80 DUP2 ADD MLOAD PUSH1 0x80 DUP4 ADD MSTORE PUSH1 0xA0 DUP2 ADD MLOAD PUSH1 0xA0 DUP4 ADD MSTORE PUSH1 0xC0 DUP2 ADD MLOAD PUSH1 0xC0 DUP4 ADD MSTORE PUSH1 0xE0 DUP2 ADD MLOAD PUSH1 0xE0 DUP4 ADD MSTORE PUSH2 0x100 DUP1 DUP3 ADD MLOAD SWAP1 DUP4 ADD MSTORE PUSH2 0x120 DUP1 DUP3 ADD MLOAD ISZERO ISZERO SWAP1 DUP4 ADD MSTORE PUSH2 0x140 DUP1 SWAP2 ADD MLOAD SWAP2 ADD SWAP1 PUSH1 0x60 DUP1 SWAP2 DUP1 MLOAD DUP5 MSTORE PUSH1 0x20 DUP2 ADD MLOAD PUSH1 0x20 DUP6 ADD MSTORE PUSH1 0x40 DUP2 ADD MLOAD PUSH1 0x40 DUP6 ADD MSTORE ADD MLOAD SWAP2 ADD MSTORE JUMP JUMPDEST JUMP JUMPDEST PUSH2 0x160 DUP2 ADD SWAP1 DUP2 LT PUSH1 0x1 PUSH1 0x1 PUSH1 0x40 SHL SUB DUP3 GT OR PUSH2 0x5B6 JUMPI PUSH1 0x40 MSTORE JUMP JUMPDEST PUSH1 0x80 DUP2 ADD SWAP1 DUP2 LT PUSH1 0x1 PUSH1 0x1 PUSH1 0x40 SHL SUB DUP3 GT OR PUSH2 0x5B6 JUMPI PUSH1 0x40 MSTORE JUMP JUMPDEST PUSH1 0x60 DUP2 ADD SWAP1 DUP2 LT PUSH1 0x1 PUSH1 0x1 PUSH1 0x40 SHL SUB DUP3 GT OR PUSH2 0x5B6 JUMPI PUSH1 0x40 MSTORE JUMP JUMPDEST PUSH1 0xA0 DUP2 ADD SWAP1 DUP2 LT PUSH1 0x1 PUSH1 0x1 PUSH1 0x40 SHL SUB DUP3 GT OR PUSH2 0x5B6 JUMPI PUSH1 0x40 MSTORE JUMP JUMPDEST SWAP1 PUSH1 0x1F DUP1 NOT SWAP2 ADD AND DUP2 ADD SWAP1 DUP2 LT PUSH1 0x1 PUSH1 0x1 PUSH1 0x40 SHL SUB DUP3 GT OR PUSH2 0x5B6 JUMPI PUSH1 0x40 MSTORE JUMP JUMPDEST PUSH0 NOT DUP2 EQ PUSH2 0x2A3 JUMPI PUSH1 0x1 ADD SWAP1 JUMP JUMPDEST SWAP2 SWAP1 DUP2 LT ISZERO PUSH2 0x1469 JUMPI PUSH1 0x7 SHL ADD SWAP1 JUMP JUMPDEST PUSH4 0x4E487B71 PUSH1 0xE0 SHL PUSH0 MSTORE PUSH1 0x32 PUSH1 0x4 MSTORE PUSH1 0x24 PUSH0 REVERT JUMPDEST SWAP2 SWAP1 DUP3 ADD DUP1 SWAP3 GT PUSH2 0x2A3 JUMPI JUMP JUMPDEST DUP2 ISZERO PUSH2 0x1494 JUMPI DIV SWAP1 JUMP JUMPDEST PUSH4 0x4E487B71 PUSH1 0xE0 SHL PUSH0 MSTORE PUSH1 0x12 PUSH1 0x4 MSTORE PUSH1 0x24 PUSH0 REVERT JUMPDEST SWAP1 PUSH2 0x2710 SWAP2 DUP3 DUP2 MUL SWAP3 DUP2 DUP5 DIV EQ SWAP1 ISZERO OR ISZERO PUSH2 0x2A3 JUMPI JUMP JUMPDEST DUP2 DUP2 MUL SWAP3 SWAP2 DUP2 ISZERO SWAP2 DUP5 DIV EQ OR ISZERO PUSH2 0x2A3 JUMPI JUMP JUMPDEST SWAP2 SWAP1 DUP3 SUB SWAP2 DUP3 GT PUSH2 0x2A3 JUMPI JUMP JUMPDEST PUSH1 0x40 MLOAD SWAP1 PUSH2 0x14EC DUP3 PUSH2 0x13D9 JUMP JUMPDEST PUSH0 PUSH1 0x60 DUP4 DUP3 DUP2 MSTORE DUP3 PUSH1 0x20 DUP3 ADD MSTORE DUP3 PUSH1 0x40 DUP3 ADD MSTORE ADD MSTORE JUMP JUMPDEST PUSH1 0x40 MLOAD SWAP1 PUSH2 0x1510 DUP3 PUSH2 0x13BD JUMP JUMPDEST DUP2 PUSH0 DUP1 DUP3 MSTORE DUP1 PUSH1 0x20 DUP4 ADD MSTORE DUP1 PUSH1 0x40 DUP4 ADD MSTORE DUP1 PUSH1 0x60 DUP4 ADD MSTORE DUP1 PUSH1 0x80 DUP4 ADD MSTORE DUP1 PUSH1 0xA0 DUP4 ADD MSTORE DUP1 PUSH1 0xC0 DUP4 ADD MSTORE DUP1 PUSH1 0xE0 DUP4 ADD MSTORE DUP1 PUSH2 0x100 DUP4 ADD MSTORE PUSH2 0x120 DUP3 ADD MSTORE PUSH2 0x140 PUSH2 0x1557 PUSH2 0x14DF JUMP JUMPDEST SWAP2 ADD MSTORE JUMP JUMPDEST DUP1 SWAP2 SUB SWAP1 PUSH2 0x1C0 DUP3 SLT PUSH2 0x3F0 JUMPI PUSH1 0x40 MLOAD SWAP2 PUSH2 0x1576 DUP4 PUSH2 0x13BD JUMP JUMPDEST DUP2 MLOAD DUP4 MSTORE PUSH1 0x20 DUP3 ADD MLOAD PUSH1 0x20 DUP5 ADD MSTORE PUSH1 0x40 DUP3 ADD MLOAD PUSH1 0x40 DUP5 ADD MSTORE PUSH1 0x60 DUP3 ADD MLOAD PUSH1 0x60 DUP5 ADD MSTORE PUSH1 0x80 DUP3 ADD MLOAD PUSH1 0x80 DUP5 ADD MSTORE PUSH1 0xA0 DUP3 ADD MLOAD PUSH1 0xA0 DUP5 ADD MSTORE PUSH1 0xC0 DUP3 ADD MLOAD PUSH1 0xC0 DUP5 ADD MSTORE PUSH1 0xE0 DUP3 ADD MLOAD PUSH1 0xE0 DUP5 ADD MSTORE PUSH2 0x100 DUP1 DUP4 ADD MLOAD SWAP1 DUP5 ADD MSTORE PUSH2 0x120 SWAP1 DUP2 DUP4 ADD MLOAD DUP1 ISZERO ISZERO DUP2 SUB PUSH2 0x3F0 JUMPI PUSH1 0x80 SWAP3 DUP6 ADD MSTORE PUSH2 0x13F NOT ADD SLT PUSH2 0x3F0 JUMPI PUSH1 0x40 MLOAD SWAP1 PUSH2 0x15F9 DUP3 PUSH2 0x13D9 JUMP JUMPDEST PUSH2 0x1A0 PUSH2 0x140 SWAP2 DUP3 DUP2 ADD MLOAD DUP5 MSTORE PUSH2 0x160 DUP2 ADD MLOAD PUSH1 0x20 DUP6 ADD MSTORE PUSH2 0x180 DUP2 ADD MLOAD PUSH1 0x40 DUP6 ADD MSTORE ADD MLOAD PUSH1 0x60 DUP4 ADD MSTORE DUP3 ADD MSTORE SWAP1 JUMP JUMPDEST PUSH1 0x1 PUSH1 0x1 PUSH1 0x40 SHL SUB DUP2 GT PUSH2 0x5B6 JUMPI PUSH1 0x5 SHL PUSH1 0x20 ADD SWAP1 JUMP JUMPDEST SWAP2 SWAP1 DUP2 LT ISZERO PUSH2 0x1469 JUMPI PUSH1 0x5 SHL ADD SWAP1 JUMP JUMPDEST DUP1 MLOAD DUP3 LT ISZERO PUSH2 0x1469 JUMPI PUSH1 0x20 SWAP2 PUSH1 0x5 SHL ADD ADD SWAP1 JUMP JUMPDEST SWAP1 PUSH2 0x166E DUP3 PUSH2 0x1629 JUMP JUMPDEST PUSH2 0x167B PUSH1 0x40 MLOAD SWAP2 DUP3 PUSH2 0x142A JUMP JUMPDEST DUP3 DUP2 MSTORE DUP1 SWAP3 PUSH2 0x168C PUSH1 0x1F NOT SWAP2 PUSH2 0x1629 JUMP JUMPDEST ADD SWAP1 PUSH1 0x20 CALLDATASIZE SWAP2 ADD CALLDATACOPY JUMP JUMPDEST SWAP1 PUSH0 NOT DUP3 ADD SWAP2 DUP3 SGT PUSH1 0x1 AND PUSH2 0x2A3 JUMPI JUMP JUMPDEST SWAP1 PUSH1 0x1 DUP3 ADD SWAP2 PUSH0 PUSH1 0x1 DUP5 SLT SWAP2 SLT SWAP1 DUP1 ISZERO DUP3 AND SWAP2 ISZERO AND OR PUSH2 0x2A3 JUMPI JUMP JUMPDEST SWAP2 DUP1 DUP3 SLT PUSH2 0x16D0 JUMPI POP POP SWAP1 JUMP JUMPDEST PUSH2 0x16DA DUP2 DUP5 PUSH2 0x1650 JUMP JUMPDEST MLOAD PUSH2 0x16E4 DUP4 PUSH2 0x1696 JUMP JUMPDEST SWAP1 DUP4 JUMPDEST DUP4 DUP2 SLT PUSH2 0x1762 JUMPI POP POP PUSH2 0x1739 PUSH2 0x174A SWAP2 PUSH2 0x1701 DUP5 DUP8 PUSH2 0x1650 JUMP JUMPDEST MLOAD PUSH2 0x1733 PUSH2 0x1717 PUSH2 0x1711 DUP5 PUSH2 0x16A7 JUMP JUMPDEST DUP10 PUSH2 0x1650 JUMP JUMPDEST MLOAD PUSH2 0x1721 DUP5 PUSH2 0x16A7 JUMP JUMPDEST SWAP1 PUSH2 0x172C DUP9 DUP12 PUSH2 0x1650 JUMP JUMPDEST MSTORE DUP9 PUSH2 0x1650 JUMP JUMPDEST MSTORE PUSH2 0x16A7 JUMP JUMPDEST SWAP3 PUSH2 0x1743 DUP5 PUSH2 0x1696 JUMP JUMPDEST SWAP1 DUP6 PUSH2 0x16C3 JUMP JUMPDEST PUSH2 0x175E SWAP3 PUSH2 0x1758 SWAP2 POP PUSH2 0x16A7 JUMP JUMPDEST DUP4 PUSH2 0x16C3 JUMP JUMPDEST POP SWAP1 JUMP JUMPDEST DUP2 PUSH2 0x176D DUP3 DUP9 PUSH2 0x1650 JUMP JUMPDEST MLOAD LT PUSH2 0x1782 JUMPI JUMPDEST PUSH2 0x177D SWAP1 PUSH2 0x17C3 JUMP JUMPDEST PUSH2 0x16E7 JUMP JUMPDEST SWAP2 PUSH2 0x178F PUSH2 0x177D SWAP2 PUSH2 0x17C3 JUMP JUMPDEST SWAP3 PUSH2 0x179A DUP2 DUP9 PUSH2 0x1650 JUMP JUMPDEST MLOAD PUSH2 0x17A5 DUP6 DUP10 PUSH2 0x1650 JUMP JUMPDEST MLOAD PUSH2 0x17B0 DUP4 DUP11 PUSH2 0x1650 JUMP JUMPDEST MSTORE PUSH2 0x17BB DUP6 DUP10 PUSH2 0x1650 JUMP JUMPDEST MSTORE SWAP1 POP PUSH2 0x1774 JUMP JUMPDEST PUSH1 0x1 PUSH1 0x1 PUSH1 0xFF SHL SUB DUP2 EQ PUSH2 0x2A3 JUMPI PUSH1 0x1 ADD SWAP1 JUMP JUMPDEST DUP1 MLOAD SWAP1 DUP2 ISZERO PUSH2 0x1834 JUMPI PUSH1 0x1 SWAP2 DUP1 DUP4 AND DUP4 SUB PUSH2 0x17FE JUMPI POP DUP1 MLOAD PUSH2 0x17FA SWAP3 SHR SWAP1 PUSH2 0x1650 JUMP JUMPDEST MLOAD SWAP1 JUMP JUMPDEST DUP3 SHR SWAP1 PUSH0 NOT DUP3 ADD SWAP2 DUP3 GT PUSH2 0x2A3 JUMPI PUSH2 0x1828 PUSH2 0x181C PUSH2 0x182F SWAP4 DUP4 PUSH2 0x1650 JUMP JUMPDEST MLOAD SWAP2 DUP1 MLOAD DUP6 SHR SWAP1 PUSH2 0x1650 JUMP JUMPDEST MLOAD SWAP1 PUSH2 0x147D JUMP JUMPDEST SWAP1 SHR SWAP1 JUMP JUMPDEST POP POP PUSH0 SWAP1 JUMP JUMPDEST SWAP2 SWAP1 SWAP2 DUP3 ISZERO PUSH2 0x18E6 JUMPI SWAP1 PUSH0 SWAP2 DUP3 SWAP2 JUMPDEST DUP5 DUP4 LT PUSH2 0x1868 JUMPI POP POP POP PUSH2 0x1865 SWAP2 PUSH2 0x1860 SWAP2 PUSH2 0x148A JUMP JUMPDEST PUSH2 0x1BD4 JUMP JUMPDEST SWAP1 JUMP JUMPDEST SWAP1 SWAP2 SWAP3 PUSH2 0x18B3 PUSH2 0x18B9 SWAP2 DUP4 PUSH2 0x187E DUP8 DUP10 DUP9 PUSH2 0x1459 JUMP JUMPDEST CALLDATALOAD GT ISZERO PUSH2 0x18C0 JUMPI PUSH8 0xDE0B6B3A7640000 PUSH2 0x18AC PUSH2 0x18A6 DUP7 PUSH2 0x18A0 DUP11 DUP13 DUP12 PUSH2 0x1459 JUMP JUMPDEST CALLDATALOAD PUSH2 0x14D2 JUMP JUMPDEST DUP1 PUSH2 0x14BF JUMP JUMPDEST DIV SWAP1 PUSH2 0x147D JUMP JUMPDEST SWAP4 PUSH2 0x144B JUMP JUMPDEST SWAP2 SWAP1 PUSH2 0x1849 JUMP JUMPDEST PUSH8 0xDE0B6B3A7640000 PUSH2 0x18AC PUSH2 0x18E1 PUSH2 0x18DA DUP10 DUP12 DUP11 PUSH2 0x1459 JUMP JUMPDEST CALLDATALOAD DUP8 PUSH2 0x14D2 JUMP JUMPDEST PUSH2 0x18A6 JUMP JUMPDEST POP POP POP PUSH0 SWAP1 JUMP JUMPDEST DUP1 MLOAD DUP1 ISZERO PUSH2 0x1834 JUMPI PUSH1 0x5F DUP2 MUL SWAP1 DUP2 DIV PUSH1 0x5F SUB PUSH2 0x2A3 JUMPI DUP2 MLOAD PUSH1 0x64 SWAP1 SWAP2 DIV SWAP1 DUP2 LT PUSH2 0x1928 JUMPI POP DUP1 MLOAD PUSH0 NOT DUP2 ADD SWAP1 DUP2 GT PUSH2 0x2A3 JUMPI PUSH2 0x17FA SWAP2 PUSH2 0x1650 JUMP JUMPDEST PUSH2 0x17FA SWAP2 PUSH2 0x1650 JUMP JUMPDEST DUP1 MLOAD DUP1 ISZERO PUSH2 0x1834 JUMPI PUSH1 0x63 DUP2 MUL SWAP1 DUP2 DIV PUSH1 0x63 SUB PUSH2 0x2A3 JUMPI DUP2 MLOAD PUSH1 0x64 SWAP1 SWAP2 DIV SWAP1 DUP2 LT PUSH2 0x1928 JUMPI POP DUP1 MLOAD PUSH0 NOT DUP2 ADD SWAP1 DUP2 GT PUSH2 0x2A3 JUMPI PUSH2 0x17FA SWAP2 PUSH2 0x1650 JUMP JUMPDEST SWAP1 DUP1 ISZERO PUSH2 0x19B8 JUMPI PUSH8 0xDE0B6B3A7640000 SWAP2 DUP3 DUP3 MUL SWAP2 DUP3 DIV DUP4 SUB PUSH2 0x2A3 JUMPI PUSH2 0x1992 SWAP2 PUSH2 0x148A JUMP JUMPDEST DUP2 DUP2 LT ISZERO PUSH2 0x1834 JUMPI DUP2 ADD DUP1 SWAP2 GT PUSH2 0x2A3 JUMPI DUP1 ISZERO PUSH2 0x1494 JUMPI PUSH10 0x21E19E0C9BAB2400000 DIV SWAP1 JUMP JUMPDEST POP POP PUSH2 0x2710 SWAP1 JUMP JUMPDEST PUSH1 0xA GT PUSH2 0x1B74 JUMPI PUSH2 0x2328 DUP2 LT ISZERO PUSH2 0x1B14 JUMPI PUSH2 0x1D4C DUP2 LT ISZERO PUSH2 0x1AB4 JUMPI PUSH2 0x1388 GT ISZERO PUSH2 0x1A55 JUMPI PUSH1 0x40 MLOAD PUSH2 0x19F0 DUP2 PUSH2 0x13D9 JUMP JUMPDEST PUSH1 0x49 DUP2 MSTORE PUSH32 0x4C4F5720535543434553532052415445202D20436F6E7369646572206D6F7265 PUSH1 0x20 DUP3 ADD MSTORE PUSH32 0x206167677265737369766520706172616D6574657273206F7220737472617465 PUSH1 0x40 DUP3 ADD MSTORE PUSH9 0x677920726576696577 PUSH1 0xB8 SHL PUSH1 0x60 DUP3 ADD MSTORE SWAP1 JUMP JUMPDEST PUSH1 0x40 MLOAD PUSH2 0x1A61 DUP2 PUSH2 0x13F4 JUMP JUMPDEST PUSH1 0x38 DUP2 MSTORE PUSH32 0x4D4F44455241544520535543434553532052415445202D20506172616D657465 PUSH1 0x20 DUP3 ADD MSTORE PUSH32 0x7273206D6179206E656564206F7074696D697A6174696F6E0000000000000000 PUSH1 0x40 DUP3 ADD MSTORE SWAP1 JUMP JUMPDEST POP PUSH1 0x40 MLOAD PUSH2 0x1AC1 DUP2 PUSH2 0x13F4 JUMP JUMPDEST PUSH1 0x3D DUP2 MSTORE PUSH32 0x474F4F4420535543434553532052415445202D20506172616D65746572732061 PUSH1 0x20 DUP3 ADD MSTORE PUSH32 0x72652062616C616E63656420666F722070726F6669746162696C697479000000 PUSH1 0x40 DUP3 ADD MSTORE SWAP1 JUMP JUMPDEST POP PUSH1 0x40 MLOAD PUSH2 0x1B21 DUP2 PUSH2 0x13F4 JUMP JUMPDEST PUSH1 0x3F DUP2 MSTORE PUSH32 0x4849474820535543434553532052415445202D20506172616D65746572732061 PUSH1 0x20 DUP3 ADD MSTORE PUSH32 0x726520636F6E73657276617469766520616E642077656C6C2D74657374656400 PUSH1 0x40 DUP3 ADD MSTORE SWAP1 JUMP JUMPDEST POP PUSH1 0x40 MLOAD PUSH2 0x1B81 DUP2 PUSH2 0x13F4 JUMP JUMPDEST PUSH1 0x3C DUP2 MSTORE PUSH32 0x494E53554646494349454E542044415441202D205265636F6D6D656E64617469 PUSH1 0x20 DUP3 ADD MSTORE PUSH32 0x6F6E73206261736564206F6E206C696D697465642073616D706C657300000000 PUSH1 0x40 DUP3 ADD MSTORE SWAP1 JUMP JUMPDEST DUP1 ISZERO PUSH2 0x1C1F JUMPI PUSH1 0x1 DUP1 DUP3 EQ PUSH2 0x1C1A JUMPI DUP1 DUP3 ADD DUP1 DUP4 GT PUSH2 0x2A3 JUMPI DUP2 SHR SWAP1 DUP3 JUMPDEST DUP4 DUP4 LT PUSH2 0x1BFF JUMPI POP POP POP SWAP1 JUMP JUMPDEST SWAP1 SWAP2 SWAP3 POP PUSH2 0x1C11 DUP4 PUSH2 0xAC4 DUP2 DUP5 PUSH2 0x148A JUMP JUMPDEST DUP3 SHR SWAP2 SWAP1 PUSH2 0x1BF2 JUMP JUMPDEST SWAP1 POP SWAP1 JUMP JUMPDEST POP PUSH0 SWAP1 JUMP INVALID LOG2 PUSH5 0x6970667358 0x22 SLT KECCAK256 PC GASLIMIT 0x49 LOG3 0x49 0xC6 0xCD CALL 0xD6 0x5E 0xBA PUSH2 0x2B83 DUP13 JUMP SWAP7 DUP5 0xBF 0xD7 SWAP5 0xCD SWAP13 KECCAK256 0x5D 0x26 0x2E CREATE GASPRICE 0xE 0xFC PUSH23 0x64736F6C63430008140033A26469706673582212200F17 0xBA DUP1 PC DUP2 0xEF 0x1F CALLVALUE 0xB3 PUSH24 0x2034C25441446E87358883CC27F6E2A817BB792C4764736F PUSH13 0x63430008140033000000000000 "
		},
		"gasEstimates": {
			"creation": {
				"codeDepositCost": "2850400",
				"executionCost": "3128",
				"totalCost": "2853528"
			},
			"external": {
				"setUp()": "infinite",
				"test_analyzeGasEfficiency()": "infinite",
				"test_analyzeHistoricalTrades()": "infinite",
				"test_analyzeHistoricalTrades_EmptyArray()": "infinite",
				"test_backtestParameters()": "infinite",
				"test_calculateProfitability()": "infinite",
				"test_calculateProfitability_Unprofitable()": "infinite",
				"test_calculateProfitability_ZeroBorrowAmount()": "infinite",
				"test_findOptimalBorrowAmount()": "infinite",
				"test_findOptimalBorrowAmount_InvalidRange()": "infinite",
				"test_generateParameterRecommendations()": "infinite",
				"test_sensitivityAnalysis()": "infinite",
				"test_sensitivityAnalysis_ArrayLengthMismatch()": "infinite"
			},
			"internal": {
				"assertEq(uint256,uint256)": "infinite",
				"assertFalse(bool)": "infinite",
				"assertGt(uint256,uint256)": "infinite",
				"assertTrue(bool)": "infinite"
			}
		},
		"methodIdentifiers": {
			"setUp()": "0a9254e4",
			"test_analyzeGasEfficiency()": "c3040e88",
			"test_analyzeHistoricalTrades()": "056e735f",
			"test_analyzeHistoricalTrades_EmptyArray()": "631f9d7c",
			"test_backtestParameters()": "982b759e",
			"test_calculateProfitability()": "a34d52aa",
			"test_calculateProfitability_Unprofitable()": "d74d8372",
			"test_calculateProfitability_ZeroBorrowAmount()": "61f4005b",
			"test_findOptimalBorrowAmount()": "50c84d15",
			"test_findOptimalBorrowAmount_InvalidRange()": "340ebd94",
			"test_generateParameterRecommendations()": "06aed440",
			"test_sensitivityAnalysis()": "3815454f",
			"test_sensitivityAnalysis_ArrayLengthMismatch()": "e5ea2826"
		}
	},
	"abi": [
		{
			"inputs": [],
			"name": "setUp",
			"outputs": [],
			"stateMutability": "nonpayable",
			"type": "function"
		},
		{
			"inputs": [],
			"name": "test_analyzeGasEfficiency",
			"outputs": [],
			"stateMutability": "view",
			"type": "function"
		},
		{
			"inputs": [],
			"name": "test_analyzeHistoricalTrades",
			"outputs": [],
			"stateMutability": "nonpayable",
			"type": "function"
		},
		{
			"inputs": [],
			"name": "test_analyzeHistoricalTrades_EmptyArray",
			"outputs": [],
			"stateMutability": "nonpayable",
			"type": "function"
		},
		{
			"inputs": [],
			"name": "test_backtestParameters",
			"outputs": [],
			"stateMutability": "nonpayable",
			"type": "function"
		},
		{
			"inputs": [],
			"name": "test_calculateProfitability",
			"outputs": [],
			"stateMutability": "nonpayable",
			"type": "function"
		},
		{
			"inputs": [],
			"name": "test_calculateProfitability_Unprofitable",
			"outputs": [],
			"stateMutability": "nonpayable",
			"type": "function"
		},
		{
			"inputs": [],
			"name": "test_calculateProfitability_ZeroBorrowAmount",
			"outputs": [],
			"stateMutability": "nonpayable",
			"type": "function"
		},
		{
			"inputs": [],
			"name": "test_findOptimalBorrowAmount",
			"outputs": [],
			"stateMutability": "nonpayable",
			"type": "function"
		},
		{
			"inputs": [],
			"name": "test_findOptimalBorrowAmount_InvalidRange",
			"outputs": [],
			"stateMutability": "nonpayable",
			"type": "function"
		},
		{
			"inputs": [],
			"name": "test_generateParameterRecommendations",
			"outputs": [],
			"stateMutability": "nonpayable",
			"type": "function"
		},
		{
			"inputs": [],
			"name": "test_sensitivityAnalysis",
			"outputs": [],
			"stateMutability": "nonpayable",
			"type": "function"
		},
		{
			"inputs": [],
			"name": "test_sensitivityAnalysis_ArrayLengthMismatch",
			"outputs": [],
			"stateMutability": "nonpayable",
			"type": "function"
		}
	]
}