{
	"data": {
		"bytecode": {
			"linkReferences": {},
			"object": "6080806040523461001657611c5a908161001b8239f35b5f80fdfe6080806040526004361015610012575f80fd5b5f3560e01c9081630b54db8f1461103157508063248fc94014610db957806342598dca14610b9e5780635c5d15cd1461090f578063714c179a146106a7578063d22ae846146103f45763e91ca8b614610069575f80fd5b346103f05760603660031901126103f0576001600160401b036004358181116103f05761009a903690600401611289565b6024929192358281116103f0576100b59036906004016112f7565b9390926044359081116103f0576100d09036906004016112f7565b91909383156103de57851580156103d6575b6103c4576100f2838796976114bf565b936100fc85611629565b9561010a604051978861142a565b858752601f1961011987611629565b015f5b8181106103895750505f905f985f5b8281106101c9578a8a7fce02315fb96cbb0454e42d85a6b1d9cfe79538fc4b258c8e3b924b99bcd7a02a60408c815190815260209485820152a160405190828201838352815180915283604084019201935f5b82811061018b5784840385f35b85518051855280830151858401526040808201519086015260608082015190860152608090810151908501529481019460a09093019260010161017e565b5f9a999a5b8881106101e757506101df9061144b565b99989961012b565b935f805f5b8881106102c157508d8d83156102b75750506127109080828102048214811517156102a3578e926102218f938b90840261148a565b925b8311610299575b9361028e938782948f94610294988f8e610288988f8e61024d9161025495611640565b3596611640565b35604051946102628661140f565b855260208501526040840152606083015260808201526102828383611650565b52611650565b5061144b565b9461144b565b6101ce565b919d508d9161022a565b634e487b7160e01b5f52601160045260245ffd5b9190925f92610223565b6102cc818a8d611459565b351561037b576102dd818a8d611459565b3561271081818102048114821517156102a3578c918b91670de0b6b3a764000091020461030b888b8f611640565b35111580610357575b610329575b50506103249061144b565b6101ec565b9261034683610324949561034061034d959861144b565b97611459565b359061147d565b9190508a89610319565b508d6103738b604061036a878688611459565b0135928b611640565b351015610314565b8a895f61030b888b8f611640565b60209060409a999a5161039b8161140f565b5f8152825f818301525f60408301525f60608301525f6080830152828d0101520198979861011c565b60405163b4fa3fb360e01b8152600490fd5b5082156100e2565b604051637bfbc40b60e11b8152600490fd5b5f80fd5b346103f05760203660031901126103f0576004356001600160401b0381116103f057610424903690600401611289565b60405161010081018181106001600160401b038211176105b6575f9160e0916040528281528260208201528260408201528260608201528260808201528260a08201528260c0820152015280156103de576103e881116103c4575f90815f198180805b8581106105fa5750846104b06104aa826104a4816104b59661148a565b9961148a565b956114a8565b61148a565b916104bf85611664565b86865f5b8181106105d057506104eb6104e6845f6104e06104f19751611696565b916116c3565b6117d7565b9961183a565b90857fcfe57e905ab17a85e457e7deecc108449d49cdd26719290c306542b53b0ec366604080518a8152876020820152a25f1981036105ca57505f905b6040519761010089018981106001600160401b038211176105b6576101009960e0916040528981526020810192835260408101938452606081019485526080810195865260a0810196875260c08101978852019687526040519788525160208801525160408701525160608601525160808501525160a08401525160c08301525160e0820152f35b634e487b7160e01b5f52604160045260245ffd5b9061052e565b906105f29250816105e1918c611459565b356105ec8285611650565b5261144b565b8688916104c3565b959061060e6106249161034689898c611459565b91602061061c89898c611459565b01359061147d565b9561063081878a611459565b35610697575b8361064282888b611459565b3510610683575b8261065582888b611459565b351161066a575b6106659061144b565b610487565b915061066561067a83878a611459565b3592905061065c565b9250610690838689611459565b3592610649565b936106a19061144b565b93610636565b346103f0576101203660031901126103f057600435602435906044356064359260843560a4359260c4359060e4359661010435916040516106e7816113f4565b5f81525f602082015260406106fa611503565b91015287158015610907575b6103c4578588116103c45780156103c45781156103c4575f95889493929190855b8181111561082b5750505090670de0b6b3a764000061074961079f93866114bf565b0498604051998a95869563212cc6e560e11b87526101c09a8b998360048a0194919260e0969399989794919961010087019a8752602087015260408601526060850152608084015260a083015260c08201520152565b03815f305af190811561082057610200946107ef935f936107f1575b5050604080516107ca816113f4565b8581526020810192835201918252604051938452516020840152516040830190611327565bf35b610811929350803d10610819575b610809818361142a565b81019061155c565b9085806107bb565b503d6107ff565b6040513d5f823e3d90fd5b90919293949550888b8883896108a48a670de0b6b3a764000061084e8c866114bf565b0495604051968795869563212cc6e560e11b87526101c09a8b998360048a0194919260e0969399989794919961010087019a8752602087015260408601526060850152608084015260a083015260c08201520152565b03815f305af19081156108205760e0925f926108ea575b505001518881116108de575b50826108d29161147d565b90899594939291610727565b909950965088826108c7565b6109009250803d1061081957610809818361142a565b8d806108bb565b508515610706565b346103f05760e03660031901126103f0576001600160401b036044358181116103f0576109409036906004016112f7565b916064359081116103f0576109599036906004016112f7565b83929192158015610b96575b6103c45761097381856114bf565b9261097d84611629565b9461098b604051968761142a565b848652601f1961099a86611629565b015f5b818110610b7f5750505f805b828110610a455786886040519182527f2218b4fcf560dd36c548fb0ac486b85c68763a82fff0cafe334e2f44be6f3e5060208093a160405190828201838352815180915283604084019201935f5b828110610a045784840385f35b90919282608082610a366001948a51606080918051845260208101516020850152604081015160408501520151910152565b019601910194929190946109f7565b5f5b858110610a5d5750610a589061144b565b6109a9565b91610ac9610a78608435610a7285888c611640565b356114bf565b610ac4612710610a95610a8c888c8c611640565b356024356114bf565b04610ac4612710610aaa60a4356024356114bf565b0491612710610abd60c4356024356114bf565b049461147d565b61147d565b80600435115f14610b7857610ae0906004356114d2565b60243515610b6a578061271081020461271014811517156102a357610b6591610b5f91610b13602435612710830261148a565b610b1e86898d611640565b3591610b2b888c8c611640565b3560405193610b39856113d9565b8452602084015260408301526060820152610b54828d611650565b52610288818c611650565b9261144b565b610a47565b610b6591610b5f915f610b13565b505f610ae0565b602090610b8a6114df565b82828b0101520161099d565b508015610965565b346103f0576101003660031901126103f05760a435600435610bbe611503565b5080156103c457608435158015610db1575b6103c457612710610be3602435836114bf565b04610bf26064356044356114bf565b90612710610c0260c435856114bf565b04612710610c1260e435866114bf565b0494610c2686610ac484610ac4888861147d565b908580821115610da957610c39916114d2565b81811115610da257610c4b82826114d2565b915b612710830297831598848104612710148a17156102a35788610c6e9161148a565b94610c776114df565b9783610d0b575b6101c09a15977ff8d4e3610cbf53d4af8faed23c01aaca89ea1a22b855e591360bbc55071c917b60606040518d81528960208201528b6040820152a16040519a610cc78c6113bd565b8b5260208b015260408a01526060890152608088015260a087015260c086015260e08501526101008401526101208301526101408201526107ef6040518092611327565b612710880288810461271014891517156102a35784610d299161148a565b8952612710810281810461271014821517156102a35784610d499161148a565b60208a01528161271081020461271014821517156102a357610d6f84612710840261148a565b60408a015261271083029a838c0461271014841517156102a357610d96856101c09d61148a565b60608b01529a50610c7e565b5f91610c4d565b50505f610c39565b508115610bd0565b346103f05760403660031901126103f0576001600160401b036004358181116103f057610dea903690600401611289565b9060249283359081116103f057610e059036906004016112f7565b9383156103de5784840361101f575f925f955f5b868110610f815787610e3588610e2f818a61148a565b9261148a565b90670de0b6b3a7640000821115610eb857610eb4604051610e55816113f4565b602d81527f47617320636f73747320617265206a75737469666965642062792070726f666960208201526c7473202d20434f4e54494e554560981b60408201525b604051938493845260208401526060604084015260608301906112b9565b0390f35b6706f05b59d3b20000821115610f2c57610eb4604051610ed7816113f4565b603881527f47617320636f73747320617265206d617267696e616c202d204f5054494d495a60208201527f45206f7220494e4352454153452054524144452053495a4500000000000000006040820152610e96565b610eb4604051610f3b816113f4565b602e81527f47617320636f737473206578636565642070726f66697473202d205245434f4e60208201526d534944455220535452415445475960901b6040820152610e96565b610faf610fa8610f92838589611640565b356020610fa0858c89611459565b0135906114bf565b809761147d565b9580610fc5575b50610fc09061144b565b610e19565b610fd38289869b949b611459565b35670de0b6b3a76400009081810291818304149015171561100c5791610fff61100592610fc09461148a565b9061147d565b9790610fb6565b85634e487b7160e01b5f5260116004525ffd5b60405163512509d360e11b8152600490fd5b346103f057366003190161012081126103f057610100136103f0576001600160401b03610104358181116103f05761106d903690600401611289565b91909260c0810190808210838311176105b65760a0916040525f81525f60208201525f6040820152606091815f84809401525f6080820152015282156103de57600435906044358083111561128257670de0b6b3a76400006110d76110d283866114d2565b6114a8565b045b603281101561127c57506032945b6110f081611664565b5f5b82811061125a575061110c815f6104e06111119451611696565b6118ed565b9661111b82611664565b915f5b8181106112395750505061113a815f6104e061113f9451611696565b611931565b92601e84018094116102a35760c435916096830292808404609614901517156102a3578115611230576111719161196c565b915b61118160a43560e4356119c0565b937f4682a24db80119847024aa747650b50f14fd55b9630f4a7615212e6206c94b9f826040518981528a6020820152866040820152a16040519660c08801968711888810176105b657610eb496604052875260208701978852604087019081526064828801930483526080870193845260a087019485526040519788976020895251602089015251604088015251908601525160808501525160a08401525160c08084015260e08301906112b9565b50505f91611173565b8086611249611255938587611459565b01356105ec8287611650565b61111e565b80604061126b61127793868d611459565b01356105ec8285611650565b6110f2565b946110e7565b60326110d9565b9181601f840112156103f0578235916001600160401b0383116103f0576020808501948460071b0101116103f057565b91908251928382525f5b8481106112e3575050825f602080949584010152601f8019910116010190565b6020818301810151848301820152016112c3565b9181601f840112156103f0578235916001600160401b0383116103f0576020808501948460051b0101116103f057565b906113bb91805182526020810151602083015260408101516040830152606081015160608301526080810151608083015260a081015160a083015260c081015160c083015260e081015160e083015261010080820151908301526101208082015115159083015261014080910151910190606080918051845260208101516020850152604081015160408501520151910152565b565b61016081019081106001600160401b038211176105b657604052565b608081019081106001600160401b038211176105b657604052565b606081019081106001600160401b038211176105b657604052565b60a081019081106001600160401b038211176105b657604052565b90601f801991011681019081106001600160401b038211176105b657604052565b5f1981146102a35760010190565b91908110156114695760071b0190565b634e487b7160e01b5f52603260045260245ffd5b919082018092116102a357565b8115611494570490565b634e487b7160e01b5f52601260045260245ffd5b90612710918281029281840414901517156102a357565b818102929181159184041417156102a357565b919082039182116102a357565b604051906114ec826113d9565b5f6060838281528260208201528260408201520152565b60405190611510826113bd565b815f8082528060208301528060408301528060608301528060808301528060a08301528060c08301528060e0830152806101008301526101208201526101406115576114df565b910152565b809103906101c082126103f05760405191611576836113bd565b815183526020820151602084015260408201516040840152606082015160608401526080820151608084015260a082015160a084015260c082015160c084015260e082015160e08401526101008083015190840152610120908183015180151581036103f05760809285015261013f1901126103f057604051906115f9826113d9565b6101a061014091828101518452610160810151602085015261018081015160408501520151606083015282015290565b6001600160401b0381116105b65760051b60200190565b91908110156114695760051b0190565b80518210156114695760209160051b010190565b9061166e82611629565b61167b604051918261142a565b828152809261168c601f1991611629565b0190602036910137565b905f1982019182136001166102a357565b9060018201915f6001841291129080158216911516176102a357565b918082126116d057505090565b6116da8184611650565b516116e483611696565b90835b83811261176257505061173961174a916117018487611650565b51611733611717611711846116a7565b89611650565b51611721846116a7565b9061172c888b611650565b5288611650565b526116a7565b9261174384611696565b90856116c3565b61175e9261175891506116a7565b836116c3565b5090565b8161176d8288611650565b5110611782575b61177d906117c3565b6116e7565b9161178f61177d916117c3565b9261179a8188611650565b516117a58589611650565b516117b0838a611650565b526117bb8589611650565b529050611774565b6001600160ff1b0381146102a35760010190565b80519081156118345760019180831683036117fe575080516117fa921c90611650565b5190565b821c905f1982019182116102a35761182861181c61182f9383611650565b51918051851c90611650565b519061147d565b901c90565b50505f90565b91909182156118e657905f9182915b84831061186857505050611865916118609161148a565b611bd4565b90565b9091926118b36118b9918361187e878988611459565b3511156118c057670de0b6b3a76400006118ac6118a6866118a08a8c8b611459565b356114d2565b806114bf565b049061147d565b9361144b565b9190611849565b670de0b6b3a76400006118ac6118e16118da898b8a611459565b35876114d2565b6118a6565b5050505f90565b8051801561183457605f8102908104605f036102a35781516064909104908110611928575080515f1981019081116102a3576117fa91611650565b6117fa91611650565b8051801561183457606381029081046063036102a35781516064909104908110611928575080515f1981019081116102a3576117fa91611650565b9080156119b857670de0b6b3a76400009182820291820483036102a3576119929161148a565b818110156118345781018091116102a35780156114945769021e19e0c9bab24000000490565b505061271090565b600a11611b7457612328811015611b1457611d4c811015611ab4576113881115611a55576040516119f0816113d9565b604981527f4c4f5720535543434553532052415445202d20436f6e7369646572206d6f726560208201527f206167677265737369766520706172616d6574657273206f722073747261746560408201526867792072657669657760b81b606082015290565b604051611a61816113f4565b603881527f4d4f44455241544520535543434553532052415445202d20506172616d65746560208201527f7273206d6179206e656564206f7074696d697a6174696f6e0000000000000000604082015290565b50604051611ac1816113f4565b603d81527f474f4f4420535543434553532052415445202d20506172616d6574657273206160208201527f72652062616c616e63656420666f722070726f6669746162696c697479000000604082015290565b50604051611b21816113f4565b603f81527f4849474820535543434553532052415445202d20506172616d6574657273206160208201527f726520636f6e73657276617469766520616e642077656c6c2d74657374656400604082015290565b50604051611b81816113f4565b603c81527f494e53554646494349454e542044415441202d205265636f6d6d656e6461746960208201527f6f6e73206261736564206f6e206c696d697465642073616d706c657300000000604082015290565b8015611c1f576001808214611c1a578082018083116102a357811c90825b838310611bff5750505090565b90919250611c1183610ac4818461148a565b821c9190611bf2565b905090565b505f9056fea2646970667358221220584549a349c6cdf1d65eba612b838c569684bfd794cd9c205d262ef03a0efc7664736f6c63430008140033",
			"opcodes": "PUSH1 0x80 DUP1 PUSH1 0x40 MSTORE CALLVALUE PUSH2 0x16 JUMPI PUSH2 0x1C5A SWAP1 DUP2 PUSH2 0x1B DUP3 CODECOPY RETURN JUMPDEST PUSH0 DUP1 REVERT INVALID PUSH1 0x80 DUP1 PUSH1 0x40 MSTORE PUSH1 0x4 CALLDATASIZE LT ISZERO PUSH2 0x12 JUMPI PUSH0 DUP1 REVERT JUMPDEST PUSH0 CALLDATALOAD PUSH1 0xE0 SHR SWAP1 DUP2 PUSH4 0xB54DB8F EQ PUSH2 0x1031 JUMPI POP DUP1 PUSH4 0x248FC940 EQ PUSH2 0xDB9 JUMPI DUP1 PUSH4 0x42598DCA EQ PUSH2 0xB9E JUMPI DUP1 PUSH4 0x5C5D15CD EQ PUSH2 0x90F JUMPI DUP1 PUSH4 0x714C179A EQ PUSH2 0x6A7 JUMPI DUP1 PUSH4 0xD22AE846 EQ PUSH2 0x3F4 JUMPI PUSH4 0xE91CA8B6 EQ PUSH2 0x69 JUMPI PUSH0 DUP1 REVERT JUMPDEST CALLVALUE PUSH2 0x3F0 JUMPI PUSH1 0x60 CALLDATASIZE PUSH1 0x3 NOT ADD SLT PUSH2 0x3F0 JUMPI PUSH1 0x1 PUSH1 0x1 PUSH1 0x40 SHL SUB PUSH1 0x4 CALLDATALOAD DUP2 DUP2 GT PUSH2 0x3F0 JUMPI PUSH2 0x9A SWAP1 CALLDATASIZE SWAP1 PUSH1 0x4 ADD PUSH2 0x1289 JUMP JUMPDEST PUSH1 0x24 SWAP3 SWAP2 SWAP3 CALLDATALOAD DUP3 DUP2 GT PUSH2 0x3F0 JUMPI PUSH2 0xB5 SWAP1 CALLDATASIZE SWAP1 PUSH1 0x4 ADD PUSH2 0x12F7 JUMP JUMPDEST SWAP4 SWAP1 SWAP3 PUSH1 0x44 CALLDATALOAD SWAP1 DUP2 GT PUSH2 0x3F0 JUMPI PUSH2 0xD0 SWAP1 CALLDATASIZE SWAP1 PUSH1 0x4 ADD PUSH2 0x12F7 JUMP JUMPDEST SWAP2 SWAP1 SWAP4 DUP4 ISZERO PUSH2 0x3DE JUMPI DUP6 ISZERO DUP1 ISZERO PUSH2 0x3D6 JUMPI JUMPDEST PUSH2 0x3C4 JUMPI PUSH2 0xF2 DUP4 DUP8 SWAP7 SWAP8 PUSH2 0x14BF JUMP JUMPDEST SWAP4 PUSH2 0xFC DUP6 PUSH2 0x1629 JUMP JUMPDEST SWAP6 PUSH2 0x10A PUSH1 0x40 MLOAD SWAP8 DUP9 PUSH2 0x142A JUMP JUMPDEST DUP6 DUP8 MSTORE PUSH1 0x1F NOT PUSH2 0x119 DUP8 PUSH2 0x1629 JUMP JUMPDEST ADD PUSH0 JUMPDEST DUP2 DUP2 LT PUSH2 0x389 JUMPI POP POP PUSH0 SWAP1 PUSH0 SWAP9 PUSH0 JUMPDEST DUP3 DUP2 LT PUSH2 0x1C9 JUMPI DUP11 DUP11 PUSH32 0xCE02315FB96CBB0454E42D85A6B1D9CFE79538FC4B258C8E3B924B99BCD7A02A PUSH1 0x40 DUP13 DUP2 MLOAD SWAP1 DUP2 MSTORE PUSH1 0x20 SWAP5 DUP6 DUP3 ADD MSTORE LOG1 PUSH1 0x40 MLOAD SWAP1 DUP3 DUP3 ADD DUP4 DUP4 MSTORE DUP2 MLOAD DUP1 SWAP2 MSTORE DUP4 PUSH1 0x40 DUP5 ADD SWAP3 ADD SWAP4 PUSH0 JUMPDEST DUP3 DUP2 LT PUSH2 0x18B JUMPI DUP5 DUP5 SUB DUP6 RETURN JUMPDEST DUP6 MLOAD DUP1 MLOAD DUP6 MSTORE DUP1 DUP4 ADD MLOAD DUP6 DUP5 ADD MSTORE PUSH1 0x40 DUP1 DUP3 ADD MLOAD SWAP1 DUP7 ADD MSTORE PUSH1 0x60 DUP1 DUP3 ADD MLOAD SWAP1 DUP7 ADD MSTORE PUSH1 0x80 SWAP1 DUP2 ADD MLOAD SWAP1 DUP6 ADD MSTORE SWAP5 DUP2 ADD SWAP5 PUSH1 0xA0 SWAP1 SWAP4 ADD SWAP3 PUSH1 0x1 ADD PUSH2 0x17E JUMP JUMPDEST PUSH0 SWAP11 SWAP10 SWAP11 JUMPDEST DUP9 DUP2 LT PUSH2 0x1E7 JUMPI POP PUSH2 0x1DF SWAP1 PUSH2 0x144B JUMP JUMPDEST SWAP10 SWAP9 SWAP10 PUSH2 0x12B JUMP JUMPDEST SWAP4 PUSH0 DUP1 PUSH0 JUMPDEST DUP9 DUP2 LT PUSH2 0x2C1 JUMPI POP DUP14 DUP14 DUP4 ISZERO PUSH2 0x2B7 JUMPI POP POP PUSH2 0x2710 SWAP1 DUP1 DUP3 DUP2 MUL DIV DUP3 EQ DUP2 ISZERO OR ISZERO PUSH2 0x2A3 JUMPI DUP15 SWAP3 PUSH2 0x221 DUP16 SWAP4 DUP12 SWAP1 DUP5 MUL PUSH2 0x148A JUMP JUMPDEST SWAP3 JUMPDEST DUP4 GT PUSH2 0x299 JUMPI JUMPDEST SWAP4 PUSH2 0x28E SWAP4 DUP8 DUP3 SWAP5 DUP16 SWAP5 PUSH2 0x294 SWAP9 DUP16 DUP15 PUSH2 0x288 SWAP9 DUP16 DUP15 PUSH2 0x24D SWAP2 PUSH2 0x254 SWAP6 PUSH2 0x1640 JUMP JUMPDEST CALLDATALOAD SWAP7 PUSH2 0x1640 JUMP JUMPDEST CALLDATALOAD PUSH1 0x40 MLOAD SWAP5 PUSH2 0x262 DUP7 PUSH2 0x140F JUMP JUMPDEST DUP6 MSTORE PUSH1 0x20 DUP6 ADD MSTORE PUSH1 0x40 DUP5 ADD MSTORE PUSH1 0x60 DUP4 ADD MSTORE PUSH1 0x80 DUP3 ADD MSTORE PUSH2 0x282 DUP4 DUP4 PUSH2 0x1650 JUMP JUMPDEST MSTORE PUSH2 0x1650 JUMP JUMPDEST POP PUSH2 0x144B JUMP JUMPDEST SWAP5 PUSH2 0x144B JUMP JUMPDEST PUSH2 0x1CE JUMP JUMPDEST SWAP2 SWAP14 POP DUP14 SWAP2 PUSH2 0x22A JUMP JUMPDEST PUSH4 0x4E487B71 PUSH1 0xE0 SHL PUSH0 MSTORE PUSH1 0x11 PUSH1 0x4 MSTORE PUSH1 0x24 PUSH0 REVERT JUMPDEST SWAP2 SWAP1 SWAP3 PUSH0 SWAP3 PUSH2 0x223 JUMP JUMPDEST PUSH2 0x2CC DUP2 DUP11 DUP14 PUSH2 0x1459 JUMP JUMPDEST CALLDATALOAD ISZERO PUSH2 0x37B JUMPI PUSH2 0x2DD DUP2 DUP11 DUP14 PUSH2 0x1459 JUMP JUMPDEST CALLDATALOAD PUSH2 0x2710 DUP2 DUP2 DUP2 MUL DIV DUP2 EQ DUP3 ISZERO OR ISZERO PUSH2 0x2A3 JUMPI DUP13 SWAP2 DUP12 SWAP2 PUSH8 0xDE0B6B3A7640000 SWAP2 MUL DIV PUSH2 0x30B DUP9 DUP12 DUP16 PUSH2 0x1640 JUMP JUMPDEST CALLDATALOAD GT ISZERO DUP1 PUSH2 0x357 JUMPI JUMPDEST PUSH2 0x329 JUMPI JUMPDEST POP POP PUSH2 0x324 SWAP1 PUSH2 0x144B JUMP JUMPDEST PUSH2 0x1EC JUMP JUMPDEST SWAP3 PUSH2 0x346 DUP4 PUSH2 0x324 SWAP5 SWAP6 PUSH2 0x340 PUSH2 0x34D SWAP6 SWAP9 PUSH2 0x144B JUMP JUMPDEST SWAP8 PUSH2 0x1459 JUMP JUMPDEST CALLDATALOAD SWAP1 PUSH2 0x147D JUMP JUMPDEST SWAP2 SWAP1 POP DUP11 DUP10 PUSH2 0x319 JUMP JUMPDEST POP DUP14 PUSH2 0x373 DUP12 PUSH1 0x40 PUSH2 0x36A DUP8 DUP7 DUP9 PUSH2 0x1459 JUMP JUMPDEST ADD CALLDATALOAD SWAP3 DUP12 PUSH2 0x1640 JUMP JUMPDEST CALLDATALOAD LT ISZERO PUSH2 0x314 JUMP JUMPDEST DUP11 DUP10 PUSH0 PUSH2 0x30B DUP9 DUP12 DUP16 PUSH2 0x1640 JUMP JUMPDEST PUSH1 0x20 SWAP1 PUSH1 0x40 SWAP11 SWAP10 SWAP11 MLOAD PUSH2 0x39B DUP2 PUSH2 0x140F JUMP JUMPDEST PUSH0 DUP2 MSTORE DUP3 PUSH0 DUP2 DUP4 ADD MSTORE PUSH0 PUSH1 0x40 DUP4 ADD MSTORE PUSH0 PUSH1 0x60 DUP4 ADD MSTORE PUSH0 PUSH1 0x80 DUP4 ADD MSTORE DUP3 DUP14 ADD ADD MSTORE ADD SWAP9 SWAP8 SWAP9 PUSH2 0x11C JUMP JUMPDEST PUSH1 0x40 MLOAD PUSH4 0xB4FA3FB3 PUSH1 0xE0 SHL DUP2 MSTORE PUSH1 0x4 SWAP1 REVERT JUMPDEST POP DUP3 ISZERO PUSH2 0xE2 JUMP JUMPDEST PUSH1 0x40 MLOAD PUSH4 0x7BFBC40B PUSH1 0xE1 SHL DUP2 MSTORE PUSH1 0x4 SWAP1 REVERT JUMPDEST PUSH0 DUP1 REVERT JUMPDEST CALLVALUE PUSH2 0x3F0 JUMPI PUSH1 0x20 CALLDATASIZE PUSH1 0x3 NOT ADD SLT PUSH2 0x3F0 JUMPI PUSH1 0x4 CALLDATALOAD PUSH1 0x1 PUSH1 0x1 PUSH1 0x40 SHL SUB DUP2 GT PUSH2 0x3F0 JUMPI PUSH2 0x424 SWAP1 CALLDATASIZE SWAP1 PUSH1 0x4 ADD PUSH2 0x1289 JUMP JUMPDEST PUSH1 0x40 MLOAD PUSH2 0x100 DUP2 ADD DUP2 DUP2 LT PUSH1 0x1 PUSH1 0x1 PUSH1 0x40 SHL SUB DUP3 GT OR PUSH2 0x5B6 JUMPI PUSH0 SWAP2 PUSH1 0xE0 SWAP2 PUSH1 0x40 MSTORE DUP3 DUP2 MSTORE DUP3 PUSH1 0x20 DUP3 ADD MSTORE DUP3 PUSH1 0x40 DUP3 ADD MSTORE DUP3 PUSH1 0x60 DUP3 ADD MSTORE DUP3 PUSH1 0x80 DUP3 ADD MSTORE DUP3 PUSH1 0xA0 DUP3 ADD MSTORE DUP3 PUSH1 0xC0 DUP3 ADD MSTORE ADD MSTORE DUP1 ISZERO PUSH2 0x3DE JUMPI PUSH2 0x3E8 DUP2 GT PUSH2 0x3C4 JUMPI PUSH0 SWAP1 DUP2 PUSH0 NOT DUP2 DUP1 DUP1 JUMPDEST DUP6 DUP2 LT PUSH2 0x5FA JUMPI POP DUP5 PUSH2 0x4B0 PUSH2 0x4AA DUP3 PUSH2 0x4A4 DUP2 PUSH2 0x4B5 SWAP7 PUSH2 0x148A JUMP JUMPDEST SWAP10 PUSH2 0x148A JUMP JUMPDEST SWAP6 PUSH2 0x14A8 JUMP JUMPDEST PUSH2 0x148A JUMP JUMPDEST SWAP2 PUSH2 0x4BF DUP6 PUSH2 0x1664 JUMP JUMPDEST DUP7 DUP7 PUSH0 JUMPDEST DUP2 DUP2 LT PUSH2 0x5D0 JUMPI POP PUSH2 0x4EB PUSH2 0x4E6 DUP5 PUSH0 PUSH2 0x4E0 PUSH2 0x4F1 SWAP8 MLOAD PUSH2 0x1696 JUMP JUMPDEST SWAP2 PUSH2 0x16C3 JUMP JUMPDEST PUSH2 0x17D7 JUMP JUMPDEST SWAP10 PUSH2 0x183A JUMP JUMPDEST SWAP1 DUP6 PUSH32 0xCFE57E905AB17A85E457E7DEECC108449D49CDD26719290C306542B53B0EC366 PUSH1 0x40 DUP1 MLOAD DUP11 DUP2 MSTORE DUP8 PUSH1 0x20 DUP3 ADD MSTORE LOG2 PUSH0 NOT DUP2 SUB PUSH2 0x5CA JUMPI POP PUSH0 SWAP1 JUMPDEST PUSH1 0x40 MLOAD SWAP8 PUSH2 0x100 DUP10 ADD DUP10 DUP2 LT PUSH1 0x1 PUSH1 0x1 PUSH1 0x40 SHL SUB DUP3 GT OR PUSH2 0x5B6 JUMPI PUSH2 0x100 SWAP10 PUSH1 0xE0 SWAP2 PUSH1 0x40 MSTORE DUP10 DUP2 MSTORE PUSH1 0x20 DUP2 ADD SWAP3 DUP4 MSTORE PUSH1 0x40 DUP2 ADD SWAP4 DUP5 MSTORE PUSH1 0x60 DUP2 ADD SWAP5 DUP6 MSTORE PUSH1 0x80 DUP2 ADD SWAP6 DUP7 MSTORE PUSH1 0xA0 DUP2 ADD SWAP7 DUP8 MSTORE PUSH1 0xC0 DUP2 ADD SWAP8 DUP9 MSTORE ADD SWAP7 DUP8 MSTORE PUSH1 0x40 MLOAD SWAP8 DUP9 MSTORE MLOAD PUSH1 0x20 DUP9 ADD MSTORE MLOAD PUSH1 0x40 DUP8 ADD MSTORE MLOAD PUSH1 0x60 DUP7 ADD MSTORE MLOAD PUSH1 0x80 DUP6 ADD MSTORE MLOAD PUSH1 0xA0 DUP5 ADD MSTORE MLOAD PUSH1 0xC0 DUP4 ADD MSTORE MLOAD PUSH1 0xE0 DUP3 ADD MSTORE RETURN JUMPDEST PUSH4 0x4E487B71 PUSH1 0xE0 SHL PUSH0 MSTORE PUSH1 0x41 PUSH1 0x4 MSTORE PUSH1 0x24 PUSH0 REVERT JUMPDEST SWAP1 PUSH2 0x52E JUMP JUMPDEST SWAP1 PUSH2 0x5F2 SWAP3 POP DUP2 PUSH2 0x5E1 SWAP2 DUP13 PUSH2 0x1459 JUMP JUMPDEST CALLDATALOAD PUSH2 0x5EC DUP3 DUP6 PUSH2 0x1650 JUMP JUMPDEST MSTORE PUSH2 0x144B JUMP JUMPDEST DUP7 DUP9 SWAP2 PUSH2 0x4C3 JUMP JUMPDEST SWAP6 SWAP1 PUSH2 0x60E PUSH2 0x624 SWAP2 PUSH2 0x346 DUP10 DUP10 DUP13 PUSH2 0x1459 JUMP JUMPDEST SWAP2 PUSH1 0x20 PUSH2 0x61C DUP10 DUP10 DUP13 PUSH2 0x1459 JUMP JUMPDEST ADD CALLDATALOAD SWAP1 PUSH2 0x147D JUMP JUMPDEST SWAP6 PUSH2 0x630 DUP2 DUP8 DUP11 PUSH2 0x1459 JUMP JUMPDEST CALLDATALOAD PUSH2 0x697 JUMPI JUMPDEST DUP4 PUSH2 0x642 DUP3 DUP9 DUP12 PUSH2 0x1459 JUMP JUMPDEST CALLDATALOAD LT PUSH2 0x683 JUMPI JUMPDEST DUP3 PUSH2 0x655 DUP3 DUP9 DUP12 PUSH2 0x1459 JUMP JUMPDEST CALLDATALOAD GT PUSH2 0x66A JUMPI JUMPDEST PUSH2 0x665 SWAP1 PUSH2 0x144B JUMP JUMPDEST PUSH2 0x487 JUMP JUMPDEST SWAP2 POP PUSH2 0x665 PUSH2 0x67A DUP4 DUP8 DUP11 PUSH2 0x1459 JUMP JUMPDEST CALLDATALOAD SWAP3 SWAP1 POP PUSH2 0x65C JUMP JUMPDEST SWAP3 POP PUSH2 0x690 DUP4 DUP7 DUP10 PUSH2 0x1459 JUMP JUMPDEST CALLDATALOAD SWAP3 PUSH2 0x649 JUMP JUMPDEST SWAP4 PUSH2 0x6A1 SWAP1 PUSH2 0x144B JUMP JUMPDEST SWAP4 PUSH2 0x636 JUMP JUMPDEST CALLVALUE PUSH2 0x3F0 JUMPI PUSH2 0x120 CALLDATASIZE PUSH1 0x3 NOT ADD SLT PUSH2 0x3F0 JUMPI PUSH1 0x4 CALLDATALOAD PUSH1 0x24 CALLDATALOAD SWAP1 PUSH1 0x44 CALLDATALOAD PUSH1 0x64 CALLDATALOAD SWAP3 PUSH1 0x84 CALLDATALOAD PUSH1 0xA4 CALLDATALOAD SWAP3 PUSH1 0xC4 CALLDATALOAD SWAP1 PUSH1 0xE4 CALLDATALOAD SWAP7 PUSH2 0x104 CALLDATALOAD SWAP2 PUSH1 0x40 MLOAD PUSH2 0x6E7 DUP2 PUSH2 0x13F4 JUMP JUMPDEST PUSH0 DUP2 MSTORE PUSH0 PUSH1 0x20 DUP3 ADD MSTORE PUSH1 0x40 PUSH2 0x6FA PUSH2 0x1503 JUMP JUMPDEST SWAP2 ADD MSTORE DUP8 ISZERO DUP1 ISZERO PUSH2 0x907 JUMPI JUMPDEST PUSH2 0x3C4 JUMPI DUP6 DUP9 GT PUSH2 0x3C4 JUMPI DUP1 ISZERO PUSH2 0x3C4 JUMPI DUP2 ISZERO PUSH2 0x3C4 JUMPI PUSH0 SWAP6 DUP9 SWAP5 SWAP4 SWAP3 SWAP2 SWAP1 DUP6 JUMPDEST DUP2 DUP2 GT ISZERO PUSH2 0x82B JUMPI POP POP POP SWAP1 PUSH8 0xDE0B6B3A7640000 PUSH2 0x749 PUSH2 0x79F SWAP4 DUP7 PUSH2 0x14BF JUMP JUMPDEST DIV SWAP9 PUSH1 0x40 MLOAD SWAP10 DUP11 SWAP6 DUP7 SWAP6 PUSH4 0x212CC6E5 PUSH1 0xE1 SHL DUP8 MSTORE PUSH2 0x1C0 SWAP11 DUP12 SWAP10 DUP4 PUSH1 0x4 DUP11 ADD SWAP5 SWAP2 SWAP3 PUSH1 0xE0 SWAP7 SWAP4 SWAP10 SWAP9 SWAP8 SWAP5 SWAP2 SWAP10 PUSH2 0x100 DUP8 ADD SWAP11 DUP8 MSTORE PUSH1 0x20 DUP8 ADD MSTORE PUSH1 0x40 DUP7 ADD MSTORE PUSH1 0x60 DUP6 ADD MSTORE PUSH1 0x80 DUP5 ADD MSTORE PUSH1 0xA0 DUP4 ADD MSTORE PUSH1 0xC0 DUP3 ADD MSTORE ADD MSTORE JUMP JUMPDEST SUB DUP2 PUSH0 ADDRESS GAS CALL SWAP1 DUP2 ISZERO PUSH2 0x820 JUMPI PUSH2 0x200 SWAP5 PUSH2 0x7EF SWAP4 PUSH0 SWAP4 PUSH2 0x7F1 JUMPI JUMPDEST POP POP PUSH1 0x40 DUP1 MLOAD PUSH2 0x7CA DUP2 PUSH2 0x13F4 JUMP JUMPDEST DUP6 DUP2 MSTORE PUSH1 0x20 DUP2 ADD SWAP3 DUP4 MSTORE ADD SWAP2 DUP3 MSTORE PUSH1 0x40 MLOAD SWAP4 DUP5 MSTORE MLOAD PUSH1 0x20 DUP5 ADD MSTORE MLOAD PUSH1 0x40 DUP4 ADD SWAP1 PUSH2 0x1327 JUMP JUMPDEST RETURN JUMPDEST PUSH2 0x811 SWAP3 SWAP4 POP DUP1 RETURNDATASIZE LT PUSH2 0x819 JUMPI JUMPDEST PUSH2 0x809 DUP2 DUP4 PUSH2 0x142A JUMP JUMPDEST DUP2 ADD SWAP1 PUSH2 0x155C JUMP JUMPDEST SWAP1 DUP6 DUP1 PUSH2 0x7BB JUMP JUMPDEST POP RETURNDATASIZE PUSH2 0x7FF JUMP JUMPDEST PUSH1 0x40 MLOAD RETURNDATASIZE PUSH0 DUP3 RETURNDATACOPY RETURNDATASIZE SWAP1 REVERT JUMPDEST SWAP1 SWAP2 SWAP3 SWAP4 SWAP5 SWAP6 POP DUP9 DUP12 DUP9 DUP4 DUP10 PUSH2 0x8A4 DUP11 PUSH8 0xDE0B6B3A7640000 PUSH2 0x84E DUP13 DUP7 PUSH2 0x14BF JUMP JUMPDEST DIV SWAP6 PUSH1 0x40 MLOAD SWAP7 DUP8 SWAP6 DUP7 SWAP6 PUSH4 0x212CC6E5 PUSH1 0xE1 SHL DUP8 MSTORE PUSH2 0x1C0 SWAP11 DUP12 SWAP10 DUP4 PUSH1 0x4 DUP11 ADD SWAP5 SWAP2 SWAP3 PUSH1 0xE0 SWAP7 SWAP4 SWAP10 SWAP9 SWAP8 SWAP5 SWAP2 SWAP10 PUSH2 0x100 DUP8 ADD SWAP11 DUP8 MSTORE PUSH1 0x20 DUP8 ADD MSTORE PUSH1 0x40 DUP7 ADD MSTORE PUSH1 0x60 DUP6 ADD MSTORE PUSH1 0x80 DUP5 ADD MSTORE PUSH1 0xA0 DUP4 ADD MSTORE PUSH1 0xC0 DUP3 ADD MSTORE ADD MSTORE JUMP JUMPDEST SUB DUP2 PUSH0 ADDRESS GAS CALL SWAP1 DUP2 ISZERO PUSH2 0x820 JUMPI PUSH1 0xE0 SWAP3 PUSH0 SWAP3 PUSH2 0x8EA JUMPI JUMPDEST POP POP ADD MLOAD DUP9 DUP2 GT PUSH2 0x8DE JUMPI JUMPDEST POP DUP3 PUSH2 0x8D2 SWAP2 PUSH2 0x147D JUMP JUMPDEST SWAP1 DUP10 SWAP6 SWAP5 SWAP4 SWAP3 SWAP2 PUSH2 0x727 JUMP JUMPDEST SWAP1 SWAP10 POP SWAP7 POP DUP9 DUP3 PUSH2 0x8C7 JUMP JUMPDEST PUSH2 0x900 SWAP3 POP DUP1 RETURNDATASIZE LT PUSH2 0x819 JUMPI PUSH2 0x809 DUP2 DUP4 PUSH2 0x142A JUMP JUMPDEST DUP14 DUP1 PUSH2 0x8BB JUMP JUMPDEST POP DUP6 ISZERO PUSH2 0x706 JUMP JUMPDEST CALLVALUE PUSH2 0x3F0 JUMPI PUSH1 0xE0 CALLDATASIZE PUSH1 0x3 NOT ADD SLT PUSH2 0x3F0 JUMPI PUSH1 0x1 PUSH1 0x1 PUSH1 0x40 SHL SUB PUSH1 0x44 CALLDATALOAD DUP2 DUP2 GT PUSH2 0x3F0 JUMPI PUSH2 0x940 SWAP1 CALLDATASIZE SWAP1 PUSH1 0x4 ADD PUSH2 0x12F7 JUMP JUMPDEST SWAP2 PUSH1 0x64 CALLDATALOAD SWAP1 DUP2 GT PUSH2 0x3F0 JUMPI PUSH2 0x959 SWAP1 CALLDATASIZE SWAP1 PUSH1 0x4 ADD PUSH2 0x12F7 JUMP JUMPDEST DUP4 SWAP3 SWAP2 SWAP3 ISZERO DUP1 ISZERO PUSH2 0xB96 JUMPI JUMPDEST PUSH2 0x3C4 JUMPI PUSH2 0x973 DUP2 DUP6 PUSH2 0x14BF JUMP JUMPDEST SWAP3 PUSH2 0x97D DUP5 PUSH2 0x1629 JUMP JUMPDEST SWAP5 PUSH2 0x98B PUSH1 0x40 MLOAD SWAP7 DUP8 PUSH2 0x142A JUMP JUMPDEST DUP5 DUP7 MSTORE PUSH1 0x1F NOT PUSH2 0x99A DUP7 PUSH2 0x1629 JUMP JUMPDEST ADD PUSH0 JUMPDEST DUP2 DUP2 LT PUSH2 0xB7F JUMPI POP POP PUSH0 DUP1 JUMPDEST DUP3 DUP2 LT PUSH2 0xA45 JUMPI DUP7 DUP9 PUSH1 0x40 MLOAD SWAP2 DUP3 MSTORE PUSH32 0x2218B4FCF560DD36C548FB0AC486B85C68763A82FFF0CAFE334E2F44BE6F3E50 PUSH1 0x20 DUP1 SWAP4 LOG1 PUSH1 0x40 MLOAD SWAP1 DUP3 DUP3 ADD DUP4 DUP4 MSTORE DUP2 MLOAD DUP1 SWAP2 MSTORE DUP4 PUSH1 0x40 DUP5 ADD SWAP3 ADD SWAP4 PUSH0 JUMPDEST DUP3 DUP2 LT PUSH2 0xA04 JUMPI DUP5 DUP5 SUB DUP6 RETURN JUMPDEST SWAP1 SWAP2 SWAP3 DUP3 PUSH1 0x80 DUP3 PUSH2 0xA36 PUSH1 0x1 SWAP5 DUP11 MLOAD PUSH1 0x60 DUP1 SWAP2 DUP1 MLOAD DUP5 MSTORE PUSH1 0x20 DUP2 ADD MLOAD PUSH1 0x20 DUP6 ADD MSTORE PUSH1 0x40 DUP2 ADD MLOAD PUSH1 0x40 DUP6 ADD MSTORE ADD MLOAD SWAP2 ADD MSTORE JUMP JUMPDEST ADD SWAP7 ADD SWAP2 ADD SWAP5 SWAP3 SWAP2 SWAP1 SWAP5 PUSH2 0x9F7 JUMP JUMPDEST PUSH0 JUMPDEST DUP6 DUP2 LT PUSH2 0xA5D JUMPI POP PUSH2 0xA58 SWAP1 PUSH2 0x144B JUMP JUMPDEST PUSH2 0x9A9 JUMP JUMPDEST SWAP2 PUSH2 0xAC9 PUSH2 0xA78 PUSH1 0x84 CALLDATALOAD PUSH2 0xA72 DUP6 DUP9 DUP13 PUSH2 0x1640 JUMP JUMPDEST CALLDATALOAD PUSH2 0x14BF JUMP JUMPDEST PUSH2 0xAC4 PUSH2 0x2710 PUSH2 0xA95 PUSH2 0xA8C DUP9 DUP13 DUP13 PUSH2 0x1640 JUMP JUMPDEST CALLDATALOAD PUSH1 0x24 CALLDATALOAD PUSH2 0x14BF JUMP JUMPDEST DIV PUSH2 0xAC4 PUSH2 0x2710 PUSH2 0xAAA PUSH1 0xA4 CALLDATALOAD PUSH1 0x24 CALLDATALOAD PUSH2 0x14BF JUMP JUMPDEST DIV SWAP2 PUSH2 0x2710 PUSH2 0xABD PUSH1 0xC4 CALLDATALOAD PUSH1 0x24 CALLDATALOAD PUSH2 0x14BF JUMP JUMPDEST DIV SWAP5 PUSH2 0x147D JUMP JUMPDEST PUSH2 0x147D JUMP JUMPDEST DUP1 PUSH1 0x4 CALLDATALOAD GT PUSH0 EQ PUSH2 0xB78 JUMPI PUSH2 0xAE0 SWAP1 PUSH1 0x4 CALLDATALOAD PUSH2 0x14D2 JUMP JUMPDEST PUSH1 0x24 CALLDATALOAD ISZERO PUSH2 0xB6A JUMPI DUP1 PUSH2 0x2710 DUP2 MUL DIV PUSH2 0x2710 EQ DUP2 ISZERO OR ISZERO PUSH2 0x2A3 JUMPI PUSH2 0xB65 SWAP2 PUSH2 0xB5F SWAP2 PUSH2 0xB13 PUSH1 0x24 CALLDATALOAD PUSH2 0x2710 DUP4 MUL PUSH2 0x148A JUMP JUMPDEST PUSH2 0xB1E DUP7 DUP10 DUP14 PUSH2 0x1640 JUMP JUMPDEST CALLDATALOAD SWAP2 PUSH2 0xB2B DUP9 DUP13 DUP13 PUSH2 0x1640 JUMP JUMPDEST CALLDATALOAD PUSH1 0x40 MLOAD SWAP4 PUSH2 0xB39 DUP6 PUSH2 0x13D9 JUMP JUMPDEST DUP5 MSTORE PUSH1 0x20 DUP5 ADD MSTORE PUSH1 0x40 DUP4 ADD MSTORE PUSH1 0x60 DUP3 ADD MSTORE PUSH2 0xB54 DUP3 DUP14 PUSH2 0x1650 JUMP JUMPDEST MSTORE PUSH2 0x288 DUP2 DUP13 PUSH2 0x1650 JUMP JUMPDEST SWAP3 PUSH2 0x144B JUMP JUMPDEST PUSH2 0xA47 JUMP JUMPDEST PUSH2 0xB65 SWAP2 PUSH2 0xB5F SWAP2 PUSH0 PUSH2 0xB13 JUMP JUMPDEST POP PUSH0 PUSH2 0xAE0 JUMP JUMPDEST PUSH1 0x20 SWAP1 PUSH2 0xB8A PUSH2 0x14DF JUMP JUMPDEST DUP3 DUP3 DUP12 ADD ADD MSTORE ADD PUSH2 0x99D JUMP JUMPDEST POP DUP1 ISZERO PUSH2 0x965 JUMP JUMPDEST CALLVALUE PUSH2 0x3F0 JUMPI PUSH2 0x100 CALLDATASIZE PUSH1 0x3 NOT ADD SLT PUSH2 0x3F0 JUMPI PUSH1 0xA4 CALLDATALOAD PUSH1 0x4 CALLDATALOAD PUSH2 0xBBE PUSH2 0x1503 JUMP JUMPDEST POP DUP1 ISZERO PUSH2 0x3C4 JUMPI PUSH1 0x84 CALLDATALOAD ISZERO DUP1 ISZERO PUSH2 0xDB1 JUMPI JUMPDEST PUSH2 0x3C4 JUMPI PUSH2 0x2710 PUSH2 0xBE3 PUSH1 0x24 CALLDATALOAD DUP4 PUSH2 0x14BF JUMP JUMPDEST DIV PUSH2 0xBF2 PUSH1 0x64 CALLDATALOAD PUSH1 0x44 CALLDATALOAD PUSH2 0x14BF JUMP JUMPDEST SWAP1 PUSH2 0x2710 PUSH2 0xC02 PUSH1 0xC4 CALLDATALOAD DUP6 PUSH2 0x14BF JUMP JUMPDEST DIV PUSH2 0x2710 PUSH2 0xC12 PUSH1 0xE4 CALLDATALOAD DUP7 PUSH2 0x14BF JUMP JUMPDEST DIV SWAP5 PUSH2 0xC26 DUP7 PUSH2 0xAC4 DUP5 PUSH2 0xAC4 DUP9 DUP9 PUSH2 0x147D JUMP JUMPDEST SWAP1 DUP6 DUP1 DUP3 GT ISZERO PUSH2 0xDA9 JUMPI PUSH2 0xC39 SWAP2 PUSH2 0x14D2 JUMP JUMPDEST DUP2 DUP2 GT ISZERO PUSH2 0xDA2 JUMPI PUSH2 0xC4B DUP3 DUP3 PUSH2 0x14D2 JUMP JUMPDEST SWAP2 JUMPDEST PUSH2 0x2710 DUP4 MUL SWAP8 DUP4 ISZERO SWAP9 DUP5 DUP2 DIV PUSH2 0x2710 EQ DUP11 OR ISZERO PUSH2 0x2A3 JUMPI DUP9 PUSH2 0xC6E SWAP2 PUSH2 0x148A JUMP JUMPDEST SWAP5 PUSH2 0xC77 PUSH2 0x14DF JUMP JUMPDEST SWAP8 DUP4 PUSH2 0xD0B JUMPI JUMPDEST PUSH2 0x1C0 SWAP11 ISZERO SWAP8 PUSH32 0xF8D4E3610CBF53D4AF8FAED23C01AACA89EA1A22B855E591360BBC55071C917B PUSH1 0x60 PUSH1 0x40 MLOAD DUP14 DUP2 MSTORE DUP10 PUSH1 0x20 DUP3 ADD MSTORE DUP12 PUSH1 0x40 DUP3 ADD MSTORE LOG1 PUSH1 0x40 MLOAD SWAP11 PUSH2 0xCC7 DUP13 PUSH2 0x13BD JUMP JUMPDEST DUP12 MSTORE PUSH1 0x20 DUP12 ADD MSTORE PUSH1 0x40 DUP11 ADD MSTORE PUSH1 0x60 DUP10 ADD MSTORE PUSH1 0x80 DUP9 ADD MSTORE PUSH1 0xA0 DUP8 ADD MSTORE PUSH1 0xC0 DUP7 ADD MSTORE PUSH1 0xE0 DUP6 ADD MSTORE PUSH2 0x100 DUP5 ADD MSTORE PUSH2 0x120 DUP4 ADD MSTORE PUSH2 0x140 DUP3 ADD MSTORE PUSH2 0x7EF PUSH1 0x40 MLOAD DUP1 SWAP3 PUSH2 0x1327 JUMP JUMPDEST PUSH2 0x2710 DUP9 MUL DUP9 DUP2 DIV PUSH2 0x2710 EQ DUP10 ISZERO OR ISZERO PUSH2 0x2A3 JUMPI DUP5 PUSH2 0xD29 SWAP2 PUSH2 0x148A JUMP JUMPDEST DUP10 MSTORE PUSH2 0x2710 DUP2 MUL DUP2 DUP2 DIV PUSH2 0x2710 EQ DUP3 ISZERO OR ISZERO PUSH2 0x2A3 JUMPI DUP5 PUSH2 0xD49 SWAP2 PUSH2 0x148A JUMP JUMPDEST PUSH1 0x20 DUP11 ADD MSTORE DUP2 PUSH2 0x2710 DUP2 MUL DIV PUSH2 0x2710 EQ DUP3 ISZERO OR ISZERO PUSH2 0x2A3 JUMPI PUSH2 0xD6F DUP5 PUSH2 0x2710 DUP5 MUL PUSH2 0x148A JUMP JUMPDEST PUSH1 0x40 DUP11 ADD MSTORE PUSH2 0x2710 DUP4 MUL SWAP11 DUP4 DUP13 DIV PUSH2 0x2710 EQ DUP5 ISZERO OR ISZERO PUSH2 0x2A3 JUMPI PUSH2 0xD96 DUP6 PUSH2 0x1C0 SWAP14 PUSH2 0x148A JUMP JUMPDEST PUSH1 0x60 DUP12 ADD MSTORE SWAP11 POP PUSH2 0xC7E JUMP JUMPDEST PUSH0 SWAP2 PUSH2 0xC4D JUMP JUMPDEST POP POP PUSH0 PUSH2 0xC39 JUMP JUMPDEST POP DUP2 ISZERO PUSH2 0xBD0 JUMP JUMPDEST CALLVALUE PUSH2 0x3F0 JUMPI PUSH1 0x40 CALLDATASIZE PUSH1 0x3 NOT ADD SLT PUSH2 0x3F0 JUMPI PUSH1 0x1 PUSH1 0x1 PUSH1 0x40 SHL SUB PUSH1 0x4 CALLDATALOAD DUP2 DUP2 GT PUSH2 0x3F0 JUMPI PUSH2 0xDEA SWAP1 CALLDATASIZE SWAP1 PUSH1 0x4 ADD PUSH2 0x1289 JUMP JUMPDEST SWAP1 PUSH1 0x24 SWAP3 DUP4 CALLDATALOAD SWAP1 DUP2 GT PUSH2 0x3F0 JUMPI PUSH2 0xE05 SWAP1 CALLDATASIZE SWAP1 PUSH1 0x4 ADD PUSH2 0x12F7 JUMP JUMPDEST SWAP4 DUP4 ISZERO PUSH2 0x3DE JUMPI DUP5 DUP5 SUB PUSH2 0x101F JUMPI PUSH0 SWAP3 PUSH0 SWAP6 PUSH0 JUMPDEST DUP7 DUP2 LT PUSH2 0xF81 JUMPI DUP8 PUSH2 0xE35 DUP9 PUSH2 0xE2F DUP2 DUP11 PUSH2 0x148A JUMP JUMPDEST SWAP3 PUSH2 0x148A JUMP JUMPDEST SWAP1 PUSH8 0xDE0B6B3A7640000 DUP3 GT ISZERO PUSH2 0xEB8 JUMPI PUSH2 0xEB4 PUSH1 0x40 MLOAD PUSH2 0xE55 DUP2 PUSH2 0x13F4 JUMP JUMPDEST PUSH1 0x2D DUP2 MSTORE PUSH32 0x47617320636F73747320617265206A75737469666965642062792070726F6669 PUSH1 0x20 DUP3 ADD MSTORE PUSH13 0x7473202D20434F4E54494E5545 PUSH1 0x98 SHL PUSH1 0x40 DUP3 ADD MSTORE JUMPDEST PUSH1 0x40 MLOAD SWAP4 DUP5 SWAP4 DUP5 MSTORE PUSH1 0x20 DUP5 ADD MSTORE PUSH1 0x60 PUSH1 0x40 DUP5 ADD MSTORE PUSH1 0x60 DUP4 ADD SWAP1 PUSH2 0x12B9 JUMP JUMPDEST SUB SWAP1 RETURN JUMPDEST PUSH8 0x6F05B59D3B20000 DUP3 GT ISZERO PUSH2 0xF2C JUMPI PUSH2 0xEB4 PUSH1 0x40 MLOAD PUSH2 0xED7 DUP2 PUSH2 0x13F4 JUMP JUMPDEST PUSH1 0x38 DUP2 MSTORE PUSH32 0x47617320636F73747320617265206D617267696E616C202D204F5054494D495A PUSH1 0x20 DUP3 ADD MSTORE PUSH32 0x45206F7220494E4352454153452054524144452053495A450000000000000000 PUSH1 0x40 DUP3 ADD MSTORE PUSH2 0xE96 JUMP JUMPDEST PUSH2 0xEB4 PUSH1 0x40 MLOAD PUSH2 0xF3B DUP2 PUSH2 0x13F4 JUMP JUMPDEST PUSH1 0x2E DUP2 MSTORE PUSH32 0x47617320636F737473206578636565642070726F66697473202D205245434F4E PUSH1 0x20 DUP3 ADD MSTORE PUSH14 0x5349444552205354524154454759 PUSH1 0x90 SHL PUSH1 0x40 DUP3 ADD MSTORE PUSH2 0xE96 JUMP JUMPDEST PUSH2 0xFAF PUSH2 0xFA8 PUSH2 0xF92 DUP4 DUP6 DUP10 PUSH2 0x1640 JUMP JUMPDEST CALLDATALOAD PUSH1 0x20 PUSH2 0xFA0 DUP6 DUP13 DUP10 PUSH2 0x1459 JUMP JUMPDEST ADD CALLDATALOAD SWAP1 PUSH2 0x14BF JUMP JUMPDEST DUP1 SWAP8 PUSH2 0x147D JUMP JUMPDEST SWAP6 DUP1 PUSH2 0xFC5 JUMPI JUMPDEST POP PUSH2 0xFC0 SWAP1 PUSH2 0x144B JUMP JUMPDEST PUSH2 0xE19 JUMP JUMPDEST PUSH2 0xFD3 DUP3 DUP10 DUP7 SWAP12 SWAP5 SWAP12 PUSH2 0x1459 JUMP JUMPDEST CALLDATALOAD PUSH8 0xDE0B6B3A7640000 SWAP1 DUP2 DUP2 MUL SWAP2 DUP2 DUP4 DIV EQ SWAP1 ISZERO OR ISZERO PUSH2 0x100C JUMPI SWAP2 PUSH2 0xFFF PUSH2 0x1005 SWAP3 PUSH2 0xFC0 SWAP5 PUSH2 0x148A JUMP JUMPDEST SWAP1 PUSH2 0x147D JUMP JUMPDEST SWAP8 SWAP1 PUSH2 0xFB6 JUMP JUMPDEST DUP6 PUSH4 0x4E487B71 PUSH1 0xE0 SHL PUSH0 MSTORE PUSH1 0x11 PUSH1 0x4 MSTORE PUSH0 REVERT JUMPDEST PUSH1 0x40 MLOAD PUSH4 0x512509D3 PUSH1 0xE1 SHL DUP2 MSTORE PUSH1 0x4 SWAP1 REVERT JUMPDEST CALLVALUE PUSH2 0x3F0 JUMPI CALLDATASIZE PUSH1 0x3 NOT ADD PUSH2 0x120 DUP2 SLT PUSH2 0x3F0 JUMPI PUSH2 0x100 SGT PUSH2 0x3F0 JUMPI PUSH1 0x1 PUSH1 0x1 PUSH1 0x40 SHL SUB PUSH2 0x104 CALLDATALOAD DUP2 DUP2 GT PUSH2 0x3F0 JUMPI PUSH2 0x106D SWAP1 CALLDATASIZE SWAP1 PUSH1 0x4 ADD PUSH2 0x1289 JUMP JUMPDEST SWAP2 SWAP1 SWAP3 PUSH1 0xC0 DUP2 ADD SWAP1 DUP1 DUP3 LT DUP4 DUP4 GT OR PUSH2 0x5B6 JUMPI PUSH1 0xA0 SWAP2 PUSH1 0x40 MSTORE PUSH0 DUP2 MSTORE PUSH0 PUSH1 0x20 DUP3 ADD MSTORE PUSH0 PUSH1 0x40 DUP3 ADD MSTORE PUSH1 0x60 SWAP2 DUP2 PUSH0 DUP5 DUP1 SWAP5 ADD MSTORE PUSH0 PUSH1 0x80 DUP3 ADD MSTORE ADD MSTORE DUP3 ISZERO PUSH2 0x3DE JUMPI PUSH1 0x4 CALLDATALOAD SWAP1 PUSH1 0x44 CALLDATALOAD DUP1 DUP4 GT ISZERO PUSH2 0x1282 JUMPI PUSH8 0xDE0B6B3A7640000 PUSH2 0x10D7 PUSH2 0x10D2 DUP4 DUP7 PUSH2 0x14D2 JUMP JUMPDEST PUSH2 0x14A8 JUMP JUMPDEST DIV JUMPDEST PUSH1 0x32 DUP2 LT ISZERO PUSH2 0x127C JUMPI POP PUSH1 0x32 SWAP5 JUMPDEST PUSH2 0x10F0 DUP2 PUSH2 0x1664 JUMP JUMPDEST PUSH0 JUMPDEST DUP3 DUP2 LT PUSH2 0x125A JUMPI POP PUSH2 0x110C DUP2 PUSH0 PUSH2 0x4E0 PUSH2 0x1111 SWAP5 MLOAD PUSH2 0x1696 JUMP JUMPDEST PUSH2 0x18ED JUMP JUMPDEST SWAP7 PUSH2 0x111B DUP3 PUSH2 0x1664 JUMP JUMPDEST SWAP2 PUSH0 JUMPDEST DUP2 DUP2 LT PUSH2 0x1239 JUMPI POP POP POP PUSH2 0x113A DUP2 PUSH0 PUSH2 0x4E0 PUSH2 0x113F SWAP5 MLOAD PUSH2 0x1696 JUMP JUMPDEST PUSH2 0x1931 JUMP JUMPDEST SWAP3 PUSH1 0x1E DUP5 ADD DUP1 SWAP5 GT PUSH2 0x2A3 JUMPI PUSH1 0xC4 CALLDATALOAD SWAP2 PUSH1 0x96 DUP4 MUL SWAP3 DUP1 DUP5 DIV PUSH1 0x96 EQ SWAP1 ISZERO OR ISZERO PUSH2 0x2A3 JUMPI DUP2 ISZERO PUSH2 0x1230 JUMPI PUSH2 0x1171 SWAP2 PUSH2 0x196C JUMP JUMPDEST SWAP2 JUMPDEST PUSH2 0x1181 PUSH1 0xA4 CALLDATALOAD PUSH1 0xE4 CALLDATALOAD PUSH2 0x19C0 JUMP JUMPDEST SWAP4 PUSH32 0x4682A24DB80119847024AA747650B50F14FD55B9630F4A7615212E6206C94B9F DUP3 PUSH1 0x40 MLOAD DUP10 DUP2 MSTORE DUP11 PUSH1 0x20 DUP3 ADD MSTORE DUP7 PUSH1 0x40 DUP3 ADD MSTORE LOG1 PUSH1 0x40 MLOAD SWAP7 PUSH1 0xC0 DUP9 ADD SWAP7 DUP8 GT DUP9 DUP9 LT OR PUSH2 0x5B6 JUMPI PUSH2 0xEB4 SWAP7 PUSH1 0x40 MSTORE DUP8 MSTORE PUSH1 0x20 DUP8 ADD SWAP8 DUP9 MSTORE PUSH1 0x40 DUP8 ADD SWAP1 DUP2 MSTORE PUSH1 0x64 DUP3 DUP9 ADD SWAP4 DIV DUP4 MSTORE PUSH1 0x80 DUP8 ADD SWAP4 DUP5 MSTORE PUSH1 0xA0 DUP8 ADD SWAP5 DUP6 MSTORE PUSH1 0x40 MLOAD SWAP8 DUP9 SWAP8 PUSH1 0x20 DUP10 MSTORE MLOAD PUSH1 0x20 DUP10 ADD MSTORE MLOAD PUSH1 0x40 DUP9 ADD MSTORE MLOAD SWAP1 DUP7 ADD MSTORE MLOAD PUSH1 0x80 DUP6 ADD MSTORE MLOAD PUSH1 0xA0 DUP5 ADD MSTORE MLOAD PUSH1 0xC0 DUP1 DUP5 ADD MSTORE PUSH1 0xE0 DUP4 ADD SWAP1 PUSH2 0x12B9 JUMP JUMPDEST POP POP PUSH0 SWAP2 PUSH2 0x1173 JUMP JUMPDEST DUP1 DUP7 PUSH2 0x1249 PUSH2 0x1255 SWAP4 DUP6 DUP8 PUSH2 0x1459 JUMP JUMPDEST ADD CALLDATALOAD PUSH2 0x5EC DUP3 DUP8 PUSH2 0x1650 JUMP JUMPDEST PUSH2 0x111E JUMP JUMPDEST DUP1 PUSH1 0x40 PUSH2 0x126B PUSH2 0x1277 SWAP4 DUP7 DUP14 PUSH2 0x1459 JUMP JUMPDEST ADD CALLDATALOAD PUSH2 0x5EC DUP3 DUP6 PUSH2 0x1650 JUMP JUMPDEST PUSH2 0x10F2 JUMP JUMPDEST SWAP5 PUSH2 0x10E7 JUMP JUMPDEST PUSH1 0x32 PUSH2 0x10D9 JUMP JUMPDEST SWAP2 DUP2 PUSH1 0x1F DUP5 ADD SLT ISZERO PUSH2 0x3F0 JUMPI DUP3 CALLDATALOAD SWAP2 PUSH1 0x1 PUSH1 0x1 PUSH1 0x40 SHL SUB DUP4 GT PUSH2 0x3F0 JUMPI PUSH1 0x20 DUP1 DUP6 ADD SWAP5 DUP5 PUSH1 0x7 SHL ADD ADD GT PUSH2 0x3F0 JUMPI JUMP JUMPDEST SWAP2 SWAP1 DUP3 MLOAD SWAP3 DUP4 DUP3 MSTORE PUSH0 JUMPDEST DUP5 DUP2 LT PUSH2 0x12E3 JUMPI POP POP DUP3 PUSH0 PUSH1 0x20 DUP1 SWAP5 SWAP6 DUP5 ADD ADD MSTORE PUSH1 0x1F DUP1 NOT SWAP2 ADD AND ADD ADD SWAP1 JUMP JUMPDEST PUSH1 0x20 DUP2 DUP4 ADD DUP2 ADD MLOAD DUP5 DUP4 ADD DUP3 ADD MSTORE ADD PUSH2 0x12C3 JUMP JUMPDEST SWAP2 DUP2 PUSH1 0x1F DUP5 ADD SLT ISZERO PUSH2 0x3F0 JUMPI DUP3 CALLDATALOAD SWAP2 PUSH1 0x1 PUSH1 0x1 PUSH1 0x40 SHL SUB DUP4 GT PUSH2 0x3F0 JUMPI PUSH1 0x20 DUP1 DUP6 ADD SWAP5 DUP5 PUSH1 0x5 SHL ADD ADD GT PUSH2 0x3F0 JUMPI JUMP JUMPDEST SWAP1 PUSH2 0x13BB SWAP2 DUP1 MLOAD DUP3 MSTORE PUSH1 0x20 DUP2 ADD MLOAD PUSH1 0x20 DUP4 ADD MSTORE PUSH1 0x40 DUP2 ADD MLOAD PUSH1 0x40 DUP4 ADD MSTORE PUSH1 0x60 DUP2 ADD MLOAD PUSH1 0x60 DUP4 ADD MSTORE PUSH1 0x80 DUP2 ADD MLOAD PUSH1 0x80 DUP4 ADD MSTORE PUSH1 0xA0 DUP2 ADD MLOAD PUSH1 0xA0 DUP4 ADD MSTORE PUSH1 0xC0 DUP2 ADD MLOAD PUSH1 0xC0 DUP4 ADD MSTORE PUSH1 0xE0 DUP2 ADD MLOAD PUSH1 0xE0 DUP4 ADD MSTORE PUSH2 0x100 DUP1 DUP3 ADD MLOAD SWAP1 DUP4 ADD MSTORE PUSH2 0x120 DUP1 DUP3 ADD MLOAD ISZERO ISZERO SWAP1 DUP4 ADD MSTORE PUSH2 0x140 DUP1 SWAP2 ADD MLOAD SWAP2 ADD SWAP1 PUSH1 0x60 DUP1 SWAP2 DUP1 MLOAD DUP5 MSTORE PUSH1 0x20 DUP2 ADD MLOAD PUSH1 0x20 DUP6 ADD MSTORE PUSH1 0x40 DUP2 ADD MLOAD PUSH1 0x40 DUP6 ADD MSTORE ADD MLOAD SWAP2 ADD MSTORE JUMP JUMPDEST JUMP JUMPDEST PUSH2 0x160 DUP2 ADD SWAP1 DUP2 LT PUSH1 0x1 PUSH1 0x1 PUSH1 0x40 SHL SUB DUP3 GT OR PUSH2 0x5B6 JUMPI PUSH1 0x40 MSTORE JUMP JUMPDEST PUSH1 0x80 DUP2 ADD SWAP1 DUP2 LT PUSH1 0x1 PUSH1 0x1 PUSH1 0x40 SHL SUB DUP3 GT OR PUSH2 0x5B6 JUMPI PUSH1 0x40 MSTORE JUMP JUMPDEST PUSH1 0x60 DUP2 ADD SWAP1 DUP2 LT PUSH1 0x1 PUSH1 0x1 PUSH1 0x40 SHL SUB DUP3 GT OR PUSH2 0x5B6 JUMPI PUSH1 0x40 MSTORE JUMP JUMPDEST PUSH1 0xA0 DUP2 ADD SWAP1 DUP2 LT PUSH1 0x1 PUSH1 0x1 PUSH1 0x40 SHL SUB DUP3 GT OR PUSH2 0x5B6 JUMPI PUSH1 0x40 MSTORE JUMP JUMPDEST SWAP1 PUSH1 0x1F DUP1 NOT SWAP2 ADD AND DUP2 ADD SWAP1 DUP2 LT PUSH1 0x1 PUSH1 0x1 PUSH1 0x40 SHL SUB DUP3 GT OR PUSH2 0x5B6 JUMPI PUSH1 0x40 MSTORE JUMP JUMPDEST PUSH0 NOT DUP2 EQ PUSH2 0x2A3 JUMPI PUSH1 0x1 ADD SWAP1 JUMP JUMPDEST SWAP2 SWAP1 DUP2 LT ISZERO PUSH2 0x1469 JUMPI PUSH1 0x7 SHL ADD SWAP1 JUMP JUMPDEST PUSH4 0x4E487B71 PUSH1 0xE0 SHL PUSH0 MSTORE PUSH1 0x32 PUSH1 0x4 MSTORE PUSH1 0x24 PUSH0 REVERT JUMPDEST SWAP2 SWAP1 DUP3 ADD DUP1 SWAP3 GT PUSH2 0x2A3 JUMPI JUMP JUMPDEST DUP2 ISZERO PUSH2 0x1494 JUMPI DIV SWAP1 JUMP JUMPDEST PUSH4 0x4E487B71 PUSH1 0xE0 SHL PUSH0 MSTORE PUSH1 0x12 PUSH1 0x4 MSTORE PUSH1 0x24 PUSH0 REVERT JUMPDEST SWAP1 PUSH2 0x2710 SWAP2 DUP3 DUP2 MUL SWAP3 DUP2 DUP5 DIV EQ SWAP1 ISZERO OR ISZERO PUSH2 0x2A3 JUMPI JUMP JUMPDEST DUP2 DUP2 MUL SWAP3 SWAP2 DUP2 ISZERO SWAP2 DUP5 DIV EQ OR ISZERO PUSH2 0x2A3 JUMPI JUMP JUMPDEST SWAP2 SWAP1 DUP3 SUB SWAP2 DUP3 GT PUSH2 0x2A3 JUMPI JUMP JUMPDEST PUSH1 0x40 MLOAD SWAP1 PUSH2 0x14EC DUP3 PUSH2 0x13D9 JUMP JUMPDEST PUSH0 PUSH1 0x60 DUP4 DUP3 DUP2 MSTORE DUP3 PUSH1 0x20 DUP3 ADD MSTORE DUP3 PUSH1 0x40 DUP3 ADD MSTORE ADD MSTORE JUMP JUMPDEST PUSH1 0x40 MLOAD SWAP1 PUSH2 0x1510 DUP3 PUSH2 0x13BD JUMP JUMPDEST DUP2 PUSH0 DUP1 DUP3 MSTORE DUP1 PUSH1 0x20 DUP4 ADD MSTORE DUP1 PUSH1 0x40 DUP4 ADD MSTORE DUP1 PUSH1 0x60 DUP4 ADD MSTORE DUP1 PUSH1 0x80 DUP4 ADD MSTORE DUP1 PUSH1 0xA0 DUP4 ADD MSTORE DUP1 PUSH1 0xC0 DUP4 ADD MSTORE DUP1 PUSH1 0xE0 DUP4 ADD MSTORE DUP1 PUSH2 0x100 DUP4 ADD MSTORE PUSH2 0x120 DUP3 ADD MSTORE PUSH2 0x140 PUSH2 0x1557 PUSH2 0x14DF JUMP JUMPDEST SWAP2 ADD MSTORE JUMP JUMPDEST DUP1 SWAP2 SUB SWAP1 PUSH2 0x1C0 DUP3 SLT PUSH2 0x3F0 JUMPI PUSH1 0x40 MLOAD SWAP2 PUSH2 0x1576 DUP4 PUSH2 0x13BD JUMP JUMPDEST DUP2 MLOAD DUP4 MSTORE PUSH1 0x20 DUP3 ADD MLOAD PUSH1 0x20 DUP5 ADD MSTORE PUSH1 0x40 DUP3 ADD MLOAD PUSH1 0x40 DUP5 ADD MSTORE PUSH1 0x60 DUP3 ADD MLOAD PUSH1 0x60 DUP5 ADD MSTORE PUSH1 0x80 DUP3 ADD MLOAD PUSH1 0x80 DUP5 ADD MSTORE PUSH1 0xA0 DUP3 ADD MLOAD PUSH1 0xA0 DUP5 ADD MSTORE PUSH1 0xC0 DUP3 ADD MLOAD PUSH1 0xC0 DUP5 ADD MSTORE PUSH1 0xE0 DUP3 ADD MLOAD PUSH1 0xE0 DUP5 ADD MSTORE PUSH2 0x100 DUP1 DUP4 ADD MLOAD SWAP1 DUP5 ADD MSTORE PUSH2 0x120 SWAP1 DUP2 DUP4 ADD MLOAD DUP1 ISZERO ISZERO DUP2 SUB PUSH2 0x3F0 JUMPI PUSH1 0x80 SWAP3 DUP6 ADD MSTORE PUSH2 0x13F NOT ADD SLT PUSH2 0x3F0 JUMPI PUSH1 0x40 MLOAD SWAP1 PUSH2 0x15F9 DUP3 PUSH2 0x13D9 JUMP JUMPDEST PUSH2 0x1A0 PUSH2 0x140 SWAP2 DUP3 DUP2 ADD MLOAD DUP5 MSTORE PUSH2 0x160 DUP2 ADD MLOAD PUSH1 0x20 DUP6 ADD MSTORE PUSH2 0x180 DUP2 ADD MLOAD PUSH1 0x40 DUP6 ADD MSTORE ADD MLOAD PUSH1 0x60 DUP4 ADD MSTORE DUP3 ADD MSTORE SWAP1 JUMP JUMPDEST PUSH1 0x1 PUSH1 0x1 PUSH1 0x40 SHL SUB DUP2 GT PUSH2 0x5B6 JUMPI PUSH1 0x5 SHL PUSH1 0x20 ADD SWAP1 JUMP JUMPDEST SWAP2 SWAP1 DUP2 LT ISZERO PUSH2 0x1469 JUMPI PUSH1 0x5 SHL ADD SWAP1 JUMP JUMPDEST DUP1 MLOAD DUP3 LT ISZERO PUSH2 0x1469 JUMPI PUSH1 0x20 SWAP2 PUSH1 0x5 SHL ADD ADD SWAP1 JUMP JUMPDEST SWAP1 PUSH2 0x166E DUP3 PUSH2 0x1629 JUMP JUMPDEST PUSH2 0x167B PUSH1 0x40 MLOAD SWAP2 DUP3 PUSH2 0x142A JUMP JUMPDEST DUP3 DUP2 MSTORE DUP1 SWAP3 PUSH2 0x168C PUSH1 0x1F NOT SWAP2 PUSH2 0x1629 JUMP JUMPDEST ADD SWAP1 PUSH1 0x20 CALLDATASIZE SWAP2 ADD CALLDATACOPY JUMP JUMPDEST SWAP1 PUSH0 NOT DUP3 ADD SWAP2 DUP3 SGT PUSH1 0x1 AND PUSH2 0x2A3 JUMPI JUMP JUMPDEST SWAP1 PUSH1 0x1 DUP3 ADD SWAP2 PUSH0 PUSH1 0x1 DUP5 SLT SWAP2 SLT SWAP1 DUP1 ISZERO DUP3 AND SWAP2 ISZERO AND OR PUSH2 0x2A3 JUMPI JUMP JUMPDEST SWAP2 DUP1 DUP3 SLT PUSH2 0x16D0 JUMPI POP POP SWAP1 JUMP JUMPDEST PUSH2 0x16DA DUP2 DUP5 PUSH2 0x1650 JUMP JUMPDEST MLOAD PUSH2 0x16E4 DUP4 PUSH2 0x1696 JUMP JUMPDEST SWAP1 DUP4 JUMPDEST DUP4 DUP2 SLT PUSH2 0x1762 JUMPI POP POP PUSH2 0x1739 PUSH2 0x174A SWAP2 PUSH2 0x1701 DUP5 DUP8 PUSH2 0x1650 JUMP JUMPDEST MLOAD PUSH2 0x1733 PUSH2 0x1717 PUSH2 0x1711 DUP5 PUSH2 0x16A7 JUMP JUMPDEST DUP10 PUSH2 0x1650 JUMP JUMPDEST MLOAD PUSH2 0x1721 DUP5 PUSH2 0x16A7 JUMP JUMPDEST SWAP1 PUSH2 0x172C DUP9 DUP12 PUSH2 0x1650 JUMP JUMPDEST MSTORE DUP9 PUSH2 0x1650 JUMP JUMPDEST MSTORE PUSH2 0x16A7 JUMP JUMPDEST SWAP3 PUSH2 0x1743 DUP5 PUSH2 0x1696 JUMP JUMPDEST SWAP1 DUP6 PUSH2 0x16C3 JUMP JUMPDEST PUSH2 0x175E SWAP3 PUSH2 0x1758 SWAP2 POP PUSH2 0x16A7 JUMP JUMPDEST DUP4 PUSH2 0x16C3 JUMP JUMPDEST POP SWAP1 JUMP JUMPDEST DUP2 PUSH2 0x176D DUP3 DUP9 PUSH2 0x1650 JUMP JUMPDEST MLOAD LT PUSH2 0x1782 JUMPI JUMPDEST PUSH2 0x177D SWAP1 PUSH2 0x17C3 JUMP JUMPDEST PUSH2 0x16E7 JUMP JUMPDEST SWAP2 PUSH2 0x178F PUSH2 0x177D SWAP2 PUSH2 0x17C3 JUMP JUMPDEST SWAP3 PUSH2 0x179A DUP2 DUP9 PUSH2 0x1650 JUMP JUMPDEST MLOAD PUSH2 0x17A5 DUP6 DUP10 PUSH2 0x1650 JUMP JUMPDEST MLOAD PUSH2 0x17B0 DUP4 DUP11 PUSH2 0x1650 JUMP JUMPDEST MSTORE PUSH2 0x17BB DUP6 DUP10 PUSH2 0x1650 JUMP JUMPDEST MSTORE SWAP1 POP PUSH2 0x1774 JUMP JUMPDEST PUSH1 0x1 PUSH1 0x1 PUSH1 0xFF SHL SUB DUP2 EQ PUSH2 0x2A3 JUMPI PUSH1 0x1 ADD SWAP1 JUMP JUMPDEST DUP1 MLOAD SWAP1 DUP2 ISZERO PUSH2 0x1834 JUMPI PUSH1 0x1 SWAP2 DUP1 DUP4 AND DUP4 SUB PUSH2 0x17FE JUMPI POP DUP1 MLOAD PUSH2 0x17FA SWAP3 SHR SWAP1 PUSH2 0x1650 JUMP JUMPDEST MLOAD SWAP1 JUMP JUMPDEST DUP3 SHR SWAP1 PUSH0 NOT DUP3 ADD SWAP2 DUP3 GT PUSH2 0x2A3 JUMPI PUSH2 0x1828 PUSH2 0x181C PUSH2 0x182F SWAP4 DUP4 PUSH2 0x1650 JUMP JUMPDEST MLOAD SWAP2 DUP1 MLOAD DUP6 SHR SWAP1 PUSH2 0x1650 JUMP JUMPDEST MLOAD SWAP1 PUSH2 0x147D JUMP JUMPDEST SWAP1 SHR SWAP1 JUMP JUMPDEST POP POP PUSH0 SWAP1 JUMP JUMPDEST SWAP2 SWAP1 SWAP2 DUP3 ISZERO PUSH2 0x18E6 JUMPI SWAP1 PUSH0 SWAP2 DUP3 SWAP2 JUMPDEST DUP5 DUP4 LT PUSH2 0x1868 JUMPI POP POP POP PUSH2 0x1865 SWAP2 PUSH2 0x1860 SWAP2 PUSH2 0x148A JUMP JUMPDEST PUSH2 0x1BD4 JUMP JUMPDEST SWAP1 JUMP JUMPDEST SWAP1 SWAP2 SWAP3 PUSH2 0x18B3 PUSH2 0x18B9 SWAP2 DUP4 PUSH2 0x187E DUP8 DUP10 DUP9 PUSH2 0x1459 JUMP JUMPDEST CALLDATALOAD GT ISZERO PUSH2 0x18C0 JUMPI PUSH8 0xDE0B6B3A7640000 PUSH2 0x18AC PUSH2 0x18A6 DUP7 PUSH2 0x18A0 DUP11 DUP13 DUP12 PUSH2 0x1459 JUMP JUMPDEST CALLDATALOAD PUSH2 0x14D2 JUMP JUMPDEST DUP1 PUSH2 0x14BF JUMP JUMPDEST DIV SWAP1 PUSH2 0x147D JUMP JUMPDEST SWAP4 PUSH2 0x144B JUMP JUMPDEST SWAP2 SWAP1 PUSH2 0x1849 JUMP JUMPDEST PUSH8 0xDE0B6B3A7640000 PUSH2 0x18AC PUSH2 0x18E1 PUSH2 0x18DA DUP10 DUP12 DUP11 PUSH2 0x1459 JUMP JUMPDEST CALLDATALOAD DUP8 PUSH2 0x14D2 JUMP JUMPDEST PUSH2 0x18A6 JUMP JUMPDEST POP POP POP PUSH0 SWAP1 JUMP JUMPDEST DUP1 MLOAD DUP1 ISZERO PUSH2 0x1834 JUMPI PUSH1 0x5F DUP2 MUL SWAP1 DUP2 DIV PUSH1 0x5F SUB PUSH2 0x2A3 JUMPI DUP2 MLOAD PUSH1 0x64 SWAP1 SWAP2 DIV SWAP1 DUP2 LT PUSH2 0x1928 JUMPI POP DUP1 MLOAD PUSH0 NOT DUP2 ADD SWAP1 DUP2 GT PUSH2 0x2A3 JUMPI PUSH2 0x17FA SWAP2 PUSH2 0x1650 JUMP JUMPDEST PUSH2 0x17FA SWAP2 PUSH2 0x1650 JUMP JUMPDEST DUP1 MLOAD DUP1 ISZERO PUSH2 0x1834 JUMPI PUSH1 0x63 DUP2 MUL SWAP1 DUP2 DIV PUSH1 0x63 SUB PUSH2 0x2A3 JUMPI DUP2 MLOAD PUSH1 0x64 SWAP1 SWAP2 DIV SWAP1 DUP2 LT PUSH2 0x1928 JUMPI POP DUP1 MLOAD PUSH0 NOT DUP2 ADD SWAP1 DUP2 GT PUSH2 0x2A3 JUMPI PUSH2 0x17FA SWAP2 PUSH2 0x1650 JUMP JUMPDEST SWAP1 DUP1 ISZERO PUSH2 0x19B8 JUMPI PUSH8 0xDE0B6B3A7640000 SWAP2 DUP3 DUP3 MUL SWAP2 DUP3 DIV DUP4 SUB PUSH2 0x2A3 JUMPI PUSH2 0x1992 SWAP2 PUSH2 0x148A JUMP JUMPDEST DUP2 DUP2 LT ISZERO PUSH2 0x1834 JUMPI DUP2 ADD DUP1 SWAP2 GT PUSH2 0x2A3 JUMPI DUP1 ISZERO PUSH2 0x1494 JUMPI PUSH10 0x21E19E0C9BAB2400000 DIV SWAP1 JUMP JUMPDEST POP POP PUSH2 0x2710 SWAP1 JUMP JUMPDEST PUSH1 0xA GT PUSH2 0x1B74 JUMPI PUSH2 0x2328 DUP2 LT ISZERO PUSH2 0x1B14 JUMPI PUSH2 0x1D4C DUP2 LT ISZERO PUSH2 0x1AB4 JUMPI PUSH2 0x1388 GT ISZERO PUSH2 0x1A55 JUMPI PUSH1 0x40 MLOAD PUSH2 0x19F0 DUP2 PUSH2 0x13D9 JUMP JUMPDEST PUSH1 0x49 DUP2 MSTORE PUSH32 0x4C4F5720535543434553532052415445202D20436F6E7369646572206D6F7265 PUSH1 0x20 DUP3 ADD MSTORE PUSH32 0x206167677265737369766520706172616D6574657273206F7220737472617465 PUSH1 0x40 DUP3 ADD MSTORE PUSH9 0x677920726576696577 PUSH1 0xB8 SHL PUSH1 0x60 DUP3 ADD MSTORE SWAP1 JUMP JUMPDEST PUSH1 0x40 MLOAD PUSH2 0x1A61 DUP2 PUSH2 0x13F4 JUMP JUMPDEST PUSH1 0x38 DUP2 MSTORE PUSH32 0x4D4F44455241544520535543434553532052415445202D20506172616D657465 PUSH1 0x20 DUP3 ADD MSTORE PUSH32 0x7273206D6179206E656564206F7074696D697A6174696F6E0000000000000000 PUSH1 0x40 DUP3 ADD MSTORE SWAP1 JUMP JUMPDEST POP PUSH1 0x40 MLOAD PUSH2 0x1AC1 DUP2 PUSH2 0x13F4 JUMP JUMPDEST PUSH1 0x3D DUP2 MSTORE PUSH32 0x474F4F4420535543434553532052415445202D20506172616D65746572732061 PUSH1 0x20 DUP3 ADD MSTORE PUSH32 0x72652062616C616E63656420666F722070726F6669746162696C697479000000 PUSH1 0x40 DUP3 ADD MSTORE SWAP1 JUMP JUMPDEST POP PUSH1 0x40 MLOAD PUSH2 0x1B21 DUP2 PUSH2 0x13F4 JUMP JUMPDEST PUSH1 0x3F DUP2 MSTORE PUSH32 0x4849474820535543434553532052415445202D20506172616D65746572732061 PUSH1 0x20 DUP3 ADD MSTORE PUSH32 0x726520636F6E73657276617469766520616E642077656C6C2D74657374656400 PUSH1 0x40 DUP3 ADD MSTORE SWAP1 JUMP JUMPDEST POP PUSH1 0x40 MLOAD PUSH2 0x1B81 DUP2 PUSH2 0x13F4 JUMP JUMPDEST PUSH1 0x3C DUP2 MSTORE PUSH32 0x494E53554646494349454E542044415441202D205265636F6D6D656E64617469 PUSH1 0x20 DUP3 ADD MSTORE PUSH32 0x6F6E73206261736564206F6E206C696D697465642073616D706C657300000000 PUSH1 0x40 DUP3 ADD MSTORE SWAP1 JUMP JUMPDEST DUP1 ISZERO PUSH2 0x1C1F JUMPI PUSH1 0x1 DUP1 DUP3 EQ PUSH2 0x1C1A JUMPI DUP1 DUP3 ADD DUP1 DUP4 GT PUSH2 0x2A3 JUMPI DUP2 SHR SWAP1 DUP3 JUMPDEST DUP4 DUP4 LT PUSH2 0x1BFF JUMPI POP POP POP SWAP1 JUMP JUMPDEST SWAP1 SWAP2 SWAP3 POP PUSH2 0x1C11 DUP4 PUSH2 0xAC4 DUP2 DUP5 PUSH2 0x148A JUMP JUMPDEST DUP3 SHR SWAP2 SWAP1 PUSH2 0x1BF2 JUMP JUMPDEST SWAP1 POP SWAP1 JUMP JUMPDEST POP PUSH0 SWAP1 JUMP INVALID LOG2 PUSH5 0x6970667358 0x22 SLT KECCAK256 PC GASLIMIT 0x49 LOG3 0x49 0xC6 0xCD CALL 0xD6 0x5E 0xBA PUSH2 0x2B83 DUP13 JUMP SWAP7 DUP5 0xBF 0xD7 SWAP5 0xCD SWAP13 KECCAK256 0x5D 0x26 0x2E CREATE GASPRICE 0xE 0xFC PUSH23 0x64736F6C63430008140033000000000000000000000000 "
		},
		"gasEstimates": {
			"creation": {
				"codeDepositCost": "1451600",
				"executionCost": "1523",
				"totalCost": "1453123"
			},
			"external": {
				"analyzeGasEfficiency((uint256,uint256,uint256,uint256)[],uint256[])": "infinite",
				"analyzeHistoricalTrades((uint256,uint256,uint256,uint256)[])": "infinite",
				"backtestParameters((uint256,uint256,uint256,uint256)[],uint256[],uint256[])": "infinite",
				"calculateProfitability(uint256,uint256,uint256,uint256,uint256,uint256,uint256,uint256)": "infinite",
				"findOptimalBorrowAmount(uint256,uint256,uint256,uint256,uint256,uint256,uint256,uint256,uint256)": "infinite",
				"generateParameterRecommendations((uint256,uint256,uint256,uint256,uint256,uint256,uint256,uint256),(uint256,uint256,uint256,uint256)[])": "infinite",
				"sensitivityAnalysis(uint256,uint256,uint256[],uint256[],uint256,uint256,uint256)": "infinite"
			},
			"internal": {
				"_calculateConfidence(uint256,uint256)": "231",
				"_calculateMedian(uint256[] memory)": "infinite",
				"_calculatePercentile(uint256[] memory,uint256)": "infinite",
				"_calculateStdDeviation(struct ArbitrageAnalyzer.TradeData calldata[] calldata,uint256)": "infinite",
				"_generateReasoning(uint256,uint256)": "infinite",
				"_partition(uint256[] memory,int256,int256)": "infinite",
				"_quickSort(uint256[] memory,int256,int256)": "infinite",
				"_sortExecutionTimes(struct ArbitrageAnalyzer.TradeData calldata[] calldata)": "infinite",
				"_sortProfits(struct ArbitrageAnalyzer.TradeData calldata[] calldata)": "infinite",
				"_sortSlippages(struct ArbitrageAnalyzer.TradeData calldata[] calldata)": "infinite",
				"_sqrt(uint256)": "infinite"
			}
		},
		"methodIdentifiers": {
			"analyzeGasEfficiency((uint256,uint256,uint256,uint256)[],uint256[])": "248fc940",
			"analyzeHistoricalTrades((uint256,uint256,uint256,uint256)[])": "d22ae846",
			"backtestParameters((uint256,uint256,uint256,uint256)[],uint256[],uint256[])": "e91ca8b6",
			"calculateProfitability(uint256,uint256,uint256,uint256,uint256,uint256,uint256,uint256)": "42598dca",
			"findOptimalBorrowAmount(uint256,uint256,uint256,uint256,uint256,uint256,uint256,uint256,uint256)": "714c179a",
			"generateParameterRecommendations((uint256,uint256,uint256,uint256,uint256,uint256,uint256,uint256),(uint256,uint256,uint256,uint256)[])": "0b54db8f",
			"sensitivityAnalysis(uint256,uint256,uint256[],uint256[],uint256,uint256,uint256)": "5c5d15cd"
		}
	},
	"abi": [
		{
			"inputs": [],
			"name": "ArrayLengthMismatch",
			"type": "error"
		},
		{
			"inputs": [],
			"name": "DivisionByZero",
			"type": "error"
		},
		{
			"inputs": [],
			"name": "InsufficientData",
			"type": "error"
		},
		{
			"inputs": [],
			"name": "InvalidInput",
			"type": "error"
		},
		{
			"inputs": [],
			"name": "InvalidPriceFeed",
			"type": "error"
		},
		{
			"inputs": [],
			"name": "InvalidTokenAddress",
			"type": "error"
		},
		{
			"anonymous": false,
			"inputs": [
				{
					"indexed": true,
					"internalType": "uint256",
					"name": "tradeCount",
					"type": "uint256"
				},
				{
					"indexed": false,
					"internalType": "uint256",
					"name": "meanProfit",
					"type": "uint256"
				},
				{
					"indexed": false,
					"internalType": "uint256",
					"name": "successRate",
					"type": "uint256"
				}
			],
			"name": "AnalysisPerformed",
			"type": "event"
		},
		{
			"anonymous": false,
			"inputs": [
				{
					"indexed": false,
					"internalType": "uint256",
					"name": "scenarioCount",
					"type": "uint256"
				},
				{
					"indexed": false,
					"internalType": "uint256",
					"name": "bestRoi",
					"type": "uint256"
				}
			],
			"name": "BacktestCompleted",
			"type": "event"
		},
		{
			"anonymous": false,
			"inputs": [
				{
					"indexed": false,
					"internalType": "uint256",
					"name": "minProfitBps",
					"type": "uint256"
				},
				{
					"indexed": false,
					"internalType": "uint256",
					"name": "maxSlippageBps",
					"type": "uint256"
				},
				{
					"indexed": false,
					"internalType": "uint256",
					"name": "confidence",
					"type": "uint256"
				}
			],
			"name": "ParametersRecommended",
			"type": "event"
		},
		{
			"anonymous": false,
			"inputs": [
				{
					"indexed": false,
					"internalType": "uint256",
					"name": "borrowAmount",
					"type": "uint256"
				},
				{
					"indexed": false,
					"internalType": "uint256",
					"name": "netProfit",
					"type": "uint256"
				},
				{
					"indexed": false,
					"internalType": "bool",
					"name": "isProfitable",
					"type": "bool"
				}
			],
			"name": "ProfitabilityCalculated",
			"type": "event"
		},
		{
			"anonymous": false,
			"inputs": [
				{
					"indexed": false,
					"internalType": "uint256",
					"name": "scenarioCount",
					"type": "uint256"
				}
			],
			"name": "SensitivityAnalysisPerformed",
			"type": "event"
		},
		{
			"inputs": [
				{
					"components": [
						{
							"internalType": "uint256",
							"name": "profit",
							"type": "uint256"
						},
						{
							"internalType": "uint256",
							"name": "gasUsed",
							"type": "uint256"
						},
						{
							"internalType": "uint256",
							"name": "slippage",
							"type": "uint256"
						},
						{
							"internalType": "uint256",
							"name": "executionTime",
							"type": "uint256"
						}
					],
					"internalType": "struct ArbitrageAnalyzer.TradeData[]",
					"name": "trades",
					"type": "tuple[]"
				},
				{
					"internalType": "uint256[]",
					"name": "gasPrices",
					"type": "uint256[]"
				}
			],
			"name": "analyzeGasEfficiency",
			"outputs": [
				{
					"internalType": "uint256",
					"name": "meanGasCost",
					"type": "uint256"
				},
				{
					"internalType": "uint256",
					"name": "profitPerGasUnit",
					"type": "uint256"
				},
				{
					"internalType": "string",
					"name": "recommendation",
					"type": "string"
				}
			],
			"stateMutability": "pure",
			"type": "function"
		},
		{
			"inputs": [
				{
					"components": [
						{
							"internalType": "uint256",
							"name": "profit",
							"type": "uint256"
						},
						{
							"internalType": "uint256",
							"name": "gasUsed",
							"type": "uint256"
						},
						{
							"internalType": "uint256",
							"name": "slippage",
							"type": "uint256"
						},
						{
							"internalType": "uint256",
							"name": "executionTime",
							"type": "uint256"
						}
					],
					"internalType": "struct ArbitrageAnalyzer.TradeData[]",
					"name": "trades",
					"type": "tuple[]"
				}
			],
			"name": "analyzeHistoricalTrades",
			"outputs": [
				{
					"components": [
						{
							"internalType": "uint256",
							"name": "meanProfit",
							"type": "uint256"
						},
						{
							"internalType": "uint256",
							"name": "medianProfit",
							"type": "uint256"
						},
						{
							"internalType": "uint256",
							"name": "stdDeviation",
							"type": "uint256"
						},
						{
							"internalType": "uint256",
							"name": "minProfit",
							"type": "uint256"
						},
						{
							"internalType": "uint256",
							"name": "maxProfit",
							"type": "uint256"
						},
						{
							"internalType": "uint256",
							"name": "successRate",
							"type": "uint256"
						},
						{
							"internalType": "uint256",
							"name": "averageGasUsed",
							"type": "uint256"
						},
						{
							"internalType": "uint256",
							"name": "totalTrades",
							"type": "uint256"
						}
					],
					"internalType": "struct ArbitrageAnalyzer.StatisticalAnalysis",
					"name": "",
					"type": "tuple"
				}
			],
			"stateMutability": "nonpayable",
			"type": "function"
		},
		{
			"inputs": [
				{
					"components": [
						{
							"internalType": "uint256",
							"name": "profit",
							"type": "uint256"
						},
						{
							"internalType": "uint256",
							"name": "gasUsed",
							"type": "uint256"
						},
						{
							"internalType": "uint256",
							"name": "slippage",
							"type": "uint256"
						},
						{
							"internalType": "uint256",
							"name": "executionTime",
							"type": "uint256"
						}
					],
					"internalType": "struct ArbitrageAnalyzer.TradeData[]",
					"name": "trades",
					"type": "tuple[]"
				},
				{
					"internalType": "uint256[]",
					"name": "minProfitBpsArray",
					"type": "uint256[]"
				},
				{
					"internalType": "uint256[]",
					"name": "maxSlippageBpsArray",
					"type": "uint256[]"
				}
			],
			"name": "backtestParameters",
			"outputs": [
				{
					"components": [
						{
							"internalType": "uint256",
							"name": "minProfitBps",
							"type": "uint256"
						},
						{
							"internalType": "uint256",
							"name": "maxSlippageBps",
							"type": "uint256"
						},
						{
							"internalType": "uint256",
							"name": "successCount",
							"type": "uint256"
						},
						{
							"internalType": "uint256",
							"name": "totalProfit",
							"type": "uint256"
						},
						{
							"internalType": "uint256",
							"name": "roi",
							"type": "uint256"
						}
					],
					"internalType": "struct ArbitrageAnalyzer.BacktestResult[]",
					"name": "",
					"type": "tuple[]"
				}
			],
			"stateMutability": "nonpayable",
			"type": "function"
		},
		{
			"inputs": [
				{
					"internalType": "uint256",
					"name": "borrowAmount",
					"type": "uint256"
				},
				{
					"internalType": "uint256",
					"name": "flashLoanPremiumBps",
					"type": "uint256"
				},
				{
					"internalType": "uint256",
					"name": "gasPrice",
					"type": "uint256"
				},
				{
					"internalType": "uint256",
					"name": "gasUnitsEstimate",
					"type": "uint256"
				},
				{
					"internalType": "uint256",
					"name": "leg1AmountOut",
					"type": "uint256"
				},
				{
					"internalType": "uint256",
					"name": "leg2AmountOut",
					"type": "uint256"
				},
				{
					"internalType": "uint256",
					"name": "builderTipBps",
					"type": "uint256"
				},
				{
					"internalType": "uint256",
					"name": "safetyBufferBps",
					"type": "uint256"
				}
			],
			"name": "calculateProfitability",
			"outputs": [
				{
					"components": [
						{
							"internalType": "uint256",
							"name": "borrowAmount",
							"type": "uint256"
						},
						{
							"internalType": "uint256",
							"name": "flashLoanFee",
							"type": "uint256"
						},
						{
							"internalType": "uint256",
							"name": "gasCost",
							"type": "uint256"
						},
						{
							"internalType": "uint256",
							"name": "builderTip",
							"type": "uint256"
						},
						{
							"internalType": "uint256",
							"name": "safetyBuffer",
							"type": "uint256"
						},
						{
							"internalType": "uint256",
							"name": "totalCosts",
							"type": "uint256"
						},
						{
							"internalType": "uint256",
							"name": "grossProfit",
							"type": "uint256"
						},
						{
							"internalType": "uint256",
							"name": "netProfit",
							"type": "uint256"
						},
						{
							"internalType": "uint256",
							"name": "roi",
							"type": "uint256"
						},
						{
							"internalType": "bool",
							"name": "isProfitable",
							"type": "bool"
						},
						{
							"components": [
								{
									"internalType": "uint256",
									"name": "flashLoanFeePercent",
									"type": "uint256"
								},
								{
									"internalType": "uint256",
									"name": "gasCostPercent",
									"type": "uint256"
								},
								{
									"internalType": "uint256",
									"name": "builderTipPercent",
									"type": "uint256"
								},
								{
									"internalType": "uint256",
									"name": "safetyBufferPercent",
									"type": "uint256"
								}
							],
							"internalType": "struct ArbitrageAnalyzer.CostPercentages",
							"name": "costBreakdown",
							"type": "tuple"
						}
					],
					"internalType": "struct ArbitrageAnalyzer.ProfitabilityBreakdown",
					"name": "",
					"type": "tuple"
				}
			],
			"stateMutability": "nonpayable",
			"type": "function"
		},
		{
			"inputs": [
				{
					"internalType": "uint256",
					"name": "minBorrowAmount",
					"type": "uint256"
				},
				{
					"internalType": "uint256",
					"name": "maxBorrowAmount",
					"type": "uint256"
				},
				{
					"internalType": "uint256",
					"name": "step",
					"type": "uint256"
				},
				{
					"internalType": "uint256",
					"name": "priceRatio",
					"type": "uint256"
				},
				{
					"internalType": "uint256",
					"name": "flashLoanPremiumBps",
					"type": "uint256"
				},
				{
					"internalType": "uint256",
					"name": "gasPrice",
					"type": "uint256"
				},
				{
					"internalType": "uint256",
					"name": "gasUnitsEstimate",
					"type": "uint256"
				},
				{
					"internalType": "uint256",
					"name": "builderTipBps",
					"type": "uint256"
				},
				{
					"internalType": "uint256",
					"name": "safetyBufferBps",
					"type": "uint256"
				}
			],
			"name": "findOptimalBorrowAmount",
			"outputs": [
				{
					"components": [
						{
							"internalType": "uint256",
							"name": "optimalAmount",
							"type": "uint256"
						},
						{
							"internalType": "uint256",
							"name": "maxProfit",
							"type": "uint256"
						},
						{
							"components": [
								{
									"internalType": "uint256",
									"name": "borrowAmount",
									"type": "uint256"
								},
								{
									"internalType": "uint256",
									"name": "flashLoanFee",
									"type": "uint256"
								},
								{
									"internalType": "uint256",
									"name": "gasCost",
									"type": "uint256"
								},
								{
									"internalType": "uint256",
									"name": "builderTip",
									"type": "uint256"
								},
								{
									"internalType": "uint256",
									"name": "safetyBuffer",
									"type": "uint256"
								},
								{
									"internalType": "uint256",
									"name": "totalCosts",
									"type": "uint256"
								},
								{
									"internalType": "uint256",
									"name": "grossProfit",
									"type": "uint256"
								},
								{
									"internalType": "uint256",
									"name": "netProfit",
									"type": "uint256"
								},
								{
									"internalType": "uint256",
									"name": "roi",
									"type": "uint256"
								},
								{
									"internalType": "bool",
									"name": "isProfitable",
									"type": "bool"
								},
								{
									"components": [
										{
											"internalType": "uint256",
											"name": "flashLoanFeePercent",
											"type": "uint256"
										},
										{
											"internalType": "uint256",
											"name": "gasCostPercent",
											"type": "uint256"
										},
										{
											"internalType": "uint256",
											"name": "builderTipPercent",
											"type": "uint256"
										},
										{
											"internalType": "uint256",
											"name": "safetyBufferPercent",
											"type": "uint256"
										}
									],
									"internalType": "struct ArbitrageAnalyzer.CostPercentages",
									"name": "costBreakdown",
									"type": "tuple"
								}
							],
							"internalType": "struct ArbitrageAnalyzer.ProfitabilityBreakdown",
							"name": "profitability",
							"type": "tuple"
						}
					],
					"internalType": "struct ArbitrageAnalyzer.OptimalBorrowResult",
					"name": "",
					"type": "tuple"
				}
			],
			"stateMutability": "nonpayable",
			"type": "function"
		},
		{
			"inputs": [
				{
					"components": [
						{
							"internalType": "uint256",
							"name": "meanProfit",
							"type": "uint256"
						},
						{
							"internalType": "uint256",
							"name": "medianProfit",
							"type": "uint256"
						},
						{
							"internalType": "uint256",
							"name": "stdDeviation",
							"type": "uint256"
						},
						{
							"internalType": "uint256",
							"name": "minProfit",
							"type": "uint256"
						},
						{
							"internalType": "uint256",
							"name": "maxProfit",
							"type": "uint256"
						},
						{
							"internalType": "uint256",
							"name": "successRate",
							"type": "uint256"
						},
						{
							"internalType": "uint256",
							"name": "averageGasUsed",
							"type": "uint256"
						},
						{
							"internalType": "uint256",
							"name": "totalTrades",
							"type": "uint256"
						}
					],
					"internalType": "struct ArbitrageAnalyzer.StatisticalAnalysis",
					"name": "analysis",
					"type": "tuple"
				},
				{
					"components": [
						{
							"internalType": "uint256",
							"name": "profit",
							"type": "uint256"
						},
						{
							"internalType": "uint256",
							"name": "gasUsed",
							"type": "uint256"
						},
						{
							"internalType": "uint256",
							"name": "slippage",
							"type": "uint256"
						},
						{
							"internalType": "uint256",
							"name": "executionTime",
							"type": "uint256"
						}
					],
					"internalType": "struct ArbitrageAnalyzer.TradeData[]",
					"name": "trades",
					"type": "tuple[]"
				}
			],
			"name": "generateParameterRecommendations",
			"outputs": [
				{
					"components": [
						{
							"internalType": "uint256",
							"name": "minProfitBps",
							"type": "uint256"
						},
						{
							"internalType": "uint256",
							"name": "maxSlippageBps",
							"type": "uint256"
						},
						{
							"internalType": "uint256",
							"name": "deadlineSeconds",
							"type": "uint256"
						},
						{
							"internalType": "uint256",
							"name": "gasUnitsEstimate",
							"type": "uint256"
						},
						{
							"internalType": "uint256",
							"name": "confidence",
							"type": "uint256"
						},
						{
							"internalType": "string",
							"name": "reasoning",
							"type": "string"
						}
					],
					"internalType": "struct ArbitrageAnalyzer.ParameterRecommendation",
					"name": "",
					"type": "tuple"
				}
			],
			"stateMutability": "nonpayable",
			"type": "function"
		},
		{
			"inputs": [
				{
					"internalType": "uint256",
					"name": "baseProfit",
					"type": "uint256"
				},
				{
					"internalType": "uint256",
					"name": "baseBorrowAmount",
					"type": "uint256"
				},
				{
					"internalType": "uint256[]",
					"name": "gasPrices",
					"type": "uint256[]"
				},
				{
					"internalType": "uint256[]",
					"name": "flashLoanPremiums",
					"type": "uint256[]"
				},
				{
					"internalType": "uint256",
					"name": "gasUnitsEstimate",
					"type": "uint256"
				},
				{
					"internalType": "uint256",
					"name": "builderTipBps",
					"type": "uint256"
				},
				{
					"internalType": "uint256",
					"name": "safetyBufferBps",
					"type": "uint256"
				}
			],
			"name": "sensitivityAnalysis",
			"outputs": [
				{
					"components": [
						{
							"internalType": "uint256",
							"name": "gasPrice",
							"type": "uint256"
						},
						{
							"internalType": "uint256",
							"name": "flashLoanPremiumBps",
							"type": "uint256"
						},
						{
							"internalType": "uint256",
							"name": "netProfit",
							"type": "uint256"
						},
						{
							"internalType": "uint256",
							"name": "roi",
							"type": "uint256"
						}
					],
					"internalType": "struct ArbitrageAnalyzer.SensitivityResult[]",
					"name": "",
					"type": "tuple[]"
				}
			],
			"stateMutability": "nonpayable",
			"type": "function"
		}
	]
}