{
	"data": {
		"bytecode": {
			"linkReferences": {},
			"object": "6080604052346100f2575f61001481546100f6565b601f81116100c8575b507f4d7920546f6b656e00000000000000000000000000000000000000000000001081556001805461004e906100f6565b601f811161009c575b506006624d544b60e81b019055601260ff196002541617600255604069d3c21bcecceda100000091826003553381526004602052205560405161072b908161012f8239f35b81835281601f60208520920160051c8201915b8281106100bd575050610057565b8481550182906100af565b818052601f60208320910160051c8101905b8181106100e7575061001d565b8281556001016100da565b5f80fd5b90600182811c92168015610124575b602083101461011057565b634e487b7160e01b5f52602260045260245ffd5b91607f169161010556fe6080604081815260049182361015610015575f80fd5b5f92833560e01c91826306fdde03146104f957508163095ea7b31461047e57816318160ddd1461045f57816323b872dd1461032757816327e235e3146102b1578163313ce5671461030557816355b6ed5c146102e757816370a08231146102b157816395d89b4114610191578163a9059cbb146100e6575063dd62ed3e1461009b575f80fd5b346100e257806003193601126100e257806020926100b7610616565b6100bf610630565b6001600160a01b0391821683526005865283832091168252845220549051908152f35b5080fd5b90503461018d578160031936011261018d5760209282610104610616565b6001600160a01b031692602435929061011e851515610646565b33825280875261013384848420541015610684565b3382528087528282206101478582546106c7565b905584825286522061015a8282546106e8565b905582519081527fddf252ad1be2c89b69c2b068fc378daa952ba7f163c4a11628f55a4df523b3ef843392a35160018152f35b8280fd5b8383346100e257816003193601126100e25780519082600180549081811c908083169283156102a7575b6020938484108114610294578388529081156102785750600114610223575b505050829003601f01601f191682019267ffffffffffffffff841183851017610210575082918261020c9252826105cf565b0390f35b634e487b7160e01b815260418552602490fd5b8087529192508591837fb10e2d527612073b26eecdfd717e6a320cf44b4afac2b0732d9fcbe2b7fa0cf65b83851061026457505050508301018580806101da565b80548886018301529301928490820161024e565b60ff1916878501525050151560051b84010190508580806101da565b634e487b7160e01b895260228a52602489fd5b91607f16916101bb565b90503461018d57602036600319011261018d5760209282916001600160a01b036102d9610616565b168252845220549051908152f35b5050346100e257806003193601126100e257806020926100b7610616565b5050346100e257816003193601126100e25760209060ff600254169051908152f35b82843461045c57606036600319011261045c57610342610616565b9061034b610630565b6001600160a01b03908116926044359190610367851515610646565b1691610374831515610646565b82815260209580875261038c83878420541015610684565b838252600587528582203383528752828683205410610420579185827fddf252ad1be2c89b69c2b068fc378daa952ba7f163c4a11628f55a4df523b3ef94868a95528085528282206103df8582546106c7565b905587825284528181206103f48482546106e8565b9055858152600584528181203382528452206104118282546106c7565b90558551908152a35160018152f35b855162461bcd60e51b81529081018790526016602482015275496e73756666696369656e7420616c6c6f77616e636560501b6044820152606490fd5b80fd5b5050346100e257816003193601126100e2576020906003549051908152f35b5050346100e257806003193601126100e2576020918161049c610616565b6001600160a01b0316916024359182916104b7851515610646565b338152600587528181208582528752205582519081527f8c5be1e5ebec7d5bd14f71427d1e84f3dd0314c0f7b2291e5b200ac8c7c3b925843392a35160018152f35b8490843461018d578260031936011261018d57828354600181811c908083169283156105c5575b602093848410811461029457838852908115610278575060011461057057505050829003601f01601f191682019267ffffffffffffffff841183851017610210575082918261020c9252826105cf565b8680529192508591837f290decd9548b62a8d60345a988386fc84ba6bc95484008f6362f93160ef3e5635b8385106105b157505050508301018580806101da565b80548886018301529301928490820161059b565b91607f1691610520565b602080825282518183018190529093925f5b82811061060257505060409293505f838284010152601f8019910116010190565b8181018601518482016040015285016105e1565b600435906001600160a01b038216820361062c57565b5f80fd5b602435906001600160a01b038216820361062c57565b1561064d57565b60405162461bcd60e51b815260206004820152600f60248201526e496e76616c6964206164647265737360881b6044820152606490fd5b1561068b57565b60405162461bcd60e51b8152602060048201526014602482015273496e73756666696369656e742062616c616e636560601b6044820152606490fd5b919082039182116106d457565b634e487b7160e01b5f52601160045260245ffd5b919082018092116106d45756fea26469706673582212205f07dcae51a81eb9d11dfe88ff96b08f3f9eb7504e6798e55dc715cb87a662ab64736f6c63430008140033",
			"opcodes": "PUSH1 0x80 PUSH1 0x40 MSTORE CALLVALUE PUSH2 0xF2 JUMPI PUSH0 PUSH2 0x14 DUP2 SLOAD PUSH2 0xF6 JUMP JUMPDEST PUSH1 0x1F DUP2 GT PUSH2 0xC8 JUMPI JUMPDEST POP PUSH32 0x4D7920546F6B656E000000000000000000000000000000000000000000000010 DUP2 SSTORE PUSH1 0x1 DUP1 SLOAD PUSH2 0x4E SWAP1 PUSH2 0xF6 JUMP JUMPDEST PUSH1 0x1F DUP2 GT PUSH2 0x9C JUMPI JUMPDEST POP PUSH1 0x6 PUSH3 0x4D544B PUSH1 0xE8 SHL ADD SWAP1 SSTORE PUSH1 0x12 PUSH1 0xFF NOT PUSH1 0x2 SLOAD AND OR PUSH1 0x2 SSTORE PUSH1 0x40 PUSH10 0xD3C21BCECCEDA1000000 SWAP2 DUP3 PUSH1 0x3 SSTORE CALLER DUP2 MSTORE PUSH1 0x4 PUSH1 0x20 MSTORE KECCAK256 SSTORE PUSH1 0x40 MLOAD PUSH2 0x72B SWAP1 DUP2 PUSH2 0x12F DUP3 CODECOPY RETURN JUMPDEST DUP2 DUP4 MSTORE DUP2 PUSH1 0x1F PUSH1 0x20 DUP6 KECCAK256 SWAP3 ADD PUSH1 0x5 SHR DUP3 ADD SWAP2 JUMPDEST DUP3 DUP2 LT PUSH2 0xBD JUMPI POP POP PUSH2 0x57 JUMP JUMPDEST DUP5 DUP2 SSTORE ADD DUP3 SWAP1 PUSH2 0xAF JUMP JUMPDEST DUP2 DUP1 MSTORE PUSH1 0x1F PUSH1 0x20 DUP4 KECCAK256 SWAP2 ADD PUSH1 0x5 SHR DUP2 ADD SWAP1 JUMPDEST DUP2 DUP2 LT PUSH2 0xE7 JUMPI POP PUSH2 0x1D JUMP JUMPDEST DUP3 DUP2 SSTORE PUSH1 0x1 ADD PUSH2 0xDA JUMP JUMPDEST PUSH0 DUP1 REVERT JUMPDEST SWAP1 PUSH1 0x1 DUP3 DUP2 SHR SWAP3 AND DUP1 ISZERO PUSH2 0x124 JUMPI JUMPDEST PUSH1 0x20 DUP4 LT EQ PUSH2 0x110 JUMPI JUMP JUMPDEST PUSH4 0x4E487B71 PUSH1 0xE0 SHL PUSH0 MSTORE PUSH1 0x22 PUSH1 0x4 MSTORE PUSH1 0x24 PUSH0 REVERT JUMPDEST SWAP2 PUSH1 0x7F AND SWAP2 PUSH2 0x105 JUMP INVALID PUSH1 0x80 PUSH1 0x40 DUP2 DUP2 MSTORE PUSH1 0x4 SWAP2 DUP3 CALLDATASIZE LT ISZERO PUSH2 0x15 JUMPI PUSH0 DUP1 REVERT JUMPDEST PUSH0 SWAP3 DUP4 CALLDATALOAD PUSH1 0xE0 SHR SWAP2 DUP3 PUSH4 0x6FDDE03 EQ PUSH2 0x4F9 JUMPI POP DUP2 PUSH4 0x95EA7B3 EQ PUSH2 0x47E JUMPI DUP2 PUSH4 0x18160DDD EQ PUSH2 0x45F JUMPI DUP2 PUSH4 0x23B872DD EQ PUSH2 0x327 JUMPI DUP2 PUSH4 0x27E235E3 EQ PUSH2 0x2B1 JUMPI DUP2 PUSH4 0x313CE567 EQ PUSH2 0x305 JUMPI DUP2 PUSH4 0x55B6ED5C EQ PUSH2 0x2E7 JUMPI DUP2 PUSH4 0x70A08231 EQ PUSH2 0x2B1 JUMPI DUP2 PUSH4 0x95D89B41 EQ PUSH2 0x191 JUMPI DUP2 PUSH4 0xA9059CBB EQ PUSH2 0xE6 JUMPI POP PUSH4 0xDD62ED3E EQ PUSH2 0x9B JUMPI PUSH0 DUP1 REVERT JUMPDEST CALLVALUE PUSH2 0xE2 JUMPI DUP1 PUSH1 0x3 NOT CALLDATASIZE ADD SLT PUSH2 0xE2 JUMPI DUP1 PUSH1 0x20 SWAP3 PUSH2 0xB7 PUSH2 0x616 JUMP JUMPDEST PUSH2 0xBF PUSH2 0x630 JUMP JUMPDEST PUSH1 0x1 PUSH1 0x1 PUSH1 0xA0 SHL SUB SWAP2 DUP3 AND DUP4 MSTORE PUSH1 0x5 DUP7 MSTORE DUP4 DUP4 KECCAK256 SWAP2 AND DUP3 MSTORE DUP5 MSTORE KECCAK256 SLOAD SWAP1 MLOAD SWAP1 DUP2 MSTORE RETURN JUMPDEST POP DUP1 REVERT JUMPDEST SWAP1 POP CALLVALUE PUSH2 0x18D JUMPI DUP2 PUSH1 0x3 NOT CALLDATASIZE ADD SLT PUSH2 0x18D JUMPI PUSH1 0x20 SWAP3 DUP3 PUSH2 0x104 PUSH2 0x616 JUMP JUMPDEST PUSH1 0x1 PUSH1 0x1 PUSH1 0xA0 SHL SUB AND SWAP3 PUSH1 0x24 CALLDATALOAD SWAP3 SWAP1 PUSH2 0x11E DUP6 ISZERO ISZERO PUSH2 0x646 JUMP JUMPDEST CALLER DUP3 MSTORE DUP1 DUP8 MSTORE PUSH2 0x133 DUP5 DUP5 DUP5 KECCAK256 SLOAD LT ISZERO PUSH2 0x684 JUMP JUMPDEST CALLER DUP3 MSTORE DUP1 DUP8 MSTORE DUP3 DUP3 KECCAK256 PUSH2 0x147 DUP6 DUP3 SLOAD PUSH2 0x6C7 JUMP JUMPDEST SWAP1 SSTORE DUP5 DUP3 MSTORE DUP7 MSTORE KECCAK256 PUSH2 0x15A DUP3 DUP3 SLOAD PUSH2 0x6E8 JUMP JUMPDEST SWAP1 SSTORE DUP3 MLOAD SWAP1 DUP2 MSTORE PUSH32 0xDDF252AD1BE2C89B69C2B068FC378DAA952BA7F163C4A11628F55A4DF523B3EF DUP5 CALLER SWAP3 LOG3 MLOAD PUSH1 0x1 DUP2 MSTORE RETURN JUMPDEST DUP3 DUP1 REVERT JUMPDEST DUP4 DUP4 CALLVALUE PUSH2 0xE2 JUMPI DUP2 PUSH1 0x3 NOT CALLDATASIZE ADD SLT PUSH2 0xE2 JUMPI DUP1 MLOAD SWAP1 DUP3 PUSH1 0x1 DUP1 SLOAD SWAP1 DUP2 DUP2 SHR SWAP1 DUP1 DUP4 AND SWAP3 DUP4 ISZERO PUSH2 0x2A7 JUMPI JUMPDEST PUSH1 0x20 SWAP4 DUP5 DUP5 LT DUP2 EQ PUSH2 0x294 JUMPI DUP4 DUP9 MSTORE SWAP1 DUP2 ISZERO PUSH2 0x278 JUMPI POP PUSH1 0x1 EQ PUSH2 0x223 JUMPI JUMPDEST POP POP POP DUP3 SWAP1 SUB PUSH1 0x1F ADD PUSH1 0x1F NOT AND DUP3 ADD SWAP3 PUSH8 0xFFFFFFFFFFFFFFFF DUP5 GT DUP4 DUP6 LT OR PUSH2 0x210 JUMPI POP DUP3 SWAP2 DUP3 PUSH2 0x20C SWAP3 MSTORE DUP3 PUSH2 0x5CF JUMP JUMPDEST SUB SWAP1 RETURN JUMPDEST PUSH4 0x4E487B71 PUSH1 0xE0 SHL DUP2 MSTORE PUSH1 0x41 DUP6 MSTORE PUSH1 0x24 SWAP1 REVERT JUMPDEST DUP1 DUP8 MSTORE SWAP2 SWAP3 POP DUP6 SWAP2 DUP4 PUSH32 0xB10E2D527612073B26EECDFD717E6A320CF44B4AFAC2B0732D9FCBE2B7FA0CF6 JUMPDEST DUP4 DUP6 LT PUSH2 0x264 JUMPI POP POP POP POP DUP4 ADD ADD DUP6 DUP1 DUP1 PUSH2 0x1DA JUMP JUMPDEST DUP1 SLOAD DUP9 DUP7 ADD DUP4 ADD MSTORE SWAP4 ADD SWAP3 DUP5 SWAP1 DUP3 ADD PUSH2 0x24E JUMP JUMPDEST PUSH1 0xFF NOT AND DUP8 DUP6 ADD MSTORE POP POP ISZERO ISZERO PUSH1 0x5 SHL DUP5 ADD ADD SWAP1 POP DUP6 DUP1 DUP1 PUSH2 0x1DA JUMP JUMPDEST PUSH4 0x4E487B71 PUSH1 0xE0 SHL DUP10 MSTORE PUSH1 0x22 DUP11 MSTORE PUSH1 0x24 DUP10 REVERT JUMPDEST SWAP2 PUSH1 0x7F AND SWAP2 PUSH2 0x1BB JUMP JUMPDEST SWAP1 POP CALLVALUE PUSH2 0x18D JUMPI PUSH1 0x20 CALLDATASIZE PUSH1 0x3 NOT ADD SLT PUSH2 0x18D JUMPI PUSH1 0x20 SWAP3 DUP3 SWAP2 PUSH1 0x1 PUSH1 0x1 PUSH1 0xA0 SHL SUB PUSH2 0x2D9 PUSH2 0x616 JUMP JUMPDEST AND DUP3 MSTORE DUP5 MSTORE KECCAK256 SLOAD SWAP1 MLOAD SWAP1 DUP2 MSTORE RETURN JUMPDEST POP POP CALLVALUE PUSH2 0xE2 JUMPI DUP1 PUSH1 0x3 NOT CALLDATASIZE ADD SLT PUSH2 0xE2 JUMPI DUP1 PUSH1 0x20 SWAP3 PUSH2 0xB7 PUSH2 0x616 JUMP JUMPDEST POP POP CALLVALUE PUSH2 0xE2 JUMPI DUP2 PUSH1 0x3 NOT CALLDATASIZE ADD SLT PUSH2 0xE2 JUMPI PUSH1 0x20 SWAP1 PUSH1 0xFF PUSH1 0x2 SLOAD AND SWAP1 MLOAD SWAP1 DUP2 MSTORE RETURN JUMPDEST DUP3 DUP5 CALLVALUE PUSH2 0x45C JUMPI PUSH1 0x60 CALLDATASIZE PUSH1 0x3 NOT ADD SLT PUSH2 0x45C JUMPI PUSH2 0x342 PUSH2 0x616 JUMP JUMPDEST SWAP1 PUSH2 0x34B PUSH2 0x630 JUMP JUMPDEST PUSH1 0x1 PUSH1 0x1 PUSH1 0xA0 SHL SUB SWAP1 DUP2 AND SWAP3 PUSH1 0x44 CALLDATALOAD SWAP2 SWAP1 PUSH2 0x367 DUP6 ISZERO ISZERO PUSH2 0x646 JUMP JUMPDEST AND SWAP2 PUSH2 0x374 DUP4 ISZERO ISZERO PUSH2 0x646 JUMP JUMPDEST DUP3 DUP2 MSTORE PUSH1 0x20 SWAP6 DUP1 DUP8 MSTORE PUSH2 0x38C DUP4 DUP8 DUP5 KECCAK256 SLOAD LT ISZERO PUSH2 0x684 JUMP JUMPDEST DUP4 DUP3 MSTORE PUSH1 0x5 DUP8 MSTORE DUP6 DUP3 KECCAK256 CALLER DUP4 MSTORE DUP8 MSTORE DUP3 DUP7 DUP4 KECCAK256 SLOAD LT PUSH2 0x420 JUMPI SWAP2 DUP6 DUP3 PUSH32 0xDDF252AD1BE2C89B69C2B068FC378DAA952BA7F163C4A11628F55A4DF523B3EF SWAP5 DUP7 DUP11 SWAP6 MSTORE DUP1 DUP6 MSTORE DUP3 DUP3 KECCAK256 PUSH2 0x3DF DUP6 DUP3 SLOAD PUSH2 0x6C7 JUMP JUMPDEST SWAP1 SSTORE DUP8 DUP3 MSTORE DUP5 MSTORE DUP2 DUP2 KECCAK256 PUSH2 0x3F4 DUP5 DUP3 SLOAD PUSH2 0x6E8 JUMP JUMPDEST SWAP1 SSTORE DUP6 DUP2 MSTORE PUSH1 0x5 DUP5 MSTORE DUP2 DUP2 KECCAK256 CALLER DUP3 MSTORE DUP5 MSTORE KECCAK256 PUSH2 0x411 DUP3 DUP3 SLOAD PUSH2 0x6C7 JUMP JUMPDEST SWAP1 SSTORE DUP6 MLOAD SWAP1 DUP2 MSTORE LOG3 MLOAD PUSH1 0x1 DUP2 MSTORE RETURN JUMPDEST DUP6 MLOAD PUSH3 0x461BCD PUSH1 0xE5 SHL DUP2 MSTORE SWAP1 DUP2 ADD DUP8 SWAP1 MSTORE PUSH1 0x16 PUSH1 0x24 DUP3 ADD MSTORE PUSH22 0x496E73756666696369656E7420616C6C6F77616E6365 PUSH1 0x50 SHL PUSH1 0x44 DUP3 ADD MSTORE PUSH1 0x64 SWAP1 REVERT JUMPDEST DUP1 REVERT JUMPDEST POP POP CALLVALUE PUSH2 0xE2 JUMPI DUP2 PUSH1 0x3 NOT CALLDATASIZE ADD SLT PUSH2 0xE2 JUMPI PUSH1 0x20 SWAP1 PUSH1 0x3 SLOAD SWAP1 MLOAD SWAP1 DUP2 MSTORE RETURN JUMPDEST POP POP CALLVALUE PUSH2 0xE2 JUMPI DUP1 PUSH1 0x3 NOT CALLDATASIZE ADD SLT PUSH2 0xE2 JUMPI PUSH1 0x20 SWAP2 DUP2 PUSH2 0x49C PUSH2 0x616 JUMP JUMPDEST PUSH1 0x1 PUSH1 0x1 PUSH1 0xA0 SHL SUB AND SWAP2 PUSH1 0x24 CALLDATALOAD SWAP2 DUP3 SWAP2 PUSH2 0x4B7 DUP6 ISZERO ISZERO PUSH2 0x646 JUMP JUMPDEST CALLER DUP2 MSTORE PUSH1 0x5 DUP8 MSTORE DUP2 DUP2 KECCAK256 DUP6 DUP3 MSTORE DUP8 MSTORE KECCAK256 SSTORE DUP3 MLOAD SWAP1 DUP2 MSTORE PUSH32 0x8C5BE1E5EBEC7D5BD14F71427D1E84F3DD0314C0F7B2291E5B200AC8C7C3B925 DUP5 CALLER SWAP3 LOG3 MLOAD PUSH1 0x1 DUP2 MSTORE RETURN JUMPDEST DUP5 SWAP1 DUP5 CALLVALUE PUSH2 0x18D JUMPI DUP3 PUSH1 0x3 NOT CALLDATASIZE ADD SLT PUSH2 0x18D JUMPI DUP3 DUP4 SLOAD PUSH1 0x1 DUP2 DUP2 SHR SWAP1 DUP1 DUP4 AND SWAP3 DUP4 ISZERO PUSH2 0x5C5 JUMPI JUMPDEST PUSH1 0x20 SWAP4 DUP5 DUP5 LT DUP2 EQ PUSH2 0x294 JUMPI DUP4 DUP9 MSTORE SWAP1 DUP2 ISZERO PUSH2 0x278 JUMPI POP PUSH1 0x1 EQ PUSH2 0x570 JUMPI POP POP POP DUP3 SWAP1 SUB PUSH1 0x1F ADD PUSH1 0x1F NOT AND DUP3 ADD SWAP3 PUSH8 0xFFFFFFFFFFFFFFFF DUP5 GT DUP4 DUP6 LT OR PUSH2 0x210 JUMPI POP DUP3 SWAP2 DUP3 PUSH2 0x20C SWAP3 MSTORE DUP3 PUSH2 0x5CF JUMP JUMPDEST DUP7 DUP1 MSTORE SWAP2 SWAP3 POP DUP6 SWAP2 DUP4 PUSH32 0x290DECD9548B62A8D60345A988386FC84BA6BC95484008F6362F93160EF3E563 JUMPDEST DUP4 DUP6 LT PUSH2 0x5B1 JUMPI POP POP POP POP DUP4 ADD ADD DUP6 DUP1 DUP1 PUSH2 0x1DA JUMP JUMPDEST DUP1 SLOAD DUP9 DUP7 ADD DUP4 ADD MSTORE SWAP4 ADD SWAP3 DUP5 SWAP1 DUP3 ADD PUSH2 0x59B JUMP JUMPDEST SWAP2 PUSH1 0x7F AND SWAP2 PUSH2 0x520 JUMP JUMPDEST PUSH1 0x20 DUP1 DUP3 MSTORE DUP3 MLOAD DUP2 DUP4 ADD DUP2 SWAP1 MSTORE SWAP1 SWAP4 SWAP3 PUSH0 JUMPDEST DUP3 DUP2 LT PUSH2 0x602 JUMPI POP POP PUSH1 0x40 SWAP3 SWAP4 POP PUSH0 DUP4 DUP3 DUP5 ADD ADD MSTORE PUSH1 0x1F DUP1 NOT SWAP2 ADD AND ADD ADD SWAP1 JUMP JUMPDEST DUP2 DUP2 ADD DUP7 ADD MLOAD DUP5 DUP3 ADD PUSH1 0x40 ADD MSTORE DUP6 ADD PUSH2 0x5E1 JUMP JUMPDEST PUSH1 0x4 CALLDATALOAD SWAP1 PUSH1 0x1 PUSH1 0x1 PUSH1 0xA0 SHL SUB DUP3 AND DUP3 SUB PUSH2 0x62C JUMPI JUMP JUMPDEST PUSH0 DUP1 REVERT JUMPDEST PUSH1 0x24 CALLDATALOAD SWAP1 PUSH1 0x1 PUSH1 0x1 PUSH1 0xA0 SHL SUB DUP3 AND DUP3 SUB PUSH2 0x62C JUMPI JUMP JUMPDEST ISZERO PUSH2 0x64D JUMPI JUMP JUMPDEST PUSH1 0x40 MLOAD PUSH3 0x461BCD PUSH1 0xE5 SHL DUP2 MSTORE PUSH1 0x20 PUSH1 0x4 DUP3 ADD MSTORE PUSH1 0xF PUSH1 0x24 DUP3 ADD MSTORE PUSH15 0x496E76616C69642061646472657373 PUSH1 0x88 SHL PUSH1 0x44 DUP3 ADD MSTORE PUSH1 0x64 SWAP1 REVERT JUMPDEST ISZERO PUSH2 0x68B JUMPI JUMP JUMPDEST PUSH1 0x40 MLOAD PUSH3 0x461BCD PUSH1 0xE5 SHL DUP2 MSTORE PUSH1 0x20 PUSH1 0x4 DUP3 ADD MSTORE PUSH1 0x14 PUSH1 0x24 DUP3 ADD MSTORE PUSH20 0x496E73756666696369656E742062616C616E6365 PUSH1 0x60 SHL PUSH1 0x44 DUP3 ADD MSTORE PUSH1 0x64 SWAP1 REVERT JUMPDEST SWAP2 SWAP1 DUP3 SUB SWAP2 DUP3 GT PUSH2 0x6D4 JUMPI JUMP JUMPDEST PUSH4 0x4E487B71 PUSH1 0xE0 SHL PUSH0 MSTORE PUSH1 0x11 PUSH1 0x4 MSTORE PUSH1 0x24 PUSH0 REVERT JUMPDEST SWAP2 SWAP1 DUP3 ADD DUP1 SWAP3 GT PUSH2 0x6D4 JUMPI JUMP INVALID LOG2 PUSH5 0x6970667358 0x22 SLT KECCAK256 PUSH0 SMOD 0xDC 0xAE MLOAD 0xA8 0x1E 0xB9 0xD1 SAR INVALID DUP9 SELFDESTRUCT SWAP7 0xB0 DUP16 EXTCODEHASH SWAP15 0xB7 POP 0x4E PUSH8 0x98E55DC715CB87A6 PUSH3 0xAB6473 PUSH16 0x6C634300081400330000000000000000 "
		},
		"gasEstimates": {
			"creation": {
				"codeDepositCost": "367000",
				"executionCost": "infinite",
				"totalCost": "infinite"
			},
			"external": {
				"allowance(address,address)": "2787",
				"allowances(address,address)": "2704",
				"approve(address,uint256)": "24360",
				"balanceOf(address)": "2582",
				"balances(address)": "2516",
				"decimals()": "2395",
				"name()": "infinite",
				"symbol()": "infinite",
				"totalSupply()": "2323",
				"transfer(address,uint256)": "53182",
				"transferFrom(address,address,uint256)": "infinite"
			}
		},
		"methodIdentifiers": {
			"allowance(address,address)": "dd62ed3e",
			"allowances(address,address)": "55b6ed5c",
			"approve(address,uint256)": "095ea7b3",
			"balanceOf(address)": "70a08231",
			"balances(address)": "27e235e3",
			"decimals()": "313ce567",
			"name()": "06fdde03",
			"symbol()": "95d89b41",
			"totalSupply()": "18160ddd",
			"transfer(address,uint256)": "a9059cbb",
			"transferFrom(address,address,uint256)": "23b872dd"
		}
	},
	"abi": [
		{
			"inputs": [],
			"stateMutability": "nonpayable",
			"type": "constructor"
		},
		{
			"anonymous": false,
			"inputs": [
				{
					"indexed": true,
					"internalType": "address",
					"name": "_owner",
					"type": "address"
				},
				{
					"indexed": true,
					"internalType": "address",
					"name": "_spender",
					"type": "address"
				},
				{
					"indexed": false,
					"internalType": "uint256",
					"name": "_value",
					"type": "uint256"
				}
			],
			"name": "Approval",
			"type": "event"
		},
		{
			"anonymous": false,
			"inputs": [
				{
					"indexed": true,
					"internalType": "address",
					"name": "_from",
					"type": "address"
				},
				{
					"indexed": true,
					"internalType": "address",
					"name": "_to",
					"type": "address"
				},
				{
					"indexed": false,
					"internalType": "uint256",
					"name": "_value",
					"type": "uint256"
				}
			],
			"name": "Transfer",
			"type": "event"
		},
		{
			"inputs": [
				{
					"internalType": "address",
					"name": "_owner",
					"type": "address"
				},
				{
					"internalType": "address",
					"name": "_spender",
					"type": "address"
				}
			],
			"name": "allowance",
			"outputs": [
				{
					"internalType": "uint256",
					"name": "",
					"type": "uint256"
				}
			],
			"stateMutability": "view",
			"type": "function"
		},
		{
			"inputs": [
				{
					"internalType": "address",
					"name": "",
					"type": "address"
				},
				{
					"internalType": "address",
					"name": "",
					"type": "address"
				}
			],
			"name": "allowances",
			"outputs": [
				{
					"internalType": "uint256",
					"name": "",
					"type": "uint256"
				}
			],
			"stateMutability": "view",
			"type": "function"
		},
		{
			"inputs": [
				{
					"internalType": "address",
					"name": "_spender",
					"type": "address"
				},
				{
					"internalType": "uint256",
					"name": "_value",
					"type": "uint256"
				}
			],
			"name": "approve",
			"outputs": [
				{
					"internalType": "bool",
					"name": "",
					"type": "bool"
				}
			],
			"stateMutability": "nonpayable",
			"type": "function"
		},
		{
			"inputs": [
				{
					"internalType": "address",
					"name": "_owner",
					"type": "address"
				}
			],
			"name": "balanceOf",
			"outputs": [
				{
					"internalType": "uint256",
					"name": "",
					"type": "uint256"
				}
			],
			"stateMutability": "view",
			"type": "function"
		},
		{
			"inputs": [
				{
					"internalType": "address",
					"name": "",
					"type": "address"
				}
			],
			"name": "balances",
			"outputs": [
				{
					"internalType": "uint256",
					"name": "",
					"type": "uint256"
				}
			],
			"stateMutability": "view",
			"type": "function"
		},
		{
			"inputs": [],
			"name": "decimals",
			"outputs": [
				{
					"internalType": "uint8",
					"name": "",
					"type": "uint8"
				}
			],
			"stateMutability": "view",
			"type": "function"
		},
		{
			"inputs": [],
			"name": "name",
			"outputs": [
				{
					"internalType": "string",
					"name": "",
					"type": "string"
				}
			],
			"stateMutability": "view",
			"type": "function"
		},
		{
			"inputs": [],
			"name": "symbol",
			"outputs": [
				{
					"internalType": "string",
					"name": "",
					"type": "string"
				}
			],
			"stateMutability": "view",
			"type": "function"
		},
		{
			"inputs": [],
			"name": "totalSupply",
			"outputs": [
				{
					"internalType": "uint256",
					"name": "",
					"type": "uint256"
				}
			],
			"stateMutability": "view",
			"type": "function"
		},
		{
			"inputs": [
				{
					"internalType": "address",
					"name": "_to",
					"type": "address"
				},
				{
					"internalType": "uint256",
					"name": "_value",
					"type": "uint256"
				}
			],
			"name": "transfer",
			"outputs": [
				{
					"internalType": "bool",
					"name": "",
					"type": "bool"
				}
			],
			"stateMutability": "nonpayable",
			"type": "function"
		},
		{
			"inputs": [
				{
					"internalType": "address",
					"name": "_from",
					"type": "address"
				},
				{
					"internalType": "address",
					"name": "_to",
					"type": "address"
				},
				{
					"internalType": "uint256",
					"name": "_value",
					"type": "uint256"
				}
			],
			"name": "transferFrom",
			"outputs": [
				{
					"internalType": "bool",
					"name": "",
					"type": "bool"
				}
			],
			"stateMutability": "nonpayable",
			"type": "function"
		}
	]
}